{
  "address": "0x7B9BFF3AEbAcE3715660e6340370810f10481b53",
  "abi": [
    {
      "inputs": [],
      "stateMutability": "nonpayable",
      "type": "constructor"
    },
    {
      "inputs": [
        {
          "internalType": "address",
          "name": "sender",
          "type": "address"
        },
        {
          "internalType": "address",
          "name": "calledContract",
          "type": "address"
        },
        {
          "internalType": "string",
          "name": "methodSignature",
          "type": "string"
        }
      ],
      "name": "Unauthorized",
      "type": "error"
    },
    {
      "anonymous": false,
      "inputs": [
        {
          "indexed": true,
          "internalType": "address",
          "name": "oldFeedRegistry",
          "type": "address"
        },
        {
          "indexed": true,
          "internalType": "address",
          "name": "newFeedRegistry",
          "type": "address"
        }
      ],
      "name": "FeedRegistryUpdated",
      "type": "event"
    },
    {
      "anonymous": false,
      "inputs": [
        {
          "indexed": false,
          "internalType": "uint8",
          "name": "version",
          "type": "uint8"
        }
      ],
      "name": "Initialized",
      "type": "event"
    },
    {
      "anonymous": false,
      "inputs": [
        {
          "indexed": true,
          "internalType": "string",
          "name": "asset",
          "type": "string"
        },
        {
          "indexed": false,
          "internalType": "uint256",
          "name": "maxStalePeriod",
          "type": "uint256"
        }
      ],
      "name": "MaxStalePeriodAdded",
      "type": "event"
    },
    {
      "anonymous": false,
      "inputs": [
        {
          "indexed": false,
          "internalType": "address",
          "name": "oldAccessControlManager",
          "type": "address"
        },
        {
          "indexed": false,
          "internalType": "address",
          "name": "newAccessControlManager",
          "type": "address"
        }
      ],
      "name": "NewAccessControlManager",
      "type": "event"
    },
    {
      "anonymous": false,
      "inputs": [
        {
          "indexed": true,
          "internalType": "address",
          "name": "previousOwner",
          "type": "address"
        },
        {
          "indexed": true,
          "internalType": "address",
          "name": "newOwner",
          "type": "address"
        }
      ],
      "name": "OwnershipTransferStarted",
      "type": "event"
    },
    {
      "anonymous": false,
      "inputs": [
        {
          "indexed": true,
          "internalType": "address",
          "name": "previousOwner",
          "type": "address"
        },
        {
          "indexed": true,
          "internalType": "address",
          "name": "newOwner",
          "type": "address"
        }
      ],
      "name": "OwnershipTransferred",
      "type": "event"
    },
    {
      "anonymous": false,
      "inputs": [
        {
          "indexed": true,
          "internalType": "string",
          "name": "symbol",
          "type": "string"
        },
        {
          "indexed": false,
          "internalType": "string",
          "name": "overriddenSymbol",
          "type": "string"
        }
      ],
      "name": "SymbolOverridden",
      "type": "event"
    },
    {
      "inputs": [],
      "name": "BNB_ADDR",
      "outputs": [
        {
          "internalType": "address",
          "name": "",
          "type": "address"
        }
      ],
      "stateMutability": "view",
      "type": "function"
    },
    {
      "inputs": [],
      "name": "acceptOwnership",
      "outputs": [],
      "stateMutability": "nonpayable",
      "type": "function"
    },
    {
      "inputs": [],
      "name": "accessControlManager",
      "outputs": [
        {
          "internalType": "contract IAccessControlManagerV8",
          "name": "",
          "type": "address"
        }
      ],
      "stateMutability": "view",
      "type": "function"
    },
    {
      "inputs": [],
      "name": "feedRegistryAddress",
      "outputs": [
        {
          "internalType": "address",
          "name": "",
          "type": "address"
        }
      ],
      "stateMutability": "view",
      "type": "function"
    },
    {
      "inputs": [],
      "name": "getFeedRegistryAddress",
      "outputs": [
        {
          "internalType": "address",
          "name": "",
          "type": "address"
        }
      ],
      "stateMutability": "view",
      "type": "function"
    },
    {
      "inputs": [
        {
          "internalType": "address",
          "name": "asset",
          "type": "address"
        }
      ],
      "name": "getPrice",
      "outputs": [
        {
          "internalType": "uint256",
          "name": "",
          "type": "uint256"
        }
      ],
      "stateMutability": "view",
      "type": "function"
    },
    {
      "inputs": [
        {
          "internalType": "address",
          "name": "_sidRegistryAddress",
          "type": "address"
        },
        {
          "internalType": "address",
          "name": "_accessControlManager",
          "type": "address"
        }
      ],
      "name": "initialize",
      "outputs": [],
      "stateMutability": "nonpayable",
      "type": "function"
    },
    {
      "inputs": [
        {
          "internalType": "string",
          "name": "",
          "type": "string"
        }
      ],
      "name": "maxStalePeriod",
      "outputs": [
        {
          "internalType": "uint256",
          "name": "",
          "type": "uint256"
        }
      ],
      "stateMutability": "view",
      "type": "function"
    },
    {
      "inputs": [],
      "name": "owner",
      "outputs": [
        {
          "internalType": "address",
          "name": "",
          "type": "address"
        }
      ],
      "stateMutability": "view",
      "type": "function"
    },
    {
      "inputs": [],
      "name": "pendingOwner",
      "outputs": [
        {
          "internalType": "address",
          "name": "",
          "type": "address"
        }
      ],
      "stateMutability": "view",
      "type": "function"
    },
    {
      "inputs": [],
      "name": "renounceOwnership",
      "outputs": [],
      "stateMutability": "nonpayable",
      "type": "function"
    },
    {
      "inputs": [
        {
          "internalType": "address",
          "name": "accessControlManager_",
          "type": "address"
        }
      ],
      "name": "setAccessControlManager",
      "outputs": [],
      "stateMutability": "nonpayable",
      "type": "function"
    },
    {
      "inputs": [
        {
          "internalType": "address",
          "name": "newfeedRegistryAddress",
          "type": "address"
        }
      ],
      "name": "setFeedRegistryAddress",
      "outputs": [],
      "stateMutability": "nonpayable",
      "type": "function"
    },
    {
      "inputs": [
        {
          "internalType": "string",
          "name": "symbol",
          "type": "string"
        },
        {
          "internalType": "uint256",
          "name": "_maxStalePeriod",
          "type": "uint256"
        }
      ],
      "name": "setMaxStalePeriod",
      "outputs": [],
      "stateMutability": "nonpayable",
      "type": "function"
    },
    {
      "inputs": [
        {
          "internalType": "string",
          "name": "symbol",
          "type": "string"
        },
        {
          "internalType": "string",
          "name": "overrideSymbol",
          "type": "string"
        }
      ],
      "name": "setSymbolOverride",
      "outputs": [],
      "stateMutability": "nonpayable",
      "type": "function"
    },
    {
      "inputs": [],
      "name": "sidRegistryAddress",
      "outputs": [
        {
          "internalType": "address",
          "name": "",
          "type": "address"
        }
      ],
      "stateMutability": "view",
      "type": "function"
    },
    {
      "inputs": [
        {
          "internalType": "string",
          "name": "",
          "type": "string"
        }
      ],
      "name": "symbols",
      "outputs": [
        {
          "internalType": "string",
          "name": "",
          "type": "string"
        }
      ],
      "stateMutability": "view",
      "type": "function"
    },
    {
      "inputs": [
        {
          "internalType": "address",
          "name": "newOwner",
          "type": "address"
        }
      ],
      "name": "transferOwnership",
      "outputs": [],
      "stateMutability": "nonpayable",
      "type": "function"
    }
  ],
  "transactionHash": "0x76fe96c57cec4d5bb0eab94e24f633b830df482d0024a10719253acb934628ca",
  "args": [],
  "numDeployments": 1,
  "solcInputHash": "1e37f6e5d619feb70cefe47611ec524e",
  "bytecode": "0x608060405234801561001057600080fd5b5061001961001e565b6100dd565b600054610100900460ff161561008a5760405162461bcd60e51b815260206004820152602760248201527f496e697469616c697a61626c653a20636f6e747261637420697320696e697469604482015266616c697a696e6760c81b606482015260840160405180910390fd5b60005460ff908116146100db576000805460ff191660ff9081179091556040519081527f7f26b83ff96e1f2b6a682f133852f6798a09c465da95921460cefb38474024989060200160405180910390a15b565b6118e4806100ec6000396000f3fe608060405234801561001057600080fd5b50600436106101165760003560e01c8063715018a6116100a25780639eab1ad6116100715780639eab1ad614610231578063b4a0bdf314610244578063e30c397814610255578063f2fde38b14610266578063fdfbc2771461027957600080fd5b8063715018a61461020857806379ba5097146102105780638da5cb5b1461021857806399fe040e1461022957600080fd5b80633e83b6b8116100e95780633e83b6b81461019357806341976e09146101ae578063475e7de5146101cf578063485cc955146101e2578063636b999a146101f557600080fd5b8063011d39621461011b578063047a74b21461014b5780630e32cb861461016b578063255ce37a14610180575b600080fd5b60cc5461012e906001600160a01b031681565b6040516001600160a01b0390911681526020015b60405180910390f35b61015e610159366004611292565b6102a4565b604051610142919061132b565b61017e61017936600461135a565b610349565b005b61017e61018e36600461135a565b61035d565b61012e73bbbbbbbbbbbbbbbbbbbbbbbbbbbbbbbbbbbbbbbb81565b6101c16101bc36600461135a565b61046f565b604051908152602001610142565b60c95461012e906001600160a01b031681565b61017e6101f0366004611377565b61065d565b61017e6102033660046113b0565b61078c565b61017e6108b4565b61017e6108c8565b6033546001600160a01b031661012e565b61012e61093f565b61017e61023f36600461143e565b610a4d565b6097546001600160a01b031661012e565b6065546001600160a01b031661012e565b61017e61027436600461135a565b610b5b565b6101c1610287366004611292565b805160208183018101805160ca8252928201919093012091525481565b805160208183018101805160cb82529282019190930120915280546102c8906114aa565b80601f01602080910402602001604051908101604052809291908181526020018280546102f4906114aa565b80156103415780601f1061031657610100808354040283529160200191610341565b820191906000526020600020905b81548152906001019060200180831161032457829003601f168201915b505050505081565b610351610bcc565b61035a81610c26565b50565b806001600160a01b0381166103b15760405162461bcd60e51b815260206004820152601560248201527463616e2774206265207a65726f206164647265737360581b60448201526064015b60405180910390fd5b6103b9610bcc565b60c9546001600160a01b0316156104125760405162461bcd60e51b815260206004820152601f60248201527f736964526567697374727941646472657373206d757374206265207a65726f0060448201526064016103a8565b60cc546040516001600160a01b038085169216907f6d1006252b3dd171af76c28c184327bfddc39f439a50e0ac7f418c660b8894b590600090a35060cc80546001600160a01b0319166001600160a01b0392909216919091179055565b600060608173bbbbbbbbbbbbbbbbbbbbbbbbbbbbbbbbbbbbbbba196001600160a01b038516016104bc57505060408051808201909152600381526221272160e91b60208201526012610592565b6000849050806001600160a01b03166395d89b416040518163ffffffff1660e01b8152600401600060405180830381865afa1580156104ff573d6000803e3d6000fd5b505050506040513d6000823e601f3d908101601f1916820160405261052791908101906114e4565b9250806001600160a01b031663313ce5676040518163ffffffff1660e01b8152600401602060405180830381865afa158015610567573d6000803e3d6000fd5b505050506040513d601f19601f8201168201806040525081019061058b9190611552565b60ff169150505b600060cb836040516105a49190611575565b908152602001604051809103902080546105bd906114aa565b80601f01602080910402602001604051908101604052809291908181526020018280546105e9906114aa565b80156106365780601f1061060b57610100808354040283529160200191610636565b820191906000526020600020905b81548152906001019060200180831161061957829003601f168201915b50505050509050805160001461064a578092505b6106548383610ceb565b95945050505050565b600054610100900460ff161580801561067d5750600054600160ff909116105b806106975750303b158015610697575060005460ff166001145b6106fa5760405162461bcd60e51b815260206004820152602e60248201527f496e697469616c697a61626c653a20636f6e747261637420697320616c72656160448201526d191e481a5b9a5d1a585b1a5e995960921b60648201526084016103a8565b6000805460ff19166001179055801561071d576000805461ff0019166101001790555b60c980546001600160a01b0319166001600160a01b03851617905561074182610f6d565b8015610787576000805461ff0019169055604051600181527f7f26b83ff96e1f2b6a682f133852f6798a09c465da95921460cefb38474024989060200160405180910390a15b505050565b6107ad60405180606001604052806021815260200161188e60219139610fa5565b806000036107fd5760405162461bcd60e51b815260206004820152601a60248201527f7374616c6520706572696f642063616e2774206265207a65726f00000000000060448201526064016103a8565b81516000036108475760405162461bcd60e51b815260206004820152601660248201527573796d626f6c2063616e6e6f7420626520656d70747960501b60448201526064016103a8565b8060ca836040516108589190611575565b90815260405190819003602001812091909155610876908390611575565b604051908190038120828252907f37839d4a80c5e3f2578f59515c911ee8cce42383d7ebaa1c92afcde9871c4b589060200160405180910390a25050565b6108bc610bcc565b6108c66000611043565b565b60655433906001600160a01b031681146109365760405162461bcd60e51b815260206004820152602960248201527f4f776e61626c6532537465703a2063616c6c6572206973206e6f7420746865206044820152683732bb9037bbb732b960b91b60648201526084016103a8565b61035a81611043565b60c954604051630178b8bf60e01b81527f94fe3821e0768eb35012484db4df61890f9a6ca5bfa984ef8ff717e73139faff6004820181905260009290916001600160a01b039091169083908290630178b8bf90602401602060405180830381865afa1580156109b2573d6000803e3d6000fd5b505050506040513d601f19601f820116820180604052508101906109d69190611591565b604051631d9dabef60e11b81526004810185905290915081906001600160a01b03821690633b3b57de90602401602060405180830381865afa158015610a20573d6000803e3d6000fd5b505050506040513d601f19601f82011682018060405250810190610a449190611591565b94505050505090565b610a8b6040518060400160405280602081526020017f73657453796d626f6c4f7665727269646528737472696e672c737472696e6729815250610fa5565b6000839003610ad55760405162461bcd60e51b815260206004820152601660248201527573796d626f6c2063616e6e6f7420626520656d70747960501b60448201526064016103a8565b818160cb8686604051610ae99291906115ae565b908152604051908190036020019020610b03929091611134565b508383604051610b149291906115ae565b60405180910390207fceb1f47aa91b96f02ea70e1deed25fe154ad1885aea509bd7222f9eec0a0bda58383604051610b4d9291906115be565b60405180910390a250505050565b610b63610bcc565b606580546001600160a01b0383166001600160a01b03199091168117909155610b946033546001600160a01b031690565b6001600160a01b03167f38d16b8cac22d99fc7c124b9cd0de2d3fa1faef420bfe791d8c362d765e2270060405160405180910390a350565b6033546001600160a01b031633146108c65760405162461bcd60e51b815260206004820181905260248201527f4f776e61626c653a2063616c6c6572206973206e6f7420746865206f776e657260448201526064016103a8565b6001600160a01b038116610c8a5760405162461bcd60e51b815260206004820152602560248201527f696e76616c696420616365737320636f6e74726f6c206d616e61676572206164604482015264647265737360d81b60648201526084016103a8565b609780546001600160a01b038381166001600160a01b031983168117909355604080519190921680825260208201939093527f66fd58e82f7b31a2a5c30e0888f3093efe4e111b00cd2b0c31fe014601293aa0910160405180910390a15050565b60c95460009081906001600160a01b031615610d1057610d0961093f565b9050610d1e565b5060cc546001600160a01b03165b600080826001600160a01b031663bfda5e71876040518263ffffffff1660e01b8152600401610d4d91906115ed565b60a060405180830381865afa158015610d6a573d6000803e3d6000fd5b505050506040513d601f19601f82011682018060405250810190610d8e9190611644565b5093505092505060008213610de55760405162461bcd60e51b815260206004820152601c60248201527f696e76616c69642062696e616e6365206f7261636c652070726963650000000060448201526064016103a8565b80421015610e355760405162461bcd60e51b815260206004820152601c60248201527f757064617465644174206578636565647320626c6f636b2074696d650000000060448201526064016103a8565b6000814203905060ca87604051610e4c9190611575565b908152602001604051809103902054811115610eaa5760405162461bcd60e51b815260206004820152601c60248201527f62696e616e6365206f7261636c6520707269636520657870697265640000000060448201526064016103a8565b604051633748ccad60e11b81526000906001600160a01b03861690636e91995a90610ed9908b906004016115ed565b602060405180830381865afa158015610ef6573d6000803e3d6000fd5b505050506040513d601f19601f82011682018060405250810190610f1a9190611552565b60ff169050610f2a8760126116aa565b610f3590600a6117a5565b610f408260126116aa565b610f4b90600a6117a5565b610f5590866117b1565b610f5f91906117b1565b955050505050505b92915050565b600054610100900460ff16610f945760405162461bcd60e51b81526004016103a8906117d0565b610f9c61105c565b61035a8161108b565b6097546040516318c5e8ab60e01b81526000916001600160a01b0316906318c5e8ab90610fd8903390869060040161181b565b602060405180830381865afa158015610ff5573d6000803e3d6000fd5b505050506040513d601f19601f82011682018060405250810190611019919061183f565b90508061103f57333083604051634a3fa29360e01b81526004016103a893929190611861565b5050565b606580546001600160a01b031916905561035a816110b2565b600054610100900460ff166110835760405162461bcd60e51b81526004016103a8906117d0565b6108c6611104565b600054610100900460ff166103515760405162461bcd60e51b81526004016103a8906117d0565b603380546001600160a01b038381166001600160a01b0319831681179093556040519116919082907f8be0079c531659141344cd1fd0a4f28419497f9722a3daafe3b4186f6b6457e090600090a35050565b600054610100900460ff1661112b5760405162461bcd60e51b81526004016103a8906117d0565b6108c633611043565b828054611140906114aa565b90600052602060002090601f01602090048101928261116257600085556111a8565b82601f1061117b5782800160ff198235161785556111a8565b828001600101855582156111a8579182015b828111156111a857823582559160200191906001019061118d565b506111b49291506111b8565b5090565b5b808211156111b457600081556001016111b9565b634e487b7160e01b600052604160045260246000fd5b604051601f8201601f1916810167ffffffffffffffff8111828210171561120c5761120c6111cd565b604052919050565b600067ffffffffffffffff82111561122e5761122e6111cd565b50601f01601f191660200190565b600082601f83011261124d57600080fd5b813561126061125b82611214565b6111e3565b81815284602083860101111561127557600080fd5b816020850160208301376000918101602001919091529392505050565b6000602082840312156112a457600080fd5b813567ffffffffffffffff8111156112bb57600080fd5b6112c78482850161123c565b949350505050565b60005b838110156112ea5781810151838201526020016112d2565b838111156112f9576000848401525b50505050565b600081518084526113178160208601602086016112cf565b601f01601f19169290920160200192915050565b60208152600061133e60208301846112ff565b9392505050565b6001600160a01b038116811461035a57600080fd5b60006020828403121561136c57600080fd5b813561133e81611345565b6000806040838503121561138a57600080fd5b823561139581611345565b915060208301356113a581611345565b809150509250929050565b600080604083850312156113c357600080fd5b823567ffffffffffffffff8111156113da57600080fd5b6113e68582860161123c565b95602094909401359450505050565b60008083601f84011261140757600080fd5b50813567ffffffffffffffff81111561141f57600080fd5b60208301915083602082850101111561143757600080fd5b9250929050565b6000806000806040858703121561145457600080fd5b843567ffffffffffffffff8082111561146c57600080fd5b611478888389016113f5565b9096509450602087013591508082111561149157600080fd5b5061149e878288016113f5565b95989497509550505050565b600181811c908216806114be57607f821691505b6020821081036114de57634e487b7160e01b600052602260045260246000fd5b50919050565b6000602082840312156114f657600080fd5b815167ffffffffffffffff81111561150d57600080fd5b8201601f8101841361151e57600080fd5b805161152c61125b82611214565b81815285602083850101111561154157600080fd5b6106548260208301602086016112cf565b60006020828403121561156457600080fd5b815160ff8116811461133e57600080fd5b600082516115878184602087016112cf565b9190910192915050565b6000602082840312156115a357600080fd5b815161133e81611345565b8183823760009101908152919050565b60208152816020820152818360408301376000818301604090810191909152601f909201601f19160101919050565b60408152600061160060408301846112ff565b828103602084015260038152621554d160ea1b60208201526040810191505092915050565b805169ffffffffffffffffffff8116811461163f57600080fd5b919050565b600080600080600060a0868803121561165c57600080fd5b61166586611625565b945060208601519350604086015192506060860151915061168860808701611625565b90509295509295909350565b634e487b7160e01b600052601160045260246000fd5b6000828210156116bc576116bc611694565b500390565b600181815b808511156116fc5781600019048211156116e2576116e2611694565b808516156116ef57918102915b93841c93908002906116c6565b509250929050565b60008261171357506001610f67565b8161172057506000610f67565b816001811461173657600281146117405761175c565b6001915050610f67565b60ff84111561175157611751611694565b50506001821b610f67565b5060208310610133831016604e8410600b841016171561177f575081810a610f67565b61178983836116c1565b806000190482111561179d5761179d611694565b029392505050565b600061133e8383611704565b60008160001904831182151516156117cb576117cb611694565b500290565b6020808252602b908201527f496e697469616c697a61626c653a20636f6e7472616374206973206e6f74206960408201526a6e697469616c697a696e6760a81b606082015260800190565b6001600160a01b03831681526040602082018190526000906112c7908301846112ff565b60006020828403121561185157600080fd5b8151801515811461133e57600080fd5b6001600160a01b03848116825283166020820152606060408201819052600090610654908301846112ff56fe7365744d61785374616c65506572696f6428737472696e672c75696e7432353629a2646970667358221220723e85edca51e34e030621f5efdfc0d303c604bfe8ffe7b19ec5a6abfebb512a64736f6c634300080d0033",
  "devdoc": {
    "author": "Venus",
    "kind": "dev",
    "methods": {
      "acceptOwnership()": {
        "details": "The new owner accepts the ownership transfer."
      },
      "constructor": {
        "custom:oz-upgrades-unsafe-allow": "constructor"
      },
      "getFeedRegistryAddress()": {
        "returns": {
          "_0": "feedRegistryAddress Address of binance oracle feed registry."
        }
      },
      "getPrice(address)": {
        "params": {
          "asset": "Address of the asset"
        },
        "returns": {
          "_0": "Price in USD"
        }
      },
      "initialize(address,address)": {
        "params": {
          "_accessControlManager": "Address of the access control manager contract",
          "_sidRegistryAddress": "Address of SID registry"
        }
      },
      "owner()": {
        "details": "Returns the address of the current owner."
      },
      "pendingOwner()": {
        "details": "Returns the address of the pending owner."
      },
      "renounceOwnership()": {
        "details": "Leaves the contract without owner. It will not be possible to call `onlyOwner` functions. Can only be called by the current owner. NOTE: Renouncing ownership will leave the contract without an owner, thereby disabling any functionality that is only available to the owner."
      },
      "setAccessControlManager(address)": {
        "custom:access": "Only Governance",
        "custom:event": "Emits NewAccessControlManager event",
        "details": "Admin function to set address of AccessControlManager",
        "params": {
          "accessControlManager_": "The new address of the AccessControlManager"
        }
      },
      "setFeedRegistryAddress(address)": {
        "params": {
          "newfeedRegistryAddress": "Address of new feed registry."
        }
      },
      "setMaxStalePeriod(string,uint256)": {
        "params": {
          "_maxStalePeriod": "The max stake period",
          "symbol": "The symbol of the asset"
        }
      },
      "setSymbolOverride(string,string)": {
        "params": {
          "overrideSymbol": "The symbol after override",
          "symbol": "The symbol to override"
        }
      },
      "transferOwnership(address)": {
        "details": "Starts the ownership transfer of the contract to a new account. Replaces the pending transfer if there is one. Can only be called by the current owner."
      }
    },
    "title": "BinanceOracle",
    "version": 1
  },
  "userdoc": {
    "errors": {
      "Unauthorized(address,address,string)": [
        {
          "notice": "Thrown when the action is prohibited by AccessControlManager"
        }
      ]
    },
    "events": {
      "FeedRegistryUpdated(address,address)": {
        "notice": "Emits when address of feed registry is updated."
      },
      "MaxStalePeriodAdded(string,uint256)": {
        "notice": "Emits when asset stale period is updated."
      },
      "NewAccessControlManager(address,address)": {
        "notice": "Emitted when access control manager contract address is changed"
      },
      "SymbolOverridden(string,string)": {
        "notice": "Emits when symbol of the asset is updated."
      }
    },
    "kind": "user",
    "methods": {
      "BNB_ADDR()": {
        "notice": "Set this as asset address for BNB. This is the underlying address for vBNB"
      },
      "accessControlManager()": {
        "notice": "Returns the address of the access control manager contract"
      },
      "constructor": {
        "notice": "Constructor for the implementation contract."
      },
      "feedRegistryAddress()": {
        "notice": "Used to fetch price of assets used directly when space ID is not supported by current chain."
      },
      "getFeedRegistryAddress()": {
        "notice": "Uses Space ID to fetch the feed registry address"
      },
      "getPrice(address)": {
        "notice": "Gets the price of a asset from the binance oracle"
      },
      "initialize(address,address)": {
        "notice": "Sets the contracts required to fetch prices"
      },
      "maxStalePeriod(string)": {
        "notice": "Max stale period configuration for assets"
      },
      "setAccessControlManager(address)": {
        "notice": "Sets the address of AccessControlManager"
      },
      "setFeedRegistryAddress(address)": {
        "notice": "Used to set feed registry address when current chain does not support space ID."
      },
      "setMaxStalePeriod(string,uint256)": {
        "notice": "Used to set the max stale period of an asset"
      },
      "setSymbolOverride(string,string)": {
        "notice": "Used to override a symbol when fetching price"
      },
      "sidRegistryAddress()": {
        "notice": "Used to fetch feed registry address."
      },
      "symbols(string)": {
        "notice": "Override symbols to be compatible with Binance feed registry"
      }
    },
    "notice": "This oracle fetches price of assets from Binance.",
    "version": 1
  },
  "storageLayout": {
    "storage": [
      {
        "astId": 347,
        "contract": "contracts/oracles/BinanceOracle.sol:BinanceOracle",
        "label": "_initialized",
        "offset": 0,
        "slot": "0",
        "type": "t_uint8"
      },
      {
        "astId": 350,
        "contract": "contracts/oracles/BinanceOracle.sol:BinanceOracle",
        "label": "_initializing",
        "offset": 1,
        "slot": "0",
        "type": "t_bool"
      },
      {
        "astId": 1007,
        "contract": "contracts/oracles/BinanceOracle.sol:BinanceOracle",
        "label": "__gap",
        "offset": 0,
        "slot": "1",
        "type": "t_array(t_uint256)50_storage"
      },
      {
        "astId": 219,
        "contract": "contracts/oracles/BinanceOracle.sol:BinanceOracle",
        "label": "_owner",
        "offset": 0,
        "slot": "51",
        "type": "t_address"
      },
      {
        "astId": 339,
        "contract": "contracts/oracles/BinanceOracle.sol:BinanceOracle",
        "label": "__gap",
        "offset": 0,
        "slot": "52",
        "type": "t_array(t_uint256)49_storage"
      },
      {
        "astId": 128,
        "contract": "contracts/oracles/BinanceOracle.sol:BinanceOracle",
        "label": "_pendingOwner",
        "offset": 0,
        "slot": "101",
        "type": "t_address"
      },
      {
        "astId": 207,
        "contract": "contracts/oracles/BinanceOracle.sol:BinanceOracle",
        "label": "__gap",
        "offset": 0,
        "slot": "102",
        "type": "t_array(t_uint256)49_storage"
      },
      {
        "astId": 5079,
        "contract": "contracts/oracles/BinanceOracle.sol:BinanceOracle",
        "label": "_accessControlManager",
        "offset": 0,
        "slot": "151",
        "type": "t_contract(IAccessControlManagerV8)5264"
      },
      {
        "astId": 5084,
        "contract": "contracts/oracles/BinanceOracle.sol:BinanceOracle",
        "label": "__gap",
        "offset": 0,
        "slot": "152",
        "type": "t_array(t_uint256)49_storage"
      },
      {
        "astId": 6889,
        "contract": "contracts/oracles/BinanceOracle.sol:BinanceOracle",
        "label": "sidRegistryAddress",
        "offset": 0,
        "slot": "201",
        "type": "t_address"
      },
      {
        "astId": 6898,
        "contract": "contracts/oracles/BinanceOracle.sol:BinanceOracle",
        "label": "maxStalePeriod",
        "offset": 0,
        "slot": "202",
        "type": "t_mapping(t_string_memory_ptr,t_uint256)"
      },
      {
        "astId": 6903,
        "contract": "contracts/oracles/BinanceOracle.sol:BinanceOracle",
        "label": "symbols",
        "offset": 0,
        "slot": "203",
        "type": "t_mapping(t_string_memory_ptr,t_string_storage)"
      },
      {
        "astId": 6906,
        "contract": "contracts/oracles/BinanceOracle.sol:BinanceOracle",
        "label": "feedRegistryAddress",
        "offset": 0,
        "slot": "204",
        "type": "t_address"
      }
    ],
    "types": {
      "t_address": {
        "encoding": "inplace",
        "label": "address",
        "numberOfBytes": "20"
      },
      "t_array(t_uint256)49_storage": {
        "base": "t_uint256",
        "encoding": "inplace",
        "label": "uint256[49]",
        "numberOfBytes": "1568"
      },
      "t_array(t_uint256)50_storage": {
        "base": "t_uint256",
        "encoding": "inplace",
        "label": "uint256[50]",
        "numberOfBytes": "1600"
      },
      "t_bool": {
        "encoding": "inplace",
        "label": "bool",
        "numberOfBytes": "1"
      },
      "t_contract(IAccessControlManagerV8)5264": {
        "encoding": "inplace",
        "label": "contract IAccessControlManagerV8",
        "numberOfBytes": "20"
      },
      "t_mapping(t_string_memory_ptr,t_string_storage)": {
        "encoding": "mapping",
        "key": "t_string_memory_ptr",
        "label": "mapping(string => string)",
        "numberOfBytes": "32",
        "value": "t_string_storage"
      },
      "t_mapping(t_string_memory_ptr,t_uint256)": {
        "encoding": "mapping",
        "key": "t_string_memory_ptr",
        "label": "mapping(string => uint256)",
        "numberOfBytes": "32",
        "value": "t_uint256"
      },
      "t_string_memory_ptr": {
        "encoding": "bytes",
        "label": "string",
        "numberOfBytes": "32"
      },
      "t_string_storage": {
        "encoding": "bytes",
        "label": "string",
        "numberOfBytes": "32"
      },
      "t_uint256": {
        "encoding": "inplace",
        "label": "uint256",
        "numberOfBytes": "32"
      },
      "t_uint8": {
        "encoding": "inplace",
        "label": "uint8",
        "numberOfBytes": "1"
      }
    }
  }
}