{
  "address": "0xDc875208ffDfDEac4Bb59660f2B57aedA5Ea6F76",
  "abi": [
    {
      "anonymous": false,
      "inputs": [
        {
          "indexed": true,
          "internalType": "bool",
          "name": "isEnable",
          "type": "bool"
        }
      ],
      "name": "GlobalEnable",
      "type": "event"
    },
    {
      "anonymous": false,
      "inputs": [
        {
          "indexed": false,
          "internalType": "uint8",
          "name": "version",
          "type": "uint8"
        }
      ],
      "name": "Initialized",
      "type": "event"
    },
    {
      "anonymous": false,
      "inputs": [
        {
          "indexed": true,
          "internalType": "address",
          "name": "asset",
          "type": "address"
        },
        {
          "indexed": true,
          "internalType": "uint256",
          "name": "role",
          "type": "uint256"
        },
        {
          "indexed": true,
          "internalType": "bool",
          "name": "enable",
          "type": "bool"
        }
      ],
      "name": "OracleEnabled",
      "type": "event"
    },
    {
      "anonymous": false,
      "inputs": [
        {
          "indexed": true,
          "internalType": "address",
          "name": "asset",
          "type": "address"
        },
        {
          "indexed": true,
          "internalType": "address",
          "name": "oracle",
          "type": "address"
        },
        {
          "indexed": true,
          "internalType": "uint256",
          "name": "role",
          "type": "uint256"
        }
      ],
      "name": "OracleSet",
      "type": "event"
    },
    {
      "anonymous": false,
      "inputs": [
        {
          "indexed": true,
          "internalType": "address",
          "name": "previousOwner",
          "type": "address"
        },
        {
          "indexed": true,
          "internalType": "address",
          "name": "newOwner",
          "type": "address"
        }
      ],
      "name": "OwnershipTransferred",
      "type": "event"
    },
    {
      "anonymous": false,
      "inputs": [
        {
          "indexed": false,
          "internalType": "address",
          "name": "account",
          "type": "address"
        }
      ],
      "name": "Paused",
      "type": "event"
    },
    {
      "anonymous": false,
      "inputs": [
        {
          "indexed": true,
          "internalType": "address",
          "name": "asset",
          "type": "address"
        },
        {
          "indexed": true,
          "internalType": "address",
          "name": "mainOracle",
          "type": "address"
        },
        {
          "indexed": true,
          "internalType": "address",
          "name": "pivotOracle",
          "type": "address"
        },
        {
          "indexed": false,
          "internalType": "address",
          "name": "fallbackOracle",
          "type": "address"
        }
      ],
      "name": "TokenConfigAdded",
      "type": "event"
    },
    {
      "anonymous": false,
      "inputs": [
        {
          "indexed": false,
          "internalType": "address",
          "name": "account",
          "type": "address"
        }
      ],
      "name": "Unpaused",
      "type": "event"
    },
    {
      "inputs": [],
      "name": "INVALID_PRICE",
      "outputs": [
        {
          "internalType": "uint256",
          "name": "",
          "type": "uint256"
        }
      ],
      "stateMutability": "view",
      "type": "function"
    },
    {
      "inputs": [],
      "name": "boundValidator",
      "outputs": [
        {
          "internalType": "contract BoundValidatorInterface",
          "name": "",
          "type": "address"
        }
      ],
      "stateMutability": "view",
      "type": "function"
    },
    {
      "inputs": [
        {
          "internalType": "address",
          "name": "asset",
          "type": "address"
        },
        {
          "internalType": "enum ResilientOracle.OracleRole",
          "name": "role",
          "type": "uint8"
        },
        {
          "internalType": "bool",
          "name": "enable",
          "type": "bool"
        }
      ],
      "name": "enableOracle",
      "outputs": [],
      "stateMutability": "nonpayable",
      "type": "function"
    },
    {
      "inputs": [
        {
          "internalType": "address",
          "name": "vToken",
          "type": "address"
        },
        {
          "internalType": "enum ResilientOracle.OracleRole",
          "name": "role",
          "type": "uint8"
        }
      ],
      "name": "getOracle",
      "outputs": [
        {
          "internalType": "address",
          "name": "oracle",
          "type": "address"
        },
        {
          "internalType": "bool",
          "name": "enabled",
          "type": "bool"
        }
      ],
      "stateMutability": "view",
      "type": "function"
    },
    {
      "inputs": [
        {
          "internalType": "address",
          "name": "vToken",
          "type": "address"
        }
      ],
      "name": "getTokenConfig",
      "outputs": [
        {
          "components": [
            {
              "internalType": "address",
              "name": "asset",
              "type": "address"
            },
            {
              "internalType": "address[3]",
              "name": "oracles",
              "type": "address[3]"
            },
            {
              "internalType": "bool[3]",
              "name": "enableFlagsForOracles",
              "type": "bool[3]"
            }
          ],
          "internalType": "struct ResilientOracle.TokenConfig",
          "name": "",
          "type": "tuple"
        }
      ],
      "stateMutability": "view",
      "type": "function"
    },
    {
      "inputs": [
        {
          "internalType": "address",
          "name": "vToken",
          "type": "address"
        }
      ],
      "name": "getUnderlyingPrice",
      "outputs": [
        {
          "internalType": "uint256",
          "name": "",
          "type": "uint256"
        }
      ],
      "stateMutability": "view",
      "type": "function"
    },
    {
      "inputs": [
        {
          "internalType": "contract BoundValidatorInterface",
          "name": "_boundValidator",
          "type": "address"
        }
      ],
      "name": "initialize",
      "outputs": [],
      "stateMutability": "nonpayable",
      "type": "function"
    },
    {
      "inputs": [],
      "name": "owner",
      "outputs": [
        {
          "internalType": "address",
          "name": "",
          "type": "address"
        }
      ],
      "stateMutability": "view",
      "type": "function"
    },
    {
      "inputs": [],
      "name": "pause",
      "outputs": [],
      "stateMutability": "nonpayable",
      "type": "function"
    },
    {
      "inputs": [],
      "name": "paused",
      "outputs": [
        {
          "internalType": "bool",
          "name": "",
          "type": "bool"
        }
      ],
      "stateMutability": "view",
      "type": "function"
    },
    {
      "inputs": [],
      "name": "renounceOwnership",
      "outputs": [],
      "stateMutability": "nonpayable",
      "type": "function"
    },
    {
      "inputs": [
        {
          "internalType": "address",
          "name": "asset",
          "type": "address"
        },
        {
          "internalType": "address",
          "name": "oracle",
          "type": "address"
        },
        {
          "internalType": "enum ResilientOracle.OracleRole",
          "name": "role",
          "type": "uint8"
        }
      ],
      "name": "setOracle",
      "outputs": [],
      "stateMutability": "nonpayable",
      "type": "function"
    },
    {
      "inputs": [
        {
          "components": [
            {
              "internalType": "address",
              "name": "asset",
              "type": "address"
            },
            {
              "internalType": "address[3]",
              "name": "oracles",
              "type": "address[3]"
            },
            {
              "internalType": "bool[3]",
              "name": "enableFlagsForOracles",
              "type": "bool[3]"
            }
          ],
          "internalType": "struct ResilientOracle.TokenConfig",
          "name": "tokenConfig",
          "type": "tuple"
        }
      ],
      "name": "setTokenConfig",
      "outputs": [],
      "stateMutability": "nonpayable",
      "type": "function"
    },
    {
      "inputs": [
        {
          "components": [
            {
              "internalType": "address",
              "name": "asset",
              "type": "address"
            },
            {
              "internalType": "address[3]",
              "name": "oracles",
              "type": "address[3]"
            },
            {
              "internalType": "bool[3]",
              "name": "enableFlagsForOracles",
              "type": "bool[3]"
            }
          ],
          "internalType": "struct ResilientOracle.TokenConfig[]",
          "name": "tokenConfigs_",
          "type": "tuple[]"
        }
      ],
      "name": "setTokenConfigs",
      "outputs": [],
      "stateMutability": "nonpayable",
      "type": "function"
    },
    {
      "inputs": [
        {
          "internalType": "address",
          "name": "newOwner",
          "type": "address"
        }
      ],
      "name": "transferOwnership",
      "outputs": [],
      "stateMutability": "nonpayable",
      "type": "function"
    },
    {
      "inputs": [],
      "name": "unpause",
      "outputs": [],
      "stateMutability": "nonpayable",
      "type": "function"
    },
    {
      "inputs": [
        {
          "internalType": "address",
          "name": "vToken",
          "type": "address"
        }
      ],
      "name": "updatePrice",
      "outputs": [],
      "stateMutability": "nonpayable",
      "type": "function"
    }
  ],
  "transactionHash": "0xd30f59ef58e342d2c2cc5e88e9037fb0b245763a20702390f0aeddab4ff562fc",
  "args": [],
  "numDeployments": 1,
  "solcInputHash": "7512ff8bb5807f474eea59a25786c986",
  "bytecode": "0x608060405234801561001057600080fd5b50611b1b806100206000396000f3fe608060405234801561001057600080fd5b506004361061010b5760003560e01c80638456cb59116100a2578063a6b1344a11610071578063a6b1344a14610215578063c4d66de814610228578063cb67e3b11461023b578063f2fde38b1461025b578063fc57d4df1461026e57600080fd5b80638456cb59146101b75780638b855da4146101bf5780638da5cb5b146101f157806396e85ced1461020257600080fd5b80634b932b8f116100de5780634b932b8f146101705780634bf39cba146101835780635c975abb14610199578063715018a6146101af57600080fd5b80632cfa387114610110578063333a21b01461012557806333d33494146101385780633f4ba83a14610168575b600080fd5b61012361011e366004611781565b610281565b005b610123610133366004611831565b610317565b60975461014b906001600160a01b031681565b6040516001600160a01b0390911681526020015b60405180910390f35b610123610433565b61012361017e366004611868565b610445565b61018b600081565b60405190815260200161015f565b60655460ff16604051901515815260200161015f565b610123610585565b610123610597565b6101d26101cd3660046118b1565b6105a7565b604080516001600160a01b03909316835290151560208301520161015f565b6033546001600160a01b031661014b565b6101236102103660046118e6565b6106b2565b610123610223366004611903565b61074f565b6101236102363660046118e6565b61091b565b61024e6102493660046118e6565b610aa5565b60405161015f919061194a565b6101236102693660046118e6565b610be0565b61018b61027c3660046118e6565b610c59565b610289610d25565b80516000036102d35760405162461bcd60e51b815260206004820152601160248201527006c656e6774682063616e2774206265203607c1b60448201526064015b60405180910390fd5b60005b8151811015610313576103018282815181106102f4576102f46119c5565b6020026020010151610317565b8061030b816119db565b9150506102d6565b5050565b61031f610d25565b80516001600160a01b0381166103475760405162461bcd60e51b81526004016102ca90611a02565b6020820151516001600160a01b0381166103735760405162461bcd60e51b81526004016102ca90611a02565b82516001600160a01b039081166000908152609860209081526040909120855181546001600160a01b03191693169290921782558401518491906103bd90600183019060036114b1565b5060408201516103d39060048301906003611509565b505050602083810151808201518151865160409384015193516001600160a01b039485168152928416949184169316917fa51ad01e2270c314a7b78f0c60fe66c723f2d06c121d63fcdce776e654878fc1910160405180910390a4505050565b61043b610d25565b610443610d7f565b565b61044d610d25565b826001600160a01b0381166104745760405162461bcd60e51b81526004016102ca90611a02565b6001600160a01b038085166000908152609860205260409020548591166104d75760405162461bcd60e51b81526020600482015260176024820152761d1bdad95b8818dbdb999a59c81b5d5cdd08195e1a5cdd604a1b60448201526064016102ca565b6001600160a01b0385166000908152609860205260409020839060040185600281111561050657610506611a31565b60038110610516576105166119c5565b602091828204019190066101000a81548160ff02191690831515021790555082151584600281111561054a5761054a611a31565b6040516001600160a01b038816907fcf3cad1ec87208efbde5d82a0557484a78d4182c3ad16926a5463bc1f7234b3d90600090a45050505050565b61058d610d25565b6104436000610dd1565b61059f610d25565b610443610e23565b6000806000846001600160a01b0316636f307dc36040518163ffffffff1660e01b8152600401602060405180830381865afa1580156105ea573d6000803e3d6000fd5b505050506040513d601f19601f8201168201806040525081019061060e9190611a47565b6001600160a01b038116600090815260986020526040902090915060010184600281111561063e5761063e611a31565b6003811061064e5761064e6119c5565b01546001600160a01b0382811660009081526098602052604090209116935060040184600281111561068257610682611a31565b60038110610692576106926119c5565b602091828204019190069054906101000a900460ff169150509250929050565b6000806106c08360016105a7565b90925090506001600160a01b038216158015906106da5750805b1561074a5760405163725068a560e01b81526001600160a01b03848116600483015283169063725068a5906024016020604051808303816000875af1925050508015610743575060408051601f3d908101601f1916820190925261074091810190611a64565b60015b1561074a57505b505050565b610757610d25565b826001600160a01b03811661077e5760405162461bcd60e51b81526004016102ca90611a02565b6001600160a01b038085166000908152609860205260409020548591166107e15760405162461bcd60e51b81526020600482015260176024820152761d1bdad95b8818dbdb999a59c81b5d5cdd08195e1a5cdd604a1b60448201526064016102ca565b6001600160a01b0384161580156108095750600083600281111561080757610807611a31565b145b156108645760405162461bcd60e51b815260206004820152602560248201527f63616e277420736574207a65726f206164647265737320746f206d61696e206f6044820152647261636c6560d81b60648201526084016102ca565b6001600160a01b0385166000908152609860205260409020849060010184600281111561089357610893611a31565b600381106108a3576108a36119c5565b0180546001600160a01b0319166001600160a01b03929092169190911790558260028111156108d4576108d4611a31565b846001600160a01b0316866001600160a01b03167fea681d3efb830ef032a9c29a7215b5ceeeb546250d2c463dbf87817aecda1bf160405160405180910390a45050505050565b600054610100900460ff161580801561093b5750600054600160ff909116105b806109555750303b158015610955575060005460ff166001145b6109b85760405162461bcd60e51b815260206004820152602e60248201527f496e697469616c697a61626c653a20636f6e747261637420697320616c72656160448201526d191e481a5b9a5d1a585b1a5e995960921b60648201526084016102ca565b6000805460ff1916600117905580156109db576000805461ff0019166101001790555b6001600160a01b038216610a315760405162461bcd60e51b815260206004820181905260248201527f696e76616c69756420626f756e642076616c696461746f72206164647265737360448201526064016102ca565b609780546001600160a01b0319166001600160a01b038416179055610a54610e60565b610a5c610e8f565b8015610313576000805461ff0019169055604051600181527f7f26b83ff96e1f2b6a682f133852f6798a09c465da95921460cefb38474024989060200160405180910390a15050565b610aad611596565b6000826001600160a01b0316636f307dc36040518163ffffffff1660e01b8152600401602060405180830381865afa158015610aed573d6000803e3d6000fd5b505050506040513d601f19601f82011682018060405250810190610b119190611a47565b6001600160a01b03818116600090815260986020908152604091829020825160608082018552825490951681528351948501938490529495509290840191600184019060039082845b81546001600160a01b03168152600190910190602001808311610b5a575050509183525050604080516060810191829052602090920191906004840190600390826000855b825461010083900a900460ff161515815260206001928301818104948501949093039092029101808411610b9f579050505050505081525050915050919050565b610be8610d25565b6001600160a01b038116610c4d5760405162461bcd60e51b815260206004820152602660248201527f4f776e61626c653a206e6577206f776e657220697320746865207a65726f206160448201526564647265737360d01b60648201526084016102ca565b610c5681610dd1565b50565b6000610c6760655460ff1690565b15610cb45760405162461bcd60e51b815260206004820152601a60248201527f726573696c69656e74206f7261636c652069732070617573656400000000000060448201526064016102ca565b6000610cbf83610ebe565b905080610cd257610ccf83611093565b90505b80610d1f5760405162461bcd60e51b815260206004820152601e60248201527f696e76616c696420726573696c69656e74206f7261636c65207072696365000060448201526064016102ca565b92915050565b6033546001600160a01b031633146104435760405162461bcd60e51b815260206004820181905260248201527f4f776e61626c653a2063616c6c6572206973206e6f7420746865206f776e657260448201526064016102ca565b610d876113bf565b6065805460ff191690557f5db9ee0a495bf2e6ff9c91a7834c1ba4fdd244a5e8aa4e537bd38aeae4b073aa335b6040516001600160a01b03909116815260200160405180910390a1565b603380546001600160a01b038381166001600160a01b0319831681179093556040519116919082907f8be0079c531659141344cd1fd0a4f28419497f9722a3daafe3b4186f6b6457e090600090a35050565b610e2b611408565b6065805460ff191660011790557f62e78cea01bee320cd4e420270b5ea74000d11b0c9f74754ebdbfc544b05a258610db43390565b600054610100900460ff16610e875760405162461bcd60e51b81526004016102ca90611a7d565b61044361144e565b600054610100900460ff16610eb65760405162461bcd60e51b81526004016102ca90611a7d565b61044361147e565b6000808080610ecd85826105a7565b91509150808015610ee657506001600160a01b03821615155b1561108a5760405163fc57d4df60e01b81526001600160a01b03868116600483015283169063fc57d4df90602401602060405180830381865afa925050508015610f4d575060408051601f3d908101601f19168201909252610f4a91810190611a64565b60015b1561108a57809350600080610f638860016105a7565b91509150808015610f7c57506001600160a01b03821615155b156110865760405163fc57d4df60e01b81526001600160a01b03898116600483015283169063fc57d4df90602401602060405180830381865afa925050508015610fe3575060408051601f3d908101601f19168201909252610fe091810190611a64565b60015b1561108657801561108457609754604051634be3819f60e11b81526001600160a01b038b81166004830152602482018a90526044820184905260009216906397c7033e90606401602060405180830381865afa158015611047573d6000803e3d6000fd5b505050506040513d601f19601f8201168201806040525081019061106b9190611ac8565b905080611082575060009998505050505050505050565b505b505b5050505b50909392505050565b6000808080806110a48660026105a7565b915091508080156110bd57506001600160a01b03821615155b156112705760405163fc57d4df60e01b81526001600160a01b03878116600483015283169063fc57d4df90602401602060405180830381865afa925050508015611124575060408051601f3d908101601f1916820190925261112191810190611a64565b60015b156112705780945060008061113a8960016105a7565b9150915080801561115357506001600160a01b03821615155b156112675760405163fc57d4df60e01b81526001600160a01b038a8116600483015283169063fc57d4df90602401602060405180830381865afa9250505080156111ba575060408051601f3d908101601f191682019092526111b791810190611a64565b60015b6111c7576001955061126c565b801561125c57609754604051634be3819f60e11b81526001600160a01b038c81166004830152602482018b90526044820184905260009216906397c7033e90606401602060405180830381865afa158015611226573d6000803e3d6000fd5b505050506040513d601f19601f8201168201806040525081019061124a9190611ac8565b90508061125657600197505b50611261565b600196505b5061126c565b600195505b5050505b82156113b5576000806112848860006105a7565b9150915080801561129d57506001600160a01b03821615155b156113ad5760405163fc57d4df60e01b81526001600160a01b03898116600483015283169063fc57d4df90602401602060405180830381865afa925050508015611304575060408051601f3d908101601f1916820190925261130191810190611a64565b60015b61131157600095506113b2565b609754604051634be3819f60e11b81526001600160a01b038b81166004830152602482018a90526044820184905260009216906397c7033e90606401602060405180830381865afa15801561136a573d6000803e3d6000fd5b505050506040513d601f19601f8201168201806040525081019061138e9190611ac8565b9050806113a5575060009998505050505050505050565b5095506113b2565b600095505b50505b5091949350505050565b60655460ff166104435760405162461bcd60e51b815260206004820152601460248201527314185d5cd8589b194e881b9bdd081c185d5cd95960621b60448201526064016102ca565b60655460ff16156104435760405162461bcd60e51b815260206004820152601060248201526f14185d5cd8589b194e881c185d5cd95960821b60448201526064016102ca565b600054610100900460ff166114755760405162461bcd60e51b81526004016102ca90611a7d565b61044333610dd1565b600054610100900460ff166114a55760405162461bcd60e51b81526004016102ca90611a7d565b6065805460ff19169055565b82600381019282156114f9579160200282015b828111156114f957825182546001600160a01b0319166001600160a01b039091161782556020909201916001909101906114c4565b506115059291506115cb565b5090565b6001830191839082156114f95791602002820160005b8382111561155c57835183826101000a81548160ff021916908315150217905550926020019260010160208160000104928301926001030261151f565b80156115895782816101000a81549060ff021916905560010160208160000104928301926001030261155c565b50506115059291506115cb565b604051806060016040528060006001600160a01b031681526020016115b96115e0565b81526020016115c66115e0565b905290565b5b8082111561150557600081556001016115cc565b60405180606001604052806003906020820280368337509192915050565b634e487b7160e01b600052604160045260246000fd5b6040516060810167ffffffffffffffff81118282101715611637576116376115fe565b60405290565b604051601f8201601f1916810167ffffffffffffffff81118282101715611666576116666115fe565b604052919050565b6001600160a01b0381168114610c5657600080fd5b8015158114610c5657600080fd5b600082601f8301126116a257600080fd5b6116aa611614565b8060608401858111156116bc57600080fd5b845b818110156116df5780356116d181611683565b8452602093840193016116be565b509095945050505050565b600060e082840312156116fc57600080fd5b611704611614565b905081356117118161166e565b81526020603f8301841361172457600080fd5b61172c611614565b80608085018681111561173e57600080fd5b8386015b818110156117625780356117558161166e565b8452928401928401611742565b5081848601526117728782611691565b60408601525050505092915050565b6000602080838503121561179457600080fd5b823567ffffffffffffffff808211156117ac57600080fd5b818501915085601f8301126117c057600080fd5b8135818111156117d2576117d26115fe565b6117e0848260051b0161163d565b818152848101925060e09182028401850191888311156117ff57600080fd5b938501935b828510156118255761181689866116ea565b84529384019392850192611804565b50979650505050505050565b600060e0828403121561184357600080fd5b61184d83836116ea565b9392505050565b80356003811061186357600080fd5b919050565b60008060006060848603121561187d57600080fd5b83356118888161166e565b925061189660208501611854565b915060408401356118a681611683565b809150509250925092565b600080604083850312156118c457600080fd5b82356118cf8161166e565b91506118dd60208401611854565b90509250929050565b6000602082840312156118f857600080fd5b813561184d8161166e565b60008060006060848603121561191857600080fd5b83356119238161166e565b925060208401356119338161166e565b915061194160408501611854565b90509250925092565b81516001600160a01b03908116825260208084015160e0840192919081850160005b600381101561198b57825185168252918301919083019060010161196c565b505050604085015191506080840160005b60038110156119bb57835115158252928201929082019060010161199c565b5050505092915050565b634e487b7160e01b600052603260045260246000fd5b6000600182016119fb57634e487b7160e01b600052601160045260246000fd5b5060010190565b60208082526015908201527463616e2774206265207a65726f206164647265737360581b604082015260600190565b634e487b7160e01b600052602160045260246000fd5b600060208284031215611a5957600080fd5b815161184d8161166e565b600060208284031215611a7657600080fd5b5051919050565b6020808252602b908201527f496e697469616c697a61626c653a20636f6e7472616374206973206e6f74206960408201526a6e697469616c697a696e6760a81b606082015260800190565b600060208284031215611ada57600080fd5b815161184d8161168356fea26469706673582212209c56dd5b95fc404eddbfeb4591a30ffbb60b5ae4b6fb8a59e212e1f29442202164736f6c634300080d0033",
  "devdoc": {
    "kind": "dev",
    "methods": {
      "enableOracle(address,uint8,bool)": {
        "params": {
          "asset": "asset address",
          "enable": "expected status",
          "role": "oracle role"
        }
      },
      "getOracle(address,uint8)": {
        "params": {
          "role": "oracle role",
          "vToken": "vtoken address"
        }
      },
      "getTokenConfig(address)": {
        "details": "Get token config by vToken address",
        "params": {
          "vToken": "vtoken address"
        }
      },
      "getUnderlyingPrice(address)": {
        "params": {
          "vToken": "vToken address"
        },
        "returns": {
          "_0": "price USD price in 18 decimals"
        }
      },
      "owner()": {
        "details": "Returns the address of the current owner."
      },
      "paused()": {
        "details": "Returns true if the contract is paused, and false otherwise."
      },
      "renounceOwnership()": {
        "details": "Leaves the contract without owner. It will not be possible to call `onlyOwner` functions anymore. Can only be called by the current owner. NOTE: Renouncing ownership will leave the contract without an owner, thereby removing any functionality that is only available to the owner."
      },
      "setOracle(address,address,uint8)": {
        "params": {
          "asset": "asset address",
          "oracle": "oracle address",
          "role": "oracle role"
        }
      },
      "setTokenConfig((address,address[3],bool[3]))": {
        "params": {
          "tokenConfig": "token config struct"
        }
      },
      "setTokenConfigs((address,address[3],bool[3])[])": {
        "params": {
          "tokenConfigs_": "token config array"
        }
      },
      "transferOwnership(address)": {
        "details": "Transfers ownership of the contract to a new account (`newOwner`). Can only be called by the current owner."
      },
      "updatePrice(address)": {
        "params": {
          "vToken": "vToken address"
        }
      }
    },
    "version": 1
  },
  "userdoc": {
    "kind": "user",
    "methods": {
      "enableOracle(address,uint8,bool)": {
        "notice": "Enable/disable oracle for the input vToken, input vToken MUST exist"
      },
      "getOracle(address,uint8)": {
        "notice": "Get oracle & enabling status by vToken address"
      },
      "getUnderlyingPrice(address)": {
        "notice": "Get price of underlying asset of the input vToken, check flow: - check the global pausing status - check price from main oracle against pivot oracle - check price from fallback oracle against pivot oracle or main oracle if fails"
      },
      "pause()": {
        "notice": "Pause protocol"
      },
      "setOracle(address,address,uint8)": {
        "notice": "Set oracle of any type for the input vToken, input vToken MUST exist"
      },
      "setTokenConfig((address,address[3],bool[3]))": {
        "notice": "Set single token configs, vToken MUST HAVE NOT be added before, and main oracle MUST NOT be zero address"
      },
      "setTokenConfigs((address,address[3],bool[3])[])": {
        "notice": "Batch set token configs"
      },
      "unpause()": {
        "notice": "Unpause protocol"
      },
      "updatePrice(address)": {
        "notice": "Currently it calls the updateTwap"
      }
    },
    "version": 1
  },
  "storageLayout": {
    "storage": [
      {
        "astId": 138,
        "contract": "contracts/ResilientOracle.sol:ResilientOracle",
        "label": "_initialized",
        "offset": 0,
        "slot": "0",
        "type": "t_uint8"
      },
      {
        "astId": 141,
        "contract": "contracts/ResilientOracle.sol:ResilientOracle",
        "label": "_initializing",
        "offset": 1,
        "slot": "0",
        "type": "t_bool"
      },
      {
        "astId": 752,
        "contract": "contracts/ResilientOracle.sol:ResilientOracle",
        "label": "__gap",
        "offset": 0,
        "slot": "1",
        "type": "t_array(t_uint256)50_storage"
      },
      {
        "astId": 10,
        "contract": "contracts/ResilientOracle.sol:ResilientOracle",
        "label": "_owner",
        "offset": 0,
        "slot": "51",
        "type": "t_address"
      },
      {
        "astId": 130,
        "contract": "contracts/ResilientOracle.sol:ResilientOracle",
        "label": "__gap",
        "offset": 0,
        "slot": "52",
        "type": "t_array(t_uint256)49_storage"
      },
      {
        "astId": 321,
        "contract": "contracts/ResilientOracle.sol:ResilientOracle",
        "label": "_paused",
        "offset": 0,
        "slot": "101",
        "type": "t_bool"
      },
      {
        "astId": 426,
        "contract": "contracts/ResilientOracle.sol:ResilientOracle",
        "label": "__gap",
        "offset": 0,
        "slot": "102",
        "type": "t_array(t_uint256)49_storage"
      },
      {
        "astId": 3462,
        "contract": "contracts/ResilientOracle.sol:ResilientOracle",
        "label": "boundValidator",
        "offset": 0,
        "slot": "151",
        "type": "t_contract(BoundValidatorInterface)4517"
      },
      {
        "astId": 3485,
        "contract": "contracts/ResilientOracle.sol:ResilientOracle",
        "label": "tokenConfigs",
        "offset": 0,
        "slot": "152",
        "type": "t_mapping(t_address,t_struct(TokenConfig)3480_storage)"
      }
    ],
    "types": {
      "t_address": {
        "encoding": "inplace",
        "label": "address",
        "numberOfBytes": "20"
      },
      "t_array(t_address)3_storage": {
        "base": "t_address",
        "encoding": "inplace",
        "label": "address[3]",
        "numberOfBytes": "96"
      },
      "t_array(t_bool)3_storage": {
        "base": "t_bool",
        "encoding": "inplace",
        "label": "bool[3]",
        "numberOfBytes": "32"
      },
      "t_array(t_uint256)49_storage": {
        "base": "t_uint256",
        "encoding": "inplace",
        "label": "uint256[49]",
        "numberOfBytes": "1568"
      },
      "t_array(t_uint256)50_storage": {
        "base": "t_uint256",
        "encoding": "inplace",
        "label": "uint256[50]",
        "numberOfBytes": "1600"
      },
      "t_bool": {
        "encoding": "inplace",
        "label": "bool",
        "numberOfBytes": "1"
      },
      "t_contract(BoundValidatorInterface)4517": {
        "encoding": "inplace",
        "label": "contract BoundValidatorInterface",
        "numberOfBytes": "20"
      },
      "t_mapping(t_address,t_struct(TokenConfig)3480_storage)": {
        "encoding": "mapping",
        "key": "t_address",
        "label": "mapping(address => struct ResilientOracle.TokenConfig)",
        "numberOfBytes": "32",
        "value": "t_struct(TokenConfig)3480_storage"
      },
      "t_struct(TokenConfig)3480_storage": {
        "encoding": "inplace",
        "label": "struct ResilientOracle.TokenConfig",
        "members": [
          {
            "astId": 3469,
            "contract": "contracts/ResilientOracle.sol:ResilientOracle",
            "label": "asset",
            "offset": 0,
            "slot": "0",
            "type": "t_address"
          },
          {
            "astId": 3474,
            "contract": "contracts/ResilientOracle.sol:ResilientOracle",
            "label": "oracles",
            "offset": 0,
            "slot": "1",
            "type": "t_array(t_address)3_storage"
          },
          {
            "astId": 3479,
            "contract": "contracts/ResilientOracle.sol:ResilientOracle",
            "label": "enableFlagsForOracles",
            "offset": 0,
            "slot": "4",
            "type": "t_array(t_bool)3_storage"
          }
        ],
        "numberOfBytes": "160"
      },
      "t_uint256": {
        "encoding": "inplace",
        "label": "uint256",
        "numberOfBytes": "32"
      },
      "t_uint8": {
        "encoding": "inplace",
        "label": "uint8",
        "numberOfBytes": "1"
      }
    }
  }
}