{
  "address": "0x570eF560d6336F1820985Ce0890A81C0889d1994",
  "abi": [
    {
      "anonymous": false,
      "inputs": [
        {
          "indexed": true,
          "internalType": "address",
          "name": "asset",
          "type": "address"
        },
        {
          "indexed": false,
          "internalType": "uint256",
          "name": "price",
          "type": "uint256"
        },
        {
          "indexed": false,
          "internalType": "uint256",
          "name": "oldTimestamp",
          "type": "uint256"
        },
        {
          "indexed": false,
          "internalType": "uint256",
          "name": "newTimestamp",
          "type": "uint256"
        }
      ],
      "name": "AnchorPriceUpdated",
      "type": "event"
    },
    {
      "anonymous": false,
      "inputs": [
        {
          "indexed": false,
          "internalType": "uint8",
          "name": "version",
          "type": "uint8"
        }
      ],
      "name": "Initialized",
      "type": "event"
    },
    {
      "anonymous": false,
      "inputs": [
        {
          "indexed": true,
          "internalType": "address",
          "name": "previousOwner",
          "type": "address"
        },
        {
          "indexed": true,
          "internalType": "address",
          "name": "newOwner",
          "type": "address"
        }
      ],
      "name": "OwnershipTransferred",
      "type": "event"
    },
    {
      "anonymous": false,
      "inputs": [
        {
          "indexed": true,
          "internalType": "address",
          "name": "asset",
          "type": "address"
        },
        {
          "indexed": true,
          "internalType": "address",
          "name": "pancakePool",
          "type": "address"
        },
        {
          "indexed": true,
          "internalType": "uint256",
          "name": "anchorPeriod",
          "type": "uint256"
        }
      ],
      "name": "TokenConfigAdded",
      "type": "event"
    },
    {
      "anonymous": false,
      "inputs": [
        {
          "indexed": true,
          "internalType": "address",
          "name": "asset",
          "type": "address"
        },
        {
          "indexed": false,
          "internalType": "uint256",
          "name": "oldTimestamp",
          "type": "uint256"
        },
        {
          "indexed": false,
          "internalType": "uint256",
          "name": "oldAcc",
          "type": "uint256"
        },
        {
          "indexed": false,
          "internalType": "uint256",
          "name": "newTimestamp",
          "type": "uint256"
        },
        {
          "indexed": false,
          "internalType": "uint256",
          "name": "newAcc",
          "type": "uint256"
        }
      ],
      "name": "TwapWindowUpdated",
      "type": "event"
    },
    {
      "inputs": [],
      "name": "WBNB",
      "outputs": [
        {
          "internalType": "address",
          "name": "",
          "type": "address"
        }
      ],
      "stateMutability": "view",
      "type": "function"
    },
    {
      "inputs": [],
      "name": "bnbBaseUnit",
      "outputs": [
        {
          "internalType": "uint256",
          "name": "",
          "type": "uint256"
        }
      ],
      "stateMutability": "view",
      "type": "function"
    },
    {
      "inputs": [],
      "name": "busdBaseUnit",
      "outputs": [
        {
          "internalType": "uint256",
          "name": "",
          "type": "uint256"
        }
      ],
      "stateMutability": "view",
      "type": "function"
    },
    {
      "inputs": [
        {
          "components": [
            {
              "internalType": "address",
              "name": "asset",
              "type": "address"
            },
            {
              "internalType": "uint256",
              "name": "baseUnit",
              "type": "uint256"
            },
            {
              "internalType": "address",
              "name": "pancakePool",
              "type": "address"
            },
            {
              "internalType": "bool",
              "name": "isBnbBased",
              "type": "bool"
            },
            {
              "internalType": "bool",
              "name": "isReversedPool",
              "type": "bool"
            },
            {
              "internalType": "uint256",
              "name": "anchorPeriod",
              "type": "uint256"
            }
          ],
          "internalType": "struct TokenConfig",
          "name": "config",
          "type": "tuple"
        }
      ],
      "name": "currentCumulativePrice",
      "outputs": [
        {
          "internalType": "uint256",
          "name": "",
          "type": "uint256"
        }
      ],
      "stateMutability": "view",
      "type": "function"
    },
    {
      "inputs": [],
      "name": "expScale",
      "outputs": [
        {
          "internalType": "uint256",
          "name": "",
          "type": "uint256"
        }
      ],
      "stateMutability": "view",
      "type": "function"
    },
    {
      "inputs": [
        {
          "internalType": "address",
          "name": "vToken",
          "type": "address"
        }
      ],
      "name": "getUnderlyingPrice",
      "outputs": [
        {
          "internalType": "uint256",
          "name": "",
          "type": "uint256"
        }
      ],
      "stateMutability": "view",
      "type": "function"
    },
    {
      "inputs": [
        {
          "internalType": "address",
          "name": "WBNB_",
          "type": "address"
        }
      ],
      "name": "initialize",
      "outputs": [],
      "stateMutability": "nonpayable",
      "type": "function"
    },
    {
      "inputs": [
        {
          "internalType": "address",
          "name": "",
          "type": "address"
        }
      ],
      "name": "newObservations",
      "outputs": [
        {
          "internalType": "uint256",
          "name": "timestamp",
          "type": "uint256"
        },
        {
          "internalType": "uint256",
          "name": "acc",
          "type": "uint256"
        }
      ],
      "stateMutability": "view",
      "type": "function"
    },
    {
      "inputs": [
        {
          "internalType": "address",
          "name": "",
          "type": "address"
        }
      ],
      "name": "oldObservations",
      "outputs": [
        {
          "internalType": "uint256",
          "name": "timestamp",
          "type": "uint256"
        },
        {
          "internalType": "uint256",
          "name": "acc",
          "type": "uint256"
        }
      ],
      "stateMutability": "view",
      "type": "function"
    },
    {
      "inputs": [],
      "name": "owner",
      "outputs": [
        {
          "internalType": "address",
          "name": "",
          "type": "address"
        }
      ],
      "stateMutability": "view",
      "type": "function"
    },
    {
      "inputs": [
        {
          "internalType": "address",
          "name": "",
          "type": "address"
        }
      ],
      "name": "prices",
      "outputs": [
        {
          "internalType": "uint256",
          "name": "",
          "type": "uint256"
        }
      ],
      "stateMutability": "view",
      "type": "function"
    },
    {
      "inputs": [],
      "name": "renounceOwnership",
      "outputs": [],
      "stateMutability": "nonpayable",
      "type": "function"
    },
    {
      "inputs": [
        {
          "components": [
            {
              "internalType": "address",
              "name": "asset",
              "type": "address"
            },
            {
              "internalType": "uint256",
              "name": "baseUnit",
              "type": "uint256"
            },
            {
              "internalType": "address",
              "name": "pancakePool",
              "type": "address"
            },
            {
              "internalType": "bool",
              "name": "isBnbBased",
              "type": "bool"
            },
            {
              "internalType": "bool",
              "name": "isReversedPool",
              "type": "bool"
            },
            {
              "internalType": "uint256",
              "name": "anchorPeriod",
              "type": "uint256"
            }
          ],
          "internalType": "struct TokenConfig",
          "name": "config",
          "type": "tuple"
        }
      ],
      "name": "setTokenConfig",
      "outputs": [],
      "stateMutability": "nonpayable",
      "type": "function"
    },
    {
      "inputs": [
        {
          "components": [
            {
              "internalType": "address",
              "name": "asset",
              "type": "address"
            },
            {
              "internalType": "uint256",
              "name": "baseUnit",
              "type": "uint256"
            },
            {
              "internalType": "address",
              "name": "pancakePool",
              "type": "address"
            },
            {
              "internalType": "bool",
              "name": "isBnbBased",
              "type": "bool"
            },
            {
              "internalType": "bool",
              "name": "isReversedPool",
              "type": "bool"
            },
            {
              "internalType": "uint256",
              "name": "anchorPeriod",
              "type": "uint256"
            }
          ],
          "internalType": "struct TokenConfig[]",
          "name": "configs",
          "type": "tuple[]"
        }
      ],
      "name": "setTokenConfigs",
      "outputs": [],
      "stateMutability": "nonpayable",
      "type": "function"
    },
    {
      "inputs": [
        {
          "internalType": "address",
          "name": "",
          "type": "address"
        }
      ],
      "name": "tokenConfigs",
      "outputs": [
        {
          "internalType": "address",
          "name": "asset",
          "type": "address"
        },
        {
          "internalType": "uint256",
          "name": "baseUnit",
          "type": "uint256"
        },
        {
          "internalType": "address",
          "name": "pancakePool",
          "type": "address"
        },
        {
          "internalType": "bool",
          "name": "isBnbBased",
          "type": "bool"
        },
        {
          "internalType": "bool",
          "name": "isReversedPool",
          "type": "bool"
        },
        {
          "internalType": "uint256",
          "name": "anchorPeriod",
          "type": "uint256"
        }
      ],
      "stateMutability": "view",
      "type": "function"
    },
    {
      "inputs": [
        {
          "internalType": "address",
          "name": "newOwner",
          "type": "address"
        }
      ],
      "name": "transferOwnership",
      "outputs": [],
      "stateMutability": "nonpayable",
      "type": "function"
    },
    {
      "inputs": [
        {
          "internalType": "address",
          "name": "vToken",
          "type": "address"
        }
      ],
      "name": "updateTwap",
      "outputs": [
        {
          "internalType": "uint256",
          "name": "",
          "type": "uint256"
        }
      ],
      "stateMutability": "nonpayable",
      "type": "function"
    }
  ],
  "transactionHash": "0xa8ef785a8408a2b69861e063d72906eb647840fd87500a018af5f9cbb0b50bb4",
  "args": [],
  "numDeployments": 1,
  "solcInputHash": "7512ff8bb5807f474eea59a25786c986",
  "bytecode": "0x608060405234801561001057600080fd5b50611921806100206000396000f3fe608060405234801561001057600080fd5b506004361061010b5760003560e01c80638da5cb5b116100a2578063cbf6791911610071578063cbf6791914610296578063cfed246b146102a9578063f2fde38b146102c9578063fc57d4df146102dc578063fe16e80c146102ef57600080fd5b80638da5cb5b1461024b5780638dd9500214610270578063b8a8a626146101e5578063c4d66de81461028357600080fd5b806369aa3ac6116100de57806369aa3ac6146101e5578063715018a6146101f4578063725068a5146101fc5780638cea8c261461020f57600080fd5b80631b69dc5f14610110578063234a3446146101af5780632b9d9dea146101c4578063609f0f36146101e5575b600080fd5b61016861011e366004611408565b60666020526000908152604090208054600182015460028301546003909301546001600160a01b0392831693919282169160ff600160a01b8204811692600160a81b909204169086565b604080516001600160a01b03978816815260208101969096529390951692840192909252151560608301521515608082015260a081019190915260c0015b60405180910390f35b6101c26101bd366004611519565b610316565b005b6101d76101d23660046115c9565b6103b2565b6040519081526020016101a6565b6101d7670de0b6b3a764000081565b6101c26103e1565b6101d761020a366004611408565b6103f5565b61023661021d366004611408565b6067602052600090815260409020805460019091015482565b604080519283526020830191909152016101a6565b6033546001600160a01b03165b6040516001600160a01b0390911681526020016101a6565b606554610258906001600160a01b031681565b6101c2610291366004611408565b61065a565b6101c26102a43660046115c9565b6107dc565b6101d76102b7366004611408565b60696020526000908152604090205481565b6101c26102d7366004611408565b610a4b565b6101d76102ea366004611408565b610ac4565b6102366102fd366004611408565b6068602052600090815260409020805460019091015482565b61031e610cdc565b60008151116103685760405162461bcd60e51b815260206004820152601160248201527006c656e6774682063616e2774206265203607c1b60448201526064015b60405180910390fd5b60005b81518160ff1610156103ae5761039c828260ff168151811061038f5761038f6115e5565b60200260200101516107dc565b806103a681611611565b91505061036b565b5050565b60008060006103c48460400151610d36565b50915091508360800151156103da579392505050565b5092915050565b6103e9610cdc565b6103f36000610ede565b565b600080826001600160a01b0316636f307dc36040518163ffffffff1660e01b8152600401602060405180830381865afa158015610436573d6000803e3d6000fd5b505050506040513d601f19601f8201168201806040525081019061045a9190611630565b6001600160a01b03808216600090815260666020526040902054919250166104b65760405162461bcd60e51b815260206004820152600f60248201526e185cdcd95d081b9bdd08195e1a5cdd608a1b604482015260640161035f565b6065546001600160a01b038281169116148015906104f657506001600160a01b038116600090815260666020526040902060020154600160a01b900460ff165b156105d7576065546001600160a01b03908116600090815260666020526040902054166105565760405162461bcd60e51b815260206004820152600e60248201526d15d09390881b9bdd08195e1a5cdd60921b604482015260640161035f565b6065546001600160a01b03908116600090815260666020908152604091829020825160c08101845281548516815260018201549281019290925260028101549384169282019290925260ff600160a01b8404811615156060830152600160a81b909304909216151560808301526003015460a08201526105d590610f30565b505b6001600160a01b03808216600090815260666020908152604091829020825160c08101845281548516815260018201549281019290925260028101549384169282019290925260ff600160a01b8404811615156060830152600160a81b909304909216151560808301526003015460a082015261065390610f30565b9392505050565b600054610100900460ff161580801561067a5750600054600160ff909116105b806106945750303b158015610694575060005460ff166001145b6106f75760405162461bcd60e51b815260206004820152602e60248201527f496e697469616c697a61626c653a20636f6e747261637420697320616c72656160448201526d191e481a5b9a5d1a585b1a5e995960921b606482015260840161035f565b6000805460ff19166001179055801561071a576000805461ff0019166101001790555b610722611170565b6001600160a01b0382166107785760405162461bcd60e51b815260206004820152601a60248201527f57424e422063616e2774206265207a65726f2061646472657373000000000000604482015260640161035f565b606580546001600160a01b0319166001600160a01b03841617905580156103ae576000805461ff0019169055604051600181527f7f26b83ff96e1f2b6a682f133852f6798a09c465da95921460cefb38474024989060200160405180910390a15050565b6107e4610cdc565b80516001600160a01b0381166108345760405162461bcd60e51b815260206004820152601560248201527463616e2774206265207a65726f206164647265737360581b604482015260640161035f565b60408201516001600160a01b0381166108875760405162461bcd60e51b815260206004820152601560248201527463616e2774206265207a65726f206164647265737360581b604482015260640161035f565b60008360a00151116108db5760405162461bcd60e51b815260206004820152601e60248201527f616e63686f7220706572696f64206d75737420626520706f7369746976650000604482015260640161035f565b600083602001511161092f5760405162461bcd60e51b815260206004820152601a60248201527f6261736520756e6974206d75737420626520706f736974697665000000000000604482015260640161035f565b600061093a846103b2565b84516001600160a01b03908116600090815260686020818152604080842042908190558a51861685526067808452828620919091558a518616855292825280842060019081018790558a51861685529282528084208301869055895185168452606682528084208a5181549087166001600160a01b031990911681178255928b015193810193909355808a015160028401805460608d015160808e01511515600160a81b0260ff60a81b19911515600160a01b026001600160a81b03199093169490991693841791909117169690961790955560a08a0151600390930183905551949550909390917f3cc8d9cb9370a23a8b9ffa75efa24cecb65c4693980e58260841adc474983c5f91a450505050565b610a53610cdc565b6001600160a01b038116610ab85760405162461bcd60e51b815260206004820152602660248201527f4f776e61626c653a206e6577206f776e657220697320746865207a65726f206160448201526564647265737360d01b606482015260840161035f565b610ac181610ede565b50565b600080826001600160a01b0316636f307dc36040518163ffffffff1660e01b8152600401602060405180830381865afa158015610b05573d6000803e3d6000fd5b505050506040513d601f19601f82011682018060405250810190610b299190611630565b6001600160a01b0380821660009081526066602052604090205491925016610b855760405162461bcd60e51b815260206004820152600f60248201526e185cdcd95d081b9bdd08195e1a5cdd608a1b604482015260640161035f565b6001600160a01b03811660009081526069602052604090205480610beb5760405162461bcd60e51b815260206004820152601b60248201527f54574150207072696365206d75737420626520706f7369746976650000000000604482015260640161035f565b6000846001600160a01b0316636f307dc36040518163ffffffff1660e01b8152600401602060405180830381865afa158015610c2b573d6000803e3d6000fd5b505050506040513d601f19601f82011682018060405250810190610c4f9190611630565b9050806001600160a01b031663313ce5676040518163ffffffff1660e01b8152600401602060405180830381865afa158015610c8f573d6000803e3d6000fd5b505050506040513d601f19601f82011682018060405250810190610cb3919061164d565b610cbe906012611670565b610cc990600a611777565b610cd39083611786565b95945050505050565b6033546001600160a01b031633146103f35760405162461bcd60e51b815260206004820181905260248201527f4f776e61626c653a2063616c6c6572206973206e6f7420746865206f776e6572604482015260640161035f565b6000806000610d4361119f565b9050836001600160a01b0316635909c0d56040518163ffffffff1660e01b8152600401602060405180830381865afa158015610d83573d6000803e3d6000fd5b505050506040513d601f19601f82011682018060405250810190610da791906117a5565b9250836001600160a01b0316635a3d54936040518163ffffffff1660e01b8152600401602060405180830381865afa158015610de7573d6000803e3d6000fd5b505050506040513d601f19601f82011682018060405250810190610e0b91906117a5565b91506000806000866001600160a01b0316630902f1ac6040518163ffffffff1660e01b8152600401606060405180830381865afa158015610e50573d6000803e3d6000fd5b505050506040513d601f19601f82011682018060405250810190610e7491906117d5565b9250925092508363ffffffff168163ffffffff1614610ed45780840363ffffffff8116610ea184866111b5565b516001600160e01b031602969096019563ffffffff8116610ec285856111b5565b516001600160e01b0316029590950194505b5050509193909250565b603380546001600160a01b038381166001600160a01b0319831681179093556040519116919082907f8be0079c531659141344cd1fd0a4f28419497f9722a3daafe3b4186f6b6457e090600090a35050565b600080600080610f3f85611267565b925092509250804211610f945760405162461bcd60e51b815260206004820152601a60248201527f6e6f77206d75737420636f6d65206166746572206265666f7265000000000000604482015260640161035f565b6000610fa08242611825565b905060006040518060200160405280838688610fbc9190611825565b610fc69190611852565b6001600160e01b0316905290506000610fde826113a3565b905060008860600151610ff957670de0b6b3a7640000611003565b670de0b6b3a76400005b90506000818a60200151846110189190611786565b6110229190611852565b90508960600151156110b1576065546001600160a01b0316600090815260696020526040812054908190036110905760405162461bcd60e51b8152602060048201526014602482015273189b98881c1c9a58d9481a5cc81a5b9d985b1a5960621b604482015260640161035f565b670de0b6b3a76400006110a38284611786565b6110ad9190611852565b9150505b806000036110fa5760405162461bcd60e51b81526020600482015260166024820152750747761702070726963652063616e6e6f7420626520360541b604482015260640161035f565b89516040805183815260208101899052428183015290516001600160a01b03909216917f7d881580fb2bb7844e8ecf8df26510247c4bbea2735d40bf0d9ac33c0d9acd819181900360600190a298516001600160a01b031660009081526069602052604090208990555096979650505050505050565b600054610100900460ff166111975760405162461bcd60e51b815260040161035f90611866565b6103f36113c3565b60006111b0640100000000426118b1565b905090565b6040805160208101909152600081526000826001600160701b03161161121d5760405162461bcd60e51b815260206004820152601760248201527f4669786564506f696e743a204449565f42595f5a45524f000000000000000000604482015260640161035f565b6040805160208101909152806112536001600160701b0385166dffffffffffffffffffffffffffff60701b607088901b166118c5565b6001600160e01b0316905290505b92915050565b600080600080611276856103b2565b85516001600160a01b0316600090815260676020908152604080832081518083019092528054808352600190910154928201929092529293506112b99042611825565b90508660a00151811061136e57815187516001600160a01b0390811660009081526068602090815260408083209490945580860180518c51851684528584206001908101919091558c51851684526067835285842042908190558d518616855293869020018890558b5187519151865192835292820193909352938401526060830186905216907f87208a84ec7402c933c70c261e53b733a9f1c893d73e941a152435d58177a2649060800160405180910390a25b505084516001600160a01b03908116600090815260686020526040808220600101549751909216815220549095909350915050565b8051600090611261906612725dd1d243ab906001600160e01b0316611852565b600054610100900460ff166113ea5760405162461bcd60e51b815260040161035f90611866565b6103f333610ede565b6001600160a01b0381168114610ac157600080fd5b60006020828403121561141a57600080fd5b8135610653816113f3565b634e487b7160e01b600052604160045260246000fd5b604051601f8201601f1916810167ffffffffffffffff8111828210171561146457611464611425565b604052919050565b8035801515811461147c57600080fd5b919050565b600060c0828403121561149357600080fd5b60405160c0810181811067ffffffffffffffff821117156114b6576114b6611425565b60405290508082356114c7816113f3565b81526020838101359082015260408301356114e1816113f3565b60408201526114f26060840161146c565b60608201526115036080840161146c565b608082015260a083013560a08201525092915050565b6000602080838503121561152c57600080fd5b823567ffffffffffffffff8082111561154457600080fd5b818501915085601f83011261155857600080fd5b81358181111561156a5761156a611425565b611578848260051b0161143b565b818152848101925060c091820284018501918883111561159757600080fd5b938501935b828510156115bd576115ae8986611481565b8452938401939285019261159c565b50979650505050505050565b600060c082840312156115db57600080fd5b6106538383611481565b634e487b7160e01b600052603260045260246000fd5b634e487b7160e01b600052601160045260246000fd5b600060ff821660ff8103611627576116276115fb565b60010192915050565b60006020828403121561164257600080fd5b8151610653816113f3565b60006020828403121561165f57600080fd5b815160ff8116811461065357600080fd5b600060ff821660ff84168082101561168a5761168a6115fb565b90039392505050565b600181815b808511156116ce5781600019048211156116b4576116b46115fb565b808516156116c157918102915b93841c9390800290611698565b509250929050565b6000826116e557506001611261565b816116f257506000611261565b816001811461170857600281146117125761172e565b6001915050611261565b60ff841115611723576117236115fb565b50506001821b611261565b5060208310610133831016604e8410600b8410161715611751575081810a611261565b61175b8383611693565b806000190482111561176f5761176f6115fb565b029392505050565b600061065360ff8416836116d6565b60008160001904831182151516156117a0576117a06115fb565b500290565b6000602082840312156117b757600080fd5b5051919050565b80516001600160701b038116811461147c57600080fd5b6000806000606084860312156117ea57600080fd5b6117f3846117be565b9250611801602085016117be565b9150604084015163ffffffff8116811461181a57600080fd5b809150509250925092565b600082821015611837576118376115fb565b500390565b634e487b7160e01b600052601260045260246000fd5b6000826118615761186161183c565b500490565b6020808252602b908201527f496e697469616c697a61626c653a20636f6e7472616374206973206e6f74206960408201526a6e697469616c697a696e6760a81b606082015260800190565b6000826118c0576118c061183c565b500690565b60006001600160e01b03838116806118df576118df61183c565b9216919091049291505056fea2646970667358221220858c8a9d8849372bc8356f3d5d78e1a32f04b34752987235ea525ed5bccc8a0464736f6c634300080d0033",
  "devdoc": {
    "kind": "dev",
    "methods": {
      "currentCumulativePrice((address,uint256,address,bool,bool,uint256))": {
        "returns": {
          "_0": "cumulative price of target token regardless of pair order"
        }
      },
      "getUnderlyingPrice(address)": {
        "params": {
          "vToken": "vToken address"
        },
        "returns": {
          "_0": "price in USD, with 18 decimals"
        }
      },
      "owner()": {
        "details": "Returns the address of the current owner."
      },
      "renounceOwnership()": {
        "details": "Leaves the contract without owner. It will not be possible to call `onlyOwner` functions anymore. Can only be called by the current owner. NOTE: Renouncing ownership will leave the contract without an owner, thereby removing any functionality that is only available to the owner."
      },
      "setTokenConfig((address,uint256,address,bool,bool,uint256))": {
        "params": {
          "config": "token config struct"
        }
      },
      "setTokenConfigs((address,uint256,address,bool,bool,uint256)[])": {
        "params": {
          "configs": "config array"
        }
      },
      "transferOwnership(address)": {
        "details": "Transfers ownership of the contract to a new account (`newOwner`). Can only be called by the current owner."
      }
    },
    "version": 1
  },
  "userdoc": {
    "events": {
      "AnchorPriceUpdated(address,uint256,uint256,uint256)": {
        "notice": "Emit this event when TWAP price is updated"
      },
      "TokenConfigAdded(address,address,uint256)": {
        "notice": "Emit this event when new token configs are added"
      },
      "TwapWindowUpdated(address,uint256,uint256,uint256,uint256)": {
        "notice": "Emit this event when TWAP window is updated"
      }
    },
    "kind": "user",
    "methods": {
      "WBNB()": {
        "notice": "WBNB address"
      },
      "bnbBaseUnit()": {
        "notice": "the base unit of WBNB and BUSD, which are the paired tokens for all assets"
      },
      "currentCumulativePrice((address,uint256,address,bool,bool,uint256))": {
        "notice": "Fetches the current token/WBNB and token/BUSD price accumulator from pancakeswap."
      },
      "getUnderlyingPrice(address)": {
        "notice": "Get the underlying TWAP price of input vToken"
      },
      "newObservations(address)": {
        "notice": "The current price observation of TWAP. With old and current observations we can calculate the TWAP between this range"
      },
      "oldObservations(address)": {
        "notice": "The old price observation of TWAP"
      },
      "prices(address)": {
        "notice": "Stored price by token"
      },
      "setTokenConfig((address,uint256,address,bool,bool,uint256))": {
        "notice": "Add single token configs"
      },
      "setTokenConfigs((address,uint256,address,bool,bool,uint256)[])": {
        "notice": "Add multiple token configs at the same time"
      },
      "tokenConfigs(address)": {
        "notice": "Configs by token"
      }
    },
    "version": 1
  },
  "storageLayout": {
    "storage": [
      {
        "astId": 138,
        "contract": "contracts/oracles/TwapOracle.sol:TwapOracle",
        "label": "_initialized",
        "offset": 0,
        "slot": "0",
        "type": "t_uint8"
      },
      {
        "astId": 141,
        "contract": "contracts/oracles/TwapOracle.sol:TwapOracle",
        "label": "_initializing",
        "offset": 1,
        "slot": "0",
        "type": "t_bool"
      },
      {
        "astId": 752,
        "contract": "contracts/oracles/TwapOracle.sol:TwapOracle",
        "label": "__gap",
        "offset": 0,
        "slot": "1",
        "type": "t_array(t_uint256)50_storage"
      },
      {
        "astId": 10,
        "contract": "contracts/oracles/TwapOracle.sol:TwapOracle",
        "label": "_owner",
        "offset": 0,
        "slot": "51",
        "type": "t_address"
      },
      {
        "astId": 130,
        "contract": "contracts/oracles/TwapOracle.sol:TwapOracle",
        "label": "__gap",
        "offset": 0,
        "slot": "52",
        "type": "t_array(t_uint256)49_storage"
      },
      {
        "astId": 6347,
        "contract": "contracts/oracles/TwapOracle.sol:TwapOracle",
        "label": "WBNB",
        "offset": 0,
        "slot": "101",
        "type": "t_address"
      },
      {
        "astId": 6363,
        "contract": "contracts/oracles/TwapOracle.sol:TwapOracle",
        "label": "tokenConfigs",
        "offset": 0,
        "slot": "102",
        "type": "t_mapping(t_address,t_struct(TokenConfig)6338_storage)"
      },
      {
        "astId": 6369,
        "contract": "contracts/oracles/TwapOracle.sol:TwapOracle",
        "label": "newObservations",
        "offset": 0,
        "slot": "103",
        "type": "t_mapping(t_address,t_struct(Observation)6319_storage)"
      },
      {
        "astId": 6375,
        "contract": "contracts/oracles/TwapOracle.sol:TwapOracle",
        "label": "oldObservations",
        "offset": 0,
        "slot": "104",
        "type": "t_mapping(t_address,t_struct(Observation)6319_storage)"
      },
      {
        "astId": 6380,
        "contract": "contracts/oracles/TwapOracle.sol:TwapOracle",
        "label": "prices",
        "offset": 0,
        "slot": "105",
        "type": "t_mapping(t_address,t_uint256)"
      }
    ],
    "types": {
      "t_address": {
        "encoding": "inplace",
        "label": "address",
        "numberOfBytes": "20"
      },
      "t_array(t_uint256)49_storage": {
        "base": "t_uint256",
        "encoding": "inplace",
        "label": "uint256[49]",
        "numberOfBytes": "1568"
      },
      "t_array(t_uint256)50_storage": {
        "base": "t_uint256",
        "encoding": "inplace",
        "label": "uint256[50]",
        "numberOfBytes": "1600"
      },
      "t_bool": {
        "encoding": "inplace",
        "label": "bool",
        "numberOfBytes": "1"
      },
      "t_mapping(t_address,t_struct(Observation)6319_storage)": {
        "encoding": "mapping",
        "key": "t_address",
        "label": "mapping(address => struct Observation)",
        "numberOfBytes": "32",
        "value": "t_struct(Observation)6319_storage"
      },
      "t_mapping(t_address,t_struct(TokenConfig)6338_storage)": {
        "encoding": "mapping",
        "key": "t_address",
        "label": "mapping(address => struct TokenConfig)",
        "numberOfBytes": "32",
        "value": "t_struct(TokenConfig)6338_storage"
      },
      "t_mapping(t_address,t_uint256)": {
        "encoding": "mapping",
        "key": "t_address",
        "label": "mapping(address => uint256)",
        "numberOfBytes": "32",
        "value": "t_uint256"
      },
      "t_struct(Observation)6319_storage": {
        "encoding": "inplace",
        "label": "struct Observation",
        "members": [
          {
            "astId": 6316,
            "contract": "contracts/oracles/TwapOracle.sol:TwapOracle",
            "label": "timestamp",
            "offset": 0,
            "slot": "0",
            "type": "t_uint256"
          },
          {
            "astId": 6318,
            "contract": "contracts/oracles/TwapOracle.sol:TwapOracle",
            "label": "acc",
            "offset": 0,
            "slot": "1",
            "type": "t_uint256"
          }
        ],
        "numberOfBytes": "64"
      },
      "t_struct(TokenConfig)6338_storage": {
        "encoding": "inplace",
        "label": "struct TokenConfig",
        "members": [
          {
            "astId": 6322,
            "contract": "contracts/oracles/TwapOracle.sol:TwapOracle",
            "label": "asset",
            "offset": 0,
            "slot": "0",
            "type": "t_address"
          },
          {
            "astId": 6325,
            "contract": "contracts/oracles/TwapOracle.sol:TwapOracle",
            "label": "baseUnit",
            "offset": 0,
            "slot": "1",
            "type": "t_uint256"
          },
          {
            "astId": 6328,
            "contract": "contracts/oracles/TwapOracle.sol:TwapOracle",
            "label": "pancakePool",
            "offset": 0,
            "slot": "2",
            "type": "t_address"
          },
          {
            "astId": 6331,
            "contract": "contracts/oracles/TwapOracle.sol:TwapOracle",
            "label": "isBnbBased",
            "offset": 20,
            "slot": "2",
            "type": "t_bool"
          },
          {
            "astId": 6334,
            "contract": "contracts/oracles/TwapOracle.sol:TwapOracle",
            "label": "isReversedPool",
            "offset": 21,
            "slot": "2",
            "type": "t_bool"
          },
          {
            "astId": 6337,
            "contract": "contracts/oracles/TwapOracle.sol:TwapOracle",
            "label": "anchorPeriod",
            "offset": 0,
            "slot": "3",
            "type": "t_uint256"
          }
        ],
        "numberOfBytes": "128"
      },
      "t_uint256": {
        "encoding": "inplace",
        "label": "uint256",
        "numberOfBytes": "32"
      },
      "t_uint8": {
        "encoding": "inplace",
        "label": "uint8",
        "numberOfBytes": "1"
      }
    }
  }
}