{
  "address": "0x51B83bbbdCa078b2497C41c9f54616D1aDBEF86F",
  "abi": [
    {
      "inputs": [
        {
          "components": [
            {
              "internalType": "address",
              "name": "market",
              "type": "address"
            },
            {
              "internalType": "address",
              "name": "ptOracle",
              "type": "address"
            },
            {
              "internalType": "enum PendleOracle.RateKind",
              "name": "rateKind",
              "type": "uint8"
            },
            {
              "internalType": "address",
              "name": "ptToken",
              "type": "address"
            },
            {
              "internalType": "address",
              "name": "underlyingToken",
              "type": "address"
            },
            {
              "internalType": "address",
              "name": "resilientOracle",
              "type": "address"
            },
            {
              "internalType": "uint32",
              "name": "twapDuration",
              "type": "uint32"
            },
            {
              "internalType": "uint256",
              "name": "annualGrowthRate",
              "type": "uint256"
            },
            {
              "internalType": "uint256",
              "name": "snapshotInterval",
              "type": "uint256"
            },
            {
              "internalType": "uint256",
              "name": "initialSnapshotMaxExchangeRate",
              "type": "uint256"
            },
            {
              "internalType": "uint256",
              "name": "initialSnapshotTimestamp",
              "type": "uint256"
            },
            {
              "internalType": "address",
              "name": "accessControlManager",
              "type": "address"
            },
            {
              "internalType": "uint256",
              "name": "snapshotGap",
              "type": "uint256"
            }
          ],
          "internalType": "struct PendleOracle.ConstructorParams",
          "name": "params",
          "type": "tuple"
        }
      ],
      "stateMutability": "nonpayable",
      "type": "constructor"
    },
    {
      "inputs": [],
      "name": "InvalidDuration",
      "type": "error"
    },
    {
      "inputs": [],
      "name": "InvalidGrowthRate",
      "type": "error"
    },
    {
      "inputs": [],
      "name": "InvalidInitialSnapshot",
      "type": "error"
    },
    {
      "inputs": [],
      "name": "InvalidSnapshotMaxExchangeRate",
      "type": "error"
    },
    {
      "inputs": [],
      "name": "InvalidTokenAddress",
      "type": "error"
    },
    {
      "inputs": [
        {
          "internalType": "address",
          "name": "sender",
          "type": "address"
        },
        {
          "internalType": "address",
          "name": "calledContract",
          "type": "address"
        },
        {
          "internalType": "string",
          "name": "methodSignature",
          "type": "string"
        }
      ],
      "name": "Unauthorized",
      "type": "error"
    },
    {
      "inputs": [],
      "name": "ZeroAddressNotAllowed",
      "type": "error"
    },
    {
      "inputs": [],
      "name": "ZeroValueNotAllowed",
      "type": "error"
    },
    {
      "anonymous": false,
      "inputs": [
        {
          "indexed": true,
          "internalType": "uint256",
          "name": "oldGrowthRatePerSecond",
          "type": "uint256"
        },
        {
          "indexed": true,
          "internalType": "uint256",
          "name": "newGrowthRatePerSecond",
          "type": "uint256"
        },
        {
          "indexed": true,
          "internalType": "uint256",
          "name": "oldSnapshotInterval",
          "type": "uint256"
        },
        {
          "indexed": false,
          "internalType": "uint256",
          "name": "newSnapshotInterval",
          "type": "uint256"
        }
      ],
      "name": "GrowthRateUpdated",
      "type": "event"
    },
    {
      "anonymous": false,
      "inputs": [
        {
          "indexed": true,
          "internalType": "uint256",
          "name": "oldSnapshotGap",
          "type": "uint256"
        },
        {
          "indexed": true,
          "internalType": "uint256",
          "name": "newSnapshotGap",
          "type": "uint256"
        }
      ],
      "name": "SnapshotGapUpdated",
      "type": "event"
    },
    {
      "anonymous": false,
      "inputs": [
        {
          "indexed": true,
          "internalType": "uint256",
          "name": "maxExchangeRate",
          "type": "uint256"
        },
        {
          "indexed": true,
          "internalType": "uint256",
          "name": "timestamp",
          "type": "uint256"
        }
      ],
      "name": "SnapshotUpdated",
      "type": "event"
    },
    {
      "inputs": [],
      "name": "ACCESS_CONTROL_MANAGER",
      "outputs": [
        {
          "internalType": "contract IAccessControlManagerV8",
          "name": "",
          "type": "address"
        }
      ],
      "stateMutability": "view",
      "type": "function"
    },
    {
      "inputs": [],
      "name": "CORRELATED_TOKEN",
      "outputs": [
        {
          "internalType": "address",
          "name": "",
          "type": "address"
        }
      ],
      "stateMutability": "view",
      "type": "function"
    },
    {
      "inputs": [],
      "name": "MARKET",
      "outputs": [
        {
          "internalType": "address",
          "name": "",
          "type": "address"
        }
      ],
      "stateMutability": "view",
      "type": "function"
    },
    {
      "inputs": [],
      "name": "PT_ORACLE",
      "outputs": [
        {
          "internalType": "contract IPendlePtOracle",
          "name": "",
          "type": "address"
        }
      ],
      "stateMutability": "view",
      "type": "function"
    },
    {
      "inputs": [],
      "name": "RATE_KIND",
      "outputs": [
        {
          "internalType": "enum PendleOracle.RateKind",
          "name": "",
          "type": "uint8"
        }
      ],
      "stateMutability": "view",
      "type": "function"
    },
    {
      "inputs": [],
      "name": "RESILIENT_ORACLE",
      "outputs": [
        {
          "internalType": "contract ResilientOracleInterface",
          "name": "",
          "type": "address"
        }
      ],
      "stateMutability": "view",
      "type": "function"
    },
    {
      "inputs": [],
      "name": "TWAP_DURATION",
      "outputs": [
        {
          "internalType": "uint32",
          "name": "",
          "type": "uint32"
        }
      ],
      "stateMutability": "view",
      "type": "function"
    },
    {
      "inputs": [],
      "name": "UNDERLYING_DECIMALS",
      "outputs": [
        {
          "internalType": "uint8",
          "name": "",
          "type": "uint8"
        }
      ],
      "stateMutability": "view",
      "type": "function"
    },
    {
      "inputs": [],
      "name": "UNDERLYING_TOKEN",
      "outputs": [
        {
          "internalType": "address",
          "name": "",
          "type": "address"
        }
      ],
      "stateMutability": "view",
      "type": "function"
    },
    {
      "inputs": [],
      "name": "getMaxAllowedExchangeRate",
      "outputs": [
        {
          "internalType": "uint256",
          "name": "",
          "type": "uint256"
        }
      ],
      "stateMutability": "view",
      "type": "function"
    },
    {
      "inputs": [
        {
          "internalType": "address",
          "name": "asset",
          "type": "address"
        }
      ],
      "name": "getPrice",
      "outputs": [
        {
          "internalType": "uint256",
          "name": "",
          "type": "uint256"
        }
      ],
      "stateMutability": "view",
      "type": "function"
    },
    {
      "inputs": [],
      "name": "getUnderlyingAmount",
      "outputs": [
        {
          "internalType": "uint256",
          "name": "",
          "type": "uint256"
        }
      ],
      "stateMutability": "view",
      "type": "function"
    },
    {
      "inputs": [],
      "name": "growthRatePerSecond",
      "outputs": [
        {
          "internalType": "uint256",
          "name": "",
          "type": "uint256"
        }
      ],
      "stateMutability": "view",
      "type": "function"
    },
    {
      "inputs": [],
      "name": "isCapped",
      "outputs": [
        {
          "internalType": "bool",
          "name": "",
          "type": "bool"
        }
      ],
      "stateMutability": "view",
      "type": "function"
    },
    {
      "inputs": [
        {
          "internalType": "uint256",
          "name": "_annualGrowthRate",
          "type": "uint256"
        },
        {
          "internalType": "uint256",
          "name": "_snapshotInterval",
          "type": "uint256"
        }
      ],
      "name": "setGrowthRate",
      "outputs": [],
      "stateMutability": "nonpayable",
      "type": "function"
    },
    {
      "inputs": [
        {
          "internalType": "uint256",
          "name": "_snapshotMaxExchangeRate",
          "type": "uint256"
        },
        {
          "internalType": "uint256",
          "name": "_snapshotTimestamp",
          "type": "uint256"
        }
      ],
      "name": "setSnapshot",
      "outputs": [],
      "stateMutability": "nonpayable",
      "type": "function"
    },
    {
      "inputs": [
        {
          "internalType": "uint256",
          "name": "_snapshotGap",
          "type": "uint256"
        }
      ],
      "name": "setSnapshotGap",
      "outputs": [],
      "stateMutability": "nonpayable",
      "type": "function"
    },
    {
      "inputs": [],
      "name": "snapshotGap",
      "outputs": [
        {
          "internalType": "uint256",
          "name": "",
          "type": "uint256"
        }
      ],
      "stateMutability": "view",
      "type": "function"
    },
    {
      "inputs": [],
      "name": "snapshotInterval",
      "outputs": [
        {
          "internalType": "uint256",
          "name": "",
          "type": "uint256"
        }
      ],
      "stateMutability": "view",
      "type": "function"
    },
    {
      "inputs": [],
      "name": "snapshotMaxExchangeRate",
      "outputs": [
        {
          "internalType": "uint256",
          "name": "",
          "type": "uint256"
        }
      ],
      "stateMutability": "view",
      "type": "function"
    },
    {
      "inputs": [],
      "name": "snapshotTimestamp",
      "outputs": [
        {
          "internalType": "uint256",
          "name": "",
          "type": "uint256"
        }
      ],
      "stateMutability": "view",
      "type": "function"
    },
    {
      "inputs": [],
      "name": "updateSnapshot",
      "outputs": [],
      "stateMutability": "nonpayable",
      "type": "function"
    }
  ],
  "transactionHash": "0xec42f5231f000d767554b24708341630e7cf982b6ccbfaf41534328dcf044802",
  "args": [
    {
      "market": "0xcDd26Eb5EB2Ce0f203a84553853667aE69Ca29Ce",
      "ptOracle": "0x9a9fa8338dd5e5b2188006f1cd2ef26d921650c2",
      "rateKind": 0,
      "ptToken": "0xe00bd3df25fb187d6abbb620b3dfd19839947b81",
      "underlyingToken": "0x4c9edd5852cd905f086c759e8383e09bff1e68b3",
      "resilientOracle": "0xd2ce3fb018805ef92b8C5976cb31F84b4E295F94",
      "twapDuration": 1800,
      "annualGrowthRate": 0,
      "snapshotInterval": 0,
      "initialSnapshotMaxExchangeRate": 0,
      "initialSnapshotTimestamp": 0,
      "accessControlManager": "0x230058da2D23eb8836EC5DB7037ef7250c56E25E",
      "snapshotGap": 0
    }
  ],
  "numDeployments": 1,
  "solcInputHash": "8100be9851a60cd39397bcc019f102c9",
  "bytecode": "0x6101a0604052348015610010575f80fd5b5060405161155938038061155983398101604081905261002f916103a6565b6060810151608082015160a083015160e084015161010085015161012086015161014087015161016088015161018089015161006f6301e1338087610481565b5f81905515801561007f57505f85115b8061009357505f8054118015610093575084155b156100b1576040516353b7e64560e11b815260040160405180910390fd5b8315806100bc575082155b80156100c757505f85115b156100e55760405163b8a5589b60e01b815260040160405180910390fd5b6100ee896102eb565b6100f7886102eb565b610100876102eb565b610109826102eb565b6001600160a01b0398891660805296881660a05294871660c052600192909255600255600355506004919091551660e0528051610145906102eb565b6020810151610153906102eb565b60c08101516101679063ffffffff16610315565b80516001600160a01b03908116610140526020820151166101005260408101516001811115610198576101986104a0565b6101208160018111156101ad576101ad6104a0565b815250508060c0015163ffffffff166101608163ffffffff168152505060a0516001600160a01b031663313ce5676040518163ffffffff1660e01b8152600401602060405180830381865afa158015610208573d5f803e3d5ffd5b505050506040513d601f19601f8201168201806040525081019061022c91906104b4565b60ff166101805261010051610140516101605160405162439f4b60e91b81526001600160a01b03928316600482015263ffffffff90911660248201525f928392169063873e960090604401606060405180830381865afa158015610292573d5f803e3d5ffd5b505050506040513d601f19601f820116820180604052508101906102b691906104ea565b925050915081806102c5575080155b156102e357604051637616640160e01b815260040160405180910390fd5b505050610532565b6001600160a01b038116610312576040516342bcdf7f60e11b815260040160405180910390fd5b50565b805f036103125760405163273e150360e21b815260040160405180910390fd5b6040516101a081016001600160401b038111828210171561036457634e487b7160e01b5f52604160045260245ffd5b60405290565b80516001600160a01b0381168114610380575f80fd5b919050565b805160028110610380575f80fd5b805163ffffffff81168114610380575f80fd5b5f6101a082840312156103b7575f80fd5b6103bf610335565b6103c88361036a565b81526103d66020840161036a565b60208201526103e760408401610385565b60408201526103f86060840161036a565b60608201526104096080840161036a565b608082015261041a60a0840161036a565b60a082015261042b60c08401610393565b60c082015260e0838101519082015261010080840151908201526101208084015190820152610140808401519082015261016061046981850161036a565b90820152610180928301519281019290925250919050565b5f8261049b57634e487b7160e01b5f52601260045260245ffd5b500490565b634e487b7160e01b5f52602160045260245ffd5b5f602082840312156104c4575f80fd5b815160ff811681146104d4575f80fd5b9392505050565b80518015158114610380575f80fd5b5f805f606084860312156104fc575f80fd5b610505846104db565b9250602084015161ffff8116811461051b575f80fd5b9150610529604085016104db565b90509250925092565b60805160a05160c05160e0516101005161012051610140516101605161018051610f596106005f395f81816101d9015261099d01525f81816103070152818161081b01526108f601525f818161038b015281816107f301526108ce01525f818161014601526107a701525f81816102e001528181610847015261092201525f818161022e0152610b9a01525f818161034c0152818161069c0152610a6d01525f818161019a015281816106740152610a4101525f81816102a6015281816103b00152610adb0152610f595ff3fe608060405234801561000f575f80fd5b506004361061013d575f3560e01c806369240426116100b45780639c43eb54116100795780639c43eb541461033e578063a4edcd4c14610347578063abb856131461036e578063ac5a693e14610376578063bdf13af21461037e578063f46f16c214610386575f80fd5b8063692404261461029957806369818a35146102a15780637fc4e4a0146102c8578063809d7b31146102db578063879ac8f814610302575f80fd5b806341976e091161010557806341976e091461021657806345be2dc7146102295780635213f9c814610250578063596efe6f14610265578063643d813d1461026e578063671528d414610281575f80fd5b806302125d091461014157806307d0413c1461017e57806329db1be6146101955780633dae7c22146101d45780634169d2451461020d575b5f80fd5b6101687f000000000000000000000000000000000000000000000000000000000000000081565b6040516101759190610c57565b60405180910390f35b61018760015481565b604051908152602001610175565b6101bc7f000000000000000000000000000000000000000000000000000000000000000081565b6040516001600160a01b039091168152602001610175565b6101fb7f000000000000000000000000000000000000000000000000000000000000000081565b60405160ff9091168152602001610175565b61018760045481565b610187610224366004610c7d565b6103ad565b6101bc7f000000000000000000000000000000000000000000000000000000000000000081565b61026361025e366004610ca3565b61045e565b005b61018760025481565b61026361027c366004610cba565b6104cf565b6102896105a5565b6040519015158152602001610175565b6102636105e0565b6101bc7f000000000000000000000000000000000000000000000000000000000000000081565b6102636102d6366004610cba565b610729565b6101bc7f000000000000000000000000000000000000000000000000000000000000000081565b6103297f000000000000000000000000000000000000000000000000000000000000000081565b60405163ffffffff9091168152602001610175565b61018760035481565b6101bc7f000000000000000000000000000000000000000000000000000000000000000081565b6101876107a1565b6101875f5481565b6101876109dd565b6101bc7f000000000000000000000000000000000000000000000000000000000000000081565b5f7f00000000000000000000000000000000000000000000000000000000000000006001600160a01b0316826001600160a01b03161461040057604051630f58058360e11b815260040160405180910390fd5b5f6104096107a1565b90506001545f036104245761041d81610a2a565b9392505050565b5f61042d6109dd565b90505f818311801561043e57508115155b610448578261044a565b815b905061045581610a2a565b95945050505050565b61049c6040518060400160405280601781526020017f736574536e617073686f744761702875696e7432353629000000000000000000815250610b81565b6004546040518291907feb3716d3f8388c182853c1dc98b18931f3a600bbab31f2ff48631f6412e4997f905f90a3600455565b61050d6040518060400160405280601e81526020017f73657447726f777468526174652875696e743235362c75696e74323536290000815250610b81565b5f5461051d6301e1338084610cee565b5f81905515801561052d57505f82115b8061054157505f8054118015610541575081155b1561055f576040516353b7e64560e11b815260040160405180910390fd5b6001545f54827fa65cbeb0e28a8803a912daac67c472c160aa01e2c988755fa424f290321de6088560405161059691815260200190565b60405180910390a45060015550565b5f6001545f036105b457505f90565b5f6105bd6109dd565b9050805f036105cd575f91505090565b5f6105d66107a1565b9190911192915050565b6001546003546105f09042610d0d565b10806105fc5750600154155b1561060357565b5f61060c6107a1565b90505f6106176109dd565b9050600454818311610629578261062b565b815b6106359190610d26565b6002819055426003555f0361065d57604051635f18388760e01b815260040160405180910390fd5b60405163b62cad6960e01b81526001600160a01b037f0000000000000000000000000000000000000000000000000000000000000000811660048301527f0000000000000000000000000000000000000000000000000000000000000000169063b62cad69906024015f604051808303815f87803b1580156106dd575f80fd5b505af11580156106ef573d5f803e3d5ffd5b505050506003546002547f2c8c8fcb8c77a0ca21dcc3ab8fc0ade761557e76b1240cb40ebbef9fcee00f7d60405160405180910390a35050565b6107676040518060400160405280601c81526020017f736574536e617073686f742875696e743235362c75696e743235362900000000815250610b81565b60028290556003819055604051819083907f2c8c8fcb8c77a0ca21dcc3ab8fc0ade761557e76b1240cb40ebbef9fcee00f7d905f90a35050565b5f8060017f000000000000000000000000000000000000000000000000000000000000000060018111156107d7576107d7610c43565b036108b75760405163a31426d160e01b81526001600160a01b037f0000000000000000000000000000000000000000000000000000000000000000811660048301527f000000000000000000000000000000000000000000000000000000000000000063ffffffff1660248301527f0000000000000000000000000000000000000000000000000000000000000000169063a31426d190604401602060405180830381865afa15801561088c573d5f803e3d5ffd5b505050506040513d601f19601f820116820180604052508101906108b09190610d39565b905061098e565b60405163abca0eab60e01b81526001600160a01b037f0000000000000000000000000000000000000000000000000000000000000000811660048301527f000000000000000000000000000000000000000000000000000000000000000063ffffffff1660248301527f0000000000000000000000000000000000000000000000000000000000000000169063abca0eab90604401602060405180830381865afa158015610967573d5f803e3d5ffd5b505050506040513d601f19601f8201168201806040525081019061098b9190610d39565b90505b670de0b6b3a7640000816109c37f0000000000000000000000000000000000000000000000000000000000000000600a610e30565b6109cd9190610e3e565b6109d79190610cee565b91505090565b5f80600354426109ed9190610d0d565b90505f670de0b6b3a7640000825f54600254610a099190610e3e565b610a139190610e3e565b610a1d9190610cee565b60025461041d9190610d26565b6040516341976e0960e01b81526001600160a01b037f0000000000000000000000000000000000000000000000000000000000000000811660048301525f9182917f000000000000000000000000000000000000000000000000000000000000000016906341976e0990602401602060405180830381865afa158015610ab2573d5f803e3d5ffd5b505050506040513d601f19601f82011682018060405250810190610ad69190610d39565b90505f7f000000000000000000000000000000000000000000000000000000000000000090505f816001600160a01b031663313ce5676040518163ffffffff1660e01b8152600401602060405180830381865afa158015610b39573d5f803e3d5ffd5b505050506040513d601f19601f82011682018060405250810190610b5d9190610e55565b60ff169050610b6d81600a610e75565b610b778487610e3e565b6104559190610cee565b6040516318c5e8ab60e01b81525f906001600160a01b037f000000000000000000000000000000000000000000000000000000000000000016906318c5e8ab90610bd19033908690600401610eae565b602060405180830381865afa158015610bec573d5f803e3d5ffd5b505050506040513d601f19601f82011682018060405250810190610c109190610ed9565b905080610c3f57333083604051634a3fa29360e01b8152600401610c3693929190610ef8565b60405180910390fd5b5050565b634e487b7160e01b5f52602160045260245ffd5b6020810160028310610c7757634e487b7160e01b5f52602160045260245ffd5b91905290565b5f60208284031215610c8d575f80fd5b81356001600160a01b038116811461041d575f80fd5b5f60208284031215610cb3575f80fd5b5035919050565b5f8060408385031215610ccb575f80fd5b50508035926020909101359150565b634e487b7160e01b5f52601160045260245ffd5b5f82610d0857634e487b7160e01b5f52601260045260245ffd5b500490565b81810381811115610d2057610d20610cda565b92915050565b80820180821115610d2057610d20610cda565b5f60208284031215610d49575f80fd5b5051919050565b600181815b80851115610d8a57815f1904821115610d7057610d70610cda565b80851615610d7d57918102915b93841c9390800290610d55565b509250929050565b5f82610da057506001610d20565b81610dac57505f610d20565b8160018114610dc25760028114610dcc57610de8565b6001915050610d20565b60ff841115610ddd57610ddd610cda565b50506001821b610d20565b5060208310610133831016604e8410600b8410161715610e0b575081810a610d20565b610e158383610d50565b805f1904821115610e2857610e28610cda565b029392505050565b5f61041d60ff841683610d92565b8082028115828204841417610d2057610d20610cda565b5f60208284031215610e65575f80fd5b815160ff8116811461041d575f80fd5b5f61041d8383610d92565b5f81518084528060208401602086015e5f602082860101526020601f19601f83011685010191505092915050565b6001600160a01b03831681526040602082018190525f90610ed190830184610e80565b949350505050565b5f60208284031215610ee9575f80fd5b8151801515811461041d575f80fd5b6001600160a01b038481168252831660208201526060604082018190525f9061045590830184610e8056fea2646970667358221220dd4434cf5ec982b81a2a3a25f96ea3d5d76d95704500f208da19253bd6abc73b64736f6c63430008190033",
  "devdoc": {
    "author": "Venus",
    "details": "As a base price the oracle uses either the price of the Pendle market's asset (in this case PT_TO_ASSET rate should be used) or the price of the Pendle market's interest bearing token (e.g. wstETH for stETH; in this case PT_TO_SY rate should be used). Technically, interest bearing token is different from standardized yield (SY) token, but since SY is a wrapper around an interest bearing token, we can safely assume the prices of the two are equal. This is not always true for asset price though: using PT_TO_ASSET rate assumes that the yield token can be seamlessly redeemed for the underlying asset. In reality, this might not always be the case. For more details, see https://docs.pendle.finance/Developers/Contracts/StandardizedYield",
    "kind": "dev",
    "methods": {
      "constructor": {
        "custom:error": "InvalidDuration Thrown if the duration is invalid"
      },
      "getMaxAllowedExchangeRate()": {
        "returns": {
          "_0": "maxExchangeRate Maximum allowed exchange rate"
        }
      },
      "getPrice(address)": {
        "custom:error": "InvalidTokenAddress error is thrown if the token address is invalid",
        "params": {
          "asset": "Address of the token"
        },
        "returns": {
          "_0": "price The price of the token in scaled decimal places. It can be capped to a maximum value taking into account the growth rate"
        }
      },
      "getUnderlyingAmount()": {
        "returns": {
          "_0": "amount The amount of underlying token (either the market's asset or the yield token) for 1 PT, adjusted for decimals such that the result has the same precision as the underlying token"
        }
      },
      "isCapped()": {
        "returns": {
          "_0": "isCapped Boolean indicating if the price is capped"
        }
      },
      "setGrowthRate(uint256,uint256)": {
        "custom:error": "InvalidGrowthRate error is thrown if the growth rate is invalid",
        "custom:event": "Emits GrowthRateUpdated event on successful update of the growth rate",
        "params": {
          "_annualGrowthRate": "The annual growth rate to set",
          "_snapshotInterval": "The snapshot interval to set"
        }
      },
      "setSnapshot(uint256,uint256)": {
        "custom:event": "Emits SnapshotUpdated event on successful update of the snapshot",
        "params": {
          "_snapshotMaxExchangeRate": "The exchange rate to set",
          "_snapshotTimestamp": "The timestamp to set"
        }
      },
      "setSnapshotGap(uint256)": {
        "custom:event": "Emits SnapshotGapUpdated event on successful update of the snapshot gap",
        "params": {
          "_snapshotGap": "The snapshot gap to set"
        }
      },
      "updateSnapshot()": {
        "custom:error": "InvalidSnapshotMaxExchangeRate error is thrown if the max snapshot exchange rate is zero",
        "custom:event": "Emits SnapshotUpdated event on successful update of the snapshot"
      }
    },
    "stateVariables": {
      "UNDERLYING_DECIMALS": {
        "details": "We make an assumption that the underlying decimals will not change throughout the lifetime of the Pendle market"
      }
    },
    "title": "PendleOracle",
    "version": 1
  },
  "userdoc": {
    "errors": {
      "InvalidDuration()": [
        {
          "notice": "Thrown if the duration is invalid"
        }
      ],
      "InvalidGrowthRate()": [
        {
          "notice": "Thrown if the growth rate is invalid"
        }
      ],
      "InvalidInitialSnapshot()": [
        {
          "notice": "Thrown if the initial snapshot is invalid"
        }
      ],
      "InvalidSnapshotMaxExchangeRate()": [
        {
          "notice": "Thrown if the max snapshot exchange rate is invalid"
        }
      ],
      "InvalidTokenAddress()": [
        {
          "notice": "Thrown if the token address is invalid"
        }
      ],
      "Unauthorized(address,address,string)": [
        {
          "notice": "@notice Thrown when the action is prohibited by AccessControlManager"
        }
      ],
      "ZeroAddressNotAllowed()": [
        {
          "notice": "Thrown if the supplied address is a zero address where it is not allowed"
        }
      ],
      "ZeroValueNotAllowed()": [
        {
          "notice": "Thrown if the supplied value is 0 where it is not allowed"
        }
      ]
    },
    "events": {
      "GrowthRateUpdated(uint256,uint256,uint256,uint256)": {
        "notice": "Emitted when the growth rate is updated"
      },
      "SnapshotGapUpdated(uint256,uint256)": {
        "notice": "Emitted when the snapshot gap is updated"
      },
      "SnapshotUpdated(uint256,uint256)": {
        "notice": "Emitted when the snapshot is updated"
      }
    },
    "kind": "user",
    "methods": {
      "ACCESS_CONTROL_MANAGER()": {
        "notice": "Address of the AccessControlManager contract"
      },
      "CORRELATED_TOKEN()": {
        "notice": "Address of the correlated token"
      },
      "MARKET()": {
        "notice": "Address of the market"
      },
      "PT_ORACLE()": {
        "notice": "Address of the PT oracle"
      },
      "RATE_KIND()": {
        "notice": "Whether to use PT/SY (standardized yield token) rate or PT/market asset rate"
      },
      "RESILIENT_ORACLE()": {
        "notice": "Address of Resilient Oracle"
      },
      "TWAP_DURATION()": {
        "notice": "Twap duration for the oracle"
      },
      "UNDERLYING_DECIMALS()": {
        "notice": "Decimals of the underlying token"
      },
      "UNDERLYING_TOKEN()": {
        "notice": "Address of the underlying token"
      },
      "constructor": {
        "notice": "Constructor for the implementation contract."
      },
      "getMaxAllowedExchangeRate()": {
        "notice": "Gets the maximum allowed exchange rate for token"
      },
      "getPrice(address)": {
        "notice": "Fetches the price of the token"
      },
      "getUnderlyingAmount()": {
        "notice": "Fetches the amount of underlying token for 1 PT"
      },
      "isCapped()": {
        "notice": "Returns if the price is capped"
      },
      "setGrowthRate(uint256,uint256)": {
        "notice": "Sets the growth rate and snapshot interval"
      },
      "setSnapshot(uint256,uint256)": {
        "notice": "Directly sets the snapshot exchange rate and timestamp"
      },
      "setSnapshotGap(uint256)": {
        "notice": "Sets the snapshot gap"
      },
      "snapshotGap()": {
        "notice": "Gap to add when updating the snapshot"
      },
      "snapshotInterval()": {
        "notice": "Snapshot update interval"
      },
      "snapshotMaxExchangeRate()": {
        "notice": "Last stored snapshot maximum exchange rate"
      },
      "snapshotTimestamp()": {
        "notice": "Last stored snapshot timestamp"
      },
      "updateSnapshot()": {
        "notice": "Updates the snapshot price and timestamp"
      }
    },
    "notice": "This oracle fetches the price of a pendle token",
    "version": 1
  },
  "storageLayout": {
    "storage": [
      {
        "astId": 6407,
        "contract": "contracts/oracles/PendleOracle.sol:PendleOracle",
        "label": "growthRatePerSecond",
        "offset": 0,
        "slot": "0",
        "type": "t_uint256"
      },
      {
        "astId": 6410,
        "contract": "contracts/oracles/PendleOracle.sol:PendleOracle",
        "label": "snapshotInterval",
        "offset": 0,
        "slot": "1",
        "type": "t_uint256"
      },
      {
        "astId": 6413,
        "contract": "contracts/oracles/PendleOracle.sol:PendleOracle",
        "label": "snapshotMaxExchangeRate",
        "offset": 0,
        "slot": "2",
        "type": "t_uint256"
      },
      {
        "astId": 6416,
        "contract": "contracts/oracles/PendleOracle.sol:PendleOracle",
        "label": "snapshotTimestamp",
        "offset": 0,
        "slot": "3",
        "type": "t_uint256"
      },
      {
        "astId": 6419,
        "contract": "contracts/oracles/PendleOracle.sol:PendleOracle",
        "label": "snapshotGap",
        "offset": 0,
        "slot": "4",
        "type": "t_uint256"
      }
    ],
    "types": {
      "t_uint256": {
        "encoding": "inplace",
        "label": "uint256",
        "numberOfBytes": "32"
      }
    }
  }
}