{
  "address": "0x5a5957A9da66e7773DC2b62Df45EE1516878bedF",
  "abi": [
    {
      "inputs": [
        {
          "internalType": "contract ResilientOracleInterface",
          "name": "resilientOracle",
          "type": "address"
        }
      ],
      "stateMutability": "nonpayable",
      "type": "constructor"
    },
    {
      "inputs": [],
      "name": "ZeroAddressNotAllowed",
      "type": "error"
    },
    {
      "anonymous": false,
      "inputs": [
        {
          "indexed": false,
          "internalType": "uint8",
          "name": "version",
          "type": "uint8"
        }
      ],
      "name": "Initialized",
      "type": "event"
    },
    {
      "anonymous": false,
      "inputs": [
        {
          "indexed": true,
          "internalType": "address",
          "name": "asset",
          "type": "address"
        },
        {
          "indexed": true,
          "internalType": "address",
          "name": "oracle",
          "type": "address"
        }
      ],
      "name": "OracleConfigured",
      "type": "event"
    },
    {
      "anonymous": false,
      "inputs": [
        {
          "indexed": true,
          "internalType": "address",
          "name": "previousOwner",
          "type": "address"
        },
        {
          "indexed": true,
          "internalType": "address",
          "name": "newOwner",
          "type": "address"
        }
      ],
      "name": "OwnershipTransferStarted",
      "type": "event"
    },
    {
      "anonymous": false,
      "inputs": [
        {
          "indexed": true,
          "internalType": "address",
          "name": "previousOwner",
          "type": "address"
        },
        {
          "indexed": true,
          "internalType": "address",
          "name": "newOwner",
          "type": "address"
        }
      ],
      "name": "OwnershipTransferred",
      "type": "event"
    },
    {
      "inputs": [],
      "name": "PRICES_SLOT",
      "outputs": [
        {
          "internalType": "bytes32",
          "name": "",
          "type": "bytes32"
        }
      ],
      "stateMutability": "view",
      "type": "function"
    },
    {
      "inputs": [],
      "name": "RESILIENT_ORACLE",
      "outputs": [
        {
          "internalType": "contract ResilientOracleInterface",
          "name": "",
          "type": "address"
        }
      ],
      "stateMutability": "view",
      "type": "function"
    },
    {
      "inputs": [],
      "name": "acceptOwnership",
      "outputs": [],
      "stateMutability": "nonpayable",
      "type": "function"
    },
    {
      "inputs": [
        {
          "internalType": "address",
          "name": "asset",
          "type": "address"
        }
      ],
      "name": "getPrice",
      "outputs": [
        {
          "internalType": "uint256",
          "name": "",
          "type": "uint256"
        }
      ],
      "stateMutability": "view",
      "type": "function"
    },
    {
      "inputs": [
        {
          "internalType": "address",
          "name": "asset",
          "type": "address"
        },
        {
          "components": [
            {
              "internalType": "address",
              "name": "asset",
              "type": "address"
            },
            {
              "internalType": "uint256",
              "name": "price",
              "type": "uint256"
            }
          ],
          "internalType": "struct ReferenceOracle.ExternalPrice[]",
          "name": "externalPrices",
          "type": "tuple[]"
        }
      ],
      "name": "getPriceAssuming",
      "outputs": [
        {
          "internalType": "uint256",
          "name": "",
          "type": "uint256"
        }
      ],
      "stateMutability": "nonpayable",
      "type": "function"
    },
    {
      "inputs": [],
      "name": "initialize",
      "outputs": [],
      "stateMutability": "nonpayable",
      "type": "function"
    },
    {
      "inputs": [
        {
          "internalType": "address",
          "name": "",
          "type": "address"
        }
      ],
      "name": "oracles",
      "outputs": [
        {
          "internalType": "contract OracleInterface",
          "name": "",
          "type": "address"
        }
      ],
      "stateMutability": "view",
      "type": "function"
    },
    {
      "inputs": [],
      "name": "owner",
      "outputs": [
        {
          "internalType": "address",
          "name": "",
          "type": "address"
        }
      ],
      "stateMutability": "view",
      "type": "function"
    },
    {
      "inputs": [],
      "name": "pendingOwner",
      "outputs": [
        {
          "internalType": "address",
          "name": "",
          "type": "address"
        }
      ],
      "stateMutability": "view",
      "type": "function"
    },
    {
      "inputs": [],
      "name": "renounceOwnership",
      "outputs": [],
      "stateMutability": "nonpayable",
      "type": "function"
    },
    {
      "inputs": [
        {
          "internalType": "address",
          "name": "asset",
          "type": "address"
        },
        {
          "internalType": "contract OracleInterface",
          "name": "oracle",
          "type": "address"
        }
      ],
      "name": "setOracle",
      "outputs": [],
      "stateMutability": "nonpayable",
      "type": "function"
    },
    {
      "inputs": [
        {
          "internalType": "address",
          "name": "newOwner",
          "type": "address"
        }
      ],
      "name": "transferOwnership",
      "outputs": [],
      "stateMutability": "nonpayable",
      "type": "function"
    }
  ],
  "transactionHash": "0xec08f94e701c5e085c51c3f7b50c022fbc146d9e61dba021a26d068d1e93de94",
  "args": [
    "0xd2ce3fb018805ef92b8C5976cb31F84b4E295F94"
  ],
  "numDeployments": 1,
  "solcInputHash": "c3627496deae3f549b7b46b372e638a8",
  "bytecode": "0x60a060405234801561000f575f80fd5b50604051610bff380380610bff83398101604081905261002e91610138565b61003781610052565b6001600160a01b03811660805261004c61007c565b50610165565b6001600160a01b038116610079576040516342bcdf7f60e11b815260040160405180910390fd5b50565b5f54610100900460ff16156100e75760405162461bcd60e51b815260206004820152602760248201527f496e697469616c697a61626c653a20636f6e747261637420697320696e697469604482015266616c697a696e6760c81b606482015260840160405180910390fd5b5f5460ff90811614610136575f805460ff191660ff9081179091556040519081527f7f26b83ff96e1f2b6a682f133852f6798a09c465da95921460cefb38474024989060200160405180910390a15b565b5f60208284031215610148575f80fd5b81516001600160a01b038116811461015e575f80fd5b9392505050565b608051610a7b6101845f395f818161014d01526105f00152610a7b5ff3fe608060405234801561000f575f80fd5b50600436106100b1575f3560e01c80638129fc1c1161006e5780638129fc1c1461011b5780638da5cb5b14610123578063a4edcd4c14610148578063addd50991461016f578063e30c397814610197578063f2fde38b146101a8575f80fd5b8063310770b5146100b557806341976e09146100db578063539b18a1146100ee5780635c38eb3a146100f6578063715018a61461010b57806379ba509714610113575b5f80fd5b6100c86100c3366004610847565b6101bb565b6040519081526020015b60405180910390f35b6100c86100e936600461092a565b610226565b6100c8610236565b61010961010436600461094c565b61025e565b005b6101096102c5565b6101096102d8565b610109610357565b6033546001600160a01b03165b6040516001600160a01b0390911681526020016100d2565b6101307f000000000000000000000000000000000000000000000000000000000000000081565b61013061017d36600461092a565b60976020525f90815260409020546001600160a01b031681565b6065546001600160a01b0316610130565b6101096101b636600461092a565b610461565b80515f90815b818110156102145761020c8482815181106101de576101de610983565b60200260200101515f01518583815181106101fb576101fb610983565b6020026020010151602001516104d2565b6001016101c1565b5061021e8461052f565b949350505050565b5f6102308261052f565b92915050565b60405160200161024590610997565b6040516020818303038152906040528051906020012081565b61026661061f565b61026f82610679565b6001600160a01b038281165f8181526097602052604080822080546001600160a01b0319169486169485179055517fe625c7b7d4661988d3a1140f3225faefa7b57c73524adb62fd77dbc945a6db829190a35050565b6102cd61061f565b6102d65f6106a0565b565b60655433906001600160a01b0316811461034b5760405162461bcd60e51b815260206004820152602960248201527f4f776e61626c6532537465703a2063616c6c6572206973206e6f7420746865206044820152683732bb9037bbb732b960b91b60648201526084015b60405180910390fd5b610354816106a0565b50565b5f54610100900460ff161580801561037557505f54600160ff909116105b8061038e5750303b15801561038e57505f5460ff166001145b6103f15760405162461bcd60e51b815260206004820152602e60248201527f496e697469616c697a61626c653a20636f6e747261637420697320616c72656160448201526d191e481a5b9a5d1a585b1a5e995960921b6064820152608401610342565b5f805460ff191660011790558015610412575f805461ff0019166101001790555b61041a6106b9565b8015610354575f805461ff0019169055604051600181527f7f26b83ff96e1f2b6a682f133852f6798a09c465da95921460cefb38474024989060200160405180910390a150565b61046961061f565b606580546001600160a01b0383166001600160a01b0319909116811790915561049a6033546001600160a01b031690565b6001600160a01b03167f38d16b8cac22d99fc7c124b9cd0de2d3fa1faef420bfe791d8c362d765e2270060405160405180910390a350565b5f6040516020016104e290610997565b60408051601f198184030181528282528051602091820120908301526001600160a01b0385169082015260600160405160208183030381529060405280519060200120905081815d505050565b5f8061053a836106e7565b905080156105485792915050565b6001600160a01b038084165f908152609760205260409020541680156105d1576040516341976e0960e01b81526001600160a01b0385811660048301528216906341976e09906024015b602060405180830381865afa1580156105ad573d5f803e3d5ffd5b505050506040513d601f19601f8201168201806040525081019061021e91906109e3565b6040516341976e0960e01b81526001600160a01b0385811660048301527f000000000000000000000000000000000000000000000000000000000000000016906341976e0990602401610592565b6033546001600160a01b031633146102d65760405162461bcd60e51b815260206004820181905260248201527f4f776e61626c653a2063616c6c6572206973206e6f7420746865206f776e65726044820152606401610342565b6001600160a01b038116610354576040516342bcdf7f60e11b815260040160405180910390fd5b606580546001600160a01b031916905561035481610745565b5f54610100900460ff166106df5760405162461bcd60e51b8152600401610342906109fa565b6102d6610796565b5f806040516020016106f890610997565b60408051601f198184030181528282528051602091820120908301526001600160a01b0385169082015260600160408051601f1981840301815291905280516020909101205c9392505050565b603380546001600160a01b038381166001600160a01b0319831681179093556040519116919082907f8be0079c531659141344cd1fd0a4f28419497f9722a3daafe3b4186f6b6457e0905f90a35050565b5f54610100900460ff166107bc5760405162461bcd60e51b8152600401610342906109fa565b6102d6336106a0565b6001600160a01b0381168114610354575f80fd5b634e487b7160e01b5f52604160045260245ffd5b6040805190810167ffffffffffffffff81118282101715610810576108106107d9565b60405290565b604051601f8201601f1916810167ffffffffffffffff8111828210171561083f5761083f6107d9565b604052919050565b5f806040808486031215610859575f80fd5b8335610864816107c5565b925060208481013567ffffffffffffffff80821115610881575f80fd5b818701915087601f830112610894575f80fd5b8135818111156108a6576108a66107d9565b6108b4848260051b01610816565b818152848101925060069190911b8301840190898211156108d3575f80fd5b928401925b8184101561091a5785848b0312156108ee575f80fd5b6108f66107ed565b8435610901816107c5565b81528486013586820152835292850192918401916108d8565b8096505050505050509250929050565b5f6020828403121561093a575f80fd5b8135610945816107c5565b9392505050565b5f806040838503121561095d575f80fd5b8235610968816107c5565b91506020830135610978816107c5565b809150509250929050565b634e487b7160e01b5f52603260045260245ffd5b6020808252602c908201527f76656e75732d70726f746f636f6c2f6f7261636c652f5265666572656e63654f60408201526b7261636c652f70726963657360a01b606082015260800190565b5f602082840312156109f3575f80fd5b5051919050565b6020808252602b908201527f496e697469616c697a61626c653a20636f6e7472616374206973206e6f74206960408201526a6e697469616c697a696e6760a81b60608201526080019056fea2646970667358221220f5b180c90079222f56ff0632364aaad609c5037d6f5aae37e6ac08ff03a854d864736f6c63430008190033",
  "devdoc": {
    "author": "Venus",
    "events": {
      "Initialized(uint8)": {
        "details": "Triggered when the contract has been initialized or reinitialized."
      }
    },
    "kind": "dev",
    "methods": {
      "acceptOwnership()": {
        "details": "The new owner accepts the ownership transfer."
      },
      "constructor": {
        "custom:error": "ZeroAddressNotAllowed is thrown if resilient oracle address is null",
        "custom:oz-upgrades-unsafe-allow": "constructor",
        "params": {
          "resilientOracle": "Resilient oracle address"
        }
      },
      "getPrice(address)": {
        "params": {
          "asset": "asset address"
        },
        "returns": {
          "_0": "USD price in scaled decimal places"
        }
      },
      "getPriceAssuming(address,(address,uint256)[])": {
        "params": {
          "asset": "asset address",
          "externalPrices": "an array of prices for other assets"
        },
        "returns": {
          "_0": "USD price in scaled decimal places"
        }
      },
      "owner()": {
        "details": "Returns the address of the current owner."
      },
      "pendingOwner()": {
        "details": "Returns the address of the pending owner."
      },
      "renounceOwnership()": {
        "details": "Leaves the contract without owner. It will not be possible to call `onlyOwner` functions. Can only be called by the current owner. NOTE: Renouncing ownership will leave the contract without an owner, thereby disabling any functionality that is only available to the owner."
      },
      "setOracle(address,address)": {
        "custom:access": "Only owner",
        "custom:error": "ZeroAddressNotAllowed is thrown if asset address is null",
        "custom:event": "Emits OracleConfigured event",
        "details": "The production resilientOracle will be used if zero address is passed",
        "params": {
          "asset": "Asset address",
          "oracle": "Oracle address"
        }
      },
      "transferOwnership(address)": {
        "details": "Starts the ownership transfer of the contract to a new account. Replaces the pending transfer if there is one. Can only be called by the current owner."
      }
    },
    "stateVariables": {
      "RESILIENT_ORACLE": {
        "custom:oz-upgrades-unsafe-allow": "state-variable-immutable"
      }
    },
    "title": "ReferenceOracle",
    "version": 1
  },
  "userdoc": {
    "errors": {
      "ZeroAddressNotAllowed()": [
        {
          "notice": "Thrown if the supplied address is a zero address where it is not allowed"
        }
      ]
    },
    "events": {
      "OracleConfigured(address,address)": {
        "notice": "Event emitted when an oracle is set"
      }
    },
    "kind": "user",
    "methods": {
      "PRICES_SLOT()": {
        "notice": "Slot to temporarily store price information from external sources like CMC/Coingecko, useful to compute prices of derivative assets based on prices of the base assets with no on chain price information"
      },
      "RESILIENT_ORACLE()": {
        "notice": "Resilient oracle address"
      },
      "constructor": {
        "notice": "Constructor for the implementation contract. Sets immutable variables."
      },
      "getPrice(address)": {
        "notice": "Gets price of the asset"
      },
      "getPriceAssuming(address,(address,uint256)[])": {
        "notice": "Gets price of the asset assuming other assets have the defined price"
      },
      "initialize()": {
        "notice": "Initializes the contract admin"
      },
      "oracles(address)": {
        "notice": "Oracle configuration for assets"
      },
      "setOracle(address,address)": {
        "notice": "Sets an oracle to use for a specific asset"
      }
    },
    "notice": "Reference oracle is the oracle that is not used for production but required for price monitoring. This oracle contains some extra configurations for assets required to compute reference prices of their derivative assets (OneJump, ERC4626, Pendle, etc.)",
    "version": 1
  },
  "storageLayout": {
    "storage": [
      {
        "astId": 246,
        "contract": "contracts/ReferenceOracle.sol:ReferenceOracle",
        "label": "_initialized",
        "offset": 0,
        "slot": "0",
        "type": "t_uint8"
      },
      {
        "astId": 249,
        "contract": "contracts/ReferenceOracle.sol:ReferenceOracle",
        "label": "_initializing",
        "offset": 1,
        "slot": "0",
        "type": "t_bool"
      },
      {
        "astId": 788,
        "contract": "contracts/ReferenceOracle.sol:ReferenceOracle",
        "label": "__gap",
        "offset": 0,
        "slot": "1",
        "type": "t_array(t_uint256)50_storage"
      },
      {
        "astId": 118,
        "contract": "contracts/ReferenceOracle.sol:ReferenceOracle",
        "label": "_owner",
        "offset": 0,
        "slot": "51",
        "type": "t_address"
      },
      {
        "astId": 238,
        "contract": "contracts/ReferenceOracle.sol:ReferenceOracle",
        "label": "__gap",
        "offset": 0,
        "slot": "52",
        "type": "t_array(t_uint256)49_storage"
      },
      {
        "astId": 11,
        "contract": "contracts/ReferenceOracle.sol:ReferenceOracle",
        "label": "_pendingOwner",
        "offset": 0,
        "slot": "101",
        "type": "t_address"
      },
      {
        "astId": 105,
        "contract": "contracts/ReferenceOracle.sol:ReferenceOracle",
        "label": "__gap",
        "offset": 0,
        "slot": "102",
        "type": "t_array(t_uint256)49_storage"
      },
      {
        "astId": 870,
        "contract": "contracts/ReferenceOracle.sol:ReferenceOracle",
        "label": "oracles",
        "offset": 0,
        "slot": "151",
        "type": "t_mapping(t_address,t_contract(OracleInterface)1097)"
      }
    ],
    "types": {
      "t_address": {
        "encoding": "inplace",
        "label": "address",
        "numberOfBytes": "20"
      },
      "t_array(t_uint256)49_storage": {
        "base": "t_uint256",
        "encoding": "inplace",
        "label": "uint256[49]",
        "numberOfBytes": "1568"
      },
      "t_array(t_uint256)50_storage": {
        "base": "t_uint256",
        "encoding": "inplace",
        "label": "uint256[50]",
        "numberOfBytes": "1600"
      },
      "t_bool": {
        "encoding": "inplace",
        "label": "bool",
        "numberOfBytes": "1"
      },
      "t_contract(OracleInterface)1097": {
        "encoding": "inplace",
        "label": "contract OracleInterface",
        "numberOfBytes": "20"
      },
      "t_mapping(t_address,t_contract(OracleInterface)1097)": {
        "encoding": "mapping",
        "key": "t_address",
        "label": "mapping(address => contract OracleInterface)",
        "numberOfBytes": "32",
        "value": "t_contract(OracleInterface)1097"
      },
      "t_uint256": {
        "encoding": "inplace",
        "label": "uint256",
        "numberOfBytes": "32"
      },
      "t_uint8": {
        "encoding": "inplace",
        "label": "uint8",
        "numberOfBytes": "1"
      }
    }
  }
}