{
  "address": "0x1aDCE75BB3164bBf6060a4f44262df5414473110",
  "abi": [
    {
      "inputs": [
        {
          "internalType": "address",
          "name": "sFrax",
          "type": "address"
        },
        {
          "internalType": "address",
          "name": "frax",
          "type": "address"
        },
        {
          "internalType": "address",
          "name": "resilientOracle",
          "type": "address"
        },
        {
          "internalType": "uint256",
          "name": "annualGrowthRate",
          "type": "uint256"
        },
        {
          "internalType": "uint256",
          "name": "_snapshotInterval",
          "type": "uint256"
        },
        {
          "internalType": "uint256",
          "name": "initialSnapshotMaxExchangeRate",
          "type": "uint256"
        },
        {
          "internalType": "uint256",
          "name": "initialSnapshotTimestamp",
          "type": "uint256"
        },
        {
          "internalType": "address",
          "name": "accessControlManager",
          "type": "address"
        },
        {
          "internalType": "uint256",
          "name": "_snapshotGap",
          "type": "uint256"
        }
      ],
      "stateMutability": "nonpayable",
      "type": "constructor"
    },
    {
      "inputs": [],
      "name": "InvalidGrowthRate",
      "type": "error"
    },
    {
      "inputs": [],
      "name": "InvalidInitialSnapshot",
      "type": "error"
    },
    {
      "inputs": [],
      "name": "InvalidSnapshotMaxExchangeRate",
      "type": "error"
    },
    {
      "inputs": [],
      "name": "InvalidTokenAddress",
      "type": "error"
    },
    {
      "inputs": [
        {
          "internalType": "address",
          "name": "sender",
          "type": "address"
        },
        {
          "internalType": "address",
          "name": "calledContract",
          "type": "address"
        },
        {
          "internalType": "string",
          "name": "methodSignature",
          "type": "string"
        }
      ],
      "name": "Unauthorized",
      "type": "error"
    },
    {
      "inputs": [],
      "name": "ZeroAddressNotAllowed",
      "type": "error"
    },
    {
      "anonymous": false,
      "inputs": [
        {
          "indexed": true,
          "internalType": "uint256",
          "name": "oldGrowthRatePerSecond",
          "type": "uint256"
        },
        {
          "indexed": true,
          "internalType": "uint256",
          "name": "newGrowthRatePerSecond",
          "type": "uint256"
        },
        {
          "indexed": true,
          "internalType": "uint256",
          "name": "oldSnapshotInterval",
          "type": "uint256"
        },
        {
          "indexed": false,
          "internalType": "uint256",
          "name": "newSnapshotInterval",
          "type": "uint256"
        }
      ],
      "name": "GrowthRateUpdated",
      "type": "event"
    },
    {
      "anonymous": false,
      "inputs": [
        {
          "indexed": true,
          "internalType": "uint256",
          "name": "oldSnapshotGap",
          "type": "uint256"
        },
        {
          "indexed": true,
          "internalType": "uint256",
          "name": "newSnapshotGap",
          "type": "uint256"
        }
      ],
      "name": "SnapshotGapUpdated",
      "type": "event"
    },
    {
      "anonymous": false,
      "inputs": [
        {
          "indexed": true,
          "internalType": "uint256",
          "name": "maxExchangeRate",
          "type": "uint256"
        },
        {
          "indexed": true,
          "internalType": "uint256",
          "name": "timestamp",
          "type": "uint256"
        }
      ],
      "name": "SnapshotUpdated",
      "type": "event"
    },
    {
      "inputs": [],
      "name": "ACCESS_CONTROL_MANAGER",
      "outputs": [
        {
          "internalType": "contract IAccessControlManagerV8",
          "name": "",
          "type": "address"
        }
      ],
      "stateMutability": "view",
      "type": "function"
    },
    {
      "inputs": [],
      "name": "CORRELATED_TOKEN",
      "outputs": [
        {
          "internalType": "address",
          "name": "",
          "type": "address"
        }
      ],
      "stateMutability": "view",
      "type": "function"
    },
    {
      "inputs": [],
      "name": "RESILIENT_ORACLE",
      "outputs": [
        {
          "internalType": "contract ResilientOracleInterface",
          "name": "",
          "type": "address"
        }
      ],
      "stateMutability": "view",
      "type": "function"
    },
    {
      "inputs": [],
      "name": "UNDERLYING_TOKEN",
      "outputs": [
        {
          "internalType": "address",
          "name": "",
          "type": "address"
        }
      ],
      "stateMutability": "view",
      "type": "function"
    },
    {
      "inputs": [],
      "name": "getMaxAllowedExchangeRate",
      "outputs": [
        {
          "internalType": "uint256",
          "name": "",
          "type": "uint256"
        }
      ],
      "stateMutability": "view",
      "type": "function"
    },
    {
      "inputs": [
        {
          "internalType": "address",
          "name": "asset",
          "type": "address"
        }
      ],
      "name": "getPrice",
      "outputs": [
        {
          "internalType": "uint256",
          "name": "",
          "type": "uint256"
        }
      ],
      "stateMutability": "view",
      "type": "function"
    },
    {
      "inputs": [],
      "name": "getUnderlyingAmount",
      "outputs": [
        {
          "internalType": "uint256",
          "name": "",
          "type": "uint256"
        }
      ],
      "stateMutability": "view",
      "type": "function"
    },
    {
      "inputs": [],
      "name": "growthRatePerSecond",
      "outputs": [
        {
          "internalType": "uint256",
          "name": "",
          "type": "uint256"
        }
      ],
      "stateMutability": "view",
      "type": "function"
    },
    {
      "inputs": [],
      "name": "isCapped",
      "outputs": [
        {
          "internalType": "bool",
          "name": "",
          "type": "bool"
        }
      ],
      "stateMutability": "view",
      "type": "function"
    },
    {
      "inputs": [
        {
          "internalType": "uint256",
          "name": "_annualGrowthRate",
          "type": "uint256"
        },
        {
          "internalType": "uint256",
          "name": "_snapshotInterval",
          "type": "uint256"
        }
      ],
      "name": "setGrowthRate",
      "outputs": [],
      "stateMutability": "nonpayable",
      "type": "function"
    },
    {
      "inputs": [
        {
          "internalType": "uint256",
          "name": "_snapshotMaxExchangeRate",
          "type": "uint256"
        },
        {
          "internalType": "uint256",
          "name": "_snapshotTimestamp",
          "type": "uint256"
        }
      ],
      "name": "setSnapshot",
      "outputs": [],
      "stateMutability": "nonpayable",
      "type": "function"
    },
    {
      "inputs": [
        {
          "internalType": "uint256",
          "name": "_snapshotGap",
          "type": "uint256"
        }
      ],
      "name": "setSnapshotGap",
      "outputs": [],
      "stateMutability": "nonpayable",
      "type": "function"
    },
    {
      "inputs": [],
      "name": "snapshotGap",
      "outputs": [
        {
          "internalType": "uint256",
          "name": "",
          "type": "uint256"
        }
      ],
      "stateMutability": "view",
      "type": "function"
    },
    {
      "inputs": [],
      "name": "snapshotInterval",
      "outputs": [
        {
          "internalType": "uint256",
          "name": "",
          "type": "uint256"
        }
      ],
      "stateMutability": "view",
      "type": "function"
    },
    {
      "inputs": [],
      "name": "snapshotMaxExchangeRate",
      "outputs": [
        {
          "internalType": "uint256",
          "name": "",
          "type": "uint256"
        }
      ],
      "stateMutability": "view",
      "type": "function"
    },
    {
      "inputs": [],
      "name": "snapshotTimestamp",
      "outputs": [
        {
          "internalType": "uint256",
          "name": "",
          "type": "uint256"
        }
      ],
      "stateMutability": "view",
      "type": "function"
    },
    {
      "inputs": [],
      "name": "updateSnapshot",
      "outputs": [],
      "stateMutability": "nonpayable",
      "type": "function"
    }
  ],
  "transactionHash": "0x71d504d35a63f1ddddf1c9bd3317d8f02a6b37d307b865f6b0885eeb3ae00e45",
  "args": [
    "0xA663B02CF0a4b149d2aD41910CB81e23e1c41c32",
    "0x853d955aCEf822Db058eb8505911ED77F175b99e",
    "0xd2ce3fb018805ef92b8C5976cb31F84b4E295F94",
    "540400000000000000",
    2592000,
    "1180235204572592073",
    1748417267,
    "0x230058da2D23eb8836EC5DB7037ef7250c56E25E",
    "50823525555757553"
  ],
  "numDeployments": 3,
  "solcInputHash": "8100be9851a60cd39397bcc019f102c9",
  "bytecode": "0x610100604052348015610010575f80fd5b50604051610ea6380380610ea683398101604081905261002f91610165565b8888888888888888886100466301e13380876101e4565b5f81905515801561005657505f85115b8061006a57505f805411801561006a575084155b15610088576040516353b7e64560e11b815260040160405180910390fd5b831580610093575082155b801561009e57505f85115b156100bc5760405163b8a5589b60e01b815260040160405180910390fd5b6100c589610120565b6100ce88610120565b6100d787610120565b6100e082610120565b6001600160a01b0398891660805296881660a05294871660c052600192909255600255600355506004919091551660e05250610203975050505050505050565b6001600160a01b038116610147576040516342bcdf7f60e11b815260040160405180910390fd5b50565b80516001600160a01b0381168114610160575f80fd5b919050565b5f805f805f805f805f6101208a8c03121561017e575f80fd5b6101878a61014a565b985061019560208b0161014a565b97506101a360408b0161014a565b965060608a0151955060808a0151945060a08a0151935060c08a015192506101cd60e08b0161014a565b91506101008a015190509295985092959850929598565b5f826101fe57634e487b7160e01b5f52601260045260245ffd5b500490565b60805160a05160c05160e051610c3861026e5f395f818161018601526108c101525f81816102410152818161056a015261079401525f818161012b01528181610542015261076801525f81816101fe0152818161027e0152818161068e01526108020152610c385ff3fe608060405234801561000f575f80fd5b5060043610610106575f3560e01c8063671528d41161009e5780639c43eb541161006e5780639c43eb5414610233578063a4edcd4c1461023c578063abb8561314610263578063ac5a693e1461026b578063bdf13af214610273575f80fd5b8063671528d4146101d957806369240426146101f157806369818a35146101f95780637fc4e4a014610220575f80fd5b806345be2dc7116100d957806345be2dc7146101815780635213f9c8146101a8578063596efe6f146101bd578063643d813d146101c6575f80fd5b806307d0413c1461010a57806329db1be6146101265780634169d2451461016557806341976e091461016e575b5f80fd5b61011360015481565b6040519081526020015b60405180910390f35b61014d7f000000000000000000000000000000000000000000000000000000000000000081565b6040516001600160a01b03909116815260200161011d565b61011360045481565b61011361017c36600461096a565b61027b565b61014d7f000000000000000000000000000000000000000000000000000000000000000081565b6101bb6101b6366004610990565b61032c565b005b61011360025481565b6101bb6101d43660046109a7565b61039d565b6101e1610473565b604051901515815260200161011d565b6101bb6104ae565b61014d7f000000000000000000000000000000000000000000000000000000000000000081565b6101bb61022e3660046109a7565b6105f7565b61011360035481565b61014d7f000000000000000000000000000000000000000000000000000000000000000081565b61011361066f565b6101135f5481565b610113610704565b5f7f00000000000000000000000000000000000000000000000000000000000000006001600160a01b0316826001600160a01b0316146102ce57604051630f58058360e11b815260040160405180910390fd5b5f6102d761066f565b90506001545f036102f2576102eb81610751565b9392505050565b5f6102fb610704565b90505f818311801561030c57508115155b6103165782610318565b815b905061032381610751565b95945050505050565b61036a6040518060400160405280601781526020017f736574536e617073686f744761702875696e74323536290000000000000000008152506108a8565b6004546040518291907feb3716d3f8388c182853c1dc98b18931f3a600bbab31f2ff48631f6412e4997f905f90a3600455565b6103db6040518060400160405280601e81526020017f73657447726f777468526174652875696e743235362c75696e743235362900008152506108a8565b5f546103eb6301e13380846109db565b5f8190551580156103fb57505f82115b8061040f57505f805411801561040f575081155b1561042d576040516353b7e64560e11b815260040160405180910390fd5b6001545f54827fa65cbeb0e28a8803a912daac67c472c160aa01e2c988755fa424f290321de6088560405161046491815260200190565b60405180910390a45060015550565b5f6001545f0361048257505f90565b5f61048b610704565b9050805f0361049b575f91505090565b5f6104a461066f565b9190911192915050565b6001546003546104be90426109fa565b10806104ca5750600154155b156104d157565b5f6104da61066f565b90505f6104e5610704565b90506004548183116104f757826104f9565b815b6105039190610a13565b6002819055426003555f0361052b57604051635f18388760e01b815260040160405180910390fd5b60405163b62cad6960e01b81526001600160a01b037f0000000000000000000000000000000000000000000000000000000000000000811660048301527f0000000000000000000000000000000000000000000000000000000000000000169063b62cad69906024015f604051808303815f87803b1580156105ab575f80fd5b505af11580156105bd573d5f803e3d5ffd5b505050506003546002547f2c8c8fcb8c77a0ca21dcc3ab8fc0ade761557e76b1240cb40ebbef9fcee00f7d60405160405180910390a35050565b6106356040518060400160405280601c81526020017f736574536e617073686f742875696e743235362c75696e7432353629000000008152506108a8565b60028290556003819055604051819083907f2c8c8fcb8c77a0ca21dcc3ab8fc0ade761557e76b1240cb40ebbef9fcee00f7d905f90a35050565b6040516303d1689d60e11b8152670de0b6b3a764000060048201525f907f00000000000000000000000000000000000000000000000000000000000000006001600160a01b0316906307a2d13a90602401602060405180830381865afa1580156106db573d5f803e3d5ffd5b505050506040513d601f19601f820116820180604052508101906106ff9190610a26565b905090565b5f806003544261071491906109fa565b90505f670de0b6b3a7640000825f546002546107309190610a3d565b61073a9190610a3d565b61074491906109db565b6002546102eb9190610a13565b6040516341976e0960e01b81526001600160a01b037f0000000000000000000000000000000000000000000000000000000000000000811660048301525f9182917f000000000000000000000000000000000000000000000000000000000000000016906341976e0990602401602060405180830381865afa1580156107d9573d5f803e3d5ffd5b505050506040513d601f19601f820116820180604052508101906107fd9190610a26565b90505f7f000000000000000000000000000000000000000000000000000000000000000090505f816001600160a01b031663313ce5676040518163ffffffff1660e01b8152600401602060405180830381865afa158015610860573d5f803e3d5ffd5b505050506040513d601f19601f820116820180604052508101906108849190610a54565b60ff16905061089481600a610b54565b61089e8487610a3d565b61032391906109db565b6040516318c5e8ab60e01b81525f906001600160a01b037f000000000000000000000000000000000000000000000000000000000000000016906318c5e8ab906108f89033908690600401610b8d565b602060405180830381865afa158015610913573d5f803e3d5ffd5b505050506040513d601f19601f820116820180604052508101906109379190610bb8565b90508061096657333083604051634a3fa29360e01b815260040161095d93929190610bd7565b60405180910390fd5b5050565b5f6020828403121561097a575f80fd5b81356001600160a01b03811681146102eb575f80fd5b5f602082840312156109a0575f80fd5b5035919050565b5f80604083850312156109b8575f80fd5b50508035926020909101359150565b634e487b7160e01b5f52601160045260245ffd5b5f826109f557634e487b7160e01b5f52601260045260245ffd5b500490565b81810381811115610a0d57610a0d6109c7565b92915050565b80820180821115610a0d57610a0d6109c7565b5f60208284031215610a36575f80fd5b5051919050565b8082028115828204841417610a0d57610a0d6109c7565b5f60208284031215610a64575f80fd5b815160ff811681146102eb575f80fd5b600181815b80851115610aae57815f1904821115610a9457610a946109c7565b80851615610aa157918102915b93841c9390800290610a79565b509250929050565b5f82610ac457506001610a0d565b81610ad057505f610a0d565b8160018114610ae65760028114610af057610b0c565b6001915050610a0d565b60ff841115610b0157610b016109c7565b50506001821b610a0d565b5060208310610133831016604e8410600b8410161715610b2f575081810a610a0d565b610b398383610a74565b805f1904821115610b4c57610b4c6109c7565b029392505050565b5f6102eb8383610ab6565b5f81518084528060208401602086015e5f602082860101526020601f19601f83011685010191505092915050565b6001600160a01b03831681526040602082018190525f90610bb090830184610b5f565b949350505050565b5f60208284031215610bc8575f80fd5b815180151581146102eb575f80fd5b6001600160a01b038481168252831660208201526060604082018190525f9061032390830184610b5f56fea2646970667358221220a0312d37961b5532d86b0d69ea1cba9f9f1c69817a3ed7a668fca4ef5787421364736f6c63430008190033",
  "devdoc": {
    "author": "Venus",
    "kind": "dev",
    "methods": {
      "getMaxAllowedExchangeRate()": {
        "returns": {
          "_0": "maxExchangeRate Maximum allowed exchange rate"
        }
      },
      "getPrice(address)": {
        "custom:error": "InvalidTokenAddress error is thrown if the token address is invalid",
        "params": {
          "asset": "Address of the token"
        },
        "returns": {
          "_0": "price The price of the token in scaled decimal places. It can be capped to a maximum value taking into account the growth rate"
        }
      },
      "getUnderlyingAmount()": {
        "returns": {
          "_0": "amount The amount of FRAX for sFrax"
        }
      },
      "isCapped()": {
        "returns": {
          "_0": "isCapped Boolean indicating if the price is capped"
        }
      },
      "setGrowthRate(uint256,uint256)": {
        "custom:error": "InvalidGrowthRate error is thrown if the growth rate is invalid",
        "custom:event": "Emits GrowthRateUpdated event on successful update of the growth rate",
        "params": {
          "_annualGrowthRate": "The annual growth rate to set",
          "_snapshotInterval": "The snapshot interval to set"
        }
      },
      "setSnapshot(uint256,uint256)": {
        "custom:event": "Emits SnapshotUpdated event on successful update of the snapshot",
        "params": {
          "_snapshotMaxExchangeRate": "The exchange rate to set",
          "_snapshotTimestamp": "The timestamp to set"
        }
      },
      "setSnapshotGap(uint256)": {
        "custom:event": "Emits SnapshotGapUpdated event on successful update of the snapshot gap",
        "params": {
          "_snapshotGap": "The snapshot gap to set"
        }
      },
      "updateSnapshot()": {
        "custom:error": "InvalidSnapshotMaxExchangeRate error is thrown if the max snapshot exchange rate is zero",
        "custom:event": "Emits SnapshotUpdated event on successful update of the snapshot"
      }
    },
    "title": "SFraxOracle",
    "version": 1
  },
  "userdoc": {
    "errors": {
      "InvalidGrowthRate()": [
        {
          "notice": "Thrown if the growth rate is invalid"
        }
      ],
      "InvalidInitialSnapshot()": [
        {
          "notice": "Thrown if the initial snapshot is invalid"
        }
      ],
      "InvalidSnapshotMaxExchangeRate()": [
        {
          "notice": "Thrown if the max snapshot exchange rate is invalid"
        }
      ],
      "InvalidTokenAddress()": [
        {
          "notice": "Thrown if the token address is invalid"
        }
      ],
      "Unauthorized(address,address,string)": [
        {
          "notice": "@notice Thrown when the action is prohibited by AccessControlManager"
        }
      ],
      "ZeroAddressNotAllowed()": [
        {
          "notice": "Thrown if the supplied address is a zero address where it is not allowed"
        }
      ]
    },
    "events": {
      "GrowthRateUpdated(uint256,uint256,uint256,uint256)": {
        "notice": "Emitted when the growth rate is updated"
      },
      "SnapshotGapUpdated(uint256,uint256)": {
        "notice": "Emitted when the snapshot gap is updated"
      },
      "SnapshotUpdated(uint256,uint256)": {
        "notice": "Emitted when the snapshot is updated"
      }
    },
    "kind": "user",
    "methods": {
      "ACCESS_CONTROL_MANAGER()": {
        "notice": "Address of the AccessControlManager contract"
      },
      "CORRELATED_TOKEN()": {
        "notice": "Address of the correlated token"
      },
      "RESILIENT_ORACLE()": {
        "notice": "Address of Resilient Oracle"
      },
      "UNDERLYING_TOKEN()": {
        "notice": "Address of the underlying token"
      },
      "constructor": {
        "notice": "Constructor for the implementation contract."
      },
      "getMaxAllowedExchangeRate()": {
        "notice": "Gets the maximum allowed exchange rate for token"
      },
      "getPrice(address)": {
        "notice": "Fetches the price of the token"
      },
      "getUnderlyingAmount()": {
        "notice": "Fetches the amount of FRAX for 1 sFrax"
      },
      "isCapped()": {
        "notice": "Returns if the price is capped"
      },
      "setGrowthRate(uint256,uint256)": {
        "notice": "Sets the growth rate and snapshot interval"
      },
      "setSnapshot(uint256,uint256)": {
        "notice": "Directly sets the snapshot exchange rate and timestamp"
      },
      "setSnapshotGap(uint256)": {
        "notice": "Sets the snapshot gap"
      },
      "snapshotGap()": {
        "notice": "Gap to add when updating the snapshot"
      },
      "snapshotInterval()": {
        "notice": "Snapshot update interval"
      },
      "snapshotMaxExchangeRate()": {
        "notice": "Last stored snapshot maximum exchange rate"
      },
      "snapshotTimestamp()": {
        "notice": "Last stored snapshot timestamp"
      },
      "updateSnapshot()": {
        "notice": "Updates the snapshot price and timestamp"
      }
    },
    "notice": "This oracle fetches the price of sFrax",
    "version": 1
  },
  "storageLayout": {
    "storage": [
      {
        "astId": 6407,
        "contract": "contracts/oracles/SFraxOracle.sol:SFraxOracle",
        "label": "growthRatePerSecond",
        "offset": 0,
        "slot": "0",
        "type": "t_uint256"
      },
      {
        "astId": 6410,
        "contract": "contracts/oracles/SFraxOracle.sol:SFraxOracle",
        "label": "snapshotInterval",
        "offset": 0,
        "slot": "1",
        "type": "t_uint256"
      },
      {
        "astId": 6413,
        "contract": "contracts/oracles/SFraxOracle.sol:SFraxOracle",
        "label": "snapshotMaxExchangeRate",
        "offset": 0,
        "slot": "2",
        "type": "t_uint256"
      },
      {
        "astId": 6416,
        "contract": "contracts/oracles/SFraxOracle.sol:SFraxOracle",
        "label": "snapshotTimestamp",
        "offset": 0,
        "slot": "3",
        "type": "t_uint256"
      },
      {
        "astId": 6419,
        "contract": "contracts/oracles/SFraxOracle.sol:SFraxOracle",
        "label": "snapshotGap",
        "offset": 0,
        "slot": "4",
        "type": "t_uint256"
      }
    ],
    "types": {
      "t_uint256": {
        "encoding": "inplace",
        "label": "uint256",
        "numberOfBytes": "32"
      }
    }
  }
}