{
  "address": "0x3a6f2c02ec48dbEE4Ca406d701DCA2CC9d919EaD",
  "abi": [
    {
      "inputs": [
        {
          "internalType": "address",
          "name": "_sfrxEthFraxOracle",
          "type": "address"
        },
        {
          "internalType": "address",
          "name": "_sfrxETH",
          "type": "address"
        }
      ],
      "stateMutability": "nonpayable",
      "type": "constructor"
    },
    {
      "inputs": [],
      "name": "BadPriceData",
      "type": "error"
    },
    {
      "inputs": [],
      "name": "InvalidTokenAddress",
      "type": "error"
    },
    {
      "inputs": [],
      "name": "PriceDifferenceExceeded",
      "type": "error"
    },
    {
      "inputs": [
        {
          "internalType": "address",
          "name": "sender",
          "type": "address"
        },
        {
          "internalType": "address",
          "name": "calledContract",
          "type": "address"
        },
        {
          "internalType": "string",
          "name": "methodSignature",
          "type": "string"
        }
      ],
      "name": "Unauthorized",
      "type": "error"
    },
    {
      "inputs": [],
      "name": "ZeroAddressNotAllowed",
      "type": "error"
    },
    {
      "inputs": [],
      "name": "ZeroValueNotAllowed",
      "type": "error"
    },
    {
      "anonymous": false,
      "inputs": [
        {
          "indexed": false,
          "internalType": "uint8",
          "name": "version",
          "type": "uint8"
        }
      ],
      "name": "Initialized",
      "type": "event"
    },
    {
      "anonymous": false,
      "inputs": [
        {
          "indexed": false,
          "internalType": "uint256",
          "name": "oldMaxAllowedPriceDifference",
          "type": "uint256"
        },
        {
          "indexed": false,
          "internalType": "uint256",
          "name": "newMaxAllowedPriceDifference",
          "type": "uint256"
        }
      ],
      "name": "MaxAllowedPriceDifferenceUpdated",
      "type": "event"
    },
    {
      "anonymous": false,
      "inputs": [
        {
          "indexed": false,
          "internalType": "address",
          "name": "oldAccessControlManager",
          "type": "address"
        },
        {
          "indexed": false,
          "internalType": "address",
          "name": "newAccessControlManager",
          "type": "address"
        }
      ],
      "name": "NewAccessControlManager",
      "type": "event"
    },
    {
      "anonymous": false,
      "inputs": [
        {
          "indexed": true,
          "internalType": "address",
          "name": "previousOwner",
          "type": "address"
        },
        {
          "indexed": true,
          "internalType": "address",
          "name": "newOwner",
          "type": "address"
        }
      ],
      "name": "OwnershipTransferStarted",
      "type": "event"
    },
    {
      "anonymous": false,
      "inputs": [
        {
          "indexed": true,
          "internalType": "address",
          "name": "previousOwner",
          "type": "address"
        },
        {
          "indexed": true,
          "internalType": "address",
          "name": "newOwner",
          "type": "address"
        }
      ],
      "name": "OwnershipTransferred",
      "type": "event"
    },
    {
      "inputs": [],
      "name": "SFRXETH",
      "outputs": [
        {
          "internalType": "address",
          "name": "",
          "type": "address"
        }
      ],
      "stateMutability": "view",
      "type": "function"
    },
    {
      "inputs": [],
      "name": "SFRXETH_FRAX_ORACLE",
      "outputs": [
        {
          "internalType": "contract ISfrxEthFraxOracle",
          "name": "",
          "type": "address"
        }
      ],
      "stateMutability": "view",
      "type": "function"
    },
    {
      "inputs": [],
      "name": "acceptOwnership",
      "outputs": [],
      "stateMutability": "nonpayable",
      "type": "function"
    },
    {
      "inputs": [],
      "name": "accessControlManager",
      "outputs": [
        {
          "internalType": "contract IAccessControlManagerV8",
          "name": "",
          "type": "address"
        }
      ],
      "stateMutability": "view",
      "type": "function"
    },
    {
      "inputs": [
        {
          "internalType": "address",
          "name": "asset",
          "type": "address"
        }
      ],
      "name": "getPrice",
      "outputs": [
        {
          "internalType": "uint256",
          "name": "",
          "type": "uint256"
        }
      ],
      "stateMutability": "view",
      "type": "function"
    },
    {
      "inputs": [
        {
          "internalType": "address",
          "name": "_accessControlManager",
          "type": "address"
        },
        {
          "internalType": "uint256",
          "name": "_maxAllowedPriceDifference",
          "type": "uint256"
        }
      ],
      "name": "initialize",
      "outputs": [],
      "stateMutability": "nonpayable",
      "type": "function"
    },
    {
      "inputs": [],
      "name": "maxAllowedPriceDifference",
      "outputs": [
        {
          "internalType": "uint256",
          "name": "",
          "type": "uint256"
        }
      ],
      "stateMutability": "view",
      "type": "function"
    },
    {
      "inputs": [],
      "name": "owner",
      "outputs": [
        {
          "internalType": "address",
          "name": "",
          "type": "address"
        }
      ],
      "stateMutability": "view",
      "type": "function"
    },
    {
      "inputs": [],
      "name": "pendingOwner",
      "outputs": [
        {
          "internalType": "address",
          "name": "",
          "type": "address"
        }
      ],
      "stateMutability": "view",
      "type": "function"
    },
    {
      "inputs": [],
      "name": "renounceOwnership",
      "outputs": [],
      "stateMutability": "nonpayable",
      "type": "function"
    },
    {
      "inputs": [
        {
          "internalType": "address",
          "name": "accessControlManager_",
          "type": "address"
        }
      ],
      "name": "setAccessControlManager",
      "outputs": [],
      "stateMutability": "nonpayable",
      "type": "function"
    },
    {
      "inputs": [
        {
          "internalType": "uint256",
          "name": "_maxAllowedPriceDifference",
          "type": "uint256"
        }
      ],
      "name": "setMaxAllowedPriceDifference",
      "outputs": [],
      "stateMutability": "nonpayable",
      "type": "function"
    },
    {
      "inputs": [
        {
          "internalType": "address",
          "name": "newOwner",
          "type": "address"
        }
      ],
      "name": "transferOwnership",
      "outputs": [],
      "stateMutability": "nonpayable",
      "type": "function"
    }
  ],
  "transactionHash": "0xca739008849df5c9e0f11f994373aa0463c3a54faccc20875cd5baea495af75d",
  "args": [
    "0x3d3D868522b5a4035ADcb67BF0846D61597A6a6F",
    "0xac3e018457b222d93114458476f3e3416abbe38f"
  ],
  "numDeployments": 1,
  "solcInputHash": "04e4e9272baf051bc64349e36ce2636f",
  "bytecode": "0x60c060405234801561001057600080fd5b50604051610eb1380380610eb183398101604081905261002f91610168565b61003882610063565b61004181610063565b6001600160a01b03808316608052811660a05261005c61008d565b505061019b565b6001600160a01b03811661008a576040516342bcdf7f60e11b815260040160405180910390fd5b50565b600054610100900460ff16156100f95760405162461bcd60e51b815260206004820152602760248201527f496e697469616c697a61626c653a20636f6e747261637420697320696e697469604482015266616c697a696e6760c81b606482015260840160405180910390fd5b60005460ff9081161461014a576000805460ff191660ff9081179091556040519081527f7f26b83ff96e1f2b6a682f133852f6798a09c465da95921460cefb38474024989060200160405180910390a15b565b80516001600160a01b038116811461016357600080fd5b919050565b6000806040838503121561017b57600080fd5b6101848361014c565b91506101926020840161014c565b90509250929050565b60805160a051610ce46101cd60003960008181610132015261021201526000818160ee01526102690152610ce46000f3fe608060405234801561001057600080fd5b50600436106100cf5760003560e01c80638da5cb5b1161008c578063cd6dc68711610066578063cd6dc687146101b0578063d5445950146101c3578063e30c3978146101d6578063f2fde38b146101e757600080fd5b80638da5cb5b146101855780639fd1944f14610196578063b4a0bdf31461019f57600080fd5b80630e32cb86146100d4578063127cac45146100e957806335da603d1461012d57806341976e0914610154578063715018a61461017557806379ba50971461017d575b600080fd5b6100e76100e236600461097b565b6101fa565b005b6101107f000000000000000000000000000000000000000000000000000000000000000081565b6040516001600160a01b0390911681526020015b60405180910390f35b6101107f000000000000000000000000000000000000000000000000000000000000000081565b61016761016236600461097b565b61020e565b604051908152602001610124565b6100e76103ca565b6100e76103de565b6033546001600160a01b0316610110565b61016760c95481565b6097546001600160a01b0316610110565b6100e76101be36600461099d565b61045a565b6100e76101d13660046109c7565b61057c565b6065546001600160a01b0316610110565b6100e76101f536600461097b565b6105e7565b610202610658565b61020b816106b2565b50565b60007f00000000000000000000000000000000000000000000000000000000000000006001600160a01b0316826001600160a01b03161461026257604051630f58058360e11b815260040160405180910390fd5b60008060007f00000000000000000000000000000000000000000000000000000000000000006001600160a01b031663bd9a548b6040518163ffffffff1660e01b8152600401606060405180830381865afa1580156102c5573d6000803e3d6000fd5b505050506040513d601f19601f820116820180604052508101906102e991906109f0565b925092509250821561030e5760405163a40e329160e01b815260040160405180910390fd5b6000826103246002670de0b6b3a7640000610b21565b61032e9190610b30565b90506000826103466002670de0b6b3a7640000610b21565b6103509190610b30565b905061035b82610777565b61036481610777565b600081610379670de0b6b3a764000085610b52565b6103839190610b30565b905060c9548111156103a85760405163280cb9ed60e11b815260040160405180910390fd5b60026103b48385610b69565b6103be9190610b30565b98975050505050505050565b6103d2610658565b6103dc6000610798565b565b60655433906001600160a01b031681146104515760405162461bcd60e51b815260206004820152602960248201527f4f776e61626c6532537465703a2063616c6c6572206973206e6f7420746865206044820152683732bb9037bbb732b960b91b60648201526084015b60405180910390fd5b61020b81610798565b600054610100900460ff161580801561047a5750600054600160ff909116105b806104945750303b158015610494575060005460ff166001145b6104f75760405162461bcd60e51b815260206004820152602e60248201527f496e697469616c697a61626c653a20636f6e747261637420697320616c72656160448201526d191e481a5b9a5d1a585b1a5e995960921b6064820152608401610448565b6000805460ff19166001179055801561051a576000805461ff0019166101001790555b61052382610777565b61052c836107b1565b60c98290558015610577576000805461ff0019169055604051600181527f7f26b83ff96e1f2b6a682f133852f6798a09c465da95921460cefb38474024989060200160405180910390a15b505050565b61059d604051806060016040528060258152602001610c8a602591396107e9565b6105a681610777565b60c95460408051918252602082018390527f8d4d923222e4a17f030a7f3fe695e9e6c13b437df4b3b48c2332f584395aba90910160405180910390a160c955565b6105ef610658565b606580546001600160a01b0383166001600160a01b031990911681179091556106206033546001600160a01b031690565b6001600160a01b03167f38d16b8cac22d99fc7c124b9cd0de2d3fa1faef420bfe791d8c362d765e2270060405160405180910390a350565b6033546001600160a01b031633146103dc5760405162461bcd60e51b815260206004820181905260248201527f4f776e61626c653a2063616c6c6572206973206e6f7420746865206f776e65726044820152606401610448565b6001600160a01b0381166107165760405162461bcd60e51b815260206004820152602560248201527f696e76616c696420616365737320636f6e74726f6c206d616e61676572206164604482015264647265737360d81b6064820152608401610448565b609780546001600160a01b038381166001600160a01b031983168117909355604080519190921680825260208201939093527f66fd58e82f7b31a2a5c30e0888f3093efe4e111b00cd2b0c31fe014601293aa0910160405180910390a15050565b8060000361020b5760405163273e150360e21b815260040160405180910390fd5b606580546001600160a01b031916905561020b81610887565b600054610100900460ff166107d85760405162461bcd60e51b815260040161044890610b7c565b6107e06108d9565b61020b81610908565b6097546040516318c5e8ab60e01b81526000916001600160a01b0316906318c5e8ab9061081c9033908690600401610c0d565b602060405180830381865afa158015610839573d6000803e3d6000fd5b505050506040513d601f19601f8201168201806040525081019061085d9190610c39565b90508061088357333083604051634a3fa29360e01b815260040161044893929190610c54565b5050565b603380546001600160a01b038381166001600160a01b0319831681179093556040519116919082907f8be0079c531659141344cd1fd0a4f28419497f9722a3daafe3b4186f6b6457e090600090a35050565b600054610100900460ff166109005760405162461bcd60e51b815260040161044890610b7c565b6103dc61092f565b600054610100900460ff166102025760405162461bcd60e51b815260040161044890610b7c565b600054610100900460ff166109565760405162461bcd60e51b815260040161044890610b7c565b6103dc33610798565b80356001600160a01b038116811461097657600080fd5b919050565b60006020828403121561098d57600080fd5b6109968261095f565b9392505050565b600080604083850312156109b057600080fd5b6109b98361095f565b946020939093013593505050565b6000602082840312156109d957600080fd5b5035919050565b8051801515811461097657600080fd5b600080600060608486031215610a0557600080fd5b610a0e846109e0565b925060208401519150604084015190509250925092565b634e487b7160e01b600052601160045260246000fd5b600181815b80851115610a76578160001904821115610a5c57610a5c610a25565b80851615610a6957918102915b93841c9390800290610a40565b509250929050565b600082610a8d57506001610b1b565b81610a9a57506000610b1b565b8160018114610ab05760028114610aba57610ad6565b6001915050610b1b565b60ff841115610acb57610acb610a25565b50506001821b610b1b565b5060208310610133831016604e8410600b8410161715610af9575081810a610b1b565b610b038383610a3b565b8060001904821115610b1757610b17610a25565b0290505b92915050565b600061099660ff841683610a7e565b600082610b4d57634e487b7160e01b600052601260045260246000fd5b500490565b8082028115828204841417610b1b57610b1b610a25565b80820180821115610b1b57610b1b610a25565b6020808252602b908201527f496e697469616c697a61626c653a20636f6e7472616374206973206e6f74206960408201526a6e697469616c697a696e6760a81b606082015260800190565b6000815180845260005b81811015610bed57602081850181015186830182015201610bd1565b506000602082860101526020601f19601f83011685010191505092915050565b6001600160a01b0383168152604060208201819052600090610c3190830184610bc7565b949350505050565b600060208284031215610c4b57600080fd5b610996826109e0565b6001600160a01b03848116825283166020820152606060408201819052600090610c8090830184610bc7565b9594505050505056fe7365744d6178416c6c6f7765645072696365446966666572656e63652875696e7432353629a2646970667358221220635a5b40e1f18a7d04d511870430fba9ca8b71100b7a203df7f26ef36b0e369664736f6c63430008190033",
  "devdoc": {
    "author": "Venus",
    "events": {
      "Initialized(uint8)": {
        "details": "Triggered when the contract has been initialized or reinitialized."
      }
    },
    "kind": "dev",
    "methods": {
      "acceptOwnership()": {
        "details": "The new owner accepts the ownership transfer."
      },
      "constructor": {
        "custom:oz-upgrades-unsafe-allow": "constructor"
      },
      "getPrice(address)": {
        "params": {
          "asset": "Address of the sfrxETH token"
        },
        "returns": {
          "_0": "price The price scaled by 1e18"
        }
      },
      "initialize(address,uint256)": {
        "params": {
          "_accessControlManager": "Address of the access control manager contract",
          "_maxAllowedPriceDifference": "Maximum allowed price difference"
        }
      },
      "owner()": {
        "details": "Returns the address of the current owner."
      },
      "pendingOwner()": {
        "details": "Returns the address of the pending owner."
      },
      "renounceOwnership()": {
        "details": "Leaves the contract without owner. It will not be possible to call `onlyOwner` functions. Can only be called by the current owner. NOTE: Renouncing ownership will leave the contract without an owner, thereby disabling any functionality that is only available to the owner."
      },
      "setAccessControlManager(address)": {
        "custom:access": "Only Governance",
        "custom:event": "Emits NewAccessControlManager event",
        "details": "Admin function to set address of AccessControlManager",
        "params": {
          "accessControlManager_": "The new address of the AccessControlManager"
        }
      },
      "setMaxAllowedPriceDifference(uint256)": {
        "params": {
          "_maxAllowedPriceDifference": "Maximum allowed price difference"
        }
      },
      "transferOwnership(address)": {
        "details": "Starts the ownership transfer of the contract to a new account. Replaces the pending transfer if there is one. Can only be called by the current owner."
      }
    },
    "stateVariables": {
      "SFRXETH": {
        "custom:oz-upgrades-unsafe-allow": "state-variable-immutable"
      },
      "SFRXETH_FRAX_ORACLE": {
        "custom:oz-upgrades-unsafe-allow": "state-variable-immutable"
      }
    },
    "title": "SFrxETHOracle",
    "version": 1
  },
  "userdoc": {
    "errors": {
      "BadPriceData()": [
        {
          "notice": "Thrown if the price data is invalid"
        }
      ],
      "InvalidTokenAddress()": [
        {
          "notice": "Thrown if the token address is invalid"
        }
      ],
      "PriceDifferenceExceeded()": [
        {
          "notice": "Thrown if the price difference exceeds the allowed limit"
        }
      ],
      "Unauthorized(address,address,string)": [
        {
          "notice": "Thrown when the action is prohibited by AccessControlManager"
        }
      ],
      "ZeroAddressNotAllowed()": [
        {
          "notice": "Thrown if the supplied address is a zero address where it is not allowed"
        }
      ],
      "ZeroValueNotAllowed()": [
        {
          "notice": "Thrown if the supplied value is 0 where it is not allowed"
        }
      ]
    },
    "events": {
      "MaxAllowedPriceDifferenceUpdated(uint256,uint256)": {
        "notice": "Emits when the maximum allowed price difference is updated"
      },
      "NewAccessControlManager(address,address)": {
        "notice": "Emitted when access control manager contract address is changed"
      }
    },
    "kind": "user",
    "methods": {
      "SFRXETH()": {
        "notice": "Address of sfrxETH"
      },
      "SFRXETH_FRAX_ORACLE()": {
        "notice": "Address of SfrxEthFraxOracle"
      },
      "accessControlManager()": {
        "notice": "Returns the address of the access control manager contract"
      },
      "constructor": {
        "notice": "Constructor for the implementation contract."
      },
      "getPrice(address)": {
        "notice": "Fetches the USD price of sfrxETH"
      },
      "initialize(address,uint256)": {
        "notice": "Sets the contracts required to fetch prices"
      },
      "maxAllowedPriceDifference()": {
        "notice": "Maximum allowed price difference"
      },
      "setAccessControlManager(address)": {
        "notice": "Sets the address of AccessControlManager"
      },
      "setMaxAllowedPriceDifference(uint256)": {
        "notice": "Sets the maximum allowed price difference"
      }
    },
    "notice": "This oracle fetches the price of sfrxETH",
    "version": 1
  },
  "storageLayout": {
    "storage": [
      {
        "astId": 347,
        "contract": "contracts/oracles/SFrxETHOracle.sol:SFrxETHOracle",
        "label": "_initialized",
        "offset": 0,
        "slot": "0",
        "type": "t_uint8"
      },
      {
        "astId": 350,
        "contract": "contracts/oracles/SFrxETHOracle.sol:SFrxETHOracle",
        "label": "_initializing",
        "offset": 1,
        "slot": "0",
        "type": "t_bool"
      },
      {
        "astId": 1007,
        "contract": "contracts/oracles/SFrxETHOracle.sol:SFrxETHOracle",
        "label": "__gap",
        "offset": 0,
        "slot": "1",
        "type": "t_array(t_uint256)50_storage"
      },
      {
        "astId": 219,
        "contract": "contracts/oracles/SFrxETHOracle.sol:SFrxETHOracle",
        "label": "_owner",
        "offset": 0,
        "slot": "51",
        "type": "t_address"
      },
      {
        "astId": 339,
        "contract": "contracts/oracles/SFrxETHOracle.sol:SFrxETHOracle",
        "label": "__gap",
        "offset": 0,
        "slot": "52",
        "type": "t_array(t_uint256)49_storage"
      },
      {
        "astId": 128,
        "contract": "contracts/oracles/SFrxETHOracle.sol:SFrxETHOracle",
        "label": "_pendingOwner",
        "offset": 0,
        "slot": "101",
        "type": "t_address"
      },
      {
        "astId": 207,
        "contract": "contracts/oracles/SFrxETHOracle.sol:SFrxETHOracle",
        "label": "__gap",
        "offset": 0,
        "slot": "102",
        "type": "t_array(t_uint256)49_storage"
      },
      {
        "astId": 5192,
        "contract": "contracts/oracles/SFrxETHOracle.sol:SFrxETHOracle",
        "label": "_accessControlManager",
        "offset": 0,
        "slot": "151",
        "type": "t_contract(IAccessControlManagerV8)5377"
      },
      {
        "astId": 5197,
        "contract": "contracts/oracles/SFrxETHOracle.sol:SFrxETHOracle",
        "label": "__gap",
        "offset": 0,
        "slot": "152",
        "type": "t_array(t_uint256)49_storage"
      },
      {
        "astId": 8862,
        "contract": "contracts/oracles/SFrxETHOracle.sol:SFrxETHOracle",
        "label": "maxAllowedPriceDifference",
        "offset": 0,
        "slot": "201",
        "type": "t_uint256"
      }
    ],
    "types": {
      "t_address": {
        "encoding": "inplace",
        "label": "address",
        "numberOfBytes": "20"
      },
      "t_array(t_uint256)49_storage": {
        "base": "t_uint256",
        "encoding": "inplace",
        "label": "uint256[49]",
        "numberOfBytes": "1568"
      },
      "t_array(t_uint256)50_storage": {
        "base": "t_uint256",
        "encoding": "inplace",
        "label": "uint256[50]",
        "numberOfBytes": "1600"
      },
      "t_bool": {
        "encoding": "inplace",
        "label": "bool",
        "numberOfBytes": "1"
      },
      "t_contract(IAccessControlManagerV8)5377": {
        "encoding": "inplace",
        "label": "contract IAccessControlManagerV8",
        "numberOfBytes": "20"
      },
      "t_uint256": {
        "encoding": "inplace",
        "label": "uint256",
        "numberOfBytes": "32"
      },
      "t_uint8": {
        "encoding": "inplace",
        "label": "uint8",
        "numberOfBytes": "1"
      }
    }
  }
}