{
  "address": "0x3694ad1233FC1f7f71D3aD0b1dad128D8d1333AA",
  "abi": [
    {
      "inputs": [
        {
          "internalType": "address",
          "name": "liquidityPool",
          "type": "address"
        },
        {
          "internalType": "address",
          "name": "weETH",
          "type": "address"
        },
        {
          "internalType": "address",
          "name": "eETH",
          "type": "address"
        },
        {
          "internalType": "address",
          "name": "resilientOracle",
          "type": "address"
        }
      ],
      "stateMutability": "nonpayable",
      "type": "constructor"
    },
    {
      "inputs": [],
      "name": "InvalidTokenAddress",
      "type": "error"
    },
    {
      "inputs": [],
      "name": "ZeroAddressNotAllowed",
      "type": "error"
    },
    {
      "inputs": [],
      "name": "CORRELATED_TOKEN",
      "outputs": [
        {
          "internalType": "address",
          "name": "",
          "type": "address"
        }
      ],
      "stateMutability": "view",
      "type": "function"
    },
    {
      "inputs": [],
      "name": "LIQUIDITY_POOL",
      "outputs": [
        {
          "internalType": "contract IEtherFiLiquidityPool",
          "name": "",
          "type": "address"
        }
      ],
      "stateMutability": "view",
      "type": "function"
    },
    {
      "inputs": [],
      "name": "RESILIENT_ORACLE",
      "outputs": [
        {
          "internalType": "contract OracleInterface",
          "name": "",
          "type": "address"
        }
      ],
      "stateMutability": "view",
      "type": "function"
    },
    {
      "inputs": [],
      "name": "UNDERLYING_TOKEN",
      "outputs": [
        {
          "internalType": "address",
          "name": "",
          "type": "address"
        }
      ],
      "stateMutability": "view",
      "type": "function"
    },
    {
      "inputs": [
        {
          "internalType": "address",
          "name": "asset",
          "type": "address"
        }
      ],
      "name": "getPrice",
      "outputs": [
        {
          "internalType": "uint256",
          "name": "",
          "type": "uint256"
        }
      ],
      "stateMutability": "view",
      "type": "function"
    }
  ],
  "transactionHash": "0x571f41df52e878b3db81b2d792cb6e98cfdae316353a8e0a22e9658f654051d6",
  "args": [
    "0x308861A430be4cce5502d0A12724771Fc6DaF216",
    "0xCd5fE23C85820F7B72D0926FC9b05b43E359b7ee",
    "0xc02aaa39b223fe8d0a0e5c4f27ead9083c756cc2",
    "0xd2ce3fb018805ef92b8C5976cb31F84b4E295F94"
  ],
  "numDeployments": 1,
  "solcInputHash": "22740d447fc1d2a214063808c7fd3297",
  "bytecode": "0x61010060405234801561001157600080fd5b506040516106ee3803806106ee833981016040819052610030916100c9565b82828261003c83610083565b61004582610083565b61004e81610083565b6001600160a01b0392831660805290821660a0521660c05261006f84610083565b5050506001600160a01b031660e05261011d565b6001600160a01b0381166100aa576040516342bcdf7f60e11b815260040160405180910390fd5b50565b80516001600160a01b03811681146100c457600080fd5b919050565b600080600080608085870312156100df57600080fd5b6100e8856100ad565b93506100f6602086016100ad565b9250610104604086016100ad565b9150610112606086016100ad565b905092959194509250565b60805160a05160c05160e0516105786101766000396000818160a5015261031d01526000818161011401526101d9015260008181606101526101ab01526000818160ed0152818161013a015261024a01526105786000f3fe608060405234801561001057600080fd5b50600436106100575760003560e01c806329db1be61461005c5780632cca9dfd146100a057806341976e09146100c757806369818a35146100e8578063a4edcd4c1461010f575b600080fd5b6100837f000000000000000000000000000000000000000000000000000000000000000081565b6040516001600160a01b0390911681526020015b60405180910390f35b6100837f000000000000000000000000000000000000000000000000000000000000000081565b6100da6100d5366004610395565b610136565b604051908152602001610097565b6100837f000000000000000000000000000000000000000000000000000000000000000081565b6100837f000000000000000000000000000000000000000000000000000000000000000081565b60007f00000000000000000000000000000000000000000000000000000000000000006001600160a01b0316826001600160a01b03161461018a57604051630f58058360e11b815260040160405180910390fd5b60006101946102fd565b6040516341976e0960e01b81526001600160a01b037f0000000000000000000000000000000000000000000000000000000000000000811660048301529192506000917f000000000000000000000000000000000000000000000000000000000000000016906341976e0990602401602060405180830381865afa158015610220573d6000803e3d6000fd5b505050506040513d601f19601f8201168201806040525081019061024491906103c5565b905060007f000000000000000000000000000000000000000000000000000000000000000090506000816001600160a01b031663313ce5676040518163ffffffff1660e01b8152600401602060405180830381865afa1580156102ab573d6000803e3d6000fd5b505050506040513d601f19601f820116820180604052508101906102cf91906103de565b60ff1690506102df81600a6104fd565b6102e98486610509565b6102f39190610520565b9695505050505050565b604051630ac37bbf60e31b8152670de0b6b3a764000060048201526000907f00000000000000000000000000000000000000000000000000000000000000006001600160a01b03169063561bddf890602401602060405180830381865afa15801561036c573d6000803e3d6000fd5b505050506040513d601f19601f8201168201806040525081019061039091906103c5565b905090565b6000602082840312156103a757600080fd5b81356001600160a01b03811681146103be57600080fd5b9392505050565b6000602082840312156103d757600080fd5b5051919050565b6000602082840312156103f057600080fd5b815160ff811681146103be57600080fd5b634e487b7160e01b600052601160045260246000fd5b600181815b8085111561045257816000190482111561043857610438610401565b8085161561044557918102915b93841c939080029061041c565b509250929050565b600082610469575060016104f7565b81610476575060006104f7565b816001811461048c5760028114610496576104b2565b60019150506104f7565b60ff8411156104a7576104a7610401565b50506001821b6104f7565b5060208310610133831016604e8410600b84101617156104d5575081810a6104f7565b6104df8383610417565b80600019048211156104f3576104f3610401565b0290505b92915050565b60006103be838361045a565b80820281158282048414176104f7576104f7610401565b60008261053d57634e487b7160e01b600052601260045260246000fd5b50049056fea2646970667358221220792f11c3f66b5fbca282e4b088a654c8e12b87859b1c0e48dc824b665851c9d564736f6c63430008190033",
  "devdoc": {
    "author": "Venus",
    "kind": "dev",
    "methods": {
      "constructor": {
        "custom:oz-upgrades-unsafe-allow": "constructor"
      },
      "getPrice(address)": {
        "params": {
          "asset": "Address of the correlated token"
        },
        "returns": {
          "_0": "price The price of the correlated token in scaled decimal places"
        }
      }
    },
    "stateVariables": {
      "LIQUIDITY_POOL": {
        "custom:oz-upgrades-unsafe-allow": "state-variable-immutable"
      }
    },
    "title": "WeETHOracle",
    "version": 1
  },
  "userdoc": {
    "errors": {
      "InvalidTokenAddress()": [
        {
          "notice": "Thrown if the token address is invalid"
        }
      ],
      "ZeroAddressNotAllowed()": [
        {
          "notice": "Thrown if the supplied address is a zero address where it is not allowed"
        }
      ]
    },
    "kind": "user",
    "methods": {
      "CORRELATED_TOKEN()": {
        "notice": "Address of the correlated token"
      },
      "LIQUIDITY_POOL()": {
        "notice": "Address of Liqiudity pool"
      },
      "RESILIENT_ORACLE()": {
        "notice": "Address of Resilient Oracle"
      },
      "UNDERLYING_TOKEN()": {
        "notice": "Address of the underlying token"
      },
      "constructor": {
        "notice": "Constructor for the implementation contract."
      },
      "getPrice(address)": {
        "notice": "Fetches the price of the correlated token"
      }
    },
    "notice": "This oracle fetches the price of weETH",
    "version": 1
  },
  "storageLayout": {
    "storage": [],
    "types": null
  }
}