{
  "address": "0xFfc4869368a3954A1b933AC94471f12B7e83C24a",
  "abi": [
    {
      "inputs": [
        {
          "internalType": "address",
          "name": "correlatedToken",
          "type": "address"
        },
        {
          "internalType": "address",
          "name": "underlyingToken",
          "type": "address"
        },
        {
          "internalType": "address",
          "name": "resilientOracle",
          "type": "address"
        },
        {
          "internalType": "address",
          "name": "intermediateOracle",
          "type": "address"
        },
        {
          "internalType": "uint256",
          "name": "annualGrowthRate",
          "type": "uint256"
        },
        {
          "internalType": "uint256",
          "name": "_snapshotInterval",
          "type": "uint256"
        },
        {
          "internalType": "uint256",
          "name": "initialSnapshotMaxExchangeRate",
          "type": "uint256"
        },
        {
          "internalType": "uint256",
          "name": "initialSnapshotTimestamp",
          "type": "uint256"
        },
        {
          "internalType": "address",
          "name": "accessControlManager",
          "type": "address"
        },
        {
          "internalType": "uint256",
          "name": "_snapshotGap",
          "type": "uint256"
        }
      ],
      "stateMutability": "nonpayable",
      "type": "constructor"
    },
    {
      "inputs": [],
      "name": "InvalidGrowthRate",
      "type": "error"
    },
    {
      "inputs": [],
      "name": "InvalidInitialSnapshot",
      "type": "error"
    },
    {
      "inputs": [],
      "name": "InvalidSnapshotMaxExchangeRate",
      "type": "error"
    },
    {
      "inputs": [],
      "name": "InvalidTokenAddress",
      "type": "error"
    },
    {
      "inputs": [
        {
          "internalType": "address",
          "name": "sender",
          "type": "address"
        },
        {
          "internalType": "address",
          "name": "calledContract",
          "type": "address"
        },
        {
          "internalType": "string",
          "name": "methodSignature",
          "type": "string"
        }
      ],
      "name": "Unauthorized",
      "type": "error"
    },
    {
      "inputs": [],
      "name": "ZeroAddressNotAllowed",
      "type": "error"
    },
    {
      "anonymous": false,
      "inputs": [
        {
          "indexed": true,
          "internalType": "uint256",
          "name": "oldGrowthRatePerSecond",
          "type": "uint256"
        },
        {
          "indexed": true,
          "internalType": "uint256",
          "name": "newGrowthRatePerSecond",
          "type": "uint256"
        },
        {
          "indexed": true,
          "internalType": "uint256",
          "name": "oldSnapshotInterval",
          "type": "uint256"
        },
        {
          "indexed": false,
          "internalType": "uint256",
          "name": "newSnapshotInterval",
          "type": "uint256"
        }
      ],
      "name": "GrowthRateUpdated",
      "type": "event"
    },
    {
      "anonymous": false,
      "inputs": [
        {
          "indexed": true,
          "internalType": "uint256",
          "name": "oldSnapshotGap",
          "type": "uint256"
        },
        {
          "indexed": true,
          "internalType": "uint256",
          "name": "newSnapshotGap",
          "type": "uint256"
        }
      ],
      "name": "SnapshotGapUpdated",
      "type": "event"
    },
    {
      "anonymous": false,
      "inputs": [
        {
          "indexed": true,
          "internalType": "uint256",
          "name": "maxExchangeRate",
          "type": "uint256"
        },
        {
          "indexed": true,
          "internalType": "uint256",
          "name": "timestamp",
          "type": "uint256"
        }
      ],
      "name": "SnapshotUpdated",
      "type": "event"
    },
    {
      "inputs": [],
      "name": "ACCESS_CONTROL_MANAGER",
      "outputs": [
        {
          "internalType": "contract IAccessControlManagerV8",
          "name": "",
          "type": "address"
        }
      ],
      "stateMutability": "view",
      "type": "function"
    },
    {
      "inputs": [],
      "name": "CORRELATED_TOKEN",
      "outputs": [
        {
          "internalType": "address",
          "name": "",
          "type": "address"
        }
      ],
      "stateMutability": "view",
      "type": "function"
    },
    {
      "inputs": [],
      "name": "INTERMEDIATE_ORACLE",
      "outputs": [
        {
          "internalType": "contract OracleInterface",
          "name": "",
          "type": "address"
        }
      ],
      "stateMutability": "view",
      "type": "function"
    },
    {
      "inputs": [],
      "name": "RESILIENT_ORACLE",
      "outputs": [
        {
          "internalType": "contract ResilientOracleInterface",
          "name": "",
          "type": "address"
        }
      ],
      "stateMutability": "view",
      "type": "function"
    },
    {
      "inputs": [],
      "name": "UNDERLYING_TOKEN",
      "outputs": [
        {
          "internalType": "address",
          "name": "",
          "type": "address"
        }
      ],
      "stateMutability": "view",
      "type": "function"
    },
    {
      "inputs": [],
      "name": "getMaxAllowedExchangeRate",
      "outputs": [
        {
          "internalType": "uint256",
          "name": "",
          "type": "uint256"
        }
      ],
      "stateMutability": "view",
      "type": "function"
    },
    {
      "inputs": [
        {
          "internalType": "address",
          "name": "asset",
          "type": "address"
        }
      ],
      "name": "getPrice",
      "outputs": [
        {
          "internalType": "uint256",
          "name": "",
          "type": "uint256"
        }
      ],
      "stateMutability": "view",
      "type": "function"
    },
    {
      "inputs": [],
      "name": "getUnderlyingAmount",
      "outputs": [
        {
          "internalType": "uint256",
          "name": "",
          "type": "uint256"
        }
      ],
      "stateMutability": "view",
      "type": "function"
    },
    {
      "inputs": [],
      "name": "growthRatePerSecond",
      "outputs": [
        {
          "internalType": "uint256",
          "name": "",
          "type": "uint256"
        }
      ],
      "stateMutability": "view",
      "type": "function"
    },
    {
      "inputs": [],
      "name": "isCapped",
      "outputs": [
        {
          "internalType": "bool",
          "name": "",
          "type": "bool"
        }
      ],
      "stateMutability": "view",
      "type": "function"
    },
    {
      "inputs": [
        {
          "internalType": "uint256",
          "name": "_annualGrowthRate",
          "type": "uint256"
        },
        {
          "internalType": "uint256",
          "name": "_snapshotInterval",
          "type": "uint256"
        }
      ],
      "name": "setGrowthRate",
      "outputs": [],
      "stateMutability": "nonpayable",
      "type": "function"
    },
    {
      "inputs": [
        {
          "internalType": "uint256",
          "name": "_snapshotMaxExchangeRate",
          "type": "uint256"
        },
        {
          "internalType": "uint256",
          "name": "_snapshotTimestamp",
          "type": "uint256"
        }
      ],
      "name": "setSnapshot",
      "outputs": [],
      "stateMutability": "nonpayable",
      "type": "function"
    },
    {
      "inputs": [
        {
          "internalType": "uint256",
          "name": "_snapshotGap",
          "type": "uint256"
        }
      ],
      "name": "setSnapshotGap",
      "outputs": [],
      "stateMutability": "nonpayable",
      "type": "function"
    },
    {
      "inputs": [],
      "name": "snapshotGap",
      "outputs": [
        {
          "internalType": "uint256",
          "name": "",
          "type": "uint256"
        }
      ],
      "stateMutability": "view",
      "type": "function"
    },
    {
      "inputs": [],
      "name": "snapshotInterval",
      "outputs": [
        {
          "internalType": "uint256",
          "name": "",
          "type": "uint256"
        }
      ],
      "stateMutability": "view",
      "type": "function"
    },
    {
      "inputs": [],
      "name": "snapshotMaxExchangeRate",
      "outputs": [
        {
          "internalType": "uint256",
          "name": "",
          "type": "uint256"
        }
      ],
      "stateMutability": "view",
      "type": "function"
    },
    {
      "inputs": [],
      "name": "snapshotTimestamp",
      "outputs": [
        {
          "internalType": "uint256",
          "name": "",
          "type": "uint256"
        }
      ],
      "stateMutability": "view",
      "type": "function"
    },
    {
      "inputs": [],
      "name": "updateSnapshot",
      "outputs": [],
      "stateMutability": "nonpayable",
      "type": "function"
    }
  ],
  "transactionHash": "0x8e532d90f0041e72aba2b8aeaa2cb86478b2e3efdd4454d1d429417452167caa",
  "args": [
    "0x4A9dc15aA6094eF2c7eb9d9390Ac1d71f9406fAE",
    "0x980B62Da83eFf3D4576C647993b0c1D7faf17c73",
    "0x6708bAd042916B47311c8078b29d7f432342102F",
    "0xeDd02c7FfA31490b4107e8f2c25e9198a04F9E45",
    0,
    0,
    0,
    0,
    "0xa36AD96441cB931D8dFEAAaC97D3FaB4B39E590F",
    0
  ],
  "numDeployments": 1,
  "solcInputHash": "8100be9851a60cd39397bcc019f102c9",
  "bytecode": "0x610120604052348015610010575f80fd5b5060405161108538038061108583398101604081905261002f9161017d565b8989898888888888886100466301e133808761020e565b5f81905515801561005657505f85115b8061006a57505f805411801561006a575084155b15610088576040516353b7e64560e11b815260040160405180910390fd5b831580610093575082155b801561009e57505f85115b156100bc5760405163b8a5589b60e01b815260040160405180910390fd5b6100c589610138565b6100ce88610138565b6100d787610138565b6100e082610138565b6001600160a01b0398891660805296881660a05294871660c052600192909255600255600355506004919091551660e05261011a87610138565b5050506001600160a01b03909316610100525061022d945050505050565b6001600160a01b03811661015f576040516342bcdf7f60e11b815260040160405180910390fd5b50565b80516001600160a01b0381168114610178575f80fd5b919050565b5f805f805f805f805f806101408b8d031215610197575f80fd5b6101a08b610162565b99506101ae60208c01610162565b98506101bc60408c01610162565b97506101ca60608c01610162565b965060808b0151955060a08b0151945060c08b0151935060e08b015192506101f56101008c01610162565b91506101208b015190509295989b9194979a5092959850565b5f8261022857634e487b7160e01b5f52601260045260245ffd5b500490565b60805160a05160c05160e05161010051610dce6102b75f395f818161028b01526107f201525f81816101910152610a5701525f818161024c0152818161059c015261092a01525f818161013601528181610574015281816106a501526108fe01525f8181610209015281816102b00152818161072b015281816107c001526109980152610dce5ff3fe608060405234801561000f575f80fd5b5060043610610111575f3560e01c8063692404261161009e578063a4edcd4c1161006e578063a4edcd4c14610247578063abb856131461026e578063ac5a693e14610276578063bdf13af21461027e578063ef4fa51b14610286575f80fd5b806369240426146101fc57806369818a35146102045780637fc4e4a01461022b5780639c43eb541461023e575f80fd5b806345be2dc7116100e457806345be2dc71461018c5780635213f9c8146101b3578063596efe6f146101c8578063643d813d146101d1578063671528d4146101e4575f80fd5b806307d0413c1461011557806329db1be6146101315780634169d2451461017057806341976e0914610179575b5f80fd5b61011e60015481565b6040519081526020015b60405180910390f35b6101587f000000000000000000000000000000000000000000000000000000000000000081565b6040516001600160a01b039091168152602001610128565b61011e60045481565b61011e610187366004610b00565b6102ad565b6101587f000000000000000000000000000000000000000000000000000000000000000081565b6101c66101c1366004610b26565b61035e565b005b61011e60025481565b6101c66101df366004610b3d565b6103cf565b6101ec6104a5565b6040519015158152602001610128565b6101c66104e0565b6101587f000000000000000000000000000000000000000000000000000000000000000081565b6101c6610239366004610b3d565b610629565b61011e60035481565b6101587f000000000000000000000000000000000000000000000000000000000000000081565b61011e6106a1565b61011e5f5481565b61011e61089a565b6101587f000000000000000000000000000000000000000000000000000000000000000081565b5f7f00000000000000000000000000000000000000000000000000000000000000006001600160a01b0316826001600160a01b03161461030057604051630f58058360e11b815260040160405180910390fd5b5f6103096106a1565b90506001545f036103245761031d816108e7565b9392505050565b5f61032d61089a565b90505f818311801561033e57508115155b610348578261034a565b815b9050610355816108e7565b95945050505050565b61039c6040518060400160405280601781526020017f736574536e617073686f744761702875696e7432353629000000000000000000815250610a3e565b6004546040518291907feb3716d3f8388c182853c1dc98b18931f3a600bbab31f2ff48631f6412e4997f905f90a3600455565b61040d6040518060400160405280601e81526020017f73657447726f777468526174652875696e743235362c75696e74323536290000815250610a3e565b5f5461041d6301e1338084610b71565b5f81905515801561042d57505f82115b8061044157505f8054118015610441575081155b1561045f576040516353b7e64560e11b815260040160405180910390fd5b6001545f54827fa65cbeb0e28a8803a912daac67c472c160aa01e2c988755fa424f290321de6088560405161049691815260200190565b60405180910390a45060015550565b5f6001545f036104b457505f90565b5f6104bd61089a565b9050805f036104cd575f91505090565b5f6104d66106a1565b9190911192915050565b6001546003546104f09042610b90565b10806104fc5750600154155b1561050357565b5f61050c6106a1565b90505f61051761089a565b9050600454818311610529578261052b565b815b6105359190610ba9565b6002819055426003555f0361055d57604051635f18388760e01b815260040160405180910390fd5b60405163b62cad6960e01b81526001600160a01b037f0000000000000000000000000000000000000000000000000000000000000000811660048301527f0000000000000000000000000000000000000000000000000000000000000000169063b62cad69906024015f604051808303815f87803b1580156105dd575f80fd5b505af11580156105ef573d5f803e3d5ffd5b505050506003546002547f2c8c8fcb8c77a0ca21dcc3ab8fc0ade761557e76b1240cb40ebbef9fcee00f7d60405160405180910390a35050565b6106676040518060400160405280601c81526020017f736574536e617073686f742875696e743235362c75696e743235362900000000815250610a3e565b60028290556003819055604051819083907f2c8c8fcb8c77a0ca21dcc3ab8fc0ade761557e76b1240cb40ebbef9fcee00f7d905f90a35050565b5f807f00000000000000000000000000000000000000000000000000000000000000006001600160a01b031663313ce5676040518163ffffffff1660e01b8152600401602060405180830381865afa1580156106ff573d5f803e3d5ffd5b505050506040513d601f19601f820116820180604052508101906107239190610bbc565b60ff1690505f7f00000000000000000000000000000000000000000000000000000000000000006001600160a01b031663313ce5676040518163ffffffff1660e01b8152600401602060405180830381865afa158015610785573d5f803e3d5ffd5b505050506040513d601f19601f820116820180604052508101906107a99190610bbc565b6040516341976e0960e01b81526001600160a01b037f00000000000000000000000000000000000000000000000000000000000000008116600483015260ff9290921692505f917f000000000000000000000000000000000000000000000000000000000000000016906341976e0990602401602060405180830381865afa158015610837573d5f803e3d5ffd5b505050506040513d601f19601f8201168201806040525081019061085b9190610bdc565b9050610868836024610b90565b61087390600a610cd3565b61087e83600a610cd3565b6108889083610cde565b6108929190610b71565b935050505090565b5f80600354426108aa9190610b90565b90505f670de0b6b3a7640000825f546002546108c69190610cde565b6108d09190610cde565b6108da9190610b71565b60025461031d9190610ba9565b6040516341976e0960e01b81526001600160a01b037f0000000000000000000000000000000000000000000000000000000000000000811660048301525f9182917f000000000000000000000000000000000000000000000000000000000000000016906341976e0990602401602060405180830381865afa15801561096f573d5f803e3d5ffd5b505050506040513d601f19601f820116820180604052508101906109939190610bdc565b90505f7f000000000000000000000000000000000000000000000000000000000000000090505f816001600160a01b031663313ce5676040518163ffffffff1660e01b8152600401602060405180830381865afa1580156109f6573d5f803e3d5ffd5b505050506040513d601f19601f82011682018060405250810190610a1a9190610bbc565b60ff169050610a2a81600a610cd3565b610a348487610cde565b6103559190610b71565b6040516318c5e8ab60e01b81525f906001600160a01b037f000000000000000000000000000000000000000000000000000000000000000016906318c5e8ab90610a8e9033908690600401610d23565b602060405180830381865afa158015610aa9573d5f803e3d5ffd5b505050506040513d601f19601f82011682018060405250810190610acd9190610d4e565b905080610afc57333083604051634a3fa29360e01b8152600401610af393929190610d6d565b60405180910390fd5b5050565b5f60208284031215610b10575f80fd5b81356001600160a01b038116811461031d575f80fd5b5f60208284031215610b36575f80fd5b5035919050565b5f8060408385031215610b4e575f80fd5b50508035926020909101359150565b634e487b7160e01b5f52601160045260245ffd5b5f82610b8b57634e487b7160e01b5f52601260045260245ffd5b500490565b81810381811115610ba357610ba3610b5d565b92915050565b80820180821115610ba357610ba3610b5d565b5f60208284031215610bcc575f80fd5b815160ff8116811461031d575f80fd5b5f60208284031215610bec575f80fd5b5051919050565b600181815b80851115610c2d57815f1904821115610c1357610c13610b5d565b80851615610c2057918102915b93841c9390800290610bf8565b509250929050565b5f82610c4357506001610ba3565b81610c4f57505f610ba3565b8160018114610c655760028114610c6f57610c8b565b6001915050610ba3565b60ff841115610c8057610c80610b5d565b50506001821b610ba3565b5060208310610133831016604e8410600b8410161715610cae575081810a610ba3565b610cb88383610bf3565b805f1904821115610ccb57610ccb610b5d565b029392505050565b5f61031d8383610c35565b8082028115828204841417610ba357610ba3610b5d565b5f81518084528060208401602086015e5f602082860101526020601f19601f83011685010191505092915050565b6001600160a01b03831681526040602082018190525f90610d4690830184610cf5565b949350505050565b5f60208284031215610d5e575f80fd5b8151801515811461031d575f80fd5b6001600160a01b038481168252831660208201526060604082018190525f9061035590830184610cf556fea264697066735822122057dc71c01a42ea6e734ad67ef8afa39d0d746c0cd6b90ea6f845bc4e46b319b764736f6c63430008190033",
  "devdoc": {
    "author": "Venus",
    "kind": "dev",
    "methods": {
      "getMaxAllowedExchangeRate()": {
        "returns": {
          "_0": "maxExchangeRate Maximum allowed exchange rate"
        }
      },
      "getPrice(address)": {
        "custom:error": "InvalidTokenAddress error is thrown if the token address is invalid",
        "params": {
          "asset": "Address of the token"
        },
        "returns": {
          "_0": "price The price of the token in scaled decimal places. It can be capped to a maximum value taking into account the growth rate"
        }
      },
      "getUnderlyingAmount()": {
        "returns": {
          "_0": "amount The amount of the underlying token for 1 correlated token scaled by the underlying token decimals"
        }
      },
      "isCapped()": {
        "returns": {
          "_0": "isCapped Boolean indicating if the price is capped"
        }
      },
      "setGrowthRate(uint256,uint256)": {
        "custom:error": "InvalidGrowthRate error is thrown if the growth rate is invalid",
        "custom:event": "Emits GrowthRateUpdated event on successful update of the growth rate",
        "params": {
          "_annualGrowthRate": "The annual growth rate to set",
          "_snapshotInterval": "The snapshot interval to set"
        }
      },
      "setSnapshot(uint256,uint256)": {
        "custom:event": "Emits SnapshotUpdated event on successful update of the snapshot",
        "params": {
          "_snapshotMaxExchangeRate": "The exchange rate to set",
          "_snapshotTimestamp": "The timestamp to set"
        }
      },
      "setSnapshotGap(uint256)": {
        "custom:event": "Emits SnapshotGapUpdated event on successful update of the snapshot gap",
        "params": {
          "_snapshotGap": "The snapshot gap to set"
        }
      },
      "updateSnapshot()": {
        "custom:error": "InvalidSnapshotMaxExchangeRate error is thrown if the max snapshot exchange rate is zero",
        "custom:event": "Emits SnapshotUpdated event on successful update of the snapshot"
      }
    },
    "title": "OneJumpOracle",
    "version": 1
  },
  "userdoc": {
    "errors": {
      "InvalidGrowthRate()": [
        {
          "notice": "Thrown if the growth rate is invalid"
        }
      ],
      "InvalidInitialSnapshot()": [
        {
          "notice": "Thrown if the initial snapshot is invalid"
        }
      ],
      "InvalidSnapshotMaxExchangeRate()": [
        {
          "notice": "Thrown if the max snapshot exchange rate is invalid"
        }
      ],
      "InvalidTokenAddress()": [
        {
          "notice": "Thrown if the token address is invalid"
        }
      ],
      "Unauthorized(address,address,string)": [
        {
          "notice": "@notice Thrown when the action is prohibited by AccessControlManager"
        }
      ],
      "ZeroAddressNotAllowed()": [
        {
          "notice": "Thrown if the supplied address is a zero address where it is not allowed"
        }
      ]
    },
    "events": {
      "GrowthRateUpdated(uint256,uint256,uint256,uint256)": {
        "notice": "Emitted when the growth rate is updated"
      },
      "SnapshotGapUpdated(uint256,uint256)": {
        "notice": "Emitted when the snapshot gap is updated"
      },
      "SnapshotUpdated(uint256,uint256)": {
        "notice": "Emitted when the snapshot is updated"
      }
    },
    "kind": "user",
    "methods": {
      "ACCESS_CONTROL_MANAGER()": {
        "notice": "Address of the AccessControlManager contract"
      },
      "CORRELATED_TOKEN()": {
        "notice": "Address of the correlated token"
      },
      "INTERMEDIATE_ORACLE()": {
        "notice": "Address of the intermediate oracle"
      },
      "RESILIENT_ORACLE()": {
        "notice": "Address of Resilient Oracle"
      },
      "UNDERLYING_TOKEN()": {
        "notice": "Address of the underlying token"
      },
      "constructor": {
        "notice": "Constructor for the implementation contract."
      },
      "getMaxAllowedExchangeRate()": {
        "notice": "Gets the maximum allowed exchange rate for token"
      },
      "getPrice(address)": {
        "notice": "Fetches the price of the token"
      },
      "getUnderlyingAmount()": {
        "notice": "Fetches the amount of the underlying token for 1 correlated token, using the intermediate oracle"
      },
      "isCapped()": {
        "notice": "Returns if the price is capped"
      },
      "setGrowthRate(uint256,uint256)": {
        "notice": "Sets the growth rate and snapshot interval"
      },
      "setSnapshot(uint256,uint256)": {
        "notice": "Directly sets the snapshot exchange rate and timestamp"
      },
      "setSnapshotGap(uint256)": {
        "notice": "Sets the snapshot gap"
      },
      "snapshotGap()": {
        "notice": "Gap to add when updating the snapshot"
      },
      "snapshotInterval()": {
        "notice": "Snapshot update interval"
      },
      "snapshotMaxExchangeRate()": {
        "notice": "Last stored snapshot maximum exchange rate"
      },
      "snapshotTimestamp()": {
        "notice": "Last stored snapshot timestamp"
      },
      "updateSnapshot()": {
        "notice": "Updates the snapshot price and timestamp"
      }
    },
    "notice": "This oracle fetches the price of an asset in through an intermediate asset",
    "version": 1
  },
  "storageLayout": {
    "storage": [
      {
        "astId": 6407,
        "contract": "contracts/oracles/OneJumpOracle.sol:OneJumpOracle",
        "label": "growthRatePerSecond",
        "offset": 0,
        "slot": "0",
        "type": "t_uint256"
      },
      {
        "astId": 6410,
        "contract": "contracts/oracles/OneJumpOracle.sol:OneJumpOracle",
        "label": "snapshotInterval",
        "offset": 0,
        "slot": "1",
        "type": "t_uint256"
      },
      {
        "astId": 6413,
        "contract": "contracts/oracles/OneJumpOracle.sol:OneJumpOracle",
        "label": "snapshotMaxExchangeRate",
        "offset": 0,
        "slot": "2",
        "type": "t_uint256"
      },
      {
        "astId": 6416,
        "contract": "contracts/oracles/OneJumpOracle.sol:OneJumpOracle",
        "label": "snapshotTimestamp",
        "offset": 0,
        "slot": "3",
        "type": "t_uint256"
      },
      {
        "astId": 6419,
        "contract": "contracts/oracles/OneJumpOracle.sol:OneJumpOracle",
        "label": "snapshotGap",
        "offset": 0,
        "slot": "4",
        "type": "t_uint256"
      }
    ],
    "types": {
      "t_uint256": {
        "encoding": "inplace",
        "label": "uint256",
        "numberOfBytes": "32"
      }
    }
  }
}