{
  "address": "0xba3303F6dD050Ff1e918A7d4443983D8085A6392",
  "abi": [
    {
      "inputs": [],
      "stateMutability": "nonpayable",
      "type": "constructor"
    },
    {
      "anonymous": false,
      "inputs": [
        {
          "indexed": false,
          "internalType": "address",
          "name": "feed",
          "type": "address"
        },
        {
          "indexed": false,
          "internalType": "address",
          "name": "asset",
          "type": "address"
        },
        {
          "indexed": false,
          "internalType": "uint256",
          "name": "maxStalePeriod",
          "type": "uint256"
        }
      ],
      "name": "FeedSet",
      "type": "event"
    },
    {
      "anonymous": false,
      "inputs": [
        {
          "indexed": false,
          "internalType": "address",
          "name": "oldAdmin",
          "type": "address"
        },
        {
          "indexed": false,
          "internalType": "address",
          "name": "newAdmin",
          "type": "address"
        }
      ],
      "name": "NewAdmin",
      "type": "event"
    },
    {
      "anonymous": false,
      "inputs": [
        {
          "indexed": false,
          "internalType": "address",
          "name": "asset",
          "type": "address"
        },
        {
          "indexed": false,
          "internalType": "uint256",
          "name": "previousPriceMantissa",
          "type": "uint256"
        },
        {
          "indexed": false,
          "internalType": "uint256",
          "name": "requestedPriceMantissa",
          "type": "uint256"
        },
        {
          "indexed": false,
          "internalType": "uint256",
          "name": "newPriceMantissa",
          "type": "uint256"
        }
      ],
      "name": "PricePosted",
      "type": "event"
    },
    {
      "inputs": [],
      "name": "VAI_VALUE",
      "outputs": [
        {
          "internalType": "uint256",
          "name": "",
          "type": "uint256"
        }
      ],
      "stateMutability": "view",
      "type": "function"
    },
    {
      "inputs": [],
      "name": "admin",
      "outputs": [
        {
          "internalType": "address",
          "name": "",
          "type": "address"
        }
      ],
      "stateMutability": "view",
      "type": "function"
    },
    {
      "inputs": [
        {
          "internalType": "address",
          "name": "asset",
          "type": "address"
        }
      ],
      "name": "assetPrices",
      "outputs": [
        {
          "internalType": "uint256",
          "name": "",
          "type": "uint256"
        }
      ],
      "stateMutability": "view",
      "type": "function"
    },
    {
      "inputs": [
        {
          "internalType": "address[]",
          "name": "assets_",
          "type": "address[]"
        },
        {
          "internalType": "address[]",
          "name": "feeds_",
          "type": "address[]"
        },
        {
          "internalType": "uint256[]",
          "name": "maxStalePeriods_",
          "type": "uint256[]"
        }
      ],
      "name": "batchSetFeeds",
      "outputs": [],
      "stateMutability": "nonpayable",
      "type": "function"
    },
    {
      "inputs": [
        {
          "internalType": "address",
          "name": "vToken",
          "type": "address"
        }
      ],
      "name": "getFeed",
      "outputs": [
        {
          "internalType": "contract AggregatorV2V3Interface",
          "name": "",
          "type": "address"
        }
      ],
      "stateMutability": "view",
      "type": "function"
    },
    {
      "inputs": [
        {
          "internalType": "address",
          "name": "feed",
          "type": "address"
        }
      ],
      "name": "getMaxStalePeriod",
      "outputs": [
        {
          "internalType": "uint256",
          "name": "",
          "type": "uint256"
        }
      ],
      "stateMutability": "view",
      "type": "function"
    },
    {
      "inputs": [
        {
          "internalType": "contract VBep20Interface",
          "name": "vToken",
          "type": "address"
        }
      ],
      "name": "getUnderlyingPrice",
      "outputs": [
        {
          "internalType": "uint256",
          "name": "",
          "type": "uint256"
        }
      ],
      "stateMutability": "view",
      "type": "function"
    },
    {
      "inputs": [
        {
          "internalType": "address",
          "name": "newAdmin",
          "type": "address"
        }
      ],
      "name": "setAdmin",
      "outputs": [],
      "stateMutability": "nonpayable",
      "type": "function"
    },
    {
      "inputs": [
        {
          "internalType": "address",
          "name": "asset",
          "type": "address"
        },
        {
          "internalType": "uint256",
          "name": "price",
          "type": "uint256"
        }
      ],
      "name": "setDirectPrice",
      "outputs": [],
      "stateMutability": "nonpayable",
      "type": "function"
    },
    {
      "inputs": [
        {
          "internalType": "address",
          "name": "asset",
          "type": "address"
        },
        {
          "internalType": "address",
          "name": "feed",
          "type": "address"
        },
        {
          "internalType": "uint256",
          "name": "maxStalePeriod",
          "type": "uint256"
        }
      ],
      "name": "setFeed",
      "outputs": [],
      "stateMutability": "nonpayable",
      "type": "function"
    },
    {
      "inputs": [
        {
          "internalType": "contract VBep20Interface",
          "name": "vToken",
          "type": "address"
        },
        {
          "internalType": "uint256",
          "name": "underlyingPriceMantissa",
          "type": "uint256"
        }
      ],
      "name": "setUnderlyingPrice",
      "outputs": [],
      "stateMutability": "nonpayable",
      "type": "function"
    }
  ],
  "transactionHash": "0xad5d049023d13c6ca635cb26b2b8047cc26c4deb7b23429554356cf2d836a036",
  "args": [],
  "numDeployments": 1,
  "solcInputHash": "64720f7ff05204bf7669cf85efb50224",
  "bytecode": "0x608060405234801561001057600080fd5b50600080546001600160a01b031916331790556111c4806100326000396000f3fe608060405234801561001057600080fd5b50600436106100c95760003560e01c8063704b6c0211610081578063c346b81e1161005b578063c346b81e146101be578063f851a440146101e7578063fc57d4df146101fa57600080fd5b8063704b6c021461018957806384c8a3db1461019c578063b9de61e2146101af57600080fd5b806316b8e731116100b257806316b8e731146100f657806324e98f091461013f5780635e9a523c1461015257600080fd5b806309a8acb0146100ce578063127ffda0146100e3575b600080fd5b6100e16100dc366004610ceb565b61020d565b005b6100e16100f1366004610ceb565b6102dd565b610122610104366004610d17565b6001600160a01b039081166000908152600360205260409020541690565b6040516001600160a01b0390911681526020015b60405180910390f35b6100e161014d366004610d80565b61040e565b61017b610160366004610d17565b6001600160a01b031660009081526001602052604090205490565b604051908152602001610136565b6100e1610197366004610d17565b6105c0565b6100e16101aa366004610e1a565b61067e565b61017b670de0b6b3a764000081565b61017b6101cc366004610d17565b6001600160a01b031660009081526002602052604090205490565b600054610122906001600160a01b031681565b61017b610208366004610d17565b610818565b6000546001600160a01b031633146102625760405162461bcd60e51b81526020600482015260136024820152721bdb9b1e4818591b5a5b881b585e4818d85b1b606a1b60448201526064015b60405180910390fd5b6001600160a01b038216600081815260016020908152604091829020548251938452908301528101829052606081018290527fdd71a1d19fcba687442a1d5c58578f1e409af71a79d10fd95a4d66efd8fa9ae79060800160405180910390a16001600160a01b03909116600090815260016020526040902055565b6000546001600160a01b0316331461032d5760405162461bcd60e51b81526020600482015260136024820152721bdb9b1e4818591b5a5b881b585e4818d85b1b606a1b6044820152606401610259565b6000826001600160a01b0316636f307dc36040518163ffffffff1660e01b8152600401602060405180830381865afa15801561036d573d6000803e3d6000fd5b505050506040513d601f19601f820116820180604052508101906103919190610e5b565b6001600160a01b038116600081815260016020908152604091829020548251938452908301528101849052606081018490529091507fdd71a1d19fcba687442a1d5c58578f1e409af71a79d10fd95a4d66efd8fa9ae79060800160405180910390a16001600160a01b031660009081526001602052604090205550565b6000546001600160a01b0316331461045e5760405162461bcd60e51b81526020600482015260136024820152721bdb9b1e4818591b5a5b881b585e4818d85b1b606a1b6044820152606401610259565b84831461049e5760405162461bcd60e51b815260206004820152600e60248201526d0d2dcecc2d8d2c840d8cadccee8d60931b6044820152606401610259565b8481146104de5760405162461bcd60e51b815260206004820152600e60248201526d0d2dcecc2d8d2c840d8cadccee8d60931b6044820152606401610259565b8461052b5760405162461bcd60e51b815260206004820152600b60248201527f656d7074792066656564730000000000000000000000000000000000000000006044820152606401610259565b60005b858110156105b7576105a587878381811061054b5761054b610e78565b90506020020160208101906105609190610d17565b86868481811061057257610572610e78565b90506020020160208101906105879190610d17565b85858581811061059957610599610e78565b9050602002013561067e565b806105af81610ea4565b91505061052e565b50505050505050565b6000546001600160a01b031633146106105760405162461bcd60e51b81526020600482015260136024820152721bdb9b1e4818591b5a5b881b585e4818d85b1b606a1b6044820152606401610259565b600080546001600160a01b0383811673ffffffffffffffffffffffffffffffffffffffff1983168117909355604080519190921680825260208201939093527ff9ffabca9c8276e99321725bcb43fb076a6c66a54b7f21c4e8146d8519b417dc910160405180910390a15050565b6000546001600160a01b031633146106ce5760405162461bcd60e51b81526020600482015260136024820152721bdb9b1e4818591b5a5b881b585e4818d85b1b606a1b6044820152606401610259565b6001600160a01b038216158015906106ef57506001600160a01b0382163014155b61073b5760405162461bcd60e51b815260206004820152601460248201527f696e76616c6964206665656420616464726573730000000000000000000000006044820152606401610259565b6000811161078b5760405162461bcd60e51b815260206004820152601a60248201527f7374616c6520706572696f642063616e2774206265207a65726f0000000000006044820152606401610259565b6001600160a01b038381166000818152600360209081526040808320805473ffffffffffffffffffffffffffffffffffffffff191695881695861790558483526002825291829020859055815193845283019190915281018290527f648501a31b4bb917ee22ce7f24ea5f96db31963de680b3dbfdedc495d2d622be9060600160405180910390a1505050565b600080826001600160a01b03166395d89b416040518163ffffffff1660e01b8152600401600060405180830381865afa158015610859573d6000803e3d6000fd5b505050506040513d6000823e601f3d908101601f191682016040526108819190810190610f03565b90506108a981604051806040016040528060048152602001633b21272160e11b815250610963565b156108d9576001600160a01b038084166000908152600360205260409020546108d291166109bd565b9392505050565b6108fe816040518060400160405280600381526020016256414960e81b815250610963565b156109135750670de0b6b3a764000092915050565b610938816040518060400160405280600381526020016258565360e81b815250610963565b1561095a5750506001600160a01b031660009081526001602052604090205490565b6108d283610b5a565b6000816040516020016109769190610fb0565b604051602081830303815290604052805190602001208360405160200161099d9190610fb0565b604051602081830303815290604052805190602001201490505b92915050565b600080610a30836001600160a01b031663313ce5676040518163ffffffff1660e01b8152600401602060405180830381865afa158015610a01573d6000803e3d6000fd5b505050506040513d601f19601f82011682018060405250810190610a259190610fcc565b60129060ff16610c8f565b9050600080846001600160a01b031663feaf968c6040518163ffffffff1660e01b815260040160a060405180830381865afa158015610a73573d6000803e3d6000fd5b505050506040513d601f19601f82011682018060405250810190610a97919061100e565b506001600160a01b03891660009081526002602052604081205493965090945091925050819003610ace5750600095945050505050565b80610b19836040518060400160405280601c81526020017f757064617465644174206578636565647320626c6f636b2074696d650000000081525042610c9b9092919063ffffffff16565b1115610b2b5750600095945050505050565b8315610b5057610b46610b3f85600a611142565b8490610cc7565b9695505050505050565b5090949350505050565b600080826001600160a01b0316636f307dc36040518163ffffffff1660e01b8152600401602060405180830381865afa158015610b9b573d6000803e3d6000fd5b505050506040513d601f19601f82011682018060405250810190610bbf9190610e5b565b6001600160a01b03811660009081526001602052604090205490915015610c00576001600160a01b0381166000908152600160205260409020549150610c27565b6001600160a01b03808416600090815260036020526040902054610c2491166109bd565b91505b6000610c6a826001600160a01b031663313ce5676040518163ffffffff1660e01b8152600401602060405180830381865afa158015610a01573d6000803e3d6000fd5b90508015610c8857610c80610b3f82600a611142565b949350505050565b5050919050565b60006108d2828461114e565b60008184841115610cbf5760405162461bcd60e51b81526004016102599190611165565b505050900390565b60006108d28284611198565b6001600160a01b0381168114610ce857600080fd5b50565b60008060408385031215610cfe57600080fd5b8235610d0981610cd3565b946020939093013593505050565b600060208284031215610d2957600080fd5b81356108d281610cd3565b60008083601f840112610d4657600080fd5b50813567ffffffffffffffff811115610d5e57600080fd5b6020830191508360208260051b8501011115610d7957600080fd5b9250929050565b60008060008060008060608789031215610d9957600080fd5b863567ffffffffffffffff80821115610db157600080fd5b610dbd8a838b01610d34565b90985096506020890135915080821115610dd657600080fd5b610de28a838b01610d34565b90965094506040890135915080821115610dfb57600080fd5b50610e0889828a01610d34565b979a9699509497509295939492505050565b600080600060608486031215610e2f57600080fd5b8335610e3a81610cd3565b92506020840135610e4a81610cd3565b929592945050506040919091013590565b600060208284031215610e6d57600080fd5b81516108d281610cd3565b634e487b7160e01b600052603260045260246000fd5b634e487b7160e01b600052601160045260246000fd5b600060018201610eb657610eb6610e8e565b5060010190565b634e487b7160e01b600052604160045260246000fd5b60005b83811015610eee578181015183820152602001610ed6565b83811115610efd576000848401525b50505050565b600060208284031215610f1557600080fd5b815167ffffffffffffffff80821115610f2d57600080fd5b818401915084601f830112610f4157600080fd5b815181811115610f5357610f53610ebd565b604051601f8201601f19908116603f01168101908382118183101715610f7b57610f7b610ebd565b81604052828152876020848701011115610f9457600080fd5b610fa5836020830160208801610ed3565b979650505050505050565b60008251610fc2818460208701610ed3565b9190910192915050565b600060208284031215610fde57600080fd5b815160ff811681146108d257600080fd5b805169ffffffffffffffffffff8116811461100957600080fd5b919050565b600080600080600060a0868803121561102657600080fd5b61102f86610fef565b945060208601519350604086015192506060860151915061105260808701610fef565b90509295509295909350565b600181815b8085111561109957816000190482111561107f5761107f610e8e565b8085161561108c57918102915b93841c9390800290611063565b509250929050565b6000826110b0575060016109b7565b816110bd575060006109b7565b81600181146110d357600281146110dd576110f9565b60019150506109b7565b60ff8411156110ee576110ee610e8e565b50506001821b6109b7565b5060208310610133831016604e8410600b841016171561111c575081810a6109b7565b611126838361105e565b806000190482111561113a5761113a610e8e565b029392505050565b60006108d283836110a1565b60008282101561116057611160610e8e565b500390565b6020815260008251806020840152611184816040850160208701610ed3565b601f01601f19169190910160400192915050565b60008160001904831182151516156111b2576111b2610e8e565b50029056fea164736f6c634300080d000a",
  "devdoc": {
    "kind": "dev",
    "methods": {},
    "version": 1
  },
  "userdoc": {
    "kind": "user",
    "methods": {},
    "version": 1
  },
  "storageLayout": {
    "storage": [
      {
        "astId": 1036,
        "contract": "contracts/VenusChainlinkOracle.sol:VenusChainlinkOracle",
        "label": "admin",
        "offset": 0,
        "slot": "0",
        "type": "t_address"
      },
      {
        "astId": 1040,
        "contract": "contracts/VenusChainlinkOracle.sol:VenusChainlinkOracle",
        "label": "prices",
        "offset": 0,
        "slot": "1",
        "type": "t_mapping(t_address,t_uint256)"
      },
      {
        "astId": 1044,
        "contract": "contracts/VenusChainlinkOracle.sol:VenusChainlinkOracle",
        "label": "maxStalePeriods",
        "offset": 0,
        "slot": "2",
        "type": "t_mapping(t_address,t_uint256)"
      },
      {
        "astId": 1049,
        "contract": "contracts/VenusChainlinkOracle.sol:VenusChainlinkOracle",
        "label": "feeds",
        "offset": 0,
        "slot": "3",
        "type": "t_mapping(t_address,t_contract(AggregatorV2V3Interface)1667)"
      }
    ],
    "types": {
      "t_address": {
        "encoding": "inplace",
        "label": "address",
        "numberOfBytes": "20"
      },
      "t_contract(AggregatorV2V3Interface)1667": {
        "encoding": "inplace",
        "label": "contract AggregatorV2V3Interface",
        "numberOfBytes": "20"
      },
      "t_mapping(t_address,t_contract(AggregatorV2V3Interface)1667)": {
        "encoding": "mapping",
        "key": "t_address",
        "label": "mapping(address => contract AggregatorV2V3Interface)",
        "numberOfBytes": "32",
        "value": "t_contract(AggregatorV2V3Interface)1667"
      },
      "t_mapping(t_address,t_uint256)": {
        "encoding": "mapping",
        "key": "t_address",
        "label": "mapping(address => uint256)",
        "numberOfBytes": "32",
        "value": "t_uint256"
      },
      "t_uint256": {
        "encoding": "inplace",
        "label": "uint256",
        "numberOfBytes": "32"
      }
    }
  }
}