{
  "address": "0xD481411EBC26CCc20554Ea705E228B9DC41339B0",
  "abi": [
    {
      "inputs": [],
      "stateMutability": "nonpayable",
      "type": "constructor"
    },
    {
      "inputs": [
        {
          "internalType": "address",
          "name": "sender",
          "type": "address"
        },
        {
          "internalType": "address",
          "name": "calledContract",
          "type": "address"
        },
        {
          "internalType": "string",
          "name": "methodSignature",
          "type": "string"
        }
      ],
      "name": "Unauthorized",
      "type": "error"
    },
    {
      "anonymous": false,
      "inputs": [
        {
          "indexed": true,
          "internalType": "address",
          "name": "oldFeedRegistry",
          "type": "address"
        },
        {
          "indexed": true,
          "internalType": "address",
          "name": "newFeedRegistry",
          "type": "address"
        }
      ],
      "name": "FeedRegistryUpdated",
      "type": "event"
    },
    {
      "anonymous": false,
      "inputs": [
        {
          "indexed": false,
          "internalType": "uint8",
          "name": "version",
          "type": "uint8"
        }
      ],
      "name": "Initialized",
      "type": "event"
    },
    {
      "anonymous": false,
      "inputs": [
        {
          "indexed": true,
          "internalType": "string",
          "name": "asset",
          "type": "string"
        },
        {
          "indexed": false,
          "internalType": "uint256",
          "name": "maxStalePeriod",
          "type": "uint256"
        }
      ],
      "name": "MaxStalePeriodAdded",
      "type": "event"
    },
    {
      "anonymous": false,
      "inputs": [
        {
          "indexed": false,
          "internalType": "address",
          "name": "oldAccessControlManager",
          "type": "address"
        },
        {
          "indexed": false,
          "internalType": "address",
          "name": "newAccessControlManager",
          "type": "address"
        }
      ],
      "name": "NewAccessControlManager",
      "type": "event"
    },
    {
      "anonymous": false,
      "inputs": [
        {
          "indexed": true,
          "internalType": "address",
          "name": "previousOwner",
          "type": "address"
        },
        {
          "indexed": true,
          "internalType": "address",
          "name": "newOwner",
          "type": "address"
        }
      ],
      "name": "OwnershipTransferStarted",
      "type": "event"
    },
    {
      "anonymous": false,
      "inputs": [
        {
          "indexed": true,
          "internalType": "address",
          "name": "previousOwner",
          "type": "address"
        },
        {
          "indexed": true,
          "internalType": "address",
          "name": "newOwner",
          "type": "address"
        }
      ],
      "name": "OwnershipTransferred",
      "type": "event"
    },
    {
      "anonymous": false,
      "inputs": [
        {
          "indexed": true,
          "internalType": "string",
          "name": "symbol",
          "type": "string"
        },
        {
          "indexed": false,
          "internalType": "string",
          "name": "overriddenSymbol",
          "type": "string"
        }
      ],
      "name": "SymbolOverridden",
      "type": "event"
    },
    {
      "inputs": [],
      "name": "BNB_ADDR",
      "outputs": [
        {
          "internalType": "address",
          "name": "",
          "type": "address"
        }
      ],
      "stateMutability": "view",
      "type": "function"
    },
    {
      "inputs": [],
      "name": "acceptOwnership",
      "outputs": [],
      "stateMutability": "nonpayable",
      "type": "function"
    },
    {
      "inputs": [],
      "name": "accessControlManager",
      "outputs": [
        {
          "internalType": "contract IAccessControlManagerV8",
          "name": "",
          "type": "address"
        }
      ],
      "stateMutability": "view",
      "type": "function"
    },
    {
      "inputs": [],
      "name": "feedRegistryAddress",
      "outputs": [
        {
          "internalType": "address",
          "name": "",
          "type": "address"
        }
      ],
      "stateMutability": "view",
      "type": "function"
    },
    {
      "inputs": [],
      "name": "getFeedRegistryAddress",
      "outputs": [
        {
          "internalType": "address",
          "name": "",
          "type": "address"
        }
      ],
      "stateMutability": "view",
      "type": "function"
    },
    {
      "inputs": [
        {
          "internalType": "address",
          "name": "asset",
          "type": "address"
        }
      ],
      "name": "getPrice",
      "outputs": [
        {
          "internalType": "uint256",
          "name": "",
          "type": "uint256"
        }
      ],
      "stateMutability": "view",
      "type": "function"
    },
    {
      "inputs": [
        {
          "internalType": "address",
          "name": "_sidRegistryAddress",
          "type": "address"
        },
        {
          "internalType": "address",
          "name": "_accessControlManager",
          "type": "address"
        }
      ],
      "name": "initialize",
      "outputs": [],
      "stateMutability": "nonpayable",
      "type": "function"
    },
    {
      "inputs": [
        {
          "internalType": "string",
          "name": "",
          "type": "string"
        }
      ],
      "name": "maxStalePeriod",
      "outputs": [
        {
          "internalType": "uint256",
          "name": "",
          "type": "uint256"
        }
      ],
      "stateMutability": "view",
      "type": "function"
    },
    {
      "inputs": [],
      "name": "owner",
      "outputs": [
        {
          "internalType": "address",
          "name": "",
          "type": "address"
        }
      ],
      "stateMutability": "view",
      "type": "function"
    },
    {
      "inputs": [],
      "name": "pendingOwner",
      "outputs": [
        {
          "internalType": "address",
          "name": "",
          "type": "address"
        }
      ],
      "stateMutability": "view",
      "type": "function"
    },
    {
      "inputs": [],
      "name": "renounceOwnership",
      "outputs": [],
      "stateMutability": "nonpayable",
      "type": "function"
    },
    {
      "inputs": [
        {
          "internalType": "address",
          "name": "accessControlManager_",
          "type": "address"
        }
      ],
      "name": "setAccessControlManager",
      "outputs": [],
      "stateMutability": "nonpayable",
      "type": "function"
    },
    {
      "inputs": [
        {
          "internalType": "address",
          "name": "newfeedRegistryAddress",
          "type": "address"
        }
      ],
      "name": "setFeedRegistryAddress",
      "outputs": [],
      "stateMutability": "nonpayable",
      "type": "function"
    },
    {
      "inputs": [
        {
          "internalType": "string",
          "name": "symbol",
          "type": "string"
        },
        {
          "internalType": "uint256",
          "name": "_maxStalePeriod",
          "type": "uint256"
        }
      ],
      "name": "setMaxStalePeriod",
      "outputs": [],
      "stateMutability": "nonpayable",
      "type": "function"
    },
    {
      "inputs": [
        {
          "internalType": "string",
          "name": "symbol",
          "type": "string"
        },
        {
          "internalType": "string",
          "name": "overrideSymbol",
          "type": "string"
        }
      ],
      "name": "setSymbolOverride",
      "outputs": [],
      "stateMutability": "nonpayable",
      "type": "function"
    },
    {
      "inputs": [],
      "name": "sidRegistryAddress",
      "outputs": [
        {
          "internalType": "address",
          "name": "",
          "type": "address"
        }
      ],
      "stateMutability": "view",
      "type": "function"
    },
    {
      "inputs": [
        {
          "internalType": "string",
          "name": "",
          "type": "string"
        }
      ],
      "name": "symbols",
      "outputs": [
        {
          "internalType": "string",
          "name": "",
          "type": "string"
        }
      ],
      "stateMutability": "view",
      "type": "function"
    },
    {
      "inputs": [
        {
          "internalType": "address",
          "name": "newOwner",
          "type": "address"
        }
      ],
      "name": "transferOwnership",
      "outputs": [],
      "stateMutability": "nonpayable",
      "type": "function"
    }
  ],
  "transactionHash": "0x7b2e45ea985e205086e108a49d9b94d1c0f8c4b288bdbf9acfee1679d869be0c",
  "args": [],
  "numDeployments": 1,
  "solcInputHash": "ae92d8697bb9a3cb10b0f224cb425aef",
  "bytecode": "0x608060405234801561001057600080fd5b5061001961001e565b6100dd565b600054610100900460ff161561008a5760405162461bcd60e51b815260206004820152602760248201527f496e697469616c697a61626c653a20636f6e747261637420697320696e697469604482015266616c697a696e6760c81b606482015260840160405180910390fd5b60005460ff908116146100db576000805460ff191660ff9081179091556040519081527f7f26b83ff96e1f2b6a682f133852f6798a09c465da95921460cefb38474024989060200160405180910390a15b565b6118aa806100ec6000396000f3fe608060405234801561001057600080fd5b50600436106101165760003560e01c8063715018a6116100a25780639eab1ad6116100715780639eab1ad614610231578063b4a0bdf314610244578063e30c397814610255578063f2fde38b14610266578063fdfbc2771461027957600080fd5b8063715018a61461020857806379ba5097146102105780638da5cb5b1461021857806399fe040e1461022957600080fd5b80633e83b6b8116100e95780633e83b6b81461019357806341976e09146101ae578063475e7de5146101cf578063485cc955146101e2578063636b999a146101f557600080fd5b8063011d39621461011b578063047a74b21461014b5780630e32cb861461016b578063255ce37a14610180575b600080fd5b60cc5461012e906001600160a01b031681565b6040516001600160a01b0390911681526020015b60405180910390f35b61015e610159366004611279565b6102a4565b6040516101429190611312565b61017e610179366004611341565b610349565b005b61017e61018e366004611341565b61035d565b61012e73bbbbbbbbbbbbbbbbbbbbbbbbbbbbbbbbbbbbbbbb81565b6101c16101bc366004611341565b61046f565b604051908152602001610142565b60c95461012e906001600160a01b031681565b61017e6101f036600461135e565b61065d565b61017e610203366004611397565b61078c565b61017e61089b565b61017e6108af565b6033546001600160a01b031661012e565b61012e610926565b61017e61023f366004611425565b610a34565b6097546001600160a01b031661012e565b6065546001600160a01b031661012e565b61017e610274366004611341565b610b42565b6101c1610287366004611279565b805160208183018101805160ca8252928201919093012091525481565b805160208183018101805160cb82529282019190930120915280546102c890611491565b80601f01602080910402602001604051908101604052809291908181526020018280546102f490611491565b80156103415780601f1061031657610100808354040283529160200191610341565b820191906000526020600020905b81548152906001019060200180831161032457829003601f168201915b505050505081565b610351610bb3565b61035a81610c0d565b50565b806001600160a01b0381166103b15760405162461bcd60e51b815260206004820152601560248201527463616e2774206265207a65726f206164647265737360581b60448201526064015b60405180910390fd5b6103b9610bb3565b60c9546001600160a01b0316156104125760405162461bcd60e51b815260206004820152601f60248201527f736964526567697374727941646472657373206d757374206265207a65726f0060448201526064016103a8565b60cc546040516001600160a01b038085169216907f6d1006252b3dd171af76c28c184327bfddc39f439a50e0ac7f418c660b8894b590600090a35060cc80546001600160a01b0319166001600160a01b0392909216919091179055565b600060608173bbbbbbbbbbbbbbbbbbbbbbbbbbbbbbbbbbbbbbba196001600160a01b038516016104bc57505060408051808201909152600381526221272160e91b60208201526012610592565b6000849050806001600160a01b03166395d89b416040518163ffffffff1660e01b8152600401600060405180830381865afa1580156104ff573d6000803e3d6000fd5b505050506040513d6000823e601f3d908101601f1916820160405261052791908101906114cb565b9250806001600160a01b031663313ce5676040518163ffffffff1660e01b8152600401602060405180830381865afa158015610567573d6000803e3d6000fd5b505050506040513d601f19601f8201168201806040525081019061058b9190611539565b60ff169150505b600060cb836040516105a4919061155c565b908152602001604051809103902080546105bd90611491565b80601f01602080910402602001604051908101604052809291908181526020018280546105e990611491565b80156106365780601f1061060b57610100808354040283529160200191610636565b820191906000526020600020905b81548152906001019060200180831161061957829003601f168201915b50505050509050805160001461064a578092505b6106548383610cd2565b95945050505050565b600054610100900460ff161580801561067d5750600054600160ff909116105b806106975750303b158015610697575060005460ff166001145b6106fa5760405162461bcd60e51b815260206004820152602e60248201527f496e697469616c697a61626c653a20636f6e747261637420697320616c72656160448201526d191e481a5b9a5d1a585b1a5e995960921b60648201526084016103a8565b6000805460ff19166001179055801561071d576000805461ff0019166101001790555b60c980546001600160a01b0319166001600160a01b03851617905561074182610f54565b8015610787576000805461ff0019169055604051600181527f7f26b83ff96e1f2b6a682f133852f6798a09c465da95921460cefb38474024989060200160405180910390a15b505050565b610794610bb3565b806000036107e45760405162461bcd60e51b815260206004820152601a60248201527f7374616c6520706572696f642063616e2774206265207a65726f00000000000060448201526064016103a8565b815160000361082e5760405162461bcd60e51b815260206004820152601660248201527573796d626f6c2063616e6e6f7420626520656d70747960501b60448201526064016103a8565b8060ca8360405161083f919061155c565b9081526040519081900360200181209190915561085d90839061155c565b604051908190038120828252907f37839d4a80c5e3f2578f59515c911ee8cce42383d7ebaa1c92afcde9871c4b589060200160405180910390a25050565b6108a3610bb3565b6108ad6000610f8c565b565b60655433906001600160a01b0316811461091d5760405162461bcd60e51b815260206004820152602960248201527f4f776e61626c6532537465703a2063616c6c6572206973206e6f7420746865206044820152683732bb9037bbb732b960b91b60648201526084016103a8565b61035a81610f8c565b60c954604051630178b8bf60e01b81527f94fe3821e0768eb35012484db4df61890f9a6ca5bfa984ef8ff717e73139faff6004820181905260009290916001600160a01b039091169083908290630178b8bf90602401602060405180830381865afa158015610999573d6000803e3d6000fd5b505050506040513d601f19601f820116820180604052508101906109bd9190611578565b604051631d9dabef60e11b81526004810185905290915081906001600160a01b03821690633b3b57de90602401602060405180830381865afa158015610a07573d6000803e3d6000fd5b505050506040513d601f19601f82011682018060405250810190610a2b9190611578565b94505050505090565b610a726040518060400160405280602081526020017f73657453796d626f6c4f7665727269646528737472696e672c737472696e6729815250610fa5565b6000839003610abc5760405162461bcd60e51b815260206004820152601660248201527573796d626f6c2063616e6e6f7420626520656d70747960501b60448201526064016103a8565b818160cb8686604051610ad0929190611595565b908152604051908190036020019020610aea92909161111b565b508383604051610afb929190611595565b60405180910390207fceb1f47aa91b96f02ea70e1deed25fe154ad1885aea509bd7222f9eec0a0bda58383604051610b349291906115a5565b60405180910390a250505050565b610b4a610bb3565b606580546001600160a01b0383166001600160a01b03199091168117909155610b7b6033546001600160a01b031690565b6001600160a01b03167f38d16b8cac22d99fc7c124b9cd0de2d3fa1faef420bfe791d8c362d765e2270060405160405180910390a350565b6033546001600160a01b031633146108ad5760405162461bcd60e51b815260206004820181905260248201527f4f776e61626c653a2063616c6c6572206973206e6f7420746865206f776e657260448201526064016103a8565b6001600160a01b038116610c715760405162461bcd60e51b815260206004820152602560248201527f696e76616c696420616365737320636f6e74726f6c206d616e61676572206164604482015264647265737360d81b60648201526084016103a8565b609780546001600160a01b038381166001600160a01b031983168117909355604080519190921680825260208201939093527f66fd58e82f7b31a2a5c30e0888f3093efe4e111b00cd2b0c31fe014601293aa0910160405180910390a15050565b60c95460009081906001600160a01b031615610cf757610cf0610926565b9050610d05565b5060cc546001600160a01b03165b600080826001600160a01b031663bfda5e71876040518263ffffffff1660e01b8152600401610d3491906115d4565b60a060405180830381865afa158015610d51573d6000803e3d6000fd5b505050506040513d601f19601f82011682018060405250810190610d75919061162b565b5093505092505060008213610dcc5760405162461bcd60e51b815260206004820152601c60248201527f696e76616c69642062696e616e6365206f7261636c652070726963650000000060448201526064016103a8565b80421015610e1c5760405162461bcd60e51b815260206004820152601c60248201527f757064617465644174206578636565647320626c6f636b2074696d650000000060448201526064016103a8565b6000814203905060ca87604051610e33919061155c565b908152602001604051809103902054811115610e915760405162461bcd60e51b815260206004820152601c60248201527f62696e616e6365206f7261636c6520707269636520657870697265640000000060448201526064016103a8565b604051633748ccad60e11b81526000906001600160a01b03861690636e91995a90610ec0908b906004016115d4565b602060405180830381865afa158015610edd573d6000803e3d6000fd5b505050506040513d601f19601f82011682018060405250810190610f019190611539565b60ff169050610f11876012611691565b610f1c90600a61178c565b610f27826012611691565b610f3290600a61178c565b610f3c9086611798565b610f469190611798565b955050505050505b92915050565b600054610100900460ff16610f7b5760405162461bcd60e51b81526004016103a8906117b7565b610f83611043565b61035a81611072565b606580546001600160a01b031916905561035a81611099565b6097546040516318c5e8ab60e01b81526000916001600160a01b0316906318c5e8ab90610fd89033908690600401611802565b602060405180830381865afa158015610ff5573d6000803e3d6000fd5b505050506040513d601f19601f820116820180604052508101906110199190611826565b90508061103f57333083604051634a3fa29360e01b81526004016103a893929190611848565b5050565b600054610100900460ff1661106a5760405162461bcd60e51b81526004016103a8906117b7565b6108ad6110eb565b600054610100900460ff166103515760405162461bcd60e51b81526004016103a8906117b7565b603380546001600160a01b038381166001600160a01b0319831681179093556040519116919082907f8be0079c531659141344cd1fd0a4f28419497f9722a3daafe3b4186f6b6457e090600090a35050565b600054610100900460ff166111125760405162461bcd60e51b81526004016103a8906117b7565b6108ad33610f8c565b82805461112790611491565b90600052602060002090601f016020900481019282611149576000855561118f565b82601f106111625782800160ff1982351617855561118f565b8280016001018555821561118f579182015b8281111561118f578235825591602001919060010190611174565b5061119b92915061119f565b5090565b5b8082111561119b57600081556001016111a0565b634e487b7160e01b600052604160045260246000fd5b604051601f8201601f1916810167ffffffffffffffff811182821017156111f3576111f36111b4565b604052919050565b600067ffffffffffffffff821115611215576112156111b4565b50601f01601f191660200190565b600082601f83011261123457600080fd5b8135611247611242826111fb565b6111ca565b81815284602083860101111561125c57600080fd5b816020850160208301376000918101602001919091529392505050565b60006020828403121561128b57600080fd5b813567ffffffffffffffff8111156112a257600080fd5b6112ae84828501611223565b949350505050565b60005b838110156112d15781810151838201526020016112b9565b838111156112e0576000848401525b50505050565b600081518084526112fe8160208601602086016112b6565b601f01601f19169290920160200192915050565b60208152600061132560208301846112e6565b9392505050565b6001600160a01b038116811461035a57600080fd5b60006020828403121561135357600080fd5b81356113258161132c565b6000806040838503121561137157600080fd5b823561137c8161132c565b9150602083013561138c8161132c565b809150509250929050565b600080604083850312156113aa57600080fd5b823567ffffffffffffffff8111156113c157600080fd5b6113cd85828601611223565b95602094909401359450505050565b60008083601f8401126113ee57600080fd5b50813567ffffffffffffffff81111561140657600080fd5b60208301915083602082850101111561141e57600080fd5b9250929050565b6000806000806040858703121561143b57600080fd5b843567ffffffffffffffff8082111561145357600080fd5b61145f888389016113dc565b9096509450602087013591508082111561147857600080fd5b50611485878288016113dc565b95989497509550505050565b600181811c908216806114a557607f821691505b6020821081036114c557634e487b7160e01b600052602260045260246000fd5b50919050565b6000602082840312156114dd57600080fd5b815167ffffffffffffffff8111156114f457600080fd5b8201601f8101841361150557600080fd5b8051611513611242826111fb565b81815285602083850101111561152857600080fd5b6106548260208301602086016112b6565b60006020828403121561154b57600080fd5b815160ff8116811461132557600080fd5b6000825161156e8184602087016112b6565b9190910192915050565b60006020828403121561158a57600080fd5b81516113258161132c565b8183823760009101908152919050565b60208152816020820152818360408301376000818301604090810191909152601f909201601f19160101919050565b6040815260006115e760408301846112e6565b828103602084015260038152621554d160ea1b60208201526040810191505092915050565b805169ffffffffffffffffffff8116811461162657600080fd5b919050565b600080600080600060a0868803121561164357600080fd5b61164c8661160c565b945060208601519350604086015192506060860151915061166f6080870161160c565b90509295509295909350565b634e487b7160e01b600052601160045260246000fd5b6000828210156116a3576116a361167b565b500390565b600181815b808511156116e35781600019048211156116c9576116c961167b565b808516156116d657918102915b93841c93908002906116ad565b509250929050565b6000826116fa57506001610f4e565b8161170757506000610f4e565b816001811461171d576002811461172757611743565b6001915050610f4e565b60ff8411156117385761173861167b565b50506001821b610f4e565b5060208310610133831016604e8410600b8410161715611766575081810a610f4e565b61177083836116a8565b80600019048211156117845761178461167b565b029392505050565b600061132583836116eb565b60008160001904831182151516156117b2576117b261167b565b500290565b6020808252602b908201527f496e697469616c697a61626c653a20636f6e7472616374206973206e6f74206960408201526a6e697469616c697a696e6760a81b606082015260800190565b6001600160a01b03831681526040602082018190526000906112ae908301846112e6565b60006020828403121561183857600080fd5b8151801515811461132557600080fd5b6001600160a01b03848116825283166020820152606060408201819052600090610654908301846112e656fea26469706673582212206fbad91b704a4e9588f6dc2373e7eafe1d939c4b16534faa8e93c19d63c429a464736f6c634300080d0033",
  "devdoc": {
    "author": "Venus",
    "kind": "dev",
    "methods": {
      "acceptOwnership()": {
        "details": "The new owner accepts the ownership transfer."
      },
      "constructor": {
        "custom:oz-upgrades-unsafe-allow": "constructor"
      },
      "getFeedRegistryAddress()": {
        "returns": {
          "_0": "feedRegistryAddress Address of binance oracle feed registry."
        }
      },
      "getPrice(address)": {
        "params": {
          "asset": "Address of the asset"
        },
        "returns": {
          "_0": "Price in USD"
        }
      },
      "initialize(address,address)": {
        "params": {
          "_accessControlManager": "Address of the access control manager contract",
          "_sidRegistryAddress": "Address of SID registry"
        }
      },
      "owner()": {
        "details": "Returns the address of the current owner."
      },
      "pendingOwner()": {
        "details": "Returns the address of the pending owner."
      },
      "renounceOwnership()": {
        "details": "Leaves the contract without owner. It will not be possible to call `onlyOwner` functions. Can only be called by the current owner. NOTE: Renouncing ownership will leave the contract without an owner, thereby disabling any functionality that is only available to the owner."
      },
      "setAccessControlManager(address)": {
        "custom:access": "Only Governance",
        "custom:event": "Emits NewAccessControlManager event",
        "details": "Admin function to set address of AccessControlManager",
        "params": {
          "accessControlManager_": "The new address of the AccessControlManager"
        }
      },
      "setFeedRegistryAddress(address)": {
        "params": {
          "newfeedRegistryAddress": "Address of new feed registry."
        }
      },
      "setMaxStalePeriod(string,uint256)": {
        "params": {
          "_maxStalePeriod": "The max stake period",
          "symbol": "The symbol of the asset"
        }
      },
      "setSymbolOverride(string,string)": {
        "params": {
          "overrideSymbol": "The symbol after override",
          "symbol": "The symbol to override"
        }
      },
      "transferOwnership(address)": {
        "details": "Starts the ownership transfer of the contract to a new account. Replaces the pending transfer if there is one. Can only be called by the current owner."
      }
    },
    "title": "BinanceOracle",
    "version": 1
  },
  "userdoc": {
    "errors": {
      "Unauthorized(address,address,string)": [
        {
          "notice": "Thrown when the action is prohibited by AccessControlManager"
        }
      ]
    },
    "events": {
      "FeedRegistryUpdated(address,address)": {
        "notice": "Emits when address of feed registry is updated."
      },
      "MaxStalePeriodAdded(string,uint256)": {
        "notice": "Emits when asset stale period is updated."
      },
      "NewAccessControlManager(address,address)": {
        "notice": "Emitted when access control manager contract address is changed"
      },
      "SymbolOverridden(string,string)": {
        "notice": "Emits when symbol of the asset is updated."
      }
    },
    "kind": "user",
    "methods": {
      "BNB_ADDR()": {
        "notice": "Set this as asset address for BNB. This is the underlying address for vBNB"
      },
      "accessControlManager()": {
        "notice": "Returns the address of the access control manager contract"
      },
      "constructor": {
        "notice": "Constructor for the implementation contract."
      },
      "feedRegistryAddress()": {
        "notice": "Used to fetch price of assets used directly when space ID is not supported by current chain."
      },
      "getFeedRegistryAddress()": {
        "notice": "Uses Space ID to fetch the feed registry address"
      },
      "getPrice(address)": {
        "notice": "Gets the price of a asset from the binance oracle"
      },
      "initialize(address,address)": {
        "notice": "Sets the contracts required to fetch prices"
      },
      "maxStalePeriod(string)": {
        "notice": "Max stale period configuration for assets"
      },
      "setAccessControlManager(address)": {
        "notice": "Sets the address of AccessControlManager"
      },
      "setFeedRegistryAddress(address)": {
        "notice": "Used to set feed registry address when current chain does not support space ID."
      },
      "setMaxStalePeriod(string,uint256)": {
        "notice": "Used to set the max stale period of an asset"
      },
      "setSymbolOverride(string,string)": {
        "notice": "Used to override a symbol when fetching price"
      },
      "sidRegistryAddress()": {
        "notice": "Used to fetch feed registry address."
      },
      "symbols(string)": {
        "notice": "Override symbols to be compatible with Binance feed registry"
      }
    },
    "notice": "This oracle fetches price of assets from Binance.",
    "version": 1
  },
  "storageLayout": {
    "storage": [
      {
        "astId": 244,
        "contract": "contracts/oracles/BinanceOracle.sol:BinanceOracle",
        "label": "_initialized",
        "offset": 0,
        "slot": "0",
        "type": "t_uint8"
      },
      {
        "astId": 247,
        "contract": "contracts/oracles/BinanceOracle.sol:BinanceOracle",
        "label": "_initializing",
        "offset": 1,
        "slot": "0",
        "type": "t_bool"
      },
      {
        "astId": 777,
        "contract": "contracts/oracles/BinanceOracle.sol:BinanceOracle",
        "label": "__gap",
        "offset": 0,
        "slot": "1",
        "type": "t_array(t_uint256)50_storage"
      },
      {
        "astId": 116,
        "contract": "contracts/oracles/BinanceOracle.sol:BinanceOracle",
        "label": "_owner",
        "offset": 0,
        "slot": "51",
        "type": "t_address"
      },
      {
        "astId": 236,
        "contract": "contracts/oracles/BinanceOracle.sol:BinanceOracle",
        "label": "__gap",
        "offset": 0,
        "slot": "52",
        "type": "t_array(t_uint256)49_storage"
      },
      {
        "astId": 25,
        "contract": "contracts/oracles/BinanceOracle.sol:BinanceOracle",
        "label": "_pendingOwner",
        "offset": 0,
        "slot": "101",
        "type": "t_address"
      },
      {
        "astId": 104,
        "contract": "contracts/oracles/BinanceOracle.sol:BinanceOracle",
        "label": "__gap",
        "offset": 0,
        "slot": "102",
        "type": "t_array(t_uint256)49_storage"
      },
      {
        "astId": 968,
        "contract": "contracts/oracles/BinanceOracle.sol:BinanceOracle",
        "label": "_accessControlManager",
        "offset": 0,
        "slot": "151",
        "type": "t_contract(IAccessControlManagerV8)1153"
      },
      {
        "astId": 973,
        "contract": "contracts/oracles/BinanceOracle.sol:BinanceOracle",
        "label": "__gap",
        "offset": 0,
        "slot": "152",
        "type": "t_array(t_uint256)49_storage"
      },
      {
        "astId": 1284,
        "contract": "contracts/oracles/BinanceOracle.sol:BinanceOracle",
        "label": "sidRegistryAddress",
        "offset": 0,
        "slot": "201",
        "type": "t_address"
      },
      {
        "astId": 1293,
        "contract": "contracts/oracles/BinanceOracle.sol:BinanceOracle",
        "label": "maxStalePeriod",
        "offset": 0,
        "slot": "202",
        "type": "t_mapping(t_string_memory_ptr,t_uint256)"
      },
      {
        "astId": 1298,
        "contract": "contracts/oracles/BinanceOracle.sol:BinanceOracle",
        "label": "symbols",
        "offset": 0,
        "slot": "203",
        "type": "t_mapping(t_string_memory_ptr,t_string_storage)"
      },
      {
        "astId": 1301,
        "contract": "contracts/oracles/BinanceOracle.sol:BinanceOracle",
        "label": "feedRegistryAddress",
        "offset": 0,
        "slot": "204",
        "type": "t_address"
      }
    ],
    "types": {
      "t_address": {
        "encoding": "inplace",
        "label": "address",
        "numberOfBytes": "20"
      },
      "t_array(t_uint256)49_storage": {
        "base": "t_uint256",
        "encoding": "inplace",
        "label": "uint256[49]",
        "numberOfBytes": "1568"
      },
      "t_array(t_uint256)50_storage": {
        "base": "t_uint256",
        "encoding": "inplace",
        "label": "uint256[50]",
        "numberOfBytes": "1600"
      },
      "t_bool": {
        "encoding": "inplace",
        "label": "bool",
        "numberOfBytes": "1"
      },
      "t_contract(IAccessControlManagerV8)1153": {
        "encoding": "inplace",
        "label": "contract IAccessControlManagerV8",
        "numberOfBytes": "20"
      },
      "t_mapping(t_string_memory_ptr,t_string_storage)": {
        "encoding": "mapping",
        "key": "t_string_memory_ptr",
        "label": "mapping(string => string)",
        "numberOfBytes": "32",
        "value": "t_string_storage"
      },
      "t_mapping(t_string_memory_ptr,t_uint256)": {
        "encoding": "mapping",
        "key": "t_string_memory_ptr",
        "label": "mapping(string => uint256)",
        "numberOfBytes": "32",
        "value": "t_uint256"
      },
      "t_string_memory_ptr": {
        "encoding": "bytes",
        "label": "string",
        "numberOfBytes": "32"
      },
      "t_string_storage": {
        "encoding": "bytes",
        "label": "string",
        "numberOfBytes": "32"
      },
      "t_uint256": {
        "encoding": "inplace",
        "label": "uint256",
        "numberOfBytes": "32"
      },
      "t_uint8": {
        "encoding": "inplace",
        "label": "uint8",
        "numberOfBytes": "1"
      }
    }
  }
}