{
  "address": "0xF7f32E2A5f72Ef8f1C3992eFE7bf1AcEd4eFc848",
  "abi": [
    {
      "inputs": [
        {
          "internalType": "address",
          "name": "vBnbAddress",
          "type": "address"
        },
        {
          "internalType": "address",
          "name": "vaiAddress",
          "type": "address"
        }
      ],
      "stateMutability": "nonpayable",
      "type": "constructor"
    },
    {
      "inputs": [
        {
          "internalType": "address",
          "name": "sender",
          "type": "address"
        },
        {
          "internalType": "address",
          "name": "calledContract",
          "type": "address"
        },
        {
          "internalType": "string",
          "name": "methodSignature",
          "type": "string"
        }
      ],
      "name": "Unauthorized",
      "type": "error"
    },
    {
      "anonymous": false,
      "inputs": [
        {
          "indexed": false,
          "internalType": "uint8",
          "name": "version",
          "type": "uint8"
        }
      ],
      "name": "Initialized",
      "type": "event"
    },
    {
      "anonymous": false,
      "inputs": [
        {
          "indexed": false,
          "internalType": "address",
          "name": "oldAccessControlManager",
          "type": "address"
        },
        {
          "indexed": false,
          "internalType": "address",
          "name": "newAccessControlManager",
          "type": "address"
        }
      ],
      "name": "NewAccessControlManager",
      "type": "event"
    },
    {
      "anonymous": false,
      "inputs": [
        {
          "indexed": true,
          "internalType": "address",
          "name": "previousOwner",
          "type": "address"
        },
        {
          "indexed": true,
          "internalType": "address",
          "name": "newOwner",
          "type": "address"
        }
      ],
      "name": "OwnershipTransferStarted",
      "type": "event"
    },
    {
      "anonymous": false,
      "inputs": [
        {
          "indexed": true,
          "internalType": "address",
          "name": "previousOwner",
          "type": "address"
        },
        {
          "indexed": true,
          "internalType": "address",
          "name": "newOwner",
          "type": "address"
        }
      ],
      "name": "OwnershipTransferred",
      "type": "event"
    },
    {
      "anonymous": false,
      "inputs": [
        {
          "indexed": true,
          "internalType": "address",
          "name": "asset",
          "type": "address"
        },
        {
          "indexed": true,
          "internalType": "uint256",
          "name": "upperBound",
          "type": "uint256"
        },
        {
          "indexed": true,
          "internalType": "uint256",
          "name": "lowerBound",
          "type": "uint256"
        }
      ],
      "name": "ValidateConfigAdded",
      "type": "event"
    },
    {
      "inputs": [],
      "name": "BNB_ADDR",
      "outputs": [
        {
          "internalType": "address",
          "name": "",
          "type": "address"
        }
      ],
      "stateMutability": "view",
      "type": "function"
    },
    {
      "inputs": [],
      "name": "acceptOwnership",
      "outputs": [],
      "stateMutability": "nonpayable",
      "type": "function"
    },
    {
      "inputs": [],
      "name": "accessControlManager",
      "outputs": [
        {
          "internalType": "contract IAccessControlManager",
          "name": "",
          "type": "address"
        }
      ],
      "stateMutability": "view",
      "type": "function"
    },
    {
      "inputs": [
        {
          "internalType": "address",
          "name": "accessControlManager_",
          "type": "address"
        }
      ],
      "name": "initialize",
      "outputs": [],
      "stateMutability": "nonpayable",
      "type": "function"
    },
    {
      "inputs": [],
      "name": "owner",
      "outputs": [
        {
          "internalType": "address",
          "name": "",
          "type": "address"
        }
      ],
      "stateMutability": "view",
      "type": "function"
    },
    {
      "inputs": [],
      "name": "pendingOwner",
      "outputs": [
        {
          "internalType": "address",
          "name": "",
          "type": "address"
        }
      ],
      "stateMutability": "view",
      "type": "function"
    },
    {
      "inputs": [],
      "name": "renounceOwnership",
      "outputs": [],
      "stateMutability": "nonpayable",
      "type": "function"
    },
    {
      "inputs": [
        {
          "internalType": "address",
          "name": "accessControlManager_",
          "type": "address"
        }
      ],
      "name": "setAccessControlManager",
      "outputs": [],
      "stateMutability": "nonpayable",
      "type": "function"
    },
    {
      "inputs": [
        {
          "components": [
            {
              "internalType": "address",
              "name": "asset",
              "type": "address"
            },
            {
              "internalType": "uint256",
              "name": "upperBoundRatio",
              "type": "uint256"
            },
            {
              "internalType": "uint256",
              "name": "lowerBoundRatio",
              "type": "uint256"
            }
          ],
          "internalType": "struct ValidateConfig",
          "name": "config",
          "type": "tuple"
        }
      ],
      "name": "setValidateConfig",
      "outputs": [],
      "stateMutability": "nonpayable",
      "type": "function"
    },
    {
      "inputs": [
        {
          "components": [
            {
              "internalType": "address",
              "name": "asset",
              "type": "address"
            },
            {
              "internalType": "uint256",
              "name": "upperBoundRatio",
              "type": "uint256"
            },
            {
              "internalType": "uint256",
              "name": "lowerBoundRatio",
              "type": "uint256"
            }
          ],
          "internalType": "struct ValidateConfig[]",
          "name": "configs",
          "type": "tuple[]"
        }
      ],
      "name": "setValidateConfigs",
      "outputs": [],
      "stateMutability": "nonpayable",
      "type": "function"
    },
    {
      "inputs": [
        {
          "internalType": "address",
          "name": "newOwner",
          "type": "address"
        }
      ],
      "name": "transferOwnership",
      "outputs": [],
      "stateMutability": "nonpayable",
      "type": "function"
    },
    {
      "inputs": [],
      "name": "vBnb",
      "outputs": [
        {
          "internalType": "address",
          "name": "",
          "type": "address"
        }
      ],
      "stateMutability": "view",
      "type": "function"
    },
    {
      "inputs": [],
      "name": "vai",
      "outputs": [
        {
          "internalType": "address",
          "name": "",
          "type": "address"
        }
      ],
      "stateMutability": "view",
      "type": "function"
    },
    {
      "inputs": [
        {
          "internalType": "address",
          "name": "",
          "type": "address"
        }
      ],
      "name": "validateConfigs",
      "outputs": [
        {
          "internalType": "address",
          "name": "asset",
          "type": "address"
        },
        {
          "internalType": "uint256",
          "name": "upperBoundRatio",
          "type": "uint256"
        },
        {
          "internalType": "uint256",
          "name": "lowerBoundRatio",
          "type": "uint256"
        }
      ],
      "stateMutability": "view",
      "type": "function"
    },
    {
      "inputs": [
        {
          "internalType": "address",
          "name": "vToken",
          "type": "address"
        },
        {
          "internalType": "uint256",
          "name": "reportedPrice",
          "type": "uint256"
        },
        {
          "internalType": "uint256",
          "name": "anchorPrice",
          "type": "uint256"
        }
      ],
      "name": "validatePriceWithAnchorPrice",
      "outputs": [
        {
          "internalType": "bool",
          "name": "",
          "type": "bool"
        }
      ],
      "stateMutability": "view",
      "type": "function"
    }
  ],
  "transactionHash": "0xb47de655027fd00b7798dc3271d04e0e372ccbfe938ce185d52b759f4f10f51b",
  "args": [
    "0xA07c5b74C9B40447a954e1466938b865b6BBea36",
    "0x4BD17003473389A42DAF6a0a729f6Fdb328BbBd7"
  ],
  "numDeployments": 1,
  "solcInputHash": "8658c669dade0e9ab80874eab3bf3468",
  "bytecode": "0x60c06040523480156200001157600080fd5b50604051620012c7380380620012c78339810160408190526200003491620001e9565b6001600160a01b038216620000905760405162461bcd60e51b815260206004820152601a60248201527f76424e422063616e2774206265207a65726f206164647265737300000000000060448201526064015b60405180910390fd5b6001600160a01b038116620000e85760405162461bcd60e51b815260206004820152601960248201527f5641492063616e2774206265207a65726f206164647265737300000000000000604482015260640162000087565b6001600160a01b03808316608052811660a052620001056200010d565b505062000221565b600054610100900460ff1615620001775760405162461bcd60e51b815260206004820152602760248201527f496e697469616c697a61626c653a20636f6e747261637420697320696e697469604482015266616c697a696e6760c81b606482015260840162000087565b60005460ff9081161015620001ca576000805460ff191660ff9081179091556040519081527f7f26b83ff96e1f2b6a682f133852f6798a09c465da95921460cefb38474024989060200160405180910390a15b565b80516001600160a01b0381168114620001e457600080fd5b919050565b60008060408385031215620001fd57600080fd5b6200020883620001cc565b91506200021860208401620001cc565b90509250929050565b60805160a05161106b6200025c600039600081816101ee015281816109a901526109e301526000818161014c0152610955015261106b6000f3fe608060405234801561001057600080fd5b50600436106100f55760003560e01c80639c35761511610097578063bca9e11611610066578063bca9e11614610210578063c4d66de81461026e578063e30c397814610281578063f2fde38b1461029257600080fd5b80639c357615146101b2578063af9e6c5b146101c5578063b4a0bdf3146101d8578063b62e4c92146101e957600080fd5b8063715018a6116100d3578063715018a61461016e57806379ba5097146101765780638da5cb5b1461017e57806397c7033e1461018f57600080fd5b80630e32cb86146100fa5780633e83b6b81461010f5780635ba3792d14610147575b600080fd5b61010d610108366004610c68565b6102a5565b005b61012a73bbbbbbbbbbbbbbbbbbbbbbbbbbbbbbbbbbbbbbbb81565b6040516001600160a01b0390911681526020015b60405180910390f35b61012a7f000000000000000000000000000000000000000000000000000000000000000081565b61010d6102b9565b61010d6102cd565b6033546001600160a01b031661012a565b6101a261019d366004610c85565b610349565b604051901515815260200161013e565b61010d6101c0366004610d66565b610427565b61010d6101d3366004610e16565b6104dd565b6097546001600160a01b031661012a565b61012a7f000000000000000000000000000000000000000000000000000000000000000081565b61024961021e366004610c68565b60c9602052600090815260409020805460018201546002909201546001600160a01b03909116919083565b604080516001600160a01b03909416845260208401929092529082015260600161013e565b61010d61027c366004610c68565b610693565b6065546001600160a01b031661012a565b61010d6102a0366004610c68565b6107af565b6102ad610820565b6102b68161087a565b50565b6102c1610820565b6102cb6000610938565b565b60655433906001600160a01b031681146103405760405162461bcd60e51b815260206004820152602960248201527f4f776e61626c6532537465703a2063616c6c6572206973206e6f7420746865206044820152683732bb9037bbb732b960b91b60648201526084015b60405180910390fd5b6102b681610938565b60008061035585610951565b6001600160a01b038116600090815260c96020526040812060010154919250036103c15760405162461bcd60e51b815260206004820152601b60248201527f76616c69646174696f6e20636f6e666967206e6f7420657869737400000000006044820152606401610337565b826000036104115760405162461bcd60e51b815260206004820152601960248201527f616e63686f72207072696365206973206e6f742076616c6964000000000000006044820152606401610337565b61041c818585610a6f565b9150505b9392505050565b61044860405180606001604052806024815260200161101260249139610ae1565b8051600081900361049b5760405162461bcd60e51b815260206004820152601e60248201527f696e76616c69642076616c696461746520636f6e666967206c656e67746800006044820152606401610337565b60005b818110156104d8576104c88382815181106104bb576104bb610e32565b60200260200101516104dd565b6104d181610e5e565b905061049e565b505050565b6104fe604051806060016040528060218152602001610ff160219139610ae1565b80516001600160a01b03166105555760405162461bcd60e51b815260206004820152601b60248201527f61737365742063616e2774206265207a65726f206164647265737300000000006044820152606401610337565b6020810151158061056857506040810151155b156105ae5760405162461bcd60e51b8152602060048201526016602482015275626f756e64206d75737420626520706f73697469766560501b6044820152606401610337565b806040015181602001511161061a5760405162461bcd60e51b815260206004820152602c60248201527f757070657220626f756e64206d75737420626520686967686572207468616e2060448201526b1b1bdddb995c88189bdd5b9960a21b6064820152608401610337565b80516001600160a01b03908116600090815260c960209081526040808320855181546001600160a01b03191695169485178155918501516001830181905581860151600290930183905590519193909290917f28e2d96bdcf74fe6203e40d159d27ec2e15230239c0aee4a0a914196c550e6d19190a450565b600054610100900460ff16158080156106b35750600054600160ff909116105b806106cd5750303b1580156106cd575060005460ff166001145b6107305760405162461bcd60e51b815260206004820152602e60248201527f496e697469616c697a61626c653a20636f6e747261637420697320616c72656160448201526d191e481a5b9a5d1a585b1a5e995960921b6064820152608401610337565b6000805460ff191660011790558015610753576000805461ff0019166101001790555b61075b610b7b565b61076482610baa565b80156107ab576000805461ff0019169055604051600181527f7f26b83ff96e1f2b6a682f133852f6798a09c465da95921460cefb3847402498906020015b60405180910390a15b5050565b6107b7610820565b606580546001600160a01b0383166001600160a01b031990911681179091556107e86033546001600160a01b031690565b6001600160a01b03167f38d16b8cac22d99fc7c124b9cd0de2d3fa1faef420bfe791d8c362d765e2270060405160405180910390a350565b6033546001600160a01b031633146102cb5760405162461bcd60e51b815260206004820181905260248201527f4f776e61626c653a2063616c6c6572206973206e6f7420746865206f776e65726044820152606401610337565b6001600160a01b0381166108de5760405162461bcd60e51b815260206004820152602560248201527f696e76616c696420616365737320636f6e74726f6c206d616e61676572206164604482015264647265737360d81b6064820152608401610337565b609780546001600160a01b038381166001600160a01b031983168117909355604080519190921680825260208201939093527f66fd58e82f7b31a2a5c30e0888f3093efe4e111b00cd2b0c31fe014601293aa091016107a2565b606580546001600160a01b03191690556102b681610bd1565b60007f00000000000000000000000000000000000000000000000000000000000000006001600160a01b0316826001600160a01b0316036109a7575073bbbbbbbbbbbbbbbbbbbbbbbbbbbbbbbbbbbbbbbb919050565b7f00000000000000000000000000000000000000000000000000000000000000006001600160a01b0316826001600160a01b031603610a0757507f0000000000000000000000000000000000000000000000000000000000000000919050565b816001600160a01b0316636f307dc36040518163ffffffff1660e01b8152600401602060405180830381865afa158015610a45573d6000803e3d6000fd5b505050506040513d601f19601f82011682018060405250810190610a699190610e77565b92915050565b60008215610ad757600083610a8c84670de0b6b3a7640000610e94565b610a969190610eb3565b6001600160a01b038616600090815260c960205260409020600181015460029091015491925090818311801590610acd5750808310155b9350505050610420565b5060009392505050565b6097546040516318c5e8ab60e01b81526000916001600160a01b0316906318c5e8ab90610b149033908690600401610f22565b602060405180830381865afa158015610b31573d6000803e3d6000fd5b505050506040513d601f19601f82011682018060405250810190610b559190610f4e565b9050806107ab57333083604051634a3fa29360e01b815260040161033793929190610f70565b600054610100900460ff16610ba25760405162461bcd60e51b815260040161033790610fa5565b6102cb610c23565b600054610100900460ff166102ad5760405162461bcd60e51b815260040161033790610fa5565b603380546001600160a01b038381166001600160a01b0319831681179093556040519116919082907f8be0079c531659141344cd1fd0a4f28419497f9722a3daafe3b4186f6b6457e090600090a35050565b600054610100900460ff16610c4a5760405162461bcd60e51b815260040161033790610fa5565b6102cb33610938565b6001600160a01b03811681146102b657600080fd5b600060208284031215610c7a57600080fd5b813561042081610c53565b600080600060608486031215610c9a57600080fd5b8335610ca581610c53565b95602085013595506040909401359392505050565b634e487b7160e01b600052604160045260246000fd5b604051601f8201601f1916810167ffffffffffffffff81118282101715610cf957610cf9610cba565b604052919050565b600060608284031215610d1357600080fd5b6040516060810181811067ffffffffffffffff82111715610d3657610d36610cba565b6040529050808235610d4781610c53565b8082525060208301356020820152604083013560408201525092915050565b60006020808385031215610d7957600080fd5b823567ffffffffffffffff80821115610d9157600080fd5b818501915085601f830112610da557600080fd5b813581811115610db757610db7610cba565b610dc5848260051b01610cd0565b81815284810192506060918202840185019188831115610de457600080fd5b938501935b82851015610e0a57610dfb8986610d01565b84529384019392850192610de9565b50979650505050505050565b600060608284031215610e2857600080fd5b6104208383610d01565b634e487b7160e01b600052603260045260246000fd5b634e487b7160e01b600052601160045260246000fd5b600060018201610e7057610e70610e48565b5060010190565b600060208284031215610e8957600080fd5b815161042081610c53565b6000816000190483118215151615610eae57610eae610e48565b500290565b600082610ed057634e487b7160e01b600052601260045260246000fd5b500490565b6000815180845260005b81811015610efb57602081850181015186830182015201610edf565b81811115610f0d576000602083870101525b50601f01601f19169290920160200192915050565b6001600160a01b0383168152604060208201819052600090610f4690830184610ed5565b949350505050565b600060208284031215610f6057600080fd5b8151801515811461042057600080fd5b6001600160a01b03848116825283166020820152606060408201819052600090610f9c90830184610ed5565b95945050505050565b6020808252602b908201527f496e697469616c697a61626c653a20636f6e7472616374206973206e6f74206960408201526a6e697469616c697a696e6760a81b60608201526080019056fe73657456616c6964617465436f6e6669672856616c6964617465436f6e6669672973657456616c6964617465436f6e666967732856616c6964617465436f6e6669675b5d29a2646970667358221220fb6b5f6e873b80b9ad7acc8b80854f251a71964c8d4c725f0157dc9e5962e37864736f6c634300080d0033",
  "devdoc": {
    "kind": "dev",
    "methods": {
      "acceptOwnership()": {
        "details": "The new owner accepts the ownership transfer."
      },
      "constructor": {
        "custom:oz-upgrades-unsafe-allow": "constructor",
        "params": {
          "vBnbAddress": "The address of the vBNB",
          "vaiAddress": "The address of the VAI"
        }
      },
      "initialize(address)": {
        "params": {
          "accessControlManager_": "Address of the access control manager contract"
        }
      },
      "owner()": {
        "details": "Returns the address of the current owner."
      },
      "pendingOwner()": {
        "details": "Returns the address of the pending owner."
      },
      "renounceOwnership()": {
        "details": "Leaves the contract without owner. It will not be possible to call `onlyOwner` functions anymore. Can only be called by the current owner. NOTE: Renouncing ownership will leave the contract without an owner, thereby removing any functionality that is only available to the owner."
      },
      "setAccessControlManager(address)": {
        "custom:access": "Only Governance",
        "custom:event": "Emits NewAccessControlManager event",
        "details": "Admin function to set address of AccessControlManager",
        "params": {
          "accessControlManager_": "The new address of the AccessControlManager"
        }
      },
      "setValidateConfig((address,uint256,uint256))": {
        "custom:access": "Only Governance",
        "custom:error": "Null address error is thrown if asset address is nullRange error thrown if bound ratio is not positiveRange error thrown if lower bound is greater than upper bound",
        "custom:event": "Emits ValidateConfigAdded when a validation config is successfully set",
        "params": {
          "config": "Validation config struct"
        }
      },
      "setValidateConfigs((address,uint256,uint256)[])": {
        "custom:access": "Only Governance",
        "custom:error": "Zero length error is thrown if length of the config array is 0",
        "custom:event": "Emits ValidateConfigAdded for each validation config that is successfully set",
        "params": {
          "configs": "Array of validation configs"
        }
      },
      "transferOwnership(address)": {
        "details": "Starts the ownership transfer of the contract to a new account. Replaces the pending transfer if there is one. Can only be called by the current owner."
      },
      "validatePriceWithAnchorPrice(address,uint256,uint256)": {
        "custom:error": "Missing error thrown if asset config is not setPrice error thrown if anchor price is not valid",
        "params": {
          "reportedPrice": "The price to be tested",
          "vToken": "vToken address"
        }
      }
    },
    "stateVariables": {
      "vBnb": {
        "custom:oz-upgrades-unsafe-allow": "state-variable-immutable"
      },
      "vai": {
        "custom:oz-upgrades-unsafe-allow": "state-variable-immutable"
      }
    },
    "version": 1
  },
  "userdoc": {
    "errors": {
      "Unauthorized(address,address,string)": [
        {
          "notice": "Thrown when the action is prohibited by AccessControlManager"
        }
      ]
    },
    "events": {
      "NewAccessControlManager(address,address)": {
        "notice": "Emitted when access control manager contract address is changed"
      },
      "ValidateConfigAdded(address,uint256,uint256)": {
        "notice": "Emit this event when new validation configs are added"
      }
    },
    "kind": "user",
    "methods": {
      "BNB_ADDR()": {
        "notice": "Set this as asset address for BNB. This is the underlying for vBNB"
      },
      "accessControlManager()": {
        "notice": "Returns the address of the access control manager contract"
      },
      "constructor": {
        "notice": "Constructor for the implementation contract. Sets immutable variables."
      },
      "initialize(address)": {
        "notice": "Initializes the owner of the contract"
      },
      "setAccessControlManager(address)": {
        "notice": "Sets the address of AccessControlManager"
      },
      "setValidateConfig((address,uint256,uint256))": {
        "notice": "Add a single validation config"
      },
      "setValidateConfigs((address,uint256,uint256)[])": {
        "notice": "Add multiple validation configs at the same time"
      },
      "vBnb()": {
        "notice": "vBNB address"
      },
      "vai()": {
        "notice": "VAI address"
      },
      "validateConfigs(address)": {
        "notice": "validation configs by asset"
      },
      "validatePriceWithAnchorPrice(address,uint256,uint256)": {
        "notice": "Test reported asset price against anchor price"
      }
    },
    "version": 1
  },
  "storageLayout": {
    "storage": [
      {
        "astId": 347,
        "contract": "contracts/oracles/BoundValidator.sol:BoundValidator",
        "label": "_initialized",
        "offset": 0,
        "slot": "0",
        "type": "t_uint8"
      },
      {
        "astId": 350,
        "contract": "contracts/oracles/BoundValidator.sol:BoundValidator",
        "label": "_initializing",
        "offset": 1,
        "slot": "0",
        "type": "t_bool"
      },
      {
        "astId": 961,
        "contract": "contracts/oracles/BoundValidator.sol:BoundValidator",
        "label": "__gap",
        "offset": 0,
        "slot": "1",
        "type": "t_array(t_uint256)50_storage"
      },
      {
        "astId": 219,
        "contract": "contracts/oracles/BoundValidator.sol:BoundValidator",
        "label": "_owner",
        "offset": 0,
        "slot": "51",
        "type": "t_address"
      },
      {
        "astId": 339,
        "contract": "contracts/oracles/BoundValidator.sol:BoundValidator",
        "label": "__gap",
        "offset": 0,
        "slot": "52",
        "type": "t_array(t_uint256)49_storage"
      },
      {
        "astId": 128,
        "contract": "contracts/oracles/BoundValidator.sol:BoundValidator",
        "label": "_pendingOwner",
        "offset": 0,
        "slot": "101",
        "type": "t_address"
      },
      {
        "astId": 207,
        "contract": "contracts/oracles/BoundValidator.sol:BoundValidator",
        "label": "__gap",
        "offset": 0,
        "slot": "102",
        "type": "t_array(t_uint256)49_storage"
      },
      {
        "astId": 3109,
        "contract": "contracts/oracles/BoundValidator.sol:BoundValidator",
        "label": "_accessControlManager",
        "offset": 0,
        "slot": "151",
        "type": "t_contract(IAccessControlManager)3293"
      },
      {
        "astId": 3114,
        "contract": "contracts/oracles/BoundValidator.sol:BoundValidator",
        "label": "__gap",
        "offset": 0,
        "slot": "152",
        "type": "t_array(t_uint256)49_storage"
      },
      {
        "astId": 4807,
        "contract": "contracts/oracles/BoundValidator.sol:BoundValidator",
        "label": "validateConfigs",
        "offset": 0,
        "slot": "201",
        "type": "t_mapping(t_address,t_struct(ValidateConfig)4797_storage)"
      },
      {
        "astId": 5133,
        "contract": "contracts/oracles/BoundValidator.sol:BoundValidator",
        "label": "__gap",
        "offset": 0,
        "slot": "202",
        "type": "t_array(t_uint256)49_storage"
      }
    ],
    "types": {
      "t_address": {
        "encoding": "inplace",
        "label": "address",
        "numberOfBytes": "20"
      },
      "t_array(t_uint256)49_storage": {
        "base": "t_uint256",
        "encoding": "inplace",
        "label": "uint256[49]",
        "numberOfBytes": "1568"
      },
      "t_array(t_uint256)50_storage": {
        "base": "t_uint256",
        "encoding": "inplace",
        "label": "uint256[50]",
        "numberOfBytes": "1600"
      },
      "t_bool": {
        "encoding": "inplace",
        "label": "bool",
        "numberOfBytes": "1"
      },
      "t_contract(IAccessControlManager)3293": {
        "encoding": "inplace",
        "label": "contract IAccessControlManager",
        "numberOfBytes": "20"
      },
      "t_mapping(t_address,t_struct(ValidateConfig)4797_storage)": {
        "encoding": "mapping",
        "key": "t_address",
        "label": "mapping(address => struct ValidateConfig)",
        "numberOfBytes": "32",
        "value": "t_struct(ValidateConfig)4797_storage"
      },
      "t_struct(ValidateConfig)4797_storage": {
        "encoding": "inplace",
        "label": "struct ValidateConfig",
        "members": [
          {
            "astId": 4790,
            "contract": "contracts/oracles/BoundValidator.sol:BoundValidator",
            "label": "asset",
            "offset": 0,
            "slot": "0",
            "type": "t_address"
          },
          {
            "astId": 4793,
            "contract": "contracts/oracles/BoundValidator.sol:BoundValidator",
            "label": "upperBoundRatio",
            "offset": 0,
            "slot": "1",
            "type": "t_uint256"
          },
          {
            "astId": 4796,
            "contract": "contracts/oracles/BoundValidator.sol:BoundValidator",
            "label": "lowerBoundRatio",
            "offset": 0,
            "slot": "2",
            "type": "t_uint256"
          }
        ],
        "numberOfBytes": "96"
      },
      "t_uint256": {
        "encoding": "inplace",
        "label": "uint256",
        "numberOfBytes": "32"
      },
      "t_uint8": {
        "encoding": "inplace",
        "label": "uint8",
        "numberOfBytes": "1"
      }
    }
  }
}