{
  "address": "0xc62e914BdbA0022671CaBDe03EC2F63408F03e98",
  "abi": [
    {
      "inputs": [
        {
          "internalType": "address",
          "name": "vBnbAddress",
          "type": "address"
        },
        {
          "internalType": "address",
          "name": "vaiAddress",
          "type": "address"
        }
      ],
      "stateMutability": "nonpayable",
      "type": "constructor"
    },
    {
      "inputs": [
        {
          "internalType": "address",
          "name": "sender",
          "type": "address"
        },
        {
          "internalType": "address",
          "name": "calledContract",
          "type": "address"
        },
        {
          "internalType": "string",
          "name": "methodSignature",
          "type": "string"
        }
      ],
      "name": "Unauthorized",
      "type": "error"
    },
    {
      "anonymous": false,
      "inputs": [
        {
          "indexed": false,
          "internalType": "uint8",
          "name": "version",
          "type": "uint8"
        }
      ],
      "name": "Initialized",
      "type": "event"
    },
    {
      "anonymous": false,
      "inputs": [
        {
          "indexed": false,
          "internalType": "address",
          "name": "oldAccessControlManager",
          "type": "address"
        },
        {
          "indexed": false,
          "internalType": "address",
          "name": "newAccessControlManager",
          "type": "address"
        }
      ],
      "name": "NewAccessControlManager",
      "type": "event"
    },
    {
      "anonymous": false,
      "inputs": [
        {
          "indexed": true,
          "internalType": "address",
          "name": "previousOwner",
          "type": "address"
        },
        {
          "indexed": true,
          "internalType": "address",
          "name": "newOwner",
          "type": "address"
        }
      ],
      "name": "OwnershipTransferStarted",
      "type": "event"
    },
    {
      "anonymous": false,
      "inputs": [
        {
          "indexed": true,
          "internalType": "address",
          "name": "previousOwner",
          "type": "address"
        },
        {
          "indexed": true,
          "internalType": "address",
          "name": "newOwner",
          "type": "address"
        }
      ],
      "name": "OwnershipTransferred",
      "type": "event"
    },
    {
      "anonymous": false,
      "inputs": [
        {
          "indexed": true,
          "internalType": "address",
          "name": "newPythOracle",
          "type": "address"
        }
      ],
      "name": "PythOracleSet",
      "type": "event"
    },
    {
      "anonymous": false,
      "inputs": [
        {
          "indexed": true,
          "internalType": "address",
          "name": "vToken",
          "type": "address"
        },
        {
          "indexed": true,
          "internalType": "bytes32",
          "name": "pythId",
          "type": "bytes32"
        },
        {
          "indexed": true,
          "internalType": "uint64",
          "name": "maxStalePeriod",
          "type": "uint64"
        }
      ],
      "name": "TokenConfigAdded",
      "type": "event"
    },
    {
      "inputs": [],
      "name": "BNB_ADDR",
      "outputs": [
        {
          "internalType": "address",
          "name": "",
          "type": "address"
        }
      ],
      "stateMutability": "view",
      "type": "function"
    },
    {
      "inputs": [],
      "name": "EXP_SCALE",
      "outputs": [
        {
          "internalType": "uint256",
          "name": "",
          "type": "uint256"
        }
      ],
      "stateMutability": "view",
      "type": "function"
    },
    {
      "inputs": [],
      "name": "acceptOwnership",
      "outputs": [],
      "stateMutability": "nonpayable",
      "type": "function"
    },
    {
      "inputs": [],
      "name": "accessControlManager",
      "outputs": [
        {
          "internalType": "contract IAccessControlManager",
          "name": "",
          "type": "address"
        }
      ],
      "stateMutability": "view",
      "type": "function"
    },
    {
      "inputs": [
        {
          "internalType": "address",
          "name": "vToken",
          "type": "address"
        }
      ],
      "name": "getUnderlyingPrice",
      "outputs": [
        {
          "internalType": "uint256",
          "name": "",
          "type": "uint256"
        }
      ],
      "stateMutability": "view",
      "type": "function"
    },
    {
      "inputs": [
        {
          "internalType": "address",
          "name": "underlyingPythOracle_",
          "type": "address"
        },
        {
          "internalType": "address",
          "name": "accessControlManager_",
          "type": "address"
        }
      ],
      "name": "initialize",
      "outputs": [],
      "stateMutability": "nonpayable",
      "type": "function"
    },
    {
      "inputs": [],
      "name": "owner",
      "outputs": [
        {
          "internalType": "address",
          "name": "",
          "type": "address"
        }
      ],
      "stateMutability": "view",
      "type": "function"
    },
    {
      "inputs": [],
      "name": "pendingOwner",
      "outputs": [
        {
          "internalType": "address",
          "name": "",
          "type": "address"
        }
      ],
      "stateMutability": "view",
      "type": "function"
    },
    {
      "inputs": [],
      "name": "renounceOwnership",
      "outputs": [],
      "stateMutability": "nonpayable",
      "type": "function"
    },
    {
      "inputs": [
        {
          "internalType": "address",
          "name": "accessControlManager_",
          "type": "address"
        }
      ],
      "name": "setAccessControlManager",
      "outputs": [],
      "stateMutability": "nonpayable",
      "type": "function"
    },
    {
      "inputs": [
        {
          "components": [
            {
              "internalType": "bytes32",
              "name": "pythId",
              "type": "bytes32"
            },
            {
              "internalType": "address",
              "name": "asset",
              "type": "address"
            },
            {
              "internalType": "uint64",
              "name": "maxStalePeriod",
              "type": "uint64"
            }
          ],
          "internalType": "struct TokenConfig",
          "name": "tokenConfig",
          "type": "tuple"
        }
      ],
      "name": "setTokenConfig",
      "outputs": [],
      "stateMutability": "nonpayable",
      "type": "function"
    },
    {
      "inputs": [
        {
          "components": [
            {
              "internalType": "bytes32",
              "name": "pythId",
              "type": "bytes32"
            },
            {
              "internalType": "address",
              "name": "asset",
              "type": "address"
            },
            {
              "internalType": "uint64",
              "name": "maxStalePeriod",
              "type": "uint64"
            }
          ],
          "internalType": "struct TokenConfig[]",
          "name": "tokenConfigs_",
          "type": "tuple[]"
        }
      ],
      "name": "setTokenConfigs",
      "outputs": [],
      "stateMutability": "nonpayable",
      "type": "function"
    },
    {
      "inputs": [
        {
          "internalType": "contract IPyth",
          "name": "underlyingPythOracle_",
          "type": "address"
        }
      ],
      "name": "setUnderlyingPythOracle",
      "outputs": [],
      "stateMutability": "nonpayable",
      "type": "function"
    },
    {
      "inputs": [
        {
          "internalType": "address",
          "name": "",
          "type": "address"
        }
      ],
      "name": "tokenConfigs",
      "outputs": [
        {
          "internalType": "bytes32",
          "name": "pythId",
          "type": "bytes32"
        },
        {
          "internalType": "address",
          "name": "asset",
          "type": "address"
        },
        {
          "internalType": "uint64",
          "name": "maxStalePeriod",
          "type": "uint64"
        }
      ],
      "stateMutability": "view",
      "type": "function"
    },
    {
      "inputs": [
        {
          "internalType": "address",
          "name": "newOwner",
          "type": "address"
        }
      ],
      "name": "transferOwnership",
      "outputs": [],
      "stateMutability": "nonpayable",
      "type": "function"
    },
    {
      "inputs": [],
      "name": "underlyingPythOracle",
      "outputs": [
        {
          "internalType": "contract IPyth",
          "name": "",
          "type": "address"
        }
      ],
      "stateMutability": "view",
      "type": "function"
    },
    {
      "inputs": [],
      "name": "vBnb",
      "outputs": [
        {
          "internalType": "address",
          "name": "",
          "type": "address"
        }
      ],
      "stateMutability": "view",
      "type": "function"
    },
    {
      "inputs": [],
      "name": "vai",
      "outputs": [
        {
          "internalType": "address",
          "name": "",
          "type": "address"
        }
      ],
      "stateMutability": "view",
      "type": "function"
    }
  ],
  "transactionHash": "0xbd96e7ac062c89b02f1be0217aa621e583cfaacdfbd8be09bf95edb55a9c4b39",
  "args": [
    "0xA07c5b74C9B40447a954e1466938b865b6BBea36",
    "0x4BD17003473389A42DAF6a0a729f6Fdb328BbBd7"
  ],
  "numDeployments": 1,
  "solcInputHash": "8658c669dade0e9ab80874eab3bf3468",
  "bytecode": "0x60c06040523480156200001157600080fd5b506040516200184f3803806200184f8339810160408190526200003491620001ed565b816001600160a01b038116620000915760405162461bcd60e51b815260206004820152601560248201527f63616e2774206265207a65726f2061646472657373000000000000000000000060448201526064015b60405180910390fd5b816001600160a01b038116620000ea5760405162461bcd60e51b815260206004820152601560248201527f63616e2774206265207a65726f20616464726573730000000000000000000000604482015260640162000088565b6001600160a01b03808516608052831660a0526200010762000111565b5050505062000225565b600054610100900460ff16156200017b5760405162461bcd60e51b815260206004820152602760248201527f496e697469616c697a61626c653a20636f6e747261637420697320696e697469604482015266616c697a696e6760c81b606482015260840162000088565b60005460ff9081161015620001ce576000805460ff191660ff9081179091556040519081527f7f26b83ff96e1f2b6a682f133852f6798a09c465da95921460cefb38474024989060200160405180910390a15b565b80516001600160a01b0381168114620001e857600080fd5b919050565b600080604083850312156200020157600080fd5b6200020c83620001d0565b91506200021c60208401620001d0565b90509250929050565b60805160a0516115ef6200026060003960008181610282015281816109ac01526109e6015260008181610203015261095401526115ef6000f3fe608060405234801561001057600080fd5b50600436106101165760003560e01c806379ba5097116100a2578063bbba205d11610071578063bbba205d146102a4578063e30c3978146102c1578063eb8bee70146102d2578063f2fde38b146102e5578063fc57d4df146102f857600080fd5b806379ba5097146102535780638da5cb5b1461025b578063b4a0bdf31461026c578063b62e4c921461027d57600080fd5b806356fa5a56116100e957806356fa5a56146101eb5780635ba3792d146101fe5780636a8c7d3514610225578063703ae1b914610238578063715018a61461024b57600080fd5b80630e32cb861461011b5780631b69dc5f146101305780633e83b6b8146101a5578063485cc955146101d8575b600080fd5b61012e61012936600461102f565b61030b565b005b61017361013e36600461102f565b60ca60205260009081526040902080546001909101546001600160a01b03811690600160a01b900467ffffffffffffffff1683565b604080519384526001600160a01b03909216602084015267ffffffffffffffff16908201526060015b60405180910390f35b6101c073bbbbbbbbbbbbbbbbbbbbbbbbbbbbbbbbbbbbbbbb81565b6040516001600160a01b03909116815260200161019c565b61012e6101e6366004611053565b61031f565b60c9546101c0906001600160a01b031681565b6101c07f000000000000000000000000000000000000000000000000000000000000000081565b61012e610233366004611156565b6104e8565b61012e61024636600461102f565b6105aa565b61012e610682565b61012e610696565b6033546001600160a01b03166101c0565b6097546001600160a01b03166101c0565b6101c07f000000000000000000000000000000000000000000000000000000000000000081565b6102b3670de0b6b3a764000081565b60405190815260200161019c565b6065546001600160a01b03166101c0565b61012e6102e0366004611206565b61070d565b61012e6102f336600461102f565b610883565b6102b361030636600461102f565b6108f4565b610313610cf5565b61031c81610d4f565b50565b600054610100900460ff161580801561033f5750600054600160ff909116105b806103595750303b158015610359575060005460ff166001145b6103c15760405162461bcd60e51b815260206004820152602e60248201527f496e697469616c697a61626c653a20636f6e747261637420697320616c72656160448201526d191e481a5b9a5d1a585b1a5e995960921b60648201526084015b60405180910390fd5b6000805460ff1916600117905580156103e4576000805461ff0019166101001790555b6103ec610e14565b6103f582610e43565b6001600160a01b0383166104565760405162461bcd60e51b815260206004820152602260248201527f70797468206f7261636c652063616e6e6f74206265207a65726f206164647265604482015261737360f01b60648201526084016103b8565b60c980546001600160a01b0319166001600160a01b0385169081179091556040517fad50c6353c28bb4c67268a71d1f313fc9630fd4a91a6f3185270ba60a28710c190600090a280156104e3576000805461ff0019169055604051600181527f7f26b83ff96e1f2b6a682f133852f6798a09c465da95921460cefb38474024989060200160405180910390a15b505050565b6105266040518060400160405280601e81526020017f736574546f6b656e436f6e6669677328546f6b656e436f6e6669675b5d290000815250610e6a565b805160000361056b5760405162461bcd60e51b815260206004820152601160248201527006c656e6774682063616e2774206265203607c1b60448201526064016103b8565b805160005b818110156104e35761059a83828151811061058d5761058d611222565b602002602001015161070d565b6105a38161124e565b9050610570565b806001600160a01b0381166105f95760405162461bcd60e51b815260206004820152601560248201527463616e2774206265207a65726f206164647265737360581b60448201526064016103b8565b6106376040518060400160405280601e81526020017f736574556e6465726c79696e67507974684f7261636c65284950797468290000815250610e6a565b60c980546001600160a01b0319166001600160a01b0384169081179091556040517fad50c6353c28bb4c67268a71d1f313fc9630fd4a91a6f3185270ba60a28710c190600090a25050565b61068a610cf5565b6106946000610f08565b565b60655433906001600160a01b031681146107045760405162461bcd60e51b815260206004820152602960248201527f4f776e61626c6532537465703a2063616c6c6572206973206e6f7420746865206044820152683732bb9037bbb732b960b91b60648201526084016103b8565b61031c81610f08565b60208101516001600160a01b0381166107605760405162461bcd60e51b815260206004820152601560248201527463616e2774206265207a65726f206164647265737360581b60448201526064016103b8565b61079e6040518060400160405280601b81526020017f736574546f6b656e436f6e66696728546f6b656e436f6e666967290000000000815250610e6a565b816040015167ffffffffffffffff166000036107fc5760405162461bcd60e51b815260206004820152601c60248201527f6d6178207374616c6520706572696f642063616e6e6f7420626520300000000060448201526064016103b8565b602082810180516001600160a01b03908116600090815260ca9093526040808420865180825593516001909101805483890151929094166001600160e01b03199094168417600160a01b67ffffffffffffffff909316928302179055905190937f559091caed5aa983e358fdf18e8cefbc8ea71f64ea252477cf32778ae4c398b291a45050565b61088b610cf5565b606580546001600160a01b0383166001600160a01b031990911681179091556108bc6033546001600160a01b031690565b6001600160a01b03167f38d16b8cac22d99fc7c124b9cd0de2d3fa1faef420bfe791d8c362d765e2270060405160405180910390a350565b60c9546000906001600160a01b031661094f5760405162461bcd60e51b815260206004820152601b60248201527f50797468206f7261636c65206973207a65726f2061646472657373000000000060448201526064016103b8565b6000807f00000000000000000000000000000000000000000000000000000000000000006001600160a01b0316846001600160a01b0316036109aa575073bbbbbbbbbbbbbbbbbbbbbbbbbbbbbbbbbbbbbbbb90506012610ada565b7f00000000000000000000000000000000000000000000000000000000000000006001600160a01b0316846001600160a01b031603610a0e57507f000000000000000000000000000000000000000000000000000000000000000090506012610ada565b836001600160a01b0316636f307dc36040518163ffffffff1660e01b8152600401602060405180830381865afa158015610a4c573d6000803e3d6000fd5b505050506040513d601f19601f82011682018060405250810190610a709190611267565b9150816001600160a01b031663313ce5676040518163ffffffff1660e01b8152600401602060405180830381865afa158015610ab0573d6000803e3d6000fd5b505050506040513d601f19601f82011682018060405250810190610ad49190611284565b60ff1690505b6001600160a01b03808316600090815260ca602052604090206001810154909116610b3d5760405162461bcd60e51b8152602060048201526013602482015272185cdcd95d08191bd95cdb89dd08195e1a5cdd606a1b60448201526064016103b8565b60c9548154600183015460405163052571af60e51b81526004810192909252600160a01b900467ffffffffffffffff1660248201526000916001600160a01b03169063a4ae35e090604401608060405180830381865afa158015610ba5573d6000803e3d6000fd5b505050506040513d601f19601f82011682018060405250810190610bc991906112a7565b90506000610bdd826000015160070b610f21565b905080600003610c2f5760405162461bcd60e51b815260206004820152601960248201527f696e76616c69642070797468206f7261636c652070726963650000000000000060448201526064016103b8565b6000826040015160030b1315610ca057610c4a846012611333565b610c5590600a61142e565b610c8b610c68846040015160030b610f21565b610c7390600a61142e565b610c8584670de0b6b3a7640000610f77565b90610f77565b610c95919061143a565b979650505050505050565b610cab846012611333565b610cb690600a61142e565b610c8b610cd28460400151610cca90611459565b60030b610f21565b610cdd90600a61142e565b610cef84670de0b6b3a7640000610f77565b90610f8c565b6033546001600160a01b031633146106945760405162461bcd60e51b815260206004820181905260248201527f4f776e61626c653a2063616c6c6572206973206e6f7420746865206f776e657260448201526064016103b8565b6001600160a01b038116610db35760405162461bcd60e51b815260206004820152602560248201527f696e76616c696420616365737320636f6e74726f6c206d616e61676572206164604482015264647265737360d81b60648201526084016103b8565b609780546001600160a01b038381166001600160a01b031983168117909355604080519190921680825260208201939093527f66fd58e82f7b31a2a5c30e0888f3093efe4e111b00cd2b0c31fe014601293aa0910160405180910390a15050565b600054610100900460ff16610e3b5760405162461bcd60e51b81526004016103b89061147c565b610694610f98565b600054610100900460ff166103135760405162461bcd60e51b81526004016103b89061147c565b6097546040516318c5e8ab60e01b81526000916001600160a01b0316906318c5e8ab90610e9d9033908690600401611514565b602060405180830381865afa158015610eba573d6000803e3d6000fd5b505050506040513d601f19601f82011682018060405250810190610ede9190611540565b905080610f0457333083604051634a3fa29360e01b81526004016103b893929190611562565b5050565b606580546001600160a01b031916905561031c81610fc8565b600080821215610f735760405162461bcd60e51b815260206004820181905260248201527f53616665436173743a2076616c7565206d75737420626520706f73697469766560448201526064016103b8565b5090565b6000610f83828461143a565b90505b92915050565b6000610f838284611597565b600054610100900460ff16610fbf5760405162461bcd60e51b81526004016103b89061147c565b61069433610f08565b603380546001600160a01b038381166001600160a01b0319831681179093556040519116919082907f8be0079c531659141344cd1fd0a4f28419497f9722a3daafe3b4186f6b6457e090600090a35050565b6001600160a01b038116811461031c57600080fd5b60006020828403121561104157600080fd5b813561104c8161101a565b9392505050565b6000806040838503121561106657600080fd5b82356110718161101a565b915060208301356110818161101a565b809150509250929050565b634e487b7160e01b600052604160045260246000fd5b604051601f8201601f1916810167ffffffffffffffff811182821017156110cb576110cb61108c565b604052919050565b67ffffffffffffffff8116811461031c57600080fd5b6000606082840312156110fb57600080fd5b6040516060810181811067ffffffffffffffff8211171561111e5761111e61108c565b6040528235815290508060208301356111368161101a565b60208201526040830135611149816110d3565b6040919091015292915050565b6000602080838503121561116957600080fd5b823567ffffffffffffffff8082111561118157600080fd5b818501915085601f83011261119557600080fd5b8135818111156111a7576111a761108c565b6111b5848260051b016110a2565b818152848101925060609182028401850191888311156111d457600080fd5b938501935b828510156111fa576111eb89866110e9565b845293840193928501926111d9565b50979650505050505050565b60006060828403121561121857600080fd5b610f8383836110e9565b634e487b7160e01b600052603260045260246000fd5b634e487b7160e01b600052601160045260246000fd5b60006001820161126057611260611238565b5060010190565b60006020828403121561127957600080fd5b815161104c8161101a565b60006020828403121561129657600080fd5b815160ff8116811461104c57600080fd5b6000608082840312156112b957600080fd5b6040516080810181811067ffffffffffffffff821117156112dc576112dc61108c565b6040528251600781900b81146112f157600080fd5b81526020830151611301816110d3565b60208201526040830151600381900b811461131b57600080fd5b60408201526060928301519281019290925250919050565b60008282101561134557611345611238565b500390565b600181815b8085111561138557816000190482111561136b5761136b611238565b8085161561137857918102915b93841c939080029061134f565b509250929050565b60008261139c57506001610f86565b816113a957506000610f86565b81600181146113bf57600281146113c9576113e5565b6001915050610f86565b60ff8411156113da576113da611238565b50506001821b610f86565b5060208310610133831016604e8410600b8410161715611408575081810a610f86565b611412838361134a565b806000190482111561142657611426611238565b029392505050565b6000610f83838361138d565b600081600019048311821515161561145457611454611238565b500290565b60008160030b637fffffff19810361147357611473611238565b60000392915050565b6020808252602b908201527f496e697469616c697a61626c653a20636f6e7472616374206973206e6f74206960408201526a6e697469616c697a696e6760a81b606082015260800190565b6000815180845260005b818110156114ed576020818501810151868301820152016114d1565b818111156114ff576000602083870101525b50601f01601f19169290920160200192915050565b6001600160a01b0383168152604060208201819052600090611538908301846114c7565b949350505050565b60006020828403121561155257600080fd5b8151801515811461104c57600080fd5b6001600160a01b0384811682528316602082015260606040820181905260009061158e908301846114c7565b95945050505050565b6000826115b457634e487b7160e01b600052601260045260246000fd5b50049056fea26469706673582212200c760be41ea4ba26d8b6fb1b8d17a55d42c67d43980860767750aa67d708adbe64736f6c634300080d0033",
  "devdoc": {
    "kind": "dev",
    "methods": {
      "acceptOwnership()": {
        "details": "The new owner accepts the ownership transfer."
      },
      "constructor": {
        "custom:oz-upgrades-unsafe-allow": "constructor",
        "params": {
          "vBnbAddress": "The address of the vBNB",
          "vaiAddress": "The address of the VAI"
        }
      },
      "getUnderlyingPrice(address)": {
        "custom:error": "Zero address error thrown if underlyingPythOracle address is nullZero address error thrown if asset address is nullRange error thrown if price of Pyth oracle is not greater than zero",
        "params": {
          "vToken": "vToken address"
        },
        "returns": {
          "_0": "price Underlying price with a precision of 10 decimals"
        }
      },
      "initialize(address,address)": {
        "params": {
          "accessControlManager_": "Address of the access control manager contract",
          "underlyingPythOracle_": "Address of the Pyth oracle"
        }
      },
      "owner()": {
        "details": "Returns the address of the current owner."
      },
      "pendingOwner()": {
        "details": "Returns the address of the pending owner."
      },
      "renounceOwnership()": {
        "details": "Leaves the contract without owner. It will not be possible to call `onlyOwner` functions anymore. Can only be called by the current owner. NOTE: Renouncing ownership will leave the contract without an owner, thereby removing any functionality that is only available to the owner."
      },
      "setAccessControlManager(address)": {
        "custom:access": "Only Governance",
        "custom:event": "Emits NewAccessControlManager event",
        "details": "Admin function to set address of AccessControlManager",
        "params": {
          "accessControlManager_": "The new address of the AccessControlManager"
        }
      },
      "setTokenConfig((bytes32,address,uint64))": {
        "custom:access": "Only Governance",
        "custom:error": "Range error is thrown if max stale period is zeroNotNullAddress error is thrown if asset address is null",
        "params": {
          "tokenConfig": "Token config struct"
        }
      },
      "setTokenConfigs((bytes32,address,uint64)[])": {
        "custom:access": "Only Governance",
        "custom:error": "Zero length error is thrown if length of the array in parameter is 0",
        "params": {
          "tokenConfigs_": "Token config array"
        }
      },
      "setUnderlyingPythOracle(address)": {
        "custom:access": "Only Governance",
        "custom:error": "NotNullAddress error thrown if underlyingPythOracle_ address is zero",
        "custom:event": "Emits PythOracleSet event with address of Pyth oracle.",
        "params": {
          "underlyingPythOracle_": "Pyth oracle contract address"
        }
      },
      "transferOwnership(address)": {
        "details": "Starts the ownership transfer of the contract to a new account. Replaces the pending transfer if there is one. Can only be called by the current owner."
      }
    },
    "stateVariables": {
      "vBnb": {
        "custom:oz-upgrades-unsafe-allow": "state-variable-immutable"
      },
      "vai": {
        "custom:oz-upgrades-unsafe-allow": "state-variable-immutable"
      }
    },
    "version": 1
  },
  "userdoc": {
    "errors": {
      "Unauthorized(address,address,string)": [
        {
          "notice": "Thrown when the action is prohibited by AccessControlManager"
        }
      ]
    },
    "events": {
      "NewAccessControlManager(address,address)": {
        "notice": "Emitted when access control manager contract address is changed"
      },
      "PythOracleSet(address)": {
        "notice": "Emit when setting a new pyth oracle address"
      },
      "TokenConfigAdded(address,bytes32,uint64)": {
        "notice": "Emit when a token config is added"
      }
    },
    "kind": "user",
    "methods": {
      "BNB_ADDR()": {
        "notice": "Set this as asset address for BNB. This is the underlying for vBNB"
      },
      "EXP_SCALE()": {
        "notice": "Exponent scale (decimal precision) of prices"
      },
      "accessControlManager()": {
        "notice": "Returns the address of the access control manager contract"
      },
      "constructor": {
        "notice": "Constructor for the implementation contract. Sets immutable variables."
      },
      "getUnderlyingPrice(address)": {
        "notice": "Get price of underlying asset of the input vToken, under the hood this function get price from Pyth contract, the prices of which are updated externally"
      },
      "initialize(address,address)": {
        "notice": "Initializes the owner of the contract and sets required contracts"
      },
      "setAccessControlManager(address)": {
        "notice": "Sets the address of AccessControlManager"
      },
      "setTokenConfig((bytes32,address,uint64))": {
        "notice": "Set single token config. `maxStalePeriod` cannot be 0 and `vToken` can be a null address"
      },
      "setTokenConfigs((bytes32,address,uint64)[])": {
        "notice": "Batch set token configs"
      },
      "setUnderlyingPythOracle(address)": {
        "notice": "Set the underlying Pyth oracle contract address"
      },
      "tokenConfigs(address)": {
        "notice": "Token configs by asset address"
      },
      "underlyingPythOracle()": {
        "notice": "The actual pyth oracle address fetch & store the prices"
      },
      "vBnb()": {
        "notice": "vBNB address"
      },
      "vai()": {
        "notice": "VAI address"
      }
    },
    "notice": "PythOracle contract reads prices from actual Pyth oracle contract which accepts, verifies and stores the updated prices from external sources",
    "version": 1
  },
  "storageLayout": {
    "storage": [
      {
        "astId": 347,
        "contract": "contracts/oracles/PythOracle.sol:PythOracle",
        "label": "_initialized",
        "offset": 0,
        "slot": "0",
        "type": "t_uint8"
      },
      {
        "astId": 350,
        "contract": "contracts/oracles/PythOracle.sol:PythOracle",
        "label": "_initializing",
        "offset": 1,
        "slot": "0",
        "type": "t_bool"
      },
      {
        "astId": 961,
        "contract": "contracts/oracles/PythOracle.sol:PythOracle",
        "label": "__gap",
        "offset": 0,
        "slot": "1",
        "type": "t_array(t_uint256)50_storage"
      },
      {
        "astId": 219,
        "contract": "contracts/oracles/PythOracle.sol:PythOracle",
        "label": "_owner",
        "offset": 0,
        "slot": "51",
        "type": "t_address"
      },
      {
        "astId": 339,
        "contract": "contracts/oracles/PythOracle.sol:PythOracle",
        "label": "__gap",
        "offset": 0,
        "slot": "52",
        "type": "t_array(t_uint256)49_storage"
      },
      {
        "astId": 128,
        "contract": "contracts/oracles/PythOracle.sol:PythOracle",
        "label": "_pendingOwner",
        "offset": 0,
        "slot": "101",
        "type": "t_address"
      },
      {
        "astId": 207,
        "contract": "contracts/oracles/PythOracle.sol:PythOracle",
        "label": "__gap",
        "offset": 0,
        "slot": "102",
        "type": "t_array(t_uint256)49_storage"
      },
      {
        "astId": 3109,
        "contract": "contracts/oracles/PythOracle.sol:PythOracle",
        "label": "_accessControlManager",
        "offset": 0,
        "slot": "151",
        "type": "t_contract(IAccessControlManager)3293"
      },
      {
        "astId": 3114,
        "contract": "contracts/oracles/PythOracle.sol:PythOracle",
        "label": "__gap",
        "offset": 0,
        "slot": "152",
        "type": "t_array(t_uint256)49_storage"
      },
      {
        "astId": 5688,
        "contract": "contracts/oracles/PythOracle.sol:PythOracle",
        "label": "underlyingPythOracle",
        "offset": 0,
        "slot": "201",
        "type": "t_contract(IPyth)4322"
      },
      {
        "astId": 5694,
        "contract": "contracts/oracles/PythOracle.sol:PythOracle",
        "label": "tokenConfigs",
        "offset": 0,
        "slot": "202",
        "type": "t_mapping(t_address,t_struct(TokenConfig)5656_storage)"
      }
    ],
    "types": {
      "t_address": {
        "encoding": "inplace",
        "label": "address",
        "numberOfBytes": "20"
      },
      "t_array(t_uint256)49_storage": {
        "base": "t_uint256",
        "encoding": "inplace",
        "label": "uint256[49]",
        "numberOfBytes": "1568"
      },
      "t_array(t_uint256)50_storage": {
        "base": "t_uint256",
        "encoding": "inplace",
        "label": "uint256[50]",
        "numberOfBytes": "1600"
      },
      "t_bool": {
        "encoding": "inplace",
        "label": "bool",
        "numberOfBytes": "1"
      },
      "t_bytes32": {
        "encoding": "inplace",
        "label": "bytes32",
        "numberOfBytes": "32"
      },
      "t_contract(IAccessControlManager)3293": {
        "encoding": "inplace",
        "label": "contract IAccessControlManager",
        "numberOfBytes": "20"
      },
      "t_contract(IPyth)4322": {
        "encoding": "inplace",
        "label": "contract IPyth",
        "numberOfBytes": "20"
      },
      "t_mapping(t_address,t_struct(TokenConfig)5656_storage)": {
        "encoding": "mapping",
        "key": "t_address",
        "label": "mapping(address => struct TokenConfig)",
        "numberOfBytes": "32",
        "value": "t_struct(TokenConfig)5656_storage"
      },
      "t_struct(TokenConfig)5656_storage": {
        "encoding": "inplace",
        "label": "struct TokenConfig",
        "members": [
          {
            "astId": 5651,
            "contract": "contracts/oracles/PythOracle.sol:PythOracle",
            "label": "pythId",
            "offset": 0,
            "slot": "0",
            "type": "t_bytes32"
          },
          {
            "astId": 5653,
            "contract": "contracts/oracles/PythOracle.sol:PythOracle",
            "label": "asset",
            "offset": 0,
            "slot": "1",
            "type": "t_address"
          },
          {
            "astId": 5655,
            "contract": "contracts/oracles/PythOracle.sol:PythOracle",
            "label": "maxStalePeriod",
            "offset": 20,
            "slot": "1",
            "type": "t_uint64"
          }
        ],
        "numberOfBytes": "64"
      },
      "t_uint256": {
        "encoding": "inplace",
        "label": "uint256",
        "numberOfBytes": "32"
      },
      "t_uint64": {
        "encoding": "inplace",
        "label": "uint64",
        "numberOfBytes": "8"
      },
      "t_uint8": {
        "encoding": "inplace",
        "label": "uint8",
        "numberOfBytes": "1"
      }
    }
  }
}