{
  "address": "0x95F9D968867E4fe89A1F768Ce853dB38d70eeC2B",
  "abi": [
    {
      "inputs": [
        {
          "internalType": "address",
          "name": "vBnbAddress",
          "type": "address"
        },
        {
          "internalType": "address",
          "name": "vaiAddress",
          "type": "address"
        },
        {
          "internalType": "contract BoundValidatorInterface",
          "name": "_boundValidator",
          "type": "address"
        }
      ],
      "stateMutability": "nonpayable",
      "type": "constructor"
    },
    {
      "inputs": [
        {
          "internalType": "address",
          "name": "sender",
          "type": "address"
        },
        {
          "internalType": "address",
          "name": "calledContract",
          "type": "address"
        },
        {
          "internalType": "string",
          "name": "methodSignature",
          "type": "string"
        }
      ],
      "name": "Unauthorized",
      "type": "error"
    },
    {
      "anonymous": false,
      "inputs": [
        {
          "indexed": false,
          "internalType": "uint8",
          "name": "version",
          "type": "uint8"
        }
      ],
      "name": "Initialized",
      "type": "event"
    },
    {
      "anonymous": false,
      "inputs": [
        {
          "indexed": false,
          "internalType": "address",
          "name": "oldAccessControlManager",
          "type": "address"
        },
        {
          "indexed": false,
          "internalType": "address",
          "name": "newAccessControlManager",
          "type": "address"
        }
      ],
      "name": "NewAccessControlManager",
      "type": "event"
    },
    {
      "anonymous": false,
      "inputs": [
        {
          "indexed": true,
          "internalType": "address",
          "name": "asset",
          "type": "address"
        },
        {
          "indexed": true,
          "internalType": "uint256",
          "name": "role",
          "type": "uint256"
        },
        {
          "indexed": true,
          "internalType": "bool",
          "name": "enable",
          "type": "bool"
        }
      ],
      "name": "OracleEnabled",
      "type": "event"
    },
    {
      "anonymous": false,
      "inputs": [
        {
          "indexed": true,
          "internalType": "address",
          "name": "asset",
          "type": "address"
        },
        {
          "indexed": true,
          "internalType": "address",
          "name": "oracle",
          "type": "address"
        },
        {
          "indexed": true,
          "internalType": "uint256",
          "name": "role",
          "type": "uint256"
        }
      ],
      "name": "OracleSet",
      "type": "event"
    },
    {
      "anonymous": false,
      "inputs": [
        {
          "indexed": true,
          "internalType": "address",
          "name": "previousOwner",
          "type": "address"
        },
        {
          "indexed": true,
          "internalType": "address",
          "name": "newOwner",
          "type": "address"
        }
      ],
      "name": "OwnershipTransferStarted",
      "type": "event"
    },
    {
      "anonymous": false,
      "inputs": [
        {
          "indexed": true,
          "internalType": "address",
          "name": "previousOwner",
          "type": "address"
        },
        {
          "indexed": true,
          "internalType": "address",
          "name": "newOwner",
          "type": "address"
        }
      ],
      "name": "OwnershipTransferred",
      "type": "event"
    },
    {
      "anonymous": false,
      "inputs": [
        {
          "indexed": false,
          "internalType": "address",
          "name": "account",
          "type": "address"
        }
      ],
      "name": "Paused",
      "type": "event"
    },
    {
      "anonymous": false,
      "inputs": [
        {
          "indexed": true,
          "internalType": "address",
          "name": "asset",
          "type": "address"
        },
        {
          "indexed": true,
          "internalType": "address",
          "name": "mainOracle",
          "type": "address"
        },
        {
          "indexed": true,
          "internalType": "address",
          "name": "pivotOracle",
          "type": "address"
        },
        {
          "indexed": false,
          "internalType": "address",
          "name": "fallbackOracle",
          "type": "address"
        }
      ],
      "name": "TokenConfigAdded",
      "type": "event"
    },
    {
      "anonymous": false,
      "inputs": [
        {
          "indexed": false,
          "internalType": "address",
          "name": "account",
          "type": "address"
        }
      ],
      "name": "Unpaused",
      "type": "event"
    },
    {
      "inputs": [],
      "name": "BNB_ADDR",
      "outputs": [
        {
          "internalType": "address",
          "name": "",
          "type": "address"
        }
      ],
      "stateMutability": "view",
      "type": "function"
    },
    {
      "inputs": [],
      "name": "INVALID_PRICE",
      "outputs": [
        {
          "internalType": "uint256",
          "name": "",
          "type": "uint256"
        }
      ],
      "stateMutability": "view",
      "type": "function"
    },
    {
      "inputs": [],
      "name": "acceptOwnership",
      "outputs": [],
      "stateMutability": "nonpayable",
      "type": "function"
    },
    {
      "inputs": [],
      "name": "accessControlManager",
      "outputs": [
        {
          "internalType": "contract IAccessControlManagerV8",
          "name": "",
          "type": "address"
        }
      ],
      "stateMutability": "view",
      "type": "function"
    },
    {
      "inputs": [],
      "name": "boundValidator",
      "outputs": [
        {
          "internalType": "contract BoundValidatorInterface",
          "name": "",
          "type": "address"
        }
      ],
      "stateMutability": "view",
      "type": "function"
    },
    {
      "inputs": [
        {
          "internalType": "address",
          "name": "asset",
          "type": "address"
        },
        {
          "internalType": "enum ResilientOracle.OracleRole",
          "name": "role",
          "type": "uint8"
        },
        {
          "internalType": "bool",
          "name": "enable",
          "type": "bool"
        }
      ],
      "name": "enableOracle",
      "outputs": [],
      "stateMutability": "nonpayable",
      "type": "function"
    },
    {
      "inputs": [
        {
          "internalType": "address",
          "name": "vToken",
          "type": "address"
        },
        {
          "internalType": "enum ResilientOracle.OracleRole",
          "name": "role",
          "type": "uint8"
        }
      ],
      "name": "getOracle",
      "outputs": [
        {
          "internalType": "address",
          "name": "oracle",
          "type": "address"
        },
        {
          "internalType": "bool",
          "name": "enabled",
          "type": "bool"
        }
      ],
      "stateMutability": "view",
      "type": "function"
    },
    {
      "inputs": [
        {
          "internalType": "address",
          "name": "vToken",
          "type": "address"
        }
      ],
      "name": "getTokenConfig",
      "outputs": [
        {
          "components": [
            {
              "internalType": "address",
              "name": "asset",
              "type": "address"
            },
            {
              "internalType": "address[3]",
              "name": "oracles",
              "type": "address[3]"
            },
            {
              "internalType": "bool[3]",
              "name": "enableFlagsForOracles",
              "type": "bool[3]"
            }
          ],
          "internalType": "struct ResilientOracle.TokenConfig",
          "name": "",
          "type": "tuple"
        }
      ],
      "stateMutability": "view",
      "type": "function"
    },
    {
      "inputs": [
        {
          "internalType": "address",
          "name": "vToken",
          "type": "address"
        }
      ],
      "name": "getUnderlyingPrice",
      "outputs": [
        {
          "internalType": "uint256",
          "name": "",
          "type": "uint256"
        }
      ],
      "stateMutability": "view",
      "type": "function"
    },
    {
      "inputs": [
        {
          "internalType": "address",
          "name": "accessControlManager_",
          "type": "address"
        }
      ],
      "name": "initialize",
      "outputs": [],
      "stateMutability": "nonpayable",
      "type": "function"
    },
    {
      "inputs": [],
      "name": "owner",
      "outputs": [
        {
          "internalType": "address",
          "name": "",
          "type": "address"
        }
      ],
      "stateMutability": "view",
      "type": "function"
    },
    {
      "inputs": [],
      "name": "pause",
      "outputs": [],
      "stateMutability": "nonpayable",
      "type": "function"
    },
    {
      "inputs": [],
      "name": "paused",
      "outputs": [
        {
          "internalType": "bool",
          "name": "",
          "type": "bool"
        }
      ],
      "stateMutability": "view",
      "type": "function"
    },
    {
      "inputs": [],
      "name": "pendingOwner",
      "outputs": [
        {
          "internalType": "address",
          "name": "",
          "type": "address"
        }
      ],
      "stateMutability": "view",
      "type": "function"
    },
    {
      "inputs": [],
      "name": "renounceOwnership",
      "outputs": [],
      "stateMutability": "nonpayable",
      "type": "function"
    },
    {
      "inputs": [
        {
          "internalType": "address",
          "name": "accessControlManager_",
          "type": "address"
        }
      ],
      "name": "setAccessControlManager",
      "outputs": [],
      "stateMutability": "nonpayable",
      "type": "function"
    },
    {
      "inputs": [
        {
          "internalType": "address",
          "name": "asset",
          "type": "address"
        },
        {
          "internalType": "address",
          "name": "oracle",
          "type": "address"
        },
        {
          "internalType": "enum ResilientOracle.OracleRole",
          "name": "role",
          "type": "uint8"
        }
      ],
      "name": "setOracle",
      "outputs": [],
      "stateMutability": "nonpayable",
      "type": "function"
    },
    {
      "inputs": [
        {
          "components": [
            {
              "internalType": "address",
              "name": "asset",
              "type": "address"
            },
            {
              "internalType": "address[3]",
              "name": "oracles",
              "type": "address[3]"
            },
            {
              "internalType": "bool[3]",
              "name": "enableFlagsForOracles",
              "type": "bool[3]"
            }
          ],
          "internalType": "struct ResilientOracle.TokenConfig",
          "name": "tokenConfig",
          "type": "tuple"
        }
      ],
      "name": "setTokenConfig",
      "outputs": [],
      "stateMutability": "nonpayable",
      "type": "function"
    },
    {
      "inputs": [
        {
          "components": [
            {
              "internalType": "address",
              "name": "asset",
              "type": "address"
            },
            {
              "internalType": "address[3]",
              "name": "oracles",
              "type": "address[3]"
            },
            {
              "internalType": "bool[3]",
              "name": "enableFlagsForOracles",
              "type": "bool[3]"
            }
          ],
          "internalType": "struct ResilientOracle.TokenConfig[]",
          "name": "tokenConfigs_",
          "type": "tuple[]"
        }
      ],
      "name": "setTokenConfigs",
      "outputs": [],
      "stateMutability": "nonpayable",
      "type": "function"
    },
    {
      "inputs": [
        {
          "internalType": "address",
          "name": "newOwner",
          "type": "address"
        }
      ],
      "name": "transferOwnership",
      "outputs": [],
      "stateMutability": "nonpayable",
      "type": "function"
    },
    {
      "inputs": [],
      "name": "unpause",
      "outputs": [],
      "stateMutability": "nonpayable",
      "type": "function"
    },
    {
      "inputs": [
        {
          "internalType": "address",
          "name": "vToken",
          "type": "address"
        }
      ],
      "name": "updatePrice",
      "outputs": [],
      "stateMutability": "nonpayable",
      "type": "function"
    },
    {
      "inputs": [],
      "name": "vBnb",
      "outputs": [
        {
          "internalType": "address",
          "name": "",
          "type": "address"
        }
      ],
      "stateMutability": "view",
      "type": "function"
    },
    {
      "inputs": [],
      "name": "vai",
      "outputs": [
        {
          "internalType": "address",
          "name": "",
          "type": "address"
        }
      ],
      "stateMutability": "view",
      "type": "function"
    }
  ],
  "transactionHash": "0x6612750d01a13fb2c84521dd776a3d23b857612a08c83afbe2b6648bfcfc54a5",
  "args": [
    "0xA07c5b74C9B40447a954e1466938b865b6BBea36",
    "0x4BD17003473389A42DAF6a0a729f6Fdb328BbBd7",
    "0x6E332fF0bB52475304494E4AE5063c1051c7d735"
  ],
  "numDeployments": 1,
  "solcInputHash": "aae9f1601b873a5a4704ede73ede10cb",
  "bytecode": "0x60e06040523480156200001157600080fd5b506040516200224038038062002240833981016040819052620000349162000217565b826001600160a01b038116620000805760405162461bcd60e51b815260206004820152601560248201526000805160206200222083398151915260448201526064015b60405180910390fd5b826001600160a01b038116620000c85760405162461bcd60e51b8152602060048201526015602482015260008051602062002220833981519152604482015260640162000077565b826001600160a01b038116620001105760405162461bcd60e51b8152602060048201526015602482015260008051602062002220833981519152604482015260640162000077565b6001600160a01b0380871660805285811660a052841660c052620001336200013f565b5050505050506200026b565b600054610100900460ff1615620001a95760405162461bcd60e51b815260206004820152602760248201527f496e697469616c697a61626c653a20636f6e747261637420697320696e697469604482015266616c697a696e6760c81b606482015260840162000077565b60005460ff9081161015620001fc576000805460ff191660ff9081179091556040519081527f7f26b83ff96e1f2b6a682f133852f6798a09c465da95921460cefb38474024989060200160405180910390a15b565b6001600160a01b03811681146200021457600080fd5b50565b6000806000606084860312156200022d57600080fd5b83516200023a81620001fe565b60208501519093506200024d81620001fe565b60408501519092506200026081620001fe565b809150509250925092565b60805160a05160c051611f5b620002c56000396000818161019d01528181610f3d015281816114db015261164b0152600081816102fc015281816112b401526112ee01526000818161022d01526112600152611f5b6000f3fe608060405234801561001057600080fd5b50600436106101585760003560e01c80638456cb59116100c3578063b62e4c921161007c578063b62e4c92146102f7578063c4d66de81461031e578063cb67e3b114610331578063e30c397814610351578063f2fde38b14610362578063fc57d4df1461037557600080fd5b80638456cb59146102755780638b855da41461027d5780638da5cb5b146102af57806396e85ced146102c0578063a6b1344a146102d3578063b4a0bdf3146102e657600080fd5b80634b932b8f116101155780634b932b8f146101ff5780634bf39cba146102125780635ba3792d146102285780635c975abb1461024f578063715018a61461026557806379ba50971461026d57600080fd5b80630e32cb861461015d5780632cfa387114610172578063333a21b01461018557806333d33494146101985780633e83b6b8146101dc5780633f4ba83a146101f7575b600080fd5b61017061016b3660046119d1565b610388565b005b610170610180366004611b63565b61039c565b610170610193366004611c13565b610422565b6101bf7f000000000000000000000000000000000000000000000000000000000000000081565b6040516001600160a01b0390911681526020015b60405180910390f35b6101bf73bbbbbbbbbbbbbbbbbbbbbbbbbbbbbbbbbbbbbbbb81565b610170610574565b61017061020d366004611c3e565b6105a8565b61021a600081565b6040519081526020016101d3565b6101bf7f000000000000000000000000000000000000000000000000000000000000000081565b60335460ff1660405190151581526020016101d3565b61017061071e565b610170610730565b6101706107a7565b61029061028b366004611c87565b6107d7565b604080516001600160a01b0390931683529015156020830152016101d3565b6065546001600160a01b03166101bf565b6101706102ce3660046119d1565b610889565b6101706102e1366004611cbc565b610925565b60c9546001600160a01b03166101bf565b6101bf7f000000000000000000000000000000000000000000000000000000000000000081565b61017061032c3660046119d1565b610b27565b61034461033f3660046119d1565b610c43565b6040516101d39190611d03565b6097546001600160a01b03166101bf565b6101706103703660046119d1565b610d25565b61021a6103833660046119d1565b610d96565b610390611002565b6103998161105c565b50565b80516000036103e65760405162461bcd60e51b815260206004820152601160248201527006c656e6774682063616e2774206265203607c1b60448201526064015b60405180910390fd5b805160005b8181101561041d5761041583828151811061040857610408611d7e565b6020026020010151610422565b6001016103eb565b505050565b80516001600160a01b03811661044a5760405162461bcd60e51b81526004016103dd90611d94565b6020820151516001600160a01b0381166104765760405162461bcd60e51b81526004016103dd90611d94565b6104b46040518060400160405280601b81526020017f736574546f6b656e436f6e66696728546f6b656e436f6e66696729000000000081525061111a565b82516001600160a01b03908116600090815260fb60209081526040909120855181546001600160a01b03191693169290921782558401518491906104fe906001830190600361186f565b50604082015161051490600483019060036118c7565b505050602083810151808201518151865160409384015193516001600160a01b039485168152928416949184169316917fa51ad01e2270c314a7b78f0c60fe66c723f2d06c121d63fcdce776e654878fc1910160405180910390a4505050565b61059e60405180604001604052806009815260200168756e7061757365282960b81b81525061111a565b6105a66111b4565b565b826001600160a01b0381166105cf5760405162461bcd60e51b81526004016103dd90611d94565b6001600160a01b03808516600090815260fb60205260409020548591166106325760405162461bcd60e51b81526020600482015260176024820152761d1bdad95b8818dbdb999a59c81b5d5cdd08195e1a5cdd604a1b60448201526064016103dd565b6106706040518060400160405280602081526020017f656e61626c654f7261636c6528616464726573732c75696e74382c626f6f6c2981525061111a565b6001600160a01b038516600090815260fb60205260409020839060040185600281111561069f5761069f611dc3565b600381106106af576106af611d7e565b602091828204019190066101000a81548160ff0219169083151502179055508215158460028111156106e3576106e3611dc3565b6040516001600160a01b038816907fcf3cad1ec87208efbde5d82a0557484a78d4182c3ad16926a5463bc1f7234b3d90600090a45050505050565b610726611002565b6105a66000611206565b60975433906001600160a01b0316811461079e5760405162461bcd60e51b815260206004820152602960248201527f4f776e61626c6532537465703a2063616c6c6572206973206e6f7420746865206044820152683732bb9037bbb732b960b91b60648201526084016103dd565b61039981611206565b6107cf604051806040016040528060078152602001667061757365282960c81b81525061111a565b6105a661121f565b60008060006107e58561125c565b6001600160a01b038116600090815260fb6020526040902090915060010184600281111561081557610815611dc3565b6003811061082557610825611d7e565b01546001600160a01b03828116600090815260fb602052604090209116935060040184600281111561085957610859611dc3565b6003811061086957610869611d7e565b602091828204019190069054906101000a900460ff169150509250929050565b6000806108978360016107d7565b90925090506001600160a01b038216158015906108b15750805b1561041d5760405163725068a560e01b81526001600160a01b03848116600483015283169063725068a5906024016020604051808303816000875af192505050801561091a575060408051601f3d908101601f1916820190925261091791810190611dd9565b60015b1561041d5750505050565b826001600160a01b03811661094c5760405162461bcd60e51b81526004016103dd90611d94565b6001600160a01b03808516600090815260fb60205260409020548591166109af5760405162461bcd60e51b81526020600482015260176024820152761d1bdad95b8818dbdb999a59c81b5d5cdd08195e1a5cdd604a1b60448201526064016103dd565b6109ed6040518060400160405280602081526020017f7365744f7261636c6528616464726573732c616464726573732c75696e74382981525061111a565b6001600160a01b038416158015610a1557506000836002811115610a1357610a13611dc3565b145b15610a705760405162461bcd60e51b815260206004820152602560248201527f63616e277420736574207a65726f206164647265737320746f206d61696e206f6044820152647261636c6560d81b60648201526084016103dd565b6001600160a01b038516600090815260fb602052604090208490600101846002811115610a9f57610a9f611dc3565b60038110610aaf57610aaf611d7e565b0180546001600160a01b0319166001600160a01b0392909216919091179055826002811115610ae057610ae0611dc3565b846001600160a01b0316866001600160a01b03167fea681d3efb830ef032a9c29a7215b5ceeeb546250d2c463dbf87817aecda1bf160405160405180910390a45050505050565b600054610100900460ff1615808015610b475750600054600160ff909116105b80610b615750303b158015610b61575060005460ff166001145b610bc45760405162461bcd60e51b815260206004820152602e60248201527f496e697469616c697a61626c653a20636f6e747261637420697320616c72656160448201526d191e481a5b9a5d1a585b1a5e995960921b60648201526084016103dd565b6000805460ff191660011790558015610be7576000805461ff0019166101001790555b610bf08261137c565b610bf86113b4565b8015610c3f576000805461ff0019169055604051600181527f7f26b83ff96e1f2b6a682f133852f6798a09c465da95921460cefb3847402498906020015b60405180910390a15b5050565b610c4b611954565b6000610c568361125c565b6001600160a01b03818116600090815260fb6020908152604091829020825160608082018552825490951681528351948501938490529495509290840191600184019060039082845b81546001600160a01b03168152600190910190602001808311610c9f575050509183525050604080516060810191829052602090920191906004840190600390826000855b825461010083900a900460ff161515815260206001928301818104948501949093039092029101808411610ce4579050505050505081525050915050919050565b610d2d611002565b609780546001600160a01b0383166001600160a01b03199091168117909155610d5e6065546001600160a01b031690565b6001600160a01b03167f38d16b8cac22d99fc7c124b9cd0de2d3fa1faef420bfe791d8c362d765e2270060405160405180910390a350565b6000610da460335460ff1690565b15610df15760405162461bcd60e51b815260206004820152601a60248201527f726573696c69656e74206f7261636c652069732070617573656400000000000060448201526064016103dd565b60008080610e008560016107d7565b91509150808015610e1957506001600160a01b03821615155b15610e885760405163fc57d4df60e01b81526001600160a01b03868116600483015283169063fc57d4df90602401602060405180830381865afa925050508015610e80575060408051601f3d908101601f19168201909252610e7d91810190611dd9565b60015b15610e885792505b600080610eaa8786858015610ea557506001600160a01b03871615155b6113e3565b9150915060008214158015610ebc5750805b15610ecb575095945050505050565b600080610ed88988611566565b9150915060008214158015610eea5750805b15610efb5750979650505050505050565b8315801590610f0957508115155b8015610fa85750604051634be3819f60e11b81526001600160a01b038a8116600483015260248201869052604482018490527f000000000000000000000000000000000000000000000000000000000000000016906397c7033e90606401602060405180830381865afa158015610f84573d6000803e3d6000fd5b505050506040513d601f19601f82011682018060405250810190610fa89190611df2565b15610fba575091979650505050505050565b60405162461bcd60e51b815260206004820152601e60248201527f696e76616c696420726573696c69656e74206f7261636c65207072696365000060448201526064016103dd565b6065546001600160a01b031633146105a65760405162461bcd60e51b815260206004820181905260248201527f4f776e61626c653a2063616c6c6572206973206e6f7420746865206f776e657260448201526064016103dd565b6001600160a01b0381166110c05760405162461bcd60e51b815260206004820152602560248201527f696e76616c696420616365737320636f6e74726f6c206d616e61676572206164604482015264647265737360d81b60648201526084016103dd565b60c980546001600160a01b038381166001600160a01b031983168117909355604080519190921680825260208201939093527f66fd58e82f7b31a2a5c30e0888f3093efe4e111b00cd2b0c31fe014601293aa09101610c36565b60c9546040516318c5e8ab60e01b81526000916001600160a01b0316906318c5e8ab9061114d9033908690600401611e5c565b602060405180830381865afa15801561116a573d6000803e3d6000fd5b505050506040513d601f19601f8201168201806040525081019061118e9190611df2565b905080610c3f57333083604051634a3fa29360e01b81526004016103dd93929190611e88565b6111bc6116d5565b6033805460ff191690557f5db9ee0a495bf2e6ff9c91a7834c1ba4fdd244a5e8aa4e537bd38aeae4b073aa335b6040516001600160a01b03909116815260200160405180910390a1565b609780546001600160a01b03191690556103998161171e565b611227611770565b6033805460ff191660011790557f62e78cea01bee320cd4e420270b5ea74000d11b0c9f74754ebdbfc544b05a2586111e93390565b60007f00000000000000000000000000000000000000000000000000000000000000006001600160a01b0316826001600160a01b0316036112b2575073bbbbbbbbbbbbbbbbbbbbbbbbbbbbbbbbbbbbbbbb919050565b7f00000000000000000000000000000000000000000000000000000000000000006001600160a01b0316826001600160a01b03160361131257507f0000000000000000000000000000000000000000000000000000000000000000919050565b816001600160a01b0316636f307dc36040518163ffffffff1660e01b8152600401602060405180830381865afa158015611350573d6000803e3d6000fd5b505050506040513d601f19601f820116820180604052508101906113749190611ebd565b90505b919050565b600054610100900460ff166113a35760405162461bcd60e51b81526004016103dd90611eda565b6113ab6117b6565b610399816117e5565b600054610100900460ff166113db5760405162461bcd60e51b81526004016103dd90611eda565b6105a661180c565b6000806000806113f48760006107d7565b9150915080801561140d57506001600160a01b03821615155b156115545760405163fc57d4df60e01b81526001600160a01b03888116600483015283169063fc57d4df90602401602060405180830381865afa925050508015611474575060408051601f3d908101601f1916820190925261147191810190611dd9565b60015b6114865760008093509350505061155e565b856114995793506001925061155e915050565b866114ac5793506000925061155e915050565b604051634be3819f60e11b81526001600160a01b038981166004830152602482018390526044820189905282917f0000000000000000000000000000000000000000000000000000000000000000909116906397c7033e90606401602060405180830381865afa158015611524573d6000803e3d6000fd5b505050506040513d601f19601f820116820180604052508101906115489190611df2565b9450945050505061155e565b6000809350935050505b935093915050565b6000806000806115778660026107d7565b9150915080801561159057506001600160a01b03821615155b156116c45760405163fc57d4df60e01b81526001600160a01b03878116600483015283169063fc57d4df90602401602060405180830381865afa9250505080156115f7575060408051601f3d908101601f191682019092526115f491810190611dd9565b60015b611609576000809350935050506116ce565b8561161c579350600092506116ce915050565b604051634be3819f60e11b81526001600160a01b038881166004830152602482018390526044820188905282917f0000000000000000000000000000000000000000000000000000000000000000909116906397c7033e90606401602060405180830381865afa158015611694573d6000803e3d6000fd5b505050506040513d601f19601f820116820180604052508101906116b89190611df2565b945094505050506116ce565b6000809350935050505b9250929050565b60335460ff166105a65760405162461bcd60e51b815260206004820152601460248201527314185d5cd8589b194e881b9bdd081c185d5cd95960621b60448201526064016103dd565b606580546001600160a01b038381166001600160a01b0319831681179093556040519116919082907f8be0079c531659141344cd1fd0a4f28419497f9722a3daafe3b4186f6b6457e090600090a35050565b60335460ff16156105a65760405162461bcd60e51b815260206004820152601060248201526f14185d5cd8589b194e881c185d5cd95960821b60448201526064016103dd565b600054610100900460ff166117dd5760405162461bcd60e51b81526004016103dd90611eda565b6105a661183f565b600054610100900460ff166103905760405162461bcd60e51b81526004016103dd90611eda565b600054610100900460ff166118335760405162461bcd60e51b81526004016103dd90611eda565b6033805460ff19169055565b600054610100900460ff166118665760405162461bcd60e51b81526004016103dd90611eda565b6105a633611206565b82600381019282156118b7579160200282015b828111156118b757825182546001600160a01b0319166001600160a01b03909116178255602090920191600190910190611882565b506118c3929150611989565b5090565b6001830191839082156118b75791602002820160005b8382111561191a57835183826101000a81548160ff02191690831515021790555092602001926001016020816000010492830192600103026118dd565b80156119475782816101000a81549060ff021916905560010160208160000104928301926001030261191a565b50506118c3929150611989565b604051806060016040528060006001600160a01b0316815260200161197761199e565b815260200161198461199e565b905290565b5b808211156118c3576000815560010161198a565b60405180606001604052806003906020820280368337509192915050565b6001600160a01b038116811461039957600080fd5b6000602082840312156119e357600080fd5b81356119ee816119bc565b9392505050565b634e487b7160e01b600052604160045260246000fd5b6040516060810167ffffffffffffffff81118282101715611a2e57611a2e6119f5565b60405290565b604051601f8201601f1916810167ffffffffffffffff81118282101715611a5d57611a5d6119f5565b604052919050565b801515811461039957600080fd5b600082601f830112611a8457600080fd5b611a8c611a0b565b806060840185811115611a9e57600080fd5b845b81811015611ac1578035611ab381611a65565b845260209384019301611aa0565b509095945050505050565b600060e08284031215611ade57600080fd5b611ae6611a0b565b90508135611af3816119bc565b81526020603f83018413611b0657600080fd5b611b0e611a0b565b806080850186811115611b2057600080fd5b8386015b81811015611b44578035611b37816119bc565b8452928401928401611b24565b508184860152611b548782611a73565b60408601525050505092915050565b60006020808385031215611b7657600080fd5b823567ffffffffffffffff80821115611b8e57600080fd5b818501915085601f830112611ba257600080fd5b813581811115611bb457611bb46119f5565b611bc2848260051b01611a34565b818152848101925060e0918202840185019188831115611be157600080fd5b938501935b82851015611c0757611bf88986611acc565b84529384019392850192611be6565b50979650505050505050565b600060e08284031215611c2557600080fd5b6119ee8383611acc565b80356003811061137757600080fd5b600080600060608486031215611c5357600080fd5b8335611c5e816119bc565b9250611c6c60208501611c2f565b91506040840135611c7c81611a65565b809150509250925092565b60008060408385031215611c9a57600080fd5b8235611ca5816119bc565b9150611cb360208401611c2f565b90509250929050565b600080600060608486031215611cd157600080fd5b8335611cdc816119bc565b92506020840135611cec816119bc565b9150611cfa60408501611c2f565b90509250925092565b81516001600160a01b03908116825260208084015160e0840192919081850160005b6003811015611d44578251851682529183019190830190600101611d25565b505050604085015191506080840160005b6003811015611d74578351151582529282019290820190600101611d55565b5050505092915050565b634e487b7160e01b600052603260045260246000fd5b60208082526015908201527463616e2774206265207a65726f206164647265737360581b604082015260600190565b634e487b7160e01b600052602160045260246000fd5b600060208284031215611deb57600080fd5b5051919050565b600060208284031215611e0457600080fd5b81516119ee81611a65565b6000815180845260005b81811015611e3557602081850181015186830182015201611e19565b81811115611e47576000602083870101525b50601f01601f19169290920160200192915050565b6001600160a01b0383168152604060208201819052600090611e8090830184611e0f565b949350505050565b6001600160a01b03848116825283166020820152606060408201819052600090611eb490830184611e0f565b95945050505050565b600060208284031215611ecf57600080fd5b81516119ee816119bc565b6020808252602b908201527f496e697469616c697a61626c653a20636f6e7472616374206973206e6f74206960408201526a6e697469616c697a696e6760a81b60608201526080019056fea2646970667358221220e79186f27c02864972a9c0dbea0e8a74a094aee6ad9ab92dc5e80958c2c891e864736f6c634300080d003363616e2774206265207a65726f20616464726573730000000000000000000000",
  "devdoc": {
    "kind": "dev",
    "methods": {
      "acceptOwnership()": {
        "details": "The new owner accepts the ownership transfer."
      },
      "constructor": {
        "custom:oz-upgrades-unsafe-allow": "constructor",
        "params": {
          "_boundValidator": "Address of the bound validator contract",
          "vBnbAddress": "The address of the vBNB",
          "vaiAddress": "The address of the VAI"
        }
      },
      "enableOracle(address,uint8,bool)": {
        "custom:access": "Only Governance",
        "custom:error": "NotNullAddress error is thrown if asset address is nullTokenConfigExistance error is thrown if token config is not set",
        "params": {
          "asset": "Asset address",
          "enable": "Enabled boolean of the oracle",
          "role": "Oracle role"
        }
      },
      "getOracle(address,uint8)": {
        "params": {
          "role": "Oracle role",
          "vToken": "vToken address"
        },
        "returns": {
          "enabled": "Enabled flag of the oracle based on token config",
          "oracle": "Oracle address based on role"
        }
      },
      "getTokenConfig(address)": {
        "details": "Gets token config by vToken address",
        "params": {
          "vToken": "vToken address"
        },
        "returns": {
          "_0": "tokenConfig Config for the vToken"
        }
      },
      "getUnderlyingPrice(address)": {
        "custom:error": "Paused error is thrown when resilent oracle is pausedInvalid resilient oracle price error is thrown if fetched prices from oracle is invalid",
        "params": {
          "vToken": "vToken address"
        },
        "returns": {
          "_0": "price USD price in scaled decimal places."
        }
      },
      "initialize(address)": {
        "params": {
          "accessControlManager_": "Address of the access control manager contract"
        }
      },
      "owner()": {
        "details": "Returns the address of the current owner."
      },
      "pause()": {
        "custom:access": "Only Governance"
      },
      "paused()": {
        "details": "Returns true if the contract is paused, and false otherwise."
      },
      "pendingOwner()": {
        "details": "Returns the address of the pending owner."
      },
      "renounceOwnership()": {
        "details": "Leaves the contract without owner. It will not be possible to call `onlyOwner` functions anymore. Can only be called by the current owner. NOTE: Renouncing ownership will leave the contract without an owner, thereby removing any functionality that is only available to the owner."
      },
      "setAccessControlManager(address)": {
        "custom:access": "Only Governance",
        "custom:event": "Emits NewAccessControlManager event",
        "details": "Admin function to set address of AccessControlManager",
        "params": {
          "accessControlManager_": "The new address of the AccessControlManager"
        }
      },
      "setOracle(address,address,uint8)": {
        "custom:access": "Only Governance",
        "custom:error": "Null address error if main-role oracle address is nullNotNullAddress error is thrown if asset address is nullTokenConfigExistance error is thrown if token config is not set",
        "custom:event": "Emits OracleSet event with asset address, oracle address and role of the oracle for the asset",
        "details": "Supplied vToken **must** exist and main oracle may not be null",
        "params": {
          "asset": "Asset address",
          "oracle": "Oracle address",
          "role": "Oracle role"
        }
      },
      "setTokenConfig((address,address[3],bool[3]))": {
        "custom:access": "Only Governance",
        "custom:error": "NotNullAddress is thrown if asset address is nullNotNullAddress is thrown if main-role oracle address for asset is null",
        "custom:event": "Emits TokenConfigAdded event when vToken config is set successfully by governnace",
        "details": "main oracle **must not** be a null address",
        "params": {
          "tokenConfig": "Token config struct"
        }
      },
      "setTokenConfigs((address,address[3],bool[3])[])": {
        "custom:access": "Only Governance",
        "custom:error": "Throws a length error if the length of the token configs array is 0",
        "params": {
          "tokenConfigs_": "Token config array"
        }
      },
      "transferOwnership(address)": {
        "details": "Starts the ownership transfer of the contract to a new account. Replaces the pending transfer if there is one. Can only be called by the current owner."
      },
      "unpause()": {
        "custom:access": "Only Governance"
      },
      "updatePrice(address)": {
        "details": "This function should always be called before calling getUnderlyingPrice",
        "params": {
          "vToken": "vToken address"
        }
      }
    },
    "stateVariables": {
      "boundValidator": {
        "custom:oz-upgrades-unsafe-allow": "state-variable-immutable"
      },
      "vBnb": {
        "custom:oz-upgrades-unsafe-allow": "state-variable-immutable"
      },
      "vai": {
        "custom:oz-upgrades-unsafe-allow": "state-variable-immutable"
      }
    },
    "version": 1
  },
  "userdoc": {
    "errors": {
      "Unauthorized(address,address,string)": [
        {
          "notice": "Thrown when the action is prohibited by AccessControlManager"
        }
      ]
    },
    "events": {
      "NewAccessControlManager(address,address)": {
        "notice": "Emitted when access control manager contract address is changed"
      },
      "OracleEnabled(address,uint256,bool)": {
        "notice": "Event emitted when an oracle is enabled or disabled"
      },
      "OracleSet(address,address,uint256)": {
        "notice": "Event emitted when an oracle is set"
      }
    },
    "kind": "user",
    "methods": {
      "BNB_ADDR()": {
        "notice": "Set this as asset address for BNB. This is the underlying for vBNB"
      },
      "accessControlManager()": {
        "notice": "Returns the address of the access control manager contract"
      },
      "boundValidator()": {
        "notice": "Bound validator contract address"
      },
      "constructor": {
        "notice": "Constructor for the implementation contract. Sets immutable variables."
      },
      "enableOracle(address,uint8,bool)": {
        "notice": "Enables/ disables oracle for the input vToken, input vToken **must** exist"
      },
      "getOracle(address,uint8)": {
        "notice": "Gets oracle and enabled status by vToken address"
      },
      "getUnderlyingPrice(address)": {
        "notice": "Gets price of the underlying asset for a given vToken. Validation flow: - Check if the oracle is paused globally - Validate price from main oracle against pivot oracle - Validate price from fallback oracle against pivot oracle if the first validation failed - Validate price from main oracle against fallback oracle if the second validation failed In the case that the pivot oracle is not available but main price is available and validation is successful, main oracle price is returned."
      },
      "initialize(address)": {
        "notice": "Initializes the contract admin and sets the BoundValidator contract address"
      },
      "pause()": {
        "notice": "Pauses oracle"
      },
      "setAccessControlManager(address)": {
        "notice": "Sets the address of AccessControlManager"
      },
      "setOracle(address,address,uint8)": {
        "notice": "Sets oracle for a given vToken and role."
      },
      "setTokenConfig((address,address[3],bool[3]))": {
        "notice": "Sets/resets single token configs."
      },
      "setTokenConfigs((address,address[3],bool[3])[])": {
        "notice": "Batch sets token configs"
      },
      "unpause()": {
        "notice": "Unpauses oracle"
      },
      "updatePrice(address)": {
        "notice": "Updates the TWAP pivot oracle price."
      },
      "vBnb()": {
        "notice": "vBNB address"
      },
      "vai()": {
        "notice": "VAI address"
      }
    },
    "version": 1
  },
  "storageLayout": {
    "storage": [
      {
        "astId": 290,
        "contract": "contracts/ResilientOracle.sol:ResilientOracle",
        "label": "_initialized",
        "offset": 0,
        "slot": "0",
        "type": "t_uint8"
      },
      {
        "astId": 293,
        "contract": "contracts/ResilientOracle.sol:ResilientOracle",
        "label": "_initializing",
        "offset": 1,
        "slot": "0",
        "type": "t_bool"
      },
      {
        "astId": 904,
        "contract": "contracts/ResilientOracle.sol:ResilientOracle",
        "label": "__gap",
        "offset": 0,
        "slot": "1",
        "type": "t_array(t_uint256)50_storage"
      },
      {
        "astId": 473,
        "contract": "contracts/ResilientOracle.sol:ResilientOracle",
        "label": "_paused",
        "offset": 0,
        "slot": "51",
        "type": "t_bool"
      },
      {
        "astId": 578,
        "contract": "contracts/ResilientOracle.sol:ResilientOracle",
        "label": "__gap",
        "offset": 0,
        "slot": "52",
        "type": "t_array(t_uint256)49_storage"
      },
      {
        "astId": 162,
        "contract": "contracts/ResilientOracle.sol:ResilientOracle",
        "label": "_owner",
        "offset": 0,
        "slot": "101",
        "type": "t_address"
      },
      {
        "astId": 282,
        "contract": "contracts/ResilientOracle.sol:ResilientOracle",
        "label": "__gap",
        "offset": 0,
        "slot": "102",
        "type": "t_array(t_uint256)49_storage"
      },
      {
        "astId": 71,
        "contract": "contracts/ResilientOracle.sol:ResilientOracle",
        "label": "_pendingOwner",
        "offset": 0,
        "slot": "151",
        "type": "t_address"
      },
      {
        "astId": 150,
        "contract": "contracts/ResilientOracle.sol:ResilientOracle",
        "label": "__gap",
        "offset": 0,
        "slot": "152",
        "type": "t_array(t_uint256)49_storage"
      },
      {
        "astId": 3350,
        "contract": "contracts/ResilientOracle.sol:ResilientOracle",
        "label": "_accessControlManager",
        "offset": 0,
        "slot": "201",
        "type": "t_contract(IAccessControlManagerV8)3534"
      },
      {
        "astId": 3355,
        "contract": "contracts/ResilientOracle.sol:ResilientOracle",
        "label": "__gap",
        "offset": 0,
        "slot": "202",
        "type": "t_array(t_uint256)49_storage"
      },
      {
        "astId": 3586,
        "contract": "contracts/ResilientOracle.sol:ResilientOracle",
        "label": "tokenConfigs",
        "offset": 0,
        "slot": "251",
        "type": "t_mapping(t_address,t_struct(TokenConfig)3564_storage)"
      }
    ],
    "types": {
      "t_address": {
        "encoding": "inplace",
        "label": "address",
        "numberOfBytes": "20"
      },
      "t_array(t_address)3_storage": {
        "base": "t_address",
        "encoding": "inplace",
        "label": "address[3]",
        "numberOfBytes": "96"
      },
      "t_array(t_bool)3_storage": {
        "base": "t_bool",
        "encoding": "inplace",
        "label": "bool[3]",
        "numberOfBytes": "32"
      },
      "t_array(t_uint256)49_storage": {
        "base": "t_uint256",
        "encoding": "inplace",
        "label": "uint256[49]",
        "numberOfBytes": "1568"
      },
      "t_array(t_uint256)50_storage": {
        "base": "t_uint256",
        "encoding": "inplace",
        "label": "uint256[50]",
        "numberOfBytes": "1600"
      },
      "t_bool": {
        "encoding": "inplace",
        "label": "bool",
        "numberOfBytes": "1"
      },
      "t_contract(IAccessControlManagerV8)3534": {
        "encoding": "inplace",
        "label": "contract IAccessControlManagerV8",
        "numberOfBytes": "20"
      },
      "t_mapping(t_address,t_struct(TokenConfig)3564_storage)": {
        "encoding": "mapping",
        "key": "t_address",
        "label": "mapping(address => struct ResilientOracle.TokenConfig)",
        "numberOfBytes": "32",
        "value": "t_struct(TokenConfig)3564_storage"
      },
      "t_struct(TokenConfig)3564_storage": {
        "encoding": "inplace",
        "label": "struct ResilientOracle.TokenConfig",
        "members": [
          {
            "astId": 3553,
            "contract": "contracts/ResilientOracle.sol:ResilientOracle",
            "label": "asset",
            "offset": 0,
            "slot": "0",
            "type": "t_address"
          },
          {
            "astId": 3558,
            "contract": "contracts/ResilientOracle.sol:ResilientOracle",
            "label": "oracles",
            "offset": 0,
            "slot": "1",
            "type": "t_array(t_address)3_storage"
          },
          {
            "astId": 3563,
            "contract": "contracts/ResilientOracle.sol:ResilientOracle",
            "label": "enableFlagsForOracles",
            "offset": 0,
            "slot": "4",
            "type": "t_array(t_bool)3_storage"
          }
        ],
        "numberOfBytes": "160"
      },
      "t_uint256": {
        "encoding": "inplace",
        "label": "uint256",
        "numberOfBytes": "32"
      },
      "t_uint8": {
        "encoding": "inplace",
        "label": "uint8",
        "numberOfBytes": "1"
      }
    }
  }
}