{
  "address": "0xA7C432c50D310c805c8342488921A108b585397F",
  "abi": [
    {
      "inputs": [
        {
          "internalType": "address",
          "name": "stakePool",
          "type": "address"
        },
        {
          "internalType": "address",
          "name": "stkBNB",
          "type": "address"
        },
        {
          "internalType": "address",
          "name": "resilientOracle",
          "type": "address"
        }
      ],
      "stateMutability": "nonpayable",
      "type": "constructor"
    },
    {
      "inputs": [],
      "name": "InvalidTokenAddress",
      "type": "error"
    },
    {
      "inputs": [],
      "name": "PoolTokenSupplyIsZero",
      "type": "error"
    },
    {
      "inputs": [],
      "name": "ZeroAddressNotAllowed",
      "type": "error"
    },
    {
      "inputs": [],
      "name": "CORRELATED_TOKEN",
      "outputs": [
        {
          "internalType": "address",
          "name": "",
          "type": "address"
        }
      ],
      "stateMutability": "view",
      "type": "function"
    },
    {
      "inputs": [],
      "name": "NATIVE_TOKEN_ADDR",
      "outputs": [
        {
          "internalType": "address",
          "name": "",
          "type": "address"
        }
      ],
      "stateMutability": "view",
      "type": "function"
    },
    {
      "inputs": [],
      "name": "RESILIENT_ORACLE",
      "outputs": [
        {
          "internalType": "contract OracleInterface",
          "name": "",
          "type": "address"
        }
      ],
      "stateMutability": "view",
      "type": "function"
    },
    {
      "inputs": [],
      "name": "STAKE_POOL",
      "outputs": [
        {
          "internalType": "contract IPStakePool",
          "name": "",
          "type": "address"
        }
      ],
      "stateMutability": "view",
      "type": "function"
    },
    {
      "inputs": [],
      "name": "UNDERLYING_TOKEN",
      "outputs": [
        {
          "internalType": "address",
          "name": "",
          "type": "address"
        }
      ],
      "stateMutability": "view",
      "type": "function"
    },
    {
      "inputs": [
        {
          "internalType": "address",
          "name": "asset",
          "type": "address"
        }
      ],
      "name": "getPrice",
      "outputs": [
        {
          "internalType": "uint256",
          "name": "",
          "type": "uint256"
        }
      ],
      "stateMutability": "view",
      "type": "function"
    }
  ],
  "transactionHash": "0x631a6a2ca707e4a3fbca91c8d5bd28af56392fb68357e3a08c9ffb9a7f32a81a",
  "args": [
    "0xC228CefDF841dEfDbD5B3a18dFD414cC0dbfa0D8",
    "0xc2E9d07F66A89c44062459A47a0D2Dc038E4fb16",
    "0x6592b5DE802159F3E74B2486b091D11a8256ab8A"
  ],
  "numDeployments": 1,
  "solcInputHash": "99b3bea8181cef11bcfb39c4212459c2",
  "bytecode": "0x61010060405234801561001157600080fd5b506040516107b03803806107b0833981016040819052610030916100dc565b8173bbbbbbbbbbbbbbbbbbbbbbbbbbbbbbbbbbbbbbbb8261005083610096565b61005982610096565b61006281610096565b6001600160a01b0392831660805290821660a0521660c05261008383610096565b50506001600160a01b031660e05261011f565b6001600160a01b0381166100bd576040516342bcdf7f60e11b815260040160405180910390fd5b50565b80516001600160a01b03811681146100d757600080fd5b919050565b6000806000606084860312156100f157600080fd5b6100fa846100c0565b9250610108602085016100c0565b9150610116604085016100c0565b90509250925092565b60805160a05160c05160e0516106386101786000396000818160b0015261032801526000818161011f01526101ff015260008181606c01526101d101526000818160f801528181610160015261027001526106386000f3fe608060405234801561001057600080fd5b50600436106100625760003560e01c806329db1be6146100675780633a26dc4f146100ab57806341976e09146100d257806369818a35146100f3578063a4edcd4c1461011a578063a9534f8a14610141575b600080fd5b61008e7f000000000000000000000000000000000000000000000000000000000000000081565b6040516001600160a01b0390911681526020015b60405180910390f35b61008e7f000000000000000000000000000000000000000000000000000000000000000081565b6100e56100e03660046103f8565b61015c565b6040519081526020016100a2565b61008e7f000000000000000000000000000000000000000000000000000000000000000081565b61008e7f000000000000000000000000000000000000000000000000000000000000000081565b61008e73bbbbbbbbbbbbbbbbbbbbbbbbbbbbbbbbbbbbbbbb81565b60007f00000000000000000000000000000000000000000000000000000000000000006001600160a01b0316826001600160a01b0316146101b057604051630f58058360e11b815260040160405180910390fd5b60006101ba610323565b6040516341976e0960e01b81526001600160a01b037f0000000000000000000000000000000000000000000000000000000000000000811660048301529192506000917f000000000000000000000000000000000000000000000000000000000000000016906341976e0990602401602060405180830381865afa158015610246573d6000803e3d6000fd5b505050506040513d601f19601f8201168201806040525081019061026a9190610428565b905060007f000000000000000000000000000000000000000000000000000000000000000090506000816001600160a01b031663313ce5676040518163ffffffff1660e01b8152600401602060405180830381865afa1580156102d1573d6000803e3d6000fd5b505050506040513d601f19601f820116820180604052508101906102f59190610441565b60ff16905061030581600a610560565b61030f848661056c565b6103199190610583565b9695505050505050565b6000807f00000000000000000000000000000000000000000000000000000000000000006001600160a01b0316633ba0b9a96040518163ffffffff1660e01b81526004016040805180830381865afa158015610383573d6000803e3d6000fd5b505050506040513d601f19601f820116820180604052508101906103a791906105a5565b905080602001516000036103ce5760405163386c978360e21b815260040160405180910390fd5b602081015181516103e890670de0b6b3a76400009061056c565b6103f29190610583565b91505090565b60006020828403121561040a57600080fd5b81356001600160a01b038116811461042157600080fd5b9392505050565b60006020828403121561043a57600080fd5b5051919050565b60006020828403121561045357600080fd5b815160ff8116811461042157600080fd5b634e487b7160e01b600052601160045260246000fd5b600181815b808511156104b557816000190482111561049b5761049b610464565b808516156104a857918102915b93841c939080029061047f565b509250929050565b6000826104cc5750600161055a565b816104d95750600061055a565b81600181146104ef57600281146104f957610515565b600191505061055a565b60ff84111561050a5761050a610464565b50506001821b61055a565b5060208310610133831016604e8410600b8410161715610538575081810a61055a565b610542838361047a565b806000190482111561055657610556610464565b0290505b92915050565b600061042183836104bd565b808202811582820484141761055a5761055a610464565b6000826105a057634e487b7160e01b600052601260045260246000fd5b500490565b6000604082840312156105b757600080fd5b6040516040810181811067ffffffffffffffff821117156105e857634e487b7160e01b600052604160045260246000fd5b60405282518152602092830151928101929092525091905056fea2646970667358221220fc14b81f1ab232b357f1a3954496b0ffb6119074a761a258a57193d49224e16564736f6c63430008190033",
  "devdoc": {
    "author": "Venus",
    "kind": "dev",
    "methods": {
      "constructor": {
        "custom:oz-upgrades-unsafe-allow": "constructor"
      },
      "getPrice(address)": {
        "params": {
          "asset": "Address of the correlated token"
        },
        "returns": {
          "_0": "price The price of the correlated token in scaled decimal places"
        }
      }
    },
    "stateVariables": {
      "STAKE_POOL": {
        "custom:oz-upgrades-unsafe-allow": "state-variable-immutable"
      }
    },
    "title": "StkBNBOracle",
    "version": 1
  },
  "userdoc": {
    "errors": {
      "InvalidTokenAddress()": [
        {
          "notice": "Thrown if the token address is invalid"
        }
      ],
      "PoolTokenSupplyIsZero()": [
        {
          "notice": "Thrown if the pool token supply is zero"
        }
      ],
      "ZeroAddressNotAllowed()": [
        {
          "notice": "Thrown if the supplied address is a zero address where it is not allowed"
        }
      ]
    },
    "kind": "user",
    "methods": {
      "CORRELATED_TOKEN()": {
        "notice": "Address of the correlated token"
      },
      "NATIVE_TOKEN_ADDR()": {
        "notice": "This is used as token address of BNB on BSC"
      },
      "RESILIENT_ORACLE()": {
        "notice": "Address of Resilient Oracle"
      },
      "STAKE_POOL()": {
        "notice": "Address of StakePool"
      },
      "UNDERLYING_TOKEN()": {
        "notice": "Address of the underlying token"
      },
      "constructor": {
        "notice": "Constructor for the implementation contract."
      },
      "getPrice(address)": {
        "notice": "Fetches the price of the correlated token"
      }
    },
    "notice": "This oracle fetches the price of stkBNB asset",
    "version": 1
  },
  "storageLayout": {
    "storage": [],
    "types": null
  }
}