{
  "address": "0x9c79160d3ADF2436CE37379186DA37F2D3bbf92A",
  "abi": [
    {
      "inputs": [
        {
          "internalType": "address",
          "name": "wbeth",
          "type": "address"
        },
        {
          "internalType": "address",
          "name": "eth",
          "type": "address"
        },
        {
          "internalType": "address",
          "name": "resilientOracle",
          "type": "address"
        }
      ],
      "stateMutability": "nonpayable",
      "type": "constructor"
    },
    {
      "inputs": [],
      "name": "InvalidTokenAddress",
      "type": "error"
    },
    {
      "inputs": [],
      "name": "ZeroAddressNotAllowed",
      "type": "error"
    },
    {
      "inputs": [],
      "name": "CORRELATED_TOKEN",
      "outputs": [
        {
          "internalType": "address",
          "name": "",
          "type": "address"
        }
      ],
      "stateMutability": "view",
      "type": "function"
    },
    {
      "inputs": [],
      "name": "RESILIENT_ORACLE",
      "outputs": [
        {
          "internalType": "contract OracleInterface",
          "name": "",
          "type": "address"
        }
      ],
      "stateMutability": "view",
      "type": "function"
    },
    {
      "inputs": [],
      "name": "UNDERLYING_TOKEN",
      "outputs": [
        {
          "internalType": "address",
          "name": "",
          "type": "address"
        }
      ],
      "stateMutability": "view",
      "type": "function"
    },
    {
      "inputs": [
        {
          "internalType": "address",
          "name": "asset",
          "type": "address"
        }
      ],
      "name": "getPrice",
      "outputs": [
        {
          "internalType": "uint256",
          "name": "",
          "type": "uint256"
        }
      ],
      "stateMutability": "view",
      "type": "function"
    }
  ],
  "transactionHash": "0xf009b311711bce731862231bd69cfe7714a47b462c31bbadff0afa45a6095c41",
  "args": [
    "0xa2e3356610840701bdf5611a53974510ae27e2e1",
    "0x2170Ed0880ac9A755fd29B2688956BD959F933F8",
    "0x6592b5DE802159F3E74B2486b091D11a8256ab8A"
  ],
  "numDeployments": 1,
  "solcInputHash": "99b3bea8181cef11bcfb39c4212459c2",
  "bytecode": "0x60e060405234801561001057600080fd5b5060405161067d38038061067d83398101604081905261002f916100b4565b82828261003b8361006e565b6100448261006e565b61004d8161006e565b6001600160a01b0392831660805290821660a0521660c052506100f7915050565b6001600160a01b038116610095576040516342bcdf7f60e11b815260040160405180910390fd5b50565b80516001600160a01b03811681146100af57600080fd5b919050565b6000806000606084860312156100c957600080fd5b6100d284610098565b92506100e060208501610098565b91506100ee60408501610098565b90509250925092565b60805160a05160c0516105376101466000396000818160e201526101a70152600081816056015261017901526000818160bb015281816101080152818161021801526102cf01526105376000f3fe608060405234801561001057600080fd5b506004361061004c5760003560e01c806329db1be61461005157806341976e091461009557806369818a35146100b6578063a4edcd4c146100dd575b600080fd5b6100787f000000000000000000000000000000000000000000000000000000000000000081565b6040516001600160a01b0390911681526020015b60405180910390f35b6100a86100a3366004610354565b610104565b60405190815260200161008c565b6100787f000000000000000000000000000000000000000000000000000000000000000081565b6100787f000000000000000000000000000000000000000000000000000000000000000081565b60007f00000000000000000000000000000000000000000000000000000000000000006001600160a01b0316826001600160a01b03161461015857604051630f58058360e11b815260040160405180910390fd5b60006101626102cb565b6040516341976e0960e01b81526001600160a01b037f0000000000000000000000000000000000000000000000000000000000000000811660048301529192506000917f000000000000000000000000000000000000000000000000000000000000000016906341976e0990602401602060405180830381865afa1580156101ee573d6000803e3d6000fd5b505050506040513d601f19601f820116820180604052508101906102129190610384565b905060007f000000000000000000000000000000000000000000000000000000000000000090506000816001600160a01b031663313ce5676040518163ffffffff1660e01b8152600401602060405180830381865afa158015610279573d6000803e3d6000fd5b505050506040513d601f19601f8201168201806040525081019061029d919061039d565b60ff1690506102ad81600a6104bc565b6102b784866104c8565b6102c191906104df565b9695505050505050565b60007f00000000000000000000000000000000000000000000000000000000000000006001600160a01b0316633ba0b9a96040518163ffffffff1660e01b8152600401602060405180830381865afa15801561032b573d6000803e3d6000fd5b505050506040513d601f19601f8201168201806040525081019061034f9190610384565b905090565b60006020828403121561036657600080fd5b81356001600160a01b038116811461037d57600080fd5b9392505050565b60006020828403121561039657600080fd5b5051919050565b6000602082840312156103af57600080fd5b815160ff8116811461037d57600080fd5b634e487b7160e01b600052601160045260246000fd5b600181815b808511156104115781600019048211156103f7576103f76103c0565b8085161561040457918102915b93841c93908002906103db565b509250929050565b600082610428575060016104b6565b81610435575060006104b6565b816001811461044b576002811461045557610471565b60019150506104b6565b60ff841115610466576104666103c0565b50506001821b6104b6565b5060208310610133831016604e8410600b8410161715610494575081810a6104b6565b61049e83836103d6565b80600019048211156104b2576104b26103c0565b0290505b92915050565b600061037d8383610419565b80820281158282048414176104b6576104b66103c0565b6000826104fc57634e487b7160e01b600052601260045260246000fd5b50049056fea2646970667358221220103949984f9c4f17b5df1a73c01f5a014b6db6dee8d4d0409b4c5ace1db2733d64736f6c63430008190033",
  "devdoc": {
    "author": "Venus",
    "kind": "dev",
    "methods": {
      "constructor": {
        "custom:oz-upgrades-unsafe-allow": "constructor"
      },
      "getPrice(address)": {
        "params": {
          "asset": "Address of the correlated token"
        },
        "returns": {
          "_0": "price The price of the correlated token in scaled decimal places"
        }
      }
    },
    "title": "WBETHOracle",
    "version": 1
  },
  "userdoc": {
    "errors": {
      "InvalidTokenAddress()": [
        {
          "notice": "Thrown if the token address is invalid"
        }
      ],
      "ZeroAddressNotAllowed()": [
        {
          "notice": "Thrown if the supplied address is a zero address where it is not allowed"
        }
      ]
    },
    "kind": "user",
    "methods": {
      "CORRELATED_TOKEN()": {
        "notice": "Address of the correlated token"
      },
      "RESILIENT_ORACLE()": {
        "notice": "Address of Resilient Oracle"
      },
      "UNDERLYING_TOKEN()": {
        "notice": "Address of the underlying token"
      },
      "constructor": {
        "notice": "Constructor for the implementation contract."
      },
      "getPrice(address)": {
        "notice": "Fetches the price of the correlated token"
      }
    },
    "notice": "This oracle fetches the price of wBETH asset",
    "version": 1
  },
  "storageLayout": {
    "storage": [],
    "types": null
  }
}