{
  "address": "0x7655d558c3C865913013D82fF4d1e70e97cDf906",
  "abi": [
    {
      "inputs": [
        {
          "internalType": "address",
          "name": "ankrBNB",
          "type": "address"
        },
        {
          "internalType": "address",
          "name": "resilientOracle",
          "type": "address"
        },
        {
          "internalType": "uint256",
          "name": "annualGrowthRate",
          "type": "uint256"
        },
        {
          "internalType": "uint256",
          "name": "_snapshotInterval",
          "type": "uint256"
        },
        {
          "internalType": "uint256",
          "name": "initialSnapshotMaxExchangeRate",
          "type": "uint256"
        },
        {
          "internalType": "uint256",
          "name": "initialSnapshotTimestamp",
          "type": "uint256"
        },
        {
          "internalType": "address",
          "name": "accessControlManager",
          "type": "address"
        },
        {
          "internalType": "uint256",
          "name": "_snapshotGap",
          "type": "uint256"
        }
      ],
      "stateMutability": "nonpayable",
      "type": "constructor"
    },
    {
      "inputs": [],
      "name": "InvalidGrowthRate",
      "type": "error"
    },
    {
      "inputs": [],
      "name": "InvalidInitialSnapshot",
      "type": "error"
    },
    {
      "inputs": [],
      "name": "InvalidSnapshotMaxExchangeRate",
      "type": "error"
    },
    {
      "inputs": [],
      "name": "InvalidTokenAddress",
      "type": "error"
    },
    {
      "inputs": [
        {
          "internalType": "address",
          "name": "sender",
          "type": "address"
        },
        {
          "internalType": "address",
          "name": "calledContract",
          "type": "address"
        },
        {
          "internalType": "string",
          "name": "methodSignature",
          "type": "string"
        }
      ],
      "name": "Unauthorized",
      "type": "error"
    },
    {
      "inputs": [],
      "name": "ZeroAddressNotAllowed",
      "type": "error"
    },
    {
      "anonymous": false,
      "inputs": [
        {
          "indexed": true,
          "internalType": "uint256",
          "name": "oldGrowthRatePerSecond",
          "type": "uint256"
        },
        {
          "indexed": true,
          "internalType": "uint256",
          "name": "newGrowthRatePerSecond",
          "type": "uint256"
        },
        {
          "indexed": true,
          "internalType": "uint256",
          "name": "oldSnapshotInterval",
          "type": "uint256"
        },
        {
          "indexed": false,
          "internalType": "uint256",
          "name": "newSnapshotInterval",
          "type": "uint256"
        }
      ],
      "name": "GrowthRateUpdated",
      "type": "event"
    },
    {
      "anonymous": false,
      "inputs": [
        {
          "indexed": true,
          "internalType": "uint256",
          "name": "oldSnapshotGap",
          "type": "uint256"
        },
        {
          "indexed": true,
          "internalType": "uint256",
          "name": "newSnapshotGap",
          "type": "uint256"
        }
      ],
      "name": "SnapshotGapUpdated",
      "type": "event"
    },
    {
      "anonymous": false,
      "inputs": [
        {
          "indexed": true,
          "internalType": "uint256",
          "name": "maxExchangeRate",
          "type": "uint256"
        },
        {
          "indexed": true,
          "internalType": "uint256",
          "name": "timestamp",
          "type": "uint256"
        }
      ],
      "name": "SnapshotUpdated",
      "type": "event"
    },
    {
      "inputs": [],
      "name": "ACCESS_CONTROL_MANAGER",
      "outputs": [
        {
          "internalType": "contract IAccessControlManagerV8",
          "name": "",
          "type": "address"
        }
      ],
      "stateMutability": "view",
      "type": "function"
    },
    {
      "inputs": [],
      "name": "CORRELATED_TOKEN",
      "outputs": [
        {
          "internalType": "address",
          "name": "",
          "type": "address"
        }
      ],
      "stateMutability": "view",
      "type": "function"
    },
    {
      "inputs": [],
      "name": "NATIVE_TOKEN_ADDR",
      "outputs": [
        {
          "internalType": "address",
          "name": "",
          "type": "address"
        }
      ],
      "stateMutability": "view",
      "type": "function"
    },
    {
      "inputs": [],
      "name": "RESILIENT_ORACLE",
      "outputs": [
        {
          "internalType": "contract ResilientOracleInterface",
          "name": "",
          "type": "address"
        }
      ],
      "stateMutability": "view",
      "type": "function"
    },
    {
      "inputs": [],
      "name": "UNDERLYING_TOKEN",
      "outputs": [
        {
          "internalType": "address",
          "name": "",
          "type": "address"
        }
      ],
      "stateMutability": "view",
      "type": "function"
    },
    {
      "inputs": [],
      "name": "getMaxAllowedExchangeRate",
      "outputs": [
        {
          "internalType": "uint256",
          "name": "",
          "type": "uint256"
        }
      ],
      "stateMutability": "view",
      "type": "function"
    },
    {
      "inputs": [
        {
          "internalType": "address",
          "name": "asset",
          "type": "address"
        }
      ],
      "name": "getPrice",
      "outputs": [
        {
          "internalType": "uint256",
          "name": "",
          "type": "uint256"
        }
      ],
      "stateMutability": "view",
      "type": "function"
    },
    {
      "inputs": [],
      "name": "getUnderlyingAmount",
      "outputs": [
        {
          "internalType": "uint256",
          "name": "",
          "type": "uint256"
        }
      ],
      "stateMutability": "view",
      "type": "function"
    },
    {
      "inputs": [],
      "name": "growthRatePerSecond",
      "outputs": [
        {
          "internalType": "uint256",
          "name": "",
          "type": "uint256"
        }
      ],
      "stateMutability": "view",
      "type": "function"
    },
    {
      "inputs": [],
      "name": "isCapped",
      "outputs": [
        {
          "internalType": "bool",
          "name": "",
          "type": "bool"
        }
      ],
      "stateMutability": "view",
      "type": "function"
    },
    {
      "inputs": [
        {
          "internalType": "uint256",
          "name": "_annualGrowthRate",
          "type": "uint256"
        },
        {
          "internalType": "uint256",
          "name": "_snapshotInterval",
          "type": "uint256"
        }
      ],
      "name": "setGrowthRate",
      "outputs": [],
      "stateMutability": "nonpayable",
      "type": "function"
    },
    {
      "inputs": [
        {
          "internalType": "uint256",
          "name": "_snapshotMaxExchangeRate",
          "type": "uint256"
        },
        {
          "internalType": "uint256",
          "name": "_snapshotTimestamp",
          "type": "uint256"
        }
      ],
      "name": "setSnapshot",
      "outputs": [],
      "stateMutability": "nonpayable",
      "type": "function"
    },
    {
      "inputs": [
        {
          "internalType": "uint256",
          "name": "_snapshotGap",
          "type": "uint256"
        }
      ],
      "name": "setSnapshotGap",
      "outputs": [],
      "stateMutability": "nonpayable",
      "type": "function"
    },
    {
      "inputs": [],
      "name": "snapshotGap",
      "outputs": [
        {
          "internalType": "uint256",
          "name": "",
          "type": "uint256"
        }
      ],
      "stateMutability": "view",
      "type": "function"
    },
    {
      "inputs": [],
      "name": "snapshotInterval",
      "outputs": [
        {
          "internalType": "uint256",
          "name": "",
          "type": "uint256"
        }
      ],
      "stateMutability": "view",
      "type": "function"
    },
    {
      "inputs": [],
      "name": "snapshotMaxExchangeRate",
      "outputs": [
        {
          "internalType": "uint256",
          "name": "",
          "type": "uint256"
        }
      ],
      "stateMutability": "view",
      "type": "function"
    },
    {
      "inputs": [],
      "name": "snapshotTimestamp",
      "outputs": [
        {
          "internalType": "uint256",
          "name": "",
          "type": "uint256"
        }
      ],
      "stateMutability": "view",
      "type": "function"
    },
    {
      "inputs": [],
      "name": "updateSnapshot",
      "outputs": [],
      "stateMutability": "nonpayable",
      "type": "function"
    }
  ],
  "transactionHash": "0x3d7ddfc1b5e3531f2bf10fcc5ca027ca09591c4a06e7af4f85545c4a4c644cfa",
  "args": [
    "0x5269b7558D3d5E113010Ef1cFF0901c367849CC9",
    "0x3cD69251D04A28d887Ac14cbe2E14c52F3D57823",
    0,
    0,
    0,
    0,
    "0x45f8a08F534f34A97187626E05d4b6648Eeaa9AA",
    0
  ],
  "numDeployments": 1,
  "solcInputHash": "8100be9851a60cd39397bcc019f102c9",
  "bytecode": "0x610100604052348015610010575f80fd5b50604051610ecf380380610ecf83398101604081905261002f91610178565b8773bbbbbbbbbbbbbbbbbbbbbbbbbbbbbbbbbbbbbbbb8888888888888861005a6301e13380876101e7565b5f81905515801561006a57505f85115b8061007e57505f805411801561007e575084155b1561009c576040516353b7e64560e11b815260040160405180910390fd5b8315806100a7575082155b80156100b257505f85115b156100d05760405163b8a5589b60e01b815260040160405180910390fd5b6100d989610133565b6100e288610133565b6100eb87610133565b6100f482610133565b6001600160a01b0398891660805296881660a05294871660c052600192909255600255600355506004919091551660e052506102069650505050505050565b6001600160a01b03811661015a576040516342bcdf7f60e11b815260040160405180910390fd5b50565b80516001600160a01b0381168114610173575f80fd5b919050565b5f805f805f805f80610100898b031215610190575f80fd5b6101998961015d565b97506101a760208a0161015d565b965060408901519550606089015194506080890151935060a089015192506101d160c08a0161015d565b915060e089015190509295985092959890939650565b5f8261020157634e487b7160e01b5f52601260045260245ffd5b500490565b60805160a05160c05160e051610c5e6102715f395f818161019101526108e701525f818161024c0152818161059001526107ba01525f818161013601528181610568015261078e01525f8181610209015281816102a4015281816106b401526108280152610c5e5ff3fe608060405234801561000f575f80fd5b5060043610610111575f3560e01c8063692404261161009e578063a4edcd4c1161006e578063a4edcd4c14610247578063a9534f8a1461026e578063abb8561314610289578063ac5a693e14610291578063bdf13af214610299575f80fd5b806369240426146101fc57806369818a35146102045780637fc4e4a01461022b5780639c43eb541461023e575f80fd5b806345be2dc7116100e457806345be2dc71461018c5780635213f9c8146101b3578063596efe6f146101c8578063643d813d146101d1578063671528d4146101e4575f80fd5b806307d0413c1461011557806329db1be6146101315780634169d2451461017057806341976e0914610179575b5f80fd5b61011e60015481565b6040519081526020015b60405180910390f35b6101587f000000000000000000000000000000000000000000000000000000000000000081565b6040516001600160a01b039091168152602001610128565b61011e60045481565b61011e610187366004610990565b6102a1565b6101587f000000000000000000000000000000000000000000000000000000000000000081565b6101c66101c13660046109b6565b610352565b005b61011e60025481565b6101c66101df3660046109cd565b6103c3565b6101ec610499565b6040519015158152602001610128565b6101c66104d4565b6101587f000000000000000000000000000000000000000000000000000000000000000081565b6101c66102393660046109cd565b61061d565b61011e60035481565b6101587f000000000000000000000000000000000000000000000000000000000000000081565b61015873bbbbbbbbbbbbbbbbbbbbbbbbbbbbbbbbbbbbbbbb81565b61011e610695565b61011e5f5481565b61011e61072a565b5f7f00000000000000000000000000000000000000000000000000000000000000006001600160a01b0316826001600160a01b0316146102f457604051630f58058360e11b815260040160405180910390fd5b5f6102fd610695565b90506001545f036103185761031181610777565b9392505050565b5f61032161072a565b90505f818311801561033257508115155b61033c578261033e565b815b905061034981610777565b95945050505050565b6103906040518060400160405280601781526020017f736574536e617073686f744761702875696e74323536290000000000000000008152506108ce565b6004546040518291907feb3716d3f8388c182853c1dc98b18931f3a600bbab31f2ff48631f6412e4997f905f90a3600455565b6104016040518060400160405280601e81526020017f73657447726f777468526174652875696e743235362c75696e743235362900008152506108ce565b5f546104116301e1338084610a01565b5f81905515801561042157505f82115b8061043557505f8054118015610435575081155b15610453576040516353b7e64560e11b815260040160405180910390fd5b6001545f54827fa65cbeb0e28a8803a912daac67c472c160aa01e2c988755fa424f290321de6088560405161048a91815260200190565b60405180910390a45060015550565b5f6001545f036104a857505f90565b5f6104b161072a565b9050805f036104c1575f91505090565b5f6104ca610695565b9190911192915050565b6001546003546104e49042610a20565b10806104f05750600154155b156104f757565b5f610500610695565b90505f61050b61072a565b905060045481831161051d578261051f565b815b6105299190610a39565b6002819055426003555f0361055157604051635f18388760e01b815260040160405180910390fd5b60405163b62cad6960e01b81526001600160a01b037f0000000000000000000000000000000000000000000000000000000000000000811660048301527f0000000000000000000000000000000000000000000000000000000000000000169063b62cad69906024015f604051808303815f87803b1580156105d1575f80fd5b505af11580156105e3573d5f803e3d5ffd5b505050506003546002547f2c8c8fcb8c77a0ca21dcc3ab8fc0ade761557e76b1240cb40ebbef9fcee00f7d60405160405180910390a35050565b61065b6040518060400160405280601c81526020017f736574536e617073686f742875696e743235362c75696e7432353629000000008152506108ce565b60028290556003819055604051819083907f2c8c8fcb8c77a0ca21dcc3ab8fc0ade761557e76b1240cb40ebbef9fcee00f7d905f90a35050565b604051636c58d43d60e01b8152670de0b6b3a764000060048201525f907f00000000000000000000000000000000000000000000000000000000000000006001600160a01b031690636c58d43d90602401602060405180830381865afa158015610701573d5f803e3d5ffd5b505050506040513d601f19601f820116820180604052508101906107259190610a4c565b905090565b5f806003544261073a9190610a20565b90505f670de0b6b3a7640000825f546002546107569190610a63565b6107609190610a63565b61076a9190610a01565b6002546103119190610a39565b6040516341976e0960e01b81526001600160a01b037f0000000000000000000000000000000000000000000000000000000000000000811660048301525f9182917f000000000000000000000000000000000000000000000000000000000000000016906341976e0990602401602060405180830381865afa1580156107ff573d5f803e3d5ffd5b505050506040513d601f19601f820116820180604052508101906108239190610a4c565b90505f7f000000000000000000000000000000000000000000000000000000000000000090505f816001600160a01b031663313ce5676040518163ffffffff1660e01b8152600401602060405180830381865afa158015610886573d5f803e3d5ffd5b505050506040513d601f19601f820116820180604052508101906108aa9190610a7a565b60ff1690506108ba81600a610b7a565b6108c48487610a63565b6103499190610a01565b6040516318c5e8ab60e01b81525f906001600160a01b037f000000000000000000000000000000000000000000000000000000000000000016906318c5e8ab9061091e9033908690600401610bb3565b602060405180830381865afa158015610939573d5f803e3d5ffd5b505050506040513d601f19601f8201168201806040525081019061095d9190610bde565b90508061098c57333083604051634a3fa29360e01b815260040161098393929190610bfd565b60405180910390fd5b5050565b5f602082840312156109a0575f80fd5b81356001600160a01b0381168114610311575f80fd5b5f602082840312156109c6575f80fd5b5035919050565b5f80604083850312156109de575f80fd5b50508035926020909101359150565b634e487b7160e01b5f52601160045260245ffd5b5f82610a1b57634e487b7160e01b5f52601260045260245ffd5b500490565b81810381811115610a3357610a336109ed565b92915050565b80820180821115610a3357610a336109ed565b5f60208284031215610a5c575f80fd5b5051919050565b8082028115828204841417610a3357610a336109ed565b5f60208284031215610a8a575f80fd5b815160ff81168114610311575f80fd5b600181815b80851115610ad457815f1904821115610aba57610aba6109ed565b80851615610ac757918102915b93841c9390800290610a9f565b509250929050565b5f82610aea57506001610a33565b81610af657505f610a33565b8160018114610b0c5760028114610b1657610b32565b6001915050610a33565b60ff841115610b2757610b276109ed565b50506001821b610a33565b5060208310610133831016604e8410600b8410161715610b55575081810a610a33565b610b5f8383610a9a565b805f1904821115610b7257610b726109ed565b029392505050565b5f6103118383610adc565b5f81518084528060208401602086015e5f602082860101526020601f19601f83011685010191505092915050565b6001600160a01b03831681526040602082018190525f90610bd690830184610b85565b949350505050565b5f60208284031215610bee575f80fd5b81518015158114610311575f80fd5b6001600160a01b038481168252831660208201526060604082018190525f9061034990830184610b8556fea2646970667358221220232a6927c2dc46cbe45e41ef15c2fc0056a85806be158551987128f87d99544c64736f6c63430008190033",
  "devdoc": {
    "author": "Venus",
    "kind": "dev",
    "methods": {
      "getMaxAllowedExchangeRate()": {
        "returns": {
          "_0": "maxExchangeRate Maximum allowed exchange rate"
        }
      },
      "getPrice(address)": {
        "custom:error": "InvalidTokenAddress error is thrown if the token address is invalid",
        "params": {
          "asset": "Address of the token"
        },
        "returns": {
          "_0": "price The price of the token in scaled decimal places. It can be capped to a maximum value taking into account the growth rate"
        }
      },
      "getUnderlyingAmount()": {
        "returns": {
          "_0": "amount The amount of BNB for ankrBNB"
        }
      },
      "isCapped()": {
        "returns": {
          "_0": "isCapped Boolean indicating if the price is capped"
        }
      },
      "setGrowthRate(uint256,uint256)": {
        "custom:error": "InvalidGrowthRate error is thrown if the growth rate is invalid",
        "custom:event": "Emits GrowthRateUpdated event on successful update of the growth rate",
        "params": {
          "_annualGrowthRate": "The annual growth rate to set",
          "_snapshotInterval": "The snapshot interval to set"
        }
      },
      "setSnapshot(uint256,uint256)": {
        "custom:event": "Emits SnapshotUpdated event on successful update of the snapshot",
        "params": {
          "_snapshotMaxExchangeRate": "The exchange rate to set",
          "_snapshotTimestamp": "The timestamp to set"
        }
      },
      "setSnapshotGap(uint256)": {
        "custom:event": "Emits SnapshotGapUpdated event on successful update of the snapshot gap",
        "params": {
          "_snapshotGap": "The snapshot gap to set"
        }
      },
      "updateSnapshot()": {
        "custom:error": "InvalidSnapshotMaxExchangeRate error is thrown if the max snapshot exchange rate is zero",
        "custom:event": "Emits SnapshotUpdated event on successful update of the snapshot"
      }
    },
    "title": "AnkrBNBOracle",
    "version": 1
  },
  "userdoc": {
    "errors": {
      "InvalidGrowthRate()": [
        {
          "notice": "Thrown if the growth rate is invalid"
        }
      ],
      "InvalidInitialSnapshot()": [
        {
          "notice": "Thrown if the initial snapshot is invalid"
        }
      ],
      "InvalidSnapshotMaxExchangeRate()": [
        {
          "notice": "Thrown if the max snapshot exchange rate is invalid"
        }
      ],
      "InvalidTokenAddress()": [
        {
          "notice": "Thrown if the token address is invalid"
        }
      ],
      "Unauthorized(address,address,string)": [
        {
          "notice": "@notice Thrown when the action is prohibited by AccessControlManager"
        }
      ],
      "ZeroAddressNotAllowed()": [
        {
          "notice": "Thrown if the supplied address is a zero address where it is not allowed"
        }
      ]
    },
    "events": {
      "GrowthRateUpdated(uint256,uint256,uint256,uint256)": {
        "notice": "Emitted when the growth rate is updated"
      },
      "SnapshotGapUpdated(uint256,uint256)": {
        "notice": "Emitted when the snapshot gap is updated"
      },
      "SnapshotUpdated(uint256,uint256)": {
        "notice": "Emitted when the snapshot is updated"
      }
    },
    "kind": "user",
    "methods": {
      "ACCESS_CONTROL_MANAGER()": {
        "notice": "Address of the AccessControlManager contract"
      },
      "CORRELATED_TOKEN()": {
        "notice": "Address of the correlated token"
      },
      "NATIVE_TOKEN_ADDR()": {
        "notice": "This is used as token address of BNB on BSC"
      },
      "RESILIENT_ORACLE()": {
        "notice": "Address of Resilient Oracle"
      },
      "UNDERLYING_TOKEN()": {
        "notice": "Address of the underlying token"
      },
      "constructor": {
        "notice": "Constructor for the implementation contract."
      },
      "getMaxAllowedExchangeRate()": {
        "notice": "Gets the maximum allowed exchange rate for token"
      },
      "getPrice(address)": {
        "notice": "Fetches the price of the token"
      },
      "getUnderlyingAmount()": {
        "notice": "Fetches the amount of BNB for 1 ankrBNB"
      },
      "isCapped()": {
        "notice": "Returns if the price is capped"
      },
      "setGrowthRate(uint256,uint256)": {
        "notice": "Sets the growth rate and snapshot interval"
      },
      "setSnapshot(uint256,uint256)": {
        "notice": "Directly sets the snapshot exchange rate and timestamp"
      },
      "setSnapshotGap(uint256)": {
        "notice": "Sets the snapshot gap"
      },
      "snapshotGap()": {
        "notice": "Gap to add when updating the snapshot"
      },
      "snapshotInterval()": {
        "notice": "Snapshot update interval"
      },
      "snapshotMaxExchangeRate()": {
        "notice": "Last stored snapshot maximum exchange rate"
      },
      "snapshotTimestamp()": {
        "notice": "Last stored snapshot timestamp"
      },
      "updateSnapshot()": {
        "notice": "Updates the snapshot price and timestamp"
      }
    },
    "notice": "This oracle fetches the price of ankrBNB asset",
    "version": 1
  },
  "storageLayout": {
    "storage": [
      {
        "astId": 6407,
        "contract": "contracts/oracles/AnkrBNBOracle.sol:AnkrBNBOracle",
        "label": "growthRatePerSecond",
        "offset": 0,
        "slot": "0",
        "type": "t_uint256"
      },
      {
        "astId": 6410,
        "contract": "contracts/oracles/AnkrBNBOracle.sol:AnkrBNBOracle",
        "label": "snapshotInterval",
        "offset": 0,
        "slot": "1",
        "type": "t_uint256"
      },
      {
        "astId": 6413,
        "contract": "contracts/oracles/AnkrBNBOracle.sol:AnkrBNBOracle",
        "label": "snapshotMaxExchangeRate",
        "offset": 0,
        "slot": "2",
        "type": "t_uint256"
      },
      {
        "astId": 6416,
        "contract": "contracts/oracles/AnkrBNBOracle.sol:AnkrBNBOracle",
        "label": "snapshotTimestamp",
        "offset": 0,
        "slot": "3",
        "type": "t_uint256"
      },
      {
        "astId": 6419,
        "contract": "contracts/oracles/AnkrBNBOracle.sol:AnkrBNBOracle",
        "label": "snapshotGap",
        "offset": 0,
        "slot": "4",
        "type": "t_uint256"
      }
    ],
    "types": {
      "t_uint256": {
        "encoding": "inplace",
        "label": "uint256",
        "numberOfBytes": "32"
      }
    }
  }
}