{
  "address": "0x41b4FB760587C33525B6cd22e2Ba60373e6Ae430",
  "abi": [
    {
      "inputs": [
        {
          "internalType": "address",
          "name": "ankrBNB",
          "type": "address"
        },
        {
          "internalType": "address",
          "name": "resilientOracle",
          "type": "address"
        }
      ],
      "stateMutability": "nonpayable",
      "type": "constructor"
    },
    {
      "inputs": [],
      "name": "InvalidTokenAddress",
      "type": "error"
    },
    {
      "inputs": [],
      "name": "ZeroAddressNotAllowed",
      "type": "error"
    },
    {
      "inputs": [],
      "name": "CORRELATED_TOKEN",
      "outputs": [
        {
          "internalType": "address",
          "name": "",
          "type": "address"
        }
      ],
      "stateMutability": "view",
      "type": "function"
    },
    {
      "inputs": [],
      "name": "NATIVE_TOKEN_ADDR",
      "outputs": [
        {
          "internalType": "address",
          "name": "",
          "type": "address"
        }
      ],
      "stateMutability": "view",
      "type": "function"
    },
    {
      "inputs": [],
      "name": "RESILIENT_ORACLE",
      "outputs": [
        {
          "internalType": "contract OracleInterface",
          "name": "",
          "type": "address"
        }
      ],
      "stateMutability": "view",
      "type": "function"
    },
    {
      "inputs": [],
      "name": "UNDERLYING_TOKEN",
      "outputs": [
        {
          "internalType": "address",
          "name": "",
          "type": "address"
        }
      ],
      "stateMutability": "view",
      "type": "function"
    },
    {
      "inputs": [
        {
          "internalType": "address",
          "name": "asset",
          "type": "address"
        }
      ],
      "name": "getPrice",
      "outputs": [
        {
          "internalType": "uint256",
          "name": "",
          "type": "uint256"
        }
      ],
      "stateMutability": "view",
      "type": "function"
    }
  ],
  "transactionHash": "0x749d990729ad71bd469527c0e45c78b002f9729bc84fa528773daa4e6f65d88d",
  "args": [
    "0x5269b7558D3d5E113010Ef1cFF0901c367849CC9",
    "0x3cD69251D04A28d887Ac14cbe2E14c52F3D57823"
  ],
  "numDeployments": 1,
  "solcInputHash": "99b3bea8181cef11bcfb39c4212459c2",
  "bytecode": "0x60e060405234801561001057600080fd5b506040516106b53803806106b583398101604081905261002f916100c7565b8173bbbbbbbbbbbbbbbbbbbbbbbbbbbbbbbbbbbbbbbb8261004f83610081565b61005882610081565b61006181610081565b6001600160a01b0392831660805290821660a0521660c052506100fa9050565b6001600160a01b0381166100a8576040516342bcdf7f60e11b815260040160405180910390fd5b50565b80516001600160a01b03811681146100c257600080fd5b919050565b600080604083850312156100da57600080fd5b6100e3836100ab565b91506100f1602084016100ab565b90509250929050565b60805160a05160c05161056c6101496000396000818160ed01526101cd0152600081816061015261019f01526000818160c60152818161012e0152818161023e0152610311015261056c6000f3fe608060405234801561001057600080fd5b50600436106100575760003560e01c806329db1be61461005c57806341976e09146100a057806369818a35146100c1578063a4edcd4c146100e8578063a9534f8a1461010f575b600080fd5b6100837f000000000000000000000000000000000000000000000000000000000000000081565b6040516001600160a01b0390911681526020015b60405180910390f35b6100b36100ae366004610389565b61012a565b604051908152602001610097565b6100837f000000000000000000000000000000000000000000000000000000000000000081565b6100837f000000000000000000000000000000000000000000000000000000000000000081565b61008373bbbbbbbbbbbbbbbbbbbbbbbbbbbbbbbbbbbbbbbb81565b60007f00000000000000000000000000000000000000000000000000000000000000006001600160a01b0316826001600160a01b03161461017e57604051630f58058360e11b815260040160405180910390fd5b60006101886102f1565b6040516341976e0960e01b81526001600160a01b037f0000000000000000000000000000000000000000000000000000000000000000811660048301529192506000917f000000000000000000000000000000000000000000000000000000000000000016906341976e0990602401602060405180830381865afa158015610214573d6000803e3d6000fd5b505050506040513d601f19601f8201168201806040525081019061023891906103b9565b905060007f000000000000000000000000000000000000000000000000000000000000000090506000816001600160a01b031663313ce5676040518163ffffffff1660e01b8152600401602060405180830381865afa15801561029f573d6000803e3d6000fd5b505050506040513d601f19601f820116820180604052508101906102c391906103d2565b60ff1690506102d381600a6104f1565b6102dd84866104fd565b6102e79190610514565b9695505050505050565b604051636c58d43d60e01b8152670de0b6b3a764000060048201526000907f00000000000000000000000000000000000000000000000000000000000000006001600160a01b031690636c58d43d90602401602060405180830381865afa158015610360573d6000803e3d6000fd5b505050506040513d601f19601f8201168201806040525081019061038491906103b9565b905090565b60006020828403121561039b57600080fd5b81356001600160a01b03811681146103b257600080fd5b9392505050565b6000602082840312156103cb57600080fd5b5051919050565b6000602082840312156103e457600080fd5b815160ff811681146103b257600080fd5b634e487b7160e01b600052601160045260246000fd5b600181815b8085111561044657816000190482111561042c5761042c6103f5565b8085161561043957918102915b93841c9390800290610410565b509250929050565b60008261045d575060016104eb565b8161046a575060006104eb565b8160018114610480576002811461048a576104a6565b60019150506104eb565b60ff84111561049b5761049b6103f5565b50506001821b6104eb565b5060208310610133831016604e8410600b84101617156104c9575081810a6104eb565b6104d3838361040b565b80600019048211156104e7576104e76103f5565b0290505b92915050565b60006103b2838361044e565b80820281158282048414176104eb576104eb6103f5565b60008261053157634e487b7160e01b600052601260045260246000fd5b50049056fea26469706673582212206076cfc8ad687f56b9452527ad342c9ecc2ba7a61116faa5b17f2829726126b664736f6c63430008190033",
  "devdoc": {
    "author": "Venus",
    "kind": "dev",
    "methods": {
      "constructor": {
        "custom:oz-upgrades-unsafe-allow": "constructor"
      },
      "getPrice(address)": {
        "params": {
          "asset": "Address of the correlated token"
        },
        "returns": {
          "_0": "price The price of the correlated token in scaled decimal places"
        }
      }
    },
    "title": "AnkrBNBOracle",
    "version": 1
  },
  "userdoc": {
    "errors": {
      "InvalidTokenAddress()": [
        {
          "notice": "Thrown if the token address is invalid"
        }
      ],
      "ZeroAddressNotAllowed()": [
        {
          "notice": "Thrown if the supplied address is a zero address where it is not allowed"
        }
      ]
    },
    "kind": "user",
    "methods": {
      "CORRELATED_TOKEN()": {
        "notice": "Address of the correlated token"
      },
      "NATIVE_TOKEN_ADDR()": {
        "notice": "This is used as token address of BNB on BSC"
      },
      "RESILIENT_ORACLE()": {
        "notice": "Address of Resilient Oracle"
      },
      "UNDERLYING_TOKEN()": {
        "notice": "Address of the underlying token"
      },
      "constructor": {
        "notice": "Constructor for the implementation contract."
      },
      "getPrice(address)": {
        "notice": "Fetches the price of the correlated token"
      }
    },
    "notice": "This oracle fetches the price of ankrBNB asset",
    "version": 1
  },
  "storageLayout": {
    "storage": [],
    "types": null
  }
}