{
  "address": "0x026aba8779Bf2F3b6FD8fb83B1c04A716B3A2d91",
  "abi": [
    {
      "inputs": [
        {
          "internalType": "address",
          "name": "vBnbAddress",
          "type": "address"
        },
        {
          "internalType": "address",
          "name": "vaiAddress",
          "type": "address"
        }
      ],
      "stateMutability": "nonpayable",
      "type": "constructor"
    },
    {
      "anonymous": false,
      "inputs": [
        {
          "indexed": false,
          "internalType": "uint8",
          "name": "version",
          "type": "uint8"
        }
      ],
      "name": "Initialized",
      "type": "event"
    },
    {
      "inputs": [],
      "name": "getFeedRegistryAddress",
      "outputs": [
        {
          "internalType": "address",
          "name": "",
          "type": "address"
        }
      ],
      "stateMutability": "view",
      "type": "function"
    },
    {
      "inputs": [
        {
          "internalType": "contract VBep20Interface",
          "name": "vToken",
          "type": "address"
        }
      ],
      "name": "getUnderlyingPrice",
      "outputs": [
        {
          "internalType": "uint256",
          "name": "",
          "type": "uint256"
        }
      ],
      "stateMutability": "view",
      "type": "function"
    },
    {
      "inputs": [
        {
          "internalType": "address",
          "name": "_sidRegistryAddress",
          "type": "address"
        }
      ],
      "name": "initialize",
      "outputs": [],
      "stateMutability": "nonpayable",
      "type": "function"
    },
    {
      "inputs": [],
      "name": "sidRegistryAddress",
      "outputs": [
        {
          "internalType": "address",
          "name": "",
          "type": "address"
        }
      ],
      "stateMutability": "view",
      "type": "function"
    },
    {
      "inputs": [],
      "name": "vBnb",
      "outputs": [
        {
          "internalType": "address",
          "name": "",
          "type": "address"
        }
      ],
      "stateMutability": "view",
      "type": "function"
    },
    {
      "inputs": [],
      "name": "vai",
      "outputs": [
        {
          "internalType": "address",
          "name": "",
          "type": "address"
        }
      ],
      "stateMutability": "view",
      "type": "function"
    }
  ],
  "transactionHash": "0xb320bf798d91469dadfd7980b385e322334ddb5795ba735affd2b36e9eb3fef9",
  "args": [
    "0x2E7222e51c0f6e98610A1543Aa3836E092CDe62c",
    "0x05889b75Ae9Aa53AaE49562432201a0c93BaCA0b"
  ],
  "numDeployments": 1,
  "solcInputHash": "30f2cb3e89e183b8669f05bddf9426d9",
  "bytecode": "0x60c060405234801561001057600080fd5b50604051610cdf380380610cdf83398101604081905261002f916101da565b6001600160a01b03821661008a5760405162461bcd60e51b815260206004820152601a60248201527f76424e422063616e2774206265207a65726f206164647265737300000000000060448201526064015b60405180910390fd5b6001600160a01b0381166100e05760405162461bcd60e51b815260206004820152601960248201527f5641492063616e2774206265207a65726f2061646472657373000000000000006044820152606401610081565b6001600160a01b03808316608052811660a0526100fb610102565b505061020d565b600054610100900460ff161561016a5760405162461bcd60e51b815260206004820152602760248201527f496e697469616c697a61626c653a20636f6e747261637420697320696e697469604482015266616c697a696e6760c81b6064820152608401610081565b60005460ff90811610156101bc576000805460ff191660ff9081179091556040519081527f7f26b83ff96e1f2b6a682f133852f6798a09c465da95921460cefb38474024989060200160405180910390a15b565b80516001600160a01b03811681146101d557600080fd5b919050565b600080604083850312156101ed57600080fd5b6101f6836101be565b9150610204602084016101be565b90509250929050565b60805160a051610aa161023e6000396000818160d101526103cc01526000818160a201526103700152610aa16000f3fe608060405234801561001057600080fd5b50600436106100625760003560e01c8063475e7de5146100675780635ba3792d1461009d57806399fe040e146100c4578063b62e4c92146100cc578063c4d66de8146100f3578063fc57d4df14610108575b600080fd5b600054610080906201000090046001600160a01b031681565b6040516001600160a01b0390911681526020015b60405180910390f35b6100807f000000000000000000000000000000000000000000000000000000000000000081565b610080610129565b6100807f000000000000000000000000000000000000000000000000000000000000000081565b61010661010136600461071c565b610238565b005b61011b61011636600461071c565b610368565b604051908152602001610094565b60008054604051630178b8bf60e01b81527f94fe3821e0768eb35012484db4df61890f9a6ca5bfa984ef8ff717e73139faff60048201819052916201000090046001600160a01b03169083908290630178b8bf90602401602060405180830381865afa15801561019d573d6000803e3d6000fd5b505050506040513d601f19601f820116820180604052508101906101c19190610740565b604051631d9dabef60e11b81526004810185905290915081906001600160a01b03821690633b3b57de90602401602060405180830381865afa15801561020b573d6000803e3d6000fd5b505050506040513d601f19601f8201168201806040525081019061022f9190610740565b94505050505090565b600054610100900460ff16158080156102585750600054600160ff909116105b806102725750303b158015610272575060005460ff166001145b6102d95760405162461bcd60e51b815260206004820152602e60248201527f496e697469616c697a61626c653a20636f6e747261637420697320616c72656160448201526d191e481a5b9a5d1a585b1a5e995960921b606482015260840160405180910390fd5b6000805460ff1916600117905580156102fc576000805461ff0019166101001790555b6000805462010000600160b01b031916620100006001600160a01b038516021790558015610364576000805461ff0019169055604051600181527f7f26b83ff96e1f2b6a682f133852f6798a09c465da95921460cefb38474024989060200160405180910390a15b5050565b6000606060007f00000000000000000000000000000000000000000000000000000000000000006001600160a01b0316846001600160a01b0316036103ca57505060408051808201909152600381526221272160e91b6020820152601261055d565b7f00000000000000000000000000000000000000000000000000000000000000006001600160a01b0316846001600160a01b03160361042657505060408051808201909152600381526256414960e81b6020820152601261055d565b6000846001600160a01b0316636f307dc36040518163ffffffff1660e01b8152600401602060405180830381865afa158015610466573d6000803e3d6000fd5b505050506040513d601f19601f8201168201806040525081019061048a9190610740565b9050806001600160a01b03166395d89b416040518163ffffffff1660e01b8152600401600060405180830381865afa1580156104ca573d6000803e3d6000fd5b505050506040513d6000823e601f3d908101601f191682016040526104f291908101906107a3565b9250806001600160a01b031663313ce5676040518163ffffffff1660e01b8152600401602060405180830381865afa158015610532573d6000803e3d6000fd5b505050506040513d601f19601f820116820180604052508101906105569190610845565b60ff169150505b6040805180820190915260048152632ba1272160e11b6020918201528251908301207f95a8318495ccc03d10cce56573b91a66a3b235a7a84e6cbaccd62d888d3e4f19016105c4576040518060400160405280600381526020016221272160e91b81525091505b60006105ce610129565b90506000816001600160a01b031663bfda5e71856040518263ffffffff1660e01b81526004016105fe9190610868565b60a060405180830381865afa15801561061b573d6000803e3d6000fd5b505050506040513d601f19601f8201168201806040525081019061063f91906108dd565b5050509150506000826001600160a01b0316636e91995a866040518263ffffffff1660e01b81526004016106739190610868565b602060405180830381865afa158015610690573d6000803e3d6000fd5b505050506040513d601f19601f820116820180604052508101906106b49190610845565b60ff1690506106c4846012610943565b6106cf90600a610a40565b6106da826012610943565b6106e590600a610a40565b6106ef9084610a4c565b6106f99190610a4c565b979650505050505050565b6001600160a01b038116811461071957600080fd5b50565b60006020828403121561072e57600080fd5b813561073981610704565b9392505050565b60006020828403121561075257600080fd5b815161073981610704565b634e487b7160e01b600052604160045260246000fd5b60005b8381101561078e578181015183820152602001610776565b8381111561079d576000848401525b50505050565b6000602082840312156107b557600080fd5b815167ffffffffffffffff808211156107cd57600080fd5b818401915084601f8301126107e157600080fd5b8151818111156107f3576107f361075d565b604051601f8201601f19908116603f0116810190838211818310171561081b5761081b61075d565b8160405282815287602084870101111561083457600080fd5b6106f9836020830160208801610773565b60006020828403121561085757600080fd5b815160ff8116811461073957600080fd5b6040815260008251806040840152610887816060850160208701610773565b601f19601f82011683019050606083820301602084015260036060820152621554d160ea1b608082015260a0810191505092915050565b805169ffffffffffffffffffff811681146108d857600080fd5b919050565b600080600080600060a086880312156108f557600080fd5b6108fe866108be565b9450602086015193506040860151925060608601519150610921608087016108be565b90509295509295909350565b634e487b7160e01b600052601160045260246000fd5b6000828210156109555761095561092d565b500390565b600181815b8085111561099557816000190482111561097b5761097b61092d565b8085161561098857918102915b93841c939080029061095f565b509250929050565b6000826109ac57506001610a3a565b816109b957506000610a3a565b81600181146109cf57600281146109d9576109f5565b6001915050610a3a565b60ff8411156109ea576109ea61092d565b50506001821b610a3a565b5060208310610133831016604e8410600b8410161715610a18575081810a610a3a565b610a22838361095a565b8060001904821115610a3657610a3661092d565b0290505b92915050565b6000610739838361099d565b6000816000190483118215151615610a6657610a6661092d565b50029056fea264697066735822122068fefea2c8a8c140d98a81d480a20b06adc587bc45e84dff015dc66941c9b56d64736f6c634300080d0033",
  "devdoc": {
    "kind": "dev",
    "methods": {
      "constructor": {
        "custom:oz-upgrades-unsafe-allow": "constructor",
        "params": {
          "vBnbAddress": "The address of the vBNB",
          "vaiAddress": "The address of the VAI"
        }
      },
      "getFeedRegistryAddress()": {
        "returns": {
          "_0": "feedRegistryAddress Address of binance oracle feed registry."
        }
      },
      "getUnderlyingPrice(address)": {
        "params": {
          "vToken": "Address of the vToken"
        },
        "returns": {
          "_0": "Price in USD"
        }
      },
      "initialize(address)": {
        "params": {
          "_sidRegistryAddress": "Address of SID registry"
        }
      }
    },
    "stateVariables": {
      "vBnb": {
        "custom:oz-upgrades-unsafe-allow": "state-variable-immutable"
      },
      "vai": {
        "custom:oz-upgrades-unsafe-allow": "state-variable-immutable"
      }
    },
    "version": 1
  },
  "userdoc": {
    "kind": "user",
    "methods": {
      "constructor": {
        "notice": "Constructor for the implementation contract. Sets immutable variables."
      },
      "getFeedRegistryAddress()": {
        "notice": "Uses Space ID to fetch the feed registry address"
      },
      "getUnderlyingPrice(address)": {
        "notice": "Gets the price of a vToken from the binance oracle"
      },
      "initialize(address)": {
        "notice": "Sets the contracts required to fetch prices"
      },
      "vBnb()": {
        "notice": "vBNB address"
      },
      "vai()": {
        "notice": "VAI address"
      }
    },
    "version": 1
  },
  "storageLayout": {
    "storage": [
      {
        "astId": 347,
        "contract": "contracts/oracles/BinanceOracle.sol:BinanceOracle",
        "label": "_initialized",
        "offset": 0,
        "slot": "0",
        "type": "t_uint8"
      },
      {
        "astId": 350,
        "contract": "contracts/oracles/BinanceOracle.sol:BinanceOracle",
        "label": "_initializing",
        "offset": 1,
        "slot": "0",
        "type": "t_bool"
      },
      {
        "astId": 7034,
        "contract": "contracts/oracles/BinanceOracle.sol:BinanceOracle",
        "label": "sidRegistryAddress",
        "offset": 2,
        "slot": "0",
        "type": "t_address"
      }
    ],
    "types": {
      "t_address": {
        "encoding": "inplace",
        "label": "address",
        "numberOfBytes": "20"
      },
      "t_bool": {
        "encoding": "inplace",
        "label": "bool",
        "numberOfBytes": "1"
      },
      "t_uint8": {
        "encoding": "inplace",
        "label": "uint8",
        "numberOfBytes": "1"
      }
    }
  }
}