{
  "address": "0x68bE52C22C1718855a4b772991e7e1dd7bfF62Dc",
  "abi": [
    {
      "inputs": [
        {
          "internalType": "address",
          "name": "vBnbAddress",
          "type": "address"
        }
      ],
      "stateMutability": "nonpayable",
      "type": "constructor"
    },
    {
      "anonymous": false,
      "inputs": [
        {
          "indexed": false,
          "internalType": "uint8",
          "name": "version",
          "type": "uint8"
        }
      ],
      "name": "Initialized",
      "type": "event"
    },
    {
      "inputs": [],
      "name": "feedRegistry",
      "outputs": [
        {
          "internalType": "contract FeedRegistryInterface",
          "name": "",
          "type": "address"
        }
      ],
      "stateMutability": "view",
      "type": "function"
    },
    {
      "inputs": [
        {
          "internalType": "contract VBep20Interface",
          "name": "vToken",
          "type": "address"
        }
      ],
      "name": "getUnderlyingPrice",
      "outputs": [
        {
          "internalType": "uint256",
          "name": "",
          "type": "uint256"
        }
      ],
      "stateMutability": "view",
      "type": "function"
    },
    {
      "inputs": [
        {
          "internalType": "contract FeedRegistryInterface",
          "name": "feed",
          "type": "address"
        }
      ],
      "name": "initialize",
      "outputs": [],
      "stateMutability": "nonpayable",
      "type": "function"
    },
    {
      "inputs": [],
      "name": "vBnb",
      "outputs": [
        {
          "internalType": "address",
          "name": "",
          "type": "address"
        }
      ],
      "stateMutability": "view",
      "type": "function"
    }
  ],
  "transactionHash": "0xef61f6e89bd0c1e444b8c59e2811f49d583bc95c3902743f8390ddce7408ea71",
  "args": [
    "0x2E7222e51c0f6e98610A1543Aa3836E092CDe62c"
  ],
  "numDeployments": 1,
  "solcInputHash": "6153c675ce838eebb6442d63350712be",
  "bytecode": "0x60a060405234801561001057600080fd5b50604051610ab3380380610ab383398101604081905261002f91610161565b6001600160a01b03811661008a5760405162461bcd60e51b815260206004820152601560248201527f63616e2774206265207a65726f2061646472657373000000000000000000000060448201526064015b60405180910390fd5b6001600160a01b03811660805261009f6100a5565b50610191565b600054610100900460ff161561010d5760405162461bcd60e51b815260206004820152602760248201527f496e697469616c697a61626c653a20636f6e747261637420697320696e697469604482015266616c697a696e6760c81b6064820152608401610081565b60005460ff908116101561015f576000805460ff191660ff9081179091556040519081527f7f26b83ff96e1f2b6a682f133852f6798a09c465da95921460cefb38474024989060200160405180910390a15b565b60006020828403121561017357600080fd5b81516001600160a01b038116811461018a57600080fd5b9392505050565b6080516109016101b2600039600081816056015261021c01526109016000f3fe608060405234801561001057600080fd5b506004361061004c5760003560e01c80635ba3792d1461005157806390238c3914610095578063c4d66de8146100ae578063fc57d4df146100c3575b600080fd5b6100787f000000000000000000000000000000000000000000000000000000000000000081565b6040516001600160a01b0390911681526020015b60405180910390f35b600054610078906201000090046001600160a01b031681565b6100c16100bc366004610571565b6100e4565b005b6100d66100d1366004610571565b610214565b60405190815260200161008c565b600054610100900460ff16158080156101045750600054600160ff909116105b8061011e5750303b15801561011e575060005460ff166001145b6101855760405162461bcd60e51b815260206004820152602e60248201527f496e697469616c697a61626c653a20636f6e747261637420697320616c72656160448201526d191e481a5b9a5d1a585b1a5e995960921b606482015260840160405180910390fd5b6000805460ff1916600117905580156101a8576000805461ff0019166101001790555b6000805462010000600160b01b031916620100006001600160a01b038516021790558015610210576000805461ff0019169055604051600181527f7f26b83ff96e1f2b6a682f133852f6798a09c465da95921460cefb38474024989060200160405180910390a15b5050565b6000606060007f00000000000000000000000000000000000000000000000000000000000000006001600160a01b0316846001600160a01b03160361027657505060408051808201909152600381526221272160e91b602082015260126103ad565b6000846001600160a01b0316636f307dc36040518163ffffffff1660e01b8152600401602060405180830381865afa1580156102b6573d6000803e3d6000fd5b505050506040513d601f19601f820116820180604052508101906102da9190610595565b9050806001600160a01b03166395d89b416040518163ffffffff1660e01b8152600401600060405180830381865afa15801561031a573d6000803e3d6000fd5b505050506040513d6000823e601f3d908101601f1916820160405261034291908101906105f8565b9250806001600160a01b031663313ce5676040518163ffffffff1660e01b8152600401602060405180830381865afa158015610382573d6000803e3d6000fd5b505050506040513d601f19601f820116820180604052508101906103a691906106a5565b60ff169150505b6040805180820190915260048152632ba1272160e11b6020918201528251908301207f95a8318495ccc03d10cce56573b91a66a3b235a7a84e6cbaccd62d888d3e4f1901610414576040518060400160405280600381526020016221272160e91b81525091505b6000805460405163bfda5e7160e01b8152620100009091046001600160a01b03169063bfda5e719061044a9086906004016106c8565b60a060405180830381865afa158015610467573d6000803e3d6000fd5b505050506040513d601f19601f8201168201806040525081019061048b919061073d565b505060008054604051633748ccad60e11b81529395509093506201000090046001600160a01b031691636e91995a91506104c99087906004016106c8565b602060405180830381865afa1580156104e6573d6000803e3d6000fd5b505050506040513d601f19601f8201168201806040525081019061050a91906106a5565b60ff16905061051a8360126107a3565b61052590600a6108a0565b6105308260126107a3565b61053b90600a6108a0565b61054590846108ac565b61054f91906108ac565b9695505050505050565b6001600160a01b038116811461056e57600080fd5b50565b60006020828403121561058357600080fd5b813561058e81610559565b9392505050565b6000602082840312156105a757600080fd5b815161058e81610559565b634e487b7160e01b600052604160045260246000fd5b60005b838110156105e35781810151838201526020016105cb565b838111156105f2576000848401525b50505050565b60006020828403121561060a57600080fd5b815167ffffffffffffffff8082111561062257600080fd5b818401915084601f83011261063657600080fd5b815181811115610648576106486105b2565b604051601f8201601f19908116603f01168101908382118183101715610670576106706105b2565b8160405282815287602084870101111561068957600080fd5b61069a8360208301602088016105c8565b979650505050505050565b6000602082840312156106b757600080fd5b815160ff8116811461058e57600080fd5b60408152600082518060408401526106e78160608501602087016105c8565b601f19601f82011683019050606083820301602084015260036060820152621554d160ea1b608082015260a0810191505092915050565b805169ffffffffffffffffffff8116811461073857600080fd5b919050565b600080600080600060a0868803121561075557600080fd5b61075e8661071e565b94506020860151935060408601519250606086015191506107816080870161071e565b90509295509295909350565b634e487b7160e01b600052601160045260246000fd5b6000828210156107b5576107b561078d565b500390565b600181815b808511156107f55781600019048211156107db576107db61078d565b808516156107e857918102915b93841c93908002906107bf565b509250929050565b60008261080c5750600161089a565b816108195750600061089a565b816001811461082f576002811461083957610855565b600191505061089a565b60ff84111561084a5761084a61078d565b50506001821b61089a565b5060208310610133831016604e8410600b8410161715610878575081810a61089a565b61088283836107ba565b80600019048211156108965761089661078d565b0290505b92915050565b600061058e83836107fd565b60008160001904831182151516156108c6576108c661078d565b50029056fea264697066735822122049bdd48db4521d74120b5cd33ff0e39e1f569a7b1dbc1cf99c70f4a8a48c55f364736f6c634300080d0033",
  "devdoc": {
    "kind": "dev",
    "methods": {
      "constructor": {
        "custom:oz-upgrades-unsafe-allow": "constructor",
        "params": {
          "vBnbAddress": "The address of the vBNB"
        }
      },
      "getUnderlyingPrice(address)": {
        "params": {
          "vToken": "Address of the vToken"
        },
        "returns": {
          "_0": "Price in USD"
        }
      },
      "initialize(address)": {
        "params": {
          "feed": "Address of binance oracle feed registry."
        }
      }
    },
    "stateVariables": {
      "vBnb": {
        "custom:oz-upgrades-unsafe-allow": "state-variable-immutable"
      }
    },
    "version": 1
  },
  "userdoc": {
    "kind": "user",
    "methods": {
      "constructor": {
        "notice": "Constructor for the implementation contract. Sets immutable variables."
      },
      "getUnderlyingPrice(address)": {
        "notice": "Gets the price of a vToken from the binance oracle"
      },
      "initialize(address)": {
        "notice": "Sets the contracts required to fetch prices"
      },
      "vBnb()": {
        "notice": "vBNB address"
      }
    },
    "version": 1
  },
  "storageLayout": {
    "storage": [
      {
        "astId": 241,
        "contract": "contracts/oracles/BinanceOracle.sol:BinanceOracle",
        "label": "_initialized",
        "offset": 0,
        "slot": "0",
        "type": "t_uint8"
      },
      {
        "astId": 244,
        "contract": "contracts/oracles/BinanceOracle.sol:BinanceOracle",
        "label": "_initializing",
        "offset": 1,
        "slot": "0",
        "type": "t_bool"
      },
      {
        "astId": 5022,
        "contract": "contracts/oracles/BinanceOracle.sol:BinanceOracle",
        "label": "feedRegistry",
        "offset": 2,
        "slot": "0",
        "type": "t_contract(FeedRegistryInterface)4357"
      }
    ],
    "types": {
      "t_bool": {
        "encoding": "inplace",
        "label": "bool",
        "numberOfBytes": "1"
      },
      "t_contract(FeedRegistryInterface)4357": {
        "encoding": "inplace",
        "label": "contract FeedRegistryInterface",
        "numberOfBytes": "20"
      },
      "t_uint8": {
        "encoding": "inplace",
        "label": "uint8",
        "numberOfBytes": "1"
      }
    }
  }
}