{
  "address": "0x7C174f16074F06CE77B96d5056A4cd535cdc5C92",
  "abi": [
    {
      "inputs": [
        {
          "internalType": "address",
          "name": "vBnbAddress",
          "type": "address"
        },
        {
          "internalType": "address",
          "name": "vaiAddress",
          "type": "address"
        }
      ],
      "stateMutability": "nonpayable",
      "type": "constructor"
    },
    {
      "inputs": [
        {
          "internalType": "address",
          "name": "sender",
          "type": "address"
        },
        {
          "internalType": "address",
          "name": "calledContract",
          "type": "address"
        },
        {
          "internalType": "string",
          "name": "methodSignature",
          "type": "string"
        }
      ],
      "name": "Unauthorized",
      "type": "error"
    },
    {
      "anonymous": false,
      "inputs": [
        {
          "indexed": false,
          "internalType": "uint8",
          "name": "version",
          "type": "uint8"
        }
      ],
      "name": "Initialized",
      "type": "event"
    },
    {
      "anonymous": false,
      "inputs": [
        {
          "indexed": true,
          "internalType": "string",
          "name": "asset",
          "type": "string"
        },
        {
          "indexed": false,
          "internalType": "uint256",
          "name": "maxStalePeriod",
          "type": "uint256"
        }
      ],
      "name": "MaxStalePeriodAdded",
      "type": "event"
    },
    {
      "anonymous": false,
      "inputs": [
        {
          "indexed": false,
          "internalType": "address",
          "name": "oldAccessControlManager",
          "type": "address"
        },
        {
          "indexed": false,
          "internalType": "address",
          "name": "newAccessControlManager",
          "type": "address"
        }
      ],
      "name": "NewAccessControlManager",
      "type": "event"
    },
    {
      "anonymous": false,
      "inputs": [
        {
          "indexed": true,
          "internalType": "address",
          "name": "previousOwner",
          "type": "address"
        },
        {
          "indexed": true,
          "internalType": "address",
          "name": "newOwner",
          "type": "address"
        }
      ],
      "name": "OwnershipTransferStarted",
      "type": "event"
    },
    {
      "anonymous": false,
      "inputs": [
        {
          "indexed": true,
          "internalType": "address",
          "name": "previousOwner",
          "type": "address"
        },
        {
          "indexed": true,
          "internalType": "address",
          "name": "newOwner",
          "type": "address"
        }
      ],
      "name": "OwnershipTransferred",
      "type": "event"
    },
    {
      "inputs": [],
      "name": "acceptOwnership",
      "outputs": [],
      "stateMutability": "nonpayable",
      "type": "function"
    },
    {
      "inputs": [],
      "name": "accessControlManager",
      "outputs": [
        {
          "internalType": "contract IAccessControlManagerV8",
          "name": "",
          "type": "address"
        }
      ],
      "stateMutability": "view",
      "type": "function"
    },
    {
      "inputs": [],
      "name": "getFeedRegistryAddress",
      "outputs": [
        {
          "internalType": "address",
          "name": "",
          "type": "address"
        }
      ],
      "stateMutability": "view",
      "type": "function"
    },
    {
      "inputs": [
        {
          "internalType": "contract VBep20Interface",
          "name": "vToken",
          "type": "address"
        }
      ],
      "name": "getUnderlyingPrice",
      "outputs": [
        {
          "internalType": "uint256",
          "name": "",
          "type": "uint256"
        }
      ],
      "stateMutability": "view",
      "type": "function"
    },
    {
      "inputs": [
        {
          "internalType": "address",
          "name": "_sidRegistryAddress",
          "type": "address"
        },
        {
          "internalType": "address",
          "name": "_accessControlManager",
          "type": "address"
        }
      ],
      "name": "initialize",
      "outputs": [],
      "stateMutability": "nonpayable",
      "type": "function"
    },
    {
      "inputs": [
        {
          "internalType": "string",
          "name": "",
          "type": "string"
        }
      ],
      "name": "maxStalePeriod",
      "outputs": [
        {
          "internalType": "uint256",
          "name": "",
          "type": "uint256"
        }
      ],
      "stateMutability": "view",
      "type": "function"
    },
    {
      "inputs": [],
      "name": "owner",
      "outputs": [
        {
          "internalType": "address",
          "name": "",
          "type": "address"
        }
      ],
      "stateMutability": "view",
      "type": "function"
    },
    {
      "inputs": [],
      "name": "pendingOwner",
      "outputs": [
        {
          "internalType": "address",
          "name": "",
          "type": "address"
        }
      ],
      "stateMutability": "view",
      "type": "function"
    },
    {
      "inputs": [],
      "name": "renounceOwnership",
      "outputs": [],
      "stateMutability": "nonpayable",
      "type": "function"
    },
    {
      "inputs": [
        {
          "internalType": "address",
          "name": "accessControlManager_",
          "type": "address"
        }
      ],
      "name": "setAccessControlManager",
      "outputs": [],
      "stateMutability": "nonpayable",
      "type": "function"
    },
    {
      "inputs": [
        {
          "internalType": "string",
          "name": "symbol",
          "type": "string"
        },
        {
          "internalType": "uint256",
          "name": "_maxStalePeriod",
          "type": "uint256"
        }
      ],
      "name": "setMaxStalePeriod",
      "outputs": [],
      "stateMutability": "nonpayable",
      "type": "function"
    },
    {
      "inputs": [],
      "name": "sidRegistryAddress",
      "outputs": [
        {
          "internalType": "address",
          "name": "",
          "type": "address"
        }
      ],
      "stateMutability": "view",
      "type": "function"
    },
    {
      "inputs": [
        {
          "internalType": "address",
          "name": "newOwner",
          "type": "address"
        }
      ],
      "name": "transferOwnership",
      "outputs": [],
      "stateMutability": "nonpayable",
      "type": "function"
    },
    {
      "inputs": [],
      "name": "vBnb",
      "outputs": [
        {
          "internalType": "address",
          "name": "",
          "type": "address"
        }
      ],
      "stateMutability": "view",
      "type": "function"
    },
    {
      "inputs": [],
      "name": "vai",
      "outputs": [
        {
          "internalType": "address",
          "name": "",
          "type": "address"
        }
      ],
      "stateMutability": "view",
      "type": "function"
    }
  ],
  "transactionHash": "0x713f6c46327c3bc91e6f558633c6babaed054d5390b3713c573938dffe08771d",
  "args": [
    "0x2E7222e51c0f6e98610A1543Aa3836E092CDe62c",
    "0x5fFbE5302BadED40941A403228E6AD03f93752d9"
  ],
  "numDeployments": 1,
  "solcInputHash": "2514c4238fb8cb31d289388ca13198ba",
  "bytecode": "0x60c06040523480156200001157600080fd5b506040516200165d3803806200165d8339810160408190526200003491620001e9565b6001600160a01b038216620000905760405162461bcd60e51b815260206004820152601a60248201527f76424e422063616e2774206265207a65726f206164647265737300000000000060448201526064015b60405180910390fd5b6001600160a01b038116620000e85760405162461bcd60e51b815260206004820152601960248201527f5641492063616e2774206265207a65726f206164647265737300000000000000604482015260640162000087565b6001600160a01b03808316608052811660a052620001056200010d565b505062000221565b600054610100900460ff1615620001775760405162461bcd60e51b815260206004820152602760248201527f496e697469616c697a61626c653a20636f6e747261637420697320696e697469604482015266616c697a696e6760c81b606482015260840162000087565b60005460ff9081161015620001ca576000805460ff191660ff9081179091556040519081527f7f26b83ff96e1f2b6a682f133852f6798a09c465da95921460cefb38474024989060200160405180910390a15b565b80516001600160a01b0381168114620001e457600080fd5b919050565b60008060408385031215620001fd57600080fd5b6200020883620001cc565b91506200021860208401620001cc565b90509250929050565b60805160a05161140862000255600039600081816101cb015261075001526000818161015701526106f401526114086000f3fe608060405234801561001057600080fd5b50600436106100f55760003560e01c80638da5cb5b11610097578063e30c397811610066578063e30c3978146101ed578063f2fde38b146101fe578063fc57d4df14610211578063fdfbc2771461023257600080fd5b80638da5cb5b1461019c57806399fe040e146101ad578063b4a0bdf3146101b5578063b62e4c92146101c657600080fd5b80635ba3792d116100d35780635ba3792d14610152578063636b999a14610179578063715018a61461018c57806379ba50971461019457600080fd5b80630e32cb86146100fa578063475e7de51461010f578063485cc9551461013f575b600080fd5b61010d610108366004610e89565b61025d565b005b60c954610122906001600160a01b031681565b6040516001600160a01b0390911681526020015b60405180910390f35b61010d61014d366004610ead565b610271565b6101227f000000000000000000000000000000000000000000000000000000000000000081565b61010d610187366004610fab565b6103a5565b61010d6104e2565b61010d6104f6565b6033546001600160a01b0316610122565b61012261056d565b6097546001600160a01b0316610122565b6101227f000000000000000000000000000000000000000000000000000000000000000081565b6065546001600160a01b0316610122565b61010d61020c366004610e89565b61067b565b61022461021f366004610e89565b6106ec565b604051908152602001610136565b610224610240366004610ff0565b805160208183018101805160ca8252928201919093012091525481565b610265610b8c565b61026e81610be6565b50565b600054610100900460ff16158080156102915750600054600160ff909116105b806102ab5750303b1580156102ab575060005460ff166001145b6103135760405162461bcd60e51b815260206004820152602e60248201527f496e697469616c697a61626c653a20636f6e747261637420697320616c72656160448201526d191e481a5b9a5d1a585b1a5e995960921b60648201526084015b60405180910390fd5b6000805460ff191660011790558015610336576000805461ff0019166101001790555b60c980546001600160a01b0319166001600160a01b03851617905561035a82610cab565b80156103a0576000805461ff0019169055604051600181527f7f26b83ff96e1f2b6a682f133852f6798a09c465da95921460cefb38474024989060200160405180910390a15b505050565b6103c66040518060600160405280602181526020016113b260219139610d16565b806000036104165760405162461bcd60e51b815260206004820152601a60248201527f7374616c6520706572696f642063616e2774206265207a65726f000000000000604482015260640161030a565b61042f8260405180602001604052806000815250610db4565b156104755760405162461bcd60e51b815260206004820152601660248201527573796d626f6c2063616e6e6f7420626520656d70747960501b604482015260640161030a565b8060ca83604051610486919061105d565b908152604051908190036020018120919091556104a490839061105d565b604051908190038120828252907f37839d4a80c5e3f2578f59515c911ee8cce42383d7ebaa1c92afcde9871c4b589060200160405180910390a25050565b6104ea610b8c565b6104f46000610e0e565b565b60655433906001600160a01b031681146105645760405162461bcd60e51b815260206004820152602960248201527f4f776e61626c6532537465703a2063616c6c6572206973206e6f7420746865206044820152683732bb9037bbb732b960b91b606482015260840161030a565b61026e81610e0e565b60c954604051630178b8bf60e01b81527f94fe3821e0768eb35012484db4df61890f9a6ca5bfa984ef8ff717e73139faff6004820181905260009290916001600160a01b039091169083908290630178b8bf90602401602060405180830381865afa1580156105e0573d6000803e3d6000fd5b505050506040513d601f19601f820116820180604052508101906106049190611079565b604051631d9dabef60e11b81526004810185905290915081906001600160a01b03821690633b3b57de90602401602060405180830381865afa15801561064e573d6000803e3d6000fd5b505050506040513d601f19601f820116820180604052508101906106729190611079565b94505050505090565b610683610b8c565b606580546001600160a01b0383166001600160a01b031990911681179091556106b46033546001600160a01b031690565b6001600160a01b03167f38d16b8cac22d99fc7c124b9cd0de2d3fa1faef420bfe791d8c362d765e2270060405160405180910390a350565b6000606060007f00000000000000000000000000000000000000000000000000000000000000006001600160a01b0316846001600160a01b03160361074e57505060408051808201909152600381526221272160e91b602082015260126108e1565b7f00000000000000000000000000000000000000000000000000000000000000006001600160a01b0316846001600160a01b0316036107aa57505060408051808201909152600381526256414960e81b602082015260126108e1565b6000846001600160a01b0316636f307dc36040518163ffffffff1660e01b8152600401602060405180830381865afa1580156107ea573d6000803e3d6000fd5b505050506040513d601f19601f8201168201806040525081019061080e9190611079565b9050806001600160a01b03166395d89b416040518163ffffffff1660e01b8152600401600060405180830381865afa15801561084e573d6000803e3d6000fd5b505050506040513d6000823e601f3d908101601f191682016040526108769190810190611096565b9250806001600160a01b031663313ce5676040518163ffffffff1660e01b8152600401602060405180830381865afa1580156108b6573d6000803e3d6000fd5b505050506040513d601f19601f820116820180604052508101906108da919061110d565b60ff169150505b61090782604051806040016040528060048152602001632ba1272160e11b815250610db4565b1561092b576040518060400160405280600381526020016221272160e91b81525091505b600061093561056d565b9050600080826001600160a01b031663bfda5e71866040518263ffffffff1660e01b8152600401610966919061115c565b60a060405180830381865afa158015610983573d6000803e3d6000fd5b505050506040513d601f19601f820116820180604052508101906109a791906111b3565b50935050925050600082136109fe5760405162461bcd60e51b815260206004820152601c60248201527f696e76616c69642062696e616e6365206f7261636c6520707269636500000000604482015260640161030a565b80421015610a4e5760405162461bcd60e51b815260206004820152601c60248201527f757064617465644174206578636565647320626c6f636b2074696d6500000000604482015260640161030a565b6000610a5a8242611219565b905060ca86604051610a6c919061105d565b908152602001604051809103902054811115610aca5760405162461bcd60e51b815260206004820152601c60248201527f62696e616e6365206f7261636c65207072696365206578706972656400000000604482015260640161030a565b604051633748ccad60e11b81526000906001600160a01b03861690636e91995a90610af9908a9060040161115c565b602060405180830381865afa158015610b16573d6000803e3d6000fd5b505050506040513d601f19601f82011682018060405250810190610b3a919061110d565b60ff169050610b4a866012611219565b610b5590600a611314565b610b60826012611219565b610b6b90600a611314565b610b759086611320565b610b7f9190611320565b9998505050505050505050565b6033546001600160a01b031633146104f45760405162461bcd60e51b815260206004820181905260248201527f4f776e61626c653a2063616c6c6572206973206e6f7420746865206f776e6572604482015260640161030a565b6001600160a01b038116610c4a5760405162461bcd60e51b815260206004820152602560248201527f696e76616c696420616365737320636f6e74726f6c206d616e61676572206164604482015264647265737360d81b606482015260840161030a565b609780546001600160a01b038381166001600160a01b031983168117909355604080519190921680825260208201939093527f66fd58e82f7b31a2a5c30e0888f3093efe4e111b00cd2b0c31fe014601293aa0910160405180910390a15050565b600054610100900460ff166102655760405162461bcd60e51b815260206004820152602b60248201527f496e697469616c697a61626c653a20636f6e7472616374206973206e6f74206960448201526a6e697469616c697a696e6760a81b606482015260840161030a565b6097546040516318c5e8ab60e01b81526000916001600160a01b0316906318c5e8ab90610d49903390869060040161133f565b602060405180830381865afa158015610d66573d6000803e3d6000fd5b505050506040513d601f19601f82011682018060405250810190610d8a9190611363565b905080610db057333083604051634a3fa29360e01b815260040161030a93929190611385565b5050565b600081604051602001610dc7919061105d565b6040516020818303038152906040528051906020012083604051602001610dee919061105d565b604051602081830303815290604052805190602001201490505b92915050565b606580546001600160a01b031916905561026e81603380546001600160a01b038381166001600160a01b0319831681179093556040519116919082907f8be0079c531659141344cd1fd0a4f28419497f9722a3daafe3b4186f6b6457e090600090a35050565b6001600160a01b038116811461026e57600080fd5b600060208284031215610e9b57600080fd5b8135610ea681610e74565b9392505050565b60008060408385031215610ec057600080fd5b8235610ecb81610e74565b91506020830135610edb81610e74565b809150509250929050565b634e487b7160e01b600052604160045260246000fd5b604051601f8201601f1916810167ffffffffffffffff81118282101715610f2557610f25610ee6565b604052919050565b600067ffffffffffffffff821115610f4757610f47610ee6565b50601f01601f191660200190565b600082601f830112610f6657600080fd5b8135610f79610f7482610f2d565b610efc565b818152846020838601011115610f8e57600080fd5b816020850160208301376000918101602001919091529392505050565b60008060408385031215610fbe57600080fd5b823567ffffffffffffffff811115610fd557600080fd5b610fe185828601610f55565b95602094909401359450505050565b60006020828403121561100257600080fd5b813567ffffffffffffffff81111561101957600080fd5b61102584828501610f55565b949350505050565b60005b83811015611048578181015183820152602001611030565b83811115611057576000848401525b50505050565b6000825161106f81846020870161102d565b9190910192915050565b60006020828403121561108b57600080fd5b8151610ea681610e74565b6000602082840312156110a857600080fd5b815167ffffffffffffffff8111156110bf57600080fd5b8201601f810184136110d057600080fd5b80516110de610f7482610f2d565b8181528560208385010111156110f357600080fd5b61110482602083016020860161102d565b95945050505050565b60006020828403121561111f57600080fd5b815160ff81168114610ea657600080fd5b6000815180845261114881602086016020860161102d565b601f01601f19169290920160200192915050565b60408152600061116f6040830184611130565b828103602084015260038152621554d160ea1b60208201526040810191505092915050565b805169ffffffffffffffffffff811681146111ae57600080fd5b919050565b600080600080600060a086880312156111cb57600080fd5b6111d486611194565b94506020860151935060408601519250606086015191506111f760808701611194565b90509295509295909350565b634e487b7160e01b600052601160045260246000fd5b60008282101561122b5761122b611203565b500390565b600181815b8085111561126b57816000190482111561125157611251611203565b8085161561125e57918102915b93841c9390800290611235565b509250929050565b60008261128257506001610e08565b8161128f57506000610e08565b81600181146112a557600281146112af576112cb565b6001915050610e08565b60ff8411156112c0576112c0611203565b50506001821b610e08565b5060208310610133831016604e8410600b84101617156112ee575081810a610e08565b6112f88383611230565b806000190482111561130c5761130c611203565b029392505050565b6000610ea68383611273565b600081600019048311821515161561133a5761133a611203565b500290565b6001600160a01b038316815260406020820181905260009061102590830184611130565b60006020828403121561137557600080fd5b81518015158114610ea657600080fd5b6001600160a01b038481168252831660208201526060604082018190526000906111049083018461113056fe7365744d61785374616c65506572696f6428737472696e672c75696e7432353629a2646970667358221220a4e15f441e85ba07e472537c417c75021116edfc867915927750983c312f3d9b64736f6c634300080d0033",
  "devdoc": {
    "kind": "dev",
    "methods": {
      "acceptOwnership()": {
        "details": "The new owner accepts the ownership transfer."
      },
      "constructor": {
        "custom:oz-upgrades-unsafe-allow": "constructor",
        "params": {
          "vBnbAddress": "The address of the vBNB",
          "vaiAddress": "The address of the VAI"
        }
      },
      "getFeedRegistryAddress()": {
        "returns": {
          "_0": "feedRegistryAddress Address of binance oracle feed registry."
        }
      },
      "getUnderlyingPrice(address)": {
        "params": {
          "vToken": "Address of the vToken"
        },
        "returns": {
          "_0": "Price in USD"
        }
      },
      "initialize(address,address)": {
        "params": {
          "_accessControlManager": "Address of the access control manager contract",
          "_sidRegistryAddress": "Address of SID registry"
        }
      },
      "owner()": {
        "details": "Returns the address of the current owner."
      },
      "pendingOwner()": {
        "details": "Returns the address of the pending owner."
      },
      "renounceOwnership()": {
        "details": "Leaves the contract without owner. It will not be possible to call `onlyOwner` functions anymore. Can only be called by the current owner. NOTE: Renouncing ownership will leave the contract without an owner, thereby removing any functionality that is only available to the owner."
      },
      "setAccessControlManager(address)": {
        "custom:access": "Only Governance",
        "custom:event": "Emits NewAccessControlManager event",
        "details": "Admin function to set address of AccessControlManager",
        "params": {
          "accessControlManager_": "The new address of the AccessControlManager"
        }
      },
      "setMaxStalePeriod(string,uint256)": {
        "params": {
          "_maxStalePeriod": "The max stake period",
          "symbol": "The symbol of the asset"
        }
      },
      "transferOwnership(address)": {
        "details": "Starts the ownership transfer of the contract to a new account. Replaces the pending transfer if there is one. Can only be called by the current owner."
      }
    },
    "stateVariables": {
      "vBnb": {
        "custom:oz-upgrades-unsafe-allow": "state-variable-immutable"
      },
      "vai": {
        "custom:oz-upgrades-unsafe-allow": "state-variable-immutable"
      }
    },
    "version": 1
  },
  "userdoc": {
    "errors": {
      "Unauthorized(address,address,string)": [
        {
          "notice": "Thrown when the action is prohibited by AccessControlManager"
        }
      ]
    },
    "events": {
      "NewAccessControlManager(address,address)": {
        "notice": "Emitted when access control manager contract address is changed"
      }
    },
    "kind": "user",
    "methods": {
      "accessControlManager()": {
        "notice": "Returns the address of the access control manager contract"
      },
      "constructor": {
        "notice": "Constructor for the implementation contract. Sets immutable variables."
      },
      "getFeedRegistryAddress()": {
        "notice": "Uses Space ID to fetch the feed registry address"
      },
      "getUnderlyingPrice(address)": {
        "notice": "Gets the price of a vToken from the binance oracle"
      },
      "initialize(address,address)": {
        "notice": "Sets the contracts required to fetch prices"
      },
      "maxStalePeriod(string)": {
        "notice": "Max stale period configuration for assets"
      },
      "setAccessControlManager(address)": {
        "notice": "Sets the address of AccessControlManager"
      },
      "setMaxStalePeriod(string,uint256)": {
        "notice": "Used to set the max stale period of an asset"
      },
      "vBnb()": {
        "notice": "vBNB address"
      },
      "vai()": {
        "notice": "VAI address"
      }
    },
    "version": 1
  },
  "storageLayout": {
    "storage": [
      {
        "astId": 347,
        "contract": "contracts/oracles/BinanceOracle.sol:BinanceOracle",
        "label": "_initialized",
        "offset": 0,
        "slot": "0",
        "type": "t_uint8"
      },
      {
        "astId": 350,
        "contract": "contracts/oracles/BinanceOracle.sol:BinanceOracle",
        "label": "_initializing",
        "offset": 1,
        "slot": "0",
        "type": "t_bool"
      },
      {
        "astId": 961,
        "contract": "contracts/oracles/BinanceOracle.sol:BinanceOracle",
        "label": "__gap",
        "offset": 0,
        "slot": "1",
        "type": "t_array(t_uint256)50_storage"
      },
      {
        "astId": 219,
        "contract": "contracts/oracles/BinanceOracle.sol:BinanceOracle",
        "label": "_owner",
        "offset": 0,
        "slot": "51",
        "type": "t_address"
      },
      {
        "astId": 339,
        "contract": "contracts/oracles/BinanceOracle.sol:BinanceOracle",
        "label": "__gap",
        "offset": 0,
        "slot": "52",
        "type": "t_array(t_uint256)49_storage"
      },
      {
        "astId": 128,
        "contract": "contracts/oracles/BinanceOracle.sol:BinanceOracle",
        "label": "_pendingOwner",
        "offset": 0,
        "slot": "101",
        "type": "t_address"
      },
      {
        "astId": 207,
        "contract": "contracts/oracles/BinanceOracle.sol:BinanceOracle",
        "label": "__gap",
        "offset": 0,
        "slot": "102",
        "type": "t_array(t_uint256)49_storage"
      },
      {
        "astId": 4978,
        "contract": "contracts/oracles/BinanceOracle.sol:BinanceOracle",
        "label": "_accessControlManager",
        "offset": 0,
        "slot": "151",
        "type": "t_contract(IAccessControlManagerV8)5162"
      },
      {
        "astId": 4983,
        "contract": "contracts/oracles/BinanceOracle.sol:BinanceOracle",
        "label": "__gap",
        "offset": 0,
        "slot": "152",
        "type": "t_array(t_uint256)49_storage"
      },
      {
        "astId": 6715,
        "contract": "contracts/oracles/BinanceOracle.sol:BinanceOracle",
        "label": "sidRegistryAddress",
        "offset": 0,
        "slot": "201",
        "type": "t_address"
      },
      {
        "astId": 6726,
        "contract": "contracts/oracles/BinanceOracle.sol:BinanceOracle",
        "label": "maxStalePeriod",
        "offset": 0,
        "slot": "202",
        "type": "t_mapping(t_string_memory_ptr,t_uint256)"
      }
    ],
    "types": {
      "t_address": {
        "encoding": "inplace",
        "label": "address",
        "numberOfBytes": "20"
      },
      "t_array(t_uint256)49_storage": {
        "base": "t_uint256",
        "encoding": "inplace",
        "label": "uint256[49]",
        "numberOfBytes": "1568"
      },
      "t_array(t_uint256)50_storage": {
        "base": "t_uint256",
        "encoding": "inplace",
        "label": "uint256[50]",
        "numberOfBytes": "1600"
      },
      "t_bool": {
        "encoding": "inplace",
        "label": "bool",
        "numberOfBytes": "1"
      },
      "t_contract(IAccessControlManagerV8)5162": {
        "encoding": "inplace",
        "label": "contract IAccessControlManagerV8",
        "numberOfBytes": "20"
      },
      "t_mapping(t_string_memory_ptr,t_uint256)": {
        "encoding": "mapping",
        "key": "t_string_memory_ptr",
        "label": "mapping(string => uint256)",
        "numberOfBytes": "32",
        "value": "t_uint256"
      },
      "t_string_memory_ptr": {
        "encoding": "bytes",
        "label": "string",
        "numberOfBytes": "32"
      },
      "t_uint256": {
        "encoding": "inplace",
        "label": "uint256",
        "numberOfBytes": "32"
      },
      "t_uint8": {
        "encoding": "inplace",
        "label": "uint8",
        "numberOfBytes": "1"
      }
    }
  }
}