{
  "address": "0x183F3F263cb67735013F244bC29F3B0dFd2bE3D4",
  "abi": [
    {
      "anonymous": false,
      "inputs": [
        {
          "indexed": false,
          "internalType": "uint8",
          "name": "version",
          "type": "uint8"
        }
      ],
      "name": "Initialized",
      "type": "event"
    },
    {
      "inputs": [],
      "name": "feedRegistry",
      "outputs": [
        {
          "internalType": "contract FeedRegistryInterface",
          "name": "",
          "type": "address"
        }
      ],
      "stateMutability": "view",
      "type": "function"
    },
    {
      "inputs": [
        {
          "internalType": "contract VBep20Interface",
          "name": "vToken",
          "type": "address"
        }
      ],
      "name": "getUnderlyingPrice",
      "outputs": [
        {
          "internalType": "uint256",
          "name": "",
          "type": "uint256"
        }
      ],
      "stateMutability": "view",
      "type": "function"
    },
    {
      "inputs": [
        {
          "internalType": "contract FeedRegistryInterface",
          "name": "feed",
          "type": "address"
        }
      ],
      "name": "initialize",
      "outputs": [],
      "stateMutability": "nonpayable",
      "type": "function"
    }
  ],
  "transactionHash": "0xaa25df9b6680e532f493af33620742bad59eb9882018e5761c176c987255c057",
  "args": [],
  "numDeployments": 1,
  "solcInputHash": "ae0583524dcb884b388d1755a2fac2b4",
  "bytecode": "0x608060405234801561001057600080fd5b50610870806100206000396000f3fe608060405234801561001057600080fd5b50600436106100415760003560e01c806390238c3914610046578063c4d66de81461007c578063fc57d4df14610091575b600080fd5b60005461005f906201000090046001600160a01b031681565b6040516001600160a01b0390911681526020015b60405180910390f35b61008f61008a3660046104d7565b6100b2565b005b6100a461009f3660046104d7565b6101e2565b604051908152602001610073565b600054610100900460ff16158080156100d25750600054600160ff909116105b806100ec5750303b1580156100ec575060005460ff166001145b6101535760405162461bcd60e51b815260206004820152602e60248201527f496e697469616c697a61626c653a20636f6e747261637420697320616c72656160448201526d191e481a5b9a5d1a585b1a5e995960921b606482015260840160405180910390fd5b6000805460ff191660011790558015610176576000805461ff0019166101001790555b6000805462010000600160b01b031916620100006001600160a01b0385160217905580156101de576000805461ff0019169055604051600181527f7f26b83ff96e1f2b6a682f133852f6798a09c465da95921460cefb38474024989060200160405180910390a15b5050565b600080826001600160a01b0316636f307dc36040518163ffffffff1660e01b8152600401602060405180830381865afa158015610223573d6000803e3d6000fd5b505050506040513d601f19601f8201168201806040525081019061024791906104fb565b90506000816001600160a01b03166395d89b416040518163ffffffff1660e01b8152600401600060405180830381865afa158015610289573d6000803e3d6000fd5b505050506040513d6000823e601f3d908101601f191682016040526102b1919081019061055e565b6040805180820190915260048152632ba1272160e11b6020918201528151908201209091507f95a8318495ccc03d10cce56573b91a66a3b235a7a84e6cbaccd62d888d3e4f1901610318575060408051808201909152600381526221272160e91b60208201525b6000805460405163bfda5e7160e01b8152620100009091046001600160a01b03169063bfda5e719061034e90859060040161060b565b60a060405180830381865afa15801561036b573d6000803e3d6000fd5b505050506040513d601f19601f8201168201806040525081019061038f9190610680565b505060008054604051633748ccad60e11b81529395509093506201000090046001600160a01b031691636e91995a91506103cd90869060040161060b565b602060405180830381865afa1580156103ea573d6000803e3d6000fd5b505050506040513d601f19601f8201168201806040525081019061040e91906106d0565b60ff169050836001600160a01b031663313ce5676040518163ffffffff1660e01b8152600401602060405180830381865afa158015610451573d6000803e3d6000fd5b505050506040513d601f19601f8201168201806040525081019061047591906106d0565b610480906012610709565b61048b90600a610812565b610496826012610821565b6104a190600a610838565b6104ab9084610844565b6104b59190610844565b9695505050505050565b6001600160a01b03811681146104d457600080fd5b50565b6000602082840312156104e957600080fd5b81356104f4816104bf565b9392505050565b60006020828403121561050d57600080fd5b81516104f4816104bf565b634e487b7160e01b600052604160045260246000fd5b60005b83811015610549578181015183820152602001610531565b83811115610558576000848401525b50505050565b60006020828403121561057057600080fd5b815167ffffffffffffffff8082111561058857600080fd5b818401915084601f83011261059c57600080fd5b8151818111156105ae576105ae610518565b604051601f8201601f19908116603f011681019083821181831017156105d6576105d6610518565b816040528281528760208487010111156105ef57600080fd5b61060083602083016020880161052e565b979650505050505050565b604081526000825180604084015261062a81606085016020870161052e565b601f19601f82011683019050606083820301602084015260036060820152621554d160ea1b608082015260a0810191505092915050565b805169ffffffffffffffffffff8116811461067b57600080fd5b919050565b600080600080600060a0868803121561069857600080fd5b6106a186610661565b94506020860151935060408601519250606086015191506106c460808701610661565b90509295509295909350565b6000602082840312156106e257600080fd5b815160ff811681146104f457600080fd5b634e487b7160e01b600052601160045260246000fd5b600060ff821660ff841680821015610723576107236106f3565b90039392505050565b600181815b8085111561076757816000190482111561074d5761074d6106f3565b8085161561075a57918102915b93841c9390800290610731565b509250929050565b60008261077e5750600161080c565b8161078b5750600061080c565b81600181146107a157600281146107ab576107c7565b600191505061080c565b60ff8411156107bc576107bc6106f3565b50506001821b61080c565b5060208310610133831016604e8410600b84101617156107ea575081810a61080c565b6107f4838361072c565b8060001904821115610808576108086106f3565b0290505b92915050565b60006104f460ff84168361076f565b600082821015610833576108336106f3565b500390565b60006104f4838361076f565b600081600019048311821515161561085e5761085e6106f3565b50029056fea164736f6c634300080d000a",
  "devdoc": {
    "kind": "dev",
    "methods": {},
    "version": 1
  },
  "userdoc": {
    "kind": "user",
    "methods": {},
    "version": 1
  },
  "storageLayout": {
    "storage": [
      {
        "astId": 6,
        "contract": "contracts/oracles/BinanceOracle.sol:BinanceOracle",
        "label": "_initialized",
        "offset": 0,
        "slot": "0",
        "type": "t_uint8"
      },
      {
        "astId": 9,
        "contract": "contracts/oracles/BinanceOracle.sol:BinanceOracle",
        "label": "_initializing",
        "offset": 1,
        "slot": "0",
        "type": "t_bool"
      },
      {
        "astId": 546,
        "contract": "contracts/oracles/BinanceOracle.sol:BinanceOracle",
        "label": "feedRegistry",
        "offset": 2,
        "slot": "0",
        "type": "t_contract(FeedRegistryInterface)523"
      }
    ],
    "types": {
      "t_bool": {
        "encoding": "inplace",
        "label": "bool",
        "numberOfBytes": "1"
      },
      "t_contract(FeedRegistryInterface)523": {
        "encoding": "inplace",
        "label": "contract FeedRegistryInterface",
        "numberOfBytes": "20"
      },
      "t_uint8": {
        "encoding": "inplace",
        "label": "uint8",
        "numberOfBytes": "1"
      }
    }
  }
}