{
  "address": "0xBbfB90D65D2C09DB70ef9641915DbAe541eAa309",
  "abi": [
    {
      "inputs": [
        {
          "internalType": "address",
          "name": "stakeManager",
          "type": "address"
        },
        {
          "internalType": "address",
          "name": "bnbx",
          "type": "address"
        },
        {
          "internalType": "address",
          "name": "resilientOracle",
          "type": "address"
        }
      ],
      "stateMutability": "nonpayable",
      "type": "constructor"
    },
    {
      "inputs": [],
      "name": "InvalidTokenAddress",
      "type": "error"
    },
    {
      "inputs": [],
      "name": "ZeroAddressNotAllowed",
      "type": "error"
    },
    {
      "inputs": [],
      "name": "CORRELATED_TOKEN",
      "outputs": [
        {
          "internalType": "address",
          "name": "",
          "type": "address"
        }
      ],
      "stateMutability": "view",
      "type": "function"
    },
    {
      "inputs": [],
      "name": "NATIVE_TOKEN_ADDR",
      "outputs": [
        {
          "internalType": "address",
          "name": "",
          "type": "address"
        }
      ],
      "stateMutability": "view",
      "type": "function"
    },
    {
      "inputs": [],
      "name": "RESILIENT_ORACLE",
      "outputs": [
        {
          "internalType": "contract OracleInterface",
          "name": "",
          "type": "address"
        }
      ],
      "stateMutability": "view",
      "type": "function"
    },
    {
      "inputs": [],
      "name": "STAKE_MANAGER",
      "outputs": [
        {
          "internalType": "contract IStaderStakeManager",
          "name": "",
          "type": "address"
        }
      ],
      "stateMutability": "view",
      "type": "function"
    },
    {
      "inputs": [],
      "name": "UNDERLYING_TOKEN",
      "outputs": [
        {
          "internalType": "address",
          "name": "",
          "type": "address"
        }
      ],
      "stateMutability": "view",
      "type": "function"
    },
    {
      "inputs": [
        {
          "internalType": "address",
          "name": "asset",
          "type": "address"
        }
      ],
      "name": "getPrice",
      "outputs": [
        {
          "internalType": "uint256",
          "name": "",
          "type": "uint256"
        }
      ],
      "stateMutability": "view",
      "type": "function"
    }
  ],
  "transactionHash": "0x2f0b3cb449befbba72cad1620fc36ebdaea31256e41eb3f5beb4918a017f44fb",
  "args": [
    "0xDAdcae6bF110c0e70E5624bCdcCBe206f92A2Df9",
    "0x327d6E6FAC0228070884e913263CFF9eFed4a2C8",
    "0x3cD69251D04A28d887Ac14cbe2E14c52F3D57823"
  ],
  "numDeployments": 1,
  "solcInputHash": "99b3bea8181cef11bcfb39c4212459c2",
  "bytecode": "0x61010060405234801561001157600080fd5b50604051610716380380610716833981016040819052610030916100dc565b8173bbbbbbbbbbbbbbbbbbbbbbbbbbbbbbbbbbbbbbbb8261005083610096565b61005982610096565b61006281610096565b6001600160a01b0392831660805290821660a0521660c05261008383610096565b50506001600160a01b031660e05261011f565b6001600160a01b0381166100bd576040516342bcdf7f60e11b815260040160405180910390fd5b50565b80516001600160a01b03811681146100d757600080fd5b919050565b6000806000606084860312156100f157600080fd5b6100fa846100c0565b9250610108602085016100c0565b9150610116604085016100c0565b90509250925092565b60805160a05160c05160e05161059e6101786000396000818160f8015261034301526000818161011f01526101ff015260008181606c01526101d101526000818160d1015281816101600152610270015261059e6000f3fe608060405234801561001057600080fd5b50600436106100625760003560e01c806329db1be61461006757806341976e09146100ab57806369818a35146100cc5780637353847a146100f3578063a4edcd4c1461011a578063a9534f8a14610141575b600080fd5b61008e7f000000000000000000000000000000000000000000000000000000000000000081565b6040516001600160a01b0390911681526020015b60405180910390f35b6100be6100b93660046103bb565b61015c565b6040519081526020016100a2565b61008e7f000000000000000000000000000000000000000000000000000000000000000081565b61008e7f000000000000000000000000000000000000000000000000000000000000000081565b61008e7f000000000000000000000000000000000000000000000000000000000000000081565b61008e73bbbbbbbbbbbbbbbbbbbbbbbbbbbbbbbbbbbbbbbb81565b60007f00000000000000000000000000000000000000000000000000000000000000006001600160a01b0316826001600160a01b0316146101b057604051630f58058360e11b815260040160405180910390fd5b60006101ba610323565b6040516341976e0960e01b81526001600160a01b037f0000000000000000000000000000000000000000000000000000000000000000811660048301529192506000917f000000000000000000000000000000000000000000000000000000000000000016906341976e0990602401602060405180830381865afa158015610246573d6000803e3d6000fd5b505050506040513d601f19601f8201168201806040525081019061026a91906103eb565b905060007f000000000000000000000000000000000000000000000000000000000000000090506000816001600160a01b031663313ce5676040518163ffffffff1660e01b8152600401602060405180830381865afa1580156102d1573d6000803e3d6000fd5b505050506040513d601f19601f820116820180604052508101906102f59190610404565b60ff16905061030581600a610523565b61030f848661052f565b6103199190610546565b9695505050505050565b604051631940a0dd60e31b8152670de0b6b3a764000060048201526000907f00000000000000000000000000000000000000000000000000000000000000006001600160a01b03169063ca0506e890602401602060405180830381865afa158015610392573d6000803e3d6000fd5b505050506040513d601f19601f820116820180604052508101906103b691906103eb565b905090565b6000602082840312156103cd57600080fd5b81356001600160a01b03811681146103e457600080fd5b9392505050565b6000602082840312156103fd57600080fd5b5051919050565b60006020828403121561041657600080fd5b815160ff811681146103e457600080fd5b634e487b7160e01b600052601160045260246000fd5b600181815b8085111561047857816000190482111561045e5761045e610427565b8085161561046b57918102915b93841c9390800290610442565b509250929050565b60008261048f5750600161051d565b8161049c5750600061051d565b81600181146104b257600281146104bc576104d8565b600191505061051d565b60ff8411156104cd576104cd610427565b50506001821b61051d565b5060208310610133831016604e8410600b84101617156104fb575081810a61051d565b610505838361043d565b806000190482111561051957610519610427565b0290505b92915050565b60006103e48383610480565b808202811582820484141761051d5761051d610427565b60008261056357634e487b7160e01b600052601260045260246000fd5b50049056fea26469706673582212201d99460bf76818bb1d6990f039ee86d69723d11746c2e745f655eef147d494a964736f6c63430008190033",
  "devdoc": {
    "author": "Venus",
    "kind": "dev",
    "methods": {
      "constructor": {
        "custom:oz-upgrades-unsafe-allow": "constructor"
      },
      "getPrice(address)": {
        "params": {
          "asset": "Address of the correlated token"
        },
        "returns": {
          "_0": "price The price of the correlated token in scaled decimal places"
        }
      }
    },
    "stateVariables": {
      "STAKE_MANAGER": {
        "custom:oz-upgrades-unsafe-allow": "state-variable-immutable"
      }
    },
    "title": "BNBxOracle",
    "version": 1
  },
  "userdoc": {
    "errors": {
      "InvalidTokenAddress()": [
        {
          "notice": "Thrown if the token address is invalid"
        }
      ],
      "ZeroAddressNotAllowed()": [
        {
          "notice": "Thrown if the supplied address is a zero address where it is not allowed"
        }
      ]
    },
    "kind": "user",
    "methods": {
      "CORRELATED_TOKEN()": {
        "notice": "Address of the correlated token"
      },
      "NATIVE_TOKEN_ADDR()": {
        "notice": "This is used as token address of BNB on BSC"
      },
      "RESILIENT_ORACLE()": {
        "notice": "Address of Resilient Oracle"
      },
      "STAKE_MANAGER()": {
        "notice": "Address of StakeManager"
      },
      "UNDERLYING_TOKEN()": {
        "notice": "Address of the underlying token"
      },
      "constructor": {
        "notice": "Constructor for the implementation contract."
      },
      "getPrice(address)": {
        "notice": "Fetches the price of the correlated token"
      }
    },
    "notice": "This oracle fetches the price of BNBx asset",
    "version": 1
  },
  "storageLayout": {
    "storage": [],
    "types": null
  }
}