{
  "address": "0x068945930785e6816faE855a2A2e8c59BAD380f0",
  "abi": [
    {
      "inputs": [
        {
          "internalType": "address",
          "name": "stakeManager",
          "type": "address"
        },
        {
          "internalType": "address",
          "name": "bnbx",
          "type": "address"
        },
        {
          "internalType": "address",
          "name": "resilientOracle",
          "type": "address"
        },
        {
          "internalType": "uint256",
          "name": "annualGrowthRate",
          "type": "uint256"
        },
        {
          "internalType": "uint256",
          "name": "_snapshotInterval",
          "type": "uint256"
        },
        {
          "internalType": "uint256",
          "name": "initialSnapshotMaxExchangeRate",
          "type": "uint256"
        },
        {
          "internalType": "uint256",
          "name": "initialSnapshotTimestamp",
          "type": "uint256"
        },
        {
          "internalType": "address",
          "name": "accessControlManager",
          "type": "address"
        },
        {
          "internalType": "uint256",
          "name": "_snapshotGap",
          "type": "uint256"
        }
      ],
      "stateMutability": "nonpayable",
      "type": "constructor"
    },
    {
      "inputs": [],
      "name": "InvalidGrowthRate",
      "type": "error"
    },
    {
      "inputs": [],
      "name": "InvalidInitialSnapshot",
      "type": "error"
    },
    {
      "inputs": [],
      "name": "InvalidSnapshotMaxExchangeRate",
      "type": "error"
    },
    {
      "inputs": [],
      "name": "InvalidTokenAddress",
      "type": "error"
    },
    {
      "inputs": [
        {
          "internalType": "address",
          "name": "sender",
          "type": "address"
        },
        {
          "internalType": "address",
          "name": "calledContract",
          "type": "address"
        },
        {
          "internalType": "string",
          "name": "methodSignature",
          "type": "string"
        }
      ],
      "name": "Unauthorized",
      "type": "error"
    },
    {
      "inputs": [],
      "name": "ZeroAddressNotAllowed",
      "type": "error"
    },
    {
      "anonymous": false,
      "inputs": [
        {
          "indexed": true,
          "internalType": "uint256",
          "name": "oldGrowthRatePerSecond",
          "type": "uint256"
        },
        {
          "indexed": true,
          "internalType": "uint256",
          "name": "newGrowthRatePerSecond",
          "type": "uint256"
        },
        {
          "indexed": true,
          "internalType": "uint256",
          "name": "oldSnapshotInterval",
          "type": "uint256"
        },
        {
          "indexed": false,
          "internalType": "uint256",
          "name": "newSnapshotInterval",
          "type": "uint256"
        }
      ],
      "name": "GrowthRateUpdated",
      "type": "event"
    },
    {
      "anonymous": false,
      "inputs": [
        {
          "indexed": true,
          "internalType": "uint256",
          "name": "oldSnapshotGap",
          "type": "uint256"
        },
        {
          "indexed": true,
          "internalType": "uint256",
          "name": "newSnapshotGap",
          "type": "uint256"
        }
      ],
      "name": "SnapshotGapUpdated",
      "type": "event"
    },
    {
      "anonymous": false,
      "inputs": [
        {
          "indexed": true,
          "internalType": "uint256",
          "name": "maxExchangeRate",
          "type": "uint256"
        },
        {
          "indexed": true,
          "internalType": "uint256",
          "name": "timestamp",
          "type": "uint256"
        }
      ],
      "name": "SnapshotUpdated",
      "type": "event"
    },
    {
      "inputs": [],
      "name": "ACCESS_CONTROL_MANAGER",
      "outputs": [
        {
          "internalType": "contract IAccessControlManagerV8",
          "name": "",
          "type": "address"
        }
      ],
      "stateMutability": "view",
      "type": "function"
    },
    {
      "inputs": [],
      "name": "CORRELATED_TOKEN",
      "outputs": [
        {
          "internalType": "address",
          "name": "",
          "type": "address"
        }
      ],
      "stateMutability": "view",
      "type": "function"
    },
    {
      "inputs": [],
      "name": "NATIVE_TOKEN_ADDR",
      "outputs": [
        {
          "internalType": "address",
          "name": "",
          "type": "address"
        }
      ],
      "stateMutability": "view",
      "type": "function"
    },
    {
      "inputs": [],
      "name": "RESILIENT_ORACLE",
      "outputs": [
        {
          "internalType": "contract ResilientOracleInterface",
          "name": "",
          "type": "address"
        }
      ],
      "stateMutability": "view",
      "type": "function"
    },
    {
      "inputs": [],
      "name": "STAKE_MANAGER",
      "outputs": [
        {
          "internalType": "contract IStaderStakeManager",
          "name": "",
          "type": "address"
        }
      ],
      "stateMutability": "view",
      "type": "function"
    },
    {
      "inputs": [],
      "name": "UNDERLYING_TOKEN",
      "outputs": [
        {
          "internalType": "address",
          "name": "",
          "type": "address"
        }
      ],
      "stateMutability": "view",
      "type": "function"
    },
    {
      "inputs": [],
      "name": "getMaxAllowedExchangeRate",
      "outputs": [
        {
          "internalType": "uint256",
          "name": "",
          "type": "uint256"
        }
      ],
      "stateMutability": "view",
      "type": "function"
    },
    {
      "inputs": [
        {
          "internalType": "address",
          "name": "asset",
          "type": "address"
        }
      ],
      "name": "getPrice",
      "outputs": [
        {
          "internalType": "uint256",
          "name": "",
          "type": "uint256"
        }
      ],
      "stateMutability": "view",
      "type": "function"
    },
    {
      "inputs": [],
      "name": "getUnderlyingAmount",
      "outputs": [
        {
          "internalType": "uint256",
          "name": "",
          "type": "uint256"
        }
      ],
      "stateMutability": "view",
      "type": "function"
    },
    {
      "inputs": [],
      "name": "growthRatePerSecond",
      "outputs": [
        {
          "internalType": "uint256",
          "name": "",
          "type": "uint256"
        }
      ],
      "stateMutability": "view",
      "type": "function"
    },
    {
      "inputs": [],
      "name": "isCapped",
      "outputs": [
        {
          "internalType": "bool",
          "name": "",
          "type": "bool"
        }
      ],
      "stateMutability": "view",
      "type": "function"
    },
    {
      "inputs": [
        {
          "internalType": "uint256",
          "name": "_annualGrowthRate",
          "type": "uint256"
        },
        {
          "internalType": "uint256",
          "name": "_snapshotInterval",
          "type": "uint256"
        }
      ],
      "name": "setGrowthRate",
      "outputs": [],
      "stateMutability": "nonpayable",
      "type": "function"
    },
    {
      "inputs": [
        {
          "internalType": "uint256",
          "name": "_snapshotMaxExchangeRate",
          "type": "uint256"
        },
        {
          "internalType": "uint256",
          "name": "_snapshotTimestamp",
          "type": "uint256"
        }
      ],
      "name": "setSnapshot",
      "outputs": [],
      "stateMutability": "nonpayable",
      "type": "function"
    },
    {
      "inputs": [
        {
          "internalType": "uint256",
          "name": "_snapshotGap",
          "type": "uint256"
        }
      ],
      "name": "setSnapshotGap",
      "outputs": [],
      "stateMutability": "nonpayable",
      "type": "function"
    },
    {
      "inputs": [],
      "name": "snapshotGap",
      "outputs": [
        {
          "internalType": "uint256",
          "name": "",
          "type": "uint256"
        }
      ],
      "stateMutability": "view",
      "type": "function"
    },
    {
      "inputs": [],
      "name": "snapshotInterval",
      "outputs": [
        {
          "internalType": "uint256",
          "name": "",
          "type": "uint256"
        }
      ],
      "stateMutability": "view",
      "type": "function"
    },
    {
      "inputs": [],
      "name": "snapshotMaxExchangeRate",
      "outputs": [
        {
          "internalType": "uint256",
          "name": "",
          "type": "uint256"
        }
      ],
      "stateMutability": "view",
      "type": "function"
    },
    {
      "inputs": [],
      "name": "snapshotTimestamp",
      "outputs": [
        {
          "internalType": "uint256",
          "name": "",
          "type": "uint256"
        }
      ],
      "stateMutability": "view",
      "type": "function"
    },
    {
      "inputs": [],
      "name": "updateSnapshot",
      "outputs": [],
      "stateMutability": "nonpayable",
      "type": "function"
    }
  ],
  "transactionHash": "0xae7f43fe862a1c0076ec5cdc70df469573572a56af7bf9108f078cc0385f4116",
  "args": [
    "0xDAdcae6bF110c0e70E5624bCdcCBe206f92A2Df9",
    "0x327d6E6FAC0228070884e913263CFF9eFed4a2C8",
    "0x3cD69251D04A28d887Ac14cbe2E14c52F3D57823",
    0,
    0,
    0,
    0,
    "0x45f8a08F534f34A97187626E05d4b6648Eeaa9AA",
    0
  ],
  "numDeployments": 1,
  "solcInputHash": "8100be9851a60cd39397bcc019f102c9",
  "bytecode": "0x610120604052348015610010575f80fd5b50604051610f33380380610f3383398101604081905261002f91610190565b8773bbbbbbbbbbbbbbbbbbbbbbbbbbbbbbbbbbbbbbbb8888888888888861005a6301e133808761020f565b5f81905515801561006a57505f85115b8061007e57505f805411801561007e575084155b1561009c576040516353b7e64560e11b815260040160405180910390fd5b8315806100a7575082155b80156100b257505f85115b156100d05760405163b8a5589b60e01b815260040160405180910390fd5b6100d98961014b565b6100e28861014b565b6100eb8761014b565b6100f48261014b565b6001600160a01b0398891660805296881660a05294871660c052600192909255600255600355506004919091551660e05261012e8961014b565b5050506001600160a01b03909516610100525061022e9350505050565b6001600160a01b038116610172576040516342bcdf7f60e11b815260040160405180910390fd5b50565b80516001600160a01b038116811461018b575f80fd5b919050565b5f805f805f805f805f6101208a8c0312156101a9575f80fd5b6101b28a610175565b98506101c060208b01610175565b97506101ce60408b01610175565b965060608a0151955060808a0151945060a08a0151935060c08a015192506101f860e08b01610175565b91506101008a015190509295985092959850929598565b5f8261022957634e487b7160e01b5f52601260045260245ffd5b500490565b60805160a05160c05160e05161010051610c906102a35f395f818161023b01526106e601525f818161019c015261091901525f818161027e015281816105c201526107ec01525f81816101410152818161059a01526107c001525f8181610214015281816102d6015261085a0152610c905ff3fe608060405234801561000f575f80fd5b506004361061011c575f3560e01c806369240426116100a9578063a4edcd4c1161006e578063a4edcd4c14610279578063a9534f8a146102a0578063abb85613146102bb578063ac5a693e146102c3578063bdf13af2146102cb575f80fd5b8063692404261461020757806369818a351461020f5780637353847a146102365780637fc4e4a01461025d5780639c43eb5414610270575f80fd5b806345be2dc7116100ef57806345be2dc7146101975780635213f9c8146101be578063596efe6f146101d3578063643d813d146101dc578063671528d4146101ef575f80fd5b806307d0413c1461012057806329db1be61461013c5780634169d2451461017b57806341976e0914610184575b5f80fd5b61012960015481565b6040519081526020015b60405180910390f35b6101637f000000000000000000000000000000000000000000000000000000000000000081565b6040516001600160a01b039091168152602001610133565b61012960045481565b6101296101923660046109c2565b6102d3565b6101637f000000000000000000000000000000000000000000000000000000000000000081565b6101d16101cc3660046109e8565b610384565b005b61012960025481565b6101d16101ea3660046109ff565b6103f5565b6101f76104cb565b6040519015158152602001610133565b6101d1610506565b6101637f000000000000000000000000000000000000000000000000000000000000000081565b6101637f000000000000000000000000000000000000000000000000000000000000000081565b6101d161026b3660046109ff565b61064f565b61012960035481565b6101637f000000000000000000000000000000000000000000000000000000000000000081565b61016373bbbbbbbbbbbbbbbbbbbbbbbbbbbbbbbbbbbbbbbb81565b6101296106c7565b6101295f5481565b61012961075c565b5f7f00000000000000000000000000000000000000000000000000000000000000006001600160a01b0316826001600160a01b03161461032657604051630f58058360e11b815260040160405180910390fd5b5f61032f6106c7565b90506001545f0361034a57610343816107a9565b9392505050565b5f61035361075c565b90505f818311801561036457508115155b61036e5782610370565b815b905061037b816107a9565b95945050505050565b6103c26040518060400160405280601781526020017f736574536e617073686f744761702875696e7432353629000000000000000000815250610900565b6004546040518291907feb3716d3f8388c182853c1dc98b18931f3a600bbab31f2ff48631f6412e4997f905f90a3600455565b6104336040518060400160405280601e81526020017f73657447726f777468526174652875696e743235362c75696e74323536290000815250610900565b5f546104436301e1338084610a33565b5f81905515801561045357505f82115b8061046757505f8054118015610467575081155b15610485576040516353b7e64560e11b815260040160405180910390fd5b6001545f54827fa65cbeb0e28a8803a912daac67c472c160aa01e2c988755fa424f290321de608856040516104bc91815260200190565b60405180910390a45060015550565b5f6001545f036104da57505f90565b5f6104e361075c565b9050805f036104f3575f91505090565b5f6104fc6106c7565b9190911192915050565b6001546003546105169042610a52565b10806105225750600154155b1561052957565b5f6105326106c7565b90505f61053d61075c565b905060045481831161054f5782610551565b815b61055b9190610a6b565b6002819055426003555f0361058357604051635f18388760e01b815260040160405180910390fd5b60405163b62cad6960e01b81526001600160a01b037f0000000000000000000000000000000000000000000000000000000000000000811660048301527f0000000000000000000000000000000000000000000000000000000000000000169063b62cad69906024015f604051808303815f87803b158015610603575f80fd5b505af1158015610615573d5f803e3d5ffd5b505050506003546002547f2c8c8fcb8c77a0ca21dcc3ab8fc0ade761557e76b1240cb40ebbef9fcee00f7d60405160405180910390a35050565b61068d6040518060400160405280601c81526020017f736574536e617073686f742875696e743235362c75696e743235362900000000815250610900565b60028290556003819055604051819083907f2c8c8fcb8c77a0ca21dcc3ab8fc0ade761557e76b1240cb40ebbef9fcee00f7d905f90a35050565b604051631940a0dd60e31b8152670de0b6b3a764000060048201525f907f00000000000000000000000000000000000000000000000000000000000000006001600160a01b03169063ca0506e890602401602060405180830381865afa158015610733573d5f803e3d5ffd5b505050506040513d601f19601f820116820180604052508101906107579190610a7e565b905090565b5f806003544261076c9190610a52565b90505f670de0b6b3a7640000825f546002546107889190610a95565b6107929190610a95565b61079c9190610a33565b6002546103439190610a6b565b6040516341976e0960e01b81526001600160a01b037f0000000000000000000000000000000000000000000000000000000000000000811660048301525f9182917f000000000000000000000000000000000000000000000000000000000000000016906341976e0990602401602060405180830381865afa158015610831573d5f803e3d5ffd5b505050506040513d601f19601f820116820180604052508101906108559190610a7e565b90505f7f000000000000000000000000000000000000000000000000000000000000000090505f816001600160a01b031663313ce5676040518163ffffffff1660e01b8152600401602060405180830381865afa1580156108b8573d5f803e3d5ffd5b505050506040513d601f19601f820116820180604052508101906108dc9190610aac565b60ff1690506108ec81600a610bac565b6108f68487610a95565b61037b9190610a33565b6040516318c5e8ab60e01b81525f906001600160a01b037f000000000000000000000000000000000000000000000000000000000000000016906318c5e8ab906109509033908690600401610be5565b602060405180830381865afa15801561096b573d5f803e3d5ffd5b505050506040513d601f19601f8201168201806040525081019061098f9190610c10565b9050806109be57333083604051634a3fa29360e01b81526004016109b593929190610c2f565b60405180910390fd5b5050565b5f602082840312156109d2575f80fd5b81356001600160a01b0381168114610343575f80fd5b5f602082840312156109f8575f80fd5b5035919050565b5f8060408385031215610a10575f80fd5b50508035926020909101359150565b634e487b7160e01b5f52601160045260245ffd5b5f82610a4d57634e487b7160e01b5f52601260045260245ffd5b500490565b81810381811115610a6557610a65610a1f565b92915050565b80820180821115610a6557610a65610a1f565b5f60208284031215610a8e575f80fd5b5051919050565b8082028115828204841417610a6557610a65610a1f565b5f60208284031215610abc575f80fd5b815160ff81168114610343575f80fd5b600181815b80851115610b0657815f1904821115610aec57610aec610a1f565b80851615610af957918102915b93841c9390800290610ad1565b509250929050565b5f82610b1c57506001610a65565b81610b2857505f610a65565b8160018114610b3e5760028114610b4857610b64565b6001915050610a65565b60ff841115610b5957610b59610a1f565b50506001821b610a65565b5060208310610133831016604e8410600b8410161715610b87575081810a610a65565b610b918383610acc565b805f1904821115610ba457610ba4610a1f565b029392505050565b5f6103438383610b0e565b5f81518084528060208401602086015e5f602082860101526020601f19601f83011685010191505092915050565b6001600160a01b03831681526040602082018190525f90610c0890830184610bb7565b949350505050565b5f60208284031215610c20575f80fd5b81518015158114610343575f80fd5b6001600160a01b038481168252831660208201526060604082018190525f9061037b90830184610bb756fea26469706673582212202688710e0817153d5d2ef8e6d96dcf9d5231198d5d19a8f59805761293bb5f4664736f6c63430008190033",
  "devdoc": {
    "author": "Venus",
    "kind": "dev",
    "methods": {
      "getMaxAllowedExchangeRate()": {
        "returns": {
          "_0": "maxExchangeRate Maximum allowed exchange rate"
        }
      },
      "getPrice(address)": {
        "custom:error": "InvalidTokenAddress error is thrown if the token address is invalid",
        "params": {
          "asset": "Address of the token"
        },
        "returns": {
          "_0": "price The price of the token in scaled decimal places. It can be capped to a maximum value taking into account the growth rate"
        }
      },
      "getUnderlyingAmount()": {
        "returns": {
          "_0": "price The amount of BNB for BNBx"
        }
      },
      "isCapped()": {
        "returns": {
          "_0": "isCapped Boolean indicating if the price is capped"
        }
      },
      "setGrowthRate(uint256,uint256)": {
        "custom:error": "InvalidGrowthRate error is thrown if the growth rate is invalid",
        "custom:event": "Emits GrowthRateUpdated event on successful update of the growth rate",
        "params": {
          "_annualGrowthRate": "The annual growth rate to set",
          "_snapshotInterval": "The snapshot interval to set"
        }
      },
      "setSnapshot(uint256,uint256)": {
        "custom:event": "Emits SnapshotUpdated event on successful update of the snapshot",
        "params": {
          "_snapshotMaxExchangeRate": "The exchange rate to set",
          "_snapshotTimestamp": "The timestamp to set"
        }
      },
      "setSnapshotGap(uint256)": {
        "custom:event": "Emits SnapshotGapUpdated event on successful update of the snapshot gap",
        "params": {
          "_snapshotGap": "The snapshot gap to set"
        }
      },
      "updateSnapshot()": {
        "custom:error": "InvalidSnapshotMaxExchangeRate error is thrown if the max snapshot exchange rate is zero",
        "custom:event": "Emits SnapshotUpdated event on successful update of the snapshot"
      }
    },
    "title": "BNBxOracle",
    "version": 1
  },
  "userdoc": {
    "errors": {
      "InvalidGrowthRate()": [
        {
          "notice": "Thrown if the growth rate is invalid"
        }
      ],
      "InvalidInitialSnapshot()": [
        {
          "notice": "Thrown if the initial snapshot is invalid"
        }
      ],
      "InvalidSnapshotMaxExchangeRate()": [
        {
          "notice": "Thrown if the max snapshot exchange rate is invalid"
        }
      ],
      "InvalidTokenAddress()": [
        {
          "notice": "Thrown if the token address is invalid"
        }
      ],
      "Unauthorized(address,address,string)": [
        {
          "notice": "@notice Thrown when the action is prohibited by AccessControlManager"
        }
      ],
      "ZeroAddressNotAllowed()": [
        {
          "notice": "Thrown if the supplied address is a zero address where it is not allowed"
        }
      ]
    },
    "events": {
      "GrowthRateUpdated(uint256,uint256,uint256,uint256)": {
        "notice": "Emitted when the growth rate is updated"
      },
      "SnapshotGapUpdated(uint256,uint256)": {
        "notice": "Emitted when the snapshot gap is updated"
      },
      "SnapshotUpdated(uint256,uint256)": {
        "notice": "Emitted when the snapshot is updated"
      }
    },
    "kind": "user",
    "methods": {
      "ACCESS_CONTROL_MANAGER()": {
        "notice": "Address of the AccessControlManager contract"
      },
      "CORRELATED_TOKEN()": {
        "notice": "Address of the correlated token"
      },
      "NATIVE_TOKEN_ADDR()": {
        "notice": "This is used as token address of BNB on BSC"
      },
      "RESILIENT_ORACLE()": {
        "notice": "Address of Resilient Oracle"
      },
      "STAKE_MANAGER()": {
        "notice": "Address of StakeManager"
      },
      "UNDERLYING_TOKEN()": {
        "notice": "Address of the underlying token"
      },
      "constructor": {
        "notice": "Constructor for the implementation contract."
      },
      "getMaxAllowedExchangeRate()": {
        "notice": "Gets the maximum allowed exchange rate for token"
      },
      "getPrice(address)": {
        "notice": "Fetches the price of the token"
      },
      "getUnderlyingAmount()": {
        "notice": "Fetches the amount of BNB for 1 BNBx"
      },
      "isCapped()": {
        "notice": "Returns if the price is capped"
      },
      "setGrowthRate(uint256,uint256)": {
        "notice": "Sets the growth rate and snapshot interval"
      },
      "setSnapshot(uint256,uint256)": {
        "notice": "Directly sets the snapshot exchange rate and timestamp"
      },
      "setSnapshotGap(uint256)": {
        "notice": "Sets the snapshot gap"
      },
      "snapshotGap()": {
        "notice": "Gap to add when updating the snapshot"
      },
      "snapshotInterval()": {
        "notice": "Snapshot update interval"
      },
      "snapshotMaxExchangeRate()": {
        "notice": "Last stored snapshot maximum exchange rate"
      },
      "snapshotTimestamp()": {
        "notice": "Last stored snapshot timestamp"
      },
      "updateSnapshot()": {
        "notice": "Updates the snapshot price and timestamp"
      }
    },
    "notice": "This oracle fetches the price of BNBx asset",
    "version": 1
  },
  "storageLayout": {
    "storage": [
      {
        "astId": 6407,
        "contract": "contracts/oracles/BNBxOracle.sol:BNBxOracle",
        "label": "growthRatePerSecond",
        "offset": 0,
        "slot": "0",
        "type": "t_uint256"
      },
      {
        "astId": 6410,
        "contract": "contracts/oracles/BNBxOracle.sol:BNBxOracle",
        "label": "snapshotInterval",
        "offset": 0,
        "slot": "1",
        "type": "t_uint256"
      },
      {
        "astId": 6413,
        "contract": "contracts/oracles/BNBxOracle.sol:BNBxOracle",
        "label": "snapshotMaxExchangeRate",
        "offset": 0,
        "slot": "2",
        "type": "t_uint256"
      },
      {
        "astId": 6416,
        "contract": "contracts/oracles/BNBxOracle.sol:BNBxOracle",
        "label": "snapshotTimestamp",
        "offset": 0,
        "slot": "3",
        "type": "t_uint256"
      },
      {
        "astId": 6419,
        "contract": "contracts/oracles/BNBxOracle.sol:BNBxOracle",
        "label": "snapshotGap",
        "offset": 0,
        "slot": "4",
        "type": "t_uint256"
      }
    ],
    "types": {
      "t_uint256": {
        "encoding": "inplace",
        "label": "uint256",
        "numberOfBytes": "32"
      }
    }
  }
}