{
  "address": "0xe663872EB70991cDf19671Ae6C6A0C6794814E20",
  "abi": [
    {
      "anonymous": false,
      "inputs": [
        {
          "indexed": false,
          "internalType": "uint8",
          "name": "version",
          "type": "uint8"
        }
      ],
      "name": "Initialized",
      "type": "event"
    },
    {
      "anonymous": false,
      "inputs": [
        {
          "indexed": true,
          "internalType": "address",
          "name": "previousOwner",
          "type": "address"
        },
        {
          "indexed": true,
          "internalType": "address",
          "name": "newOwner",
          "type": "address"
        }
      ],
      "name": "OwnershipTransferred",
      "type": "event"
    },
    {
      "anonymous": false,
      "inputs": [
        {
          "indexed": true,
          "internalType": "address",
          "name": "asset",
          "type": "address"
        },
        {
          "indexed": true,
          "internalType": "uint256",
          "name": "upperBound",
          "type": "uint256"
        },
        {
          "indexed": true,
          "internalType": "uint256",
          "name": "lowerBound",
          "type": "uint256"
        }
      ],
      "name": "ValidateConfigAdded",
      "type": "event"
    },
    {
      "inputs": [],
      "name": "initialize",
      "outputs": [],
      "stateMutability": "nonpayable",
      "type": "function"
    },
    {
      "inputs": [],
      "name": "owner",
      "outputs": [
        {
          "internalType": "address",
          "name": "",
          "type": "address"
        }
      ],
      "stateMutability": "view",
      "type": "function"
    },
    {
      "inputs": [],
      "name": "renounceOwnership",
      "outputs": [],
      "stateMutability": "nonpayable",
      "type": "function"
    },
    {
      "inputs": [
        {
          "components": [
            {
              "internalType": "address",
              "name": "asset",
              "type": "address"
            },
            {
              "internalType": "uint256",
              "name": "upperBoundRatio",
              "type": "uint256"
            },
            {
              "internalType": "uint256",
              "name": "lowerBoundRatio",
              "type": "uint256"
            }
          ],
          "internalType": "struct ValidateConfig",
          "name": "config",
          "type": "tuple"
        }
      ],
      "name": "setValidateConfig",
      "outputs": [],
      "stateMutability": "nonpayable",
      "type": "function"
    },
    {
      "inputs": [
        {
          "components": [
            {
              "internalType": "address",
              "name": "asset",
              "type": "address"
            },
            {
              "internalType": "uint256",
              "name": "upperBoundRatio",
              "type": "uint256"
            },
            {
              "internalType": "uint256",
              "name": "lowerBoundRatio",
              "type": "uint256"
            }
          ],
          "internalType": "struct ValidateConfig[]",
          "name": "configs",
          "type": "tuple[]"
        }
      ],
      "name": "setValidateConfigs",
      "outputs": [],
      "stateMutability": "nonpayable",
      "type": "function"
    },
    {
      "inputs": [
        {
          "internalType": "address",
          "name": "newOwner",
          "type": "address"
        }
      ],
      "name": "transferOwnership",
      "outputs": [],
      "stateMutability": "nonpayable",
      "type": "function"
    },
    {
      "inputs": [
        {
          "internalType": "address",
          "name": "",
          "type": "address"
        }
      ],
      "name": "validateConfigs",
      "outputs": [
        {
          "internalType": "address",
          "name": "asset",
          "type": "address"
        },
        {
          "internalType": "uint256",
          "name": "upperBoundRatio",
          "type": "uint256"
        },
        {
          "internalType": "uint256",
          "name": "lowerBoundRatio",
          "type": "uint256"
        }
      ],
      "stateMutability": "view",
      "type": "function"
    },
    {
      "inputs": [
        {
          "internalType": "address",
          "name": "vToken",
          "type": "address"
        },
        {
          "internalType": "uint256",
          "name": "reporterPrice",
          "type": "uint256"
        },
        {
          "internalType": "uint256",
          "name": "anchorPrice",
          "type": "uint256"
        }
      ],
      "name": "validatePriceWithAnchorPrice",
      "outputs": [
        {
          "internalType": "bool",
          "name": "",
          "type": "bool"
        }
      ],
      "stateMutability": "view",
      "type": "function"
    }
  ],
  "transactionHash": "0xb98afd66d9da96b729a711f3c709a0eeb680b1647cbcedf92385a6933fdf14bf",
  "args": [],
  "numDeployments": 1,
  "solcInputHash": "bb71c6049f6b7b21a6581f40daf802bc",
  "bytecode": "0x608060405234801561001057600080fd5b50610b1a806100206000396000f3fe608060405234801561001057600080fd5b50600436106100885760003560e01c80639c3576151161005b5780639c357615146100e2578063af9e6c5b146100f5578063bca9e11614610108578063f2fde38b1461016657600080fd5b8063715018a61461008d5780638129fc1c146100975780638da5cb5b1461009f57806397c7033e146100bf575b600080fd5b610095610179565b005b61009561018d565b6033546040516001600160a01b0390911681526020015b60405180910390f35b6100d26100cd366004610826565b6102a3565b60405190151581526020016100b6565b6100956100f0366004610907565b6103da565b6100956101033660046109b7565b61047d565b6101416101163660046109d3565b6065602052600090815260409020805460018201546002909201546001600160a01b03909116919083565b604080516001600160a01b0390941684526020840192909252908201526060016100b6565b6100956101743660046109d3565b61061e565b610181610694565b61018b60006106ee565b565b600054610100900460ff16158080156101ad5750600054600160ff909116105b806101c75750303b1580156101c7575060005460ff166001145b61022f5760405162461bcd60e51b815260206004820152602e60248201527f496e697469616c697a61626c653a20636f6e747261637420697320616c72656160448201526d191e481a5b9a5d1a585b1a5e995960921b60648201526084015b60405180910390fd5b6000805460ff191660011790558015610252576000805461ff0019166101001790555b61025a610740565b80156102a0576000805461ff0019169055604051600181527f7f26b83ff96e1f2b6a682f133852f6798a09c465da95921460cefb38474024989060200160405180910390a15b50565b600080846001600160a01b0316636f307dc36040518163ffffffff1660e01b8152600401602060405180830381865afa1580156102e4573d6000803e3d6000fd5b505050506040513d601f19601f8201168201806040525081019061030891906109f0565b6001600160a01b038116600090815260656020526040812060010154919250036103745760405162461bcd60e51b815260206004820152601b60248201527f76616c69646174696f6e20636f6e666967206e6f7420657869737400000000006044820152606401610226565b826000036103c45760405162461bcd60e51b815260206004820152601960248201527f616e63686f72207072696365206973206e6f742076616c6964000000000000006044820152606401610226565b6103cf81858561076f565b9150505b9392505050565b6103e2610694565b60008151116104335760405162461bcd60e51b815260206004820152601e60248201527f696e76616c69642076616c696461746520636f6e666967206c656e67746800006044820152606401610226565b60005b81518160ff16101561047957610467828260ff168151811061045a5761045a610a0d565b602002602001015161047d565b8061047181610a39565b915050610436565b5050565b610485610694565b80516001600160a01b03166104dc5760405162461bcd60e51b815260206004820152601b60248201527f61737365742063616e2774206265207a65726f206164647265737300000000006044820152606401610226565b600081602001511180156104f4575060008160400151115b6105395760405162461bcd60e51b8152602060048201526016602482015275626f756e64206d75737420626520706f73697469766560501b6044820152606401610226565b80604001518160200151116105a55760405162461bcd60e51b815260206004820152602c60248201527f757070657220626f756e64206d75737420626520686967686572207468616e2060448201526b1b1bdddb995c88189bdd5b9960a21b6064820152608401610226565b80516001600160a01b039081166000908152606560209081526040808320855181546001600160a01b03191695169485178155918501516001830181905581860151600290930183905590519193909290917f28e2d96bdcf74fe6203e40d159d27ec2e15230239c0aee4a0a914196c550e6d19190a450565b610626610694565b6001600160a01b03811661068b5760405162461bcd60e51b815260206004820152602660248201527f4f776e61626c653a206e6577206f776e657220697320746865207a65726f206160448201526564647265737360d01b6064820152608401610226565b6102a0816106ee565b6033546001600160a01b0316331461018b5760405162461bcd60e51b815260206004820181905260248201527f4f776e61626c653a2063616c6c6572206973206e6f7420746865206f776e65726044820152606401610226565b603380546001600160a01b038381166001600160a01b0319831681179093556040519116919082907f8be0079c531659141344cd1fd0a4f28419497f9722a3daafe3b4186f6b6457e090600090a35050565b600054610100900460ff166107675760405162461bcd60e51b815260040161022690610a58565b61018b6107e1565b600082156107d75760008361078c84670de0b6b3a7640000610aa3565b6107969190610ac2565b6001600160a01b03861660009081526065602052604090206001810154600290910154919250908183118015906107cd5750808310155b93505050506103d3565b5060009392505050565b600054610100900460ff166108085760405162461bcd60e51b815260040161022690610a58565b61018b336106ee565b6001600160a01b03811681146102a057600080fd5b60008060006060848603121561083b57600080fd5b833561084681610811565b95602085013595506040909401359392505050565b634e487b7160e01b600052604160045260246000fd5b604051601f8201601f1916810167ffffffffffffffff8111828210171561089a5761089a61085b565b604052919050565b6000606082840312156108b457600080fd5b6040516060810181811067ffffffffffffffff821117156108d7576108d761085b565b60405290508082356108e881610811565b8082525060208301356020820152604083013560408201525092915050565b6000602080838503121561091a57600080fd5b823567ffffffffffffffff8082111561093257600080fd5b818501915085601f83011261094657600080fd5b8135818111156109585761095861085b565b610966848260051b01610871565b8181528481019250606091820284018501918883111561098557600080fd5b938501935b828510156109ab5761099c89866108a2565b8452938401939285019261098a565b50979650505050505050565b6000606082840312156109c957600080fd5b6103d383836108a2565b6000602082840312156109e557600080fd5b81356103d381610811565b600060208284031215610a0257600080fd5b81516103d381610811565b634e487b7160e01b600052603260045260246000fd5b634e487b7160e01b600052601160045260246000fd5b600060ff821660ff8103610a4f57610a4f610a23565b60010192915050565b6020808252602b908201527f496e697469616c697a61626c653a20636f6e7472616374206973206e6f74206960408201526a6e697469616c697a696e6760a81b606082015260800190565b6000816000190483118215151615610abd57610abd610a23565b500290565b600082610adf57634e487b7160e01b600052601260045260246000fd5b50049056fea26469706673582212208732aea9e4e8810a48ed3b5739b056009946f852c2627616cc2a2895d92d490a64736f6c634300080d0033",
  "devdoc": {
    "kind": "dev",
    "methods": {
      "owner()": {
        "details": "Returns the address of the current owner."
      },
      "renounceOwnership()": {
        "details": "Leaves the contract without owner. It will not be possible to call `onlyOwner` functions anymore. Can only be called by the current owner. NOTE: Renouncing ownership will leave the contract without an owner, thereby removing any functionality that is only available to the owner."
      },
      "setValidateConfig((address,uint256,uint256))": {
        "params": {
          "config": "config struct"
        }
      },
      "setValidateConfigs((address,uint256,uint256)[])": {
        "params": {
          "configs": "config array"
        }
      },
      "transferOwnership(address)": {
        "details": "Transfers ownership of the contract to a new account (`newOwner`). Can only be called by the current owner."
      },
      "validatePriceWithAnchorPrice(address,uint256,uint256)": {
        "params": {
          "reporterPrice": "the price to be tested",
          "vToken": "vToken address"
        }
      }
    },
    "version": 1
  },
  "userdoc": {
    "events": {
      "ValidateConfigAdded(address,uint256,uint256)": {
        "notice": "Emit this event when new validate configs are added"
      }
    },
    "kind": "user",
    "methods": {
      "setValidateConfig((address,uint256,uint256))": {
        "notice": "Add single validation config"
      },
      "setValidateConfigs((address,uint256,uint256)[])": {
        "notice": "Add multiple validation configs at the same time"
      },
      "validateConfigs(address)": {
        "notice": "validation configs by asset"
      },
      "validatePriceWithAnchorPrice(address,uint256,uint256)": {
        "notice": "Test reported asset price against anchor price"
      }
    },
    "version": 1
  },
  "storageLayout": {
    "storage": [
      {
        "astId": 138,
        "contract": "contracts/oracles/BoundValidator.sol:BoundValidator",
        "label": "_initialized",
        "offset": 0,
        "slot": "0",
        "type": "t_uint8"
      },
      {
        "astId": 141,
        "contract": "contracts/oracles/BoundValidator.sol:BoundValidator",
        "label": "_initializing",
        "offset": 1,
        "slot": "0",
        "type": "t_bool"
      },
      {
        "astId": 693,
        "contract": "contracts/oracles/BoundValidator.sol:BoundValidator",
        "label": "__gap",
        "offset": 0,
        "slot": "1",
        "type": "t_array(t_uint256)50_storage"
      },
      {
        "astId": 10,
        "contract": "contracts/oracles/BoundValidator.sol:BoundValidator",
        "label": "_owner",
        "offset": 0,
        "slot": "51",
        "type": "t_address"
      },
      {
        "astId": 130,
        "contract": "contracts/oracles/BoundValidator.sol:BoundValidator",
        "label": "__gap",
        "offset": 0,
        "slot": "52",
        "type": "t_array(t_uint256)49_storage"
      },
      {
        "astId": 5479,
        "contract": "contracts/oracles/BoundValidator.sol:BoundValidator",
        "label": "validateConfigs",
        "offset": 0,
        "slot": "101",
        "type": "t_mapping(t_address,t_struct(ValidateConfig)5469_storage)"
      },
      {
        "astId": 5694,
        "contract": "contracts/oracles/BoundValidator.sol:BoundValidator",
        "label": "__gap",
        "offset": 0,
        "slot": "102",
        "type": "t_array(t_uint256)49_storage"
      }
    ],
    "types": {
      "t_address": {
        "encoding": "inplace",
        "label": "address",
        "numberOfBytes": "20"
      },
      "t_array(t_uint256)49_storage": {
        "base": "t_uint256",
        "encoding": "inplace",
        "label": "uint256[49]",
        "numberOfBytes": "1568"
      },
      "t_array(t_uint256)50_storage": {
        "base": "t_uint256",
        "encoding": "inplace",
        "label": "uint256[50]",
        "numberOfBytes": "1600"
      },
      "t_bool": {
        "encoding": "inplace",
        "label": "bool",
        "numberOfBytes": "1"
      },
      "t_mapping(t_address,t_struct(ValidateConfig)5469_storage)": {
        "encoding": "mapping",
        "key": "t_address",
        "label": "mapping(address => struct ValidateConfig)",
        "numberOfBytes": "32",
        "value": "t_struct(ValidateConfig)5469_storage"
      },
      "t_struct(ValidateConfig)5469_storage": {
        "encoding": "inplace",
        "label": "struct ValidateConfig",
        "members": [
          {
            "astId": 5462,
            "contract": "contracts/oracles/BoundValidator.sol:BoundValidator",
            "label": "asset",
            "offset": 0,
            "slot": "0",
            "type": "t_address"
          },
          {
            "astId": 5465,
            "contract": "contracts/oracles/BoundValidator.sol:BoundValidator",
            "label": "upperBoundRatio",
            "offset": 0,
            "slot": "1",
            "type": "t_uint256"
          },
          {
            "astId": 5468,
            "contract": "contracts/oracles/BoundValidator.sol:BoundValidator",
            "label": "lowerBoundRatio",
            "offset": 0,
            "slot": "2",
            "type": "t_uint256"
          }
        ],
        "numberOfBytes": "96"
      },
      "t_uint256": {
        "encoding": "inplace",
        "label": "uint256",
        "numberOfBytes": "32"
      },
      "t_uint8": {
        "encoding": "inplace",
        "label": "uint8",
        "numberOfBytes": "1"
      }
    }
  }
}