{
  "address": "0x531A3a9D4e1fDcA4308E49197c2D4AAD15E74580",
  "abi": [
    {
      "inputs": [
        {
          "internalType": "address",
          "name": "vBnbAddress",
          "type": "address"
        }
      ],
      "stateMutability": "nonpayable",
      "type": "constructor"
    },
    {
      "anonymous": false,
      "inputs": [
        {
          "indexed": false,
          "internalType": "uint8",
          "name": "version",
          "type": "uint8"
        }
      ],
      "name": "Initialized",
      "type": "event"
    },
    {
      "anonymous": false,
      "inputs": [
        {
          "indexed": true,
          "internalType": "address",
          "name": "previousOwner",
          "type": "address"
        },
        {
          "indexed": true,
          "internalType": "address",
          "name": "newOwner",
          "type": "address"
        }
      ],
      "name": "OwnershipTransferred",
      "type": "event"
    },
    {
      "anonymous": false,
      "inputs": [
        {
          "indexed": false,
          "internalType": "address",
          "name": "asset",
          "type": "address"
        },
        {
          "indexed": false,
          "internalType": "uint256",
          "name": "previousPriceMantissa",
          "type": "uint256"
        },
        {
          "indexed": false,
          "internalType": "uint256",
          "name": "requestedPriceMantissa",
          "type": "uint256"
        },
        {
          "indexed": false,
          "internalType": "uint256",
          "name": "newPriceMantissa",
          "type": "uint256"
        }
      ],
      "name": "PricePosted",
      "type": "event"
    },
    {
      "anonymous": false,
      "inputs": [
        {
          "indexed": false,
          "internalType": "address",
          "name": "asset",
          "type": "address"
        },
        {
          "indexed": false,
          "internalType": "address",
          "name": "feed",
          "type": "address"
        },
        {
          "indexed": false,
          "internalType": "uint256",
          "name": "maxStalePeriod",
          "type": "uint256"
        }
      ],
      "name": "TokenConfigAdded",
      "type": "event"
    },
    {
      "inputs": [],
      "name": "BNB_ADDR",
      "outputs": [
        {
          "internalType": "address",
          "name": "",
          "type": "address"
        }
      ],
      "stateMutability": "view",
      "type": "function"
    },
    {
      "inputs": [],
      "name": "VAI_VALUE",
      "outputs": [
        {
          "internalType": "uint256",
          "name": "",
          "type": "uint256"
        }
      ],
      "stateMutability": "view",
      "type": "function"
    },
    {
      "inputs": [
        {
          "internalType": "address",
          "name": "vToken",
          "type": "address"
        }
      ],
      "name": "getUnderlyingPrice",
      "outputs": [
        {
          "internalType": "uint256",
          "name": "",
          "type": "uint256"
        }
      ],
      "stateMutability": "view",
      "type": "function"
    },
    {
      "inputs": [],
      "name": "initialize",
      "outputs": [],
      "stateMutability": "nonpayable",
      "type": "function"
    },
    {
      "inputs": [],
      "name": "owner",
      "outputs": [
        {
          "internalType": "address",
          "name": "",
          "type": "address"
        }
      ],
      "stateMutability": "view",
      "type": "function"
    },
    {
      "inputs": [
        {
          "internalType": "address",
          "name": "",
          "type": "address"
        }
      ],
      "name": "prices",
      "outputs": [
        {
          "internalType": "uint256",
          "name": "",
          "type": "uint256"
        }
      ],
      "stateMutability": "view",
      "type": "function"
    },
    {
      "inputs": [],
      "name": "renounceOwnership",
      "outputs": [],
      "stateMutability": "nonpayable",
      "type": "function"
    },
    {
      "inputs": [
        {
          "internalType": "address",
          "name": "asset",
          "type": "address"
        },
        {
          "internalType": "uint256",
          "name": "price",
          "type": "uint256"
        }
      ],
      "name": "setDirectPrice",
      "outputs": [],
      "stateMutability": "nonpayable",
      "type": "function"
    },
    {
      "inputs": [
        {
          "components": [
            {
              "internalType": "address",
              "name": "asset",
              "type": "address"
            },
            {
              "internalType": "address",
              "name": "feed",
              "type": "address"
            },
            {
              "internalType": "uint256",
              "name": "maxStalePeriod",
              "type": "uint256"
            }
          ],
          "internalType": "struct TokenConfig",
          "name": "tokenConfig",
          "type": "tuple"
        }
      ],
      "name": "setTokenConfig",
      "outputs": [],
      "stateMutability": "nonpayable",
      "type": "function"
    },
    {
      "inputs": [
        {
          "components": [
            {
              "internalType": "address",
              "name": "asset",
              "type": "address"
            },
            {
              "internalType": "address",
              "name": "feed",
              "type": "address"
            },
            {
              "internalType": "uint256",
              "name": "maxStalePeriod",
              "type": "uint256"
            }
          ],
          "internalType": "struct TokenConfig[]",
          "name": "tokenConfigs_",
          "type": "tuple[]"
        }
      ],
      "name": "setTokenConfigs",
      "outputs": [],
      "stateMutability": "nonpayable",
      "type": "function"
    },
    {
      "inputs": [
        {
          "internalType": "contract VBep20Interface",
          "name": "vToken",
          "type": "address"
        },
        {
          "internalType": "uint256",
          "name": "underlyingPriceMantissa",
          "type": "uint256"
        }
      ],
      "name": "setUnderlyingPrice",
      "outputs": [],
      "stateMutability": "nonpayable",
      "type": "function"
    },
    {
      "inputs": [
        {
          "internalType": "address",
          "name": "",
          "type": "address"
        }
      ],
      "name": "tokenConfigs",
      "outputs": [
        {
          "internalType": "address",
          "name": "asset",
          "type": "address"
        },
        {
          "internalType": "address",
          "name": "feed",
          "type": "address"
        },
        {
          "internalType": "uint256",
          "name": "maxStalePeriod",
          "type": "uint256"
        }
      ],
      "stateMutability": "view",
      "type": "function"
    },
    {
      "inputs": [
        {
          "internalType": "address",
          "name": "newOwner",
          "type": "address"
        }
      ],
      "name": "transferOwnership",
      "outputs": [],
      "stateMutability": "nonpayable",
      "type": "function"
    },
    {
      "inputs": [],
      "name": "vBnb",
      "outputs": [
        {
          "internalType": "address",
          "name": "",
          "type": "address"
        }
      ],
      "stateMutability": "view",
      "type": "function"
    }
  ],
  "transactionHash": "0x49237fa1cd30839fa3656c7c4b52794a6fef6960fbaa9643ed1c9aa9ed82d2d4",
  "args": [
    "0x2E7222e51c0f6e98610A1543Aa3836E092CDe62c"
  ],
  "numDeployments": 1,
  "solcInputHash": "6153c675ce838eebb6442d63350712be",
  "bytecode": "0x60a06040523480156200001157600080fd5b50604051620015e2380380620015e283398101604081905262000034916200016f565b806001600160a01b038116620000915760405162461bcd60e51b815260206004820152601560248201527f63616e2774206265207a65726f2061646472657373000000000000000000000060448201526064015b60405180910390fd5b6001600160a01b038216608052620000a8620000b0565b5050620001a1565b600054610100900460ff16156200011a5760405162461bcd60e51b815260206004820152602760248201527f496e697469616c697a61626c653a20636f6e747261637420697320696e697469604482015266616c697a696e6760c81b606482015260840162000088565b60005460ff90811610156200016d576000805460ff191660ff9081179091556040519081527f7f26b83ff96e1f2b6a682f133852f6798a09c465da95921460cefb38474024989060200160405180910390a15b565b6000602082840312156200018257600080fd5b81516001600160a01b03811681146200019a57600080fd5b9392505050565b608051611410620001d2600039600081816101dc015281816103f6015281816108130152610a5901526114106000f3fe608060405234801561001057600080fd5b50600436106100ea5760003560e01c8063715018a61161008c578063b9de61e211610066578063b9de61e21461021f578063cfed246b1461023c578063f2fde38b1461025c578063fc57d4df1461026f57600080fd5b8063715018a6146101fe5780638129fc1c146102065780638da5cb5b1461020e57600080fd5b80631b69dc5f116100c85780631b69dc5f1461012a578063392787d2146101915780633e83b6b8146101a45780635ba3792d146101d757600080fd5b80630431710e146100ef57806309a8acb014610104578063127ffda014610117575b600080fd5b6101026100fd366004610f51565b610282565b005b610102610112366004611001565b610318565b610102610125366004611001565b6103c3565b61016661013836600461102d565b6066602052600090815260409020805460018201546002909201546001600160a01b03918216929091169083565b604080516001600160a01b039485168152939092166020840152908201526060015b60405180910390f35b61010261019f36600461104a565b61052b565b6101bf73bbbbbbbbbbbbbbbbbbbbbbbbbbbbbbbbbbbbbbbb81565b6040516001600160a01b039091168152602001610188565b6101bf7f000000000000000000000000000000000000000000000000000000000000000081565b610102610673565b610102610687565b6033546001600160a01b03166101bf565b61022e670de0b6b3a764000081565b604051908152602001610188565b61022e61024a36600461102d565b60656020526000908152604090205481565b61010261026a36600461102d565b610798565b61022e61027d36600461102d565b61080e565b61028a61091d565b60008151116102d45760405162461bcd60e51b815260206004820152601160248201527006c656e6774682063616e2774206265203607c1b60448201526064015b60405180910390fd5b805160005b81811015610313576103038382815181106102f6576102f6611066565b602002602001015161052b565b61030c81611092565b90506102d9565b505050565b816001600160a01b03811661033f5760405162461bcd60e51b81526004016102cb906110ab565b61034761091d565b6001600160a01b038316600081815260656020908152604091829020548251938452908301528101839052606081018390527fdd71a1d19fcba687442a1d5c58578f1e409af71a79d10fd95a4d66efd8fa9ae79060800160405180910390a1506001600160a01b03909116600090815260656020526040902055565b816001600160a01b0381166103ea5760405162461bcd60e51b81526004016102cb906110ab565b6103f261091d565b60007f00000000000000000000000000000000000000000000000000000000000000006001600160a01b0316846001600160a01b03161461049457836001600160a01b0316636f307dc36040518163ffffffff1660e01b8152600401602060405180830381865afa15801561046b573d6000803e3d6000fd5b505050506040513d601f19601f8201168201806040525081019061048f91906110da565b6104aa565b73bbbbbbbbbbbbbbbbbbbbbbbbbbbbbbbbbbbbbbbb5b6001600160a01b038116600081815260656020908152604091829020548251938452908301528101859052606081018590529091507fdd71a1d19fcba687442a1d5c58578f1e409af71a79d10fd95a4d66efd8fa9ae79060800160405180910390a16001600160a01b03166000908152606560205260409020919091555050565b61053361091d565b80516001600160a01b03811661055b5760405162461bcd60e51b81526004016102cb906110ab565b60208201516001600160a01b0381166105865760405162461bcd60e51b81526004016102cb906110ab565b60008360400151116105da5760405162461bcd60e51b815260206004820152601a60248201527f7374616c6520706572696f642063616e2774206265207a65726f00000000000060448201526064016102cb565b82516001600160a01b03908116600090815260666020908152604091829020865181549085166001600160a01b031991821681178355838901516001840180549190971692168217909555838801516002909201829055835194855291840191909152908201527f3cc8d9cb9370a23a8b9ffa75efa24cecb65c4693980e58260841adc474983c5f9060600160405180910390a1505050565b61067b61091d565b6106856000610977565b565b600054610100900460ff16158080156106a75750600054600160ff909116105b806106c15750303b1580156106c1575060005460ff166001145b6107245760405162461bcd60e51b815260206004820152602e60248201527f496e697469616c697a61626c653a20636f6e747261637420697320616c72656160448201526d191e481a5b9a5d1a585b1a5e995960921b60648201526084016102cb565b6000805460ff191660011790558015610747576000805461ff0019166101001790555b61074f6109c9565b8015610795576000805461ff0019169055604051600181527f7f26b83ff96e1f2b6a682f133852f6798a09c465da95921460cefb38474024989060200160405180910390a15b50565b6107a061091d565b6001600160a01b0381166108055760405162461bcd60e51b815260206004820152602660248201527f4f776e61626c653a206e6577206f776e657220697320746865207a65726f206160448201526564647265737360d01b60648201526084016102cb565b61079581610977565b6000807f00000000000000000000000000000000000000000000000000000000000000006001600160a01b0316836001600160a01b03160361086b576040518060400160405280600381526020016221272160e91b8152506108d1565b826001600160a01b03166395d89b416040518163ffffffff1660e01b8152600401600060405180830381865afa1580156108a9573d6000803e3d6000fd5b505050506040513d6000823e601f3d908101601f191682016040526108d19190810190611127565b90506108f8816040518060400160405280600381526020016256414960e81b8152506109f8565b1561090d5750670de0b6b3a764000092915050565b61091683610a52565b9392505050565b6033546001600160a01b031633146106855760405162461bcd60e51b815260206004820181905260248201527f4f776e61626c653a2063616c6c6572206973206e6f7420746865206f776e657260448201526064016102cb565b603380546001600160a01b038381166001600160a01b0319831681179093556040519116919082907f8be0079c531659141344cd1fd0a4f28419497f9722a3daafe3b4186f6b6457e090600090a35050565b600054610100900460ff166109f05760405162461bcd60e51b81526004016102cb906111bb565b610685610bdc565b600081604051602001610a0b9190611206565b6040516020818303038152906040528051906020012083604051602001610a329190611206565b604051602081830303815290604052805190602001201490505b92915050565b60008060007f00000000000000000000000000000000000000000000000000000000000000006001600160a01b0316846001600160a01b031603610aaf575073bbbbbbbbbbbbbbbbbbbbbbbbbbbbbbbbbbbbbbbb90506012610b7b565b836001600160a01b0316636f307dc36040518163ffffffff1660e01b8152600401602060405180830381865afa158015610aed573d6000803e3d6000fd5b505050506040513d601f19601f82011682018060405250810190610b1191906110da565b9150816001600160a01b031663313ce5676040518163ffffffff1660e01b8152600401602060405180830381865afa158015610b51573d6000803e3d6000fd5b505050506040513d601f19601f82011682018060405250810190610b759190611222565b60ff1690505b6001600160a01b0382166000908152606560205260409020548015610ba257809350610bae565b610bab83610c0c565b93505b6000610bbb836012611245565b9050610bc881600a611340565b610bd2908661134c565b9695505050505050565b600054610100900460ff16610c035760405162461bcd60e51b81526004016102cb906111bb565b61068533610977565b6001600160a01b0380821660009081526066602052604081205490911680610c465760405162461bcd60e51b81526004016102cb906110ab565b6001600160a01b03808416600090815260666020908152604080832081516060810183528154861681526001820154909516858401819052600290910154858301819052825163313ce56760e01b81529251919490939092859263313ce567926004808401939192918290030181865afa158015610cc8573d6000803e3d6000fd5b505050506040513d601f19601f82011682018060405250810190610cec9190611222565b610cfa9060ff166012611245565b9050600080846001600160a01b031663feaf968c6040518163ffffffff1660e01b815260040160a060405180830381865afa158015610d3d573d6000803e3d6000fd5b505050506040513d601f19601f82011682018060405250810190610d61919061138a565b5093505092505060008213610db85760405162461bcd60e51b815260206004820181905260248201527f636861696e6c696e6b207072696365206d75737420626520706f73697469766560448201526064016102cb565b80421015610e085760405162461bcd60e51b815260206004820152601c60248201527f757064617465644174206578636565647320626c6f636b2074696d650000000060448201526064016102cb565b6000610e148242611245565b905084811115610e665760405162461bcd60e51b815260206004820152601760248201527f636861696e6c696e6b207072696365206578706972656400000000000000000060448201526064016102cb565b610e7184600a611340565b610e7b908461134c565b9a9950505050505050505050565b634e487b7160e01b600052604160045260246000fd5b604051601f8201601f1916810167ffffffffffffffff81118282101715610ec857610ec8610e89565b604052919050565b6001600160a01b038116811461079557600080fd5b600060608284031215610ef757600080fd5b6040516060810181811067ffffffffffffffff82111715610f1a57610f1a610e89565b6040529050808235610f2b81610ed0565b81526020830135610f3b81610ed0565b6020820152604092830135920191909152919050565b60006020808385031215610f6457600080fd5b823567ffffffffffffffff80821115610f7c57600080fd5b818501915085601f830112610f9057600080fd5b813581811115610fa257610fa2610e89565b610fb0848260051b01610e9f565b81815284810192506060918202840185019188831115610fcf57600080fd5b938501935b82851015610ff557610fe68986610ee5565b84529384019392850192610fd4565b50979650505050505050565b6000806040838503121561101457600080fd5b823561101f81610ed0565b946020939093013593505050565b60006020828403121561103f57600080fd5b813561091681610ed0565b60006060828403121561105c57600080fd5b6109168383610ee5565b634e487b7160e01b600052603260045260246000fd5b634e487b7160e01b600052601160045260246000fd5b6000600182016110a4576110a461107c565b5060010190565b60208082526015908201527463616e2774206265207a65726f206164647265737360581b604082015260600190565b6000602082840312156110ec57600080fd5b815161091681610ed0565b60005b838110156111125781810151838201526020016110fa565b83811115611121576000848401525b50505050565b60006020828403121561113957600080fd5b815167ffffffffffffffff8082111561115157600080fd5b818401915084601f83011261116557600080fd5b81518181111561117757611177610e89565b61118a601f8201601f1916602001610e9f565b91508082528560208285010111156111a157600080fd5b6111b28160208401602086016110f7565b50949350505050565b6020808252602b908201527f496e697469616c697a61626c653a20636f6e7472616374206973206e6f74206960408201526a6e697469616c697a696e6760a81b606082015260800190565b600082516112188184602087016110f7565b9190910192915050565b60006020828403121561123457600080fd5b815160ff8116811461091657600080fd5b6000828210156112575761125761107c565b500390565b600181815b8085111561129757816000190482111561127d5761127d61107c565b8085161561128a57918102915b93841c9390800290611261565b509250929050565b6000826112ae57506001610a4c565b816112bb57506000610a4c565b81600181146112d157600281146112db576112f7565b6001915050610a4c565b60ff8411156112ec576112ec61107c565b50506001821b610a4c565b5060208310610133831016604e8410600b841016171561131a575081810a610a4c565b611324838361125c565b80600019048211156113385761133861107c565b029392505050565b6000610916838361129f565b60008160001904831182151516156113665761136661107c565b500290565b805169ffffffffffffffffffff8116811461138557600080fd5b919050565b600080600080600060a086880312156113a257600080fd5b6113ab8661136b565b94506020860151935060408601519250606086015191506113ce6080870161136b565b9050929550929590935056fea2646970667358221220ae8ecb6f3dc3b655ed158090fb7b84e2537fd4c114ee9714e1176514bfc9188064736f6c634300080d0033",
  "devdoc": {
    "kind": "dev",
    "methods": {
      "constructor": {
        "custom:oz-upgrades-unsafe-allow": "constructor",
        "params": {
          "vBnbAddress": "The address of the vBNB"
        }
      },
      "getUnderlyingPrice(address)": {
        "params": {
          "vToken": "vToken address"
        },
        "returns": {
          "_0": "price Underlying price in USD"
        }
      },
      "owner()": {
        "details": "Returns the address of the current owner."
      },
      "renounceOwnership()": {
        "details": "Leaves the contract without owner. It will not be possible to call `onlyOwner` functions anymore. Can only be called by the current owner. NOTE: Renouncing ownership will leave the contract without an owner, thereby removing any functionality that is only available to the owner."
      },
      "setDirectPrice(address,uint256)": {
        "custom:access": "Only Governance",
        "custom:event": "Emits PricePosted event on succesfully setup of underlying price",
        "params": {
          "asset": "Asset address",
          "price": "Underlying price in 18 decimals"
        }
      },
      "setTokenConfig((address,address,uint256))": {
        "custom:access": "Only Governance",
        "custom:error": "NotNullAddress error is thrown if asset address is nullNotNullAddress error is thrown if token feed address is nullRange error is thrown if maxStale period of token is not greater than zero",
        "custom:event": "Emits TokenConfigAdded event on succesfully setting of the token config",
        "params": {
          "tokenConfig": "Token config struct"
        }
      },
      "setTokenConfigs((address,address,uint256)[])": {
        "custom:access": "Only Governance",
        "custom:error": "Zero length error thrown, if length of the array in parameter is 0",
        "params": {
          "tokenConfigs_": "config array"
        }
      },
      "setUnderlyingPrice(address,uint256)": {
        "custom:access": "Only Governance",
        "custom:error": "NotNullAddress thrown if address of vToken is null",
        "custom:event": "Emits PricePosted event on succesfully setup of underlying price",
        "params": {
          "underlyingPriceMantissa": "price in 18 decimals",
          "vToken": "vToken address"
        }
      },
      "transferOwnership(address)": {
        "details": "Transfers ownership of the contract to a new account (`newOwner`). Can only be called by the current owner."
      }
    },
    "stateVariables": {
      "vBnb": {
        "custom:oz-upgrades-unsafe-allow": "state-variable-immutable"
      }
    },
    "version": 1
  },
  "userdoc": {
    "events": {
      "PricePosted(address,uint256,uint256,uint256)": {
        "notice": "Emit when a price is manually set"
      },
      "TokenConfigAdded(address,address,uint256)": {
        "notice": "Emit when a token config is added"
      }
    },
    "kind": "user",
    "methods": {
      "BNB_ADDR()": {
        "notice": "Set this as asset address for BNB. This is the underlying address for vBNB"
      },
      "VAI_VALUE()": {
        "notice": "VAI token is considered $1 constantly in oracle for now"
      },
      "constructor": {
        "notice": "Constructor for the implementation contract. Sets immutable variables."
      },
      "getUnderlyingPrice(address)": {
        "notice": "Gets the Chainlink price for the underlying asset of a given vToken, revert when vToken is a null address"
      },
      "initialize()": {
        "notice": "Initializes the owner of the contract"
      },
      "prices(address)": {
        "notice": "Manually set an override price, useful under extenuating conditions such as price feed failure"
      },
      "setDirectPrice(address,uint256)": {
        "notice": "Manually set the price of a given asset"
      },
      "setTokenConfig((address,address,uint256))": {
        "notice": "Add single token config. vToken & feed cannot be null addresses and maxStalePeriod must be positive"
      },
      "setTokenConfigs((address,address,uint256)[])": {
        "notice": "Add multiple token configs at the same time"
      },
      "setUnderlyingPrice(address,uint256)": {
        "notice": "Set the forced prices of the underlying token of input vToken"
      },
      "tokenConfigs(address)": {
        "notice": "Token config by assets"
      },
      "vBnb()": {
        "notice": "vBNB address"
      }
    },
    "version": 1
  },
  "storageLayout": {
    "storage": [
      {
        "astId": 241,
        "contract": "contracts/oracles/ChainlinkOracle.sol:ChainlinkOracle",
        "label": "_initialized",
        "offset": 0,
        "slot": "0",
        "type": "t_uint8"
      },
      {
        "astId": 244,
        "contract": "contracts/oracles/ChainlinkOracle.sol:ChainlinkOracle",
        "label": "_initializing",
        "offset": 1,
        "slot": "0",
        "type": "t_bool"
      },
      {
        "astId": 855,
        "contract": "contracts/oracles/ChainlinkOracle.sol:ChainlinkOracle",
        "label": "__gap",
        "offset": 0,
        "slot": "1",
        "type": "t_array(t_uint256)50_storage"
      },
      {
        "astId": 113,
        "contract": "contracts/oracles/ChainlinkOracle.sol:ChainlinkOracle",
        "label": "_owner",
        "offset": 0,
        "slot": "51",
        "type": "t_address"
      },
      {
        "astId": 233,
        "contract": "contracts/oracles/ChainlinkOracle.sol:ChainlinkOracle",
        "label": "__gap",
        "offset": 0,
        "slot": "52",
        "type": "t_array(t_uint256)49_storage"
      },
      {
        "astId": 5488,
        "contract": "contracts/oracles/ChainlinkOracle.sol:ChainlinkOracle",
        "label": "prices",
        "offset": 0,
        "slot": "101",
        "type": "t_mapping(t_address,t_uint256)"
      },
      {
        "astId": 5494,
        "contract": "contracts/oracles/ChainlinkOracle.sol:ChainlinkOracle",
        "label": "tokenConfigs",
        "offset": 0,
        "slot": "102",
        "type": "t_mapping(t_address,t_struct(TokenConfig)5468_storage)"
      }
    ],
    "types": {
      "t_address": {
        "encoding": "inplace",
        "label": "address",
        "numberOfBytes": "20"
      },
      "t_array(t_uint256)49_storage": {
        "base": "t_uint256",
        "encoding": "inplace",
        "label": "uint256[49]",
        "numberOfBytes": "1568"
      },
      "t_array(t_uint256)50_storage": {
        "base": "t_uint256",
        "encoding": "inplace",
        "label": "uint256[50]",
        "numberOfBytes": "1600"
      },
      "t_bool": {
        "encoding": "inplace",
        "label": "bool",
        "numberOfBytes": "1"
      },
      "t_mapping(t_address,t_struct(TokenConfig)5468_storage)": {
        "encoding": "mapping",
        "key": "t_address",
        "label": "mapping(address => struct TokenConfig)",
        "numberOfBytes": "32",
        "value": "t_struct(TokenConfig)5468_storage"
      },
      "t_mapping(t_address,t_uint256)": {
        "encoding": "mapping",
        "key": "t_address",
        "label": "mapping(address => uint256)",
        "numberOfBytes": "32",
        "value": "t_uint256"
      },
      "t_struct(TokenConfig)5468_storage": {
        "encoding": "inplace",
        "label": "struct TokenConfig",
        "members": [
          {
            "astId": 5461,
            "contract": "contracts/oracles/ChainlinkOracle.sol:ChainlinkOracle",
            "label": "asset",
            "offset": 0,
            "slot": "0",
            "type": "t_address"
          },
          {
            "astId": 5464,
            "contract": "contracts/oracles/ChainlinkOracle.sol:ChainlinkOracle",
            "label": "feed",
            "offset": 0,
            "slot": "1",
            "type": "t_address"
          },
          {
            "astId": 5467,
            "contract": "contracts/oracles/ChainlinkOracle.sol:ChainlinkOracle",
            "label": "maxStalePeriod",
            "offset": 0,
            "slot": "2",
            "type": "t_uint256"
          }
        ],
        "numberOfBytes": "96"
      },
      "t_uint256": {
        "encoding": "inplace",
        "label": "uint256",
        "numberOfBytes": "32"
      },
      "t_uint8": {
        "encoding": "inplace",
        "label": "uint8",
        "numberOfBytes": "1"
      }
    }
  }
}