{
  "address": "0x4A4392630ee2359333EdCC97838f9B0Db29D247f",
  "abi": [
    {
      "anonymous": false,
      "inputs": [
        {
          "indexed": false,
          "internalType": "uint8",
          "name": "version",
          "type": "uint8"
        }
      ],
      "name": "Initialized",
      "type": "event"
    },
    {
      "anonymous": false,
      "inputs": [
        {
          "indexed": true,
          "internalType": "address",
          "name": "previousOwner",
          "type": "address"
        },
        {
          "indexed": true,
          "internalType": "address",
          "name": "newOwner",
          "type": "address"
        }
      ],
      "name": "OwnershipTransferred",
      "type": "event"
    },
    {
      "anonymous": false,
      "inputs": [
        {
          "indexed": false,
          "internalType": "address",
          "name": "asset",
          "type": "address"
        },
        {
          "indexed": false,
          "internalType": "uint256",
          "name": "previousPriceMantissa",
          "type": "uint256"
        },
        {
          "indexed": false,
          "internalType": "uint256",
          "name": "requestedPriceMantissa",
          "type": "uint256"
        },
        {
          "indexed": false,
          "internalType": "uint256",
          "name": "newPriceMantissa",
          "type": "uint256"
        }
      ],
      "name": "PricePosted",
      "type": "event"
    },
    {
      "anonymous": false,
      "inputs": [
        {
          "indexed": false,
          "internalType": "address",
          "name": "asset",
          "type": "address"
        },
        {
          "indexed": false,
          "internalType": "address",
          "name": "feed",
          "type": "address"
        },
        {
          "indexed": false,
          "internalType": "uint256",
          "name": "maxStalePeriod",
          "type": "uint256"
        }
      ],
      "name": "TokenConfigAdded",
      "type": "event"
    },
    {
      "inputs": [],
      "name": "VAI_VALUE",
      "outputs": [
        {
          "internalType": "uint256",
          "name": "",
          "type": "uint256"
        }
      ],
      "stateMutability": "view",
      "type": "function"
    },
    {
      "inputs": [
        {
          "internalType": "address",
          "name": "vToken",
          "type": "address"
        }
      ],
      "name": "getUnderlyingPrice",
      "outputs": [
        {
          "internalType": "uint256",
          "name": "",
          "type": "uint256"
        }
      ],
      "stateMutability": "view",
      "type": "function"
    },
    {
      "inputs": [],
      "name": "initialize",
      "outputs": [],
      "stateMutability": "nonpayable",
      "type": "function"
    },
    {
      "inputs": [],
      "name": "owner",
      "outputs": [
        {
          "internalType": "address",
          "name": "",
          "type": "address"
        }
      ],
      "stateMutability": "view",
      "type": "function"
    },
    {
      "inputs": [
        {
          "internalType": "address",
          "name": "",
          "type": "address"
        }
      ],
      "name": "prices",
      "outputs": [
        {
          "internalType": "uint256",
          "name": "",
          "type": "uint256"
        }
      ],
      "stateMutability": "view",
      "type": "function"
    },
    {
      "inputs": [],
      "name": "renounceOwnership",
      "outputs": [],
      "stateMutability": "nonpayable",
      "type": "function"
    },
    {
      "inputs": [
        {
          "internalType": "address",
          "name": "asset",
          "type": "address"
        },
        {
          "internalType": "uint256",
          "name": "price",
          "type": "uint256"
        }
      ],
      "name": "setDirectPrice",
      "outputs": [],
      "stateMutability": "nonpayable",
      "type": "function"
    },
    {
      "inputs": [
        {
          "components": [
            {
              "internalType": "address",
              "name": "asset",
              "type": "address"
            },
            {
              "internalType": "address",
              "name": "feed",
              "type": "address"
            },
            {
              "internalType": "uint256",
              "name": "maxStalePeriod",
              "type": "uint256"
            }
          ],
          "internalType": "struct TokenConfig",
          "name": "tokenConfig",
          "type": "tuple"
        }
      ],
      "name": "setTokenConfig",
      "outputs": [],
      "stateMutability": "nonpayable",
      "type": "function"
    },
    {
      "inputs": [
        {
          "components": [
            {
              "internalType": "address",
              "name": "asset",
              "type": "address"
            },
            {
              "internalType": "address",
              "name": "feed",
              "type": "address"
            },
            {
              "internalType": "uint256",
              "name": "maxStalePeriod",
              "type": "uint256"
            }
          ],
          "internalType": "struct TokenConfig[]",
          "name": "tokenConfigs_",
          "type": "tuple[]"
        }
      ],
      "name": "setTokenConfigs",
      "outputs": [],
      "stateMutability": "nonpayable",
      "type": "function"
    },
    {
      "inputs": [
        {
          "internalType": "contract VBep20Interface",
          "name": "vToken",
          "type": "address"
        },
        {
          "internalType": "uint256",
          "name": "underlyingPriceMantissa",
          "type": "uint256"
        }
      ],
      "name": "setUnderlyingPrice",
      "outputs": [],
      "stateMutability": "nonpayable",
      "type": "function"
    },
    {
      "inputs": [
        {
          "internalType": "address",
          "name": "",
          "type": "address"
        }
      ],
      "name": "tokenConfigs",
      "outputs": [
        {
          "internalType": "address",
          "name": "asset",
          "type": "address"
        },
        {
          "internalType": "address",
          "name": "feed",
          "type": "address"
        },
        {
          "internalType": "uint256",
          "name": "maxStalePeriod",
          "type": "uint256"
        }
      ],
      "stateMutability": "view",
      "type": "function"
    },
    {
      "inputs": [
        {
          "internalType": "address",
          "name": "newOwner",
          "type": "address"
        }
      ],
      "name": "transferOwnership",
      "outputs": [],
      "stateMutability": "nonpayable",
      "type": "function"
    }
  ],
  "transactionHash": "0xa5350d740d50023cd5685722faf04e303012f932fcb2c7c94e0e69718fc40cc2",
  "args": [],
  "numDeployments": 1,
  "solcInputHash": "bb71c6049f6b7b21a6581f40daf802bc",
  "bytecode": "0x608060405234801561001057600080fd5b50611327806100206000396000f3fe608060405234801561001057600080fd5b50600436106100b45760003560e01c80638129fc1c116100715780638129fc1c146101765780638da5cb5b1461017e578063b9de61e214610199578063cfed246b146101b6578063f2fde38b146101d6578063fc57d4df146101e957600080fd5b80630431710e146100b957806309a8acb0146100ce578063127ffda0146100e15780631b69dc5f146100f4578063392787d21461015b578063715018a61461016e575b600080fd5b6100cc6100c7366004610e68565b6101fc565b005b6100cc6100dc366004610f18565b610292565b6100cc6100ef366004610f18565b610315565b610130610102366004610f44565b6066602052600090815260409020805460018201546002909201546001600160a01b03918216929091169083565b604080516001600160a01b039485168152939092166020840152908201526060015b60405180910390f35b6100cc610169366004610f61565b6103fe565b6100cc610546565b6100cc61055a565b6033546040516001600160a01b039091168152602001610152565b6101a8670de0b6b3a764000081565b604051908152602001610152565b6101a86101c4366004610f44565b60656020526000908152604090205481565b6100cc6101e4366004610f44565b61066b565b6101a86101f7366004610f44565b6106e1565b6102046107ca565b600081511161024e5760405162461bcd60e51b815260206004820152601160248201527006c656e6774682063616e2774206265203607c1b60448201526064015b60405180910390fd5b60005b815181101561028e5761027c82828151811061026f5761026f610f7d565b60200260200101516103fe565b8061028681610fa9565b915050610251565b5050565b61029a6107ca565b6001600160a01b038216600081815260656020908152604091829020548251938452908301528101829052606081018290527fdd71a1d19fcba687442a1d5c58578f1e409af71a79d10fd95a4d66efd8fa9ae79060800160405180910390a16001600160a01b03909116600090815260656020526040902055565b61031d6107ca565b6000826001600160a01b0316636f307dc36040518163ffffffff1660e01b8152600401602060405180830381865afa15801561035d573d6000803e3d6000fd5b505050506040513d601f19601f820116820180604052508101906103819190610fc2565b6001600160a01b038116600081815260656020908152604091829020548251938452908301528101849052606081018490529091507fdd71a1d19fcba687442a1d5c58578f1e409af71a79d10fd95a4d66efd8fa9ae79060800160405180910390a16001600160a01b031660009081526065602052604090205550565b6104066107ca565b80516001600160a01b03811661042e5760405162461bcd60e51b815260040161024590610fdf565b60208201516001600160a01b0381166104595760405162461bcd60e51b815260040161024590610fdf565b60008360400151116104ad5760405162461bcd60e51b815260206004820152601a60248201527f7374616c6520706572696f642063616e2774206265207a65726f0000000000006044820152606401610245565b82516001600160a01b03908116600090815260666020908152604091829020865181549085166001600160a01b031991821681178355838901516001840180549190971692168217909555838801516002909201829055835194855291840191909152908201527f3cc8d9cb9370a23a8b9ffa75efa24cecb65c4693980e58260841adc474983c5f9060600160405180910390a1505050565b61054e6107ca565b6105586000610824565b565b600054610100900460ff161580801561057a5750600054600160ff909116105b806105945750303b158015610594575060005460ff166001145b6105f75760405162461bcd60e51b815260206004820152602e60248201527f496e697469616c697a61626c653a20636f6e747261637420697320616c72656160448201526d191e481a5b9a5d1a585b1a5e995960921b6064820152608401610245565b6000805460ff19166001179055801561061a576000805461ff0019166101001790555b610622610876565b8015610668576000805461ff0019169055604051600181527f7f26b83ff96e1f2b6a682f133852f6798a09c465da95921460cefb38474024989060200160405180910390a15b50565b6106736107ca565b6001600160a01b0381166106d85760405162461bcd60e51b815260206004820152602660248201527f4f776e61626c653a206e6577206f776e657220697320746865207a65726f206160448201526564647265737360d01b6064820152608401610245565b61066881610824565b600080826001600160a01b03166395d89b416040518163ffffffff1660e01b8152600401600060405180830381865afa158015610722573d6000803e3d6000fd5b505050506040513d6000823e601f3d908101601f1916820160405261074a919081019061103e565b905061077281604051806040016040528060048152602001633b21272160e11b8152506108a5565b1561078757610780836108ff565b9392505050565b6107ac816040518060400160405280600381526020016256414960e81b8152506108a5565b156107c15750670de0b6b3a764000092915050565b61078083610c2d565b6033546001600160a01b031633146105585760405162461bcd60e51b815260206004820181905260248201527f4f776e61626c653a2063616c6c6572206973206e6f7420746865206f776e65726044820152606401610245565b603380546001600160a01b038381166001600160a01b0319831681179093556040519116919082907f8be0079c531659141344cd1fd0a4f28419497f9722a3daafe3b4186f6b6457e090600090a35050565b600054610100900460ff1661089d5760405162461bcd60e51b8152600401610245906110d2565b610558610d70565b6000816040516020016108b8919061111d565b60405160208183030381529060405280519060200120836040516020016108df919061111d565b604051602081830303815290604052805190602001201490505b92915050565b600060666000836001600160a01b0316636f307dc36040518163ffffffff1660e01b8152600401602060405180830381865afa158015610943573d6000803e3d6000fd5b505050506040513d601f19601f820116820180604052508101906109679190610fc2565b6001600160a01b03908116825260208201929092526040016000205416806109a15760405162461bcd60e51b815260040161024590610fdf565b6000836001600160a01b0316636f307dc36040518163ffffffff1660e01b8152600401602060405180830381865afa1580156109e1573d6000803e3d6000fd5b505050506040513d601f19601f82011682018060405250810190610a059190610fc2565b6001600160a01b03808216600090815260666020908152604080832060018101546002820154835163313ce56760e01b815293519798509196951694909392859263313ce56792600480830193928290030181865afa158015610a6c573d6000803e3d6000fd5b505050506040513d601f19601f82011682018060405250810190610a909190611139565b610a9e9060ff16601261115c565b9050600080846001600160a01b031663feaf968c6040518163ffffffff1660e01b815260040160a060405180830381865afa158015610ae1573d6000803e3d6000fd5b505050506040513d601f19601f82011682018060405250810190610b059190611192565b5093505092505060008213610b5c5760405162461bcd60e51b815260206004820181905260248201527f636861696e6c696e6b207072696365206d75737420626520706f7369746976656044820152606401610245565b804211610bab5760405162461bcd60e51b815260206004820152601c60248201527f757064617465644174206578636565647320626c6f636b2074696d65000000006044820152606401610245565b6000610bb7824261115c565b905084811115610c095760405162461bcd60e51b815260206004820152601760248201527f636861696e6c696e6b20707269636520657870697265640000000000000000006044820152606401610245565b610c1484600a6112c6565b610c1e90846112d2565b9b9a5050505050505050505050565b600080826001600160a01b0316636f307dc36040518163ffffffff1660e01b8152600401602060405180830381865afa158015610c6e573d6000803e3d6000fd5b505050506040513d601f19601f82011682018060405250810190610c929190610fc2565b6001600160a01b03811660009081526065602052604090205490915015610cd3576001600160a01b0381166000908152606560205260409020549150610cdf565b610cdc836108ff565b91505b6000816001600160a01b031663313ce5676040518163ffffffff1660e01b8152600401602060405180830381865afa158015610d1f573d6000803e3d6000fd5b505050506040513d601f19601f82011682018060405250810190610d439190611139565b610d519060ff16601261115c565b9050610d5e81600a6112c6565b610d6890846112d2565b949350505050565b600054610100900460ff16610d975760405162461bcd60e51b8152600401610245906110d2565b61055833610824565b634e487b7160e01b600052604160045260246000fd5b604051601f8201601f1916810167ffffffffffffffff81118282101715610ddf57610ddf610da0565b604052919050565b6001600160a01b038116811461066857600080fd5b600060608284031215610e0e57600080fd5b6040516060810181811067ffffffffffffffff82111715610e3157610e31610da0565b6040529050808235610e4281610de7565b81526020830135610e5281610de7565b6020820152604092830135920191909152919050565b60006020808385031215610e7b57600080fd5b823567ffffffffffffffff80821115610e9357600080fd5b818501915085601f830112610ea757600080fd5b813581811115610eb957610eb9610da0565b610ec7848260051b01610db6565b81815284810192506060918202840185019188831115610ee657600080fd5b938501935b82851015610f0c57610efd8986610dfc565b84529384019392850192610eeb565b50979650505050505050565b60008060408385031215610f2b57600080fd5b8235610f3681610de7565b946020939093013593505050565b600060208284031215610f5657600080fd5b813561078081610de7565b600060608284031215610f7357600080fd5b6107808383610dfc565b634e487b7160e01b600052603260045260246000fd5b634e487b7160e01b600052601160045260246000fd5b600060018201610fbb57610fbb610f93565b5060010190565b600060208284031215610fd457600080fd5b815161078081610de7565b60208082526015908201527463616e2774206265207a65726f206164647265737360581b604082015260600190565b60005b83811015611029578181015183820152602001611011565b83811115611038576000848401525b50505050565b60006020828403121561105057600080fd5b815167ffffffffffffffff8082111561106857600080fd5b818401915084601f83011261107c57600080fd5b81518181111561108e5761108e610da0565b6110a1601f8201601f1916602001610db6565b91508082528560208285010111156110b857600080fd5b6110c981602084016020860161100e565b50949350505050565b6020808252602b908201527f496e697469616c697a61626c653a20636f6e7472616374206973206e6f74206960408201526a6e697469616c697a696e6760a81b606082015260800190565b6000825161112f81846020870161100e565b9190910192915050565b60006020828403121561114b57600080fd5b815160ff8116811461078057600080fd5b60008282101561116e5761116e610f93565b500390565b805169ffffffffffffffffffff8116811461118d57600080fd5b919050565b600080600080600060a086880312156111aa57600080fd5b6111b386611173565b94506020860151935060408601519250606086015191506111d660808701611173565b90509295509295909350565b600181815b8085111561121d57816000190482111561120357611203610f93565b8085161561121057918102915b93841c93908002906111e7565b509250929050565b600082611234575060016108f9565b81611241575060006108f9565b816001811461125757600281146112615761127d565b60019150506108f9565b60ff84111561127257611272610f93565b50506001821b6108f9565b5060208310610133831016604e8410600b84101617156112a0575081810a6108f9565b6112aa83836111e2565b80600019048211156112be576112be610f93565b029392505050565b60006107808383611225565b60008160001904831182151516156112ec576112ec610f93565b50029056fea264697066735822122014ae62bfa376c95cd36dac8d0f6bf0b0416f995842662dade0694b085cdc067c64736f6c634300080d0033",
  "devdoc": {
    "kind": "dev",
    "methods": {
      "getUnderlyingPrice(address)": {
        "params": {
          "vToken": "vToken address"
        },
        "returns": {
          "_0": "price in USD, with 18 decimals"
        }
      },
      "owner()": {
        "details": "Returns the address of the current owner."
      },
      "renounceOwnership()": {
        "details": "Leaves the contract without owner. It will not be possible to call `onlyOwner` functions anymore. Can only be called by the current owner. NOTE: Renouncing ownership will leave the contract without an owner, thereby removing any functionality that is only available to the owner."
      },
      "setDirectPrice(address,uint256)": {
        "params": {
          "asset": "asset address",
          "price": "price in 18 decimals"
        }
      },
      "setTokenConfig((address,address,uint256))": {
        "params": {
          "tokenConfig": "token config struct"
        }
      },
      "setTokenConfigs((address,address,uint256)[])": {
        "params": {
          "tokenConfigs_": "config array"
        }
      },
      "setUnderlyingPrice(address,uint256)": {
        "params": {
          "underlyingPriceMantissa": "price in 18 decimals",
          "vToken": "vToken address"
        }
      },
      "transferOwnership(address)": {
        "details": "Transfers ownership of the contract to a new account (`newOwner`). Can only be called by the current owner."
      }
    },
    "version": 1
  },
  "userdoc": {
    "events": {
      "PricePosted(address,uint256,uint256,uint256)": {
        "notice": "emit when forced price is set"
      },
      "TokenConfigAdded(address,address,uint256)": {
        "notice": "emit when token config is added"
      }
    },
    "kind": "user",
    "methods": {
      "VAI_VALUE()": {
        "notice": "VAI token is considered $1 constantly in oracle for now"
      },
      "getUnderlyingPrice(address)": {
        "notice": "Get the Chainlink price of underlying asset of input vToken, revert when vToken is zero address"
      },
      "prices(address)": {
        "notice": "TODO: might be removed some day, it's for enabling us to force set the prices to certain values in some urgent conditions"
      },
      "setDirectPrice(address,uint256)": {
        "notice": "Set the forced prices of the input token"
      },
      "setTokenConfig((address,address,uint256))": {
        "notice": "Add single token config, vToken & feed cannot be zero address, and maxStalePeriod must be positive"
      },
      "setTokenConfigs((address,address,uint256)[])": {
        "notice": "Add multiple token configs at the same time"
      },
      "setUnderlyingPrice(address,uint256)": {
        "notice": "Set the forced prices of the underlying token of input vToken"
      },
      "tokenConfigs(address)": {
        "notice": "token config by assets"
      }
    },
    "version": 1
  },
  "storageLayout": {
    "storage": [
      {
        "astId": 138,
        "contract": "contracts/oracles/ChainlinkOracle.sol:ChainlinkOracle",
        "label": "_initialized",
        "offset": 0,
        "slot": "0",
        "type": "t_uint8"
      },
      {
        "astId": 141,
        "contract": "contracts/oracles/ChainlinkOracle.sol:ChainlinkOracle",
        "label": "_initializing",
        "offset": 1,
        "slot": "0",
        "type": "t_bool"
      },
      {
        "astId": 693,
        "contract": "contracts/oracles/ChainlinkOracle.sol:ChainlinkOracle",
        "label": "__gap",
        "offset": 0,
        "slot": "1",
        "type": "t_array(t_uint256)50_storage"
      },
      {
        "astId": 10,
        "contract": "contracts/oracles/ChainlinkOracle.sol:ChainlinkOracle",
        "label": "_owner",
        "offset": 0,
        "slot": "51",
        "type": "t_address"
      },
      {
        "astId": 130,
        "contract": "contracts/oracles/ChainlinkOracle.sol:ChainlinkOracle",
        "label": "__gap",
        "offset": 0,
        "slot": "52",
        "type": "t_array(t_uint256)49_storage"
      },
      {
        "astId": 5725,
        "contract": "contracts/oracles/ChainlinkOracle.sol:ChainlinkOracle",
        "label": "prices",
        "offset": 0,
        "slot": "101",
        "type": "t_mapping(t_address,t_uint256)"
      },
      {
        "astId": 5731,
        "contract": "contracts/oracles/ChainlinkOracle.sol:ChainlinkOracle",
        "label": "tokenConfigs",
        "offset": 0,
        "slot": "102",
        "type": "t_mapping(t_address,t_struct(TokenConfig)5712_storage)"
      }
    ],
    "types": {
      "t_address": {
        "encoding": "inplace",
        "label": "address",
        "numberOfBytes": "20"
      },
      "t_array(t_uint256)49_storage": {
        "base": "t_uint256",
        "encoding": "inplace",
        "label": "uint256[49]",
        "numberOfBytes": "1568"
      },
      "t_array(t_uint256)50_storage": {
        "base": "t_uint256",
        "encoding": "inplace",
        "label": "uint256[50]",
        "numberOfBytes": "1600"
      },
      "t_bool": {
        "encoding": "inplace",
        "label": "bool",
        "numberOfBytes": "1"
      },
      "t_mapping(t_address,t_struct(TokenConfig)5712_storage)": {
        "encoding": "mapping",
        "key": "t_address",
        "label": "mapping(address => struct TokenConfig)",
        "numberOfBytes": "32",
        "value": "t_struct(TokenConfig)5712_storage"
      },
      "t_mapping(t_address,t_uint256)": {
        "encoding": "mapping",
        "key": "t_address",
        "label": "mapping(address => uint256)",
        "numberOfBytes": "32",
        "value": "t_uint256"
      },
      "t_struct(TokenConfig)5712_storage": {
        "encoding": "inplace",
        "label": "struct TokenConfig",
        "members": [
          {
            "astId": 5705,
            "contract": "contracts/oracles/ChainlinkOracle.sol:ChainlinkOracle",
            "label": "asset",
            "offset": 0,
            "slot": "0",
            "type": "t_address"
          },
          {
            "astId": 5708,
            "contract": "contracts/oracles/ChainlinkOracle.sol:ChainlinkOracle",
            "label": "feed",
            "offset": 0,
            "slot": "1",
            "type": "t_address"
          },
          {
            "astId": 5711,
            "contract": "contracts/oracles/ChainlinkOracle.sol:ChainlinkOracle",
            "label": "maxStalePeriod",
            "offset": 0,
            "slot": "2",
            "type": "t_uint256"
          }
        ],
        "numberOfBytes": "96"
      },
      "t_uint256": {
        "encoding": "inplace",
        "label": "uint256",
        "numberOfBytes": "32"
      },
      "t_uint8": {
        "encoding": "inplace",
        "label": "uint8",
        "numberOfBytes": "1"
      }
    }
  }
}