{
  "address": "0x50bE3149e89B3D9dBE615ea01c608632D78DbfF3",
  "abi": [
    {
      "inputs": [
        {
          "internalType": "address",
          "name": "vBnbAddress",
          "type": "address"
        },
        {
          "internalType": "address",
          "name": "vaiAddress",
          "type": "address"
        }
      ],
      "stateMutability": "nonpayable",
      "type": "constructor"
    },
    {
      "inputs": [
        {
          "internalType": "address",
          "name": "sender",
          "type": "address"
        },
        {
          "internalType": "address",
          "name": "calledContract",
          "type": "address"
        },
        {
          "internalType": "string",
          "name": "methodSignature",
          "type": "string"
        }
      ],
      "name": "Unauthorized",
      "type": "error"
    },
    {
      "anonymous": false,
      "inputs": [
        {
          "indexed": false,
          "internalType": "uint8",
          "name": "version",
          "type": "uint8"
        }
      ],
      "name": "Initialized",
      "type": "event"
    },
    {
      "anonymous": false,
      "inputs": [
        {
          "indexed": false,
          "internalType": "address",
          "name": "oldAccessControlManager",
          "type": "address"
        },
        {
          "indexed": false,
          "internalType": "address",
          "name": "newAccessControlManager",
          "type": "address"
        }
      ],
      "name": "NewAccessControlManager",
      "type": "event"
    },
    {
      "anonymous": false,
      "inputs": [
        {
          "indexed": true,
          "internalType": "address",
          "name": "previousOwner",
          "type": "address"
        },
        {
          "indexed": true,
          "internalType": "address",
          "name": "newOwner",
          "type": "address"
        }
      ],
      "name": "OwnershipTransferStarted",
      "type": "event"
    },
    {
      "anonymous": false,
      "inputs": [
        {
          "indexed": true,
          "internalType": "address",
          "name": "previousOwner",
          "type": "address"
        },
        {
          "indexed": true,
          "internalType": "address",
          "name": "newOwner",
          "type": "address"
        }
      ],
      "name": "OwnershipTransferred",
      "type": "event"
    },
    {
      "anonymous": false,
      "inputs": [
        {
          "indexed": false,
          "internalType": "address",
          "name": "asset",
          "type": "address"
        },
        {
          "indexed": false,
          "internalType": "uint256",
          "name": "previousPriceMantissa",
          "type": "uint256"
        },
        {
          "indexed": false,
          "internalType": "uint256",
          "name": "requestedPriceMantissa",
          "type": "uint256"
        },
        {
          "indexed": false,
          "internalType": "uint256",
          "name": "newPriceMantissa",
          "type": "uint256"
        }
      ],
      "name": "PricePosted",
      "type": "event"
    },
    {
      "anonymous": false,
      "inputs": [
        {
          "indexed": false,
          "internalType": "address",
          "name": "asset",
          "type": "address"
        },
        {
          "indexed": false,
          "internalType": "address",
          "name": "feed",
          "type": "address"
        },
        {
          "indexed": false,
          "internalType": "uint256",
          "name": "maxStalePeriod",
          "type": "uint256"
        }
      ],
      "name": "TokenConfigAdded",
      "type": "event"
    },
    {
      "inputs": [],
      "name": "BNB_ADDR",
      "outputs": [
        {
          "internalType": "address",
          "name": "",
          "type": "address"
        }
      ],
      "stateMutability": "view",
      "type": "function"
    },
    {
      "inputs": [],
      "name": "acceptOwnership",
      "outputs": [],
      "stateMutability": "nonpayable",
      "type": "function"
    },
    {
      "inputs": [],
      "name": "accessControlManager",
      "outputs": [
        {
          "internalType": "contract IAccessControlManager",
          "name": "",
          "type": "address"
        }
      ],
      "stateMutability": "view",
      "type": "function"
    },
    {
      "inputs": [
        {
          "internalType": "address",
          "name": "vToken",
          "type": "address"
        }
      ],
      "name": "getUnderlyingPrice",
      "outputs": [
        {
          "internalType": "uint256",
          "name": "",
          "type": "uint256"
        }
      ],
      "stateMutability": "view",
      "type": "function"
    },
    {
      "inputs": [
        {
          "internalType": "address",
          "name": "accessControlManager_",
          "type": "address"
        }
      ],
      "name": "initialize",
      "outputs": [],
      "stateMutability": "nonpayable",
      "type": "function"
    },
    {
      "inputs": [],
      "name": "owner",
      "outputs": [
        {
          "internalType": "address",
          "name": "",
          "type": "address"
        }
      ],
      "stateMutability": "view",
      "type": "function"
    },
    {
      "inputs": [],
      "name": "pendingOwner",
      "outputs": [
        {
          "internalType": "address",
          "name": "",
          "type": "address"
        }
      ],
      "stateMutability": "view",
      "type": "function"
    },
    {
      "inputs": [
        {
          "internalType": "address",
          "name": "",
          "type": "address"
        }
      ],
      "name": "prices",
      "outputs": [
        {
          "internalType": "uint256",
          "name": "",
          "type": "uint256"
        }
      ],
      "stateMutability": "view",
      "type": "function"
    },
    {
      "inputs": [],
      "name": "renounceOwnership",
      "outputs": [],
      "stateMutability": "nonpayable",
      "type": "function"
    },
    {
      "inputs": [
        {
          "internalType": "address",
          "name": "accessControlManager_",
          "type": "address"
        }
      ],
      "name": "setAccessControlManager",
      "outputs": [],
      "stateMutability": "nonpayable",
      "type": "function"
    },
    {
      "inputs": [
        {
          "internalType": "address",
          "name": "asset",
          "type": "address"
        },
        {
          "internalType": "uint256",
          "name": "price",
          "type": "uint256"
        }
      ],
      "name": "setDirectPrice",
      "outputs": [],
      "stateMutability": "nonpayable",
      "type": "function"
    },
    {
      "inputs": [
        {
          "components": [
            {
              "internalType": "address",
              "name": "asset",
              "type": "address"
            },
            {
              "internalType": "address",
              "name": "feed",
              "type": "address"
            },
            {
              "internalType": "uint256",
              "name": "maxStalePeriod",
              "type": "uint256"
            }
          ],
          "internalType": "struct TokenConfig",
          "name": "tokenConfig",
          "type": "tuple"
        }
      ],
      "name": "setTokenConfig",
      "outputs": [],
      "stateMutability": "nonpayable",
      "type": "function"
    },
    {
      "inputs": [
        {
          "components": [
            {
              "internalType": "address",
              "name": "asset",
              "type": "address"
            },
            {
              "internalType": "address",
              "name": "feed",
              "type": "address"
            },
            {
              "internalType": "uint256",
              "name": "maxStalePeriod",
              "type": "uint256"
            }
          ],
          "internalType": "struct TokenConfig[]",
          "name": "tokenConfigs_",
          "type": "tuple[]"
        }
      ],
      "name": "setTokenConfigs",
      "outputs": [],
      "stateMutability": "nonpayable",
      "type": "function"
    },
    {
      "inputs": [
        {
          "internalType": "contract VBep20Interface",
          "name": "vToken",
          "type": "address"
        },
        {
          "internalType": "uint256",
          "name": "underlyingPriceMantissa",
          "type": "uint256"
        }
      ],
      "name": "setUnderlyingPrice",
      "outputs": [],
      "stateMutability": "nonpayable",
      "type": "function"
    },
    {
      "inputs": [
        {
          "internalType": "address",
          "name": "",
          "type": "address"
        }
      ],
      "name": "tokenConfigs",
      "outputs": [
        {
          "internalType": "address",
          "name": "asset",
          "type": "address"
        },
        {
          "internalType": "address",
          "name": "feed",
          "type": "address"
        },
        {
          "internalType": "uint256",
          "name": "maxStalePeriod",
          "type": "uint256"
        }
      ],
      "stateMutability": "view",
      "type": "function"
    },
    {
      "inputs": [
        {
          "internalType": "address",
          "name": "newOwner",
          "type": "address"
        }
      ],
      "name": "transferOwnership",
      "outputs": [],
      "stateMutability": "nonpayable",
      "type": "function"
    },
    {
      "inputs": [],
      "name": "vBnb",
      "outputs": [
        {
          "internalType": "address",
          "name": "",
          "type": "address"
        }
      ],
      "stateMutability": "view",
      "type": "function"
    },
    {
      "inputs": [],
      "name": "vai",
      "outputs": [
        {
          "internalType": "address",
          "name": "",
          "type": "address"
        }
      ],
      "stateMutability": "view",
      "type": "function"
    }
  ],
  "transactionHash": "0x8197f3d4753ac82d17b8f5ceab8254912be3b22b3b08d1247fa0619dcae9423f",
  "args": [
    "0x2E7222e51c0f6e98610A1543Aa3836E092CDe62c",
    "0x05889b75Ae9Aa53AaE49562432201a0c93BaCA0b"
  ],
  "numDeployments": 1,
  "solcInputHash": "30f2cb3e89e183b8669f05bddf9426d9",
  "bytecode": "0x60c06040523480156200001157600080fd5b506040516200188b3803806200188b8339810160408190526200003491620001ed565b816001600160a01b038116620000915760405162461bcd60e51b815260206004820152601560248201527f63616e2774206265207a65726f2061646472657373000000000000000000000060448201526064015b60405180910390fd5b816001600160a01b038116620000ea5760405162461bcd60e51b815260206004820152601560248201527f63616e2774206265207a65726f20616464726573730000000000000000000000604482015260640162000088565b6001600160a01b03808516608052831660a0526200010762000111565b5050505062000225565b600054610100900460ff16156200017b5760405162461bcd60e51b815260206004820152602760248201527f496e697469616c697a61626c653a20636f6e747261637420697320696e697469604482015266616c697a696e6760c81b606482015260840162000088565b60005460ff9081161015620001ce576000805460ff191660ff9081179091556040519081527f7f26b83ff96e1f2b6a682f133852f6798a09c465da95921460cefb38474024989060200160405180910390a15b565b80516001600160a01b0381168114620001e857600080fd5b919050565b600080604083850312156200020157600080fd5b6200020c83620001d0565b91506200021c60208401620001d0565b90509250929050565b60805160a051611624620002676000396000818161027401528181610c680152610ca201526000818161021b015281816105070152610c1001526116246000f3fe608060405234801561001057600080fd5b50600436106101165760003560e01c806379ba5097116100a2578063c4d66de811610071578063c4d66de814610296578063cfed246b146102a9578063e30c3978146102d7578063f2fde38b146102e8578063fc57d4df146102fb57600080fd5b806379ba5097146102455780638da5cb5b1461024d578063b4a0bdf31461025e578063b62e4c921461026f57600080fd5b80631b69dc5f116100e95780631b69dc5f14610169578063392787d2146101d05780633e83b6b8146101e35780635ba3792d14610216578063715018a61461023d57600080fd5b80630431710e1461011b57806309a8acb0146101305780630e32cb8614610143578063127ffda014610156575b600080fd5b61012e61012936600461118e565b61030e565b005b61012e61013e36600461123e565b6103da565b61012e61015136600461126a565b6104a7565b61012e61016436600461123e565b6104bb565b6101a561017736600461126a565b60ca602052600090815260409020805460018201546002909201546001600160a01b03918216929091169083565b604080516001600160a01b039485168152939092166020840152908201526060015b60405180910390f35b61012e6101de36600461128e565b61063c565b6101fe73bbbbbbbbbbbbbbbbbbbbbbbbbbbbbbbbbbbbbbbb81565b6040516001600160a01b0390911681526020016101c7565b6101fe7f000000000000000000000000000000000000000000000000000000000000000081565b61012e6107b2565b61012e6107c6565b6033546001600160a01b03166101fe565b6097546001600160a01b03166101fe565b6101fe7f000000000000000000000000000000000000000000000000000000000000000081565b61012e6102a436600461126a565b61083d565b6102c96102b736600461126a565b60c96020526000908152604090205481565b6040519081526020016101c7565b6065546001600160a01b03166101fe565b61012e6102f636600461126a565b610951565b6102c961030936600461126a565b6109c2565b61034c6040518060400160405280601e81526020017f736574546f6b656e436f6e6669677328546f6b656e436f6e6669675b5d2900008152506109d3565b60008151116103965760405162461bcd60e51b815260206004820152601160248201527006c656e6774682063616e2774206265203607c1b60448201526064015b60405180910390fd5b805160005b818110156103d5576103c58382815181106103b8576103b86112aa565b602002602001015161063c565b6103ce816112d6565b905061039b565b505050565b816001600160a01b0381166104015760405162461bcd60e51b815260040161038d906112ef565b61043f6040518060400160405280601b81526020017f73657444697265637450726963652861737365742c70726963652900000000008152506109d3565b6001600160a01b038316600081815260c96020908152604091829020859055815192835282018490528101839052606081018390527fdd71a1d19fcba687442a1d5c58578f1e409af71a79d10fd95a4d66efd8fa9ae7906080015b60405180910390a1505050565b6104af610a6d565b6104b881610ac7565b50565b816001600160a01b0381166104e25760405162461bcd60e51b815260040161038d906112ef565b6105036040518060600160405280602b81526020016115c4602b91396109d3565b60007f00000000000000000000000000000000000000000000000000000000000000006001600160a01b0316846001600160a01b0316146105a557836001600160a01b0316636f307dc36040518163ffffffff1660e01b8152600401602060405180830381865afa15801561057c573d6000803e3d6000fd5b505050506040513d601f19601f820116820180604052508101906105a0919061131e565b6105bb565b73bbbbbbbbbbbbbbbbbbbbbbbbbbbbbbbbbbbbbbbb5b6001600160a01b038116600081815260c96020908152604091829020548251938452908301528101859052606081018590529091507fdd71a1d19fcba687442a1d5c58578f1e409af71a79d10fd95a4d66efd8fa9ae79060800160405180910390a16001600160a01b0316600090815260c960205260409020919091555050565b80516001600160a01b0381166106645760405162461bcd60e51b815260040161038d906112ef565b60208201516001600160a01b03811661068f5760405162461bcd60e51b815260040161038d906112ef565b6106cd6040518060400160405280601b81526020017f736574546f6b656e436f6e66696728546f6b656e436f6e6669672900000000008152506109d3565b60008360400151116107215760405162461bcd60e51b815260206004820152601a60248201527f7374616c6520706572696f642063616e2774206265207a65726f000000000000604482015260640161038d565b82516001600160a01b03908116600090815260ca6020908152604091829020865181549085166001600160a01b031991821681178355838901516001840180549190971692168217909555838801516002909201829055835194855291840191909152908201527f3cc8d9cb9370a23a8b9ffa75efa24cecb65c4693980e58260841adc474983c5f9060600161049a565b6107ba610a6d565b6107c46000610b85565b565b60655433906001600160a01b031681146108345760405162461bcd60e51b815260206004820152602960248201527f4f776e61626c6532537465703a2063616c6c6572206973206e6f7420746865206044820152683732bb9037bbb732b960b91b606482015260840161038d565b6104b881610b85565b600054610100900460ff161580801561085d5750600054600160ff909116105b806108775750303b158015610877575060005460ff166001145b6108da5760405162461bcd60e51b815260206004820152602e60248201527f496e697469616c697a61626c653a20636f6e747261637420697320616c72656160448201526d191e481a5b9a5d1a585b1a5e995960921b606482015260840161038d565b6000805460ff1916600117905580156108fd576000805461ff0019166101001790555b61090682610b9e565b801561094d576000805461ff0019169055604051600181527f7f26b83ff96e1f2b6a682f133852f6798a09c465da95921460cefb3847402498906020015b60405180910390a15b5050565b610959610a6d565b606580546001600160a01b0383166001600160a01b0319909116811790915561098a6033546001600160a01b031690565b6001600160a01b03167f38d16b8cac22d99fc7c124b9cd0de2d3fa1faef420bfe791d8c362d765e2270060405160405180910390a350565b60006109cd82610c09565b92915050565b6097546040516318c5e8ab60e01b81526000916001600160a01b0316906318c5e8ab90610a069033908690600401611388565b602060405180830381865afa158015610a23573d6000803e3d6000fd5b505050506040513d601f19601f82011682018060405250810190610a4791906113b4565b90508061094d57333083604051634a3fa29360e01b815260040161038d939291906113d6565b6033546001600160a01b031633146107c45760405162461bcd60e51b815260206004820181905260248201527f4f776e61626c653a2063616c6c6572206973206e6f7420746865206f776e6572604482015260640161038d565b6001600160a01b038116610b2b5760405162461bcd60e51b815260206004820152602560248201527f696e76616c696420616365737320636f6e74726f6c206d616e61676572206164604482015264647265737360d81b606482015260840161038d565b609780546001600160a01b038381166001600160a01b031983168117909355604080519190921680825260208201939093527f66fd58e82f7b31a2a5c30e0888f3093efe4e111b00cd2b0c31fe014601293aa09101610944565b606580546001600160a01b03191690556104b881610df7565b600054610100900460ff166104af5760405162461bcd60e51b815260206004820152602b60248201527f496e697469616c697a61626c653a20636f6e7472616374206973206e6f74206960448201526a6e697469616c697a696e6760a81b606482015260840161038d565b60008060007f00000000000000000000000000000000000000000000000000000000000000006001600160a01b0316846001600160a01b031603610c66575073bbbbbbbbbbbbbbbbbbbbbbbbbbbbbbbbbbbbbbbb90506012610d96565b7f00000000000000000000000000000000000000000000000000000000000000006001600160a01b0316846001600160a01b031603610cca57507f000000000000000000000000000000000000000000000000000000000000000090506012610d96565b836001600160a01b0316636f307dc36040518163ffffffff1660e01b8152600401602060405180830381865afa158015610d08573d6000803e3d6000fd5b505050506040513d601f19601f82011682018060405250810190610d2c919061131e565b9150816001600160a01b031663313ce5676040518163ffffffff1660e01b8152600401602060405180830381865afa158015610d6c573d6000803e3d6000fd5b505050506040513d601f19601f82011682018060405250810190610d90919061140b565b60ff1690505b6001600160a01b038216600090815260c960205260409020548015610dbd57809350610dc9565b610dc683610e49565b93505b6000610dd683601261142e565b9050610de381600a611529565b610ded9086611535565b9695505050505050565b603380546001600160a01b038381166001600160a01b0319831681179093556040519116919082907f8be0079c531659141344cd1fd0a4f28419497f9722a3daafe3b4186f6b6457e090600090a35050565b6001600160a01b03808216600090815260ca602052604081205490911680610e835760405162461bcd60e51b815260040161038d906112ef565b6001600160a01b03808416600090815260ca6020908152604080832081516060810183528154861681526001820154909516858401819052600290910154858301819052825163313ce56760e01b81529251919490939092859263313ce567926004808401939192918290030181865afa158015610f05573d6000803e3d6000fd5b505050506040513d601f19601f82011682018060405250810190610f29919061140b565b610f379060ff16601261142e565b9050600080846001600160a01b031663feaf968c6040518163ffffffff1660e01b815260040160a060405180830381865afa158015610f7a573d6000803e3d6000fd5b505050506040513d601f19601f82011682018060405250810190610f9e9190611573565b5093505092505060008213610ff55760405162461bcd60e51b815260206004820181905260248201527f636861696e6c696e6b207072696365206d75737420626520706f736974697665604482015260640161038d565b804210156110455760405162461bcd60e51b815260206004820152601c60248201527f757064617465644174206578636565647320626c6f636b2074696d6500000000604482015260640161038d565b6000611051824261142e565b9050848111156110a35760405162461bcd60e51b815260206004820152601760248201527f636861696e6c696e6b2070726963652065787069726564000000000000000000604482015260640161038d565b6110ae84600a611529565b6110b89084611535565b9a9950505050505050505050565b634e487b7160e01b600052604160045260246000fd5b604051601f8201601f1916810167ffffffffffffffff81118282101715611105576111056110c6565b604052919050565b6001600160a01b03811681146104b857600080fd5b60006060828403121561113457600080fd5b6040516060810181811067ffffffffffffffff82111715611157576111576110c6565b60405290508082356111688161110d565b815260208301356111788161110d565b6020820152604092830135920191909152919050565b600060208083850312156111a157600080fd5b823567ffffffffffffffff808211156111b957600080fd5b818501915085601f8301126111cd57600080fd5b8135818111156111df576111df6110c6565b6111ed848260051b016110dc565b8181528481019250606091820284018501918883111561120c57600080fd5b938501935b82851015611232576112238986611122565b84529384019392850192611211565b50979650505050505050565b6000806040838503121561125157600080fd5b823561125c8161110d565b946020939093013593505050565b60006020828403121561127c57600080fd5b81356112878161110d565b9392505050565b6000606082840312156112a057600080fd5b6112878383611122565b634e487b7160e01b600052603260045260246000fd5b634e487b7160e01b600052601160045260246000fd5b6000600182016112e8576112e86112c0565b5060010190565b60208082526015908201527463616e2774206265207a65726f206164647265737360581b604082015260600190565b60006020828403121561133057600080fd5b81516112878161110d565b6000815180845260005b8181101561136157602081850181015186830182015201611345565b81811115611373576000602083870101525b50601f01601f19169290920160200192915050565b6001600160a01b03831681526040602082018190526000906113ac9083018461133b565b949350505050565b6000602082840312156113c657600080fd5b8151801515811461128757600080fd5b6001600160a01b038481168252831660208201526060604082018190526000906114029083018461133b565b95945050505050565b60006020828403121561141d57600080fd5b815160ff8116811461128757600080fd5b600082821015611440576114406112c0565b500390565b600181815b80851115611480578160001904821115611466576114666112c0565b8085161561147357918102915b93841c939080029061144a565b509250929050565b600082611497575060016109cd565b816114a4575060006109cd565b81600181146114ba57600281146114c4576114e0565b60019150506109cd565b60ff8411156114d5576114d56112c0565b50506001821b6109cd565b5060208310610133831016604e8410600b8410161715611503575081810a6109cd565b61150d8383611445565b8060001904821115611521576115216112c0565b029392505050565b60006112878383611488565b600081600019048311821515161561154f5761154f6112c0565b500290565b805169ffffffffffffffffffff8116811461156e57600080fd5b919050565b600080600080600060a0868803121561158b57600080fd5b61159486611554565b94506020860151935060408601519250606086015191506115b760808701611554565b9050929550929590935056fe736574556e6465726c79696e67507269636528564265703230496e746572666163652c75696e7432353629a2646970667358221220f929de7b448cafd7786ca71175d6da8c924b7cf6c30717bee9b71bf63aeb964764736f6c634300080d0033",
  "devdoc": {
    "kind": "dev",
    "methods": {
      "acceptOwnership()": {
        "details": "The new owner accepts the ownership transfer."
      },
      "constructor": {
        "custom:oz-upgrades-unsafe-allow": "constructor",
        "params": {
          "vBnbAddress": "The address of the vBNB",
          "vaiAddress": "The address of the VAI"
        }
      },
      "getUnderlyingPrice(address)": {
        "params": {
          "vToken": "vToken address"
        },
        "returns": {
          "_0": "price Underlying price in USD"
        }
      },
      "initialize(address)": {
        "params": {
          "accessControlManager_": "Address of the access control manager contract"
        }
      },
      "owner()": {
        "details": "Returns the address of the current owner."
      },
      "pendingOwner()": {
        "details": "Returns the address of the pending owner."
      },
      "renounceOwnership()": {
        "details": "Leaves the contract without owner. It will not be possible to call `onlyOwner` functions anymore. Can only be called by the current owner. NOTE: Renouncing ownership will leave the contract without an owner, thereby removing any functionality that is only available to the owner."
      },
      "setAccessControlManager(address)": {
        "custom:access": "Only Governance",
        "custom:event": "Emits NewAccessControlManager event",
        "details": "Admin function to set address of AccessControlManager",
        "params": {
          "accessControlManager_": "The new address of the AccessControlManager"
        }
      },
      "setDirectPrice(address,uint256)": {
        "custom:access": "Only Governance",
        "custom:event": "Emits PricePosted event on succesfully setup of underlying price",
        "params": {
          "asset": "Asset address",
          "price": "Underlying price in 18 decimals"
        }
      },
      "setTokenConfig((address,address,uint256))": {
        "custom:access": "Only Governance",
        "custom:error": "NotNullAddress error is thrown if asset address is nullNotNullAddress error is thrown if token feed address is nullRange error is thrown if maxStale period of token is not greater than zero",
        "custom:event": "Emits TokenConfigAdded event on succesfully setting of the token config",
        "params": {
          "tokenConfig": "Token config struct"
        }
      },
      "setTokenConfigs((address,address,uint256)[])": {
        "custom:access": "Only Governance",
        "custom:error": "Zero length error thrown, if length of the array in parameter is 0",
        "params": {
          "tokenConfigs_": "config array"
        }
      },
      "setUnderlyingPrice(address,uint256)": {
        "custom:access": "Only Governance",
        "custom:error": "NotNullAddress thrown if address of vToken is null",
        "custom:event": "Emits PricePosted event on succesfully setup of underlying price",
        "params": {
          "underlyingPriceMantissa": "price in 18 decimals",
          "vToken": "vToken address"
        }
      },
      "transferOwnership(address)": {
        "details": "Starts the ownership transfer of the contract to a new account. Replaces the pending transfer if there is one. Can only be called by the current owner."
      }
    },
    "stateVariables": {
      "vBnb": {
        "custom:oz-upgrades-unsafe-allow": "state-variable-immutable"
      },
      "vai": {
        "custom:oz-upgrades-unsafe-allow": "state-variable-immutable"
      }
    },
    "version": 1
  },
  "userdoc": {
    "errors": {
      "Unauthorized(address,address,string)": [
        {
          "notice": "Thrown when the action is prohibited by AccessControlManager"
        }
      ]
    },
    "events": {
      "NewAccessControlManager(address,address)": {
        "notice": "Emitted when access control manager contract address is changed"
      },
      "PricePosted(address,uint256,uint256,uint256)": {
        "notice": "Emit when a price is manually set"
      },
      "TokenConfigAdded(address,address,uint256)": {
        "notice": "Emit when a token config is added"
      }
    },
    "kind": "user",
    "methods": {
      "BNB_ADDR()": {
        "notice": "Set this as asset address for BNB. This is the underlying address for vBNB"
      },
      "accessControlManager()": {
        "notice": "Returns the address of the access control manager contract"
      },
      "constructor": {
        "notice": "Constructor for the implementation contract. Sets immutable variables."
      },
      "getUnderlyingPrice(address)": {
        "notice": "Gets the Chainlink price for the underlying asset of a given vToken, revert when vToken is a null address"
      },
      "initialize(address)": {
        "notice": "Initializes the owner of the contract"
      },
      "prices(address)": {
        "notice": "Manually set an override price, useful under extenuating conditions such as price feed failure"
      },
      "setAccessControlManager(address)": {
        "notice": "Sets the address of AccessControlManager"
      },
      "setDirectPrice(address,uint256)": {
        "notice": "Manually set the price of a given asset"
      },
      "setTokenConfig((address,address,uint256))": {
        "notice": "Add single token config. vToken & feed cannot be null addresses and maxStalePeriod must be positive"
      },
      "setTokenConfigs((address,address,uint256)[])": {
        "notice": "Add multiple token configs at the same time"
      },
      "setUnderlyingPrice(address,uint256)": {
        "notice": "Set the forced prices of the underlying token of input vToken"
      },
      "tokenConfigs(address)": {
        "notice": "Token config by assets"
      },
      "vBnb()": {
        "notice": "vBNB address"
      },
      "vai()": {
        "notice": "VAI address"
      }
    },
    "version": 1
  },
  "storageLayout": {
    "storage": [
      {
        "astId": 347,
        "contract": "contracts/oracles/ChainlinkOracle.sol:ChainlinkOracle",
        "label": "_initialized",
        "offset": 0,
        "slot": "0",
        "type": "t_uint8"
      },
      {
        "astId": 350,
        "contract": "contracts/oracles/ChainlinkOracle.sol:ChainlinkOracle",
        "label": "_initializing",
        "offset": 1,
        "slot": "0",
        "type": "t_bool"
      },
      {
        "astId": 961,
        "contract": "contracts/oracles/ChainlinkOracle.sol:ChainlinkOracle",
        "label": "__gap",
        "offset": 0,
        "slot": "1",
        "type": "t_array(t_uint256)50_storage"
      },
      {
        "astId": 219,
        "contract": "contracts/oracles/ChainlinkOracle.sol:ChainlinkOracle",
        "label": "_owner",
        "offset": 0,
        "slot": "51",
        "type": "t_address"
      },
      {
        "astId": 339,
        "contract": "contracts/oracles/ChainlinkOracle.sol:ChainlinkOracle",
        "label": "__gap",
        "offset": 0,
        "slot": "52",
        "type": "t_array(t_uint256)49_storage"
      },
      {
        "astId": 128,
        "contract": "contracts/oracles/ChainlinkOracle.sol:ChainlinkOracle",
        "label": "_pendingOwner",
        "offset": 0,
        "slot": "101",
        "type": "t_address"
      },
      {
        "astId": 207,
        "contract": "contracts/oracles/ChainlinkOracle.sol:ChainlinkOracle",
        "label": "__gap",
        "offset": 0,
        "slot": "102",
        "type": "t_array(t_uint256)49_storage"
      },
      {
        "astId": 5289,
        "contract": "contracts/oracles/ChainlinkOracle.sol:ChainlinkOracle",
        "label": "_accessControlManager",
        "offset": 0,
        "slot": "151",
        "type": "t_contract(IAccessControlManager)5473"
      },
      {
        "astId": 5294,
        "contract": "contracts/oracles/ChainlinkOracle.sol:ChainlinkOracle",
        "label": "__gap",
        "offset": 0,
        "slot": "152",
        "type": "t_array(t_uint256)49_storage"
      },
      {
        "astId": 7642,
        "contract": "contracts/oracles/ChainlinkOracle.sol:ChainlinkOracle",
        "label": "prices",
        "offset": 0,
        "slot": "201",
        "type": "t_mapping(t_address,t_uint256)"
      },
      {
        "astId": 7648,
        "contract": "contracts/oracles/ChainlinkOracle.sol:ChainlinkOracle",
        "label": "tokenConfigs",
        "offset": 0,
        "slot": "202",
        "type": "t_mapping(t_address,t_struct(TokenConfig)7623_storage)"
      }
    ],
    "types": {
      "t_address": {
        "encoding": "inplace",
        "label": "address",
        "numberOfBytes": "20"
      },
      "t_array(t_uint256)49_storage": {
        "base": "t_uint256",
        "encoding": "inplace",
        "label": "uint256[49]",
        "numberOfBytes": "1568"
      },
      "t_array(t_uint256)50_storage": {
        "base": "t_uint256",
        "encoding": "inplace",
        "label": "uint256[50]",
        "numberOfBytes": "1600"
      },
      "t_bool": {
        "encoding": "inplace",
        "label": "bool",
        "numberOfBytes": "1"
      },
      "t_contract(IAccessControlManager)5473": {
        "encoding": "inplace",
        "label": "contract IAccessControlManager",
        "numberOfBytes": "20"
      },
      "t_mapping(t_address,t_struct(TokenConfig)7623_storage)": {
        "encoding": "mapping",
        "key": "t_address",
        "label": "mapping(address => struct TokenConfig)",
        "numberOfBytes": "32",
        "value": "t_struct(TokenConfig)7623_storage"
      },
      "t_mapping(t_address,t_uint256)": {
        "encoding": "mapping",
        "key": "t_address",
        "label": "mapping(address => uint256)",
        "numberOfBytes": "32",
        "value": "t_uint256"
      },
      "t_struct(TokenConfig)7623_storage": {
        "encoding": "inplace",
        "label": "struct TokenConfig",
        "members": [
          {
            "astId": 7616,
            "contract": "contracts/oracles/ChainlinkOracle.sol:ChainlinkOracle",
            "label": "asset",
            "offset": 0,
            "slot": "0",
            "type": "t_address"
          },
          {
            "astId": 7619,
            "contract": "contracts/oracles/ChainlinkOracle.sol:ChainlinkOracle",
            "label": "feed",
            "offset": 0,
            "slot": "1",
            "type": "t_address"
          },
          {
            "astId": 7622,
            "contract": "contracts/oracles/ChainlinkOracle.sol:ChainlinkOracle",
            "label": "maxStalePeriod",
            "offset": 0,
            "slot": "2",
            "type": "t_uint256"
          }
        ],
        "numberOfBytes": "96"
      },
      "t_uint256": {
        "encoding": "inplace",
        "label": "uint256",
        "numberOfBytes": "32"
      },
      "t_uint8": {
        "encoding": "inplace",
        "label": "uint8",
        "numberOfBytes": "1"
      }
    }
  }
}