{
  "address": "0x0E35fe8594551Eba23f7BC191De20612a0f152F4",
  "abi": [
    {
      "inputs": [
        {
          "internalType": "uint256",
          "name": "_amount",
          "type": "uint256"
        }
      ],
      "name": "convertToTokens",
      "outputs": [
        {
          "internalType": "uint256",
          "name": "",
          "type": "uint256"
        }
      ],
      "stateMutability": "pure",
      "type": "function"
    }
  ],
  "transactionHash": "0x77cf84b858230ded68ddb27ffd7ad24fb304e99626eb94c9fe1c5b372b71e257",
  "args": [],
  "numDeployments": 1,
  "solcInputHash": "53b07f2899bbd8256f79840e3cbeb06b",
  "bytecode": "0x6080604052348015600e575f80fd5b50609680601a5f395ff3fe6080604052348015600e575f80fd5b50600436106026575f3560e01c80638590625614602a575b5f80fd5b60386035366004604a565b90565b60405190815260200160405180910390f35b5f602082840312156059575f80fd5b503591905056fea26469706673582212208a7635dd8cd95c67e26744960b212fcebcfafe7029de9d22535d0c4d62cc11e564736f6c63430008190033",
  "devdoc": {
    "kind": "dev",
    "methods": {},
    "version": 1
  },
  "userdoc": {
    "kind": "user",
    "methods": {},
    "version": 1
  },
  "storageLayout": {
    "storage": [],
    "types": null
  }
}