{
  "address": "0xa37A9127C302fEc17d456a6E1a5643a18a1779aD",
  "abi": [
    {
      "inputs": [],
      "stateMutability": "nonpayable",
      "type": "constructor"
    },
    {
      "anonymous": false,
      "inputs": [
        {
          "indexed": true,
          "internalType": "address",
          "name": "previousOwner",
          "type": "address"
        },
        {
          "indexed": true,
          "internalType": "address",
          "name": "newOwner",
          "type": "address"
        }
      ],
      "name": "OwnershipTransferred",
      "type": "event"
    },
    {
      "inputs": [
        {
          "internalType": "address",
          "name": "",
          "type": "address"
        },
        {
          "internalType": "uint32",
          "name": "",
          "type": "uint32"
        }
      ],
      "name": "getOracleState",
      "outputs": [
        {
          "internalType": "bool",
          "name": "increaseCardinalityRequired",
          "type": "bool"
        },
        {
          "internalType": "uint16",
          "name": "cardinalityRequired",
          "type": "uint16"
        },
        {
          "internalType": "bool",
          "name": "oldestObservationSatisfied",
          "type": "bool"
        }
      ],
      "stateMutability": "pure",
      "type": "function"
    },
    {
      "inputs": [
        {
          "internalType": "address",
          "name": "market",
          "type": "address"
        },
        {
          "internalType": "uint32",
          "name": "duration",
          "type": "uint32"
        }
      ],
      "name": "getPtToAssetRate",
      "outputs": [
        {
          "internalType": "uint256",
          "name": "",
          "type": "uint256"
        }
      ],
      "stateMutability": "view",
      "type": "function"
    },
    {
      "inputs": [
        {
          "internalType": "address",
          "name": "market",
          "type": "address"
        },
        {
          "internalType": "uint32",
          "name": "duration",
          "type": "uint32"
        }
      ],
      "name": "getPtToSyRate",
      "outputs": [
        {
          "internalType": "uint256",
          "name": "",
          "type": "uint256"
        }
      ],
      "stateMutability": "view",
      "type": "function"
    },
    {
      "inputs": [],
      "name": "owner",
      "outputs": [
        {
          "internalType": "address",
          "name": "",
          "type": "address"
        }
      ],
      "stateMutability": "view",
      "type": "function"
    },
    {
      "inputs": [
        {
          "internalType": "address",
          "name": "",
          "type": "address"
        },
        {
          "internalType": "uint32",
          "name": "",
          "type": "uint32"
        }
      ],
      "name": "ptToAssetRate",
      "outputs": [
        {
          "internalType": "uint256",
          "name": "",
          "type": "uint256"
        }
      ],
      "stateMutability": "view",
      "type": "function"
    },
    {
      "inputs": [
        {
          "internalType": "address",
          "name": "",
          "type": "address"
        },
        {
          "internalType": "uint32",
          "name": "",
          "type": "uint32"
        }
      ],
      "name": "ptToSyRate",
      "outputs": [
        {
          "internalType": "uint256",
          "name": "",
          "type": "uint256"
        }
      ],
      "stateMutability": "view",
      "type": "function"
    },
    {
      "inputs": [],
      "name": "renounceOwnership",
      "outputs": [],
      "stateMutability": "nonpayable",
      "type": "function"
    },
    {
      "inputs": [
        {
          "internalType": "address",
          "name": "market",
          "type": "address"
        },
        {
          "internalType": "uint32",
          "name": "duration",
          "type": "uint32"
        },
        {
          "internalType": "uint256",
          "name": "rate",
          "type": "uint256"
        }
      ],
      "name": "setPtToAssetRate",
      "outputs": [],
      "stateMutability": "nonpayable",
      "type": "function"
    },
    {
      "inputs": [
        {
          "internalType": "address",
          "name": "market",
          "type": "address"
        },
        {
          "internalType": "uint32",
          "name": "duration",
          "type": "uint32"
        },
        {
          "internalType": "uint256",
          "name": "rate",
          "type": "uint256"
        }
      ],
      "name": "setPtToSyRate",
      "outputs": [],
      "stateMutability": "nonpayable",
      "type": "function"
    },
    {
      "inputs": [
        {
          "internalType": "address",
          "name": "newOwner",
          "type": "address"
        }
      ],
      "name": "transferOwnership",
      "outputs": [],
      "stateMutability": "nonpayable",
      "type": "function"
    }
  ],
  "transactionHash": "0xf48709be639b949d748afb65820a4e33608971743a810dd91bcf10d36ac11209",
  "args": [],
  "numDeployments": 1,
  "solcInputHash": "0bebc4f35e59fb8446bd3ebaaccae910",
  "bytecode": "0x6080604052348015600f57600080fd5b50601733601b565b606b565b600080546001600160a01b038381166001600160a01b0319831681178455604051919092169283917f8be0079c531659141344cd1fd0a4f28419497f9722a3daafe3b4186f6b6457e09190a35050565b6104bf8061007a6000396000f3fe608060405234801561001057600080fd5b506004361061009e5760003560e01c8063a31426d111610066578063a31426d114610155578063abca0eab14610193578063b151c07f146101d1578063b861c67c146101fc578063f2fde38b1461020f57600080fd5b806367848275146100a3578063715018a6146100e1578063873e9600146100eb5780638da5cb5b14610127578063a109e12a14610142575b600080fd5b6100ce6100b13660046103f8565b600160209081526000928352604080842090915290825290205481565b6040519081526020015b60405180910390f35b6100e9610222565b005b6101056100f93660046103f8565b60008060019250925092565b60408051931515845261ffff90921660208401521515908201526060016100d8565b6000546040516001600160a01b0390911681526020016100d8565b6100e961015036600461042b565b610236565b6100ce6101633660046103f8565b6001600160a01b038216600090815260026020908152604080832063ffffffff8516845290915290205492915050565b6100ce6101a13660046103f8565b6001600160a01b038216600090815260016020908152604080832063ffffffff8516845290915290205492915050565b6100ce6101df3660046103f8565b600260209081526000928352604080842090915290825290205481565b6100e961020a36600461042b565b61026b565b6100e961021d366004610467565b6102a0565b61022a61031e565b6102346000610378565b565b61023e61031e565b6001600160a01b03909216600090815260026020908152604080832063ffffffff90941683529290522055565b61027361031e565b6001600160a01b03909216600090815260016020908152604080832063ffffffff90941683529290522055565b6102a861031e565b6001600160a01b0381166103125760405162461bcd60e51b815260206004820152602660248201527f4f776e61626c653a206e6577206f776e657220697320746865207a65726f206160448201526564647265737360d01b60648201526084015b60405180910390fd5b61031b81610378565b50565b6000546001600160a01b031633146102345760405162461bcd60e51b815260206004820181905260248201527f4f776e61626c653a2063616c6c6572206973206e6f7420746865206f776e65726044820152606401610309565b600080546001600160a01b038381166001600160a01b0319831681178455604051919092169283917f8be0079c531659141344cd1fd0a4f28419497f9722a3daafe3b4186f6b6457e09190a35050565b80356001600160a01b03811681146103df57600080fd5b919050565b803563ffffffff811681146103df57600080fd5b6000806040838503121561040b57600080fd5b610414836103c8565b9150610422602084016103e4565b90509250929050565b60008060006060848603121561044057600080fd5b610449846103c8565b9250610457602085016103e4565b9150604084013590509250925092565b60006020828403121561047957600080fd5b610482826103c8565b939250505056fea2646970667358221220fabd9f1995d24e0cbd76dce39f41021a8c7f98aee15a42eb7629c9364d0edcc564736f6c63430008190033",
  "devdoc": {
    "kind": "dev",
    "methods": {
      "owner()": {
        "details": "Returns the address of the current owner."
      },
      "renounceOwnership()": {
        "details": "Leaves the contract without owner. It will not be possible to call `onlyOwner` functions. Can only be called by the current owner. NOTE: Renouncing ownership will leave the contract without an owner, thereby disabling any functionality that is only available to the owner."
      },
      "transferOwnership(address)": {
        "details": "Transfers ownership of the contract to a new account (`newOwner`). Can only be called by the current owner."
      }
    },
    "version": 1
  },
  "userdoc": {
    "kind": "user",
    "methods": {},
    "version": 1
  },
  "storageLayout": {
    "storage": [
      {
        "astId": 7,
        "contract": "contracts/oracles/mocks/MockPendlePtOracle.sol:MockPendlePtOracle",
        "label": "_owner",
        "offset": 0,
        "slot": "0",
        "type": "t_address"
      },
      {
        "astId": 640,
        "contract": "contracts/oracles/mocks/MockPendlePtOracle.sol:MockPendlePtOracle",
        "label": "ptToAssetRate",
        "offset": 0,
        "slot": "1",
        "type": "t_mapping(t_address,t_mapping(t_uint32,t_uint256))"
      },
      {
        "astId": 646,
        "contract": "contracts/oracles/mocks/MockPendlePtOracle.sol:MockPendlePtOracle",
        "label": "ptToSyRate",
        "offset": 0,
        "slot": "2",
        "type": "t_mapping(t_address,t_mapping(t_uint32,t_uint256))"
      }
    ],
    "types": {
      "t_address": {
        "encoding": "inplace",
        "label": "address",
        "numberOfBytes": "20"
      },
      "t_mapping(t_address,t_mapping(t_uint32,t_uint256))": {
        "encoding": "mapping",
        "key": "t_address",
        "label": "mapping(address => mapping(uint32 => uint256))",
        "numberOfBytes": "32",
        "value": "t_mapping(t_uint32,t_uint256)"
      },
      "t_mapping(t_uint32,t_uint256)": {
        "encoding": "mapping",
        "key": "t_uint32",
        "label": "mapping(uint32 => uint256)",
        "numberOfBytes": "32",
        "value": "t_uint256"
      },
      "t_uint256": {
        "encoding": "inplace",
        "label": "uint256",
        "numberOfBytes": "32"
      },
      "t_uint32": {
        "encoding": "inplace",
        "label": "uint32",
        "numberOfBytes": "4"
      }
    }
  }
}