{
  "address": "0x95FFFb2063eA9A0D82bDaB7C1aC627b3eE327116",
  "abi": [
    {
      "inputs": [
        {
          "internalType": "address",
          "name": "market",
          "type": "address"
        },
        {
          "internalType": "address",
          "name": "ptOracle",
          "type": "address"
        },
        {
          "internalType": "enum PendleOracle.RateKind",
          "name": "rateKind",
          "type": "uint8"
        },
        {
          "internalType": "address",
          "name": "ptToken",
          "type": "address"
        },
        {
          "internalType": "address",
          "name": "underlyingToken",
          "type": "address"
        },
        {
          "internalType": "address",
          "name": "resilientOracle",
          "type": "address"
        },
        {
          "internalType": "uint32",
          "name": "twapDuration",
          "type": "uint32"
        }
      ],
      "stateMutability": "nonpayable",
      "type": "constructor"
    },
    {
      "inputs": [],
      "name": "InvalidDuration",
      "type": "error"
    },
    {
      "inputs": [],
      "name": "InvalidTokenAddress",
      "type": "error"
    },
    {
      "inputs": [],
      "name": "ZeroAddressNotAllowed",
      "type": "error"
    },
    {
      "inputs": [],
      "name": "ZeroValueNotAllowed",
      "type": "error"
    },
    {
      "inputs": [],
      "name": "CORRELATED_TOKEN",
      "outputs": [
        {
          "internalType": "address",
          "name": "",
          "type": "address"
        }
      ],
      "stateMutability": "view",
      "type": "function"
    },
    {
      "inputs": [],
      "name": "MARKET",
      "outputs": [
        {
          "internalType": "address",
          "name": "",
          "type": "address"
        }
      ],
      "stateMutability": "view",
      "type": "function"
    },
    {
      "inputs": [],
      "name": "PT_ORACLE",
      "outputs": [
        {
          "internalType": "contract IPendlePtOracle",
          "name": "",
          "type": "address"
        }
      ],
      "stateMutability": "view",
      "type": "function"
    },
    {
      "inputs": [],
      "name": "RATE_KIND",
      "outputs": [
        {
          "internalType": "enum PendleOracle.RateKind",
          "name": "",
          "type": "uint8"
        }
      ],
      "stateMutability": "view",
      "type": "function"
    },
    {
      "inputs": [],
      "name": "RESILIENT_ORACLE",
      "outputs": [
        {
          "internalType": "contract OracleInterface",
          "name": "",
          "type": "address"
        }
      ],
      "stateMutability": "view",
      "type": "function"
    },
    {
      "inputs": [],
      "name": "TWAP_DURATION",
      "outputs": [
        {
          "internalType": "uint32",
          "name": "",
          "type": "uint32"
        }
      ],
      "stateMutability": "view",
      "type": "function"
    },
    {
      "inputs": [],
      "name": "UNDERLYING_TOKEN",
      "outputs": [
        {
          "internalType": "address",
          "name": "",
          "type": "address"
        }
      ],
      "stateMutability": "view",
      "type": "function"
    },
    {
      "inputs": [
        {
          "internalType": "address",
          "name": "asset",
          "type": "address"
        }
      ],
      "name": "getPrice",
      "outputs": [
        {
          "internalType": "uint256",
          "name": "",
          "type": "uint256"
        }
      ],
      "stateMutability": "view",
      "type": "function"
    }
  ],
  "transactionHash": "0x94cd03508ad91ed92264803992f3be4a7b0788af64d435a6a53f4218415e1bc4",
  "args": [
    "0x0000000000000000000000000000000000000001",
    "0xa37A9127C302fEc17d456a6E1a5643a18a1779aD",
    1,
    "0x964Ea3dC70Ee5b35Ea881cf8416B7a5F50E13f56",
    "0x8FD14481C1616d9AdA7195Be60f9d8d0994b9AE1",
    "0x3cD69251D04A28d887Ac14cbe2E14c52F3D57823",
    900
  ],
  "numDeployments": 1,
  "solcInputHash": "0bebc4f35e59fb8446bd3ebaaccae910",
  "bytecode": "0x61016060405234801561001157600080fd5b50604051610b3e380380610b3e833981016040819052610030916101f3565b83838361003c8361018c565b6100458261018c565b61004e8161018c565b6001600160a01b0392831660805290821660a0521660c05261006f8761018c565b6100788661018c565b61008763ffffffff82166101b6565b6001600160a01b0380881661012052861660e0528460018111156100ad576100ad61028c565b6101008160018111156100c2576100c261028c565b90525063ffffffff811661014081905260e0516101205160405162439f4b60e91b81526001600160a01b03918216600482015260248101939093526000928392919091169063873e960090604401606060405180830381865afa15801561012d573d6000803e3d6000fd5b505050506040513d601f19601f8201168201806040525081019061015191906102b2565b92505091508180610160575080155b1561017e57604051637616640160e01b815260040160405180910390fd5b5050505050505050506102fe565b6001600160a01b0381166101b3576040516342bcdf7f60e11b815260040160405180910390fd5b50565b806000036101b35760405163273e150360e21b815260040160405180910390fd5b80516001600160a01b03811681146101ee57600080fd5b919050565b600080600080600080600060e0888a03121561020e57600080fd5b610217886101d7565b9650610225602089016101d7565b955060408801516002811061023957600080fd5b9450610247606089016101d7565b9350610255608089016101d7565b925061026360a089016101d7565b915060c088015163ffffffff8116811461027c57600080fd5b8091505092959891949750929550565b634e487b7160e01b600052602160045260246000fd5b805180151581146101ee57600080fd5b6000806000606084860312156102c757600080fd5b6102d0846102a2565b9250602084015161ffff811681146102e757600080fd5b91506102f5604085016102a2565b90509250925092565b60805160a05160c05160e05161010051610120516101405161079b6103a36000396000818161017d01528181610443015261051f0152600081816101e00152818161041b01526104f7015260008181609201526103cf0152600081816101560152818161046f015261054b0152600081816101b901526102a501526000818160cf015261027701526000818161012f015281816102060152610316015261079b6000f3fe608060405234801561001057600080fd5b50600436106100885760003560e01c8063809d7b311161005b578063809d7b3114610151578063879ac8f814610178578063a4edcd4c146101b4578063f46f16c2146101db57600080fd5b806302125d091461008d57806329db1be6146100ca57806341976e091461010957806369818a351461012a575b600080fd5b6100b47f000000000000000000000000000000000000000000000000000000000000000081565b6040516100c19190610590565b60405180910390f35b6100f17f000000000000000000000000000000000000000000000000000000000000000081565b6040516001600160a01b0390911681526020016100c1565b61011c6101173660046105b8565b610202565b6040519081526020016100c1565b6100f17f000000000000000000000000000000000000000000000000000000000000000081565b6100f17f000000000000000000000000000000000000000000000000000000000000000081565b61019f7f000000000000000000000000000000000000000000000000000000000000000081565b60405163ffffffff90911681526020016100c1565b6100f17f000000000000000000000000000000000000000000000000000000000000000081565b6100f17f000000000000000000000000000000000000000000000000000000000000000081565b60007f00000000000000000000000000000000000000000000000000000000000000006001600160a01b0316826001600160a01b03161461025657604051630f58058360e11b815260040160405180910390fd5b60006102606103c9565b6040516341976e0960e01b81526001600160a01b037f0000000000000000000000000000000000000000000000000000000000000000811660048301529192506000917f000000000000000000000000000000000000000000000000000000000000000016906341976e0990602401602060405180830381865afa1580156102ec573d6000803e3d6000fd5b505050506040513d601f19601f8201168201806040525081019061031091906105e8565b905060007f000000000000000000000000000000000000000000000000000000000000000090506000816001600160a01b031663313ce5676040518163ffffffff1660e01b8152600401602060405180830381865afa158015610377573d6000803e3d6000fd5b505050506040513d601f19601f8201168201806040525081019061039b9190610601565b60ff1690506103ab81600a610720565b6103b5848661072c565b6103bf9190610743565b9695505050505050565b600060017f000000000000000000000000000000000000000000000000000000000000000060018111156103ff576103ff61057a565b036104e05760405163a31426d160e01b81526001600160a01b037f0000000000000000000000000000000000000000000000000000000000000000811660048301527f000000000000000000000000000000000000000000000000000000000000000063ffffffff1660248301527f0000000000000000000000000000000000000000000000000000000000000000169063a31426d1906044015b602060405180830381865afa1580156104b7573d6000803e3d6000fd5b505050506040513d601f19601f820116820180604052508101906104db91906105e8565b905090565b60405163abca0eab60e01b81526001600160a01b037f0000000000000000000000000000000000000000000000000000000000000000811660048301527f000000000000000000000000000000000000000000000000000000000000000063ffffffff1660248301527f0000000000000000000000000000000000000000000000000000000000000000169063abca0eab9060440161049a565b634e487b7160e01b600052602160045260246000fd5b60208101600283106105b257634e487b7160e01b600052602160045260246000fd5b91905290565b6000602082840312156105ca57600080fd5b81356001600160a01b03811681146105e157600080fd5b9392505050565b6000602082840312156105fa57600080fd5b5051919050565b60006020828403121561061357600080fd5b815160ff811681146105e157600080fd5b634e487b7160e01b600052601160045260246000fd5b600181815b8085111561067557816000190482111561065b5761065b610624565b8085161561066857918102915b93841c939080029061063f565b509250929050565b60008261068c5750600161071a565b816106995750600061071a565b81600181146106af57600281146106b9576106d5565b600191505061071a565b60ff8411156106ca576106ca610624565b50506001821b61071a565b5060208310610133831016604e8410600b84101617156106f8575081810a61071a565b610702838361063a565b806000190482111561071657610716610624565b0290505b92915050565b60006105e1838361067d565b808202811582820484141761071a5761071a610624565b60008261076057634e487b7160e01b600052601260045260246000fd5b50049056fea26469706673582212201f38989a679f71c7cfe35154795501d1eb4876129ceb80c02083419e6cb834df64736f6c63430008190033",
  "devdoc": {
    "author": "Venus",
    "kind": "dev",
    "methods": {
      "constructor": {
        "custom:oz-upgrades-unsafe-allow": "constructor"
      },
      "getPrice(address)": {
        "params": {
          "asset": "Address of the correlated token"
        },
        "returns": {
          "_0": "price The price of the correlated token in scaled decimal places"
        }
      }
    },
    "stateVariables": {
      "MARKET": {
        "custom:oz-upgrades-unsafe-allow": "state-variable-immutable"
      },
      "PT_ORACLE": {
        "custom:oz-upgrades-unsafe-allow": "state-variable-immutable"
      },
      "RATE_KIND": {
        "custom:oz-upgrades-unsafe-allow": "state-variable-immutable"
      },
      "TWAP_DURATION": {
        "custom:oz-upgrades-unsafe-allow": "state-variable-immutable"
      }
    },
    "title": "PendleOracle",
    "version": 1
  },
  "userdoc": {
    "errors": {
      "InvalidDuration()": [
        {
          "notice": "Thrown if the duration is invalid"
        }
      ],
      "InvalidTokenAddress()": [
        {
          "notice": "Thrown if the token address is invalid"
        }
      ],
      "ZeroAddressNotAllowed()": [
        {
          "notice": "Thrown if the supplied address is a zero address where it is not allowed"
        }
      ],
      "ZeroValueNotAllowed()": [
        {
          "notice": "Thrown if the supplied value is 0 where it is not allowed"
        }
      ]
    },
    "kind": "user",
    "methods": {
      "CORRELATED_TOKEN()": {
        "notice": "Address of the correlated token"
      },
      "MARKET()": {
        "notice": "Address of the market"
      },
      "PT_ORACLE()": {
        "notice": "Address of the PT oracle"
      },
      "RATE_KIND()": {
        "notice": "Whether to use PT/SY (standardized yield token) rate or PT/underlying asset rate"
      },
      "RESILIENT_ORACLE()": {
        "notice": "Address of Resilient Oracle"
      },
      "TWAP_DURATION()": {
        "notice": "Twap duration for the oracle"
      },
      "UNDERLYING_TOKEN()": {
        "notice": "Address of the underlying token"
      },
      "constructor": {
        "notice": "Constructor for the implementation contract."
      },
      "getPrice(address)": {
        "notice": "Fetches the price of the correlated token"
      }
    },
    "notice": "This oracle fetches the price of a pendle token",
    "version": 1
  },
  "storageLayout": {
    "storage": [],
    "types": null
  }
}