{
  "address": "0x0F6a55Bc86c554bBeE32E2dE997319282D5C5197",
  "abi": [
    {
      "anonymous": false,
      "inputs": [
        {
          "indexed": true,
          "internalType": "address",
          "name": "asset",
          "type": "address"
        },
        {
          "indexed": false,
          "internalType": "uint256",
          "name": "price",
          "type": "uint256"
        },
        {
          "indexed": false,
          "internalType": "uint256",
          "name": "oldTimestamp",
          "type": "uint256"
        },
        {
          "indexed": false,
          "internalType": "uint256",
          "name": "newTimestamp",
          "type": "uint256"
        }
      ],
      "name": "AnchorPriceUpdated",
      "type": "event"
    },
    {
      "anonymous": false,
      "inputs": [
        {
          "indexed": false,
          "internalType": "uint8",
          "name": "version",
          "type": "uint8"
        }
      ],
      "name": "Initialized",
      "type": "event"
    },
    {
      "anonymous": false,
      "inputs": [
        {
          "indexed": true,
          "internalType": "address",
          "name": "previousOwner",
          "type": "address"
        },
        {
          "indexed": true,
          "internalType": "address",
          "name": "newOwner",
          "type": "address"
        }
      ],
      "name": "OwnershipTransferred",
      "type": "event"
    },
    {
      "anonymous": false,
      "inputs": [
        {
          "indexed": true,
          "internalType": "address",
          "name": "asset",
          "type": "address"
        },
        {
          "indexed": true,
          "internalType": "address",
          "name": "pancakePool",
          "type": "address"
        },
        {
          "indexed": true,
          "internalType": "uint256",
          "name": "anchorPeriod",
          "type": "uint256"
        }
      ],
      "name": "TokenConfigAdded",
      "type": "event"
    },
    {
      "anonymous": false,
      "inputs": [
        {
          "indexed": true,
          "internalType": "address",
          "name": "asset",
          "type": "address"
        },
        {
          "indexed": false,
          "internalType": "uint256",
          "name": "oldTimestamp",
          "type": "uint256"
        },
        {
          "indexed": false,
          "internalType": "uint256",
          "name": "oldAcc",
          "type": "uint256"
        },
        {
          "indexed": false,
          "internalType": "uint256",
          "name": "newTimestamp",
          "type": "uint256"
        },
        {
          "indexed": false,
          "internalType": "uint256",
          "name": "newAcc",
          "type": "uint256"
        }
      ],
      "name": "TwapWindowUpdated",
      "type": "event"
    },
    {
      "anonymous": false,
      "inputs": [
        {
          "indexed": true,
          "internalType": "address",
          "name": "asset",
          "type": "address"
        },
        {
          "indexed": true,
          "internalType": "uint256",
          "name": "upperBound",
          "type": "uint256"
        },
        {
          "indexed": true,
          "internalType": "uint256",
          "name": "lowerBound",
          "type": "uint256"
        }
      ],
      "name": "ValidateConfigAdded",
      "type": "event"
    },
    {
      "inputs": [],
      "name": "WBNB",
      "outputs": [
        {
          "internalType": "address",
          "name": "",
          "type": "address"
        }
      ],
      "stateMutability": "view",
      "type": "function"
    },
    {
      "inputs": [],
      "name": "bnbBaseUnit",
      "outputs": [
        {
          "internalType": "uint256",
          "name": "",
          "type": "uint256"
        }
      ],
      "stateMutability": "view",
      "type": "function"
    },
    {
      "inputs": [],
      "name": "busdBaseUnit",
      "outputs": [
        {
          "internalType": "uint256",
          "name": "",
          "type": "uint256"
        }
      ],
      "stateMutability": "view",
      "type": "function"
    },
    {
      "inputs": [
        {
          "components": [
            {
              "internalType": "address",
              "name": "asset",
              "type": "address"
            },
            {
              "internalType": "uint256",
              "name": "baseUnit",
              "type": "uint256"
            },
            {
              "internalType": "address",
              "name": "pancakePool",
              "type": "address"
            },
            {
              "internalType": "bool",
              "name": "isBnbBased",
              "type": "bool"
            },
            {
              "internalType": "bool",
              "name": "isReversedPool",
              "type": "bool"
            },
            {
              "internalType": "uint256",
              "name": "anchorPeriod",
              "type": "uint256"
            }
          ],
          "internalType": "struct TokenConfig",
          "name": "config",
          "type": "tuple"
        }
      ],
      "name": "currentCumulativePrice",
      "outputs": [
        {
          "internalType": "uint256",
          "name": "",
          "type": "uint256"
        }
      ],
      "stateMutability": "view",
      "type": "function"
    },
    {
      "inputs": [],
      "name": "expScale",
      "outputs": [
        {
          "internalType": "uint256",
          "name": "",
          "type": "uint256"
        }
      ],
      "stateMutability": "view",
      "type": "function"
    },
    {
      "inputs": [
        {
          "internalType": "address",
          "name": "vToken",
          "type": "address"
        }
      ],
      "name": "getUnderlyingPrice",
      "outputs": [
        {
          "internalType": "uint256",
          "name": "",
          "type": "uint256"
        }
      ],
      "stateMutability": "view",
      "type": "function"
    },
    {
      "inputs": [
        {
          "internalType": "address",
          "name": "WBNB_",
          "type": "address"
        }
      ],
      "name": "initialize",
      "outputs": [],
      "stateMutability": "nonpayable",
      "type": "function"
    },
    {
      "inputs": [
        {
          "internalType": "address",
          "name": "",
          "type": "address"
        }
      ],
      "name": "newObservations",
      "outputs": [
        {
          "internalType": "uint256",
          "name": "timestamp",
          "type": "uint256"
        },
        {
          "internalType": "uint256",
          "name": "acc",
          "type": "uint256"
        }
      ],
      "stateMutability": "view",
      "type": "function"
    },
    {
      "inputs": [
        {
          "internalType": "address",
          "name": "",
          "type": "address"
        }
      ],
      "name": "oldObservations",
      "outputs": [
        {
          "internalType": "uint256",
          "name": "timestamp",
          "type": "uint256"
        },
        {
          "internalType": "uint256",
          "name": "acc",
          "type": "uint256"
        }
      ],
      "stateMutability": "view",
      "type": "function"
    },
    {
      "inputs": [],
      "name": "owner",
      "outputs": [
        {
          "internalType": "address",
          "name": "",
          "type": "address"
        }
      ],
      "stateMutability": "view",
      "type": "function"
    },
    {
      "inputs": [
        {
          "internalType": "address",
          "name": "",
          "type": "address"
        }
      ],
      "name": "prices",
      "outputs": [
        {
          "internalType": "uint256",
          "name": "",
          "type": "uint256"
        }
      ],
      "stateMutability": "view",
      "type": "function"
    },
    {
      "inputs": [],
      "name": "renounceOwnership",
      "outputs": [],
      "stateMutability": "nonpayable",
      "type": "function"
    },
    {
      "inputs": [
        {
          "components": [
            {
              "internalType": "address",
              "name": "asset",
              "type": "address"
            },
            {
              "internalType": "uint256",
              "name": "baseUnit",
              "type": "uint256"
            },
            {
              "internalType": "address",
              "name": "pancakePool",
              "type": "address"
            },
            {
              "internalType": "bool",
              "name": "isBnbBased",
              "type": "bool"
            },
            {
              "internalType": "bool",
              "name": "isReversedPool",
              "type": "bool"
            },
            {
              "internalType": "uint256",
              "name": "anchorPeriod",
              "type": "uint256"
            }
          ],
          "internalType": "struct TokenConfig",
          "name": "config",
          "type": "tuple"
        }
      ],
      "name": "setTokenConfig",
      "outputs": [],
      "stateMutability": "nonpayable",
      "type": "function"
    },
    {
      "inputs": [
        {
          "components": [
            {
              "internalType": "address",
              "name": "asset",
              "type": "address"
            },
            {
              "internalType": "uint256",
              "name": "baseUnit",
              "type": "uint256"
            },
            {
              "internalType": "address",
              "name": "pancakePool",
              "type": "address"
            },
            {
              "internalType": "bool",
              "name": "isBnbBased",
              "type": "bool"
            },
            {
              "internalType": "bool",
              "name": "isReversedPool",
              "type": "bool"
            },
            {
              "internalType": "uint256",
              "name": "anchorPeriod",
              "type": "uint256"
            }
          ],
          "internalType": "struct TokenConfig[]",
          "name": "configs",
          "type": "tuple[]"
        }
      ],
      "name": "setTokenConfigs",
      "outputs": [],
      "stateMutability": "nonpayable",
      "type": "function"
    },
    {
      "inputs": [
        {
          "components": [
            {
              "internalType": "address",
              "name": "asset",
              "type": "address"
            },
            {
              "internalType": "uint256",
              "name": "upperBoundRatio",
              "type": "uint256"
            },
            {
              "internalType": "uint256",
              "name": "lowerBoundRatio",
              "type": "uint256"
            }
          ],
          "internalType": "struct ValidateConfig",
          "name": "config",
          "type": "tuple"
        }
      ],
      "name": "setValidateConfig",
      "outputs": [],
      "stateMutability": "nonpayable",
      "type": "function"
    },
    {
      "inputs": [
        {
          "components": [
            {
              "internalType": "address",
              "name": "asset",
              "type": "address"
            },
            {
              "internalType": "uint256",
              "name": "upperBoundRatio",
              "type": "uint256"
            },
            {
              "internalType": "uint256",
              "name": "lowerBoundRatio",
              "type": "uint256"
            }
          ],
          "internalType": "struct ValidateConfig[]",
          "name": "configs",
          "type": "tuple[]"
        }
      ],
      "name": "setValidateConfigs",
      "outputs": [],
      "stateMutability": "nonpayable",
      "type": "function"
    },
    {
      "inputs": [
        {
          "internalType": "address",
          "name": "",
          "type": "address"
        }
      ],
      "name": "tokenConfigs",
      "outputs": [
        {
          "internalType": "address",
          "name": "asset",
          "type": "address"
        },
        {
          "internalType": "uint256",
          "name": "baseUnit",
          "type": "uint256"
        },
        {
          "internalType": "address",
          "name": "pancakePool",
          "type": "address"
        },
        {
          "internalType": "bool",
          "name": "isBnbBased",
          "type": "bool"
        },
        {
          "internalType": "bool",
          "name": "isReversedPool",
          "type": "bool"
        },
        {
          "internalType": "uint256",
          "name": "anchorPeriod",
          "type": "uint256"
        }
      ],
      "stateMutability": "view",
      "type": "function"
    },
    {
      "inputs": [
        {
          "internalType": "address",
          "name": "newOwner",
          "type": "address"
        }
      ],
      "name": "transferOwnership",
      "outputs": [],
      "stateMutability": "nonpayable",
      "type": "function"
    },
    {
      "inputs": [
        {
          "internalType": "address",
          "name": "vToken",
          "type": "address"
        }
      ],
      "name": "updateTwap",
      "outputs": [
        {
          "internalType": "uint256",
          "name": "",
          "type": "uint256"
        }
      ],
      "stateMutability": "nonpayable",
      "type": "function"
    },
    {
      "inputs": [
        {
          "internalType": "address",
          "name": "",
          "type": "address"
        }
      ],
      "name": "validateConfigs",
      "outputs": [
        {
          "internalType": "address",
          "name": "asset",
          "type": "address"
        },
        {
          "internalType": "uint256",
          "name": "upperBoundRatio",
          "type": "uint256"
        },
        {
          "internalType": "uint256",
          "name": "lowerBoundRatio",
          "type": "uint256"
        }
      ],
      "stateMutability": "view",
      "type": "function"
    },
    {
      "inputs": [
        {
          "internalType": "address",
          "name": "vToken",
          "type": "address"
        },
        {
          "internalType": "uint256",
          "name": "reporterPrice",
          "type": "uint256"
        }
      ],
      "name": "validatePrice",
      "outputs": [
        {
          "internalType": "bool",
          "name": "",
          "type": "bool"
        }
      ],
      "stateMutability": "view",
      "type": "function"
    },
    {
      "inputs": [
        {
          "internalType": "address",
          "name": "vToken",
          "type": "address"
        },
        {
          "internalType": "uint256",
          "name": "reporterPrice",
          "type": "uint256"
        },
        {
          "internalType": "uint256",
          "name": "anchorPrice",
          "type": "uint256"
        }
      ],
      "name": "validatePriceWithAnchorPrice",
      "outputs": [
        {
          "internalType": "bool",
          "name": "",
          "type": "bool"
        }
      ],
      "stateMutability": "view",
      "type": "function"
    }
  ],
  "transactionHash": "0x218aa3eae9efbf910f704b233af0a0b778e8e24d257f1bb45f785b9dba6199b0",
  "args": [],
  "numDeployments": 1,
  "solcInputHash": "400087e7acda78aa3d9bd2f29857e9f4",
  "bytecode": "0x608060405234801561001057600080fd5b50611fe0806100206000396000f3fe608060405234801561001057600080fd5b50600436106101425760003560e01c80639c357615116100b8578063cbf679191161007c578063cbf6791914610374578063cfed246b14610387578063f2fde38b146103a7578063fc57d4df146103ba578063fd45a433146103cd578063fe16e80c146103e057600080fd5b80639c357615146102dd578063af9e6c5b146102f0578063b8a8a6261461021c578063bca9e11614610303578063c4d66de81461036157600080fd5b8063715018a61161010a578063715018a61461022b578063725068a5146102335780638cea8c26146102465780638da5cb5b146102825780638dd95002146102a757806397c7033e146102ba57600080fd5b80631b69dc5f14610147578063234a3446146101e65780632b9d9dea146101fb578063609f0f361461021c57806369aa3ac61461021c575b600080fd5b61019f61015536600461196d565b60666020526000908152604090208054600182015460028301546003909301546001600160a01b0392831693919282169160ff600160a01b8204811692600160a81b909204169086565b604080516001600160a01b03978816815260208101969096529390951692840192909252151560608301521515608082015260a081019190915260c0015b60405180910390f35b6101f96101f4366004611aa2565b610407565b005b61020e610209366004611b41565b6104a3565b6040519081526020016101dd565b61020e670de0b6b3a764000081565b6101f96104d2565b61020e61024136600461196d565b6104e6565b61026d61025436600461196d565b6067602052600090815260409020805460019091015482565b604080519283526020830191909152016101dd565b6033546001600160a01b03165b6040516001600160a01b0390911681526020016101dd565b60655461028f906001600160a01b031681565b6102cd6102c8366004611b5d565b61074b565b60405190151581526020016101dd565b6101f96102eb366004611bf7565b610880565b6101f96102fe366004611c85565b61091f565b61033c61031136600461196d565b606a602052600090815260409020805460018201546002909201546001600160a01b03909116919083565b604080516001600160a01b0390941684526020840192909252908201526060016101dd565b6101f961036f36600461196d565b610ac0565b6101f9610382366004611b41565b610c42565b61020e61039536600461196d565b60696020526000908152604090205481565b6101f96103b536600461196d565b610eb1565b61020e6103c836600461196d565b610f2a565b6102cd6103db366004611ca1565b611139565b61026d6103ee36600461196d565b6068602052600090815260409020805460019091015482565b61040f6111d1565b60008151116104595760405162461bcd60e51b815260206004820152601160248201527006c656e6774682063616e2774206265203607c1b60448201526064015b60405180910390fd5b60005b81518160ff16101561049f5761048d828260ff168151811061048057610480611ccd565b6020026020010151610c42565b8061049781611cf9565b91505061045c565b5050565b60008060006104b5846040015161122b565b50915091508360800151156104cb579392505050565b5092915050565b6104da6111d1565b6104e460006113d3565b565b600080826001600160a01b0316636f307dc36040518163ffffffff1660e01b8152600401602060405180830381865afa158015610527573d6000803e3d6000fd5b505050506040513d601f19601f8201168201806040525081019061054b9190611d18565b6001600160a01b03808216600090815260666020526040902054919250166105a75760405162461bcd60e51b815260206004820152600f60248201526e185cdcd95d081b9bdd08195e1a5cdd608a1b6044820152606401610450565b6065546001600160a01b038281169116148015906105e757506001600160a01b038116600090815260666020526040902060020154600160a01b900460ff165b156106c8576065546001600160a01b03908116600090815260666020526040902054166106475760405162461bcd60e51b815260206004820152600e60248201526d15d09390881b9bdd08195e1a5cdd60921b6044820152606401610450565b6065546001600160a01b03908116600090815260666020908152604091829020825160c08101845281548516815260018201549281019290925260028101549384169282019290925260ff600160a01b8404811615156060830152600160a81b909304909216151560808301526003015460a08201526106c690611425565b505b6001600160a01b03808216600090815260666020908152604091829020825160c08101845281548516815260018201549281019290925260028101549384169282019290925260ff600160a01b8404811615156060830152600160a81b909304909216151560808301526003015460a082015261074490611425565b9392505050565b600080846001600160a01b0316636f307dc36040518163ffffffff1660e01b8152600401602060405180830381865afa15801561078c573d6000803e3d6000fd5b505050506040513d601f19601f820116820180604052508101906107b09190611d18565b6001600160a01b0381166000908152606a60205260408120600101549192500361081c5760405162461bcd60e51b815260206004820152601b60248201527f76616c69646174696f6e20636f6e666967206e6f7420657869737400000000006044820152606401610450565b8260000361086c5760405162461bcd60e51b815260206004820152601960248201527f616e63686f72207072696365206973206e6f742076616c6964000000000000006044820152606401610450565b610877818585611665565b95945050505050565b6108886111d1565b60008151116108d95760405162461bcd60e51b815260206004820152601e60248201527f696e76616c69642076616c696461746520636f6e666967206c656e67746800006044820152606401610450565b60005b81518160ff16101561049f5761090d828260ff168151811061090057610900611ccd565b602002602001015161091f565b8061091781611cf9565b9150506108dc565b6109276111d1565b80516001600160a01b031661097e5760405162461bcd60e51b815260206004820152601b60248201527f61737365742063616e2774206265207a65726f206164647265737300000000006044820152606401610450565b60008160200151118015610996575060008160400151115b6109db5760405162461bcd60e51b8152602060048201526016602482015275626f756e64206d75737420626520706f73697469766560501b6044820152606401610450565b8060400151816020015111610a475760405162461bcd60e51b815260206004820152602c60248201527f757070657220626f756e64206d75737420626520686967686572207468616e2060448201526b1b1bdddb995c88189bdd5b9960a21b6064820152608401610450565b80516001600160a01b039081166000908152606a60209081526040808320855181546001600160a01b03191695169485178155918501516001830181905581860151600290930183905590519193909290917f28e2d96bdcf74fe6203e40d159d27ec2e15230239c0aee4a0a914196c550e6d19190a450565b600054610100900460ff1615808015610ae05750600054600160ff909116105b80610afa5750303b158015610afa575060005460ff166001145b610b5d5760405162461bcd60e51b815260206004820152602e60248201527f496e697469616c697a61626c653a20636f6e747261637420697320616c72656160448201526d191e481a5b9a5d1a585b1a5e995960921b6064820152608401610450565b6000805460ff191660011790558015610b80576000805461ff0019166101001790555b610b886116d7565b6001600160a01b038216610bde5760405162461bcd60e51b815260206004820152601a60248201527f57424e422063616e2774206265207a65726f20616464726573730000000000006044820152606401610450565b606580546001600160a01b0319166001600160a01b038416179055801561049f576000805461ff0019169055604051600181527f7f26b83ff96e1f2b6a682f133852f6798a09c465da95921460cefb38474024989060200160405180910390a15050565b610c4a6111d1565b80516001600160a01b038116610c9a5760405162461bcd60e51b815260206004820152601560248201527463616e2774206265207a65726f206164647265737360581b6044820152606401610450565b60408201516001600160a01b038116610ced5760405162461bcd60e51b815260206004820152601560248201527463616e2774206265207a65726f206164647265737360581b6044820152606401610450565b60008360a0015111610d415760405162461bcd60e51b815260206004820152601e60248201527f616e63686f7220706572696f64206d75737420626520706f73697469766500006044820152606401610450565b6000836020015111610d955760405162461bcd60e51b815260206004820152601a60248201527f6261736520756e6974206d75737420626520706f7369746976650000000000006044820152606401610450565b6000610da0846104a3565b84516001600160a01b03908116600090815260686020818152604080842042908190558a51861685526067808452828620919091558a518616855292825280842060019081018790558a51861685529282528084208301869055895185168452606682528084208a5181549087166001600160a01b031990911681178255928b015193810193909355808a015160028401805460608d015160808e01511515600160a81b0260ff60a81b19911515600160a01b026001600160a81b03199093169490991693841791909117169690961790955560a08a0151600390930183905551949550909390917f3cc8d9cb9370a23a8b9ffa75efa24cecb65c4693980e58260841adc474983c5f91a450505050565b610eb96111d1565b6001600160a01b038116610f1e5760405162461bcd60e51b815260206004820152602660248201527f4f776e61626c653a206e6577206f776e657220697320746865207a65726f206160448201526564647265737360d01b6064820152608401610450565b610f27816113d3565b50565b600080826001600160a01b0316636f307dc36040518163ffffffff1660e01b8152600401602060405180830381865afa158015610f6b573d6000803e3d6000fd5b505050506040513d601f19601f82011682018060405250810190610f8f9190611d18565b6001600160a01b0380821660009081526066602052604090205491925016610feb5760405162461bcd60e51b815260206004820152600f60248201526e185cdcd95d081b9bdd08195e1a5cdd608a1b6044820152606401610450565b6001600160a01b038116600090815260696020526040902054806110515760405162461bcd60e51b815260206004820152601b60248201527f54574150207072696365206d75737420626520706f73697469766500000000006044820152606401610450565b6000846001600160a01b0316636f307dc36040518163ffffffff1660e01b8152600401602060405180830381865afa158015611091573d6000803e3d6000fd5b505050506040513d601f19601f820116820180604052508101906110b59190611d18565b9050806001600160a01b031663313ce5676040518163ffffffff1660e01b8152600401602060405180830381865afa1580156110f5573d6000803e3d6000fd5b505050506040513d601f19601f820116820180604052508101906111199190611d35565b611124906012611d58565b61112f90600a611e5f565b6108779083611e6e565b600080836001600160a01b0316636f307dc36040518163ffffffff1660e01b8152600401602060405180830381865afa15801561117a573d6000803e3d6000fd5b505050506040513d601f19601f8201168201806040525081019061119e9190611d18565b6001600160a01b0381166000908152606960205260409020549091506111c7908590859061074b565b9150505b92915050565b6033546001600160a01b031633146104e45760405162461bcd60e51b815260206004820181905260248201527f4f776e61626c653a2063616c6c6572206973206e6f7420746865206f776e65726044820152606401610450565b6000806000611238611706565b9050836001600160a01b0316635909c0d56040518163ffffffff1660e01b8152600401602060405180830381865afa158015611278573d6000803e3d6000fd5b505050506040513d601f19601f8201168201806040525081019061129c9190611e8d565b9250836001600160a01b0316635a3d54936040518163ffffffff1660e01b8152600401602060405180830381865afa1580156112dc573d6000803e3d6000fd5b505050506040513d601f19601f820116820180604052508101906113009190611e8d565b91506000806000866001600160a01b0316630902f1ac6040518163ffffffff1660e01b8152600401606060405180830381865afa158015611345573d6000803e3d6000fd5b505050506040513d601f19601f820116820180604052508101906113699190611ebd565b9250925092508363ffffffff168163ffffffff16146113c95780840363ffffffff8116611396848661171c565b516001600160e01b031602969096019563ffffffff81166113b7858561171c565b516001600160e01b0316029590950194505b5050509193909250565b603380546001600160a01b038381166001600160a01b0319831681179093556040519116919082907f8be0079c531659141344cd1fd0a4f28419497f9722a3daafe3b4186f6b6457e090600090a35050565b600080600080611434856117cc565b9250925092508042116114895760405162461bcd60e51b815260206004820152601a60248201527f6e6f77206d75737420636f6d65206166746572206265666f72650000000000006044820152606401610450565b60006114958242611f0d565b9050600060405180602001604052808386886114b19190611f0d565b6114bb9190611f3a565b6001600160e01b03169052905060006114d382611908565b9050600088606001516114ee57670de0b6b3a76400006114f8565b670de0b6b3a76400005b90506000818a602001518461150d9190611e6e565b6115179190611f3a565b90508960600151156115a6576065546001600160a01b0316600090815260696020526040812054908190036115855760405162461bcd60e51b8152602060048201526014602482015273189b98881c1c9a58d9481a5cc81a5b9d985b1a5960621b6044820152606401610450565b670de0b6b3a76400006115988284611e6e565b6115a29190611f3a565b9150505b806000036115ef5760405162461bcd60e51b81526020600482015260166024820152750747761702070726963652063616e6e6f7420626520360541b6044820152606401610450565b89516040805183815260208101899052428183015290516001600160a01b03909216917f7d881580fb2bb7844e8ecf8df26510247c4bbea2735d40bf0d9ac33c0d9acd819181900360600190a298516001600160a01b031660009081526069602052604090208990555096979650505050505050565b600082156116cd5760008361168284670de0b6b3a7640000611e6e565b61168c9190611f3a565b6001600160a01b0386166000908152606a602052604090206001810154600290910154919250908183118015906116c35750808310155b9350505050610744565b5060009392505050565b600054610100900460ff166116fe5760405162461bcd60e51b815260040161045090611f4e565b6104e4611928565b600061171764010000000042611f99565b905090565b6040805160208101909152600081526000826001600160701b0316116117845760405162461bcd60e51b815260206004820152601760248201527f4669786564506f696e743a204449565f42595f5a45524f0000000000000000006044820152606401610450565b6040805160208101909152806117ba6001600160701b0385166dffffffffffffffffffffffffffff60701b607088901b16611fad565b6001600160e01b031690529392505050565b6000806000806117db856104a3565b85516001600160a01b03166000908152606760209081526040808320815180830190925280548083526001909101549282019290925292935061181e9042611f0d565b90508660a0015181106118d357815187516001600160a01b0390811660009081526068602090815260408083209490945580860180518c51851684528584206001908101919091558c51851684526067835285842042908190558d518616855293869020018890558b5187519151865192835292820193909352938401526060830186905216907f87208a84ec7402c933c70c261e53b733a9f1c893d73e941a152435d58177a2649060800160405180910390a25b505084516001600160a01b03908116600090815260686020526040808220600101549751909216815220549095909350915050565b80516000906111cb906612725dd1d243ab906001600160e01b0316611f3a565b600054610100900460ff1661194f5760405162461bcd60e51b815260040161045090611f4e565b6104e4336113d3565b6001600160a01b0381168114610f2757600080fd5b60006020828403121561197f57600080fd5b813561074481611958565b634e487b7160e01b600052604160045260246000fd5b604051601f8201601f1916810167ffffffffffffffff811182821017156119c9576119c961198a565b604052919050565b600067ffffffffffffffff8211156119eb576119eb61198a565b5060051b60200190565b80358015158114611a0557600080fd5b919050565b600060c08284031215611a1c57600080fd5b60405160c0810181811067ffffffffffffffff82111715611a3f57611a3f61198a565b6040529050808235611a5081611958565b8152602083810135908201526040830135611a6a81611958565b6040820152611a7b606084016119f5565b6060820152611a8c608084016119f5565b608082015260a083013560a08201525092915050565b60006020808385031215611ab557600080fd5b823567ffffffffffffffff811115611acc57600080fd5b8301601f81018513611add57600080fd5b8035611af0611aeb826119d1565b6119a0565b81815260c09182028301840191848201919088841115611b0f57600080fd5b938501935b83851015611b3557611b268986611a0a565b83529384019391850191611b14565b50979650505050505050565b600060c08284031215611b5357600080fd5b6107448383611a0a565b600080600060608486031215611b7257600080fd5b8335611b7d81611958565b95602085013595506040909401359392505050565b600060608284031215611ba457600080fd5b6040516060810181811067ffffffffffffffff82111715611bc757611bc761198a565b6040529050808235611bd881611958565b8082525060208301356020820152604083013560408201525092915050565b60006020808385031215611c0a57600080fd5b823567ffffffffffffffff811115611c2157600080fd5b8301601f81018513611c3257600080fd5b8035611c40611aeb826119d1565b81815260609182028301840191848201919088841115611c5f57600080fd5b938501935b83851015611b3557611c768986611b92565b83529384019391850191611c64565b600060608284031215611c9757600080fd5b6107448383611b92565b60008060408385031215611cb457600080fd5b8235611cbf81611958565b946020939093013593505050565b634e487b7160e01b600052603260045260246000fd5b634e487b7160e01b600052601160045260246000fd5b600060ff821660ff8103611d0f57611d0f611ce3565b60010192915050565b600060208284031215611d2a57600080fd5b815161074481611958565b600060208284031215611d4757600080fd5b815160ff8116811461074457600080fd5b600060ff821660ff841680821015611d7257611d72611ce3565b90039392505050565b600181815b80851115611db6578160001904821115611d9c57611d9c611ce3565b80851615611da957918102915b93841c9390800290611d80565b509250929050565b600082611dcd575060016111cb565b81611dda575060006111cb565b8160018114611df05760028114611dfa57611e16565b60019150506111cb565b60ff841115611e0b57611e0b611ce3565b50506001821b6111cb565b5060208310610133831016604e8410600b8410161715611e39575081810a6111cb565b611e438383611d7b565b8060001904821115611e5757611e57611ce3565b029392505050565b600061074460ff841683611dbe565b6000816000190483118215151615611e8857611e88611ce3565b500290565b600060208284031215611e9f57600080fd5b5051919050565b80516001600160701b0381168114611a0557600080fd5b600080600060608486031215611ed257600080fd5b611edb84611ea6565b9250611ee960208501611ea6565b9150604084015163ffffffff81168114611f0257600080fd5b809150509250925092565b600082821015611f1f57611f1f611ce3565b500390565b634e487b7160e01b600052601260045260246000fd5b600082611f4957611f49611f24565b500490565b6020808252602b908201527f496e697469616c697a61626c653a20636f6e7472616374206973206e6f74206960408201526a6e697469616c697a696e6760a81b606082015260800190565b600082611fa857611fa8611f24565b500690565b60006001600160e01b0383811680611fc757611fc7611f24565b9216919091049291505056fea164736f6c634300080d000a",
  "devdoc": {
    "kind": "dev",
    "methods": {
      "currentCumulativePrice((address,uint256,address,bool,bool,uint256))": {
        "returns": {
          "_0": "cumulative price of target token regardless of pair order "
        }
      },
      "getUnderlyingPrice(address)": {
        "params": {
          "vToken": "vToken address"
        },
        "returns": {
          "_0": "price in USD, with 18 decimals"
        }
      },
      "owner()": {
        "details": "Returns the address of the current owner."
      },
      "renounceOwnership()": {
        "details": "Leaves the contract without owner. It will not be possible to call `onlyOwner` functions anymore. Can only be called by the current owner. NOTE: Renouncing ownership will leave the contract without an owner, thereby removing any functionality that is only available to the owner."
      },
      "setTokenConfig((address,uint256,address,bool,bool,uint256))": {
        "params": {
          "config": "token config struct"
        }
      },
      "setTokenConfigs((address,uint256,address,bool,bool,uint256)[])": {
        "params": {
          "configs": "config array"
        }
      },
      "setValidateConfig((address,uint256,uint256))": {
        "params": {
          "config": "config struct"
        }
      },
      "setValidateConfigs((address,uint256,uint256)[])": {
        "params": {
          "configs": "config array "
        }
      },
      "transferOwnership(address)": {
        "details": "Transfers ownership of the contract to a new account (`newOwner`). Can only be called by the current owner."
      },
      "validatePrice(address,uint256)": {
        "params": {
          "reporterPrice": "the price to be tested",
          "vToken": "vToken address"
        }
      },
      "validatePriceWithAnchorPrice(address,uint256,uint256)": {
        "params": {
          "reporterPrice": "the price to be tested",
          "vToken": "vToken address"
        }
      }
    },
    "version": 1
  },
  "userdoc": {
    "events": {
      "AnchorPriceUpdated(address,uint256,uint256,uint256)": {
        "notice": "Emit this event when TWAP price is updated"
      },
      "TokenConfigAdded(address,address,uint256)": {
        "notice": "Emit this event when new token configs are added"
      },
      "TwapWindowUpdated(address,uint256,uint256,uint256,uint256)": {
        "notice": "Emit this event when TWAP window is updated"
      },
      "ValidateConfigAdded(address,uint256,uint256)": {
        "notice": "Emit this event when new validate configs are added"
      }
    },
    "kind": "user",
    "methods": {
      "WBNB()": {
        "notice": "WBNB address"
      },
      "bnbBaseUnit()": {
        "notice": "the base unit of WBNB and BUSD, which are the paired tokens for all assets"
      },
      "currentCumulativePrice((address,uint256,address,bool,bool,uint256))": {
        "notice": "Fetches the current token/WBNB and token/BUSD price accumulator from pancakeswap."
      },
      "getUnderlyingPrice(address)": {
        "notice": "Get the underlying TWAP price of input vToken"
      },
      "newObservations(address)": {
        "notice": "The current price observation of TWAP. With old and current observations we can calculate the TWAP between this range"
      },
      "oldObservations(address)": {
        "notice": "The old price observation of TWAP"
      },
      "prices(address)": {
        "notice": "Stored price by token "
      },
      "setTokenConfig((address,uint256,address,bool,bool,uint256))": {
        "notice": "Add single token configs"
      },
      "setTokenConfigs((address,uint256,address,bool,bool,uint256)[])": {
        "notice": "Add multiple token configs at the same time"
      },
      "setValidateConfig((address,uint256,uint256))": {
        "notice": "Add single validation config"
      },
      "setValidateConfigs((address,uint256,uint256)[])": {
        "notice": "Add multiple validation configs at the same time"
      },
      "tokenConfigs(address)": {
        "notice": "Configs by token"
      },
      "validateConfigs(address)": {
        "notice": "validation configs by asset"
      },
      "validatePrice(address,uint256)": {
        "notice": "Test reported vToken underlying price against stored TWAP"
      },
      "validatePriceWithAnchorPrice(address,uint256,uint256)": {
        "notice": "Test reported asset price against anchor price"
      }
    },
    "version": 1
  },
  "storageLayout": {
    "storage": [
      {
        "astId": 138,
        "contract": "contracts/oracles/PivotTwapOracle.sol:PivotTwapOracle",
        "label": "_initialized",
        "offset": 0,
        "slot": "0",
        "type": "t_uint8"
      },
      {
        "astId": 141,
        "contract": "contracts/oracles/PivotTwapOracle.sol:PivotTwapOracle",
        "label": "_initializing",
        "offset": 1,
        "slot": "0",
        "type": "t_bool"
      },
      {
        "astId": 566,
        "contract": "contracts/oracles/PivotTwapOracle.sol:PivotTwapOracle",
        "label": "__gap",
        "offset": 0,
        "slot": "1",
        "type": "t_array(t_uint256)50_storage"
      },
      {
        "astId": 10,
        "contract": "contracts/oracles/PivotTwapOracle.sol:PivotTwapOracle",
        "label": "_owner",
        "offset": 0,
        "slot": "51",
        "type": "t_address"
      },
      {
        "astId": 130,
        "contract": "contracts/oracles/PivotTwapOracle.sol:PivotTwapOracle",
        "label": "__gap",
        "offset": 0,
        "slot": "52",
        "type": "t_array(t_uint256)49_storage"
      },
      {
        "astId": 1214,
        "contract": "contracts/oracles/PivotTwapOracle.sol:PivotTwapOracle",
        "label": "WBNB",
        "offset": 0,
        "slot": "101",
        "type": "t_address"
      },
      {
        "astId": 1230,
        "contract": "contracts/oracles/PivotTwapOracle.sol:PivotTwapOracle",
        "label": "tokenConfigs",
        "offset": 0,
        "slot": "102",
        "type": "t_mapping(t_address,t_struct(TokenConfig)1205_storage)"
      },
      {
        "astId": 1236,
        "contract": "contracts/oracles/PivotTwapOracle.sol:PivotTwapOracle",
        "label": "newObservations",
        "offset": 0,
        "slot": "103",
        "type": "t_mapping(t_address,t_struct(Observation)1186_storage)"
      },
      {
        "astId": 1242,
        "contract": "contracts/oracles/PivotTwapOracle.sol:PivotTwapOracle",
        "label": "oldObservations",
        "offset": 0,
        "slot": "104",
        "type": "t_mapping(t_address,t_struct(Observation)1186_storage)"
      },
      {
        "astId": 1247,
        "contract": "contracts/oracles/PivotTwapOracle.sol:PivotTwapOracle",
        "label": "prices",
        "offset": 0,
        "slot": "105",
        "type": "t_mapping(t_address,t_uint256)"
      },
      {
        "astId": 925,
        "contract": "contracts/oracles/PivotTwapOracle.sol:PivotTwapOracle",
        "label": "validateConfigs",
        "offset": 0,
        "slot": "106",
        "type": "t_mapping(t_address,t_struct(ValidateConfig)917_storage)"
      },
      {
        "astId": 1130,
        "contract": "contracts/oracles/PivotTwapOracle.sol:PivotTwapOracle",
        "label": "__gap",
        "offset": 0,
        "slot": "107",
        "type": "t_array(t_uint256)49_storage"
      }
    ],
    "types": {
      "t_address": {
        "encoding": "inplace",
        "label": "address",
        "numberOfBytes": "20"
      },
      "t_array(t_uint256)49_storage": {
        "base": "t_uint256",
        "encoding": "inplace",
        "label": "uint256[49]",
        "numberOfBytes": "1568"
      },
      "t_array(t_uint256)50_storage": {
        "base": "t_uint256",
        "encoding": "inplace",
        "label": "uint256[50]",
        "numberOfBytes": "1600"
      },
      "t_bool": {
        "encoding": "inplace",
        "label": "bool",
        "numberOfBytes": "1"
      },
      "t_mapping(t_address,t_struct(Observation)1186_storage)": {
        "encoding": "mapping",
        "key": "t_address",
        "label": "mapping(address => struct Observation)",
        "numberOfBytes": "32",
        "value": "t_struct(Observation)1186_storage"
      },
      "t_mapping(t_address,t_struct(TokenConfig)1205_storage)": {
        "encoding": "mapping",
        "key": "t_address",
        "label": "mapping(address => struct TokenConfig)",
        "numberOfBytes": "32",
        "value": "t_struct(TokenConfig)1205_storage"
      },
      "t_mapping(t_address,t_struct(ValidateConfig)917_storage)": {
        "encoding": "mapping",
        "key": "t_address",
        "label": "mapping(address => struct ValidateConfig)",
        "numberOfBytes": "32",
        "value": "t_struct(ValidateConfig)917_storage"
      },
      "t_mapping(t_address,t_uint256)": {
        "encoding": "mapping",
        "key": "t_address",
        "label": "mapping(address => uint256)",
        "numberOfBytes": "32",
        "value": "t_uint256"
      },
      "t_struct(Observation)1186_storage": {
        "encoding": "inplace",
        "label": "struct Observation",
        "members": [
          {
            "astId": 1183,
            "contract": "contracts/oracles/PivotTwapOracle.sol:PivotTwapOracle",
            "label": "timestamp",
            "offset": 0,
            "slot": "0",
            "type": "t_uint256"
          },
          {
            "astId": 1185,
            "contract": "contracts/oracles/PivotTwapOracle.sol:PivotTwapOracle",
            "label": "acc",
            "offset": 0,
            "slot": "1",
            "type": "t_uint256"
          }
        ],
        "numberOfBytes": "64"
      },
      "t_struct(TokenConfig)1205_storage": {
        "encoding": "inplace",
        "label": "struct TokenConfig",
        "members": [
          {
            "astId": 1189,
            "contract": "contracts/oracles/PivotTwapOracle.sol:PivotTwapOracle",
            "label": "asset",
            "offset": 0,
            "slot": "0",
            "type": "t_address"
          },
          {
            "astId": 1192,
            "contract": "contracts/oracles/PivotTwapOracle.sol:PivotTwapOracle",
            "label": "baseUnit",
            "offset": 0,
            "slot": "1",
            "type": "t_uint256"
          },
          {
            "astId": 1195,
            "contract": "contracts/oracles/PivotTwapOracle.sol:PivotTwapOracle",
            "label": "pancakePool",
            "offset": 0,
            "slot": "2",
            "type": "t_address"
          },
          {
            "astId": 1198,
            "contract": "contracts/oracles/PivotTwapOracle.sol:PivotTwapOracle",
            "label": "isBnbBased",
            "offset": 20,
            "slot": "2",
            "type": "t_bool"
          },
          {
            "astId": 1201,
            "contract": "contracts/oracles/PivotTwapOracle.sol:PivotTwapOracle",
            "label": "isReversedPool",
            "offset": 21,
            "slot": "2",
            "type": "t_bool"
          },
          {
            "astId": 1204,
            "contract": "contracts/oracles/PivotTwapOracle.sol:PivotTwapOracle",
            "label": "anchorPeriod",
            "offset": 0,
            "slot": "3",
            "type": "t_uint256"
          }
        ],
        "numberOfBytes": "128"
      },
      "t_struct(ValidateConfig)917_storage": {
        "encoding": "inplace",
        "label": "struct ValidateConfig",
        "members": [
          {
            "astId": 910,
            "contract": "contracts/oracles/PivotTwapOracle.sol:PivotTwapOracle",
            "label": "asset",
            "offset": 0,
            "slot": "0",
            "type": "t_address"
          },
          {
            "astId": 913,
            "contract": "contracts/oracles/PivotTwapOracle.sol:PivotTwapOracle",
            "label": "upperBoundRatio",
            "offset": 0,
            "slot": "1",
            "type": "t_uint256"
          },
          {
            "astId": 916,
            "contract": "contracts/oracles/PivotTwapOracle.sol:PivotTwapOracle",
            "label": "lowerBoundRatio",
            "offset": 0,
            "slot": "2",
            "type": "t_uint256"
          }
        ],
        "numberOfBytes": "96"
      },
      "t_uint256": {
        "encoding": "inplace",
        "label": "uint256",
        "numberOfBytes": "32"
      },
      "t_uint8": {
        "encoding": "inplace",
        "label": "uint8",
        "numberOfBytes": "1"
      }
    }
  }
}