{
  "address": "0xf8c6f847f6B07Fe6092097f4a5f47206244A14C1",
  "abi": [
    {
      "inputs": [
        {
          "internalType": "address",
          "name": "vBnbAddress",
          "type": "address"
        }
      ],
      "stateMutability": "nonpayable",
      "type": "constructor"
    },
    {
      "anonymous": false,
      "inputs": [
        {
          "indexed": false,
          "internalType": "uint8",
          "name": "version",
          "type": "uint8"
        }
      ],
      "name": "Initialized",
      "type": "event"
    },
    {
      "anonymous": false,
      "inputs": [
        {
          "indexed": true,
          "internalType": "address",
          "name": "asset",
          "type": "address"
        },
        {
          "indexed": true,
          "internalType": "uint256",
          "name": "role",
          "type": "uint256"
        },
        {
          "indexed": true,
          "internalType": "bool",
          "name": "enable",
          "type": "bool"
        }
      ],
      "name": "OracleEnabled",
      "type": "event"
    },
    {
      "anonymous": false,
      "inputs": [
        {
          "indexed": true,
          "internalType": "address",
          "name": "asset",
          "type": "address"
        },
        {
          "indexed": true,
          "internalType": "address",
          "name": "oracle",
          "type": "address"
        },
        {
          "indexed": true,
          "internalType": "uint256",
          "name": "role",
          "type": "uint256"
        }
      ],
      "name": "OracleSet",
      "type": "event"
    },
    {
      "anonymous": false,
      "inputs": [
        {
          "indexed": true,
          "internalType": "address",
          "name": "previousOwner",
          "type": "address"
        },
        {
          "indexed": true,
          "internalType": "address",
          "name": "newOwner",
          "type": "address"
        }
      ],
      "name": "OwnershipTransferred",
      "type": "event"
    },
    {
      "anonymous": false,
      "inputs": [
        {
          "indexed": false,
          "internalType": "address",
          "name": "account",
          "type": "address"
        }
      ],
      "name": "Paused",
      "type": "event"
    },
    {
      "anonymous": false,
      "inputs": [
        {
          "indexed": true,
          "internalType": "address",
          "name": "asset",
          "type": "address"
        },
        {
          "indexed": true,
          "internalType": "address",
          "name": "mainOracle",
          "type": "address"
        },
        {
          "indexed": true,
          "internalType": "address",
          "name": "pivotOracle",
          "type": "address"
        },
        {
          "indexed": false,
          "internalType": "address",
          "name": "fallbackOracle",
          "type": "address"
        }
      ],
      "name": "TokenConfigAdded",
      "type": "event"
    },
    {
      "anonymous": false,
      "inputs": [
        {
          "indexed": false,
          "internalType": "address",
          "name": "account",
          "type": "address"
        }
      ],
      "name": "Unpaused",
      "type": "event"
    },
    {
      "inputs": [],
      "name": "BNB_ADDR",
      "outputs": [
        {
          "internalType": "address",
          "name": "",
          "type": "address"
        }
      ],
      "stateMutability": "view",
      "type": "function"
    },
    {
      "inputs": [],
      "name": "INVALID_PRICE",
      "outputs": [
        {
          "internalType": "uint256",
          "name": "",
          "type": "uint256"
        }
      ],
      "stateMutability": "view",
      "type": "function"
    },
    {
      "inputs": [],
      "name": "boundValidator",
      "outputs": [
        {
          "internalType": "contract BoundValidatorInterface",
          "name": "",
          "type": "address"
        }
      ],
      "stateMutability": "view",
      "type": "function"
    },
    {
      "inputs": [
        {
          "internalType": "address",
          "name": "asset",
          "type": "address"
        },
        {
          "internalType": "enum ResilientOracle.OracleRole",
          "name": "role",
          "type": "uint8"
        },
        {
          "internalType": "bool",
          "name": "enable",
          "type": "bool"
        }
      ],
      "name": "enableOracle",
      "outputs": [],
      "stateMutability": "nonpayable",
      "type": "function"
    },
    {
      "inputs": [
        {
          "internalType": "address",
          "name": "vToken",
          "type": "address"
        },
        {
          "internalType": "enum ResilientOracle.OracleRole",
          "name": "role",
          "type": "uint8"
        }
      ],
      "name": "getOracle",
      "outputs": [
        {
          "internalType": "address",
          "name": "oracle",
          "type": "address"
        },
        {
          "internalType": "bool",
          "name": "enabled",
          "type": "bool"
        }
      ],
      "stateMutability": "view",
      "type": "function"
    },
    {
      "inputs": [
        {
          "internalType": "address",
          "name": "vToken",
          "type": "address"
        }
      ],
      "name": "getTokenConfig",
      "outputs": [
        {
          "components": [
            {
              "internalType": "address",
              "name": "asset",
              "type": "address"
            },
            {
              "internalType": "address[3]",
              "name": "oracles",
              "type": "address[3]"
            },
            {
              "internalType": "bool[3]",
              "name": "enableFlagsForOracles",
              "type": "bool[3]"
            }
          ],
          "internalType": "struct ResilientOracle.TokenConfig",
          "name": "",
          "type": "tuple"
        }
      ],
      "stateMutability": "view",
      "type": "function"
    },
    {
      "inputs": [
        {
          "internalType": "address",
          "name": "vToken",
          "type": "address"
        }
      ],
      "name": "getUnderlyingPrice",
      "outputs": [
        {
          "internalType": "uint256",
          "name": "",
          "type": "uint256"
        }
      ],
      "stateMutability": "view",
      "type": "function"
    },
    {
      "inputs": [
        {
          "internalType": "contract BoundValidatorInterface",
          "name": "_boundValidator",
          "type": "address"
        }
      ],
      "name": "initialize",
      "outputs": [],
      "stateMutability": "nonpayable",
      "type": "function"
    },
    {
      "inputs": [],
      "name": "owner",
      "outputs": [
        {
          "internalType": "address",
          "name": "",
          "type": "address"
        }
      ],
      "stateMutability": "view",
      "type": "function"
    },
    {
      "inputs": [],
      "name": "pause",
      "outputs": [],
      "stateMutability": "nonpayable",
      "type": "function"
    },
    {
      "inputs": [],
      "name": "paused",
      "outputs": [
        {
          "internalType": "bool",
          "name": "",
          "type": "bool"
        }
      ],
      "stateMutability": "view",
      "type": "function"
    },
    {
      "inputs": [],
      "name": "renounceOwnership",
      "outputs": [],
      "stateMutability": "nonpayable",
      "type": "function"
    },
    {
      "inputs": [
        {
          "internalType": "address",
          "name": "asset",
          "type": "address"
        },
        {
          "internalType": "address",
          "name": "oracle",
          "type": "address"
        },
        {
          "internalType": "enum ResilientOracle.OracleRole",
          "name": "role",
          "type": "uint8"
        }
      ],
      "name": "setOracle",
      "outputs": [],
      "stateMutability": "nonpayable",
      "type": "function"
    },
    {
      "inputs": [
        {
          "components": [
            {
              "internalType": "address",
              "name": "asset",
              "type": "address"
            },
            {
              "internalType": "address[3]",
              "name": "oracles",
              "type": "address[3]"
            },
            {
              "internalType": "bool[3]",
              "name": "enableFlagsForOracles",
              "type": "bool[3]"
            }
          ],
          "internalType": "struct ResilientOracle.TokenConfig",
          "name": "tokenConfig",
          "type": "tuple"
        }
      ],
      "name": "setTokenConfig",
      "outputs": [],
      "stateMutability": "nonpayable",
      "type": "function"
    },
    {
      "inputs": [
        {
          "components": [
            {
              "internalType": "address",
              "name": "asset",
              "type": "address"
            },
            {
              "internalType": "address[3]",
              "name": "oracles",
              "type": "address[3]"
            },
            {
              "internalType": "bool[3]",
              "name": "enableFlagsForOracles",
              "type": "bool[3]"
            }
          ],
          "internalType": "struct ResilientOracle.TokenConfig[]",
          "name": "tokenConfigs_",
          "type": "tuple[]"
        }
      ],
      "name": "setTokenConfigs",
      "outputs": [],
      "stateMutability": "nonpayable",
      "type": "function"
    },
    {
      "inputs": [
        {
          "internalType": "address",
          "name": "newOwner",
          "type": "address"
        }
      ],
      "name": "transferOwnership",
      "outputs": [],
      "stateMutability": "nonpayable",
      "type": "function"
    },
    {
      "inputs": [],
      "name": "unpause",
      "outputs": [],
      "stateMutability": "nonpayable",
      "type": "function"
    },
    {
      "inputs": [
        {
          "internalType": "address",
          "name": "vToken",
          "type": "address"
        }
      ],
      "name": "updatePrice",
      "outputs": [],
      "stateMutability": "nonpayable",
      "type": "function"
    },
    {
      "inputs": [],
      "name": "vBnb",
      "outputs": [
        {
          "internalType": "address",
          "name": "",
          "type": "address"
        }
      ],
      "stateMutability": "view",
      "type": "function"
    }
  ],
  "transactionHash": "0xbb01e5499e94f5800ad11fd2bd7ad754df2e5de2ba411cb9c6424464a385a1d0",
  "args": [
    "0x2E7222e51c0f6e98610A1543Aa3836E092CDe62c"
  ],
  "numDeployments": 1,
  "solcInputHash": "6153c675ce838eebb6442d63350712be",
  "bytecode": "0x60a06040523480156200001157600080fd5b5060405162001d1b38038062001d1b83398101604081905262000034916200016f565b806001600160a01b038116620000915760405162461bcd60e51b815260206004820152601560248201527f63616e2774206265207a65726f2061646472657373000000000000000000000060448201526064015b60405180910390fd5b6001600160a01b038216608052620000a8620000b0565b5050620001a1565b600054610100900460ff16156200011a5760405162461bcd60e51b815260206004820152602760248201527f496e697469616c697a61626c653a20636f6e747261637420697320696e697469604482015266616c697a696e6760c81b606482015260840162000088565b60005460ff90811610156200016d576000805460ff191660ff9081179091556040519081527f7f26b83ff96e1f2b6a682f133852f6798a09c465da95921460cefb38474024989060200160405180910390a15b565b6000602082840312156200018257600080fd5b81516001600160a01b03811681146200019a57600080fd5b9392505050565b608051611b50620001cb600039600081816101cf015281816106060152610b5d0152611b506000f3fe608060405234801561001057600080fd5b50600436106101215760003560e01c8063715018a6116100ad578063a6b1344a11610071578063a6b1344a1461026d578063c4d66de814610280578063cb67e3b114610293578063f2fde38b146102b3578063fc57d4df146102c657600080fd5b8063715018a6146102075780638456cb591461020f5780638b855da4146102175780638da5cb5b1461024957806396e85ced1461025a57600080fd5b80633f4ba83a116100f45780633f4ba83a146101995780634b932b8f146101a15780634bf39cba146101b45780635ba3792d146101ca5780635c975abb146101f157600080fd5b80632cfa387114610126578063333a21b01461013b57806333d334941461014e5780633e83b6b81461017e575b600080fd5b6101396101343660046117b6565b6102d9565b005b610139610149366004611866565b61036f565b609754610161906001600160a01b031681565b6040516001600160a01b0390911681526020015b60405180910390f35b61016173bbbbbbbbbbbbbbbbbbbbbbbbbbbbbbbbbbbbbbbb81565b61013961048b565b6101396101af36600461189d565b61049d565b6101bc600081565b604051908152602001610175565b6101617f000000000000000000000000000000000000000000000000000000000000000081565b60655460ff166040519015158152602001610175565b6101396105dd565b6101396105ef565b61022a6102253660046118e6565b6105ff565b604080516001600160a01b039093168352901515602083015201610175565b6033546001600160a01b0316610161565b61013961026836600461191b565b61075e565b61013961027b366004611938565b6107fa565b61013961028e36600461191b565b6109c6565b6102a66102a136600461191b565b610b51565b604051610175919061197f565b6101396102c136600461191b565b610ce0565b6101bc6102d436600461191b565b610d59565b6102e1610fa9565b805160000361032b5760405162461bcd60e51b815260206004820152601160248201527006c656e6774682063616e2774206265203607c1b60448201526064015b60405180910390fd5b805160005b8181101561036a5761035a83828151811061034d5761034d6119fa565b602002602001015161036f565b61036381611a10565b9050610330565b505050565b610377610fa9565b80516001600160a01b03811661039f5760405162461bcd60e51b815260040161032290611a37565b6020820151516001600160a01b0381166103cb5760405162461bcd60e51b815260040161032290611a37565b82516001600160a01b039081166000908152609860209081526040909120855181546001600160a01b031916931692909217825584015184919061041590600183019060036114e6565b50604082015161042b906004830190600361153e565b505050602083810151808201518151865160409384015193516001600160a01b039485168152928416949184169316917fa51ad01e2270c314a7b78f0c60fe66c723f2d06c121d63fcdce776e654878fc1910160405180910390a4505050565b610493610fa9565b61049b611003565b565b6104a5610fa9565b826001600160a01b0381166104cc5760405162461bcd60e51b815260040161032290611a37565b6001600160a01b0380851660009081526098602052604090205485911661052f5760405162461bcd60e51b81526020600482015260176024820152761d1bdad95b8818dbdb999a59c81b5d5cdd08195e1a5cdd604a1b6044820152606401610322565b6001600160a01b0385166000908152609860205260409020839060040185600281111561055e5761055e611a66565b6003811061056e5761056e6119fa565b602091828204019190066101000a81548160ff0219169083151502179055508215158460028111156105a2576105a2611a66565b6040516001600160a01b038816907fcf3cad1ec87208efbde5d82a0557484a78d4182c3ad16926a5463bc1f7234b3d90600090a45050505050565b6105e5610fa9565b61049b6000611055565b6105f7610fa9565b61049b6110a7565b60008060007f00000000000000000000000000000000000000000000000000000000000000006001600160a01b0316856001600160a01b0316146106a457846001600160a01b0316636f307dc36040518163ffffffff1660e01b8152600401602060405180830381865afa15801561067b573d6000803e3d6000fd5b505050506040513d601f19601f8201168201806040525081019061069f9190611a7c565b6106ba565b73bbbbbbbbbbbbbbbbbbbbbbbbbbbbbbbbbbbbbbbb5b6001600160a01b03811660009081526098602052604090209091506001018460028111156106ea576106ea611a66565b600381106106fa576106fa6119fa565b01546001600160a01b0382811660009081526098602052604090209116935060040184600281111561072e5761072e611a66565b6003811061073e5761073e6119fa565b602091828204019190069054906101000a900460ff169150509250929050565b60008061076c8360016105ff565b90925090506001600160a01b038216158015906107865750805b1561036a5760405163725068a560e01b81526001600160a01b03848116600483015283169063725068a5906024016020604051808303816000875af19250505080156107ef575060408051601f3d908101601f191682019092526107ec91810190611a99565b60015b1561036a5750505050565b610802610fa9565b826001600160a01b0381166108295760405162461bcd60e51b815260040161032290611a37565b6001600160a01b0380851660009081526098602052604090205485911661088c5760405162461bcd60e51b81526020600482015260176024820152761d1bdad95b8818dbdb999a59c81b5d5cdd08195e1a5cdd604a1b6044820152606401610322565b6001600160a01b0384161580156108b4575060008360028111156108b2576108b2611a66565b145b1561090f5760405162461bcd60e51b815260206004820152602560248201527f63616e277420736574207a65726f206164647265737320746f206d61696e206f6044820152647261636c6560d81b6064820152608401610322565b6001600160a01b0385166000908152609860205260409020849060010184600281111561093e5761093e611a66565b6003811061094e5761094e6119fa565b0180546001600160a01b0319166001600160a01b039290921691909117905582600281111561097f5761097f611a66565b846001600160a01b0316866001600160a01b03167fea681d3efb830ef032a9c29a7215b5ceeeb546250d2c463dbf87817aecda1bf160405160405180910390a45050505050565b600054610100900460ff16158080156109e65750600054600160ff909116105b80610a005750303b158015610a00575060005460ff166001145b610a635760405162461bcd60e51b815260206004820152602e60248201527f496e697469616c697a61626c653a20636f6e747261637420697320616c72656160448201526d191e481a5b9a5d1a585b1a5e995960921b6064820152608401610322565b6000805460ff191660011790558015610a86576000805461ff0019166101001790555b6001600160a01b038216610adc5760405162461bcd60e51b815260206004820152601f60248201527f696e76616c696420626f756e642076616c696461746f722061646472657373006044820152606401610322565b609780546001600160a01b0319166001600160a01b038416179055610aff6110e4565b610b07611113565b8015610b4d576000805461ff0019169055604051600181527f7f26b83ff96e1f2b6a682f133852f6798a09c465da95921460cefb38474024989060200160405180910390a15b5050565b610b596115cb565b60007f00000000000000000000000000000000000000000000000000000000000000006001600160a01b0316836001600160a01b031614610bfb57826001600160a01b0316636f307dc36040518163ffffffff1660e01b8152600401602060405180830381865afa158015610bd2573d6000803e3d6000fd5b505050506040513d601f19601f82011682018060405250810190610bf69190611a7c565b610c11565b73bbbbbbbbbbbbbbbbbbbbbbbbbbbbbbbbbbbbbbbb5b6001600160a01b03818116600090815260986020908152604091829020825160608082018552825490951681528351948501938490529495509290840191600184019060039082845b81546001600160a01b03168152600190910190602001808311610c5a575050509183525050604080516060810191829052602090920191906004840190600390826000855b825461010083900a900460ff161515815260206001928301818104948501949093039092029101808411610c9f579050505050505081525050915050919050565b610ce8610fa9565b6001600160a01b038116610d4d5760405162461bcd60e51b815260206004820152602660248201527f4f776e61626c653a206e6577206f776e657220697320746865207a65726f206160448201526564647265737360d01b6064820152608401610322565b610d5681611055565b50565b6000610d6760655460ff1690565b15610db45760405162461bcd60e51b815260206004820152601a60248201527f726573696c69656e74206f7261636c65206973207061757365640000000000006044820152606401610322565b60008080610dc38560016105ff565b91509150808015610ddc57506001600160a01b03821615155b15610e4b5760405163fc57d4df60e01b81526001600160a01b03868116600483015283169063fc57d4df90602401602060405180830381865afa925050508015610e43575060408051601f3d908101601f19168201909252610e4091810190611a99565b60015b15610e4b5792505b600080610e6d8786858015610e6857506001600160a01b03871615155b611142565b9150915060008214158015610e7f5750805b15610e8e575095945050505050565b600080610e9b89886112a5565b9150915060008214158015610ead5750805b15610ebe5750979650505050505050565b8315801590610ecc57508115155b8015610f4f5750609754604051634be3819f60e11b81526001600160a01b038b811660048301526024820185905260448201879052909116906397c7033e90606401602060405180830381865afa158015610f2b573d6000803e3d6000fd5b505050506040513d601f19601f82011682018060405250810190610f4f9190611ab2565b15610f61575091979650505050505050565b60405162461bcd60e51b815260206004820152601e60248201527f696e76616c696420726573696c69656e74206f7261636c6520707269636500006044820152606401610322565b6033546001600160a01b0316331461049b5760405162461bcd60e51b815260206004820181905260248201527f4f776e61626c653a2063616c6c6572206973206e6f7420746865206f776e65726044820152606401610322565b61100b6113f4565b6065805460ff191690557f5db9ee0a495bf2e6ff9c91a7834c1ba4fdd244a5e8aa4e537bd38aeae4b073aa335b6040516001600160a01b03909116815260200160405180910390a1565b603380546001600160a01b038381166001600160a01b0319831681179093556040519116919082907f8be0079c531659141344cd1fd0a4f28419497f9722a3daafe3b4186f6b6457e090600090a35050565b6110af61143d565b6065805460ff191660011790557f62e78cea01bee320cd4e420270b5ea74000d11b0c9f74754ebdbfc544b05a2586110383390565b600054610100900460ff1661110b5760405162461bcd60e51b815260040161032290611acf565b61049b611483565b600054610100900460ff1661113a5760405162461bcd60e51b815260040161032290611acf565b61049b6114b3565b6000806000806111538760006105ff565b9150915080801561116c57506001600160a01b03821615155b156112935760405163fc57d4df60e01b81526001600160a01b03888116600483015283169063fc57d4df90602401602060405180830381865afa9250505080156111d3575060408051601f3d908101601f191682019092526111d091810190611a99565b60015b6111e55760008093509350505061129d565b856111f85793506001925061129d915050565b8661120b5793506000925061129d915050565b609754604051634be3819f60e11b81526001600160a01b038a8116600483015260248201849052604482018a9052839216906397c7033e90606401602060405180830381865afa158015611263573d6000803e3d6000fd5b505050506040513d601f19601f820116820180604052508101906112879190611ab2565b9450945050505061129d565b6000809350935050505b935093915050565b6000806000806112b68660026105ff565b915091508080156112cf57506001600160a01b03821615155b156113e35760405163fc57d4df60e01b81526001600160a01b03878116600483015283169063fc57d4df90602401602060405180830381865afa925050508015611336575060408051601f3d908101601f1916820190925261133391810190611a99565b60015b611348576000809350935050506113ed565b8561135b579350600092506113ed915050565b609754604051634be3819f60e11b81526001600160a01b0389811660048301526024820184905260448201899052839216906397c7033e90606401602060405180830381865afa1580156113b3573d6000803e3d6000fd5b505050506040513d601f19601f820116820180604052508101906113d79190611ab2565b945094505050506113ed565b6000809350935050505b9250929050565b60655460ff1661049b5760405162461bcd60e51b815260206004820152601460248201527314185d5cd8589b194e881b9bdd081c185d5cd95960621b6044820152606401610322565b60655460ff161561049b5760405162461bcd60e51b815260206004820152601060248201526f14185d5cd8589b194e881c185d5cd95960821b6044820152606401610322565b600054610100900460ff166114aa5760405162461bcd60e51b815260040161032290611acf565b61049b33611055565b600054610100900460ff166114da5760405162461bcd60e51b815260040161032290611acf565b6065805460ff19169055565b826003810192821561152e579160200282015b8281111561152e57825182546001600160a01b0319166001600160a01b039091161782556020909201916001909101906114f9565b5061153a929150611600565b5090565b60018301918390821561152e5791602002820160005b8382111561159157835183826101000a81548160ff0219169083151502179055509260200192600101602081600001049283019260010302611554565b80156115be5782816101000a81549060ff0219169055600101602081600001049283019260010302611591565b505061153a929150611600565b604051806060016040528060006001600160a01b031681526020016115ee611615565b81526020016115fb611615565b905290565b5b8082111561153a5760008155600101611601565b60405180606001604052806003906020820280368337509192915050565b634e487b7160e01b600052604160045260246000fd5b6040516060810167ffffffffffffffff8111828210171561166c5761166c611633565b60405290565b604051601f8201601f1916810167ffffffffffffffff8111828210171561169b5761169b611633565b604052919050565b6001600160a01b0381168114610d5657600080fd5b8015158114610d5657600080fd5b600082601f8301126116d757600080fd5b6116df611649565b8060608401858111156116f157600080fd5b845b81811015611714578035611706816116b8565b8452602093840193016116f3565b509095945050505050565b600060e0828403121561173157600080fd5b611739611649565b90508135611746816116a3565b81526020603f8301841361175957600080fd5b611761611649565b80608085018681111561177357600080fd5b8386015b8181101561179757803561178a816116a3565b8452928401928401611777565b5081848601526117a787826116c6565b60408601525050505092915050565b600060208083850312156117c957600080fd5b823567ffffffffffffffff808211156117e157600080fd5b818501915085601f8301126117f557600080fd5b81358181111561180757611807611633565b611815848260051b01611672565b818152848101925060e091820284018501918883111561183457600080fd5b938501935b8285101561185a5761184b898661171f565b84529384019392850192611839565b50979650505050505050565b600060e0828403121561187857600080fd5b611882838361171f565b9392505050565b80356003811061189857600080fd5b919050565b6000806000606084860312156118b257600080fd5b83356118bd816116a3565b92506118cb60208501611889565b915060408401356118db816116b8565b809150509250925092565b600080604083850312156118f957600080fd5b8235611904816116a3565b915061191260208401611889565b90509250929050565b60006020828403121561192d57600080fd5b8135611882816116a3565b60008060006060848603121561194d57600080fd5b8335611958816116a3565b92506020840135611968816116a3565b915061197660408501611889565b90509250925092565b81516001600160a01b03908116825260208084015160e0840192919081850160005b60038110156119c05782518516825291830191908301906001016119a1565b505050604085015191506080840160005b60038110156119f05783511515825292820192908201906001016119d1565b5050505092915050565b634e487b7160e01b600052603260045260246000fd5b600060018201611a3057634e487b7160e01b600052601160045260246000fd5b5060010190565b60208082526015908201527463616e2774206265207a65726f206164647265737360581b604082015260600190565b634e487b7160e01b600052602160045260246000fd5b600060208284031215611a8e57600080fd5b8151611882816116a3565b600060208284031215611aab57600080fd5b5051919050565b600060208284031215611ac457600080fd5b8151611882816116b8565b6020808252602b908201527f496e697469616c697a61626c653a20636f6e7472616374206973206e6f74206960408201526a6e697469616c697a696e6760a81b60608201526080019056fea2646970667358221220c0b0ba75aa6aff4843a977bbed996cbebfd3f28e8e5d00b834f1feae59cc0ad164736f6c634300080d0033",
  "devdoc": {
    "kind": "dev",
    "methods": {
      "constructor": {
        "custom:oz-upgrades-unsafe-allow": "constructor",
        "params": {
          "vBnbAddress": "The address of the vBNB"
        }
      },
      "enableOracle(address,uint8,bool)": {
        "custom:access": "Only Governance",
        "custom:error": "NotNullAddress error is thrown if asset address is nullTokenConfigExistance error is thrown if token config is not set",
        "params": {
          "asset": "Asset address",
          "enable": "Enabled boolean of the oracle",
          "role": "Oracle role"
        }
      },
      "getOracle(address,uint8)": {
        "params": {
          "role": "Oracle role",
          "vToken": "vToken address"
        },
        "returns": {
          "enabled": "Enabled flag of the oracle based on token config",
          "oracle": "Oracle address based on role"
        }
      },
      "getTokenConfig(address)": {
        "details": "Gets token config by vToken address",
        "params": {
          "vToken": "vToken address"
        },
        "returns": {
          "_0": "tokenConfig Config for the vToken"
        }
      },
      "getUnderlyingPrice(address)": {
        "custom:error": "Paused error is thrown when resilent oracle is pausedInvalid resilient oracle price error is thrown if fetched prices from oracle is invalid",
        "params": {
          "vToken": "vToken address"
        },
        "returns": {
          "_0": "price USD price in scaled decimal places."
        }
      },
      "initialize(address)": {
        "params": {
          "_boundValidator": "Address of the bound validator contract"
        }
      },
      "owner()": {
        "details": "Returns the address of the current owner."
      },
      "pause()": {
        "custom:access": "Only Governance"
      },
      "paused()": {
        "details": "Returns true if the contract is paused, and false otherwise."
      },
      "renounceOwnership()": {
        "details": "Leaves the contract without owner. It will not be possible to call `onlyOwner` functions anymore. Can only be called by the current owner. NOTE: Renouncing ownership will leave the contract without an owner, thereby removing any functionality that is only available to the owner."
      },
      "setOracle(address,address,uint8)": {
        "custom:access": "Only Governance",
        "custom:error": "Null address error if main-role oracle address is nullNotNullAddress error is thrown if asset address is nullTokenConfigExistance error is thrown if token config is not set",
        "custom:event": "Emits OracleSet event with asset address, oracle address and role of the oracle for the asset",
        "details": "Supplied vToken **must** exist and main oracle may not be null",
        "params": {
          "asset": "Asset address",
          "oracle": "Oracle address",
          "role": "Oracle role"
        }
      },
      "setTokenConfig((address,address[3],bool[3]))": {
        "custom:access": "Only Governance",
        "custom:error": "NotNullAddress is thrown if asset address is nullNotNullAddress is thrown if main-role oracle address for asset is null",
        "custom:event": "Emits TokenConfigAdded event when vToken config is set successfully by governnace",
        "details": "main oracle **must not** be a null address",
        "params": {
          "tokenConfig": "Token config struct"
        }
      },
      "setTokenConfigs((address,address[3],bool[3])[])": {
        "custom:access": "Only Governance",
        "custom:error": "Throws a length error if the lenght of the token configs array is 0",
        "params": {
          "tokenConfigs_": "Token config array"
        }
      },
      "transferOwnership(address)": {
        "details": "Transfers ownership of the contract to a new account (`newOwner`). Can only be called by the current owner."
      },
      "unpause()": {
        "custom:access": "Only Governance"
      },
      "updatePrice(address)": {
        "details": "This function should always be called before calling getUnderlyingPrice",
        "params": {
          "vToken": "vToken address"
        }
      }
    },
    "stateVariables": {
      "vBnb": {
        "custom:oz-upgrades-unsafe-allow": "state-variable-immutable"
      }
    },
    "version": 1
  },
  "userdoc": {
    "events": {
      "OracleEnabled(address,uint256,bool)": {
        "notice": "Event emitted when an oracle is enabled or disabled"
      },
      "OracleSet(address,address,uint256)": {
        "notice": "Event emitted when an oracle is set"
      }
    },
    "kind": "user",
    "methods": {
      "BNB_ADDR()": {
        "notice": "Set this as asset address for BNB. This is the underlying for vBNB"
      },
      "constructor": {
        "notice": "Constructor for the implementation contract. Sets immutable variables."
      },
      "enableOracle(address,uint8,bool)": {
        "notice": "Enables/ disables oracle for the input vToken, input vToken **must** exist"
      },
      "getOracle(address,uint8)": {
        "notice": "Gets oracle and enabled status by vToken address"
      },
      "getUnderlyingPrice(address)": {
        "notice": "Gets price of the underlying asset for a given vToken. Validation flow: - Check if the oracle is paused globally - Validate price from main oracle against pivot oracle - Validate price from fallback oracle against pivot oracle or main oracle if the first validation failed In the case that the pivot oracle is not available but main price is available and validation is successful, main oracle price is returned."
      },
      "initialize(address)": {
        "notice": "Initializes the contract admin and sets the BoundValidator contract address"
      },
      "pause()": {
        "notice": "Pauses oracle"
      },
      "setOracle(address,address,uint8)": {
        "notice": "Sets oracle for a given vToken and role."
      },
      "setTokenConfig((address,address[3],bool[3]))": {
        "notice": "Sets/resets single token configs."
      },
      "setTokenConfigs((address,address[3],bool[3])[])": {
        "notice": "Batch sets token configs"
      },
      "unpause()": {
        "notice": "Unpauses oracle"
      },
      "updatePrice(address)": {
        "notice": "Updates the pivot oracle price. Currently using TWAP"
      },
      "vBnb()": {
        "notice": "vBNB address"
      }
    },
    "version": 1
  },
  "storageLayout": {
    "storage": [
      {
        "astId": 241,
        "contract": "contracts/ResilientOracle.sol:ResilientOracle",
        "label": "_initialized",
        "offset": 0,
        "slot": "0",
        "type": "t_uint8"
      },
      {
        "astId": 244,
        "contract": "contracts/ResilientOracle.sol:ResilientOracle",
        "label": "_initializing",
        "offset": 1,
        "slot": "0",
        "type": "t_bool"
      },
      {
        "astId": 855,
        "contract": "contracts/ResilientOracle.sol:ResilientOracle",
        "label": "__gap",
        "offset": 0,
        "slot": "1",
        "type": "t_array(t_uint256)50_storage"
      },
      {
        "astId": 113,
        "contract": "contracts/ResilientOracle.sol:ResilientOracle",
        "label": "_owner",
        "offset": 0,
        "slot": "51",
        "type": "t_address"
      },
      {
        "astId": 233,
        "contract": "contracts/ResilientOracle.sol:ResilientOracle",
        "label": "__gap",
        "offset": 0,
        "slot": "52",
        "type": "t_array(t_uint256)49_storage"
      },
      {
        "astId": 424,
        "contract": "contracts/ResilientOracle.sol:ResilientOracle",
        "label": "_paused",
        "offset": 0,
        "slot": "101",
        "type": "t_bool"
      },
      {
        "astId": 529,
        "contract": "contracts/ResilientOracle.sol:ResilientOracle",
        "label": "__gap",
        "offset": 0,
        "slot": "102",
        "type": "t_array(t_uint256)49_storage"
      },
      {
        "astId": 3585,
        "contract": "contracts/ResilientOracle.sol:ResilientOracle",
        "label": "boundValidator",
        "offset": 0,
        "slot": "151",
        "type": "t_contract(BoundValidatorInterface)4397"
      },
      {
        "astId": 3590,
        "contract": "contracts/ResilientOracle.sol:ResilientOracle",
        "label": "tokenConfigs",
        "offset": 0,
        "slot": "152",
        "type": "t_mapping(t_address,t_struct(TokenConfig)3572_storage)"
      }
    ],
    "types": {
      "t_address": {
        "encoding": "inplace",
        "label": "address",
        "numberOfBytes": "20"
      },
      "t_array(t_address)3_storage": {
        "base": "t_address",
        "encoding": "inplace",
        "label": "address[3]",
        "numberOfBytes": "96"
      },
      "t_array(t_bool)3_storage": {
        "base": "t_bool",
        "encoding": "inplace",
        "label": "bool[3]",
        "numberOfBytes": "32"
      },
      "t_array(t_uint256)49_storage": {
        "base": "t_uint256",
        "encoding": "inplace",
        "label": "uint256[49]",
        "numberOfBytes": "1568"
      },
      "t_array(t_uint256)50_storage": {
        "base": "t_uint256",
        "encoding": "inplace",
        "label": "uint256[50]",
        "numberOfBytes": "1600"
      },
      "t_bool": {
        "encoding": "inplace",
        "label": "bool",
        "numberOfBytes": "1"
      },
      "t_contract(BoundValidatorInterface)4397": {
        "encoding": "inplace",
        "label": "contract BoundValidatorInterface",
        "numberOfBytes": "20"
      },
      "t_mapping(t_address,t_struct(TokenConfig)3572_storage)": {
        "encoding": "mapping",
        "key": "t_address",
        "label": "mapping(address => struct ResilientOracle.TokenConfig)",
        "numberOfBytes": "32",
        "value": "t_struct(TokenConfig)3572_storage"
      },
      "t_struct(TokenConfig)3572_storage": {
        "encoding": "inplace",
        "label": "struct ResilientOracle.TokenConfig",
        "members": [
          {
            "astId": 3561,
            "contract": "contracts/ResilientOracle.sol:ResilientOracle",
            "label": "asset",
            "offset": 0,
            "slot": "0",
            "type": "t_address"
          },
          {
            "astId": 3566,
            "contract": "contracts/ResilientOracle.sol:ResilientOracle",
            "label": "oracles",
            "offset": 0,
            "slot": "1",
            "type": "t_array(t_address)3_storage"
          },
          {
            "astId": 3571,
            "contract": "contracts/ResilientOracle.sol:ResilientOracle",
            "label": "enableFlagsForOracles",
            "offset": 0,
            "slot": "4",
            "type": "t_array(t_bool)3_storage"
          }
        ],
        "numberOfBytes": "160"
      },
      "t_uint256": {
        "encoding": "inplace",
        "label": "uint256",
        "numberOfBytes": "32"
      },
      "t_uint8": {
        "encoding": "inplace",
        "label": "uint8",
        "numberOfBytes": "1"
      }
    }
  }
}