{
  "address": "0xb5F1735789f899f2f217A665c4dC98d122bfbFD4",
  "abi": [
    {
      "anonymous": false,
      "inputs": [
        {
          "indexed": true,
          "internalType": "bool",
          "name": "isEnable",
          "type": "bool"
        }
      ],
      "name": "GlobalEnable",
      "type": "event"
    },
    {
      "anonymous": false,
      "inputs": [
        {
          "indexed": false,
          "internalType": "uint8",
          "name": "version",
          "type": "uint8"
        }
      ],
      "name": "Initialized",
      "type": "event"
    },
    {
      "anonymous": false,
      "inputs": [
        {
          "indexed": true,
          "internalType": "address",
          "name": "vToken",
          "type": "address"
        },
        {
          "indexed": true,
          "internalType": "uint256",
          "name": "role",
          "type": "uint256"
        },
        {
          "indexed": true,
          "internalType": "bool",
          "name": "enable",
          "type": "bool"
        }
      ],
      "name": "OracleEnabled",
      "type": "event"
    },
    {
      "anonymous": false,
      "inputs": [
        {
          "indexed": true,
          "internalType": "address",
          "name": "vToken",
          "type": "address"
        },
        {
          "indexed": true,
          "internalType": "address",
          "name": "oracle",
          "type": "address"
        },
        {
          "indexed": true,
          "internalType": "uint256",
          "name": "role",
          "type": "uint256"
        }
      ],
      "name": "OracleSet",
      "type": "event"
    },
    {
      "anonymous": false,
      "inputs": [
        {
          "indexed": true,
          "internalType": "address",
          "name": "previousOwner",
          "type": "address"
        },
        {
          "indexed": true,
          "internalType": "address",
          "name": "newOwner",
          "type": "address"
        }
      ],
      "name": "OwnershipTransferred",
      "type": "event"
    },
    {
      "anonymous": false,
      "inputs": [
        {
          "indexed": false,
          "internalType": "address",
          "name": "account",
          "type": "address"
        }
      ],
      "name": "Paused",
      "type": "event"
    },
    {
      "anonymous": false,
      "inputs": [
        {
          "indexed": true,
          "internalType": "address",
          "name": "token",
          "type": "address"
        },
        {
          "indexed": true,
          "internalType": "address",
          "name": "mainOracle",
          "type": "address"
        },
        {
          "indexed": true,
          "internalType": "address",
          "name": "pivotOracle",
          "type": "address"
        },
        {
          "indexed": false,
          "internalType": "address",
          "name": "fallbackOracle",
          "type": "address"
        }
      ],
      "name": "TokenConfigAdded",
      "type": "event"
    },
    {
      "anonymous": false,
      "inputs": [
        {
          "indexed": false,
          "internalType": "address",
          "name": "account",
          "type": "address"
        }
      ],
      "name": "Unpaused",
      "type": "event"
    },
    {
      "inputs": [],
      "name": "INVALID_PRICE",
      "outputs": [
        {
          "internalType": "uint256",
          "name": "",
          "type": "uint256"
        }
      ],
      "stateMutability": "view",
      "type": "function"
    },
    {
      "inputs": [],
      "name": "boundValidator",
      "outputs": [
        {
          "internalType": "contract BoundValidatorInterface",
          "name": "",
          "type": "address"
        }
      ],
      "stateMutability": "view",
      "type": "function"
    },
    {
      "inputs": [
        {
          "internalType": "address",
          "name": "vToken",
          "type": "address"
        },
        {
          "internalType": "enum ResilientOracle.OracleRole",
          "name": "role",
          "type": "uint8"
        },
        {
          "internalType": "bool",
          "name": "enable",
          "type": "bool"
        }
      ],
      "name": "enableOracle",
      "outputs": [],
      "stateMutability": "nonpayable",
      "type": "function"
    },
    {
      "inputs": [
        {
          "internalType": "address",
          "name": "vToken",
          "type": "address"
        },
        {
          "internalType": "enum ResilientOracle.OracleRole",
          "name": "role",
          "type": "uint8"
        }
      ],
      "name": "getOracle",
      "outputs": [
        {
          "internalType": "address",
          "name": "oracle",
          "type": "address"
        },
        {
          "internalType": "bool",
          "name": "enabled",
          "type": "bool"
        }
      ],
      "stateMutability": "view",
      "type": "function"
    },
    {
      "inputs": [
        {
          "internalType": "address",
          "name": "vToken",
          "type": "address"
        }
      ],
      "name": "getTokenConfig",
      "outputs": [
        {
          "components": [
            {
              "internalType": "address",
              "name": "vToken",
              "type": "address"
            },
            {
              "internalType": "address[3]",
              "name": "oracles",
              "type": "address[3]"
            },
            {
              "internalType": "bool[3]",
              "name": "enableFlagsForOracles",
              "type": "bool[3]"
            }
          ],
          "internalType": "struct ResilientOracle.TokenConfig",
          "name": "",
          "type": "tuple"
        }
      ],
      "stateMutability": "view",
      "type": "function"
    },
    {
      "inputs": [
        {
          "internalType": "address",
          "name": "vToken",
          "type": "address"
        }
      ],
      "name": "getUnderlyingPrice",
      "outputs": [
        {
          "internalType": "uint256",
          "name": "",
          "type": "uint256"
        }
      ],
      "stateMutability": "view",
      "type": "function"
    },
    {
      "inputs": [
        {
          "internalType": "contract BoundValidatorInterface",
          "name": "_boundValidator",
          "type": "address"
        }
      ],
      "name": "initialize",
      "outputs": [],
      "stateMutability": "nonpayable",
      "type": "function"
    },
    {
      "inputs": [],
      "name": "owner",
      "outputs": [
        {
          "internalType": "address",
          "name": "",
          "type": "address"
        }
      ],
      "stateMutability": "view",
      "type": "function"
    },
    {
      "inputs": [],
      "name": "pause",
      "outputs": [],
      "stateMutability": "nonpayable",
      "type": "function"
    },
    {
      "inputs": [],
      "name": "paused",
      "outputs": [
        {
          "internalType": "bool",
          "name": "",
          "type": "bool"
        }
      ],
      "stateMutability": "view",
      "type": "function"
    },
    {
      "inputs": [],
      "name": "renounceOwnership",
      "outputs": [],
      "stateMutability": "nonpayable",
      "type": "function"
    },
    {
      "inputs": [
        {
          "internalType": "address",
          "name": "vToken",
          "type": "address"
        },
        {
          "internalType": "address",
          "name": "oracle",
          "type": "address"
        },
        {
          "internalType": "enum ResilientOracle.OracleRole",
          "name": "role",
          "type": "uint8"
        }
      ],
      "name": "setOracle",
      "outputs": [],
      "stateMutability": "nonpayable",
      "type": "function"
    },
    {
      "inputs": [
        {
          "components": [
            {
              "internalType": "address",
              "name": "vToken",
              "type": "address"
            },
            {
              "internalType": "address[3]",
              "name": "oracles",
              "type": "address[3]"
            },
            {
              "internalType": "bool[3]",
              "name": "enableFlagsForOracles",
              "type": "bool[3]"
            }
          ],
          "internalType": "struct ResilientOracle.TokenConfig",
          "name": "tokenConfig",
          "type": "tuple"
        }
      ],
      "name": "setTokenConfig",
      "outputs": [],
      "stateMutability": "nonpayable",
      "type": "function"
    },
    {
      "inputs": [
        {
          "components": [
            {
              "internalType": "address",
              "name": "vToken",
              "type": "address"
            },
            {
              "internalType": "address[3]",
              "name": "oracles",
              "type": "address[3]"
            },
            {
              "internalType": "bool[3]",
              "name": "enableFlagsForOracles",
              "type": "bool[3]"
            }
          ],
          "internalType": "struct ResilientOracle.TokenConfig[]",
          "name": "tokenConfigs_",
          "type": "tuple[]"
        }
      ],
      "name": "setTokenConfigs",
      "outputs": [],
      "stateMutability": "nonpayable",
      "type": "function"
    },
    {
      "inputs": [
        {
          "internalType": "address",
          "name": "newOwner",
          "type": "address"
        }
      ],
      "name": "transferOwnership",
      "outputs": [],
      "stateMutability": "nonpayable",
      "type": "function"
    },
    {
      "inputs": [],
      "name": "unpause",
      "outputs": [],
      "stateMutability": "nonpayable",
      "type": "function"
    },
    {
      "inputs": [
        {
          "internalType": "address",
          "name": "vToken",
          "type": "address"
        }
      ],
      "name": "updatePrice",
      "outputs": [],
      "stateMutability": "nonpayable",
      "type": "function"
    }
  ],
  "transactionHash": "0xd9305a5a41ffbc0c500f3d6bed2d8485109d6a3a6e9f7aecd3d28ada6e4b1630",
  "args": [],
  "numDeployments": 1,
  "solcInputHash": "bb71c6049f6b7b21a6581f40daf802bc",
  "bytecode": "0x608060405234801561001057600080fd5b50611a2f806100206000396000f3fe608060405234801561001057600080fd5b506004361061010b5760003560e01c80638456cb59116100a2578063a6b1344a11610071578063a6b1344a14610215578063c4d66de814610228578063cb67e3b11461023b578063f2fde38b1461025b578063fc57d4df1461026e57600080fd5b80638456cb59146101b75780638b855da4146101bf5780638da5cb5b146101f157806396e85ced1461020257600080fd5b80634b932b8f116100de5780634b932b8f146101705780634bf39cba146101835780635c975abb14610199578063715018a6146101af57600080fd5b80632cfa387114610110578063333a21b01461012557806333d33494146101385780633f4ba83a14610168575b600080fd5b61012361011e3660046116b2565b610281565b005b610123610133366004611762565b610317565b60975461014b906001600160a01b031681565b6040516001600160a01b0390911681526020015b60405180910390f35b610123610433565b61012361017e366004611799565b610445565b61018b600081565b60405190815260200161015f565b60655460ff16604051901515815260200161015f565b610123610585565b610123610597565b6101d26101cd3660046117e2565b6105a7565b604080516001600160a01b03909316835290151560208301520161015f565b6033546001600160a01b031661014b565b610123610210366004611817565b610649565b610123610223366004611834565b6106e6565b610123610236366004611817565b6108b2565b61024e610249366004611817565b610a3c565b60405161015f919061187b565b610123610269366004611817565b610b11565b61018b61027c366004611817565b610b8a565b610289610c56565b80516000036102d35760405162461bcd60e51b815260206004820152601160248201527006c656e6774682063616e2774206265203607c1b60448201526064015b60405180910390fd5b60005b8151811015610313576103018282815181106102f4576102f46118f6565b6020026020010151610317565b8061030b8161190c565b9150506102d6565b5050565b61031f610c56565b80516001600160a01b0381166103475760405162461bcd60e51b81526004016102ca90611933565b6020820151516001600160a01b0381166103735760405162461bcd60e51b81526004016102ca90611933565b82516001600160a01b039081166000908152609860209081526040909120855181546001600160a01b03191693169290921782558401518491906103bd90600183019060036113e2565b5060408201516103d3906004830190600361143a565b505050602083810151808201518151865160409384015193516001600160a01b039485168152928416949184169316917fa51ad01e2270c314a7b78f0c60fe66c723f2d06c121d63fcdce776e654878fc1910160405180910390a4505050565b61043b610c56565b610443610cb0565b565b61044d610c56565b826001600160a01b0381166104745760405162461bcd60e51b81526004016102ca90611933565b6001600160a01b038085166000908152609860205260409020548591166104d75760405162461bcd60e51b81526020600482015260176024820152761d1bdad95b8818dbdb999a59c81b5d5cdd08195e1a5cdd604a1b60448201526064016102ca565b6001600160a01b0385166000908152609860205260409020839060040185600281111561050657610506611962565b60038110610516576105166118f6565b602091828204019190066101000a81548160ff02191690831515021790555082151584600281111561054a5761054a611962565b6040516001600160a01b038816907fcf3cad1ec87208efbde5d82a0557484a78d4182c3ad16926a5463bc1f7234b3d90600090a45050505050565b61058d610c56565b6104436000610d02565b61059f610c56565b610443610d54565b6001600160a01b038216600090815260986020526040812081906001018360028111156105d6576105d6611962565b600381106105e6576105e66118f6565b01546001600160a01b0385811660009081526098602052604090209116925060040183600281111561061a5761061a611962565b6003811061062a5761062a6118f6565b602091828204019190069054906101000a900460ff1690509250929050565b6000806106578360016105a7565b90925090506001600160a01b038216158015906106715750805b156106e15760405163725068a560e01b81526001600160a01b03848116600483015283169063725068a5906024016020604051808303816000875af19250505080156106da575060408051601f3d908101601f191682019092526106d791810190611978565b60015b156106e157505b505050565b6106ee610c56565b826001600160a01b0381166107155760405162461bcd60e51b81526004016102ca90611933565b6001600160a01b038085166000908152609860205260409020548591166107785760405162461bcd60e51b81526020600482015260176024820152761d1bdad95b8818dbdb999a59c81b5d5cdd08195e1a5cdd604a1b60448201526064016102ca565b6001600160a01b0384161580156107a05750600083600281111561079e5761079e611962565b145b156107fb5760405162461bcd60e51b815260206004820152602560248201527f63616e277420736574207a65726f206164647265737320746f206d61696e206f6044820152647261636c6560d81b60648201526084016102ca565b6001600160a01b0385166000908152609860205260409020849060010184600281111561082a5761082a611962565b6003811061083a5761083a6118f6565b0180546001600160a01b0319166001600160a01b039290921691909117905582600281111561086b5761086b611962565b846001600160a01b0316866001600160a01b03167fea681d3efb830ef032a9c29a7215b5ceeeb546250d2c463dbf87817aecda1bf160405160405180910390a45050505050565b600054610100900460ff16158080156108d25750600054600160ff909116105b806108ec5750303b1580156108ec575060005460ff166001145b61094f5760405162461bcd60e51b815260206004820152602e60248201527f496e697469616c697a61626c653a20636f6e747261637420697320616c72656160448201526d191e481a5b9a5d1a585b1a5e995960921b60648201526084016102ca565b6000805460ff191660011790558015610972576000805461ff0019166101001790555b6001600160a01b0382166109c85760405162461bcd60e51b815260206004820181905260248201527f696e76616c69756420626f756e642076616c696461746f72206164647265737360448201526064016102ca565b609780546001600160a01b0319166001600160a01b0384161790556109eb610d91565b6109f3610dc0565b8015610313576000805461ff0019169055604051600181527f7f26b83ff96e1f2b6a682f133852f6798a09c465da95921460cefb38474024989060200160405180910390a15050565b610a446114c7565b6001600160a01b038281166000908152609860209081526040918290208251606080820185528254909516815283519485019384905293909291840191600184019060039082845b81546001600160a01b03168152600190910190602001808311610a8c575050509183525050604080516060810191829052602090920191906004840190600390826000855b825461010083900a900460ff161515815260206001928301818104948501949093039092029101808411610ad15790505050505050815250509050919050565b610b19610c56565b6001600160a01b038116610b7e5760405162461bcd60e51b815260206004820152602660248201527f4f776e61626c653a206e6577206f776e657220697320746865207a65726f206160448201526564647265737360d01b60648201526084016102ca565b610b8781610d02565b50565b6000610b9860655460ff1690565b15610be55760405162461bcd60e51b815260206004820152601a60248201527f726573696c69656e74206f7261636c652069732070617573656400000000000060448201526064016102ca565b6000610bf083610def565b905080610c0357610c0083610fc4565b90505b80610c505760405162461bcd60e51b815260206004820152601e60248201527f696e76616c696420726573696c69656e74206f7261636c65207072696365000060448201526064016102ca565b92915050565b6033546001600160a01b031633146104435760405162461bcd60e51b815260206004820181905260248201527f4f776e61626c653a2063616c6c6572206973206e6f7420746865206f776e657260448201526064016102ca565b610cb86112f0565b6065805460ff191690557f5db9ee0a495bf2e6ff9c91a7834c1ba4fdd244a5e8aa4e537bd38aeae4b073aa335b6040516001600160a01b03909116815260200160405180910390a1565b603380546001600160a01b038381166001600160a01b0319831681179093556040519116919082907f8be0079c531659141344cd1fd0a4f28419497f9722a3daafe3b4186f6b6457e090600090a35050565b610d5c611339565b6065805460ff191660011790557f62e78cea01bee320cd4e420270b5ea74000d11b0c9f74754ebdbfc544b05a258610ce53390565b600054610100900460ff16610db85760405162461bcd60e51b81526004016102ca90611991565b61044361137f565b600054610100900460ff16610de75760405162461bcd60e51b81526004016102ca90611991565b6104436113af565b6000808080610dfe85826105a7565b91509150808015610e1757506001600160a01b03821615155b15610fbb5760405163fc57d4df60e01b81526001600160a01b03868116600483015283169063fc57d4df90602401602060405180830381865afa925050508015610e7e575060408051601f3d908101601f19168201909252610e7b91810190611978565b60015b15610fbb57809350600080610e948860016105a7565b91509150808015610ead57506001600160a01b03821615155b15610fb75760405163fc57d4df60e01b81526001600160a01b03898116600483015283169063fc57d4df90602401602060405180830381865afa925050508015610f14575060408051601f3d908101601f19168201909252610f1191810190611978565b60015b15610fb7578015610fb557609754604051634be3819f60e11b81526001600160a01b038b81166004830152602482018a90526044820184905260009216906397c7033e90606401602060405180830381865afa158015610f78573d6000803e3d6000fd5b505050506040513d601f19601f82011682018060405250810190610f9c91906119dc565b905080610fb3575060009998505050505050505050565b505b505b5050505b50909392505050565b600080808080610fd58660026105a7565b91509150808015610fee57506001600160a01b03821615155b156111a15760405163fc57d4df60e01b81526001600160a01b03878116600483015283169063fc57d4df90602401602060405180830381865afa925050508015611055575060408051601f3d908101601f1916820190925261105291810190611978565b60015b156111a15780945060008061106b8960016105a7565b9150915080801561108457506001600160a01b03821615155b156111985760405163fc57d4df60e01b81526001600160a01b038a8116600483015283169063fc57d4df90602401602060405180830381865afa9250505080156110eb575060408051601f3d908101601f191682019092526110e891810190611978565b60015b6110f8576001955061119d565b801561118d57609754604051634be3819f60e11b81526001600160a01b038c81166004830152602482018b90526044820184905260009216906397c7033e90606401602060405180830381865afa158015611157573d6000803e3d6000fd5b505050506040513d601f19601f8201168201806040525081019061117b91906119dc565b90508061118757600197505b50611192565b600196505b5061119d565b600195505b5050505b82156112e6576000806111b58860006105a7565b915091508080156111ce57506001600160a01b03821615155b156112de5760405163fc57d4df60e01b81526001600160a01b03898116600483015283169063fc57d4df90602401602060405180830381865afa925050508015611235575060408051601f3d908101601f1916820190925261123291810190611978565b60015b61124257600095506112e3565b609754604051634be3819f60e11b81526001600160a01b038b81166004830152602482018a90526044820184905260009216906397c7033e90606401602060405180830381865afa15801561129b573d6000803e3d6000fd5b505050506040513d601f19601f820116820180604052508101906112bf91906119dc565b9050806112d6575060009998505050505050505050565b5095506112e3565b600095505b50505b5091949350505050565b60655460ff166104435760405162461bcd60e51b815260206004820152601460248201527314185d5cd8589b194e881b9bdd081c185d5cd95960621b60448201526064016102ca565b60655460ff16156104435760405162461bcd60e51b815260206004820152601060248201526f14185d5cd8589b194e881c185d5cd95960821b60448201526064016102ca565b600054610100900460ff166113a65760405162461bcd60e51b81526004016102ca90611991565b61044333610d02565b600054610100900460ff166113d65760405162461bcd60e51b81526004016102ca90611991565b6065805460ff19169055565b826003810192821561142a579160200282015b8281111561142a57825182546001600160a01b0319166001600160a01b039091161782556020909201916001909101906113f5565b506114369291506114fc565b5090565b60018301918390821561142a5791602002820160005b8382111561148d57835183826101000a81548160ff0219169083151502179055509260200192600101602081600001049283019260010302611450565b80156114ba5782816101000a81549060ff021916905560010160208160000104928301926001030261148d565b50506114369291506114fc565b604051806060016040528060006001600160a01b031681526020016114ea611511565b81526020016114f7611511565b905290565b5b8082111561143657600081556001016114fd565b60405180606001604052806003906020820280368337509192915050565b634e487b7160e01b600052604160045260246000fd5b6040516060810167ffffffffffffffff811182821017156115685761156861152f565b60405290565b604051601f8201601f1916810167ffffffffffffffff811182821017156115975761159761152f565b604052919050565b6001600160a01b0381168114610b8757600080fd5b8015158114610b8757600080fd5b600082601f8301126115d357600080fd5b6115db611545565b8060608401858111156115ed57600080fd5b845b81811015611610578035611602816115b4565b8452602093840193016115ef565b509095945050505050565b600060e0828403121561162d57600080fd5b611635611545565b905081356116428161159f565b81526020603f8301841361165557600080fd5b61165d611545565b80608085018681111561166f57600080fd5b8386015b818110156116935780356116868161159f565b8452928401928401611673565b5081848601526116a387826115c2565b60408601525050505092915050565b600060208083850312156116c557600080fd5b823567ffffffffffffffff808211156116dd57600080fd5b818501915085601f8301126116f157600080fd5b8135818111156117035761170361152f565b611711848260051b0161156e565b818152848101925060e091820284018501918883111561173057600080fd5b938501935b8285101561175657611747898661161b565b84529384019392850192611735565b50979650505050505050565b600060e0828403121561177457600080fd5b61177e838361161b565b9392505050565b80356003811061179457600080fd5b919050565b6000806000606084860312156117ae57600080fd5b83356117b98161159f565b92506117c760208501611785565b915060408401356117d7816115b4565b809150509250925092565b600080604083850312156117f557600080fd5b82356118008161159f565b915061180e60208401611785565b90509250929050565b60006020828403121561182957600080fd5b813561177e8161159f565b60008060006060848603121561184957600080fd5b83356118548161159f565b925060208401356118648161159f565b915061187260408501611785565b90509250925092565b81516001600160a01b03908116825260208084015160e0840192919081850160005b60038110156118bc57825185168252918301919083019060010161189d565b505050604085015191506080840160005b60038110156118ec5783511515825292820192908201906001016118cd565b5050505092915050565b634e487b7160e01b600052603260045260246000fd5b60006001820161192c57634e487b7160e01b600052601160045260246000fd5b5060010190565b60208082526015908201527463616e2774206265207a65726f206164647265737360581b604082015260600190565b634e487b7160e01b600052602160045260246000fd5b60006020828403121561198a57600080fd5b5051919050565b6020808252602b908201527f496e697469616c697a61626c653a20636f6e7472616374206973206e6f74206960408201526a6e697469616c697a696e6760a81b606082015260800190565b6000602082840312156119ee57600080fd5b815161177e816115b456fea26469706673582212200bd0506c453200c10440b4869b37c5b1b99e9a6ae4bfcfc1f0004c71a4c5865564736f6c634300080d0033",
  "devdoc": {
    "kind": "dev",
    "methods": {
      "enableOracle(address,uint8,bool)": {
        "params": {
          "enable": "expected status",
          "role": "oracle role",
          "vToken": "vToken address"
        }
      },
      "getOracle(address,uint8)": {
        "params": {
          "role": "oracle role",
          "vToken": "vtoken address"
        }
      },
      "getTokenConfig(address)": {
        "details": "Get token config by vToken address",
        "params": {
          "vToken": "vtoken address"
        }
      },
      "getUnderlyingPrice(address)": {
        "params": {
          "vToken": "vToken address"
        },
        "returns": {
          "_0": "price USD price in 18 decimals"
        }
      },
      "owner()": {
        "details": "Returns the address of the current owner."
      },
      "paused()": {
        "details": "Returns true if the contract is paused, and false otherwise."
      },
      "renounceOwnership()": {
        "details": "Leaves the contract without owner. It will not be possible to call `onlyOwner` functions anymore. Can only be called by the current owner. NOTE: Renouncing ownership will leave the contract without an owner, thereby removing any functionality that is only available to the owner."
      },
      "setOracle(address,address,uint8)": {
        "params": {
          "oracle": "oracle address",
          "role": "oracle role",
          "vToken": "vToken address"
        }
      },
      "setTokenConfig((address,address[3],bool[3]))": {
        "params": {
          "tokenConfig": "token config struct"
        }
      },
      "setTokenConfigs((address,address[3],bool[3])[])": {
        "params": {
          "tokenConfigs_": "token config array"
        }
      },
      "transferOwnership(address)": {
        "details": "Transfers ownership of the contract to a new account (`newOwner`). Can only be called by the current owner."
      },
      "updatePrice(address)": {
        "params": {
          "vToken": "vToken address"
        }
      }
    },
    "version": 1
  },
  "userdoc": {
    "kind": "user",
    "methods": {
      "enableOracle(address,uint8,bool)": {
        "notice": "Enable/disable oracle for the input vToken, input vToken MUST exist"
      },
      "getOracle(address,uint8)": {
        "notice": "Get oracle & enabling status by vToken address"
      },
      "getUnderlyingPrice(address)": {
        "notice": "Get price of underlying asset of the input vToken, check flow: - check the global pausing status - check price from main oracle against pivot oracle - check price from fallback oracle against pivot oracle or main oracle if fails"
      },
      "pause()": {
        "notice": "Pause protocol"
      },
      "setOracle(address,address,uint8)": {
        "notice": "Set oracle of any type for the input vToken, input vToken MUST exist"
      },
      "setTokenConfig((address,address[3],bool[3]))": {
        "notice": "Set single token configs, vToken MUST HAVE NOT be added before, and main oracle MUST NOT be zero address"
      },
      "setTokenConfigs((address,address[3],bool[3])[])": {
        "notice": "Batch set token configs"
      },
      "unpause()": {
        "notice": "Unpause protocol"
      },
      "updatePrice(address)": {
        "notice": "Currently it calls the updateTwap"
      }
    },
    "version": 1
  },
  "storageLayout": {
    "storage": [
      {
        "astId": 138,
        "contract": "contracts/ResilientOracle.sol:ResilientOracle",
        "label": "_initialized",
        "offset": 0,
        "slot": "0",
        "type": "t_uint8"
      },
      {
        "astId": 141,
        "contract": "contracts/ResilientOracle.sol:ResilientOracle",
        "label": "_initializing",
        "offset": 1,
        "slot": "0",
        "type": "t_bool"
      },
      {
        "astId": 693,
        "contract": "contracts/ResilientOracle.sol:ResilientOracle",
        "label": "__gap",
        "offset": 0,
        "slot": "1",
        "type": "t_array(t_uint256)50_storage"
      },
      {
        "astId": 10,
        "contract": "contracts/ResilientOracle.sol:ResilientOracle",
        "label": "_owner",
        "offset": 0,
        "slot": "51",
        "type": "t_address"
      },
      {
        "astId": 130,
        "contract": "contracts/ResilientOracle.sol:ResilientOracle",
        "label": "__gap",
        "offset": 0,
        "slot": "52",
        "type": "t_array(t_uint256)49_storage"
      },
      {
        "astId": 303,
        "contract": "contracts/ResilientOracle.sol:ResilientOracle",
        "label": "_paused",
        "offset": 0,
        "slot": "101",
        "type": "t_bool"
      },
      {
        "astId": 408,
        "contract": "contracts/ResilientOracle.sol:ResilientOracle",
        "label": "__gap",
        "offset": 0,
        "slot": "102",
        "type": "t_array(t_uint256)49_storage"
      },
      {
        "astId": 3691,
        "contract": "contracts/ResilientOracle.sol:ResilientOracle",
        "label": "boundValidator",
        "offset": 0,
        "slot": "151",
        "type": "t_contract(BoundValidatorInterface)4730"
      },
      {
        "astId": 3714,
        "contract": "contracts/ResilientOracle.sol:ResilientOracle",
        "label": "tokenConfigs",
        "offset": 0,
        "slot": "152",
        "type": "t_mapping(t_address,t_struct(TokenConfig)3709_storage)"
      }
    ],
    "types": {
      "t_address": {
        "encoding": "inplace",
        "label": "address",
        "numberOfBytes": "20"
      },
      "t_array(t_address)3_storage": {
        "base": "t_address",
        "encoding": "inplace",
        "label": "address[3]",
        "numberOfBytes": "96"
      },
      "t_array(t_bool)3_storage": {
        "base": "t_bool",
        "encoding": "inplace",
        "label": "bool[3]",
        "numberOfBytes": "32"
      },
      "t_array(t_uint256)49_storage": {
        "base": "t_uint256",
        "encoding": "inplace",
        "label": "uint256[49]",
        "numberOfBytes": "1568"
      },
      "t_array(t_uint256)50_storage": {
        "base": "t_uint256",
        "encoding": "inplace",
        "label": "uint256[50]",
        "numberOfBytes": "1600"
      },
      "t_bool": {
        "encoding": "inplace",
        "label": "bool",
        "numberOfBytes": "1"
      },
      "t_contract(BoundValidatorInterface)4730": {
        "encoding": "inplace",
        "label": "contract BoundValidatorInterface",
        "numberOfBytes": "20"
      },
      "t_mapping(t_address,t_struct(TokenConfig)3709_storage)": {
        "encoding": "mapping",
        "key": "t_address",
        "label": "mapping(address => struct ResilientOracle.TokenConfig)",
        "numberOfBytes": "32",
        "value": "t_struct(TokenConfig)3709_storage"
      },
      "t_struct(TokenConfig)3709_storage": {
        "encoding": "inplace",
        "label": "struct ResilientOracle.TokenConfig",
        "members": [
          {
            "astId": 3698,
            "contract": "contracts/ResilientOracle.sol:ResilientOracle",
            "label": "vToken",
            "offset": 0,
            "slot": "0",
            "type": "t_address"
          },
          {
            "astId": 3703,
            "contract": "contracts/ResilientOracle.sol:ResilientOracle",
            "label": "oracles",
            "offset": 0,
            "slot": "1",
            "type": "t_array(t_address)3_storage"
          },
          {
            "astId": 3708,
            "contract": "contracts/ResilientOracle.sol:ResilientOracle",
            "label": "enableFlagsForOracles",
            "offset": 0,
            "slot": "4",
            "type": "t_array(t_bool)3_storage"
          }
        ],
        "numberOfBytes": "160"
      },
      "t_uint256": {
        "encoding": "inplace",
        "label": "uint256",
        "numberOfBytes": "32"
      },
      "t_uint8": {
        "encoding": "inplace",
        "label": "uint8",
        "numberOfBytes": "1"
      }
    }
  }
}