{
  "address": "0xD19636f00d10B2B66C1B5D217e57c49428f73067",
  "abi": [
    {
      "anonymous": false,
      "inputs": [
        {
          "indexed": true,
          "internalType": "bool",
          "name": "isEnable",
          "type": "bool"
        }
      ],
      "name": "GlobalEnable",
      "type": "event"
    },
    {
      "anonymous": false,
      "inputs": [
        {
          "indexed": false,
          "internalType": "uint8",
          "name": "version",
          "type": "uint8"
        }
      ],
      "name": "Initialized",
      "type": "event"
    },
    {
      "anonymous": false,
      "inputs": [
        {
          "indexed": true,
          "internalType": "address",
          "name": "vToken",
          "type": "address"
        },
        {
          "indexed": true,
          "internalType": "uint256",
          "name": "role",
          "type": "uint256"
        },
        {
          "indexed": true,
          "internalType": "bool",
          "name": "enable",
          "type": "bool"
        }
      ],
      "name": "OracleEnabled",
      "type": "event"
    },
    {
      "anonymous": false,
      "inputs": [
        {
          "indexed": true,
          "internalType": "address",
          "name": "vToken",
          "type": "address"
        },
        {
          "indexed": true,
          "internalType": "address",
          "name": "oracle",
          "type": "address"
        },
        {
          "indexed": true,
          "internalType": "uint256",
          "name": "role",
          "type": "uint256"
        }
      ],
      "name": "OracleSet",
      "type": "event"
    },
    {
      "anonymous": false,
      "inputs": [
        {
          "indexed": true,
          "internalType": "address",
          "name": "previousOwner",
          "type": "address"
        },
        {
          "indexed": true,
          "internalType": "address",
          "name": "newOwner",
          "type": "address"
        }
      ],
      "name": "OwnershipTransferred",
      "type": "event"
    },
    {
      "anonymous": false,
      "inputs": [
        {
          "indexed": false,
          "internalType": "address",
          "name": "account",
          "type": "address"
        }
      ],
      "name": "Paused",
      "type": "event"
    },
    {
      "anonymous": false,
      "inputs": [
        {
          "indexed": true,
          "internalType": "address",
          "name": "token",
          "type": "address"
        },
        {
          "indexed": true,
          "internalType": "address",
          "name": "mainOracle",
          "type": "address"
        },
        {
          "indexed": true,
          "internalType": "address",
          "name": "pivotOracle",
          "type": "address"
        },
        {
          "indexed": false,
          "internalType": "address",
          "name": "fallbackOracle",
          "type": "address"
        }
      ],
      "name": "TokenConfigAdded",
      "type": "event"
    },
    {
      "anonymous": false,
      "inputs": [
        {
          "indexed": false,
          "internalType": "address",
          "name": "account",
          "type": "address"
        }
      ],
      "name": "Unpaused",
      "type": "event"
    },
    {
      "inputs": [],
      "name": "INVALID_PRICE",
      "outputs": [
        {
          "internalType": "uint256",
          "name": "",
          "type": "uint256"
        }
      ],
      "stateMutability": "view",
      "type": "function"
    },
    {
      "inputs": [
        {
          "internalType": "address",
          "name": "vToken",
          "type": "address"
        },
        {
          "internalType": "enum ResilientOracle.OracleRole",
          "name": "role",
          "type": "uint8"
        },
        {
          "internalType": "bool",
          "name": "enable",
          "type": "bool"
        }
      ],
      "name": "enableOracle",
      "outputs": [],
      "stateMutability": "nonpayable",
      "type": "function"
    },
    {
      "inputs": [
        {
          "internalType": "address",
          "name": "vToken",
          "type": "address"
        },
        {
          "internalType": "enum ResilientOracle.OracleRole",
          "name": "role",
          "type": "uint8"
        }
      ],
      "name": "getOracle",
      "outputs": [
        {
          "internalType": "address",
          "name": "oracle",
          "type": "address"
        },
        {
          "internalType": "bool",
          "name": "enabled",
          "type": "bool"
        }
      ],
      "stateMutability": "view",
      "type": "function"
    },
    {
      "inputs": [
        {
          "internalType": "address",
          "name": "vToken",
          "type": "address"
        }
      ],
      "name": "getTokenConfig",
      "outputs": [
        {
          "components": [
            {
              "internalType": "address",
              "name": "vToken",
              "type": "address"
            },
            {
              "internalType": "address[3]",
              "name": "oracles",
              "type": "address[3]"
            },
            {
              "internalType": "bool[3]",
              "name": "enableFlagsForOracles",
              "type": "bool[3]"
            }
          ],
          "internalType": "struct ResilientOracle.TokenConfig",
          "name": "",
          "type": "tuple"
        }
      ],
      "stateMutability": "view",
      "type": "function"
    },
    {
      "inputs": [
        {
          "internalType": "address",
          "name": "vToken",
          "type": "address"
        }
      ],
      "name": "getUnderlyingPrice",
      "outputs": [
        {
          "internalType": "uint256",
          "name": "",
          "type": "uint256"
        }
      ],
      "stateMutability": "view",
      "type": "function"
    },
    {
      "inputs": [],
      "name": "initialize",
      "outputs": [],
      "stateMutability": "nonpayable",
      "type": "function"
    },
    {
      "inputs": [],
      "name": "owner",
      "outputs": [
        {
          "internalType": "address",
          "name": "",
          "type": "address"
        }
      ],
      "stateMutability": "view",
      "type": "function"
    },
    {
      "inputs": [],
      "name": "pause",
      "outputs": [],
      "stateMutability": "nonpayable",
      "type": "function"
    },
    {
      "inputs": [],
      "name": "paused",
      "outputs": [
        {
          "internalType": "bool",
          "name": "",
          "type": "bool"
        }
      ],
      "stateMutability": "view",
      "type": "function"
    },
    {
      "inputs": [],
      "name": "renounceOwnership",
      "outputs": [],
      "stateMutability": "nonpayable",
      "type": "function"
    },
    {
      "inputs": [
        {
          "internalType": "address",
          "name": "vToken",
          "type": "address"
        },
        {
          "internalType": "address",
          "name": "oracle",
          "type": "address"
        },
        {
          "internalType": "enum ResilientOracle.OracleRole",
          "name": "role",
          "type": "uint8"
        }
      ],
      "name": "setOracle",
      "outputs": [],
      "stateMutability": "nonpayable",
      "type": "function"
    },
    {
      "inputs": [
        {
          "components": [
            {
              "internalType": "address",
              "name": "vToken",
              "type": "address"
            },
            {
              "internalType": "address[3]",
              "name": "oracles",
              "type": "address[3]"
            },
            {
              "internalType": "bool[3]",
              "name": "enableFlagsForOracles",
              "type": "bool[3]"
            }
          ],
          "internalType": "struct ResilientOracle.TokenConfig",
          "name": "tokenConfig",
          "type": "tuple"
        }
      ],
      "name": "setTokenConfig",
      "outputs": [],
      "stateMutability": "nonpayable",
      "type": "function"
    },
    {
      "inputs": [
        {
          "components": [
            {
              "internalType": "address",
              "name": "vToken",
              "type": "address"
            },
            {
              "internalType": "address[3]",
              "name": "oracles",
              "type": "address[3]"
            },
            {
              "internalType": "bool[3]",
              "name": "enableFlagsForOracles",
              "type": "bool[3]"
            }
          ],
          "internalType": "struct ResilientOracle.TokenConfig[]",
          "name": "tokenConfigs_",
          "type": "tuple[]"
        }
      ],
      "name": "setTokenConfigs",
      "outputs": [],
      "stateMutability": "nonpayable",
      "type": "function"
    },
    {
      "inputs": [
        {
          "internalType": "address",
          "name": "newOwner",
          "type": "address"
        }
      ],
      "name": "transferOwnership",
      "outputs": [],
      "stateMutability": "nonpayable",
      "type": "function"
    },
    {
      "inputs": [],
      "name": "unpause",
      "outputs": [],
      "stateMutability": "nonpayable",
      "type": "function"
    },
    {
      "inputs": [
        {
          "internalType": "address",
          "name": "vToken",
          "type": "address"
        }
      ],
      "name": "updatePrice",
      "outputs": [],
      "stateMutability": "nonpayable",
      "type": "function"
    }
  ],
  "transactionHash": "0xd8055593cf3383996fd33106058de2db9cbac82f771706a8a916e251a3036145",
  "args": [],
  "numDeployments": 1,
  "solcInputHash": "a82b7334f3d393c57a5531f727e97e8b",
  "bytecode": "0x608060405234801561001057600080fd5b5061170d806100206000396000f3fe608060405234801561001057600080fd5b50600436106101005760003560e01c80638456cb5911610097578063a6b1344a11610066578063a6b1344a146101f1578063cb67e3b114610204578063f2fde38b14610224578063fc57d4df1461023757600080fd5b80638456cb59146101895780638b855da4146101915780638da5cb5b146101c357806396e85ced146101de57600080fd5b80634bf39cba116100d35780634bf39cba146101485780635c975abb14610163578063715018a6146101795780638129fc1c1461018157600080fd5b80632cfa387114610105578063333a21b01461011a5780633f4ba83a1461012d5780634b932b8f14610135575b600080fd5b6101186101133660046113c8565b61024a565b005b610118610128366004611478565b6102e0565b6101186103fc565b6101186101433660046114aa565b61040e565b610150600081565b6040519081526020015b60405180910390f35b60655460ff16604051901515815260200161015a565b61011861054e565b610118610560565b610118610679565b6101a461019f3660046114f1565b610689565b604080516001600160a01b03909316835290151560208301520161015a565b6033546040516001600160a01b03909116815260200161015a565b6101186101ec366004611524565b61072b565b6101186101ff36600461153f565b6107c8565b610217610212366004611524565b610994565b60405161015a9190611582565b610118610232366004611524565b610a69565b610150610245366004611524565b610adf565b610252610c8e565b805160000361029c5760405162461bcd60e51b815260206004820152601160248201527006c656e6774682063616e2774206265203607c1b60448201526064015b60405180910390fd5b60005b81518110156102dc576102ca8282815181106102bd576102bd6115fd565b60200260200101516102e0565b806102d481611613565b91505061029f565b5050565b6102e8610c8e565b80516001600160a01b0381166103105760405162461bcd60e51b81526004016102939061163a565b6020820151516001600160a01b03811661033c5760405162461bcd60e51b81526004016102939061163a565b82516001600160a01b039081166000908152609760209081526040909120855181546001600160a01b031916931692909217825584015184919061038690600183019060036110d5565b50604082015161039c906004830190600361112d565b505050602083810151808201518151865160409384015193516001600160a01b039485168152928416949184169316917fa51ad01e2270c314a7b78f0c60fe66c723f2d06c121d63fcdce776e654878fc1910160405180910390a4505050565b610404610c8e565b61040c610ce8565b565b610416610c8e565b826001600160a01b03811661043d5760405162461bcd60e51b81526004016102939061163a565b6001600160a01b038085166000908152609760205260409020548591166104a05760405162461bcd60e51b81526020600482015260176024820152761d1bdad95b8818dbdb999a59c81b5d5cdd08195e1a5cdd604a1b6044820152606401610293565b6001600160a01b038516600090815260976020526040902083906004018560028111156104cf576104cf611669565b600381106104df576104df6115fd565b602091828204019190066101000a81548160ff02191690831515021790555082151584600281111561051357610513611669565b6040516001600160a01b038816907fcf3cad1ec87208efbde5d82a0557484a78d4182c3ad16926a5463bc1f7234b3d90600090a45050505050565b610556610c8e565b61040c6000610d3a565b600054610100900460ff16158080156105805750600054600160ff909116105b8061059a5750303b15801561059a575060005460ff166001145b6105fd5760405162461bcd60e51b815260206004820152602e60248201527f496e697469616c697a61626c653a20636f6e747261637420697320616c72656160448201526d191e481a5b9a5d1a585b1a5e995960921b6064820152608401610293565b6000805460ff191660011790558015610620576000805461ff0019166101001790555b610628610d8c565b610630610dbb565b8015610676576000805461ff0019169055604051600181527f7f26b83ff96e1f2b6a682f133852f6798a09c465da95921460cefb38474024989060200160405180910390a15b50565b610681610c8e565b61040c610dea565b6001600160a01b038216600090815260976020526040812081906001018360028111156106b8576106b8611669565b600381106106c8576106c86115fd565b01546001600160a01b038581166000908152609760205260409020911692506004018360028111156106fc576106fc611669565b6003811061070c5761070c6115fd565b602091828204019190069054906101000a900460ff1690509250929050565b600080610739836001610689565b90925090506001600160a01b038216158015906107535750805b156107c35760405163725068a560e01b81526001600160a01b03848116600483015283169063725068a5906024016020604051808303816000875af19250505080156107bc575060408051601f3d908101601f191682019092526107b99181019061167f565b60015b156107c357505b505050565b6107d0610c8e565b826001600160a01b0381166107f75760405162461bcd60e51b81526004016102939061163a565b6001600160a01b0380851660009081526097602052604090205485911661085a5760405162461bcd60e51b81526020600482015260176024820152761d1bdad95b8818dbdb999a59c81b5d5cdd08195e1a5cdd604a1b6044820152606401610293565b6001600160a01b0384161580156108825750600083600281111561088057610880611669565b145b156108dd5760405162461bcd60e51b815260206004820152602560248201527f63616e277420736574207a65726f206164647265737320746f206d61696e206f6044820152647261636c6560d81b6064820152608401610293565b6001600160a01b0385166000908152609760205260409020849060010184600281111561090c5761090c611669565b6003811061091c5761091c6115fd565b0180546001600160a01b0319166001600160a01b039290921691909117905582600281111561094d5761094d611669565b846001600160a01b0316866001600160a01b03167fea681d3efb830ef032a9c29a7215b5ceeeb546250d2c463dbf87817aecda1bf160405160405180910390a45050505050565b61099c6111ba565b6001600160a01b038281166000908152609760209081526040918290208251606080820185528254909516815283519485019384905293909291840191600184019060039082845b81546001600160a01b031681526001909101906020018083116109e4575050509183525050604080516060810191829052602090920191906004840190600390826000855b825461010083900a900460ff161515815260206001928301818104948501949093039092029101808411610a295790505050505050815250509050919050565b610a71610c8e565b6001600160a01b038116610ad65760405162461bcd60e51b815260206004820152602660248201527f4f776e61626c653a206e6577206f776e657220697320746865207a65726f206160448201526564647265737360d01b6064820152608401610293565b61067681610d3a565b600080610aeb83610e27565b9050600080610afb856002610689565b91509150600083148015610b0c5750805b8015610b2057506001600160a01b03821615155b15610c385760405163fc57d4df60e01b81526001600160a01b03868116600483015283169063fc57d4df90602401602060405180830381865afa925050508015610b87575060408051601f3d908101601f19168201909252610b849181019061167f565b60015b610bd35760405162461bcd60e51b815260206004820152601d60248201527f696e76616c69642066616c6c6261636b206f7261636c652070726963650000006044820152606401610293565b80610c2f5760405162461bcd60e51b815260206004820152602660248201527f66616c6c6261636b206f7261636c65207072696365206d75737420626520706f60448201526573697469766560d01b6064820152608401610293565b95945050505050565b82610c855760405162461bcd60e51b815260206004820152601e60248201527f696e76616c696420726573696c69656e74206f7261636c6520707269636500006044820152606401610293565b50909392505050565b6033546001600160a01b0316331461040c5760405162461bcd60e51b815260206004820181905260248201527f4f776e61626c653a2063616c6c6572206973206e6f7420746865206f776e65726044820152606401610293565b610cf0610fe3565b6065805460ff191690557f5db9ee0a495bf2e6ff9c91a7834c1ba4fdd244a5e8aa4e537bd38aeae4b073aa335b6040516001600160a01b03909116815260200160405180910390a1565b603380546001600160a01b038381166001600160a01b0319831681179093556040519116919082907f8be0079c531659141344cd1fd0a4f28419497f9722a3daafe3b4186f6b6457e090600090a35050565b600054610100900460ff16610db35760405162461bcd60e51b815260040161029390611698565b61040c61102c565b600054610100900460ff16610de25760405162461bcd60e51b815260040161029390611698565b61040c61105c565b610df261108f565b6065805460ff191660011790557f62e78cea01bee320cd4e420270b5ea74000d11b0c9f74754ebdbfc544b05a258610d1d3390565b6000610e3560655460ff1690565b15610e825760405162461bcd60e51b815260206004820152601a60248201527f726573696c69656e74206f7261636c65206973207061757365640000000000006044820152606401610293565b600080610e90846000610689565b91509150600081610ea357949350505050565b60405163fc57d4df60e01b81526001600160a01b03868116600483015284169063fc57d4df90602401602060405180830381865afa925050508015610f05575060408051601f3d908101601f19168201909252610f029181019061167f565b60015b610f1157949350505050565b809150600080610f22886001610689565b90925090506001600160a01b0382161580610f3b575080155b15610f4c5750919695505050505050565b60405163fd45a43360e01b81526001600160a01b038981166004830152602482018690526000919084169063fd45a43390604401602060405180830381865afa158015610f9d573d6000803e3d6000fd5b505050506040513d601f19601f82011682018060405250810190610fc191906116e3565b905080610fd75750600098975050505050505050565b50505050949350505050565b60655460ff1661040c5760405162461bcd60e51b815260206004820152601460248201527314185d5cd8589b194e881b9bdd081c185d5cd95960621b6044820152606401610293565b600054610100900460ff166110535760405162461bcd60e51b815260040161029390611698565b61040c33610d3a565b600054610100900460ff166110835760405162461bcd60e51b815260040161029390611698565b6065805460ff19169055565b60655460ff161561040c5760405162461bcd60e51b815260206004820152601060248201526f14185d5cd8589b194e881c185d5cd95960821b6044820152606401610293565b826003810192821561111d579160200282015b8281111561111d57825182546001600160a01b0319166001600160a01b039091161782556020909201916001909101906110e8565b506111299291506111ef565b5090565b60018301918390821561111d5791602002820160005b8382111561118057835183826101000a81548160ff0219169083151502179055509260200192600101602081600001049283019260010302611143565b80156111ad5782816101000a81549060ff0219169055600101602081600001049283019260010302611180565b50506111299291506111ef565b604051806060016040528060006001600160a01b031681526020016111dd611204565b81526020016111ea611204565b905290565b5b8082111561112957600081556001016111f0565b60405180606001604052806003906020820280368337509192915050565b634e487b7160e01b600052604160045260246000fd5b6040516060810167ffffffffffffffff8111828210171561125b5761125b611222565b60405290565b604051601f8201601f1916810167ffffffffffffffff8111828210171561128a5761128a611222565b604052919050565b80356001600160a01b03811681146112a957600080fd5b919050565b801515811461067657600080fd5b600082601f8301126112cd57600080fd5b6112d5611238565b8060608401858111156112e757600080fd5b845b8181101561130a5780356112fc816112ae565b8452602093840193016112e9565b509095945050505050565b600060e0828403121561132757600080fd5b6040516060810181811067ffffffffffffffff8211171561134a5761134a611222565b60405290508061135983611292565b8152602084603f85011261136c57600080fd5b611374611238565b80608086018781111561138657600080fd5b8387015b818110156113a85761139b81611292565b845292840192840161138a565b5081848601526113b888826112bc565b6040860152505050505092915050565b600060208083850312156113db57600080fd5b823567ffffffffffffffff808211156113f357600080fd5b818501915085601f83011261140757600080fd5b81358181111561141957611419611222565b611427848260051b01611261565b818152848101925060e091820284018501918883111561144657600080fd5b938501935b8285101561146c5761145d8986611315565b8452938401939285019261144b565b50979650505050505050565b600060e0828403121561148a57600080fd5b6114948383611315565b9392505050565b8035600381106112a957600080fd5b6000806000606084860312156114bf57600080fd5b6114c884611292565b92506114d66020850161149b565b915060408401356114e6816112ae565b809150509250925092565b6000806040838503121561150457600080fd5b61150d83611292565b915061151b6020840161149b565b90509250929050565b60006020828403121561153657600080fd5b61149482611292565b60008060006060848603121561155457600080fd5b61155d84611292565b925061156b60208501611292565b91506115796040850161149b565b90509250925092565b81516001600160a01b03908116825260208084015160e0840192919081850160005b60038110156115c35782518516825291830191908301906001016115a4565b505050604085015191506080840160005b60038110156115f35783511515825292820192908201906001016115d4565b5050505092915050565b634e487b7160e01b600052603260045260246000fd5b60006001820161163357634e487b7160e01b600052601160045260246000fd5b5060010190565b60208082526015908201527463616e2774206265207a65726f206164647265737360581b604082015260600190565b634e487b7160e01b600052602160045260246000fd5b60006020828403121561169157600080fd5b5051919050565b6020808252602b908201527f496e697469616c697a61626c653a20636f6e7472616374206973206e6f74206960408201526a6e697469616c697a696e6760a81b606082015260800190565b6000602082840312156116f557600080fd5b8151611494816112ae56fea164736f6c634300080d000a",
  "devdoc": {
    "kind": "dev",
    "methods": {
      "enableOracle(address,uint8,bool)": {
        "params": {
          "enable": "expected status",
          "role": "oracle role",
          "vToken": "vToken address"
        }
      },
      "getOracle(address,uint8)": {
        "params": {
          "role": "oracle role",
          "vToken": "vtoken address"
        }
      },
      "getTokenConfig(address)": {
        "details": "Get token config by vToken address ",
        "params": {
          "vToken": "vtoken address"
        }
      },
      "getUnderlyingPrice(address)": {
        "params": {
          "vToken": "vToken address"
        },
        "returns": {
          "_0": "price USD price in 18 decimals"
        }
      },
      "owner()": {
        "details": "Returns the address of the current owner."
      },
      "paused()": {
        "details": "Returns true if the contract is paused, and false otherwise."
      },
      "renounceOwnership()": {
        "details": "Leaves the contract without owner. It will not be possible to call `onlyOwner` functions anymore. Can only be called by the current owner. NOTE: Renouncing ownership will leave the contract without an owner, thereby removing any functionality that is only available to the owner."
      },
      "setOracle(address,address,uint8)": {
        "params": {
          "oracle": "oracle address",
          "role": "oracle role",
          "vToken": "vToken address"
        }
      },
      "setTokenConfig((address,address[3],bool[3]))": {
        "params": {
          "tokenConfig": "token config struct"
        }
      },
      "setTokenConfigs((address,address[3],bool[3])[])": {
        "params": {
          "tokenConfigs_": "token config array"
        }
      },
      "transferOwnership(address)": {
        "details": "Transfers ownership of the contract to a new account (`newOwner`). Can only be called by the current owner."
      },
      "updatePrice(address)": {
        "params": {
          "vToken": "vToken address"
        }
      }
    },
    "version": 1
  },
  "userdoc": {
    "kind": "user",
    "methods": {
      "enableOracle(address,uint8,bool)": {
        "notice": "Enable/disable oracle for the input vToken, input vToken MUST exist"
      },
      "getOracle(address,uint8)": {
        "notice": "Get oracle & enabling status by vToken address "
      },
      "getUnderlyingPrice(address)": {
        "notice": "Get price of underlying asset of the input vToken, check flow: - check the global pausing status - check price from main oracle - check price against pivot oracle, if any - if fallback flag is enabled and price is invalidated, fallback"
      },
      "pause()": {
        "notice": "Pause protocol"
      },
      "setOracle(address,address,uint8)": {
        "notice": "Set oracle of any type for the input vToken, input vToken MUST exist"
      },
      "setTokenConfig((address,address[3],bool[3]))": {
        "notice": "Set single token configs, vToken MUST HAVE NOT be added before, and main oracle MUST NOT be zero address"
      },
      "setTokenConfigs((address,address[3],bool[3])[])": {
        "notice": "Batch set token configs"
      },
      "unpause()": {
        "notice": "Unpause protocol"
      },
      "updatePrice(address)": {
        "notice": "Currently it calls the updateTwap"
      }
    },
    "version": 1
  },
  "storageLayout": {
    "storage": [
      {
        "astId": 138,
        "contract": "contracts/ResilientOracle.sol:ResilientOracle",
        "label": "_initialized",
        "offset": 0,
        "slot": "0",
        "type": "t_uint8"
      },
      {
        "astId": 141,
        "contract": "contracts/ResilientOracle.sol:ResilientOracle",
        "label": "_initializing",
        "offset": 1,
        "slot": "0",
        "type": "t_bool"
      },
      {
        "astId": 693,
        "contract": "contracts/ResilientOracle.sol:ResilientOracle",
        "label": "__gap",
        "offset": 0,
        "slot": "1",
        "type": "t_array(t_uint256)50_storage"
      },
      {
        "astId": 10,
        "contract": "contracts/ResilientOracle.sol:ResilientOracle",
        "label": "_owner",
        "offset": 0,
        "slot": "51",
        "type": "t_address"
      },
      {
        "astId": 130,
        "contract": "contracts/ResilientOracle.sol:ResilientOracle",
        "label": "__gap",
        "offset": 0,
        "slot": "52",
        "type": "t_array(t_uint256)49_storage"
      },
      {
        "astId": 303,
        "contract": "contracts/ResilientOracle.sol:ResilientOracle",
        "label": "_paused",
        "offset": 0,
        "slot": "101",
        "type": "t_bool"
      },
      {
        "astId": 408,
        "contract": "contracts/ResilientOracle.sol:ResilientOracle",
        "label": "__gap",
        "offset": 0,
        "slot": "102",
        "type": "t_array(t_uint256)49_storage"
      },
      {
        "astId": 3711,
        "contract": "contracts/ResilientOracle.sol:ResilientOracle",
        "label": "tokenConfigs",
        "offset": 0,
        "slot": "151",
        "type": "t_mapping(t_address,t_struct(TokenConfig)3706_storage)"
      }
    ],
    "types": {
      "t_address": {
        "encoding": "inplace",
        "label": "address",
        "numberOfBytes": "20"
      },
      "t_array(t_address)3_storage": {
        "base": "t_address",
        "encoding": "inplace",
        "label": "address[3]",
        "numberOfBytes": "96"
      },
      "t_array(t_bool)3_storage": {
        "base": "t_bool",
        "encoding": "inplace",
        "label": "bool[3]",
        "numberOfBytes": "32"
      },
      "t_array(t_uint256)49_storage": {
        "base": "t_uint256",
        "encoding": "inplace",
        "label": "uint256[49]",
        "numberOfBytes": "1568"
      },
      "t_array(t_uint256)50_storage": {
        "base": "t_uint256",
        "encoding": "inplace",
        "label": "uint256[50]",
        "numberOfBytes": "1600"
      },
      "t_bool": {
        "encoding": "inplace",
        "label": "bool",
        "numberOfBytes": "1"
      },
      "t_mapping(t_address,t_struct(TokenConfig)3706_storage)": {
        "encoding": "mapping",
        "key": "t_address",
        "label": "mapping(address => struct ResilientOracle.TokenConfig)",
        "numberOfBytes": "32",
        "value": "t_struct(TokenConfig)3706_storage"
      },
      "t_struct(TokenConfig)3706_storage": {
        "encoding": "inplace",
        "label": "struct ResilientOracle.TokenConfig",
        "members": [
          {
            "astId": 3695,
            "contract": "contracts/ResilientOracle.sol:ResilientOracle",
            "label": "vToken",
            "offset": 0,
            "slot": "0",
            "type": "t_address"
          },
          {
            "astId": 3700,
            "contract": "contracts/ResilientOracle.sol:ResilientOracle",
            "label": "oracles",
            "offset": 0,
            "slot": "1",
            "type": "t_array(t_address)3_storage"
          },
          {
            "astId": 3705,
            "contract": "contracts/ResilientOracle.sol:ResilientOracle",
            "label": "enableFlagsForOracles",
            "offset": 0,
            "slot": "4",
            "type": "t_array(t_bool)3_storage"
          }
        ],
        "numberOfBytes": "160"
      },
      "t_uint256": {
        "encoding": "inplace",
        "label": "uint256",
        "numberOfBytes": "32"
      },
      "t_uint8": {
        "encoding": "inplace",
        "label": "uint8",
        "numberOfBytes": "1"
      }
    }
  }
}