{
  "address": "0xB528d1fC07684bb027772073C388E2935e614E00",
  "abi": [
    {
      "inputs": [
        {
          "internalType": "address",
          "name": "stakeManager",
          "type": "address"
        },
        {
          "internalType": "address",
          "name": "_slisBNB",
          "type": "address"
        },
        {
          "internalType": "address",
          "name": "resilientOracleAddress",
          "type": "address"
        }
      ],
      "stateMutability": "nonpayable",
      "type": "constructor"
    },
    {
      "inputs": [],
      "name": "ZeroAddressNotAllowed",
      "type": "error"
    },
    {
      "inputs": [],
      "name": "NATIVE_TOKEN_ADDR",
      "outputs": [
        {
          "internalType": "address",
          "name": "",
          "type": "address"
        }
      ],
      "stateMutability": "view",
      "type": "function"
    },
    {
      "inputs": [],
      "name": "RESILIENT_ORACLE",
      "outputs": [
        {
          "internalType": "contract OracleInterface",
          "name": "",
          "type": "address"
        }
      ],
      "stateMutability": "view",
      "type": "function"
    },
    {
      "inputs": [],
      "name": "STAKE_MANAGER",
      "outputs": [
        {
          "internalType": "contract ISynclubStakeManager",
          "name": "",
          "type": "address"
        }
      ],
      "stateMutability": "view",
      "type": "function"
    },
    {
      "inputs": [
        {
          "internalType": "address",
          "name": "asset",
          "type": "address"
        }
      ],
      "name": "getPrice",
      "outputs": [
        {
          "internalType": "uint256",
          "name": "",
          "type": "uint256"
        }
      ],
      "stateMutability": "view",
      "type": "function"
    },
    {
      "inputs": [],
      "name": "slisBNB",
      "outputs": [
        {
          "internalType": "address",
          "name": "",
          "type": "address"
        }
      ],
      "stateMutability": "view",
      "type": "function"
    }
  ],
  "transactionHash": "0x97d3a6401273b03bbf1c5a9c9eff2ecaf0a5779457932b9deceb3023144d513a",
  "args": [
    "0xbF0Db0d1340fdd5DF245613E280856aEAFbF54d1",
    "0xd2aF6A916Bc77764dc63742BC30f71AF4cF423F4",
    "0x3cD69251D04A28d887Ac14cbe2E14c52F3D57823"
  ],
  "numDeployments": 1,
  "solcInputHash": "db924d66df71fb6ae2ea4f32b71c36a5",
  "bytecode": "0x60e060405234801561001057600080fd5b5060405161050438038061050483398101604081905261002f916100ad565b61003883610067565b61004182610067565b61004a81610067565b6001600160a01b0392831660805290821660a0521660c0526100f0565b6001600160a01b03811661008e576040516342bcdf7f60e11b815260040160405180910390fd5b50565b80516001600160a01b03811681146100a857600080fd5b919050565b6000806000606084860312156100c257600080fd5b6100cb84610091565b92506100d960208501610091565b91506100e760408501610091565b90509250925092565b60805160a05160c0516103d36101316000396000818160ed01526102730152600081816061015261012e01526000818160c601526101c901526103d36000f3fe608060405234801561001057600080fd5b50600436106100575760003560e01c80631fc2e0251461005c57806341976e09146100a05780637353847a146100c1578063a4edcd4c146100e8578063a9534f8a1461010f575b600080fd5b6100837f000000000000000000000000000000000000000000000000000000000000000081565b6040516001600160a01b0390911681526020015b60405180910390f35b6100b36100ae366004610305565b61012a565b604051908152602001610097565b6100837f000000000000000000000000000000000000000000000000000000000000000081565b6100837f000000000000000000000000000000000000000000000000000000000000000081565b61008373bbbbbbbbbbbbbbbbbbbbbbbbbbbbbbbbbbbbbbbb81565b60007f00000000000000000000000000000000000000000000000000000000000000006001600160a01b0316826001600160a01b0316146101a95760405162461bcd60e51b815260206004820152601560248201527477726f6e6720736c6973424e42206164647265737360581b604482015260640160405180910390fd5b60405163ce6298e160e01b8152670de0b6b3a764000060048201526000907f00000000000000000000000000000000000000000000000000000000000000006001600160a01b03169063ce6298e190602401602060405180830381865afa158015610218573d6000803e3d6000fd5b505050506040513d601f19601f8201168201806040525081019061023c9190610335565b6040516341976e0960e01b815273bbbbbbbbbbbbbbbbbbbbbbbbbbbbbbbbbbbbbbbb60048201529091506000906001600160a01b037f000000000000000000000000000000000000000000000000000000000000000016906341976e0990602401602060405180830381865afa1580156102ba573d6000803e3d6000fd5b505050506040513d601f19601f820116820180604052508101906102de9190610335565b9050670de0b6b3a76400006102f3828461034e565b6102fd919061037b565b949350505050565b60006020828403121561031757600080fd5b81356001600160a01b038116811461032e57600080fd5b9392505050565b60006020828403121561034757600080fd5b5051919050565b600081600019048311821515161561037657634e487b7160e01b600052601160045260246000fd5b500290565b60008261039857634e487b7160e01b600052601260045260246000fd5b50049056fea26469706673582212203539babc2729805c4981eacc92f36bcc7b864c238f8102dcae9695e5d9b4ec1a64736f6c634300080d0033",
  "devdoc": {
    "author": "Venus",
    "kind": "dev",
    "methods": {
      "constructor": {
        "custom:oz-upgrades-unsafe-allow": "constructor"
      },
      "getPrice(address)": {
        "params": {
          "asset": "Address of slisBNB"
        },
        "returns": {
          "_0": "price Price in USD scaled by 1e18"
        }
      }
    },
    "stateVariables": {
      "RESILIENT_ORACLE": {
        "custom:oz-upgrades-unsafe-allow": "state-variable-immutable"
      },
      "STAKE_MANAGER": {
        "custom:oz-upgrades-unsafe-allow": "state-variable-immutable"
      },
      "slisBNB": {
        "custom:oz-upgrades-unsafe-allow": "state-variable-immutable"
      }
    },
    "title": "SlisBNBOracle",
    "version": 1
  },
  "userdoc": {
    "errors": {
      "ZeroAddressNotAllowed()": [
        {
          "notice": "Thrown if the supplied address is a zero address where it is not allowed"
        }
      ]
    },
    "kind": "user",
    "methods": {
      "NATIVE_TOKEN_ADDR()": {
        "notice": "Set this as asset address for native token on each chain."
      },
      "RESILIENT_ORACLE()": {
        "notice": "Address of Resilient Oracle"
      },
      "STAKE_MANAGER()": {
        "notice": "Address of StakeManager"
      },
      "constructor": {
        "notice": "Constructor for the implementation contract."
      },
      "getPrice(address)": {
        "notice": "Gets the price of slisBNB asset"
      },
      "slisBNB()": {
        "notice": "Address of slisBNB"
      }
    },
    "notice": "This oracle fetches the price of slisBNB asset",
    "version": 1
  },
  "storageLayout": {
    "storage": [],
    "types": null
  }
}