{
  "address": "0x6ACef03e7f4F0E5a33D75a84B70E8C41497B7049",
  "abi": [
    {
      "inputs": [
        {
          "internalType": "address",
          "name": "stakePool",
          "type": "address"
        },
        {
          "internalType": "address",
          "name": "_stkBNB",
          "type": "address"
        },
        {
          "internalType": "address",
          "name": "resilientOracleAddress",
          "type": "address"
        }
      ],
      "stateMutability": "nonpayable",
      "type": "constructor"
    },
    {
      "inputs": [],
      "name": "ZeroAddressNotAllowed",
      "type": "error"
    },
    {
      "inputs": [],
      "name": "NATIVE_TOKEN_ADDR",
      "outputs": [
        {
          "internalType": "address",
          "name": "",
          "type": "address"
        }
      ],
      "stateMutability": "view",
      "type": "function"
    },
    {
      "inputs": [],
      "name": "RESILIENT_ORACLE",
      "outputs": [
        {
          "internalType": "contract OracleInterface",
          "name": "",
          "type": "address"
        }
      ],
      "stateMutability": "view",
      "type": "function"
    },
    {
      "inputs": [],
      "name": "STAKE_POOL",
      "outputs": [
        {
          "internalType": "contract IPStakePool",
          "name": "",
          "type": "address"
        }
      ],
      "stateMutability": "view",
      "type": "function"
    },
    {
      "inputs": [
        {
          "internalType": "address",
          "name": "asset",
          "type": "address"
        }
      ],
      "name": "getPrice",
      "outputs": [
        {
          "internalType": "uint256",
          "name": "",
          "type": "uint256"
        }
      ],
      "stateMutability": "view",
      "type": "function"
    },
    {
      "inputs": [],
      "name": "stkBNB",
      "outputs": [
        {
          "internalType": "address",
          "name": "",
          "type": "address"
        }
      ],
      "stateMutability": "view",
      "type": "function"
    }
  ],
  "transactionHash": "0xb7f9a8277b25fc19f42e14f1536c3253dc8d69d534779e2b0c7ca0c0bcd9403f",
  "args": [
    "0x7cdfba1ee6a8d1e688b4b34a56b62287ce400802",
    "0x2999C176eBf66ecda3a646E70CeB5FF4d5fCFb8C",
    "0x3cD69251D04A28d887Ac14cbe2E14c52F3D57823"
  ],
  "numDeployments": 1,
  "solcInputHash": "acabed85035d80cca10ced49a07e04ae",
  "bytecode": "0x60e060405234801561001057600080fd5b5060405161057d38038061057d83398101604081905261002f916100ad565b61003883610067565b61004182610067565b61004a81610067565b6001600160a01b0392831660805290821660a0521660c0526100f0565b6001600160a01b03811661008e576040516342bcdf7f60e11b815260040160405180910390fd5b50565b80516001600160a01b03811681146100a857600080fd5b919050565b6000806000606084860312156100c257600080fd5b6100cb84610091565b92506100d960208501610091565b91506100e760408501610091565b90509250925092565b60805160a05160c05161044b6101326000396000818160c6015261028d015260008181610108015261012e015260008181606101526101ac015261044b6000f3fe608060405234801561001057600080fd5b50600436106100575760003560e01c80633a26dc4f1461005c57806341976e09146100a0578063a4edcd4c146100c1578063a9534f8a146100e8578063c6e7ae2514610103575b600080fd5b6100837f000000000000000000000000000000000000000000000000000000000000000081565b6040516001600160a01b0390911681526020015b60405180910390f35b6100b36100ae366004610320565b61012a565b604051908152602001610097565b6100837f000000000000000000000000000000000000000000000000000000000000000081565b61008373bbbbbbbbbbbbbbbbbbbbbbbbbbbbbbbbbbbbbbbb81565b6100837f000000000000000000000000000000000000000000000000000000000000000081565b60007f00000000000000000000000000000000000000000000000000000000000000006001600160a01b0316826001600160a01b0316146101a85760405162461bcd60e51b815260206004820152601460248201527377726f6e672073746b424e42206164647265737360601b604482015260640160405180910390fd5b60007f00000000000000000000000000000000000000000000000000000000000000006001600160a01b0316633ba0b9a96040518163ffffffff1660e01b81526004016040805180830381865afa158015610207573d6000803e3d6000fd5b505050506040513d601f19601f8201168201806040525081019061022b9190610350565b905060008160200151670de0b6b3a7640000836000015161024c91906103ad565b61025691906103da565b6040516341976e0960e01b815273bbbbbbbbbbbbbbbbbbbbbbbbbbbbbbbbbbbbbbbb60048201529091506000906001600160a01b037f000000000000000000000000000000000000000000000000000000000000000016906341976e0990602401602060405180830381865afa1580156102d4573d6000803e3d6000fd5b505050506040513d601f19601f820116820180604052508101906102f891906103fc565b9050670de0b6b3a764000061030d82846103ad565b61031791906103da565b95945050505050565b60006020828403121561033257600080fd5b81356001600160a01b038116811461034957600080fd5b9392505050565b60006040828403121561036257600080fd5b6040516040810181811067ffffffffffffffff8211171561039357634e487b7160e01b600052604160045260246000fd5b604052825181526020928301519281019290925250919050565b60008160001904831182151516156103d557634e487b7160e01b600052601160045260246000fd5b500290565b6000826103f757634e487b7160e01b600052601260045260246000fd5b500490565b60006020828403121561040e57600080fd5b505191905056fea2646970667358221220229c290f97caeb4585447ebcfdec0141467ecd77efb72ee3638a3bfc1ce5cf2b64736f6c634300080d0033",
  "devdoc": {
    "author": "Venus",
    "kind": "dev",
    "methods": {
      "constructor": {
        "custom:oz-upgrades-unsafe-allow": "constructor"
      },
      "getPrice(address)": {
        "params": {
          "asset": "Address of stkBNB"
        },
        "returns": {
          "_0": "price Price in USD scaled by 1e18"
        }
      }
    },
    "stateVariables": {
      "RESILIENT_ORACLE": {
        "custom:oz-upgrades-unsafe-allow": "state-variable-immutable"
      },
      "STAKE_POOL": {
        "custom:oz-upgrades-unsafe-allow": "state-variable-immutable"
      },
      "stkBNB": {
        "custom:oz-upgrades-unsafe-allow": "state-variable-immutable"
      }
    },
    "title": "StkBNBOracle",
    "version": 1
  },
  "userdoc": {
    "errors": {
      "ZeroAddressNotAllowed()": [
        {
          "notice": "Thrown if the supplied address is a zero address where it is not allowed"
        }
      ]
    },
    "kind": "user",
    "methods": {
      "NATIVE_TOKEN_ADDR()": {
        "notice": "Set this as asset address for native token on each chain."
      },
      "RESILIENT_ORACLE()": {
        "notice": "Address of Resilient Oracle"
      },
      "STAKE_POOL()": {
        "notice": "Address of StakePool"
      },
      "constructor": {
        "notice": "Constructor for the implementation contract."
      },
      "getPrice(address)": {
        "notice": "Gets the price of stkBNB asset"
      },
      "stkBNB()": {
        "notice": "Address of stkBNB"
      }
    },
    "notice": "This oracle fetches the price of stkBNB asset",
    "version": 1
  },
  "storageLayout": {
    "storage": [],
    "types": null
  }
}