{
  "address": "0xA65d9c3593B8ca0EF4C475E16Eb93f92Ca81F98B",
  "abi": [
    {
      "inputs": [
        {
          "internalType": "address",
          "name": "vBnbAddress",
          "type": "address"
        },
        {
          "internalType": "address",
          "name": "wBnbAddress",
          "type": "address"
        },
        {
          "internalType": "address",
          "name": "vaiAddress",
          "type": "address"
        }
      ],
      "stateMutability": "nonpayable",
      "type": "constructor"
    },
    {
      "inputs": [
        {
          "internalType": "address",
          "name": "sender",
          "type": "address"
        },
        {
          "internalType": "address",
          "name": "calledContract",
          "type": "address"
        },
        {
          "internalType": "string",
          "name": "methodSignature",
          "type": "string"
        }
      ],
      "name": "Unauthorized",
      "type": "error"
    },
    {
      "anonymous": false,
      "inputs": [
        {
          "indexed": true,
          "internalType": "address",
          "name": "asset",
          "type": "address"
        },
        {
          "indexed": false,
          "internalType": "uint256",
          "name": "price",
          "type": "uint256"
        },
        {
          "indexed": false,
          "internalType": "uint256",
          "name": "oldTimestamp",
          "type": "uint256"
        },
        {
          "indexed": false,
          "internalType": "uint256",
          "name": "newTimestamp",
          "type": "uint256"
        }
      ],
      "name": "AnchorPriceUpdated",
      "type": "event"
    },
    {
      "anonymous": false,
      "inputs": [
        {
          "indexed": false,
          "internalType": "uint8",
          "name": "version",
          "type": "uint8"
        }
      ],
      "name": "Initialized",
      "type": "event"
    },
    {
      "anonymous": false,
      "inputs": [
        {
          "indexed": false,
          "internalType": "address",
          "name": "oldAccessControlManager",
          "type": "address"
        },
        {
          "indexed": false,
          "internalType": "address",
          "name": "newAccessControlManager",
          "type": "address"
        }
      ],
      "name": "NewAccessControlManager",
      "type": "event"
    },
    {
      "anonymous": false,
      "inputs": [
        {
          "indexed": true,
          "internalType": "address",
          "name": "previousOwner",
          "type": "address"
        },
        {
          "indexed": true,
          "internalType": "address",
          "name": "newOwner",
          "type": "address"
        }
      ],
      "name": "OwnershipTransferStarted",
      "type": "event"
    },
    {
      "anonymous": false,
      "inputs": [
        {
          "indexed": true,
          "internalType": "address",
          "name": "previousOwner",
          "type": "address"
        },
        {
          "indexed": true,
          "internalType": "address",
          "name": "newOwner",
          "type": "address"
        }
      ],
      "name": "OwnershipTransferred",
      "type": "event"
    },
    {
      "anonymous": false,
      "inputs": [
        {
          "indexed": true,
          "internalType": "address",
          "name": "asset",
          "type": "address"
        },
        {
          "indexed": true,
          "internalType": "address",
          "name": "pancakePool",
          "type": "address"
        },
        {
          "indexed": true,
          "internalType": "uint256",
          "name": "anchorPeriod",
          "type": "uint256"
        }
      ],
      "name": "TokenConfigAdded",
      "type": "event"
    },
    {
      "anonymous": false,
      "inputs": [
        {
          "indexed": true,
          "internalType": "address",
          "name": "asset",
          "type": "address"
        },
        {
          "indexed": false,
          "internalType": "uint256",
          "name": "oldTimestamp",
          "type": "uint256"
        },
        {
          "indexed": false,
          "internalType": "uint256",
          "name": "oldAcc",
          "type": "uint256"
        },
        {
          "indexed": false,
          "internalType": "uint256",
          "name": "newTimestamp",
          "type": "uint256"
        },
        {
          "indexed": false,
          "internalType": "uint256",
          "name": "newAcc",
          "type": "uint256"
        }
      ],
      "name": "TwapWindowUpdated",
      "type": "event"
    },
    {
      "inputs": [],
      "name": "BNB_BASE_UNIT",
      "outputs": [
        {
          "internalType": "uint256",
          "name": "",
          "type": "uint256"
        }
      ],
      "stateMutability": "view",
      "type": "function"
    },
    {
      "inputs": [],
      "name": "BUSD_BASE_UNIT",
      "outputs": [
        {
          "internalType": "uint256",
          "name": "",
          "type": "uint256"
        }
      ],
      "stateMutability": "view",
      "type": "function"
    },
    {
      "inputs": [],
      "name": "WBNB",
      "outputs": [
        {
          "internalType": "address",
          "name": "",
          "type": "address"
        }
      ],
      "stateMutability": "view",
      "type": "function"
    },
    {
      "inputs": [],
      "name": "acceptOwnership",
      "outputs": [],
      "stateMutability": "nonpayable",
      "type": "function"
    },
    {
      "inputs": [],
      "name": "accessControlManager",
      "outputs": [
        {
          "internalType": "contract IAccessControlManagerV8",
          "name": "",
          "type": "address"
        }
      ],
      "stateMutability": "view",
      "type": "function"
    },
    {
      "inputs": [
        {
          "components": [
            {
              "internalType": "address",
              "name": "asset",
              "type": "address"
            },
            {
              "internalType": "uint256",
              "name": "baseUnit",
              "type": "uint256"
            },
            {
              "internalType": "address",
              "name": "pancakePool",
              "type": "address"
            },
            {
              "internalType": "bool",
              "name": "isBnbBased",
              "type": "bool"
            },
            {
              "internalType": "bool",
              "name": "isReversedPool",
              "type": "bool"
            },
            {
              "internalType": "uint256",
              "name": "anchorPeriod",
              "type": "uint256"
            }
          ],
          "internalType": "struct TwapOracle.TokenConfig",
          "name": "config",
          "type": "tuple"
        }
      ],
      "name": "currentCumulativePrice",
      "outputs": [
        {
          "internalType": "uint256",
          "name": "",
          "type": "uint256"
        }
      ],
      "stateMutability": "view",
      "type": "function"
    },
    {
      "inputs": [
        {
          "internalType": "address",
          "name": "vToken",
          "type": "address"
        }
      ],
      "name": "getUnderlyingPrice",
      "outputs": [
        {
          "internalType": "uint256",
          "name": "",
          "type": "uint256"
        }
      ],
      "stateMutability": "view",
      "type": "function"
    },
    {
      "inputs": [
        {
          "internalType": "address",
          "name": "accessControlManager_",
          "type": "address"
        }
      ],
      "name": "initialize",
      "outputs": [],
      "stateMutability": "nonpayable",
      "type": "function"
    },
    {
      "inputs": [
        {
          "internalType": "address",
          "name": "",
          "type": "address"
        },
        {
          "internalType": "uint256",
          "name": "",
          "type": "uint256"
        }
      ],
      "name": "observations",
      "outputs": [
        {
          "internalType": "uint256",
          "name": "timestamp",
          "type": "uint256"
        },
        {
          "internalType": "uint256",
          "name": "acc",
          "type": "uint256"
        }
      ],
      "stateMutability": "view",
      "type": "function"
    },
    {
      "inputs": [],
      "name": "owner",
      "outputs": [
        {
          "internalType": "address",
          "name": "",
          "type": "address"
        }
      ],
      "stateMutability": "view",
      "type": "function"
    },
    {
      "inputs": [],
      "name": "pendingOwner",
      "outputs": [
        {
          "internalType": "address",
          "name": "",
          "type": "address"
        }
      ],
      "stateMutability": "view",
      "type": "function"
    },
    {
      "inputs": [
        {
          "internalType": "address",
          "name": "",
          "type": "address"
        }
      ],
      "name": "prices",
      "outputs": [
        {
          "internalType": "uint256",
          "name": "",
          "type": "uint256"
        }
      ],
      "stateMutability": "view",
      "type": "function"
    },
    {
      "inputs": [],
      "name": "renounceOwnership",
      "outputs": [],
      "stateMutability": "nonpayable",
      "type": "function"
    },
    {
      "inputs": [
        {
          "internalType": "address",
          "name": "accessControlManager_",
          "type": "address"
        }
      ],
      "name": "setAccessControlManager",
      "outputs": [],
      "stateMutability": "nonpayable",
      "type": "function"
    },
    {
      "inputs": [
        {
          "components": [
            {
              "internalType": "address",
              "name": "asset",
              "type": "address"
            },
            {
              "internalType": "uint256",
              "name": "baseUnit",
              "type": "uint256"
            },
            {
              "internalType": "address",
              "name": "pancakePool",
              "type": "address"
            },
            {
              "internalType": "bool",
              "name": "isBnbBased",
              "type": "bool"
            },
            {
              "internalType": "bool",
              "name": "isReversedPool",
              "type": "bool"
            },
            {
              "internalType": "uint256",
              "name": "anchorPeriod",
              "type": "uint256"
            }
          ],
          "internalType": "struct TwapOracle.TokenConfig",
          "name": "config",
          "type": "tuple"
        }
      ],
      "name": "setTokenConfig",
      "outputs": [],
      "stateMutability": "nonpayable",
      "type": "function"
    },
    {
      "inputs": [
        {
          "components": [
            {
              "internalType": "address",
              "name": "asset",
              "type": "address"
            },
            {
              "internalType": "uint256",
              "name": "baseUnit",
              "type": "uint256"
            },
            {
              "internalType": "address",
              "name": "pancakePool",
              "type": "address"
            },
            {
              "internalType": "bool",
              "name": "isBnbBased",
              "type": "bool"
            },
            {
              "internalType": "bool",
              "name": "isReversedPool",
              "type": "bool"
            },
            {
              "internalType": "uint256",
              "name": "anchorPeriod",
              "type": "uint256"
            }
          ],
          "internalType": "struct TwapOracle.TokenConfig[]",
          "name": "configs",
          "type": "tuple[]"
        }
      ],
      "name": "setTokenConfigs",
      "outputs": [],
      "stateMutability": "nonpayable",
      "type": "function"
    },
    {
      "inputs": [
        {
          "internalType": "address",
          "name": "",
          "type": "address"
        }
      ],
      "name": "tokenConfigs",
      "outputs": [
        {
          "internalType": "address",
          "name": "asset",
          "type": "address"
        },
        {
          "internalType": "uint256",
          "name": "baseUnit",
          "type": "uint256"
        },
        {
          "internalType": "address",
          "name": "pancakePool",
          "type": "address"
        },
        {
          "internalType": "bool",
          "name": "isBnbBased",
          "type": "bool"
        },
        {
          "internalType": "bool",
          "name": "isReversedPool",
          "type": "bool"
        },
        {
          "internalType": "uint256",
          "name": "anchorPeriod",
          "type": "uint256"
        }
      ],
      "stateMutability": "view",
      "type": "function"
    },
    {
      "inputs": [
        {
          "internalType": "address",
          "name": "newOwner",
          "type": "address"
        }
      ],
      "name": "transferOwnership",
      "outputs": [],
      "stateMutability": "nonpayable",
      "type": "function"
    },
    {
      "inputs": [
        {
          "internalType": "address",
          "name": "vToken",
          "type": "address"
        }
      ],
      "name": "updateTwap",
      "outputs": [
        {
          "internalType": "uint256",
          "name": "",
          "type": "uint256"
        }
      ],
      "stateMutability": "nonpayable",
      "type": "function"
    },
    {
      "inputs": [],
      "name": "vBnb",
      "outputs": [
        {
          "internalType": "address",
          "name": "",
          "type": "address"
        }
      ],
      "stateMutability": "view",
      "type": "function"
    },
    {
      "inputs": [],
      "name": "vai",
      "outputs": [
        {
          "internalType": "address",
          "name": "",
          "type": "address"
        }
      ],
      "stateMutability": "view",
      "type": "function"
    },
    {
      "inputs": [
        {
          "internalType": "address",
          "name": "",
          "type": "address"
        }
      ],
      "name": "windowStart",
      "outputs": [
        {
          "internalType": "uint256",
          "name": "",
          "type": "uint256"
        }
      ],
      "stateMutability": "view",
      "type": "function"
    }
  ],
  "transactionHash": "0x402d32b0ce7fd96d402fe76dfd89593d262af764f6eb8117abf10f1db61021a4",
  "args": [
    "0x2E7222e51c0f6e98610A1543Aa3836E092CDe62c",
    "0xae13d989daC2f0dEbFf460aC112a837C89BAa7cd",
    "0x5fFbE5302BadED40941A403228E6AD03f93752d9"
  ],
  "numDeployments": 1,
  "solcInputHash": "131f58942628e21632de19506977a910",
  "bytecode": "0x60e06040523480156200001157600080fd5b506040516200223c3803806200223c83398101604081905262000034916200021b565b826001600160a01b038116620000805760405162461bcd60e51b815260206004820152601560248201526000805160206200221c83398151915260448201526064015b60405180910390fd5b826001600160a01b038116620000c85760405162461bcd60e51b815260206004820152601560248201526000805160206200221c833981519152604482015260640162000077565b826001600160a01b038116620001105760405162461bcd60e51b815260206004820152601560248201526000805160206200221c833981519152604482015260640162000077565b6001600160a01b0380871660a052858116608052841660c052620001336200013f565b50505050505062000265565b600054610100900460ff1615620001a95760405162461bcd60e51b815260206004820152602760248201527f496e697469616c697a61626c653a20636f6e747261637420697320696e697469604482015266616c697a696e6760c81b606482015260840162000077565b60005460ff9081161015620001fc576000805460ff191660ff9081179091556040519081527f7f26b83ff96e1f2b6a682f133852f6798a09c465da95921460cefb38474024989060200160405180910390a15b565b80516001600160a01b03811681146200021657600080fd5b919050565b6000806000606084860312156200023157600080fd5b6200023c84620001fe565b92506200024c60208501620001fe565b91506200025c60408501620001fe565b90509250925092565b60805160a05160c051611f4f620002cd6000396000818161033601528181611112015261114c01526000818161028b01526110b20152600081816102fe01528181610558015281816105c901528181610641015281816110ec01526113050152611f4f6000f3fe608060405234801561001057600080fd5b50600436106101425760003560e01c80638da5cb5b116100b8578063cbf679191161007c578063cbf679191461036b578063cfed246b1461037e578063e24343ff14610257578063e30c39781461039e578063f2fde38b146103af578063fc57d4df146103c257600080fd5b80638da5cb5b146102e85780638dd95002146102f9578063b4a0bdf314610320578063b62e4c9214610331578063c4d66de81461035857600080fd5b80633125d3c81161010a5780633125d3c8146102575780633334ecc5146102665780635ba3792d14610286578063715018a6146102c5578063725068a5146102cd57806379ba5097146102e057600080fd5b806302459966146101475780630e32cb86146101745780631b69dc5f14610189578063234a3446146102235780632b9d9dea14610236575b600080fd5b61015a610155366004611969565b6103d5565b604080519283526020830191909152015b60405180910390f35b610187610182366004611995565b610411565b005b6101e1610197366004611995565b60c96020526000908152604090208054600182015460028301546003909301546001600160a01b0392831693919282169160ff600160a01b8204811692600160a81b909204169086565b604080516001600160a01b03978816815260208101969096529390951692840192909252151560608301521515608082015260a081019190915260c00161016b565b610187610231366004611aa3565b610425565b610249610244366004611b53565b6104ab565b60405190815260200161016b565b610249670de0b6b3a764000081565b610249610274366004611995565b60cc6020526000908152604090205481565b6102ad7f000000000000000000000000000000000000000000000000000000000000000081565b6040516001600160a01b03909116815260200161016b565b6101876104da565b6102496102db366004611995565b6104ee565b610187610758565b6033546001600160a01b03166102ad565b6102ad7f000000000000000000000000000000000000000000000000000000000000000081565b6097546001600160a01b03166102ad565b6102ad7f000000000000000000000000000000000000000000000000000000000000000081565b610187610366366004611995565b6107cf565b610187610379366004611b53565b6108e3565b61024961038c366004611995565b60ca6020526000908152604090205481565b6065546001600160a01b03166102ad565b6101876103bd366004611995565b610c09565b6102496103d0366004611995565b610c7a565b60cb60205281600052604060002081815481106103f157600080fd5b600091825260209091206002909102018054600190910154909250905082565b610419610dd5565b61042281610e2f565b50565b805160000361046f5760405162461bcd60e51b815260206004820152601160248201527006c656e6774682063616e2774206265203607c1b60448201526064015b60405180910390fd5b805160005b818110156104a65761049e83828151811061049157610491611b6f565b60200260200101516108e3565b600101610474565b505050565b60008060006104bd8460400151610eed565b50915091508360800151156104d3579392505050565b5092915050565b6104e2610dd5565b6104ec6000611095565b565b6000806104fa836110ae565b6001600160a01b03808216600090815260c96020526040902054919250166105565760405162461bcd60e51b815260206004820152600f60248201526e185cdcd95d081b9bdd08195e1a5cdd608a1b6044820152606401610466565b7f00000000000000000000000000000000000000000000000000000000000000006001600160a01b0316816001600160a01b0316141580156105ba57506001600160a01b038116600090815260c96020526040902060020154600160a01b900460ff165b156106d5576001600160a01b037f00000000000000000000000000000000000000000000000000000000000000008116600090815260c96020526040902054166106375760405162461bcd60e51b815260206004820152600e60248201526d15d09390881b9bdd08195e1a5cdd60921b6044820152606401610466565b6001600160a01b037f00000000000000000000000000000000000000000000000000000000000000008116600090815260c96020908152604091829020825160c08101845281548516815260018201549281019290925260028101549384169282019290925260ff600160a01b8404811615156060830152600160a81b909304909216151560808301526003015460a08201526106d3906111da565b505b6001600160a01b03808216600090815260c96020908152604091829020825160c08101845281548516815260018201549281019290925260028101549384169282019290925260ff600160a01b8404811615156060830152600160a81b909304909216151560808301526003015460a0820152610751906111da565b9392505050565b60655433906001600160a01b031681146107c65760405162461bcd60e51b815260206004820152602960248201527f4f776e61626c6532537465703a2063616c6c6572206973206e6f7420746865206044820152683732bb9037bbb732b960b91b6064820152608401610466565b61042281611095565b600054610100900460ff16158080156107ef5750600054600160ff909116105b806108095750303b158015610809575060005460ff166001145b61086c5760405162461bcd60e51b815260206004820152602e60248201527f496e697469616c697a61626c653a20636f6e747261637420697320616c72656160448201526d191e481a5b9a5d1a585b1a5e995960921b6064820152608401610466565b6000805460ff19166001179055801561088f576000805461ff0019166101001790555b6108988261145b565b80156108df576000805461ff0019169055604051600181527f7f26b83ff96e1f2b6a682f133852f6798a09c465da95921460cefb3847402498906020015b60405180910390a15b5050565b80516001600160a01b0381166109335760405162461bcd60e51b815260206004820152601560248201527463616e2774206265207a65726f206164647265737360581b6044820152606401610466565b60408201516001600160a01b0381166109865760405162461bcd60e51b815260206004820152601560248201527463616e2774206265207a65726f206164647265737360581b6044820152606401610466565b6109c46040518060400160405280601b81526020017f736574546f6b656e436f6e66696728546f6b656e436f6e666967290000000000815250611493565b8260a00151600003610a185760405162461bcd60e51b815260206004820152601e60248201527f616e63686f7220706572696f64206d75737420626520706f73697469766500006044820152606401610466565b82600001516001600160a01b031663313ce5676040518163ffffffff1660e01b8152600401602060405180830381865afa158015610a5a573d6000803e3d6000fd5b505050506040513d601f19601f82011682018060405250810190610a7e9190611b85565b610a8990600a611ca2565b836020015114610af55760405162461bcd60e51b815260206004820152603160248201527f6261736520756e697420646563696d616c73206d7573742062652073616d6520604482015270617320617373657420646563696d616c7360781b6064820152608401610466565b6000610b00846104ab565b84516001600160a01b03908116600090815260cb6020908152604080832081518083018352428152808401878152825460018181018555938752858720925160029182029093019283559051918301919091558a518616855260c984528285208b5181549088166001600160a01b031990911681178255948c015192810192909255828b0151908201805460608d015160808e01511515600160a81b0260ff60a81b19911515600160a01b026001600160a81b03199093169490991693841791909117169690961790955560a08a0151600390910181905590519495509390917f3cc8d9cb9370a23a8b9ffa75efa24cecb65c4693980e58260841adc474983c5f91a450505050565b610c11610dd5565b606580546001600160a01b0383166001600160a01b03199091168117909155610c426033546001600160a01b031690565b6001600160a01b03167f38d16b8cac22d99fc7c124b9cd0de2d3fa1faef420bfe791d8c362d765e2270060405160405180910390a350565b600080610c86836110ae565b6001600160a01b03808216600090815260c9602052604090205491925016610ce25760405162461bcd60e51b815260206004820152600f60248201526e185cdcd95d081b9bdd08195e1a5cdd608a1b6044820152606401610466565b6001600160a01b038116600090815260ca602052604081205490819003610d4b5760405162461bcd60e51b815260206004820152601b60248201527f54574150207072696365206d75737420626520706f73697469766500000000006044820152606401610466565b816001600160a01b031663313ce5676040518163ffffffff1660e01b8152600401602060405180830381865afa158015610d89573d6000803e3d6000fd5b505050506040513d601f19601f82011682018060405250810190610dad9190611b85565b610db8906012611cb1565b610dc390600a611ca2565b610dcd9082611cd4565b949350505050565b6033546001600160a01b031633146104ec5760405162461bcd60e51b815260206004820181905260248201527f4f776e61626c653a2063616c6c6572206973206e6f7420746865206f776e65726044820152606401610466565b6001600160a01b038116610e935760405162461bcd60e51b815260206004820152602560248201527f696e76616c696420616365737320636f6e74726f6c206d616e61676572206164604482015264647265737360d81b6064820152608401610466565b609780546001600160a01b038381166001600160a01b031983168117909355604080519190921680825260208201939093527f66fd58e82f7b31a2a5c30e0888f3093efe4e111b00cd2b0c31fe014601293aa091016108d6565b6000806000610efa61152d565b9050836001600160a01b0316635909c0d56040518163ffffffff1660e01b8152600401602060405180830381865afa158015610f3a573d6000803e3d6000fd5b505050506040513d601f19601f82011682018060405250810190610f5e9190611cf3565b9250836001600160a01b0316635a3d54936040518163ffffffff1660e01b8152600401602060405180830381865afa158015610f9e573d6000803e3d6000fd5b505050506040513d601f19601f82011682018060405250810190610fc29190611cf3565b91506000806000866001600160a01b0316630902f1ac6040518163ffffffff1660e01b8152600401606060405180830381865afa158015611007573d6000803e3d6000fd5b505050506040513d601f19601f8201168201806040525081019061102b9190611d23565b9250925092508363ffffffff168163ffffffff161461108b5780840363ffffffff81166110588486611543565b516001600160e01b031602969096019563ffffffff81166110798585611543565b516001600160e01b0316029590950194505b5050509193909250565b606580546001600160a01b0319169055610422816115f5565b60007f00000000000000000000000000000000000000000000000000000000000000006001600160a01b0316826001600160a01b03160361111057507f0000000000000000000000000000000000000000000000000000000000000000919050565b7f00000000000000000000000000000000000000000000000000000000000000006001600160a01b0316826001600160a01b03160361117057507f0000000000000000000000000000000000000000000000000000000000000000919050565b816001600160a01b0316636f307dc36040518163ffffffff1660e01b8152600401602060405180830381865afa1580156111ae573d6000803e3d6000fd5b505050506040513d601f19601f820116820180604052508101906111d29190611d73565b90505b919050565b6000806000806111e985611647565b92509250925080420361121857505091516001600160a01b0316600090815260ca602052604090205492915050565b804210156112685760405162461bcd60e51b815260206004820152601a60248201527f6e6f77206d75737420636f6d65206166746572206265666f72650000000000006044820152606401610466565b60008142039050600060405180602001604052808386886112899190611d90565b6112939190611dbd565b6001600160e01b03169052905060006112ab826118ae565b9050600088606001516112c657670de0b6b3a76400006112d0565b670de0b6b3a76400005b90506000818a60200151846112e59190611cd4565b6112ef9190611dbd565b905089606001511561139c576001600160a01b037f000000000000000000000000000000000000000000000000000000000000000016600090815260ca60205260408120549081900361137b5760405162461bcd60e51b8152602060048201526014602482015273189b98881c1c9a58d9481a5cc81a5b9d985b1a5960621b6044820152606401610466565b670de0b6b3a764000061138e8284611cd4565b6113989190611dbd565b9150505b806000036113e55760405162461bcd60e51b81526020600482015260166024820152750747761702070726963652063616e6e6f7420626520360541b6044820152606401610466565b89516040805183815260208101899052428183015290516001600160a01b03909216917f7d881580fb2bb7844e8ecf8df26510247c4bbea2735d40bf0d9ac33c0d9acd819181900360600190a298516001600160a01b0316600090815260ca602052604090208990555096979650505050505050565b600054610100900460ff166114825760405162461bcd60e51b815260040161046690611dd1565b61148a6118ce565b610422816118fd565b6097546040516318c5e8ab60e01b81526000916001600160a01b0316906318c5e8ab906114c69033908690600401611e69565b602060405180830381865afa1580156114e3573d6000803e3d6000fd5b505050506040513d601f19601f820116820180604052508101906115079190611e8d565b9050806108df57333083604051634a3fa29360e01b815260040161046693929190611eaa565b600061153e64010000000042611edf565b905090565b6040805160208101909152600081526000826001600160701b0316116115ab5760405162461bcd60e51b815260206004820152601760248201527f4669786564506f696e743a204449565f42595f5a45524f0000000000000000006044820152606401610466565b6040805160208101909152806115e16001600160701b0385166dffffffffffffffffffffffffffff60701b607088901b16611ef3565b6001600160e01b0316905290505b92915050565b603380546001600160a01b038381166001600160a01b0319831681179093556040519116919082907f8be0079c531659141344cd1fd0a4f28419497f9722a3daafe3b4186f6b6457e090600090a35050565b600080600080611656856104ab565b60a0860151909150429060009061166d9083611d90565b87516001600160a01b0316600090815260cb6020908152604080832080548251818502810185019093528083529495509293909291849084015b828210156116ed578382906000526020600020906002020160405180604001604052908160008201548152602001600182015481525050815260200190600101906116a7565b505082518b516001600160a01b0316600090815260cc6020526040902054939450929150505b81811015611801578383828151811061172e5761172e611b6f565b602002602001015160000151101580611750575061174d600183611d90565b81145b156117b85782818151811061176757611767611b6f565b602002602001015160200151975082818151811061178757611787611b6f565b602090810291909101810151518b516001600160a01b0316600090815260cc90925260409091208290559650611801565b89516001600160a01b0316600090815260cb602052604090208054829081106117e3576117e3611b6f565b60009182526020822060029091020181815560010155600101611713565b5088516001600160a01b03908116600090815260cb60209081526040808320815180830183528981528084018b81528254600180820185559387529585902091516002909602909101948555519301929092558b5182518a81529182018b90524292820192909252606081018890529116907f87208a84ec7402c933c70c261e53b733a9f1c893d73e941a152435d58177a2649060800160405180910390a2509295505050509193909250565b80516000906111d2906612725dd1d243ab906001600160e01b0316611dbd565b600054610100900460ff166118f55760405162461bcd60e51b815260040161046690611dd1565b6104ec611924565b600054610100900460ff166104195760405162461bcd60e51b815260040161046690611dd1565b600054610100900460ff1661194b5760405162461bcd60e51b815260040161046690611dd1565b6104ec33611095565b6001600160a01b038116811461042257600080fd5b6000806040838503121561197c57600080fd5b823561198781611954565b946020939093013593505050565b6000602082840312156119a757600080fd5b813561075181611954565b634e487b7160e01b600052604160045260246000fd5b604051601f8201601f1916810167ffffffffffffffff811182821017156119f1576119f16119b2565b604052919050565b801515811461042257600080fd5b600060c08284031215611a1957600080fd5b60405160c0810181811067ffffffffffffffff82111715611a3c57611a3c6119b2565b6040529050808235611a4d81611954565b8152602083810135908201526040830135611a6781611954565b60408201526060830135611a7a816119f9565b60608201526080830135611a8d816119f9565b608082015260a092830135920191909152919050565b60006020808385031215611ab657600080fd5b823567ffffffffffffffff80821115611ace57600080fd5b818501915085601f830112611ae257600080fd5b813581811115611af457611af46119b2565b611b02848260051b016119c8565b818152848101925060c0918202840185019188831115611b2157600080fd5b938501935b82851015611b4757611b388986611a07565b84529384019392850192611b26565b50979650505050505050565b600060c08284031215611b6557600080fd5b6107518383611a07565b634e487b7160e01b600052603260045260246000fd5b600060208284031215611b9757600080fd5b815160ff8116811461075157600080fd5b634e487b7160e01b600052601160045260246000fd5b600181815b80851115611bf9578160001904821115611bdf57611bdf611ba8565b80851615611bec57918102915b93841c9390800290611bc3565b509250929050565b600082611c10575060016115ef565b81611c1d575060006115ef565b8160018114611c335760028114611c3d57611c59565b60019150506115ef565b60ff841115611c4e57611c4e611ba8565b50506001821b6115ef565b5060208310610133831016604e8410600b8410161715611c7c575081810a6115ef565b611c868383611bbe565b8060001904821115611c9a57611c9a611ba8565b029392505050565b600061075160ff841683611c01565b600060ff821660ff841680821015611ccb57611ccb611ba8565b90039392505050565b6000816000190483118215151615611cee57611cee611ba8565b500290565b600060208284031215611d0557600080fd5b5051919050565b80516001600160701b03811681146111d557600080fd5b600080600060608486031215611d3857600080fd5b611d4184611d0c565b9250611d4f60208501611d0c565b9150604084015163ffffffff81168114611d6857600080fd5b809150509250925092565b600060208284031215611d8557600080fd5b815161075181611954565b600082821015611da257611da2611ba8565b500390565b634e487b7160e01b600052601260045260246000fd5b600082611dcc57611dcc611da7565b500490565b6020808252602b908201527f496e697469616c697a61626c653a20636f6e7472616374206973206e6f74206960408201526a6e697469616c697a696e6760a81b606082015260800190565b6000815180845260005b81811015611e4257602081850181015186830182015201611e26565b81811115611e54576000602083870101525b50601f01601f19169290920160200192915050565b6001600160a01b0383168152604060208201819052600090610dcd90830184611e1c565b600060208284031215611e9f57600080fd5b8151610751816119f9565b6001600160a01b03848116825283166020820152606060408201819052600090611ed690830184611e1c565b95945050505050565b600082611eee57611eee611da7565b500690565b60006001600160e01b0383811680611f0d57611f0d611da7565b9216919091049291505056fea2646970667358221220822f4f52e46661c73eda90cf732d8be4a901c69712c3f13bb4702f1bf5d18dd964736f6c634300080d003363616e2774206265207a65726f20616464726573730000000000000000000000",
  "devdoc": {
    "kind": "dev",
    "methods": {
      "acceptOwnership()": {
        "details": "The new owner accepts the ownership transfer."
      },
      "constructor": {
        "custom:oz-upgrades-unsafe-allow": "constructor",
        "params": {
          "vBnbAddress": "The address of the VBNB",
          "vaiAddress": "The address of the WBNB",
          "wBnbAddress": "The address of the WBNB"
        }
      },
      "currentCumulativePrice((address,uint256,address,bool,bool,uint256))": {
        "returns": {
          "_0": "cumulative price of target token regardless of pair order"
        }
      },
      "getUnderlyingPrice(address)": {
        "custom:error": "Missing error is thrown if the token config does not existRange error is thrown if TWAP price is not greater than zero",
        "params": {
          "vToken": "vToken address"
        },
        "returns": {
          "_0": "price Underlying price in USD"
        }
      },
      "initialize(address)": {
        "params": {
          "accessControlManager_": "Address of the access control manager contract"
        }
      },
      "owner()": {
        "details": "Returns the address of the current owner."
      },
      "pendingOwner()": {
        "details": "Returns the address of the pending owner."
      },
      "renounceOwnership()": {
        "details": "Leaves the contract without owner. It will not be possible to call `onlyOwner` functions anymore. Can only be called by the current owner. NOTE: Renouncing ownership will leave the contract without an owner, thereby removing any functionality that is only available to the owner."
      },
      "setAccessControlManager(address)": {
        "custom:access": "Only Governance",
        "custom:event": "Emits NewAccessControlManager event",
        "details": "Admin function to set address of AccessControlManager",
        "params": {
          "accessControlManager_": "The new address of the AccessControlManager"
        }
      },
      "setTokenConfig((address,uint256,address,bool,bool,uint256))": {
        "custom:access": "Only Governance",
        "custom:error": "Range error is thrown if anchor period is not greater than zeroRange error is thrown if base unit is not greater than zeroValue error is thrown if base unit decimals is not the same as asset decimalsNotNullAddress error is thrown if address of asset is nullNotNullAddress error is thrown if PancakeSwap pool address is null",
        "custom:event": "Emits TokenConfigAdded event if new token config are added with asset address, PancakePool address, anchor period address",
        "params": {
          "config": "token config struct"
        }
      },
      "setTokenConfigs((address,uint256,address,bool,bool,uint256)[])": {
        "custom:error": "Zero length error thrown, if length of the config array is 0",
        "params": {
          "configs": "Config array"
        }
      },
      "transferOwnership(address)": {
        "details": "Starts the ownership transfer of the contract to a new account. Replaces the pending transfer if there is one. Can only be called by the current owner."
      },
      "updateTwap(address)": {
        "custom:error": "Missing error is thrown if token config does not exist",
        "returns": {
          "_0": "anchorPrice anchor price of the underlying asset of the vToken"
        }
      }
    },
    "stateVariables": {
      "WBNB": {
        "custom:oz-upgrades-unsafe-allow": "state-variable-immutable"
      },
      "vBnb": {
        "custom:oz-upgrades-unsafe-allow": "state-variable-immutable"
      },
      "vai": {
        "custom:oz-upgrades-unsafe-allow": "state-variable-immutable"
      }
    },
    "version": 1
  },
  "userdoc": {
    "errors": {
      "Unauthorized(address,address,string)": [
        {
          "notice": "Thrown when the action is prohibited by AccessControlManager"
        }
      ]
    },
    "events": {
      "AnchorPriceUpdated(address,uint256,uint256,uint256)": {
        "notice": "Emit this event when TWAP price is updated"
      },
      "NewAccessControlManager(address,address)": {
        "notice": "Emitted when access control manager contract address is changed"
      },
      "TokenConfigAdded(address,address,uint256)": {
        "notice": "Emit this event when new token configs are added"
      },
      "TwapWindowUpdated(address,uint256,uint256,uint256,uint256)": {
        "notice": "Emit this event when TWAP window is updated"
      }
    },
    "kind": "user",
    "methods": {
      "BNB_BASE_UNIT()": {
        "notice": "the base unit of WBNB and BUSD, which are the paired tokens for all assets"
      },
      "WBNB()": {
        "notice": "WBNB address"
      },
      "accessControlManager()": {
        "notice": "Returns the address of the access control manager contract"
      },
      "constructor": {
        "notice": "Constructor for the implementation contract. Sets immutable variables."
      },
      "currentCumulativePrice((address,uint256,address,bool,bool,uint256))": {
        "notice": "Fetches the current token/WBNB and token/BUSD price accumulator from PancakeSwap."
      },
      "getUnderlyingPrice(address)": {
        "notice": "Get the underlying TWAP price for the given vToken"
      },
      "initialize(address)": {
        "notice": "Initializes the owner of the contract"
      },
      "observations(address,uint256)": {
        "notice": "Keeps a record of token observations mapped by address, updated on every updateTwap invocation."
      },
      "prices(address)": {
        "notice": "Stored price by token"
      },
      "setAccessControlManager(address)": {
        "notice": "Sets the address of AccessControlManager"
      },
      "setTokenConfig((address,uint256,address,bool,bool,uint256))": {
        "notice": "Adds a single token config"
      },
      "setTokenConfigs((address,uint256,address,bool,bool,uint256)[])": {
        "notice": "Adds multiple token configs at the same time"
      },
      "tokenConfigs(address)": {
        "notice": "Configs by token"
      },
      "updateTwap(address)": {
        "notice": "Updates the current token/BUSD price from PancakeSwap, with 18 decimals of precision."
      },
      "vBnb()": {
        "notice": "vBNB address"
      },
      "vai()": {
        "notice": "VAI address"
      },
      "windowStart(address)": {
        "notice": "Observation array index which probably falls in current anchor period mapped by asset address"
      }
    },
    "version": 1
  },
  "storageLayout": {
    "storage": [
      {
        "astId": 290,
        "contract": "contracts/oracles/TwapOracle.sol:TwapOracle",
        "label": "_initialized",
        "offset": 0,
        "slot": "0",
        "type": "t_uint8"
      },
      {
        "astId": 293,
        "contract": "contracts/oracles/TwapOracle.sol:TwapOracle",
        "label": "_initializing",
        "offset": 1,
        "slot": "0",
        "type": "t_bool"
      },
      {
        "astId": 904,
        "contract": "contracts/oracles/TwapOracle.sol:TwapOracle",
        "label": "__gap",
        "offset": 0,
        "slot": "1",
        "type": "t_array(t_uint256)50_storage"
      },
      {
        "astId": 162,
        "contract": "contracts/oracles/TwapOracle.sol:TwapOracle",
        "label": "_owner",
        "offset": 0,
        "slot": "51",
        "type": "t_address"
      },
      {
        "astId": 282,
        "contract": "contracts/oracles/TwapOracle.sol:TwapOracle",
        "label": "__gap",
        "offset": 0,
        "slot": "52",
        "type": "t_array(t_uint256)49_storage"
      },
      {
        "astId": 71,
        "contract": "contracts/oracles/TwapOracle.sol:TwapOracle",
        "label": "_pendingOwner",
        "offset": 0,
        "slot": "101",
        "type": "t_address"
      },
      {
        "astId": 150,
        "contract": "contracts/oracles/TwapOracle.sol:TwapOracle",
        "label": "__gap",
        "offset": 0,
        "slot": "102",
        "type": "t_array(t_uint256)49_storage"
      },
      {
        "astId": 2741,
        "contract": "contracts/oracles/TwapOracle.sol:TwapOracle",
        "label": "_accessControlManager",
        "offset": 0,
        "slot": "151",
        "type": "t_contract(IAccessControlManagerV8)2925"
      },
      {
        "astId": 2746,
        "contract": "contracts/oracles/TwapOracle.sol:TwapOracle",
        "label": "__gap",
        "offset": 0,
        "slot": "152",
        "type": "t_array(t_uint256)49_storage"
      },
      {
        "astId": 6159,
        "contract": "contracts/oracles/TwapOracle.sol:TwapOracle",
        "label": "tokenConfigs",
        "offset": 0,
        "slot": "201",
        "type": "t_mapping(t_address,t_struct(TokenConfig)6137_storage)"
      },
      {
        "astId": 6164,
        "contract": "contracts/oracles/TwapOracle.sol:TwapOracle",
        "label": "prices",
        "offset": 0,
        "slot": "202",
        "type": "t_mapping(t_address,t_uint256)"
      },
      {
        "astId": 6171,
        "contract": "contracts/oracles/TwapOracle.sol:TwapOracle",
        "label": "observations",
        "offset": 0,
        "slot": "203",
        "type": "t_mapping(t_address,t_array(t_struct(Observation)6118_storage)dyn_storage)"
      },
      {
        "astId": 6176,
        "contract": "contracts/oracles/TwapOracle.sol:TwapOracle",
        "label": "windowStart",
        "offset": 0,
        "slot": "204",
        "type": "t_mapping(t_address,t_uint256)"
      }
    ],
    "types": {
      "t_address": {
        "encoding": "inplace",
        "label": "address",
        "numberOfBytes": "20"
      },
      "t_array(t_struct(Observation)6118_storage)dyn_storage": {
        "base": "t_struct(Observation)6118_storage",
        "encoding": "dynamic_array",
        "label": "struct TwapOracle.Observation[]",
        "numberOfBytes": "32"
      },
      "t_array(t_uint256)49_storage": {
        "base": "t_uint256",
        "encoding": "inplace",
        "label": "uint256[49]",
        "numberOfBytes": "1568"
      },
      "t_array(t_uint256)50_storage": {
        "base": "t_uint256",
        "encoding": "inplace",
        "label": "uint256[50]",
        "numberOfBytes": "1600"
      },
      "t_bool": {
        "encoding": "inplace",
        "label": "bool",
        "numberOfBytes": "1"
      },
      "t_contract(IAccessControlManagerV8)2925": {
        "encoding": "inplace",
        "label": "contract IAccessControlManagerV8",
        "numberOfBytes": "20"
      },
      "t_mapping(t_address,t_array(t_struct(Observation)6118_storage)dyn_storage)": {
        "encoding": "mapping",
        "key": "t_address",
        "label": "mapping(address => struct TwapOracle.Observation[])",
        "numberOfBytes": "32",
        "value": "t_array(t_struct(Observation)6118_storage)dyn_storage"
      },
      "t_mapping(t_address,t_struct(TokenConfig)6137_storage)": {
        "encoding": "mapping",
        "key": "t_address",
        "label": "mapping(address => struct TwapOracle.TokenConfig)",
        "numberOfBytes": "32",
        "value": "t_struct(TokenConfig)6137_storage"
      },
      "t_mapping(t_address,t_uint256)": {
        "encoding": "mapping",
        "key": "t_address",
        "label": "mapping(address => uint256)",
        "numberOfBytes": "32",
        "value": "t_uint256"
      },
      "t_struct(Observation)6118_storage": {
        "encoding": "inplace",
        "label": "struct TwapOracle.Observation",
        "members": [
          {
            "astId": 6115,
            "contract": "contracts/oracles/TwapOracle.sol:TwapOracle",
            "label": "timestamp",
            "offset": 0,
            "slot": "0",
            "type": "t_uint256"
          },
          {
            "astId": 6117,
            "contract": "contracts/oracles/TwapOracle.sol:TwapOracle",
            "label": "acc",
            "offset": 0,
            "slot": "1",
            "type": "t_uint256"
          }
        ],
        "numberOfBytes": "64"
      },
      "t_struct(TokenConfig)6137_storage": {
        "encoding": "inplace",
        "label": "struct TwapOracle.TokenConfig",
        "members": [
          {
            "astId": 6121,
            "contract": "contracts/oracles/TwapOracle.sol:TwapOracle",
            "label": "asset",
            "offset": 0,
            "slot": "0",
            "type": "t_address"
          },
          {
            "astId": 6124,
            "contract": "contracts/oracles/TwapOracle.sol:TwapOracle",
            "label": "baseUnit",
            "offset": 0,
            "slot": "1",
            "type": "t_uint256"
          },
          {
            "astId": 6127,
            "contract": "contracts/oracles/TwapOracle.sol:TwapOracle",
            "label": "pancakePool",
            "offset": 0,
            "slot": "2",
            "type": "t_address"
          },
          {
            "astId": 6130,
            "contract": "contracts/oracles/TwapOracle.sol:TwapOracle",
            "label": "isBnbBased",
            "offset": 20,
            "slot": "2",
            "type": "t_bool"
          },
          {
            "astId": 6133,
            "contract": "contracts/oracles/TwapOracle.sol:TwapOracle",
            "label": "isReversedPool",
            "offset": 21,
            "slot": "2",
            "type": "t_bool"
          },
          {
            "astId": 6136,
            "contract": "contracts/oracles/TwapOracle.sol:TwapOracle",
            "label": "anchorPeriod",
            "offset": 0,
            "slot": "3",
            "type": "t_uint256"
          }
        ],
        "numberOfBytes": "128"
      },
      "t_uint256": {
        "encoding": "inplace",
        "label": "uint256",
        "numberOfBytes": "32"
      },
      "t_uint8": {
        "encoding": "inplace",
        "label": "uint8",
        "numberOfBytes": "1"
      }
    }
  }
}