{
  "address": "0xFfB1bA4467a927768AB7E665731cD08661d24507",
  "abi": [
    {
      "inputs": [
        {
          "internalType": "address",
          "name": "vBnbAddress",
          "type": "address"
        },
        {
          "internalType": "address",
          "name": "wBnbAddress",
          "type": "address"
        },
        {
          "internalType": "address",
          "name": "vaiAddress",
          "type": "address"
        }
      ],
      "stateMutability": "nonpayable",
      "type": "constructor"
    },
    {
      "inputs": [
        {
          "internalType": "address",
          "name": "sender",
          "type": "address"
        },
        {
          "internalType": "address",
          "name": "calledContract",
          "type": "address"
        },
        {
          "internalType": "string",
          "name": "methodSignature",
          "type": "string"
        }
      ],
      "name": "Unauthorized",
      "type": "error"
    },
    {
      "anonymous": false,
      "inputs": [
        {
          "indexed": true,
          "internalType": "address",
          "name": "asset",
          "type": "address"
        },
        {
          "indexed": false,
          "internalType": "uint256",
          "name": "price",
          "type": "uint256"
        },
        {
          "indexed": false,
          "internalType": "uint256",
          "name": "oldTimestamp",
          "type": "uint256"
        },
        {
          "indexed": false,
          "internalType": "uint256",
          "name": "newTimestamp",
          "type": "uint256"
        }
      ],
      "name": "AnchorPriceUpdated",
      "type": "event"
    },
    {
      "anonymous": false,
      "inputs": [
        {
          "indexed": false,
          "internalType": "uint8",
          "name": "version",
          "type": "uint8"
        }
      ],
      "name": "Initialized",
      "type": "event"
    },
    {
      "anonymous": false,
      "inputs": [
        {
          "indexed": false,
          "internalType": "address",
          "name": "oldAccessControlManager",
          "type": "address"
        },
        {
          "indexed": false,
          "internalType": "address",
          "name": "newAccessControlManager",
          "type": "address"
        }
      ],
      "name": "NewAccessControlManager",
      "type": "event"
    },
    {
      "anonymous": false,
      "inputs": [
        {
          "indexed": true,
          "internalType": "address",
          "name": "previousOwner",
          "type": "address"
        },
        {
          "indexed": true,
          "internalType": "address",
          "name": "newOwner",
          "type": "address"
        }
      ],
      "name": "OwnershipTransferStarted",
      "type": "event"
    },
    {
      "anonymous": false,
      "inputs": [
        {
          "indexed": true,
          "internalType": "address",
          "name": "previousOwner",
          "type": "address"
        },
        {
          "indexed": true,
          "internalType": "address",
          "name": "newOwner",
          "type": "address"
        }
      ],
      "name": "OwnershipTransferred",
      "type": "event"
    },
    {
      "anonymous": false,
      "inputs": [
        {
          "indexed": true,
          "internalType": "address",
          "name": "asset",
          "type": "address"
        },
        {
          "indexed": true,
          "internalType": "address",
          "name": "pancakePool",
          "type": "address"
        },
        {
          "indexed": true,
          "internalType": "uint256",
          "name": "anchorPeriod",
          "type": "uint256"
        }
      ],
      "name": "TokenConfigAdded",
      "type": "event"
    },
    {
      "anonymous": false,
      "inputs": [
        {
          "indexed": true,
          "internalType": "address",
          "name": "asset",
          "type": "address"
        },
        {
          "indexed": false,
          "internalType": "uint256",
          "name": "oldTimestamp",
          "type": "uint256"
        },
        {
          "indexed": false,
          "internalType": "uint256",
          "name": "oldAcc",
          "type": "uint256"
        },
        {
          "indexed": false,
          "internalType": "uint256",
          "name": "newTimestamp",
          "type": "uint256"
        },
        {
          "indexed": false,
          "internalType": "uint256",
          "name": "newAcc",
          "type": "uint256"
        }
      ],
      "name": "TwapWindowUpdated",
      "type": "event"
    },
    {
      "inputs": [],
      "name": "WBNB",
      "outputs": [
        {
          "internalType": "address",
          "name": "",
          "type": "address"
        }
      ],
      "stateMutability": "view",
      "type": "function"
    },
    {
      "inputs": [],
      "name": "acceptOwnership",
      "outputs": [],
      "stateMutability": "nonpayable",
      "type": "function"
    },
    {
      "inputs": [],
      "name": "accessControlManager",
      "outputs": [
        {
          "internalType": "contract IAccessControlManager",
          "name": "",
          "type": "address"
        }
      ],
      "stateMutability": "view",
      "type": "function"
    },
    {
      "inputs": [],
      "name": "bnbBaseUnit",
      "outputs": [
        {
          "internalType": "uint256",
          "name": "",
          "type": "uint256"
        }
      ],
      "stateMutability": "view",
      "type": "function"
    },
    {
      "inputs": [],
      "name": "busdBaseUnit",
      "outputs": [
        {
          "internalType": "uint256",
          "name": "",
          "type": "uint256"
        }
      ],
      "stateMutability": "view",
      "type": "function"
    },
    {
      "inputs": [
        {
          "components": [
            {
              "internalType": "address",
              "name": "asset",
              "type": "address"
            },
            {
              "internalType": "uint256",
              "name": "baseUnit",
              "type": "uint256"
            },
            {
              "internalType": "address",
              "name": "pancakePool",
              "type": "address"
            },
            {
              "internalType": "bool",
              "name": "isBnbBased",
              "type": "bool"
            },
            {
              "internalType": "bool",
              "name": "isReversedPool",
              "type": "bool"
            },
            {
              "internalType": "uint256",
              "name": "anchorPeriod",
              "type": "uint256"
            }
          ],
          "internalType": "struct TokenConfig",
          "name": "config",
          "type": "tuple"
        }
      ],
      "name": "currentCumulativePrice",
      "outputs": [
        {
          "internalType": "uint256",
          "name": "",
          "type": "uint256"
        }
      ],
      "stateMutability": "view",
      "type": "function"
    },
    {
      "inputs": [],
      "name": "expScale",
      "outputs": [
        {
          "internalType": "uint256",
          "name": "",
          "type": "uint256"
        }
      ],
      "stateMutability": "view",
      "type": "function"
    },
    {
      "inputs": [
        {
          "internalType": "address",
          "name": "vToken",
          "type": "address"
        }
      ],
      "name": "getUnderlyingPrice",
      "outputs": [
        {
          "internalType": "uint256",
          "name": "",
          "type": "uint256"
        }
      ],
      "stateMutability": "view",
      "type": "function"
    },
    {
      "inputs": [
        {
          "internalType": "address",
          "name": "accessControlManager_",
          "type": "address"
        }
      ],
      "name": "initialize",
      "outputs": [],
      "stateMutability": "nonpayable",
      "type": "function"
    },
    {
      "inputs": [
        {
          "internalType": "address",
          "name": "",
          "type": "address"
        },
        {
          "internalType": "uint256",
          "name": "",
          "type": "uint256"
        }
      ],
      "name": "observations",
      "outputs": [
        {
          "internalType": "uint256",
          "name": "timestamp",
          "type": "uint256"
        },
        {
          "internalType": "uint256",
          "name": "acc",
          "type": "uint256"
        }
      ],
      "stateMutability": "view",
      "type": "function"
    },
    {
      "inputs": [],
      "name": "owner",
      "outputs": [
        {
          "internalType": "address",
          "name": "",
          "type": "address"
        }
      ],
      "stateMutability": "view",
      "type": "function"
    },
    {
      "inputs": [],
      "name": "pendingOwner",
      "outputs": [
        {
          "internalType": "address",
          "name": "",
          "type": "address"
        }
      ],
      "stateMutability": "view",
      "type": "function"
    },
    {
      "inputs": [
        {
          "internalType": "address",
          "name": "",
          "type": "address"
        }
      ],
      "name": "prices",
      "outputs": [
        {
          "internalType": "uint256",
          "name": "",
          "type": "uint256"
        }
      ],
      "stateMutability": "view",
      "type": "function"
    },
    {
      "inputs": [],
      "name": "renounceOwnership",
      "outputs": [],
      "stateMutability": "nonpayable",
      "type": "function"
    },
    {
      "inputs": [
        {
          "internalType": "address",
          "name": "accessControlManager_",
          "type": "address"
        }
      ],
      "name": "setAccessControlManager",
      "outputs": [],
      "stateMutability": "nonpayable",
      "type": "function"
    },
    {
      "inputs": [
        {
          "components": [
            {
              "internalType": "address",
              "name": "asset",
              "type": "address"
            },
            {
              "internalType": "uint256",
              "name": "baseUnit",
              "type": "uint256"
            },
            {
              "internalType": "address",
              "name": "pancakePool",
              "type": "address"
            },
            {
              "internalType": "bool",
              "name": "isBnbBased",
              "type": "bool"
            },
            {
              "internalType": "bool",
              "name": "isReversedPool",
              "type": "bool"
            },
            {
              "internalType": "uint256",
              "name": "anchorPeriod",
              "type": "uint256"
            }
          ],
          "internalType": "struct TokenConfig",
          "name": "config",
          "type": "tuple"
        }
      ],
      "name": "setTokenConfig",
      "outputs": [],
      "stateMutability": "nonpayable",
      "type": "function"
    },
    {
      "inputs": [
        {
          "components": [
            {
              "internalType": "address",
              "name": "asset",
              "type": "address"
            },
            {
              "internalType": "uint256",
              "name": "baseUnit",
              "type": "uint256"
            },
            {
              "internalType": "address",
              "name": "pancakePool",
              "type": "address"
            },
            {
              "internalType": "bool",
              "name": "isBnbBased",
              "type": "bool"
            },
            {
              "internalType": "bool",
              "name": "isReversedPool",
              "type": "bool"
            },
            {
              "internalType": "uint256",
              "name": "anchorPeriod",
              "type": "uint256"
            }
          ],
          "internalType": "struct TokenConfig[]",
          "name": "configs",
          "type": "tuple[]"
        }
      ],
      "name": "setTokenConfigs",
      "outputs": [],
      "stateMutability": "nonpayable",
      "type": "function"
    },
    {
      "inputs": [
        {
          "internalType": "address",
          "name": "",
          "type": "address"
        }
      ],
      "name": "tokenConfigs",
      "outputs": [
        {
          "internalType": "address",
          "name": "asset",
          "type": "address"
        },
        {
          "internalType": "uint256",
          "name": "baseUnit",
          "type": "uint256"
        },
        {
          "internalType": "address",
          "name": "pancakePool",
          "type": "address"
        },
        {
          "internalType": "bool",
          "name": "isBnbBased",
          "type": "bool"
        },
        {
          "internalType": "bool",
          "name": "isReversedPool",
          "type": "bool"
        },
        {
          "internalType": "uint256",
          "name": "anchorPeriod",
          "type": "uint256"
        }
      ],
      "stateMutability": "view",
      "type": "function"
    },
    {
      "inputs": [
        {
          "internalType": "address",
          "name": "newOwner",
          "type": "address"
        }
      ],
      "name": "transferOwnership",
      "outputs": [],
      "stateMutability": "nonpayable",
      "type": "function"
    },
    {
      "inputs": [
        {
          "internalType": "address",
          "name": "vToken",
          "type": "address"
        }
      ],
      "name": "updateTwap",
      "outputs": [
        {
          "internalType": "uint256",
          "name": "",
          "type": "uint256"
        }
      ],
      "stateMutability": "nonpayable",
      "type": "function"
    },
    {
      "inputs": [],
      "name": "vBnb",
      "outputs": [
        {
          "internalType": "address",
          "name": "",
          "type": "address"
        }
      ],
      "stateMutability": "view",
      "type": "function"
    },
    {
      "inputs": [],
      "name": "vai",
      "outputs": [
        {
          "internalType": "address",
          "name": "",
          "type": "address"
        }
      ],
      "stateMutability": "view",
      "type": "function"
    },
    {
      "inputs": [
        {
          "internalType": "address",
          "name": "",
          "type": "address"
        }
      ],
      "name": "windowStart",
      "outputs": [
        {
          "internalType": "uint256",
          "name": "",
          "type": "uint256"
        }
      ],
      "stateMutability": "view",
      "type": "function"
    }
  ],
  "transactionHash": "0x20428785bd71e14a523b42b3f609d7d9770fc3c1e79791377f6b29dcd3565914",
  "args": [
    "0x2E7222e51c0f6e98610A1543Aa3836E092CDe62c",
    "0xae13d989daC2f0dEbFf460aC112a837C89BAa7cd",
    "0x5fFbE5302BadED40941A403228E6AD03f93752d9"
  ],
  "numDeployments": 1,
  "solcInputHash": "30f2cb3e89e183b8669f05bddf9426d9",
  "bytecode": "0x60e06040523480156200001157600080fd5b50604051620022b4380380620022b483398101604081905262000034916200021b565b826001600160a01b038116620000805760405162461bcd60e51b815260206004820152601560248201526000805160206200229483398151915260448201526064015b60405180910390fd5b826001600160a01b038116620000c85760405162461bcd60e51b8152602060048201526015602482015260008051602062002294833981519152604482015260640162000077565b826001600160a01b038116620001105760405162461bcd60e51b8152602060048201526015602482015260008051602062002294833981519152604482015260640162000077565b6001600160a01b0380871660a052858116608052841660c052620001336200013f565b50505050505062000265565b600054610100900460ff1615620001a95760405162461bcd60e51b815260206004820152602760248201527f496e697469616c697a61626c653a20636f6e747261637420697320696e697469604482015266616c697a696e6760c81b606482015260840162000077565b60005460ff9081161015620001fc576000805460ff191660ff9081179091556040519081527f7f26b83ff96e1f2b6a682f133852f6798a09c465da95921460cefb38474024989060200160405180910390a15b565b80516001600160a01b03811681146200021657600080fd5b919050565b6000806000606084860312156200023157600080fd5b6200023c84620001fe565b92506200024c60208501620001fe565b91506200025c60408501620001fe565b90509250925092565b60805160a05160c051611fc7620002cd600039600081816103410152818161125e015261129801526000818161028701526111fe015260008181610309015281816105b1015281816106220152818161069a01528181611238015261142e0152611fc76000f3fe608060405234801561001057600080fd5b506004361061014d5760003560e01c806379ba5097116100c3578063c4d66de81161007c578063c4d66de814610363578063cbf6791914610376578063cfed246b14610389578063e30c3978146103a9578063f2fde38b146103ba578063fc57d4df146103cd57600080fd5b806379ba5097146102eb5780638da5cb5b146102f35780638dd9500214610304578063b4a0bdf31461032b578063b62e4c921461033c578063b8a8a626146102c157600080fd5b80633334ecc5116101155780633334ecc5146102625780635ba3792d14610282578063609f0f36146102c157806369aa3ac6146102c1578063715018a6146102d0578063725068a5146102d857600080fd5b806302459966146101525780630e32cb861461017f5780631b69dc5f14610194578063234a34461461022e5780632b9d9dea14610241575b600080fd5b6101656101603660046119c8565b6103e0565b604080519283526020830191909152015b60405180910390f35b61019261018d3660046119f4565b61041c565b005b6101ec6101a23660046119f4565b60c96020526000908152604090208054600182015460028301546003909301546001600160a01b0392831693919282169160ff600160a01b8204811692600160a81b909204169086565b604080516001600160a01b03978816815260208101969096529390951692840192909252151560608301521515608082015260a081019190915260c001610176565b61019261023c366004611b02565b610430565b61025461024f366004611bb2565b610504565b604051908152602001610176565b6102546102703660046119f4565b60cc6020526000908152604090205481565b6102a97f000000000000000000000000000000000000000000000000000000000000000081565b6040516001600160a01b039091168152602001610176565b610254670de0b6b3a764000081565b610192610533565b6102546102e63660046119f4565b610547565b6101926107b1565b6033546001600160a01b03166102a9565b6102a97f000000000000000000000000000000000000000000000000000000000000000081565b6097546001600160a01b03166102a9565b6102a97f000000000000000000000000000000000000000000000000000000000000000081565b6101926103713660046119f4565b610828565b610192610384366004611bb2565b610944565b6102546103973660046119f4565b60ca6020526000908152604090205481565b6065546001600160a01b03166102a9565b6101926103c83660046119f4565b610cbe565b6102546103db3660046119f4565b610d2f565b60cb60205281600052604060002081815481106103fc57600080fd5b600091825260209091206002909102018054600190910154909250905082565b610424610e87565b61042d81610ee1565b50565b610438610e87565b6104766040518060400160405280601d81526020017f736574546f6b656e436f6e66696773546f6b656e436f6e6669675b5d29000000815250610f9f565b60008151116104c05760405162461bcd60e51b815260206004820152601160248201527006c656e6774682063616e2774206265203607c1b60448201526064015b60405180910390fd5b805160005b818110156104ff576104ef8382815181106104e2576104e2611bce565b6020026020010151610944565b6104f881611bfa565b90506104c5565b505050565b60008060006105168460400151611039565b509150915083608001511561052c579392505050565b5092915050565b61053b610e87565b61054560006111e1565b565b600080610553836111fa565b6001600160a01b03808216600090815260c96020526040902054919250166105af5760405162461bcd60e51b815260206004820152600f60248201526e185cdcd95d081b9bdd08195e1a5cdd608a1b60448201526064016104b7565b7f00000000000000000000000000000000000000000000000000000000000000006001600160a01b0316816001600160a01b03161415801561061357506001600160a01b038116600090815260c96020526040902060020154600160a01b900460ff165b1561072e576001600160a01b037f00000000000000000000000000000000000000000000000000000000000000008116600090815260c96020526040902054166106905760405162461bcd60e51b815260206004820152600e60248201526d15d09390881b9bdd08195e1a5cdd60921b60448201526064016104b7565b6001600160a01b037f00000000000000000000000000000000000000000000000000000000000000008116600090815260c96020908152604091829020825160c08101845281548516815260018201549281019290925260028101549384169282019290925260ff600160a01b8404811615156060830152600160a81b909304909216151560808301526003015460a082015261072c90611326565b505b6001600160a01b03808216600090815260c96020908152604091829020825160c08101845281548516815260018201549281019290925260028101549384169282019290925260ff600160a01b8404811615156060830152600160a81b909304909216151560808301526003015460a08201526107aa90611326565b9392505050565b60655433906001600160a01b0316811461081f5760405162461bcd60e51b815260206004820152602960248201527f4f776e61626c6532537465703a2063616c6c6572206973206e6f7420746865206044820152683732bb9037bbb732b960b91b60648201526084016104b7565b61042d816111e1565b600054610100900460ff16158080156108485750600054600160ff909116105b806108625750303b158015610862575060005460ff166001145b6108c55760405162461bcd60e51b815260206004820152602e60248201527f496e697469616c697a61626c653a20636f6e747261637420697320616c72656160448201526d191e481a5b9a5d1a585b1a5e995960921b60648201526084016104b7565b6000805460ff1916600117905580156108e8576000805461ff0019166101001790555b6108f0611584565b6108f9826115b3565b8015610940576000805461ff0019169055604051600181527f7f26b83ff96e1f2b6a682f133852f6798a09c465da95921460cefb3847402498906020015b60405180910390a15b5050565b80516001600160a01b0381166109945760405162461bcd60e51b815260206004820152601560248201527463616e2774206265207a65726f206164647265737360581b60448201526064016104b7565b60408201516001600160a01b0381166109e75760405162461bcd60e51b815260206004820152601560248201527463616e2774206265207a65726f206164647265737360581b60448201526064016104b7565b610a256040518060400160405280601b81526020017f736574546f6b656e436f6e66696728546f6b656e436f6e666967290000000000815250610f9f565b60008360a0015111610a795760405162461bcd60e51b815260206004820152601e60248201527f616e63686f7220706572696f64206d75737420626520706f736974697665000060448201526064016104b7565b6000836020015111610acd5760405162461bcd60e51b815260206004820152601a60248201527f6261736520756e6974206d75737420626520706f73697469766500000000000060448201526064016104b7565b82600001516001600160a01b031663313ce5676040518163ffffffff1660e01b8152600401602060405180830381865afa158015610b0f573d6000803e3d6000fd5b505050506040513d601f19601f82011682018060405250810190610b339190611c13565b610b3e90600a611d1a565b836020015114610baa5760405162461bcd60e51b815260206004820152603160248201527f6261736520756e697420646563696d616c73206d7573742062652073616d6520604482015270617320617373657420646563696d616c7360781b60648201526084016104b7565b6000610bb584610504565b84516001600160a01b03908116600090815260cb6020908152604080832081518083018352428152808401878152825460018181018555938752858720925160029182029093019283559051918301919091558a518616855260c984528285208b5181549088166001600160a01b031990911681178255948c015192810192909255828b0151908201805460608d015160808e01511515600160a81b0260ff60a81b19911515600160a01b026001600160a81b03199093169490991693841791909117169690961790955560a08a0151600390910181905590519495509390917f3cc8d9cb9370a23a8b9ffa75efa24cecb65c4693980e58260841adc474983c5f91a450505050565b610cc6610e87565b606580546001600160a01b0383166001600160a01b03199091168117909155610cf76033546001600160a01b031690565b6001600160a01b03167f38d16b8cac22d99fc7c124b9cd0de2d3fa1faef420bfe791d8c362d765e2270060405160405180910390a350565b600080610d3b836111fa565b6001600160a01b03808216600090815260c9602052604090205491925016610d975760405162461bcd60e51b815260206004820152600f60248201526e185cdcd95d081b9bdd08195e1a5cdd608a1b60448201526064016104b7565b6001600160a01b038116600090815260ca602052604090205480610dfd5760405162461bcd60e51b815260206004820152601b60248201527f54574150207072696365206d75737420626520706f736974697665000000000060448201526064016104b7565b816001600160a01b031663313ce5676040518163ffffffff1660e01b8152600401602060405180830381865afa158015610e3b573d6000803e3d6000fd5b505050506040513d601f19601f82011682018060405250810190610e5f9190611c13565b610e6a906012611d29565b610e7590600a611d1a565b610e7f9082611d4c565b949350505050565b6033546001600160a01b031633146105455760405162461bcd60e51b815260206004820181905260248201527f4f776e61626c653a2063616c6c6572206973206e6f7420746865206f776e657260448201526064016104b7565b6001600160a01b038116610f455760405162461bcd60e51b815260206004820152602560248201527f696e76616c696420616365737320636f6e74726f6c206d616e61676572206164604482015264647265737360d81b60648201526084016104b7565b609780546001600160a01b038381166001600160a01b031983168117909355604080519190921680825260208201939093527f66fd58e82f7b31a2a5c30e0888f3093efe4e111b00cd2b0c31fe014601293aa09101610937565b6097546040516318c5e8ab60e01b81526000916001600160a01b0316906318c5e8ab90610fd29033908690600401611db8565b602060405180830381865afa158015610fef573d6000803e3d6000fd5b505050506040513d601f19601f820116820180604052508101906110139190611ddc565b90508061094057333083604051634a3fa29360e01b81526004016104b793929190611df9565b60008060006110466115da565b9050836001600160a01b0316635909c0d56040518163ffffffff1660e01b8152600401602060405180830381865afa158015611086573d6000803e3d6000fd5b505050506040513d601f19601f820116820180604052508101906110aa9190611e2e565b9250836001600160a01b0316635a3d54936040518163ffffffff1660e01b8152600401602060405180830381865afa1580156110ea573d6000803e3d6000fd5b505050506040513d601f19601f8201168201806040525081019061110e9190611e2e565b91506000806000866001600160a01b0316630902f1ac6040518163ffffffff1660e01b8152600401606060405180830381865afa158015611153573d6000803e3d6000fd5b505050506040513d601f19601f820116820180604052508101906111779190611e5e565b9250925092508363ffffffff168163ffffffff16146111d75780840363ffffffff81166111a484866115f0565b516001600160e01b031602969096019563ffffffff81166111c585856115f0565b516001600160e01b0316029590950194505b5050509193909250565b606580546001600160a01b031916905561042d816116a2565b60007f00000000000000000000000000000000000000000000000000000000000000006001600160a01b0316826001600160a01b03160361125c57507f0000000000000000000000000000000000000000000000000000000000000000919050565b7f00000000000000000000000000000000000000000000000000000000000000006001600160a01b0316826001600160a01b0316036112bc57507f0000000000000000000000000000000000000000000000000000000000000000919050565b816001600160a01b0316636f307dc36040518163ffffffff1660e01b8152600401602060405180830381865afa1580156112fa573d6000803e3d6000fd5b505050506040513d601f19601f8201168201806040525081019061131e9190611eae565b90505b919050565b600080600080611335856116f4565b92509250925080421161138a5760405162461bcd60e51b815260206004820152601a60248201527f6e6f77206d75737420636f6d65206166746572206265666f726500000000000060448201526064016104b7565b60006113968242611ecb565b9050600060405180602001604052808386886113b29190611ecb565b6113bc9190611ef8565b6001600160e01b03169052905060006113d482611963565b9050600088606001516113ef57670de0b6b3a76400006113f9565b670de0b6b3a76400005b90506000818a602001518461140e9190611d4c565b6114189190611ef8565b90508960600151156114c5576001600160a01b037f000000000000000000000000000000000000000000000000000000000000000016600090815260ca6020526040812054908190036114a45760405162461bcd60e51b8152602060048201526014602482015273189b98881c1c9a58d9481a5cc81a5b9d985b1a5960621b60448201526064016104b7565b670de0b6b3a76400006114b78284611d4c565b6114c19190611ef8565b9150505b8060000361150e5760405162461bcd60e51b81526020600482015260166024820152750747761702070726963652063616e6e6f7420626520360541b60448201526064016104b7565b89516040805183815260208101899052428183015290516001600160a01b03909216917f7d881580fb2bb7844e8ecf8df26510247c4bbea2735d40bf0d9ac33c0d9acd819181900360600190a298516001600160a01b0316600090815260ca602052604090208990555096979650505050505050565b600054610100900460ff166115ab5760405162461bcd60e51b81526004016104b790611f0c565b610545611983565b600054610100900460ff166104245760405162461bcd60e51b81526004016104b790611f0c565b60006115eb64010000000042611f57565b905090565b6040805160208101909152600081526000826001600160701b0316116116585760405162461bcd60e51b815260206004820152601760248201527f4669786564506f696e743a204449565f42595f5a45524f00000000000000000060448201526064016104b7565b60408051602081019091528061168e6001600160701b0385166dffffffffffffffffffffffffffff60701b607088901b16611f6b565b6001600160e01b0316905290505b92915050565b603380546001600160a01b038381166001600160a01b0319831681179093556040519116919082907f8be0079c531659141344cd1fd0a4f28419497f9722a3daafe3b4186f6b6457e090600090a35050565b60008060008061170385610504565b60a0860151909150429060009061171a9083611ecb565b87516001600160a01b0316600090815260cb6020908152604080832080548251818502810185019093528083529495509293909291849084015b8282101561179a57838290600052602060002090600202016040518060400160405290816000820154815260200160018201548152505081526020019060010190611754565b505082518b516001600160a01b0316600090815260cc6020526040902054939450929150505b818110156118b657838382815181106117db576117db611bce565b6020026020010151600001511015806117fd57506117fa600183611ecb565b81145b156118655782818151811061181457611814611bce565b602002602001015160200151975082818151811061183457611834611bce565b602090810291909101810151518b516001600160a01b0316600090815260cc909252604090912082905596506118b6565b89516001600160a01b0316600090815260cb6020526040902080548290811061189057611890611bce565b600091825260208220600290910201818155600101556118af81611bfa565b90506117c0565b5088516001600160a01b03908116600090815260cb60209081526040808320815180830183528981528084018b81528254600180820185559387529585902091516002909602909101948555519301929092558b5182518a81529182018b90524292820192909252606081018890529116907f87208a84ec7402c933c70c261e53b733a9f1c893d73e941a152435d58177a2649060800160405180910390a2509295505050509193909250565b805160009061131e906612725dd1d243ab906001600160e01b0316611ef8565b600054610100900460ff166119aa5760405162461bcd60e51b81526004016104b790611f0c565b610545336111e1565b6001600160a01b038116811461042d57600080fd5b600080604083850312156119db57600080fd5b82356119e6816119b3565b946020939093013593505050565b600060208284031215611a0657600080fd5b81356107aa816119b3565b634e487b7160e01b600052604160045260246000fd5b604051601f8201601f1916810167ffffffffffffffff81118282101715611a5057611a50611a11565b604052919050565b801515811461042d57600080fd5b600060c08284031215611a7857600080fd5b60405160c0810181811067ffffffffffffffff82111715611a9b57611a9b611a11565b6040529050808235611aac816119b3565b8152602083810135908201526040830135611ac6816119b3565b60408201526060830135611ad981611a58565b60608201526080830135611aec81611a58565b608082015260a092830135920191909152919050565b60006020808385031215611b1557600080fd5b823567ffffffffffffffff80821115611b2d57600080fd5b818501915085601f830112611b4157600080fd5b813581811115611b5357611b53611a11565b611b61848260051b01611a27565b818152848101925060c0918202840185019188831115611b8057600080fd5b938501935b82851015611ba657611b978986611a66565b84529384019392850192611b85565b50979650505050505050565b600060c08284031215611bc457600080fd5b6107aa8383611a66565b634e487b7160e01b600052603260045260246000fd5b634e487b7160e01b600052601160045260246000fd5b600060018201611c0c57611c0c611be4565b5060010190565b600060208284031215611c2557600080fd5b815160ff811681146107aa57600080fd5b600181815b80851115611c71578160001904821115611c5757611c57611be4565b80851615611c6457918102915b93841c9390800290611c3b565b509250929050565b600082611c885750600161169c565b81611c955750600061169c565b8160018114611cab5760028114611cb557611cd1565b600191505061169c565b60ff841115611cc657611cc6611be4565b50506001821b61169c565b5060208310610133831016604e8410600b8410161715611cf4575081810a61169c565b611cfe8383611c36565b8060001904821115611d1257611d12611be4565b029392505050565b60006107aa60ff841683611c79565b600060ff821660ff841680821015611d4357611d43611be4565b90039392505050565b6000816000190483118215151615611d6657611d66611be4565b500290565b6000815180845260005b81811015611d9157602081850181015186830182015201611d75565b81811115611da3576000602083870101525b50601f01601f19169290920160200192915050565b6001600160a01b0383168152604060208201819052600090610e7f90830184611d6b565b600060208284031215611dee57600080fd5b81516107aa81611a58565b6001600160a01b03848116825283166020820152606060408201819052600090611e2590830184611d6b565b95945050505050565b600060208284031215611e4057600080fd5b5051919050565b80516001600160701b038116811461132157600080fd5b600080600060608486031215611e7357600080fd5b611e7c84611e47565b9250611e8a60208501611e47565b9150604084015163ffffffff81168114611ea357600080fd5b809150509250925092565b600060208284031215611ec057600080fd5b81516107aa816119b3565b600082821015611edd57611edd611be4565b500390565b634e487b7160e01b600052601260045260246000fd5b600082611f0757611f07611ee2565b500490565b6020808252602b908201527f496e697469616c697a61626c653a20636f6e7472616374206973206e6f74206960408201526a6e697469616c697a696e6760a81b606082015260800190565b600082611f6657611f66611ee2565b500690565b60006001600160e01b0383811680611f8557611f85611ee2565b9216919091049291505056fea2646970667358221220e2356362d262a176c6425d938c0fb706747e869da6f1723e53ce334e453b3bc664736f6c634300080d003363616e2774206265207a65726f20616464726573730000000000000000000000",
  "devdoc": {
    "kind": "dev",
    "methods": {
      "acceptOwnership()": {
        "details": "The new owner accepts the ownership transfer."
      },
      "constructor": {
        "custom:oz-upgrades-unsafe-allow": "constructor",
        "params": {
          "vBnbAddress": "The address of the VBNB",
          "vaiAddress": "The address of the WBNB",
          "wBnbAddress": "The address of the WBNB"
        }
      },
      "currentCumulativePrice((address,uint256,address,bool,bool,uint256))": {
        "returns": {
          "_0": "cumulative price of target token regardless of pair order"
        }
      },
      "getUnderlyingPrice(address)": {
        "custom:error": "Missing error is thrown if the token config does not existRange error is thrown if TWAP price is not greater than zero",
        "params": {
          "vToken": "vToken address"
        },
        "returns": {
          "_0": "price Underlying price in USD"
        }
      },
      "initialize(address)": {
        "params": {
          "accessControlManager_": "Address of the access control manager contract"
        }
      },
      "owner()": {
        "details": "Returns the address of the current owner."
      },
      "pendingOwner()": {
        "details": "Returns the address of the pending owner."
      },
      "renounceOwnership()": {
        "details": "Leaves the contract without owner. It will not be possible to call `onlyOwner` functions anymore. Can only be called by the current owner. NOTE: Renouncing ownership will leave the contract without an owner, thereby removing any functionality that is only available to the owner."
      },
      "setAccessControlManager(address)": {
        "custom:access": "Only Governance",
        "custom:event": "Emits NewAccessControlManager event",
        "details": "Admin function to set address of AccessControlManager",
        "params": {
          "accessControlManager_": "The new address of the AccessControlManager"
        }
      },
      "setTokenConfig((address,uint256,address,bool,bool,uint256))": {
        "custom:access": "Only Governance",
        "custom:error": "Range error is thrown if anchor period is not greater than zeroRange error is thrown if base unit is not greater than zeroValue error is thrown if base unit decimals is not the same as asset decimalsNotNullAddress error is thrown if address of asset is nullNotNullAddress error is thrown if PancakeSwap pool address is null",
        "custom:event": "Emits TokenConfigAdded event if new token config are added with asset address, PancakePool address, anchor period address",
        "params": {
          "config": "token config struct"
        }
      },
      "setTokenConfigs((address,uint256,address,bool,bool,uint256)[])": {
        "custom:error": "Zero length error thrown, if length of the config array is 0",
        "params": {
          "configs": "Config array"
        }
      },
      "transferOwnership(address)": {
        "details": "Starts the ownership transfer of the contract to a new account. Replaces the pending transfer if there is one. Can only be called by the current owner."
      },
      "updateTwap(address)": {
        "custom:error": "Missing error is thrown if token config does not exist",
        "returns": {
          "_0": "anchorPrice anchor price of the underlying asset of the vToken"
        }
      }
    },
    "stateVariables": {
      "WBNB": {
        "custom:oz-upgrades-unsafe-allow": "state-variable-immutable"
      },
      "vBnb": {
        "custom:oz-upgrades-unsafe-allow": "state-variable-immutable"
      },
      "vai": {
        "custom:oz-upgrades-unsafe-allow": "state-variable-immutable"
      }
    },
    "version": 1
  },
  "userdoc": {
    "errors": {
      "Unauthorized(address,address,string)": [
        {
          "notice": "Thrown when the action is prohibited by AccessControlManager"
        }
      ]
    },
    "events": {
      "AnchorPriceUpdated(address,uint256,uint256,uint256)": {
        "notice": "Emit this event when TWAP price is updated"
      },
      "NewAccessControlManager(address,address)": {
        "notice": "Emitted when access control manager contract address is changed"
      },
      "TokenConfigAdded(address,address,uint256)": {
        "notice": "Emit this event when new token configs are added"
      },
      "TwapWindowUpdated(address,uint256,uint256,uint256,uint256)": {
        "notice": "Emit this event when TWAP window is updated"
      }
    },
    "kind": "user",
    "methods": {
      "WBNB()": {
        "notice": "WBNB address"
      },
      "accessControlManager()": {
        "notice": "Returns the address of the access control manager contract"
      },
      "bnbBaseUnit()": {
        "notice": "the base unit of WBNB and BUSD, which are the paired tokens for all assets"
      },
      "constructor": {
        "notice": "Constructor for the implementation contract. Sets immutable variables."
      },
      "currentCumulativePrice((address,uint256,address,bool,bool,uint256))": {
        "notice": "Fetches the current token/WBNB and token/BUSD price accumulator from PancakeSwap."
      },
      "getUnderlyingPrice(address)": {
        "notice": "Get the underlying TWAP price for the given vToken"
      },
      "initialize(address)": {
        "notice": "Initializes the owner of the contract"
      },
      "observations(address,uint256)": {
        "notice": "Keeps a record of token observations mapped by address, updated on every updateTwap invocation."
      },
      "prices(address)": {
        "notice": "Stored price by token"
      },
      "setAccessControlManager(address)": {
        "notice": "Sets the address of AccessControlManager"
      },
      "setTokenConfig((address,uint256,address,bool,bool,uint256))": {
        "notice": "Adds a single token config"
      },
      "setTokenConfigs((address,uint256,address,bool,bool,uint256)[])": {
        "notice": "Adds multiple token configs at the same time"
      },
      "tokenConfigs(address)": {
        "notice": "Configs by token"
      },
      "updateTwap(address)": {
        "notice": "Updates the current token/BUSD price from PancakeSwap, with 18 decimals of precision."
      },
      "vBnb()": {
        "notice": "vBNB address"
      },
      "vai()": {
        "notice": "VAI address"
      },
      "windowStart(address)": {
        "notice": "Observation array index which probably falls in current anchor period mapped by asset address"
      }
    },
    "version": 1
  },
  "storageLayout": {
    "storage": [
      {
        "astId": 347,
        "contract": "contracts/oracles/TwapOracle.sol:TwapOracle",
        "label": "_initialized",
        "offset": 0,
        "slot": "0",
        "type": "t_uint8"
      },
      {
        "astId": 350,
        "contract": "contracts/oracles/TwapOracle.sol:TwapOracle",
        "label": "_initializing",
        "offset": 1,
        "slot": "0",
        "type": "t_bool"
      },
      {
        "astId": 961,
        "contract": "contracts/oracles/TwapOracle.sol:TwapOracle",
        "label": "__gap",
        "offset": 0,
        "slot": "1",
        "type": "t_array(t_uint256)50_storage"
      },
      {
        "astId": 219,
        "contract": "contracts/oracles/TwapOracle.sol:TwapOracle",
        "label": "_owner",
        "offset": 0,
        "slot": "51",
        "type": "t_address"
      },
      {
        "astId": 339,
        "contract": "contracts/oracles/TwapOracle.sol:TwapOracle",
        "label": "__gap",
        "offset": 0,
        "slot": "52",
        "type": "t_array(t_uint256)49_storage"
      },
      {
        "astId": 128,
        "contract": "contracts/oracles/TwapOracle.sol:TwapOracle",
        "label": "_pendingOwner",
        "offset": 0,
        "slot": "101",
        "type": "t_address"
      },
      {
        "astId": 207,
        "contract": "contracts/oracles/TwapOracle.sol:TwapOracle",
        "label": "__gap",
        "offset": 0,
        "slot": "102",
        "type": "t_array(t_uint256)49_storage"
      },
      {
        "astId": 5289,
        "contract": "contracts/oracles/TwapOracle.sol:TwapOracle",
        "label": "_accessControlManager",
        "offset": 0,
        "slot": "151",
        "type": "t_contract(IAccessControlManager)5473"
      },
      {
        "astId": 5294,
        "contract": "contracts/oracles/TwapOracle.sol:TwapOracle",
        "label": "__gap",
        "offset": 0,
        "slot": "152",
        "type": "t_array(t_uint256)49_storage"
      },
      {
        "astId": 8639,
        "contract": "contracts/oracles/TwapOracle.sol:TwapOracle",
        "label": "tokenConfigs",
        "offset": 0,
        "slot": "201",
        "type": "t_mapping(t_address,t_struct(TokenConfig)8608_storage)"
      },
      {
        "astId": 8644,
        "contract": "contracts/oracles/TwapOracle.sol:TwapOracle",
        "label": "prices",
        "offset": 0,
        "slot": "202",
        "type": "t_mapping(t_address,t_uint256)"
      },
      {
        "astId": 8651,
        "contract": "contracts/oracles/TwapOracle.sol:TwapOracle",
        "label": "observations",
        "offset": 0,
        "slot": "203",
        "type": "t_mapping(t_address,t_array(t_struct(Observation)8589_storage)dyn_storage)"
      },
      {
        "astId": 8656,
        "contract": "contracts/oracles/TwapOracle.sol:TwapOracle",
        "label": "windowStart",
        "offset": 0,
        "slot": "204",
        "type": "t_mapping(t_address,t_uint256)"
      }
    ],
    "types": {
      "t_address": {
        "encoding": "inplace",
        "label": "address",
        "numberOfBytes": "20"
      },
      "t_array(t_struct(Observation)8589_storage)dyn_storage": {
        "base": "t_struct(Observation)8589_storage",
        "encoding": "dynamic_array",
        "label": "struct Observation[]",
        "numberOfBytes": "32"
      },
      "t_array(t_uint256)49_storage": {
        "base": "t_uint256",
        "encoding": "inplace",
        "label": "uint256[49]",
        "numberOfBytes": "1568"
      },
      "t_array(t_uint256)50_storage": {
        "base": "t_uint256",
        "encoding": "inplace",
        "label": "uint256[50]",
        "numberOfBytes": "1600"
      },
      "t_bool": {
        "encoding": "inplace",
        "label": "bool",
        "numberOfBytes": "1"
      },
      "t_contract(IAccessControlManager)5473": {
        "encoding": "inplace",
        "label": "contract IAccessControlManager",
        "numberOfBytes": "20"
      },
      "t_mapping(t_address,t_array(t_struct(Observation)8589_storage)dyn_storage)": {
        "encoding": "mapping",
        "key": "t_address",
        "label": "mapping(address => struct Observation[])",
        "numberOfBytes": "32",
        "value": "t_array(t_struct(Observation)8589_storage)dyn_storage"
      },
      "t_mapping(t_address,t_struct(TokenConfig)8608_storage)": {
        "encoding": "mapping",
        "key": "t_address",
        "label": "mapping(address => struct TokenConfig)",
        "numberOfBytes": "32",
        "value": "t_struct(TokenConfig)8608_storage"
      },
      "t_mapping(t_address,t_uint256)": {
        "encoding": "mapping",
        "key": "t_address",
        "label": "mapping(address => uint256)",
        "numberOfBytes": "32",
        "value": "t_uint256"
      },
      "t_struct(Observation)8589_storage": {
        "encoding": "inplace",
        "label": "struct Observation",
        "members": [
          {
            "astId": 8586,
            "contract": "contracts/oracles/TwapOracle.sol:TwapOracle",
            "label": "timestamp",
            "offset": 0,
            "slot": "0",
            "type": "t_uint256"
          },
          {
            "astId": 8588,
            "contract": "contracts/oracles/TwapOracle.sol:TwapOracle",
            "label": "acc",
            "offset": 0,
            "slot": "1",
            "type": "t_uint256"
          }
        ],
        "numberOfBytes": "64"
      },
      "t_struct(TokenConfig)8608_storage": {
        "encoding": "inplace",
        "label": "struct TokenConfig",
        "members": [
          {
            "astId": 8592,
            "contract": "contracts/oracles/TwapOracle.sol:TwapOracle",
            "label": "asset",
            "offset": 0,
            "slot": "0",
            "type": "t_address"
          },
          {
            "astId": 8595,
            "contract": "contracts/oracles/TwapOracle.sol:TwapOracle",
            "label": "baseUnit",
            "offset": 0,
            "slot": "1",
            "type": "t_uint256"
          },
          {
            "astId": 8598,
            "contract": "contracts/oracles/TwapOracle.sol:TwapOracle",
            "label": "pancakePool",
            "offset": 0,
            "slot": "2",
            "type": "t_address"
          },
          {
            "astId": 8601,
            "contract": "contracts/oracles/TwapOracle.sol:TwapOracle",
            "label": "isBnbBased",
            "offset": 20,
            "slot": "2",
            "type": "t_bool"
          },
          {
            "astId": 8604,
            "contract": "contracts/oracles/TwapOracle.sol:TwapOracle",
            "label": "isReversedPool",
            "offset": 21,
            "slot": "2",
            "type": "t_bool"
          },
          {
            "astId": 8607,
            "contract": "contracts/oracles/TwapOracle.sol:TwapOracle",
            "label": "anchorPeriod",
            "offset": 0,
            "slot": "3",
            "type": "t_uint256"
          }
        ],
        "numberOfBytes": "128"
      },
      "t_uint256": {
        "encoding": "inplace",
        "label": "uint256",
        "numberOfBytes": "32"
      },
      "t_uint8": {
        "encoding": "inplace",
        "label": "uint8",
        "numberOfBytes": "1"
      }
    }
  }
}