{
  "address": "0x84f720794Aa082B544dAe237DD87311e21eac1B2",
  "abi": [
    {
      "inputs": [
        {
          "internalType": "address",
          "name": "vBnbAddress",
          "type": "address"
        },
        {
          "internalType": "address",
          "name": "wBnbAddress",
          "type": "address"
        }
      ],
      "stateMutability": "nonpayable",
      "type": "constructor"
    },
    {
      "anonymous": false,
      "inputs": [
        {
          "indexed": true,
          "internalType": "address",
          "name": "asset",
          "type": "address"
        },
        {
          "indexed": false,
          "internalType": "uint256",
          "name": "price",
          "type": "uint256"
        },
        {
          "indexed": false,
          "internalType": "uint256",
          "name": "oldTimestamp",
          "type": "uint256"
        },
        {
          "indexed": false,
          "internalType": "uint256",
          "name": "newTimestamp",
          "type": "uint256"
        }
      ],
      "name": "AnchorPriceUpdated",
      "type": "event"
    },
    {
      "anonymous": false,
      "inputs": [
        {
          "indexed": false,
          "internalType": "uint8",
          "name": "version",
          "type": "uint8"
        }
      ],
      "name": "Initialized",
      "type": "event"
    },
    {
      "anonymous": false,
      "inputs": [
        {
          "indexed": true,
          "internalType": "address",
          "name": "previousOwner",
          "type": "address"
        },
        {
          "indexed": true,
          "internalType": "address",
          "name": "newOwner",
          "type": "address"
        }
      ],
      "name": "OwnershipTransferred",
      "type": "event"
    },
    {
      "anonymous": false,
      "inputs": [
        {
          "indexed": true,
          "internalType": "address",
          "name": "asset",
          "type": "address"
        },
        {
          "indexed": true,
          "internalType": "address",
          "name": "pancakePool",
          "type": "address"
        },
        {
          "indexed": true,
          "internalType": "uint256",
          "name": "anchorPeriod",
          "type": "uint256"
        }
      ],
      "name": "TokenConfigAdded",
      "type": "event"
    },
    {
      "anonymous": false,
      "inputs": [
        {
          "indexed": true,
          "internalType": "address",
          "name": "asset",
          "type": "address"
        },
        {
          "indexed": false,
          "internalType": "uint256",
          "name": "oldTimestamp",
          "type": "uint256"
        },
        {
          "indexed": false,
          "internalType": "uint256",
          "name": "oldAcc",
          "type": "uint256"
        },
        {
          "indexed": false,
          "internalType": "uint256",
          "name": "newTimestamp",
          "type": "uint256"
        },
        {
          "indexed": false,
          "internalType": "uint256",
          "name": "newAcc",
          "type": "uint256"
        }
      ],
      "name": "TwapWindowUpdated",
      "type": "event"
    },
    {
      "inputs": [],
      "name": "WBNB",
      "outputs": [
        {
          "internalType": "address",
          "name": "",
          "type": "address"
        }
      ],
      "stateMutability": "view",
      "type": "function"
    },
    {
      "inputs": [],
      "name": "bnbBaseUnit",
      "outputs": [
        {
          "internalType": "uint256",
          "name": "",
          "type": "uint256"
        }
      ],
      "stateMutability": "view",
      "type": "function"
    },
    {
      "inputs": [],
      "name": "busdBaseUnit",
      "outputs": [
        {
          "internalType": "uint256",
          "name": "",
          "type": "uint256"
        }
      ],
      "stateMutability": "view",
      "type": "function"
    },
    {
      "inputs": [
        {
          "components": [
            {
              "internalType": "address",
              "name": "asset",
              "type": "address"
            },
            {
              "internalType": "uint256",
              "name": "baseUnit",
              "type": "uint256"
            },
            {
              "internalType": "address",
              "name": "pancakePool",
              "type": "address"
            },
            {
              "internalType": "bool",
              "name": "isBnbBased",
              "type": "bool"
            },
            {
              "internalType": "bool",
              "name": "isReversedPool",
              "type": "bool"
            },
            {
              "internalType": "uint256",
              "name": "anchorPeriod",
              "type": "uint256"
            }
          ],
          "internalType": "struct TokenConfig",
          "name": "config",
          "type": "tuple"
        }
      ],
      "name": "currentCumulativePrice",
      "outputs": [
        {
          "internalType": "uint256",
          "name": "",
          "type": "uint256"
        }
      ],
      "stateMutability": "view",
      "type": "function"
    },
    {
      "inputs": [],
      "name": "expScale",
      "outputs": [
        {
          "internalType": "uint256",
          "name": "",
          "type": "uint256"
        }
      ],
      "stateMutability": "view",
      "type": "function"
    },
    {
      "inputs": [
        {
          "internalType": "address",
          "name": "vToken",
          "type": "address"
        }
      ],
      "name": "getUnderlyingPrice",
      "outputs": [
        {
          "internalType": "uint256",
          "name": "",
          "type": "uint256"
        }
      ],
      "stateMutability": "view",
      "type": "function"
    },
    {
      "inputs": [],
      "name": "initialize",
      "outputs": [],
      "stateMutability": "nonpayable",
      "type": "function"
    },
    {
      "inputs": [
        {
          "internalType": "address",
          "name": "",
          "type": "address"
        },
        {
          "internalType": "uint256",
          "name": "",
          "type": "uint256"
        }
      ],
      "name": "observations",
      "outputs": [
        {
          "internalType": "uint256",
          "name": "timestamp",
          "type": "uint256"
        },
        {
          "internalType": "uint256",
          "name": "acc",
          "type": "uint256"
        }
      ],
      "stateMutability": "view",
      "type": "function"
    },
    {
      "inputs": [],
      "name": "owner",
      "outputs": [
        {
          "internalType": "address",
          "name": "",
          "type": "address"
        }
      ],
      "stateMutability": "view",
      "type": "function"
    },
    {
      "inputs": [
        {
          "internalType": "address",
          "name": "",
          "type": "address"
        }
      ],
      "name": "prices",
      "outputs": [
        {
          "internalType": "uint256",
          "name": "",
          "type": "uint256"
        }
      ],
      "stateMutability": "view",
      "type": "function"
    },
    {
      "inputs": [],
      "name": "renounceOwnership",
      "outputs": [],
      "stateMutability": "nonpayable",
      "type": "function"
    },
    {
      "inputs": [
        {
          "components": [
            {
              "internalType": "address",
              "name": "asset",
              "type": "address"
            },
            {
              "internalType": "uint256",
              "name": "baseUnit",
              "type": "uint256"
            },
            {
              "internalType": "address",
              "name": "pancakePool",
              "type": "address"
            },
            {
              "internalType": "bool",
              "name": "isBnbBased",
              "type": "bool"
            },
            {
              "internalType": "bool",
              "name": "isReversedPool",
              "type": "bool"
            },
            {
              "internalType": "uint256",
              "name": "anchorPeriod",
              "type": "uint256"
            }
          ],
          "internalType": "struct TokenConfig",
          "name": "config",
          "type": "tuple"
        }
      ],
      "name": "setTokenConfig",
      "outputs": [],
      "stateMutability": "nonpayable",
      "type": "function"
    },
    {
      "inputs": [
        {
          "components": [
            {
              "internalType": "address",
              "name": "asset",
              "type": "address"
            },
            {
              "internalType": "uint256",
              "name": "baseUnit",
              "type": "uint256"
            },
            {
              "internalType": "address",
              "name": "pancakePool",
              "type": "address"
            },
            {
              "internalType": "bool",
              "name": "isBnbBased",
              "type": "bool"
            },
            {
              "internalType": "bool",
              "name": "isReversedPool",
              "type": "bool"
            },
            {
              "internalType": "uint256",
              "name": "anchorPeriod",
              "type": "uint256"
            }
          ],
          "internalType": "struct TokenConfig[]",
          "name": "configs",
          "type": "tuple[]"
        }
      ],
      "name": "setTokenConfigs",
      "outputs": [],
      "stateMutability": "nonpayable",
      "type": "function"
    },
    {
      "inputs": [
        {
          "internalType": "address",
          "name": "",
          "type": "address"
        }
      ],
      "name": "tokenConfigs",
      "outputs": [
        {
          "internalType": "address",
          "name": "asset",
          "type": "address"
        },
        {
          "internalType": "uint256",
          "name": "baseUnit",
          "type": "uint256"
        },
        {
          "internalType": "address",
          "name": "pancakePool",
          "type": "address"
        },
        {
          "internalType": "bool",
          "name": "isBnbBased",
          "type": "bool"
        },
        {
          "internalType": "bool",
          "name": "isReversedPool",
          "type": "bool"
        },
        {
          "internalType": "uint256",
          "name": "anchorPeriod",
          "type": "uint256"
        }
      ],
      "stateMutability": "view",
      "type": "function"
    },
    {
      "inputs": [
        {
          "internalType": "address",
          "name": "newOwner",
          "type": "address"
        }
      ],
      "name": "transferOwnership",
      "outputs": [],
      "stateMutability": "nonpayable",
      "type": "function"
    },
    {
      "inputs": [
        {
          "internalType": "address",
          "name": "vToken",
          "type": "address"
        }
      ],
      "name": "updateTwap",
      "outputs": [
        {
          "internalType": "uint256",
          "name": "",
          "type": "uint256"
        }
      ],
      "stateMutability": "nonpayable",
      "type": "function"
    },
    {
      "inputs": [],
      "name": "vBnb",
      "outputs": [
        {
          "internalType": "address",
          "name": "",
          "type": "address"
        }
      ],
      "stateMutability": "view",
      "type": "function"
    },
    {
      "inputs": [
        {
          "internalType": "address",
          "name": "",
          "type": "address"
        }
      ],
      "name": "windowStart",
      "outputs": [
        {
          "internalType": "uint256",
          "name": "",
          "type": "uint256"
        }
      ],
      "stateMutability": "view",
      "type": "function"
    }
  ],
  "transactionHash": "0xf6e5c7b71e8d6887c3e7c25fa2631d3285e5dfd879e12c246b0f461e279607d7",
  "args": [
    "0x2E7222e51c0f6e98610A1543Aa3836E092CDe62c",
    "0xae13d989daC2f0dEbFf460aC112a837C89BAa7cd"
  ],
  "numDeployments": 1,
  "solcInputHash": "6153c675ce838eebb6442d63350712be",
  "bytecode": "0x60c06040523480156200001157600080fd5b5060405162001e8d38038062001e8d8339810160408190526200003491620001ed565b816001600160a01b038116620000915760405162461bcd60e51b815260206004820152601560248201527f63616e2774206265207a65726f2061646472657373000000000000000000000060448201526064015b60405180910390fd5b816001600160a01b038116620000ea5760405162461bcd60e51b815260206004820152601560248201527f63616e2774206265207a65726f20616464726573730000000000000000000000604482015260640162000088565b6001600160a01b0380851660a05283166080526200010762000111565b5050505062000225565b600054610100900460ff16156200017b5760405162461bcd60e51b815260206004820152602760248201527f496e697469616c697a61626c653a20636f6e747261637420697320696e697469604482015266616c697a696e6760c81b606482015260840162000088565b60005460ff9081161015620001ce576000805460ff191660ff9081179091556040519081527f7f26b83ff96e1f2b6a682f133852f6798a09c465da95921460cefb38474024989060200160405180910390a15b565b80516001600160a01b0381168114620001e857600080fd5b919050565b600080604083850312156200020157600080fd5b6200020c83620001d0565b91506200021c60208401620001d0565b90509250929050565b60805160a051611c0a620002836000396000818161023d015281816104540152610c420152600081816102bf015281816104f401528181610572015281816105e30152818161065b01528181610ce201526111aa0152611c0a6000f3fe608060405234801561001057600080fd5b50600436106101165760003560e01c8063725068a5116100a2578063b8a8a62611610071578063b8a8a62614610277578063cbf67919146102e1578063cfed246b146102f4578063f2fde38b14610314578063fc57d4df1461032757600080fd5b8063725068a51461028e5780638129fc1c146102a15780638da5cb5b146102a95780638dd95002146102ba57600080fd5b80633334ecc5116100e95780633334ecc5146102185780635ba3792d14610238578063609f0f361461027757806369aa3ac614610277578063715018a61461028657600080fd5b8063024599661461011b5780631b69dc5f14610148578063234a3446146101e25780632b9d9dea146101f7575b600080fd5b61012e6101293660046116cb565b61033a565b604080519283526020830191909152015b60405180910390f35b6101a06101563660046116f7565b60656020526000908152604090208054600182015460028301546003909301546001600160a01b0392831693919282169160ff600160a01b8204811692600160a81b909204169086565b604080516001600160a01b03978816815260208101969096529390951692840192909252151560608301521515608082015260a081019190915260c00161013f565b6101f56101f0366004611808565b610376565b005b61020a6102053660046118b8565b61040c565b60405190815260200161013f565b61020a6102263660046116f7565b60686020526000908152604090205481565b61025f7f000000000000000000000000000000000000000000000000000000000000000081565b6040516001600160a01b03909116815260200161013f565b61020a670de0b6b3a764000081565b6101f561043b565b61020a61029c3660046116f7565b61044f565b6101f5610772565b6033546001600160a01b031661025f565b61025f7f000000000000000000000000000000000000000000000000000000000000000081565b6101f56102ef3660046118b8565b610883565b61020a6103023660046116f7565b60666020526000908152604090205481565b6101f56103223660046116f7565b610bc7565b61020a6103353660046116f7565b610c3d565b6067602052816000526040600020818154811061035657600080fd5b600091825260209091206002909102018054600190910154909250905082565b61037e610e4e565b60008151116103c85760405162461bcd60e51b815260206004820152601160248201527006c656e6774682063616e2774206265203607c1b60448201526064015b60405180910390fd5b805160005b81811015610407576103f78382815181106103ea576103ea6118d4565b6020026020010151610883565b61040081611900565b90506103cd565b505050565b600080600061041e8460400151610ea8565b5091509150836080015115610434579392505050565b5092915050565b610443610e4e565b61044d6000611050565b565b6000807f00000000000000000000000000000000000000000000000000000000000000006001600160a01b0316836001600160a01b0316146104f257826001600160a01b0316636f307dc36040518163ffffffff1660e01b8152600401602060405180830381865afa1580156104c9573d6000803e3d6000fd5b505050506040513d601f19601f820116820180604052508101906104ed9190611919565b610514565b7f00000000000000000000000000000000000000000000000000000000000000005b6001600160a01b03808216600090815260656020526040902054919250166105705760405162461bcd60e51b815260206004820152600f60248201526e185cdcd95d081b9bdd08195e1a5cdd608a1b60448201526064016103bf565b7f00000000000000000000000000000000000000000000000000000000000000006001600160a01b0316816001600160a01b0316141580156105d457506001600160a01b038116600090815260656020526040902060020154600160a01b900460ff165b156106ef576001600160a01b037f00000000000000000000000000000000000000000000000000000000000000008116600090815260656020526040902054166106515760405162461bcd60e51b815260206004820152600e60248201526d15d09390881b9bdd08195e1a5cdd60921b60448201526064016103bf565b6001600160a01b037f00000000000000000000000000000000000000000000000000000000000000008116600090815260656020908152604091829020825160c08101845281548516815260018201549281019290925260028101549384169282019290925260ff600160a01b8404811615156060830152600160a81b909304909216151560808301526003015460a08201526106ed906110a2565b505b6001600160a01b03808216600090815260656020908152604091829020825160c08101845281548516815260018201549281019290925260028101549384169282019290925260ff600160a01b8404811615156060830152600160a81b909304909216151560808301526003015460a082015261076b906110a2565b9392505050565b600054610100900460ff16158080156107925750600054600160ff909116105b806107ac5750303b1580156107ac575060005460ff166001145b61080f5760405162461bcd60e51b815260206004820152602e60248201527f496e697469616c697a61626c653a20636f6e747261637420697320616c72656160448201526d191e481a5b9a5d1a585b1a5e995960921b60648201526084016103bf565b6000805460ff191660011790558015610832576000805461ff0019166101001790555b61083a611300565b8015610880576000805461ff0019169055604051600181527f7f26b83ff96e1f2b6a682f133852f6798a09c465da95921460cefb38474024989060200160405180910390a15b50565b61088b610e4e565b80516001600160a01b0381166108db5760405162461bcd60e51b815260206004820152601560248201527463616e2774206265207a65726f206164647265737360581b60448201526064016103bf565b60408201516001600160a01b03811661092e5760405162461bcd60e51b815260206004820152601560248201527463616e2774206265207a65726f206164647265737360581b60448201526064016103bf565b60008360a00151116109825760405162461bcd60e51b815260206004820152601e60248201527f616e63686f7220706572696f64206d75737420626520706f736974697665000060448201526064016103bf565b60008360200151116109d65760405162461bcd60e51b815260206004820152601a60248201527f6261736520756e6974206d75737420626520706f73697469766500000000000060448201526064016103bf565b82600001516001600160a01b031663313ce5676040518163ffffffff1660e01b8152600401602060405180830381865afa158015610a18573d6000803e3d6000fd5b505050506040513d601f19601f82011682018060405250810190610a3c9190611936565b610a4790600a611a3d565b836020015114610ab35760405162461bcd60e51b815260206004820152603160248201527f6261736520756e697420646563696d616c73206d7573742062652073616d6520604482015270617320617373657420646563696d616c7360781b60648201526084016103bf565b6000610abe8461040c565b84516001600160a01b03908116600090815260676020908152604080832081518083018352428152808401878152825460018181018555938752858720925160029182029093019283559051918301919091558a5186168552606584528285208b5181549088166001600160a01b031990911681178255948c015192810192909255828b0151908201805460608d015160808e01511515600160a81b0260ff60a81b19911515600160a01b026001600160a81b03199093169490991693841791909117169690961790955560a08a0151600390910181905590519495509390917f3cc8d9cb9370a23a8b9ffa75efa24cecb65c4693980e58260841adc474983c5f91a450505050565b610bcf610e4e565b6001600160a01b038116610c345760405162461bcd60e51b815260206004820152602660248201527f4f776e61626c653a206e6577206f776e657220697320746865207a65726f206160448201526564647265737360d01b60648201526084016103bf565b61088081611050565b6000807f00000000000000000000000000000000000000000000000000000000000000006001600160a01b0316836001600160a01b031614610ce057826001600160a01b0316636f307dc36040518163ffffffff1660e01b8152600401602060405180830381865afa158015610cb7573d6000803e3d6000fd5b505050506040513d601f19601f82011682018060405250810190610cdb9190611919565b610d02565b7f00000000000000000000000000000000000000000000000000000000000000005b6001600160a01b0380821660009081526065602052604090205491925016610d5e5760405162461bcd60e51b815260206004820152600f60248201526e185cdcd95d081b9bdd08195e1a5cdd608a1b60448201526064016103bf565b6001600160a01b03811660009081526066602052604090205480610dc45760405162461bcd60e51b815260206004820152601b60248201527f54574150207072696365206d75737420626520706f736974697665000000000060448201526064016103bf565b816001600160a01b031663313ce5676040518163ffffffff1660e01b8152600401602060405180830381865afa158015610e02573d6000803e3d6000fd5b505050506040513d601f19601f82011682018060405250810190610e269190611936565b610e31906012611a4c565b610e3c90600a611a3d565b610e469082611a6f565b949350505050565b6033546001600160a01b0316331461044d5760405162461bcd60e51b815260206004820181905260248201527f4f776e61626c653a2063616c6c6572206973206e6f7420746865206f776e657260448201526064016103bf565b6000806000610eb561132f565b9050836001600160a01b0316635909c0d56040518163ffffffff1660e01b8152600401602060405180830381865afa158015610ef5573d6000803e3d6000fd5b505050506040513d601f19601f82011682018060405250810190610f199190611a8e565b9250836001600160a01b0316635a3d54936040518163ffffffff1660e01b8152600401602060405180830381865afa158015610f59573d6000803e3d6000fd5b505050506040513d601f19601f82011682018060405250810190610f7d9190611a8e565b91506000806000866001600160a01b0316630902f1ac6040518163ffffffff1660e01b8152600401606060405180830381865afa158015610fc2573d6000803e3d6000fd5b505050506040513d601f19601f82011682018060405250810190610fe69190611abe565b9250925092508363ffffffff168163ffffffff16146110465780840363ffffffff81166110138486611345565b516001600160e01b031602969096019563ffffffff81166110348585611345565b516001600160e01b0316029590950194505b5050509193909250565b603380546001600160a01b038381166001600160a01b0319831681179093556040519116919082907f8be0079c531659141344cd1fd0a4f28419497f9722a3daafe3b4186f6b6457e090600090a35050565b6000806000806110b1856113f7565b9250925092508042116111065760405162461bcd60e51b815260206004820152601a60248201527f6e6f77206d75737420636f6d65206166746572206265666f726500000000000060448201526064016103bf565b60006111128242611b0e565b90506000604051806020016040528083868861112e9190611b0e565b6111389190611b3b565b6001600160e01b031690529050600061115082611666565b90506000886060015161116b57670de0b6b3a7640000611175565b670de0b6b3a76400005b90506000818a602001518461118a9190611a6f565b6111949190611b3b565b9050896060015115611241576001600160a01b037f000000000000000000000000000000000000000000000000000000000000000016600090815260666020526040812054908190036112205760405162461bcd60e51b8152602060048201526014602482015273189b98881c1c9a58d9481a5cc81a5b9d985b1a5960621b60448201526064016103bf565b670de0b6b3a76400006112338284611a6f565b61123d9190611b3b565b9150505b8060000361128a5760405162461bcd60e51b81526020600482015260166024820152750747761702070726963652063616e6e6f7420626520360541b60448201526064016103bf565b89516040805183815260208101899052428183015290516001600160a01b03909216917f7d881580fb2bb7844e8ecf8df26510247c4bbea2735d40bf0d9ac33c0d9acd819181900360600190a298516001600160a01b031660009081526066602052604090208990555096979650505050505050565b600054610100900460ff166113275760405162461bcd60e51b81526004016103bf90611b4f565b61044d611686565b600061134064010000000042611b9a565b905090565b6040805160208101909152600081526000826001600160701b0316116113ad5760405162461bcd60e51b815260206004820152601760248201527f4669786564506f696e743a204449565f42595f5a45524f00000000000000000060448201526064016103bf565b6040805160208101909152806113e36001600160701b0385166dffffffffffffffffffffffffffff60701b607088901b16611bae565b6001600160e01b0316905290505b92915050565b6000806000806114068561040c565b60a0860151909150429060009061141d9083611b0e565b87516001600160a01b0316600090815260676020908152604080832080548251818502810185019093528083529495509293909291849084015b8282101561149d57838290600052602060002090600202016040518060400160405290816000820154815260200160018201548152505081526020019060010190611457565b505082518b516001600160a01b0316600090815260686020526040902054939450929150505b818110156115b957838382815181106114de576114de6118d4565b60200260200101516000015110158061150057506114fd600183611b0e565b81145b1561156857828181518110611517576115176118d4565b6020026020010151602001519750828181518110611537576115376118d4565b602090810291909101810151518b516001600160a01b031660009081526068909252604090912082905596506115b9565b89516001600160a01b03166000908152606760205260409020805482908110611593576115936118d4565b600091825260208220600290910201818155600101556115b281611900565b90506114c3565b5088516001600160a01b039081166000908152606760209081526040808320815180830183528981528084018b81528254600180820185559387529585902091516002909602909101948555519301929092558b5182518a81529182018b90524292820192909252606081018890529116907f87208a84ec7402c933c70c261e53b733a9f1c893d73e941a152435d58177a2649060800160405180910390a2509295505050509193909250565b80516000906113f1906612725dd1d243ab906001600160e01b0316611b3b565b600054610100900460ff166116ad5760405162461bcd60e51b81526004016103bf90611b4f565b61044d33611050565b6001600160a01b038116811461088057600080fd5b600080604083850312156116de57600080fd5b82356116e9816116b6565b946020939093013593505050565b60006020828403121561170957600080fd5b813561076b816116b6565b634e487b7160e01b600052604160045260246000fd5b604051601f8201601f1916810167ffffffffffffffff8111828210171561175357611753611714565b604052919050565b8035801515811461176b57600080fd5b919050565b600060c0828403121561178257600080fd5b60405160c0810181811067ffffffffffffffff821117156117a5576117a5611714565b60405290508082356117b6816116b6565b81526020838101359082015260408301356117d0816116b6565b60408201526117e16060840161175b565b60608201526117f26080840161175b565b608082015260a083013560a08201525092915050565b6000602080838503121561181b57600080fd5b823567ffffffffffffffff8082111561183357600080fd5b818501915085601f83011261184757600080fd5b81358181111561185957611859611714565b611867848260051b0161172a565b818152848101925060c091820284018501918883111561188657600080fd5b938501935b828510156118ac5761189d8986611770565b8452938401939285019261188b565b50979650505050505050565b600060c082840312156118ca57600080fd5b61076b8383611770565b634e487b7160e01b600052603260045260246000fd5b634e487b7160e01b600052601160045260246000fd5b600060018201611912576119126118ea565b5060010190565b60006020828403121561192b57600080fd5b815161076b816116b6565b60006020828403121561194857600080fd5b815160ff8116811461076b57600080fd5b600181815b8085111561199457816000190482111561197a5761197a6118ea565b8085161561198757918102915b93841c939080029061195e565b509250929050565b6000826119ab575060016113f1565b816119b8575060006113f1565b81600181146119ce57600281146119d8576119f4565b60019150506113f1565b60ff8411156119e9576119e96118ea565b50506001821b6113f1565b5060208310610133831016604e8410600b8410161715611a17575081810a6113f1565b611a218383611959565b8060001904821115611a3557611a356118ea565b029392505050565b600061076b60ff84168361199c565b600060ff821660ff841680821015611a6657611a666118ea565b90039392505050565b6000816000190483118215151615611a8957611a896118ea565b500290565b600060208284031215611aa057600080fd5b5051919050565b80516001600160701b038116811461176b57600080fd5b600080600060608486031215611ad357600080fd5b611adc84611aa7565b9250611aea60208501611aa7565b9150604084015163ffffffff81168114611b0357600080fd5b809150509250925092565b600082821015611b2057611b206118ea565b500390565b634e487b7160e01b600052601260045260246000fd5b600082611b4a57611b4a611b25565b500490565b6020808252602b908201527f496e697469616c697a61626c653a20636f6e7472616374206973206e6f74206960408201526a6e697469616c697a696e6760a81b606082015260800190565b600082611ba957611ba9611b25565b500690565b60006001600160e01b0383811680611bc857611bc8611b25565b9216919091049291505056fea2646970667358221220169f7039201eaee6ac8916f3c32c3d615a2c1fa9eb6aafcecbb2f7c1e0a84bb464736f6c634300080d0033",
  "devdoc": {
    "kind": "dev",
    "methods": {
      "constructor": {
        "custom:oz-upgrades-unsafe-allow": "constructor",
        "params": {
          "vBnbAddress": "The address of the VBNB",
          "wBnbAddress": "The address of the WBNB"
        }
      },
      "currentCumulativePrice((address,uint256,address,bool,bool,uint256))": {
        "returns": {
          "_0": "cumulative price of target token regardless of pair order"
        }
      },
      "getUnderlyingPrice(address)": {
        "custom:error": "Missing error is thrown if the token config does not existRange error is thrown if TWAP price is not greater than zero",
        "params": {
          "vToken": "vToken address"
        },
        "returns": {
          "_0": "price Underlying price in USD"
        }
      },
      "owner()": {
        "details": "Returns the address of the current owner."
      },
      "renounceOwnership()": {
        "details": "Leaves the contract without owner. It will not be possible to call `onlyOwner` functions anymore. Can only be called by the current owner. NOTE: Renouncing ownership will leave the contract without an owner, thereby removing any functionality that is only available to the owner."
      },
      "setTokenConfig((address,uint256,address,bool,bool,uint256))": {
        "custom:access": "Only Governance",
        "custom:error": "Range error is thrown if anchor period is not greater than zeroRange error is thrown if base unit is not greater than zeroValue error is thrown if base unit decimals is not the same as asset decimalsNotNullAddress error is thrown if address of asset is nullNotNullAddress error is thrown if PancakeSwap pool address is null",
        "custom:event": "Emits TokenConfigAdded event if new token config are added with asset address, PancakePool address, anchor period address",
        "params": {
          "config": "token config struct"
        }
      },
      "setTokenConfigs((address,uint256,address,bool,bool,uint256)[])": {
        "custom:error": "Zero length error thrown, if length of the config array is 0",
        "params": {
          "configs": "Config array"
        }
      },
      "transferOwnership(address)": {
        "details": "Transfers ownership of the contract to a new account (`newOwner`). Can only be called by the current owner."
      },
      "updateTwap(address)": {
        "custom:error": "Missing error is thrown if token config does not exist",
        "returns": {
          "_0": "vToken Address of vToken"
        }
      }
    },
    "stateVariables": {
      "WBNB": {
        "custom:oz-upgrades-unsafe-allow": "state-variable-immutable"
      },
      "vBnb": {
        "custom:oz-upgrades-unsafe-allow": "state-variable-immutable"
      }
    },
    "version": 1
  },
  "userdoc": {
    "events": {
      "AnchorPriceUpdated(address,uint256,uint256,uint256)": {
        "notice": "Emit this event when TWAP price is updated"
      },
      "TokenConfigAdded(address,address,uint256)": {
        "notice": "Emit this event when new token configs are added"
      },
      "TwapWindowUpdated(address,uint256,uint256,uint256,uint256)": {
        "notice": "Emit this event when TWAP window is updated"
      }
    },
    "kind": "user",
    "methods": {
      "WBNB()": {
        "notice": "WBNB address"
      },
      "bnbBaseUnit()": {
        "notice": "the base unit of WBNB and BUSD, which are the paired tokens for all assets"
      },
      "constructor": {
        "notice": "Constructor for the implementation contract. Sets immutable variables."
      },
      "currentCumulativePrice((address,uint256,address,bool,bool,uint256))": {
        "notice": "Fetches the current token/WBNB and token/BUSD price accumulator from PancakeSwap."
      },
      "getUnderlyingPrice(address)": {
        "notice": "Get the underlying TWAP price for the given vToken"
      },
      "initialize()": {
        "notice": "Initializes the owner of the contract and sets the contracts required"
      },
      "observations(address,uint256)": {
        "notice": "Keeps a record of token observations mapped by address, updated on every updateTwap invocation."
      },
      "prices(address)": {
        "notice": "Stored price by token"
      },
      "setTokenConfig((address,uint256,address,bool,bool,uint256))": {
        "notice": "Adds a single token config"
      },
      "setTokenConfigs((address,uint256,address,bool,bool,uint256)[])": {
        "notice": "Adds multiple token configs at the same time"
      },
      "tokenConfigs(address)": {
        "notice": "Configs by token"
      },
      "updateTwap(address)": {
        "notice": "Updates the current token/BUSD price from PancakeSwap, with 18 decimals of precision."
      },
      "vBnb()": {
        "notice": "vBNB address"
      },
      "windowStart(address)": {
        "notice": "Observation array index which probably falls in current anchor period mapped by asset address"
      }
    },
    "version": 1
  },
  "storageLayout": {
    "storage": [
      {
        "astId": 241,
        "contract": "contracts/oracles/TwapOracle.sol:TwapOracle",
        "label": "_initialized",
        "offset": 0,
        "slot": "0",
        "type": "t_uint8"
      },
      {
        "astId": 244,
        "contract": "contracts/oracles/TwapOracle.sol:TwapOracle",
        "label": "_initializing",
        "offset": 1,
        "slot": "0",
        "type": "t_bool"
      },
      {
        "astId": 855,
        "contract": "contracts/oracles/TwapOracle.sol:TwapOracle",
        "label": "__gap",
        "offset": 0,
        "slot": "1",
        "type": "t_array(t_uint256)50_storage"
      },
      {
        "astId": 113,
        "contract": "contracts/oracles/TwapOracle.sol:TwapOracle",
        "label": "_owner",
        "offset": 0,
        "slot": "51",
        "type": "t_address"
      },
      {
        "astId": 233,
        "contract": "contracts/oracles/TwapOracle.sol:TwapOracle",
        "label": "__gap",
        "offset": 0,
        "slot": "52",
        "type": "t_array(t_uint256)49_storage"
      },
      {
        "astId": 6431,
        "contract": "contracts/oracles/TwapOracle.sol:TwapOracle",
        "label": "tokenConfigs",
        "offset": 0,
        "slot": "101",
        "type": "t_mapping(t_address,t_struct(TokenConfig)6403_storage)"
      },
      {
        "astId": 6436,
        "contract": "contracts/oracles/TwapOracle.sol:TwapOracle",
        "label": "prices",
        "offset": 0,
        "slot": "102",
        "type": "t_mapping(t_address,t_uint256)"
      },
      {
        "astId": 6443,
        "contract": "contracts/oracles/TwapOracle.sol:TwapOracle",
        "label": "observations",
        "offset": 0,
        "slot": "103",
        "type": "t_mapping(t_address,t_array(t_struct(Observation)6384_storage)dyn_storage)"
      },
      {
        "astId": 6448,
        "contract": "contracts/oracles/TwapOracle.sol:TwapOracle",
        "label": "windowStart",
        "offset": 0,
        "slot": "104",
        "type": "t_mapping(t_address,t_uint256)"
      }
    ],
    "types": {
      "t_address": {
        "encoding": "inplace",
        "label": "address",
        "numberOfBytes": "20"
      },
      "t_array(t_struct(Observation)6384_storage)dyn_storage": {
        "base": "t_struct(Observation)6384_storage",
        "encoding": "dynamic_array",
        "label": "struct Observation[]",
        "numberOfBytes": "32"
      },
      "t_array(t_uint256)49_storage": {
        "base": "t_uint256",
        "encoding": "inplace",
        "label": "uint256[49]",
        "numberOfBytes": "1568"
      },
      "t_array(t_uint256)50_storage": {
        "base": "t_uint256",
        "encoding": "inplace",
        "label": "uint256[50]",
        "numberOfBytes": "1600"
      },
      "t_bool": {
        "encoding": "inplace",
        "label": "bool",
        "numberOfBytes": "1"
      },
      "t_mapping(t_address,t_array(t_struct(Observation)6384_storage)dyn_storage)": {
        "encoding": "mapping",
        "key": "t_address",
        "label": "mapping(address => struct Observation[])",
        "numberOfBytes": "32",
        "value": "t_array(t_struct(Observation)6384_storage)dyn_storage"
      },
      "t_mapping(t_address,t_struct(TokenConfig)6403_storage)": {
        "encoding": "mapping",
        "key": "t_address",
        "label": "mapping(address => struct TokenConfig)",
        "numberOfBytes": "32",
        "value": "t_struct(TokenConfig)6403_storage"
      },
      "t_mapping(t_address,t_uint256)": {
        "encoding": "mapping",
        "key": "t_address",
        "label": "mapping(address => uint256)",
        "numberOfBytes": "32",
        "value": "t_uint256"
      },
      "t_struct(Observation)6384_storage": {
        "encoding": "inplace",
        "label": "struct Observation",
        "members": [
          {
            "astId": 6381,
            "contract": "contracts/oracles/TwapOracle.sol:TwapOracle",
            "label": "timestamp",
            "offset": 0,
            "slot": "0",
            "type": "t_uint256"
          },
          {
            "astId": 6383,
            "contract": "contracts/oracles/TwapOracle.sol:TwapOracle",
            "label": "acc",
            "offset": 0,
            "slot": "1",
            "type": "t_uint256"
          }
        ],
        "numberOfBytes": "64"
      },
      "t_struct(TokenConfig)6403_storage": {
        "encoding": "inplace",
        "label": "struct TokenConfig",
        "members": [
          {
            "astId": 6387,
            "contract": "contracts/oracles/TwapOracle.sol:TwapOracle",
            "label": "asset",
            "offset": 0,
            "slot": "0",
            "type": "t_address"
          },
          {
            "astId": 6390,
            "contract": "contracts/oracles/TwapOracle.sol:TwapOracle",
            "label": "baseUnit",
            "offset": 0,
            "slot": "1",
            "type": "t_uint256"
          },
          {
            "astId": 6393,
            "contract": "contracts/oracles/TwapOracle.sol:TwapOracle",
            "label": "pancakePool",
            "offset": 0,
            "slot": "2",
            "type": "t_address"
          },
          {
            "astId": 6396,
            "contract": "contracts/oracles/TwapOracle.sol:TwapOracle",
            "label": "isBnbBased",
            "offset": 20,
            "slot": "2",
            "type": "t_bool"
          },
          {
            "astId": 6399,
            "contract": "contracts/oracles/TwapOracle.sol:TwapOracle",
            "label": "isReversedPool",
            "offset": 21,
            "slot": "2",
            "type": "t_bool"
          },
          {
            "astId": 6402,
            "contract": "contracts/oracles/TwapOracle.sol:TwapOracle",
            "label": "anchorPeriod",
            "offset": 0,
            "slot": "3",
            "type": "t_uint256"
          }
        ],
        "numberOfBytes": "128"
      },
      "t_uint256": {
        "encoding": "inplace",
        "label": "uint256",
        "numberOfBytes": "32"
      },
      "t_uint8": {
        "encoding": "inplace",
        "label": "uint8",
        "numberOfBytes": "1"
      }
    }
  }
}