{
  "address": "0x50898eA0555D193CAd348cF000fd9376529Ebd01",
  "abi": [
    {
      "inputs": [],
      "stateMutability": "nonpayable",
      "type": "constructor"
    },
    {
      "inputs": [
        {
          "internalType": "address",
          "name": "sender",
          "type": "address"
        },
        {
          "internalType": "address",
          "name": "calledContract",
          "type": "address"
        },
        {
          "internalType": "string",
          "name": "methodSignature",
          "type": "string"
        }
      ],
      "name": "Unauthorized",
      "type": "error"
    },
    {
      "anonymous": false,
      "inputs": [
        {
          "indexed": false,
          "internalType": "uint8",
          "name": "version",
          "type": "uint8"
        }
      ],
      "name": "Initialized",
      "type": "event"
    },
    {
      "anonymous": false,
      "inputs": [
        {
          "indexed": false,
          "internalType": "address",
          "name": "oldAccessControlManager",
          "type": "address"
        },
        {
          "indexed": false,
          "internalType": "address",
          "name": "newAccessControlManager",
          "type": "address"
        }
      ],
      "name": "NewAccessControlManager",
      "type": "event"
    },
    {
      "anonymous": false,
      "inputs": [
        {
          "indexed": true,
          "internalType": "address",
          "name": "previousOwner",
          "type": "address"
        },
        {
          "indexed": true,
          "internalType": "address",
          "name": "newOwner",
          "type": "address"
        }
      ],
      "name": "OwnershipTransferStarted",
      "type": "event"
    },
    {
      "anonymous": false,
      "inputs": [
        {
          "indexed": true,
          "internalType": "address",
          "name": "previousOwner",
          "type": "address"
        },
        {
          "indexed": true,
          "internalType": "address",
          "name": "newOwner",
          "type": "address"
        }
      ],
      "name": "OwnershipTransferred",
      "type": "event"
    },
    {
      "anonymous": false,
      "inputs": [
        {
          "indexed": true,
          "internalType": "address",
          "name": "asset",
          "type": "address"
        },
        {
          "indexed": true,
          "internalType": "uint256",
          "name": "upperBound",
          "type": "uint256"
        },
        {
          "indexed": true,
          "internalType": "uint256",
          "name": "lowerBound",
          "type": "uint256"
        }
      ],
      "name": "ValidateConfigAdded",
      "type": "event"
    },
    {
      "inputs": [],
      "name": "acceptOwnership",
      "outputs": [],
      "stateMutability": "nonpayable",
      "type": "function"
    },
    {
      "inputs": [],
      "name": "accessControlManager",
      "outputs": [
        {
          "internalType": "contract IAccessControlManagerV8",
          "name": "",
          "type": "address"
        }
      ],
      "stateMutability": "view",
      "type": "function"
    },
    {
      "inputs": [
        {
          "internalType": "address",
          "name": "accessControlManager_",
          "type": "address"
        }
      ],
      "name": "initialize",
      "outputs": [],
      "stateMutability": "nonpayable",
      "type": "function"
    },
    {
      "inputs": [],
      "name": "owner",
      "outputs": [
        {
          "internalType": "address",
          "name": "",
          "type": "address"
        }
      ],
      "stateMutability": "view",
      "type": "function"
    },
    {
      "inputs": [],
      "name": "pendingOwner",
      "outputs": [
        {
          "internalType": "address",
          "name": "",
          "type": "address"
        }
      ],
      "stateMutability": "view",
      "type": "function"
    },
    {
      "inputs": [],
      "name": "renounceOwnership",
      "outputs": [],
      "stateMutability": "nonpayable",
      "type": "function"
    },
    {
      "inputs": [
        {
          "internalType": "address",
          "name": "accessControlManager_",
          "type": "address"
        }
      ],
      "name": "setAccessControlManager",
      "outputs": [],
      "stateMutability": "nonpayable",
      "type": "function"
    },
    {
      "inputs": [
        {
          "components": [
            {
              "internalType": "address",
              "name": "asset",
              "type": "address"
            },
            {
              "internalType": "uint256",
              "name": "upperBoundRatio",
              "type": "uint256"
            },
            {
              "internalType": "uint256",
              "name": "lowerBoundRatio",
              "type": "uint256"
            }
          ],
          "internalType": "struct BoundValidator.ValidateConfig",
          "name": "config",
          "type": "tuple"
        }
      ],
      "name": "setValidateConfig",
      "outputs": [],
      "stateMutability": "nonpayable",
      "type": "function"
    },
    {
      "inputs": [
        {
          "components": [
            {
              "internalType": "address",
              "name": "asset",
              "type": "address"
            },
            {
              "internalType": "uint256",
              "name": "upperBoundRatio",
              "type": "uint256"
            },
            {
              "internalType": "uint256",
              "name": "lowerBoundRatio",
              "type": "uint256"
            }
          ],
          "internalType": "struct BoundValidator.ValidateConfig[]",
          "name": "configs",
          "type": "tuple[]"
        }
      ],
      "name": "setValidateConfigs",
      "outputs": [],
      "stateMutability": "nonpayable",
      "type": "function"
    },
    {
      "inputs": [
        {
          "internalType": "address",
          "name": "newOwner",
          "type": "address"
        }
      ],
      "name": "transferOwnership",
      "outputs": [],
      "stateMutability": "nonpayable",
      "type": "function"
    },
    {
      "inputs": [
        {
          "internalType": "address",
          "name": "",
          "type": "address"
        }
      ],
      "name": "validateConfigs",
      "outputs": [
        {
          "internalType": "address",
          "name": "asset",
          "type": "address"
        },
        {
          "internalType": "uint256",
          "name": "upperBoundRatio",
          "type": "uint256"
        },
        {
          "internalType": "uint256",
          "name": "lowerBoundRatio",
          "type": "uint256"
        }
      ],
      "stateMutability": "view",
      "type": "function"
    },
    {
      "inputs": [
        {
          "internalType": "address",
          "name": "asset",
          "type": "address"
        },
        {
          "internalType": "uint256",
          "name": "reportedPrice",
          "type": "uint256"
        },
        {
          "internalType": "uint256",
          "name": "anchorPrice",
          "type": "uint256"
        }
      ],
      "name": "validatePriceWithAnchorPrice",
      "outputs": [
        {
          "internalType": "bool",
          "name": "",
          "type": "bool"
        }
      ],
      "stateMutability": "view",
      "type": "function"
    }
  ],
  "transactionHash": "0x79ef181d7a2336a0fdfa72a3c5cd1cde948309b3c44a3f7971820ffb4d4ae732",
  "args": [],
  "numDeployments": 1,
  "solcInputHash": "c3eebb33ec692fad160aed655c5e5531",
  "bytecode": "0x6080604052348015600f57600080fd5b506016601a565b60d7565b600054610100900460ff161560855760405162461bcd60e51b815260206004820152602760248201527f496e697469616c697a61626c653a20636f6e747261637420697320696e697469604482015266616c697a696e6760c81b606482015260840160405180910390fd5b60005460ff9081161460d5576000805460ff191660ff9081179091556040519081527f7f26b83ff96e1f2b6a682f133852f6798a09c465da95921460cefb38474024989060200160405180910390a15b565b610e23806100e66000396000f3fe608060405234801561001057600080fd5b50600436106100b45760003560e01c8063af9e6c5b11610071578063af9e6c5b1461013e578063b4a0bdf314610151578063bca9e11614610162578063c4d66de8146101c0578063e30c3978146101d3578063f2fde38b146101e457600080fd5b80630e32cb86146100b9578063715018a6146100ce57806379ba5097146100d65780638da5cb5b146100de57806397c7033e146101085780639c3576151461012b575b600080fd5b6100cc6100c7366004610a9b565b6101f7565b005b6100cc61020b565b6100cc61021f565b6033546001600160a01b03165b6040516001600160a01b0390911681526020015b60405180910390f35b61011b610116366004610ab6565b61029b565b60405190151581526020016100ff565b6100cc610139366004610b91565b61036a565b6100cc61014c366004610c41565b6103f7565b6097546001600160a01b03166100eb565b61019b610170366004610a9b565b60c9602052600090815260409020805460018201546002909201546001600160a01b03909116919083565b604080516001600160a01b0390941684526020840192909252908201526060016100ff565b6100cc6101ce366004610a9b565b6105ad565b6065546001600160a01b03166100eb565b6100cc6101f2366004610a9b565b6106c1565b6101ff610732565b6102088161078c565b50565b610213610732565b61021d600061084a565b565b60655433906001600160a01b031681146102925760405162461bcd60e51b815260206004820152602960248201527f4f776e61626c6532537465703a2063616c6c6572206973206e6f7420746865206044820152683732bb9037bbb732b960b91b60648201526084015b60405180910390fd5b6102088161084a565b6001600160a01b038316600090815260c9602052604081206001015481036103055760405162461bcd60e51b815260206004820152601b60248201527f76616c69646174696f6e20636f6e666967206e6f7420657869737400000000006044820152606401610289565b816000036103555760405162461bcd60e51b815260206004820152601960248201527f616e63686f72207072696365206973206e6f742076616c6964000000000000006044820152606401610289565b610360848484610863565b90505b9392505050565b805160008190036103bd5760405162461bcd60e51b815260206004820152601e60248201527f696e76616c69642076616c696461746520636f6e666967206c656e67746800006044820152606401610289565b60005b818110156103f2576103ea8382815181106103dd576103dd610c5d565b60200260200101516103f7565b6001016103c0565b505050565b610418604051806060016040528060218152602001610dcd602191396108d5565b80516001600160a01b031661046f5760405162461bcd60e51b815260206004820152601b60248201527f61737365742063616e2774206265207a65726f206164647265737300000000006044820152606401610289565b6020810151158061048257506040810151155b156104c85760405162461bcd60e51b8152602060048201526016602482015275626f756e64206d75737420626520706f73697469766560501b6044820152606401610289565b80604001518160200151116105345760405162461bcd60e51b815260206004820152602c60248201527f757070657220626f756e64206d75737420626520686967686572207468616e2060448201526b1b1bdddb995c88189bdd5b9960a21b6064820152608401610289565b80516001600160a01b03908116600090815260c960209081526040808320855181546001600160a01b03191695169485178155918501516001830181905581860151600290930183905590519193909290917f28e2d96bdcf74fe6203e40d159d27ec2e15230239c0aee4a0a914196c550e6d19190a450565b600054610100900460ff16158080156105cd5750600054600160ff909116105b806105e75750303b1580156105e7575060005460ff166001145b61064a5760405162461bcd60e51b815260206004820152602e60248201527f496e697469616c697a61626c653a20636f6e747261637420697320616c72656160448201526d191e481a5b9a5d1a585b1a5e995960921b6064820152608401610289565b6000805460ff19166001179055801561066d576000805461ff0019166101001790555b6106768261096f565b80156106bd576000805461ff0019169055604051600181527f7f26b83ff96e1f2b6a682f133852f6798a09c465da95921460cefb3847402498906020015b60405180910390a15b5050565b6106c9610732565b606580546001600160a01b0383166001600160a01b031990911681179091556106fa6033546001600160a01b031690565b6001600160a01b03167f38d16b8cac22d99fc7c124b9cd0de2d3fa1faef420bfe791d8c362d765e2270060405160405180910390a350565b6033546001600160a01b0316331461021d5760405162461bcd60e51b815260206004820181905260248201527f4f776e61626c653a2063616c6c6572206973206e6f7420746865206f776e65726044820152606401610289565b6001600160a01b0381166107f05760405162461bcd60e51b815260206004820152602560248201527f696e76616c696420616365737320636f6e74726f6c206d616e61676572206164604482015264647265737360d81b6064820152608401610289565b609780546001600160a01b038381166001600160a01b031983168117909355604080519190921680825260208201939093527f66fd58e82f7b31a2a5c30e0888f3093efe4e111b00cd2b0c31fe014601293aa091016106b4565b606580546001600160a01b0319169055610208816109a7565b600082156108cb5760008361088084670de0b6b3a7640000610c73565b61088a9190610c9e565b6001600160a01b038616600090815260c9602052604090206001810154600290910154919250908183118015906108c15750808310155b9350505050610363565b5060009392505050565b6097546040516318c5e8ab60e01b81526000916001600160a01b0316906318c5e8ab906109089033908690600401610d06565b602060405180830381865afa158015610925573d6000803e3d6000fd5b505050506040513d601f19601f820116820180604052508101906109499190610d2a565b9050806106bd57333083604051634a3fa29360e01b815260040161028993929190610d4c565b600054610100900460ff166109965760405162461bcd60e51b815260040161028990610d81565b61099e6109f9565b61020881610a28565b603380546001600160a01b038381166001600160a01b0319831681179093556040519116919082907f8be0079c531659141344cd1fd0a4f28419497f9722a3daafe3b4186f6b6457e090600090a35050565b600054610100900460ff16610a205760405162461bcd60e51b815260040161028990610d81565b61021d610a4f565b600054610100900460ff166101ff5760405162461bcd60e51b815260040161028990610d81565b600054610100900460ff16610a765760405162461bcd60e51b815260040161028990610d81565b61021d3361084a565b80356001600160a01b0381168114610a9657600080fd5b919050565b600060208284031215610aad57600080fd5b61036382610a7f565b600080600060608486031215610acb57600080fd5b610ad484610a7f565b95602085013595506040909401359392505050565b634e487b7160e01b600052604160045260246000fd5b604051601f8201601f1916810167ffffffffffffffff81118282101715610b2857610b28610ae9565b604052919050565b600060608284031215610b4257600080fd5b6040516060810181811067ffffffffffffffff82111715610b6557610b65610ae9565b604052905080610b7483610a7f565b815260208301356020820152604083013560408201525092915050565b60006020808385031215610ba457600080fd5b823567ffffffffffffffff80821115610bbc57600080fd5b818501915085601f830112610bd057600080fd5b813581811115610be257610be2610ae9565b610bf0848260051b01610aff565b81815284810192506060918202840185019188831115610c0f57600080fd5b938501935b82851015610c3557610c268986610b30565b84529384019392850192610c14565b50979650505050505050565b600060608284031215610c5357600080fd5b6103638383610b30565b634e487b7160e01b600052603260045260246000fd5b8082028115828204841417610c9857634e487b7160e01b600052601160045260246000fd5b92915050565b600082610cbb57634e487b7160e01b600052601260045260246000fd5b500490565b6000815180845260005b81811015610ce657602081850181015186830182015201610cca565b506000602082860101526020601f19601f83011685010191505092915050565b6001600160a01b038316815260406020820181905260009061036090830184610cc0565b600060208284031215610d3c57600080fd5b8151801515811461036357600080fd5b6001600160a01b03848116825283166020820152606060408201819052600090610d7890830184610cc0565b95945050505050565b6020808252602b908201527f496e697469616c697a61626c653a20636f6e7472616374206973206e6f74206960408201526a6e697469616c697a696e6760a81b60608201526080019056fe73657456616c6964617465436f6e6669672856616c6964617465436f6e66696729a26469706673582212202fa02b19dc7ec59f27f3ea3080032915a93ebddf3ef950808333badd620e41a564736f6c63430008190033",
  "devdoc": {
    "author": "Venus",
    "events": {
      "Initialized(uint8)": {
        "details": "Triggered when the contract has been initialized or reinitialized."
      }
    },
    "kind": "dev",
    "methods": {
      "acceptOwnership()": {
        "details": "The new owner accepts the ownership transfer."
      },
      "constructor": {
        "custom:oz-upgrades-unsafe-allow": "constructor"
      },
      "initialize(address)": {
        "params": {
          "accessControlManager_": "Address of the access control manager contract"
        }
      },
      "owner()": {
        "details": "Returns the address of the current owner."
      },
      "pendingOwner()": {
        "details": "Returns the address of the pending owner."
      },
      "renounceOwnership()": {
        "details": "Leaves the contract without owner. It will not be possible to call `onlyOwner` functions. Can only be called by the current owner. NOTE: Renouncing ownership will leave the contract without an owner, thereby disabling any functionality that is only available to the owner."
      },
      "setAccessControlManager(address)": {
        "custom:access": "Only Governance",
        "custom:event": "Emits NewAccessControlManager event",
        "details": "Admin function to set address of AccessControlManager",
        "params": {
          "accessControlManager_": "The new address of the AccessControlManager"
        }
      },
      "setValidateConfig((address,uint256,uint256))": {
        "custom:access": "Only Governance",
        "custom:error": "Null address error is thrown if asset address is nullRange error thrown if bound ratio is not positiveRange error thrown if lower bound is greater than or equal to upper bound",
        "custom:event": "Emits ValidateConfigAdded when a validation config is successfully set",
        "params": {
          "config": "Validation config struct"
        }
      },
      "setValidateConfigs((address,uint256,uint256)[])": {
        "custom:access": "Only Governance",
        "custom:error": "Zero length error is thrown if length of the config array is 0",
        "custom:event": "Emits ValidateConfigAdded for each validation config that is successfully set",
        "params": {
          "configs": "Array of validation configs"
        }
      },
      "transferOwnership(address)": {
        "details": "Starts the ownership transfer of the contract to a new account. Replaces the pending transfer if there is one. Can only be called by the current owner."
      },
      "validatePriceWithAnchorPrice(address,uint256,uint256)": {
        "custom:error": "Missing error thrown if asset config is not setPrice error thrown if anchor price is not valid",
        "params": {
          "asset": "asset address",
          "reportedPrice": "The price to be tested"
        }
      }
    },
    "title": "BoundValidator",
    "version": 1
  },
  "userdoc": {
    "errors": {
      "Unauthorized(address,address,string)": [
        {
          "notice": "Thrown when the action is prohibited by AccessControlManager"
        }
      ]
    },
    "events": {
      "NewAccessControlManager(address,address)": {
        "notice": "Emitted when access control manager contract address is changed"
      },
      "ValidateConfigAdded(address,uint256,uint256)": {
        "notice": "Emit this event when new validation configs are added"
      }
    },
    "kind": "user",
    "methods": {
      "accessControlManager()": {
        "notice": "Returns the address of the access control manager contract"
      },
      "constructor": {
        "notice": "Constructor for the implementation contract. Sets immutable variables."
      },
      "initialize(address)": {
        "notice": "Initializes the owner of the contract"
      },
      "setAccessControlManager(address)": {
        "notice": "Sets the address of AccessControlManager"
      },
      "setValidateConfig((address,uint256,uint256))": {
        "notice": "Add a single validation config"
      },
      "setValidateConfigs((address,uint256,uint256)[])": {
        "notice": "Add multiple validation configs at the same time"
      },
      "validateConfigs(address)": {
        "notice": "validation configs by asset"
      },
      "validatePriceWithAnchorPrice(address,uint256,uint256)": {
        "notice": "Test reported asset price against anchor price"
      }
    },
    "notice": "The BoundValidator contract is used to validate prices fetched from two different sources. Each asset has an upper and lower bound ratio set in the config. In order for a price to be valid it must fall within this range of the validator price.",
    "version": 1
  },
  "storageLayout": {
    "storage": [
      {
        "astId": 349,
        "contract": "contracts/oracles/BoundValidator.sol:BoundValidator",
        "label": "_initialized",
        "offset": 0,
        "slot": "0",
        "type": "t_uint8"
      },
      {
        "astId": 352,
        "contract": "contracts/oracles/BoundValidator.sol:BoundValidator",
        "label": "_initializing",
        "offset": 1,
        "slot": "0",
        "type": "t_bool"
      },
      {
        "astId": 1019,
        "contract": "contracts/oracles/BoundValidator.sol:BoundValidator",
        "label": "__gap",
        "offset": 0,
        "slot": "1",
        "type": "t_array(t_uint256)50_storage"
      },
      {
        "astId": 221,
        "contract": "contracts/oracles/BoundValidator.sol:BoundValidator",
        "label": "_owner",
        "offset": 0,
        "slot": "51",
        "type": "t_address"
      },
      {
        "astId": 341,
        "contract": "contracts/oracles/BoundValidator.sol:BoundValidator",
        "label": "__gap",
        "offset": 0,
        "slot": "52",
        "type": "t_array(t_uint256)49_storage"
      },
      {
        "astId": 114,
        "contract": "contracts/oracles/BoundValidator.sol:BoundValidator",
        "label": "_pendingOwner",
        "offset": 0,
        "slot": "101",
        "type": "t_address"
      },
      {
        "astId": 208,
        "contract": "contracts/oracles/BoundValidator.sol:BoundValidator",
        "label": "__gap",
        "offset": 0,
        "slot": "102",
        "type": "t_array(t_uint256)49_storage"
      },
      {
        "astId": 3586,
        "contract": "contracts/oracles/BoundValidator.sol:BoundValidator",
        "label": "_accessControlManager",
        "offset": 0,
        "slot": "151",
        "type": "t_contract(IAccessControlManagerV8)3771"
      },
      {
        "astId": 3591,
        "contract": "contracts/oracles/BoundValidator.sol:BoundValidator",
        "label": "__gap",
        "offset": 0,
        "slot": "152",
        "type": "t_array(t_uint256)49_storage"
      },
      {
        "astId": 6007,
        "contract": "contracts/oracles/BoundValidator.sol:BoundValidator",
        "label": "validateConfigs",
        "offset": 0,
        "slot": "201",
        "type": "t_mapping(t_address,t_struct(ValidateConfig)6001_storage)"
      },
      {
        "astId": 6235,
        "contract": "contracts/oracles/BoundValidator.sol:BoundValidator",
        "label": "__gap",
        "offset": 0,
        "slot": "202",
        "type": "t_array(t_uint256)49_storage"
      }
    ],
    "types": {
      "t_address": {
        "encoding": "inplace",
        "label": "address",
        "numberOfBytes": "20"
      },
      "t_array(t_uint256)49_storage": {
        "base": "t_uint256",
        "encoding": "inplace",
        "label": "uint256[49]",
        "numberOfBytes": "1568"
      },
      "t_array(t_uint256)50_storage": {
        "base": "t_uint256",
        "encoding": "inplace",
        "label": "uint256[50]",
        "numberOfBytes": "1600"
      },
      "t_bool": {
        "encoding": "inplace",
        "label": "bool",
        "numberOfBytes": "1"
      },
      "t_contract(IAccessControlManagerV8)3771": {
        "encoding": "inplace",
        "label": "contract IAccessControlManagerV8",
        "numberOfBytes": "20"
      },
      "t_mapping(t_address,t_struct(ValidateConfig)6001_storage)": {
        "encoding": "mapping",
        "key": "t_address",
        "label": "mapping(address => struct BoundValidator.ValidateConfig)",
        "numberOfBytes": "32",
        "value": "t_struct(ValidateConfig)6001_storage"
      },
      "t_struct(ValidateConfig)6001_storage": {
        "encoding": "inplace",
        "label": "struct BoundValidator.ValidateConfig",
        "members": [
          {
            "astId": 5994,
            "contract": "contracts/oracles/BoundValidator.sol:BoundValidator",
            "label": "asset",
            "offset": 0,
            "slot": "0",
            "type": "t_address"
          },
          {
            "astId": 5997,
            "contract": "contracts/oracles/BoundValidator.sol:BoundValidator",
            "label": "upperBoundRatio",
            "offset": 0,
            "slot": "1",
            "type": "t_uint256"
          },
          {
            "astId": 6000,
            "contract": "contracts/oracles/BoundValidator.sol:BoundValidator",
            "label": "lowerBoundRatio",
            "offset": 0,
            "slot": "2",
            "type": "t_uint256"
          }
        ],
        "numberOfBytes": "96"
      },
      "t_uint256": {
        "encoding": "inplace",
        "label": "uint256",
        "numberOfBytes": "32"
      },
      "t_uint8": {
        "encoding": "inplace",
        "label": "uint8",
        "numberOfBytes": "1"
      }
    }
  }
}