{
  "address": "0x5b6c86d6111E010aC62cf74E55D489455806B22A",
  "abi": [
    {
      "inputs": [],
      "stateMutability": "nonpayable",
      "type": "constructor"
    },
    {
      "inputs": [
        {
          "internalType": "address",
          "name": "sender",
          "type": "address"
        },
        {
          "internalType": "address",
          "name": "calledContract",
          "type": "address"
        },
        {
          "internalType": "string",
          "name": "methodSignature",
          "type": "string"
        }
      ],
      "name": "Unauthorized",
      "type": "error"
    },
    {
      "anonymous": false,
      "inputs": [
        {
          "indexed": false,
          "internalType": "uint8",
          "name": "version",
          "type": "uint8"
        }
      ],
      "name": "Initialized",
      "type": "event"
    },
    {
      "anonymous": false,
      "inputs": [
        {
          "indexed": true,
          "internalType": "string",
          "name": "asset",
          "type": "string"
        },
        {
          "indexed": false,
          "internalType": "uint256",
          "name": "maxStalePeriod",
          "type": "uint256"
        }
      ],
      "name": "MaxStalePeriodAdded",
      "type": "event"
    },
    {
      "anonymous": false,
      "inputs": [
        {
          "indexed": false,
          "internalType": "address",
          "name": "oldAccessControlManager",
          "type": "address"
        },
        {
          "indexed": false,
          "internalType": "address",
          "name": "newAccessControlManager",
          "type": "address"
        }
      ],
      "name": "NewAccessControlManager",
      "type": "event"
    },
    {
      "anonymous": false,
      "inputs": [
        {
          "indexed": true,
          "internalType": "address",
          "name": "previousOwner",
          "type": "address"
        },
        {
          "indexed": true,
          "internalType": "address",
          "name": "newOwner",
          "type": "address"
        }
      ],
      "name": "OwnershipTransferStarted",
      "type": "event"
    },
    {
      "anonymous": false,
      "inputs": [
        {
          "indexed": true,
          "internalType": "address",
          "name": "previousOwner",
          "type": "address"
        },
        {
          "indexed": true,
          "internalType": "address",
          "name": "newOwner",
          "type": "address"
        }
      ],
      "name": "OwnershipTransferred",
      "type": "event"
    },
    {
      "anonymous": false,
      "inputs": [
        {
          "indexed": true,
          "internalType": "string",
          "name": "symbol",
          "type": "string"
        },
        {
          "indexed": false,
          "internalType": "string",
          "name": "overriddenSymbol",
          "type": "string"
        }
      ],
      "name": "SymbolOverridden",
      "type": "event"
    },
    {
      "inputs": [],
      "name": "BNB_ADDR",
      "outputs": [
        {
          "internalType": "address",
          "name": "",
          "type": "address"
        }
      ],
      "stateMutability": "view",
      "type": "function"
    },
    {
      "inputs": [],
      "name": "acceptOwnership",
      "outputs": [],
      "stateMutability": "nonpayable",
      "type": "function"
    },
    {
      "inputs": [],
      "name": "accessControlManager",
      "outputs": [
        {
          "internalType": "contract IAccessControlManagerV8",
          "name": "",
          "type": "address"
        }
      ],
      "stateMutability": "view",
      "type": "function"
    },
    {
      "inputs": [],
      "name": "getFeedRegistryAddress",
      "outputs": [
        {
          "internalType": "address",
          "name": "",
          "type": "address"
        }
      ],
      "stateMutability": "view",
      "type": "function"
    },
    {
      "inputs": [
        {
          "internalType": "address",
          "name": "asset",
          "type": "address"
        }
      ],
      "name": "getPrice",
      "outputs": [
        {
          "internalType": "uint256",
          "name": "",
          "type": "uint256"
        }
      ],
      "stateMutability": "view",
      "type": "function"
    },
    {
      "inputs": [
        {
          "internalType": "address",
          "name": "_sidRegistryAddress",
          "type": "address"
        },
        {
          "internalType": "address",
          "name": "_accessControlManager",
          "type": "address"
        }
      ],
      "name": "initialize",
      "outputs": [],
      "stateMutability": "nonpayable",
      "type": "function"
    },
    {
      "inputs": [
        {
          "internalType": "string",
          "name": "",
          "type": "string"
        }
      ],
      "name": "maxStalePeriod",
      "outputs": [
        {
          "internalType": "uint256",
          "name": "",
          "type": "uint256"
        }
      ],
      "stateMutability": "view",
      "type": "function"
    },
    {
      "inputs": [],
      "name": "owner",
      "outputs": [
        {
          "internalType": "address",
          "name": "",
          "type": "address"
        }
      ],
      "stateMutability": "view",
      "type": "function"
    },
    {
      "inputs": [],
      "name": "pendingOwner",
      "outputs": [
        {
          "internalType": "address",
          "name": "",
          "type": "address"
        }
      ],
      "stateMutability": "view",
      "type": "function"
    },
    {
      "inputs": [],
      "name": "renounceOwnership",
      "outputs": [],
      "stateMutability": "nonpayable",
      "type": "function"
    },
    {
      "inputs": [
        {
          "internalType": "address",
          "name": "accessControlManager_",
          "type": "address"
        }
      ],
      "name": "setAccessControlManager",
      "outputs": [],
      "stateMutability": "nonpayable",
      "type": "function"
    },
    {
      "inputs": [
        {
          "internalType": "string",
          "name": "symbol",
          "type": "string"
        },
        {
          "internalType": "uint256",
          "name": "_maxStalePeriod",
          "type": "uint256"
        }
      ],
      "name": "setMaxStalePeriod",
      "outputs": [],
      "stateMutability": "nonpayable",
      "type": "function"
    },
    {
      "inputs": [
        {
          "internalType": "string",
          "name": "symbol",
          "type": "string"
        },
        {
          "internalType": "string",
          "name": "overrideSymbol",
          "type": "string"
        }
      ],
      "name": "setSymbolOverride",
      "outputs": [],
      "stateMutability": "nonpayable",
      "type": "function"
    },
    {
      "inputs": [],
      "name": "sidRegistryAddress",
      "outputs": [
        {
          "internalType": "address",
          "name": "",
          "type": "address"
        }
      ],
      "stateMutability": "view",
      "type": "function"
    },
    {
      "inputs": [
        {
          "internalType": "string",
          "name": "",
          "type": "string"
        }
      ],
      "name": "symbols",
      "outputs": [
        {
          "internalType": "string",
          "name": "",
          "type": "string"
        }
      ],
      "stateMutability": "view",
      "type": "function"
    },
    {
      "inputs": [
        {
          "internalType": "address",
          "name": "newOwner",
          "type": "address"
        }
      ],
      "name": "transferOwnership",
      "outputs": [],
      "stateMutability": "nonpayable",
      "type": "function"
    }
  ],
  "transactionHash": "0xa40e606297b1bfdc82b5a2b8e3b1a6beedf0b0680a8e04008e63cdfdff04c701",
  "args": [],
  "numDeployments": 1,
  "solcInputHash": "b4962e27443e3bf2f87d1cfaf12c7854",
  "bytecode": "0x608060405234801561001057600080fd5b5061001961001e565b6100de565b600054610100900460ff161561008a5760405162461bcd60e51b815260206004820152602760248201527f496e697469616c697a61626c653a20636f6e747261637420697320696e697469604482015266616c697a696e6760c81b606482015260840160405180910390fd5b60005460ff90811610156100dc576000805460ff191660ff9081179091556040519081527f7f26b83ff96e1f2b6a682f133852f6798a09c465da95921460cefb38474024989060200160405180910390a15b565b6117c9806100ed6000396000f3fe608060405234801561001057600080fd5b50600436106101005760003560e01c806379ba509711610097578063b4a0bdf311610066578063b4a0bdf31461020c578063e30c39781461021d578063f2fde38b1461022e578063fdfbc2771461024157600080fd5b806379ba5097146101d85780638da5cb5b146101e057806399fe040e146101f15780639eab1ad6146101f957600080fd5b8063475e7de5116100d3578063475e7de514610197578063485cc955146101aa578063636b999a146101bd578063715018a6146101d057600080fd5b8063047a74b2146101055780630e32cb861461012e5780633e83b6b81461014357806341976e0914610176575b600080fd5b610118610113366004611177565b61026c565b6040516101259190611210565b60405180910390f35b61014161013c36600461123f565b610311565b005b61015e73bbbbbbbbbbbbbbbbbbbbbbbbbbbbbbbbbbbbbbbb81565b6040516001600160a01b039091168152602001610125565b61018961018436600461123f565b610325565b604051908152602001610125565b60c95461015e906001600160a01b031681565b6101416101b836600461125c565b610513565b6101416101cb366004611295565b610697565b6101416107bf565b6101416107d3565b6033546001600160a01b031661015e565b61015e61084a565b610141610207366004611323565b610958565b6097546001600160a01b031661015e565b6065546001600160a01b031661015e565b61014161023c36600461123f565b610a66565b61018961024f366004611177565b805160208183018101805160ca8252928201919093012091525481565b805160208183018101805160cb82529282019190930120915280546102909061138f565b80601f01602080910402602001604051908101604052809291908181526020018280546102bc9061138f565b80156103095780601f106102de57610100808354040283529160200191610309565b820191906000526020600020905b8154815290600101906020018083116102ec57829003601f168201915b505050505081565b610319610ad7565b61032281610b31565b50565b600060608173bbbbbbbbbbbbbbbbbbbbbbbbbbbbbbbbbbbbbbba196001600160a01b0385160161037257505060408051808201909152600381526221272160e91b60208201526012610448565b6000849050806001600160a01b03166395d89b416040518163ffffffff1660e01b8152600401600060405180830381865afa1580156103b5573d6000803e3d6000fd5b505050506040513d6000823e601f3d908101601f191682016040526103dd91908101906113c9565b9250806001600160a01b031663313ce5676040518163ffffffff1660e01b8152600401602060405180830381865afa15801561041d573d6000803e3d6000fd5b505050506040513d601f19601f820116820180604052508101906104419190611437565b60ff169150505b600060cb8360405161045a919061145a565b908152602001604051809103902080546104739061138f565b80601f016020809104026020016040519081016040528092919081815260200182805461049f9061138f565b80156104ec5780601f106104c1576101008083540402835291602001916104ec565b820191906000526020600020905b8154815290600101906020018083116104cf57829003601f168201915b505050505090508051600014610500578092505b61050a8383610bf6565b95945050505050565b600054610100900460ff16158080156105335750600054600160ff909116105b8061054d5750303b15801561054d575060005460ff166001145b6105b55760405162461bcd60e51b815260206004820152602e60248201527f496e697469616c697a61626c653a20636f6e747261637420697320616c72656160448201526d191e481a5b9a5d1a585b1a5e995960921b60648201526084015b60405180910390fd5b6000805460ff1916600117905580156105d8576000805461ff0019166101001790555b826001600160a01b0381166106275760405162461bcd60e51b815260206004820152601560248201527463616e2774206265207a65726f206164647265737360581b60448201526064016105ac565b60c980546001600160a01b0319166001600160a01b03861617905561064b83610e52565b508015610692576000805461ff0019169055604051600181527f7f26b83ff96e1f2b6a682f133852f6798a09c465da95921460cefb38474024989060200160405180910390a15b505050565b6106b860405180606001604052806021815260200161177360219139610e8a565b806000036107085760405162461bcd60e51b815260206004820152601a60248201527f7374616c6520706572696f642063616e2774206265207a65726f00000000000060448201526064016105ac565b81516000036107525760405162461bcd60e51b815260206004820152601660248201527573796d626f6c2063616e6e6f7420626520656d70747960501b60448201526064016105ac565b8060ca83604051610763919061145a565b9081526040519081900360200181209190915561078190839061145a565b604051908190038120828252907f37839d4a80c5e3f2578f59515c911ee8cce42383d7ebaa1c92afcde9871c4b589060200160405180910390a25050565b6107c7610ad7565b6107d16000610f28565b565b60655433906001600160a01b031681146108415760405162461bcd60e51b815260206004820152602960248201527f4f776e61626c6532537465703a2063616c6c6572206973206e6f7420746865206044820152683732bb9037bbb732b960b91b60648201526084016105ac565b61032281610f28565b60c954604051630178b8bf60e01b81527f94fe3821e0768eb35012484db4df61890f9a6ca5bfa984ef8ff717e73139faff6004820181905260009290916001600160a01b039091169083908290630178b8bf90602401602060405180830381865afa1580156108bd573d6000803e3d6000fd5b505050506040513d601f19601f820116820180604052508101906108e19190611476565b604051631d9dabef60e11b81526004810185905290915081906001600160a01b03821690633b3b57de90602401602060405180830381865afa15801561092b573d6000803e3d6000fd5b505050506040513d601f19601f8201168201806040525081019061094f9190611476565b94505050505090565b6109966040518060400160405280602081526020017f73657453796d626f6c4f7665727269646528737472696e672c737472696e6729815250610e8a565b60008390036109e05760405162461bcd60e51b815260206004820152601660248201527573796d626f6c2063616e6e6f7420626520656d70747960501b60448201526064016105ac565b818160cb86866040516109f4929190611493565b908152604051908190036020019020610a0e929091611019565b508383604051610a1f929190611493565b60405180910390207fceb1f47aa91b96f02ea70e1deed25fe154ad1885aea509bd7222f9eec0a0bda58383604051610a589291906114a3565b60405180910390a250505050565b610a6e610ad7565b606580546001600160a01b0383166001600160a01b03199091168117909155610a9f6033546001600160a01b031690565b6001600160a01b03167f38d16b8cac22d99fc7c124b9cd0de2d3fa1faef420bfe791d8c362d765e2270060405160405180910390a350565b6033546001600160a01b031633146107d15760405162461bcd60e51b815260206004820181905260248201527f4f776e61626c653a2063616c6c6572206973206e6f7420746865206f776e657260448201526064016105ac565b6001600160a01b038116610b955760405162461bcd60e51b815260206004820152602560248201527f696e76616c696420616365737320636f6e74726f6c206d616e61676572206164604482015264647265737360d81b60648201526084016105ac565b609780546001600160a01b038381166001600160a01b031983168117909355604080519190921680825260208201939093527f66fd58e82f7b31a2a5c30e0888f3093efe4e111b00cd2b0c31fe014601293aa0910160405180910390a15050565b600080610c0161084a565b9050600080826001600160a01b031663bfda5e71876040518263ffffffff1660e01b8152600401610c3291906114d2565b60a060405180830381865afa158015610c4f573d6000803e3d6000fd5b505050506040513d601f19601f82011682018060405250810190610c739190611529565b5093505092505060008213610cca5760405162461bcd60e51b815260206004820152601c60248201527f696e76616c69642062696e616e6365206f7261636c652070726963650000000060448201526064016105ac565b80421015610d1a5760405162461bcd60e51b815260206004820152601c60248201527f757064617465644174206578636565647320626c6f636b2074696d650000000060448201526064016105ac565b6000814203905060ca87604051610d31919061145a565b908152602001604051809103902054811115610d8f5760405162461bcd60e51b815260206004820152601c60248201527f62696e616e6365206f7261636c6520707269636520657870697265640000000060448201526064016105ac565b604051633748ccad60e11b81526000906001600160a01b03861690636e91995a90610dbe908b906004016114d2565b602060405180830381865afa158015610ddb573d6000803e3d6000fd5b505050506040513d601f19601f82011682018060405250810190610dff9190611437565b60ff169050610e0f87601261158f565b610e1a90600a61168a565b610e2582601261158f565b610e3090600a61168a565b610e3a9086611696565b610e449190611696565b955050505050505b92915050565b600054610100900460ff16610e795760405162461bcd60e51b81526004016105ac906116b5565b610e81610f41565b61032281610f70565b6097546040516318c5e8ab60e01b81526000916001600160a01b0316906318c5e8ab90610ebd9033908690600401611700565b602060405180830381865afa158015610eda573d6000803e3d6000fd5b505050506040513d601f19601f82011682018060405250810190610efe9190611724565b905080610f2457333083604051634a3fa29360e01b81526004016105ac93929190611746565b5050565b606580546001600160a01b031916905561032281610f97565b600054610100900460ff16610f685760405162461bcd60e51b81526004016105ac906116b5565b6107d1610fe9565b600054610100900460ff166103195760405162461bcd60e51b81526004016105ac906116b5565b603380546001600160a01b038381166001600160a01b0319831681179093556040519116919082907f8be0079c531659141344cd1fd0a4f28419497f9722a3daafe3b4186f6b6457e090600090a35050565b600054610100900460ff166110105760405162461bcd60e51b81526004016105ac906116b5565b6107d133610f28565b8280546110259061138f565b90600052602060002090601f016020900481019282611047576000855561108d565b82601f106110605782800160ff1982351617855561108d565b8280016001018555821561108d579182015b8281111561108d578235825591602001919060010190611072565b5061109992915061109d565b5090565b5b80821115611099576000815560010161109e565b634e487b7160e01b600052604160045260246000fd5b604051601f8201601f1916810167ffffffffffffffff811182821017156110f1576110f16110b2565b604052919050565b600067ffffffffffffffff821115611113576111136110b2565b50601f01601f191660200190565b600082601f83011261113257600080fd5b8135611145611140826110f9565b6110c8565b81815284602083860101111561115a57600080fd5b816020850160208301376000918101602001919091529392505050565b60006020828403121561118957600080fd5b813567ffffffffffffffff8111156111a057600080fd5b6111ac84828501611121565b949350505050565b60005b838110156111cf5781810151838201526020016111b7565b838111156111de576000848401525b50505050565b600081518084526111fc8160208601602086016111b4565b601f01601f19169290920160200192915050565b60208152600061122360208301846111e4565b9392505050565b6001600160a01b038116811461032257600080fd5b60006020828403121561125157600080fd5b81356112238161122a565b6000806040838503121561126f57600080fd5b823561127a8161122a565b9150602083013561128a8161122a565b809150509250929050565b600080604083850312156112a857600080fd5b823567ffffffffffffffff8111156112bf57600080fd5b6112cb85828601611121565b95602094909401359450505050565b60008083601f8401126112ec57600080fd5b50813567ffffffffffffffff81111561130457600080fd5b60208301915083602082850101111561131c57600080fd5b9250929050565b6000806000806040858703121561133957600080fd5b843567ffffffffffffffff8082111561135157600080fd5b61135d888389016112da565b9096509450602087013591508082111561137657600080fd5b50611383878288016112da565b95989497509550505050565b600181811c908216806113a357607f821691505b6020821081036113c357634e487b7160e01b600052602260045260246000fd5b50919050565b6000602082840312156113db57600080fd5b815167ffffffffffffffff8111156113f257600080fd5b8201601f8101841361140357600080fd5b8051611411611140826110f9565b81815285602083850101111561142657600080fd5b61050a8260208301602086016111b4565b60006020828403121561144957600080fd5b815160ff8116811461122357600080fd5b6000825161146c8184602087016111b4565b9190910192915050565b60006020828403121561148857600080fd5b81516112238161122a565b8183823760009101908152919050565b60208152816020820152818360408301376000818301604090810191909152601f909201601f19160101919050565b6040815260006114e560408301846111e4565b828103602084015260038152621554d160ea1b60208201526040810191505092915050565b805169ffffffffffffffffffff8116811461152457600080fd5b919050565b600080600080600060a0868803121561154157600080fd5b61154a8661150a565b945060208601519350604086015192506060860151915061156d6080870161150a565b90509295509295909350565b634e487b7160e01b600052601160045260246000fd5b6000828210156115a1576115a1611579565b500390565b600181815b808511156115e15781600019048211156115c7576115c7611579565b808516156115d457918102915b93841c93908002906115ab565b509250929050565b6000826115f857506001610e4c565b8161160557506000610e4c565b816001811461161b576002811461162557611641565b6001915050610e4c565b60ff84111561163657611636611579565b50506001821b610e4c565b5060208310610133831016604e8410600b8410161715611664575081810a610e4c565b61166e83836115a6565b806000190482111561168257611682611579565b029392505050565b600061122383836115e9565b60008160001904831182151516156116b0576116b0611579565b500290565b6020808252602b908201527f496e697469616c697a61626c653a20636f6e7472616374206973206e6f74206960408201526a6e697469616c697a696e6760a81b606082015260800190565b6001600160a01b03831681526040602082018190526000906111ac908301846111e4565b60006020828403121561173657600080fd5b8151801515811461122357600080fd5b6001600160a01b0384811682528316602082015260606040820181905260009061050a908301846111e456fe7365744d61785374616c65506572696f6428737472696e672c75696e7432353629a2646970667358221220b14620f75369c0982fe05cba14641df0daf08e7346f94bebaaaa3a052ddd221c64736f6c634300080d0033",
  "devdoc": {
    "author": "Venus",
    "kind": "dev",
    "methods": {
      "acceptOwnership()": {
        "details": "The new owner accepts the ownership transfer."
      },
      "constructor": {
        "custom:oz-upgrades-unsafe-allow": "constructor"
      },
      "getFeedRegistryAddress()": {
        "returns": {
          "_0": "feedRegistryAddress Address of binance oracle feed registry."
        }
      },
      "getPrice(address)": {
        "params": {
          "asset": "Address of the asset"
        },
        "returns": {
          "_0": "Price in USD"
        }
      },
      "initialize(address,address)": {
        "params": {
          "_accessControlManager": "Address of the access control manager contract",
          "_sidRegistryAddress": "Address of SID registry"
        }
      },
      "owner()": {
        "details": "Returns the address of the current owner."
      },
      "pendingOwner()": {
        "details": "Returns the address of the pending owner."
      },
      "renounceOwnership()": {
        "details": "Leaves the contract without owner. It will not be possible to call `onlyOwner` functions anymore. Can only be called by the current owner. NOTE: Renouncing ownership will leave the contract without an owner, thereby removing any functionality that is only available to the owner."
      },
      "setAccessControlManager(address)": {
        "custom:access": "Only Governance",
        "custom:event": "Emits NewAccessControlManager event",
        "details": "Admin function to set address of AccessControlManager",
        "params": {
          "accessControlManager_": "The new address of the AccessControlManager"
        }
      },
      "setMaxStalePeriod(string,uint256)": {
        "params": {
          "_maxStalePeriod": "The max stake period",
          "symbol": "The symbol of the asset"
        }
      },
      "setSymbolOverride(string,string)": {
        "params": {
          "overrideSymbol": "The symbol after override",
          "symbol": "The symbol to override"
        }
      },
      "transferOwnership(address)": {
        "details": "Starts the ownership transfer of the contract to a new account. Replaces the pending transfer if there is one. Can only be called by the current owner."
      }
    },
    "title": "BinanceOracle",
    "version": 1
  },
  "userdoc": {
    "errors": {
      "Unauthorized(address,address,string)": [
        {
          "notice": "Thrown when the action is prohibited by AccessControlManager"
        }
      ]
    },
    "events": {
      "NewAccessControlManager(address,address)": {
        "notice": "Emitted when access control manager contract address is changed"
      }
    },
    "kind": "user",
    "methods": {
      "BNB_ADDR()": {
        "notice": "Set this as asset address for BNB. This is the underlying address for vBNB"
      },
      "accessControlManager()": {
        "notice": "Returns the address of the access control manager contract"
      },
      "constructor": {
        "notice": "Constructor for the implementation contract."
      },
      "getFeedRegistryAddress()": {
        "notice": "Uses Space ID to fetch the feed registry address"
      },
      "getPrice(address)": {
        "notice": "Gets the price of a asset from the binance oracle"
      },
      "initialize(address,address)": {
        "notice": "Sets the contracts required to fetch prices"
      },
      "maxStalePeriod(string)": {
        "notice": "Max stale period configuration for assets"
      },
      "setAccessControlManager(address)": {
        "notice": "Sets the address of AccessControlManager"
      },
      "setMaxStalePeriod(string,uint256)": {
        "notice": "Used to set the max stale period of an asset"
      },
      "setSymbolOverride(string,string)": {
        "notice": "Used to override a symbol when fetching price"
      },
      "symbols(string)": {
        "notice": "Override symbols to be compatible with Binance feed registry"
      }
    },
    "notice": "This oracle fetches price of assets from Binance.",
    "version": 1
  },
  "storageLayout": {
    "storage": [
      {
        "astId": 290,
        "contract": "contracts/oracles/BinanceOracle.sol:BinanceOracle",
        "label": "_initialized",
        "offset": 0,
        "slot": "0",
        "type": "t_uint8"
      },
      {
        "astId": 293,
        "contract": "contracts/oracles/BinanceOracle.sol:BinanceOracle",
        "label": "_initializing",
        "offset": 1,
        "slot": "0",
        "type": "t_bool"
      },
      {
        "astId": 904,
        "contract": "contracts/oracles/BinanceOracle.sol:BinanceOracle",
        "label": "__gap",
        "offset": 0,
        "slot": "1",
        "type": "t_array(t_uint256)50_storage"
      },
      {
        "astId": 162,
        "contract": "contracts/oracles/BinanceOracle.sol:BinanceOracle",
        "label": "_owner",
        "offset": 0,
        "slot": "51",
        "type": "t_address"
      },
      {
        "astId": 282,
        "contract": "contracts/oracles/BinanceOracle.sol:BinanceOracle",
        "label": "__gap",
        "offset": 0,
        "slot": "52",
        "type": "t_array(t_uint256)49_storage"
      },
      {
        "astId": 71,
        "contract": "contracts/oracles/BinanceOracle.sol:BinanceOracle",
        "label": "_pendingOwner",
        "offset": 0,
        "slot": "101",
        "type": "t_address"
      },
      {
        "astId": 150,
        "contract": "contracts/oracles/BinanceOracle.sol:BinanceOracle",
        "label": "__gap",
        "offset": 0,
        "slot": "102",
        "type": "t_array(t_uint256)49_storage"
      },
      {
        "astId": 2741,
        "contract": "contracts/oracles/BinanceOracle.sol:BinanceOracle",
        "label": "_accessControlManager",
        "offset": 0,
        "slot": "151",
        "type": "t_contract(IAccessControlManagerV8)2925"
      },
      {
        "astId": 2746,
        "contract": "contracts/oracles/BinanceOracle.sol:BinanceOracle",
        "label": "__gap",
        "offset": 0,
        "slot": "152",
        "type": "t_array(t_uint256)49_storage"
      },
      {
        "astId": 4570,
        "contract": "contracts/oracles/BinanceOracle.sol:BinanceOracle",
        "label": "sidRegistryAddress",
        "offset": 0,
        "slot": "201",
        "type": "t_address"
      },
      {
        "astId": 4579,
        "contract": "contracts/oracles/BinanceOracle.sol:BinanceOracle",
        "label": "maxStalePeriod",
        "offset": 0,
        "slot": "202",
        "type": "t_mapping(t_string_memory_ptr,t_uint256)"
      },
      {
        "astId": 4584,
        "contract": "contracts/oracles/BinanceOracle.sol:BinanceOracle",
        "label": "symbols",
        "offset": 0,
        "slot": "203",
        "type": "t_mapping(t_string_memory_ptr,t_string_storage)"
      }
    ],
    "types": {
      "t_address": {
        "encoding": "inplace",
        "label": "address",
        "numberOfBytes": "20"
      },
      "t_array(t_uint256)49_storage": {
        "base": "t_uint256",
        "encoding": "inplace",
        "label": "uint256[49]",
        "numberOfBytes": "1568"
      },
      "t_array(t_uint256)50_storage": {
        "base": "t_uint256",
        "encoding": "inplace",
        "label": "uint256[50]",
        "numberOfBytes": "1600"
      },
      "t_bool": {
        "encoding": "inplace",
        "label": "bool",
        "numberOfBytes": "1"
      },
      "t_contract(IAccessControlManagerV8)2925": {
        "encoding": "inplace",
        "label": "contract IAccessControlManagerV8",
        "numberOfBytes": "20"
      },
      "t_mapping(t_string_memory_ptr,t_string_storage)": {
        "encoding": "mapping",
        "key": "t_string_memory_ptr",
        "label": "mapping(string => string)",
        "numberOfBytes": "32",
        "value": "t_string_storage"
      },
      "t_mapping(t_string_memory_ptr,t_uint256)": {
        "encoding": "mapping",
        "key": "t_string_memory_ptr",
        "label": "mapping(string => uint256)",
        "numberOfBytes": "32",
        "value": "t_uint256"
      },
      "t_string_memory_ptr": {
        "encoding": "bytes",
        "label": "string",
        "numberOfBytes": "32"
      },
      "t_string_storage": {
        "encoding": "bytes",
        "label": "string",
        "numberOfBytes": "32"
      },
      "t_uint256": {
        "encoding": "inplace",
        "label": "uint256",
        "numberOfBytes": "32"
      },
      "t_uint8": {
        "encoding": "inplace",
        "label": "uint8",
        "numberOfBytes": "1"
      }
    }
  }
}