{
  "address": "0xd9D769D926b029Df2d83D7d6187c3E33e249FaAE",
  "abi": [
    {
      "inputs": [
        {
          "internalType": "address",
          "name": "correlatedToken",
          "type": "address"
        },
        {
          "internalType": "address",
          "name": "underlyingToken",
          "type": "address"
        },
        {
          "internalType": "address",
          "name": "resilientOracle",
          "type": "address"
        },
        {
          "internalType": "address",
          "name": "intermediateOracle",
          "type": "address"
        }
      ],
      "stateMutability": "nonpayable",
      "type": "constructor"
    },
    {
      "inputs": [],
      "name": "InvalidTokenAddress",
      "type": "error"
    },
    {
      "inputs": [],
      "name": "ZeroAddressNotAllowed",
      "type": "error"
    },
    {
      "inputs": [],
      "name": "CORRELATED_TOKEN",
      "outputs": [
        {
          "internalType": "address",
          "name": "",
          "type": "address"
        }
      ],
      "stateMutability": "view",
      "type": "function"
    },
    {
      "inputs": [],
      "name": "INTERMEDIATE_ORACLE",
      "outputs": [
        {
          "internalType": "contract OracleInterface",
          "name": "",
          "type": "address"
        }
      ],
      "stateMutability": "view",
      "type": "function"
    },
    {
      "inputs": [],
      "name": "RESILIENT_ORACLE",
      "outputs": [
        {
          "internalType": "contract OracleInterface",
          "name": "",
          "type": "address"
        }
      ],
      "stateMutability": "view",
      "type": "function"
    },
    {
      "inputs": [],
      "name": "UNDERLYING_TOKEN",
      "outputs": [
        {
          "internalType": "address",
          "name": "",
          "type": "address"
        }
      ],
      "stateMutability": "view",
      "type": "function"
    },
    {
      "inputs": [
        {
          "internalType": "address",
          "name": "asset",
          "type": "address"
        }
      ],
      "name": "getPrice",
      "outputs": [
        {
          "internalType": "uint256",
          "name": "",
          "type": "uint256"
        }
      ],
      "stateMutability": "view",
      "type": "function"
    }
  ],
  "transactionHash": "0xde66941e72716354bc5eba6c138abfc16ff9ff32d10f59d927a8ca306aee0dfd",
  "args": [
    "0xB8eb706b85Ae7355c9FE4371a499F50f3484809c",
    "0x7b79995e5f793A07Bc00c21412e50Ecae098E7f9",
    "0x8000eca36201dddf5805Aa4BeFD73d1EB4D23264",
    "0x4e6269Ef406B4CEE6e67BA5B5197c2FfD15099AE"
  ],
  "numDeployments": 1,
  "solcInputHash": "c5ec17691df5041aeaa94cb65949c153",
  "bytecode": "0x61010060405234801561001157600080fd5b50604051610881380380610881833981016040819052610030916100ca565b83838361003c83610084565b61004582610084565b61004e81610084565b6001600160a01b0392831660805290821660a0521660c05261006f81610084565b6001600160a01b031660e0525061011e915050565b6001600160a01b0381166100ab576040516342bcdf7f60e11b815260040160405180910390fd5b50565b80516001600160a01b03811681146100c557600080fd5b919050565b600080600080608085870312156100e057600080fd5b6100e9856100ae565b93506100f7602086016100ae565b9250610105604086016100ae565b9150610113606086016100ae565b905092959194509250565b60805160a05160c05160e0516106f561018c60003960008181610114015261045501526000818160ed01526101d90152600081816061015281816101ab015261030201526000818160c60152818161013a0152818161024a0152818161038b015261042201526106f56000f3fe608060405234801561001057600080fd5b50600436106100575760003560e01c806329db1be61461005c57806341976e09146100a057806369818a35146100c1578063a4edcd4c146100e8578063ef4fa51b1461010f575b600080fd5b6100837f000000000000000000000000000000000000000000000000000000000000000081565b6040516001600160a01b0390911681526020015b60405180910390f35b6100b36100ae3660046104ff565b610136565b604051908152602001610097565b6100837f000000000000000000000000000000000000000000000000000000000000000081565b6100837f000000000000000000000000000000000000000000000000000000000000000081565b6100837f000000000000000000000000000000000000000000000000000000000000000081565b60007f00000000000000000000000000000000000000000000000000000000000000006001600160a01b0316826001600160a01b03161461018a57604051630f58058360e11b815260040160405180910390fd5b60006101946102fd565b6040516341976e0960e01b81526001600160a01b037f0000000000000000000000000000000000000000000000000000000000000000811660048301529192506000917f000000000000000000000000000000000000000000000000000000000000000016906341976e0990602401602060405180830381865afa158015610220573d6000803e3d6000fd5b505050506040513d601f19601f82011682018060405250810190610244919061052f565b905060007f000000000000000000000000000000000000000000000000000000000000000090506000816001600160a01b031663313ce5676040518163ffffffff1660e01b8152600401602060405180830381865afa1580156102ab573d6000803e3d6000fd5b505050506040513d601f19601f820116820180604052508101906102cf9190610548565b60ff1690506102df81600a610667565b6102e98486610673565b6102f3919061068a565b9695505050505050565b6000807f00000000000000000000000000000000000000000000000000000000000000006001600160a01b031663313ce5676040518163ffffffff1660e01b8152600401602060405180830381865afa15801561035e573d6000803e3d6000fd5b505050506040513d601f19601f820116820180604052508101906103829190610548565b60ff16905060007f00000000000000000000000000000000000000000000000000000000000000006001600160a01b031663313ce5676040518163ffffffff1660e01b8152600401602060405180830381865afa1580156103e7573d6000803e3d6000fd5b505050506040513d601f19601f8201168201806040525081019061040b9190610548565b6040516341976e0960e01b81526001600160a01b037f00000000000000000000000000000000000000000000000000000000000000008116600483015260ff9290921692506000917f000000000000000000000000000000000000000000000000000000000000000016906341976e0990602401602060405180830381865afa15801561049c573d6000803e3d6000fd5b505050506040513d601f19601f820116820180604052508101906104c0919061052f565b90506104cd8360246106ac565b6104d890600a610667565b6104e383600a610667565b6104ed9083610673565b6104f7919061068a565b935050505090565b60006020828403121561051157600080fd5b81356001600160a01b038116811461052857600080fd5b9392505050565b60006020828403121561054157600080fd5b5051919050565b60006020828403121561055a57600080fd5b815160ff8116811461052857600080fd5b634e487b7160e01b600052601160045260246000fd5b600181815b808511156105bc5781600019048211156105a2576105a261056b565b808516156105af57918102915b93841c9390800290610586565b509250929050565b6000826105d357506001610661565b816105e057506000610661565b81600181146105f657600281146106005761061c565b6001915050610661565b60ff8411156106115761061161056b565b50506001821b610661565b5060208310610133831016604e8410600b841016171561063f575081810a610661565b6106498383610581565b806000190482111561065d5761065d61056b565b0290505b92915050565b600061052883836105c4565b80820281158282048414176106615761066161056b565b6000826106a757634e487b7160e01b600052601260045260246000fd5b500490565b818103818111156106615761066161056b56fea2646970667358221220ab210913e2733b7615c5f8d3a3bcce9da9cc80863649d11f341d68f8a70c933264736f6c63430008190033",
  "devdoc": {
    "author": "Venus",
    "kind": "dev",
    "methods": {
      "constructor": {
        "custom:oz-upgrades-unsafe-allow": "constructor"
      },
      "getPrice(address)": {
        "params": {
          "asset": "Address of the correlated token"
        },
        "returns": {
          "_0": "price The price of the correlated token in scaled decimal places"
        }
      }
    },
    "stateVariables": {
      "INTERMEDIATE_ORACLE": {
        "custom:oz-upgrades-unsafe-allow": "state-variable-immutable"
      }
    },
    "title": "OneJumpOracle",
    "version": 1
  },
  "userdoc": {
    "errors": {
      "InvalidTokenAddress()": [
        {
          "notice": "Thrown if the token address is invalid"
        }
      ],
      "ZeroAddressNotAllowed()": [
        {
          "notice": "Thrown if the supplied address is a zero address where it is not allowed"
        }
      ]
    },
    "kind": "user",
    "methods": {
      "CORRELATED_TOKEN()": {
        "notice": "Address of the correlated token"
      },
      "INTERMEDIATE_ORACLE()": {
        "notice": "Address of the intermediate oracle"
      },
      "RESILIENT_ORACLE()": {
        "notice": "Address of Resilient Oracle"
      },
      "UNDERLYING_TOKEN()": {
        "notice": "Address of the underlying token"
      },
      "constructor": {
        "notice": "Constructor for the implementation contract."
      },
      "getPrice(address)": {
        "notice": "Fetches the price of the correlated token"
      }
    },
    "notice": "This oracle fetches the price of an asset in through an intermediate asset",
    "version": 1
  },
  "storageLayout": {
    "storage": [],
    "types": null
  }
}