{
  "address": "0x4634Cc129ec46DbBab6a7E2b5c73c1b991be6cfC",
  "abi": [
    {
      "inputs": [],
      "stateMutability": "nonpayable",
      "type": "constructor"
    },
    {
      "anonymous": false,
      "inputs": [
        {
          "indexed": true,
          "internalType": "address",
          "name": "previousOwner",
          "type": "address"
        },
        {
          "indexed": true,
          "internalType": "address",
          "name": "newOwner",
          "type": "address"
        }
      ],
      "name": "OwnershipTransferred",
      "type": "event"
    },
    {
      "inputs": [
        {
          "internalType": "uint256",
          "name": "_share",
          "type": "uint256"
        }
      ],
      "name": "amountForShare",
      "outputs": [
        {
          "internalType": "uint256",
          "name": "",
          "type": "uint256"
        }
      ],
      "stateMutability": "view",
      "type": "function"
    },
    {
      "inputs": [],
      "name": "amountPerShare",
      "outputs": [
        {
          "internalType": "uint256",
          "name": "",
          "type": "uint256"
        }
      ],
      "stateMutability": "view",
      "type": "function"
    },
    {
      "inputs": [],
      "name": "owner",
      "outputs": [
        {
          "internalType": "address",
          "name": "",
          "type": "address"
        }
      ],
      "stateMutability": "view",
      "type": "function"
    },
    {
      "inputs": [],
      "name": "renounceOwnership",
      "outputs": [],
      "stateMutability": "nonpayable",
      "type": "function"
    },
    {
      "inputs": [
        {
          "internalType": "uint256",
          "name": "_amountPerShare",
          "type": "uint256"
        }
      ],
      "name": "setAmountPerShare",
      "outputs": [],
      "stateMutability": "nonpayable",
      "type": "function"
    },
    {
      "inputs": [
        {
          "internalType": "address",
          "name": "newOwner",
          "type": "address"
        }
      ],
      "name": "transferOwnership",
      "outputs": [],
      "stateMutability": "nonpayable",
      "type": "function"
    }
  ],
  "transactionHash": "0xfb6b13ab061f8ea6893468c334f069eb609b445853aa4dd9e83789756fb2b759",
  "args": [],
  "numDeployments": 1,
  "solcInputHash": "22740d447fc1d2a214063808c7fd3297",
  "bytecode": "0x6080604052348015600f57600080fd5b50601733601b565b606b565b600080546001600160a01b038381166001600160a01b0319831681178455604051919092169283917f8be0079c531659141344cd1fd0a4f28419497f9722a3daafe3b4186f6b6457e09190a35050565b6103198061007a6000396000f3fe608060405234801561001057600080fd5b50600436106100625760003560e01c8063561bddf814610067578063715018a61461008d5780637c5a227c146100975780638da5cb5b146100a0578063b1ef362d146100bb578063f2fde38b146100ce575b600080fd5b61007a610075366004610253565b6100e1565b6040519081526020015b60405180910390f35b61009561010a565b005b61007a60015481565b6000546040516001600160a01b039091168152602001610084565b6100956100c9366004610253565b61011e565b6100956100dc36600461026c565b61012b565b6000670de0b6b3a7640000600154836100fa919061029c565b61010491906102c1565b92915050565b6101126101a9565b61011c6000610203565b565b6101266101a9565b600155565b6101336101a9565b6001600160a01b03811661019d5760405162461bcd60e51b815260206004820152602660248201527f4f776e61626c653a206e6577206f776e657220697320746865207a65726f206160448201526564647265737360d01b60648201526084015b60405180910390fd5b6101a681610203565b50565b6000546001600160a01b0316331461011c5760405162461bcd60e51b815260206004820181905260248201527f4f776e61626c653a2063616c6c6572206973206e6f7420746865206f776e65726044820152606401610194565b600080546001600160a01b038381166001600160a01b0319831681178455604051919092169283917f8be0079c531659141344cd1fd0a4f28419497f9722a3daafe3b4186f6b6457e09190a35050565b60006020828403121561026557600080fd5b5035919050565b60006020828403121561027e57600080fd5b81356001600160a01b038116811461029557600080fd5b9392505050565b808202811582820484141761010457634e487b7160e01b600052601160045260246000fd5b6000826102de57634e487b7160e01b600052601260045260246000fd5b50049056fea2646970667358221220b606da72ed82738eab0db76e47fe71859fb5f296d4e69accb7714dfc1ff8274764736f6c63430008190033",
  "devdoc": {
    "kind": "dev",
    "methods": {
      "owner()": {
        "details": "Returns the address of the current owner."
      },
      "renounceOwnership()": {
        "details": "Leaves the contract without owner. It will not be possible to call `onlyOwner` functions. Can only be called by the current owner. NOTE: Renouncing ownership will leave the contract without an owner, thereby disabling any functionality that is only available to the owner."
      },
      "transferOwnership(address)": {
        "details": "Transfers ownership of the contract to a new account (`newOwner`). Can only be called by the current owner."
      }
    },
    "version": 1
  },
  "userdoc": {
    "kind": "user",
    "methods": {
      "amountPerShare()": {
        "notice": "The amount of eETH per weETH scaled by 1e18"
      }
    },
    "version": 1
  },
  "storageLayout": {
    "storage": [
      {
        "astId": 1405,
        "contract": "contracts/test/MockEtherFiLiquidityPool.sol:MockEtherFiLiquidityPool",
        "label": "_owner",
        "offset": 0,
        "slot": "0",
        "type": "t_address"
      },
      {
        "astId": 9671,
        "contract": "contracts/test/MockEtherFiLiquidityPool.sol:MockEtherFiLiquidityPool",
        "label": "amountPerShare",
        "offset": 0,
        "slot": "1",
        "type": "t_uint256"
      }
    ],
    "types": {
      "t_address": {
        "encoding": "inplace",
        "label": "address",
        "numberOfBytes": "20"
      },
      "t_uint256": {
        "encoding": "inplace",
        "label": "uint256",
        "numberOfBytes": "32"
      }
    }
  }
}