{
  "address": "0xd85FfECdB4287587BC53c1934D548bF7480F11C4",
  "abi": [
    {
      "inputs": [
        {
          "internalType": "string",
          "name": "name_",
          "type": "string"
        },
        {
          "internalType": "string",
          "name": "symbol_",
          "type": "string"
        },
        {
          "internalType": "uint8",
          "name": "decimals_",
          "type": "uint8"
        }
      ],
      "stateMutability": "nonpayable",
      "type": "constructor"
    },
    {
      "anonymous": false,
      "inputs": [
        {
          "indexed": true,
          "internalType": "address",
          "name": "owner",
          "type": "address"
        },
        {
          "indexed": true,
          "internalType": "address",
          "name": "spender",
          "type": "address"
        },
        {
          "indexed": false,
          "internalType": "uint256",
          "name": "value",
          "type": "uint256"
        }
      ],
      "name": "Approval",
      "type": "event"
    },
    {
      "anonymous": false,
      "inputs": [
        {
          "indexed": true,
          "internalType": "address",
          "name": "previousOwner",
          "type": "address"
        },
        {
          "indexed": true,
          "internalType": "address",
          "name": "newOwner",
          "type": "address"
        }
      ],
      "name": "OwnershipTransferred",
      "type": "event"
    },
    {
      "anonymous": false,
      "inputs": [
        {
          "indexed": true,
          "internalType": "address",
          "name": "from",
          "type": "address"
        },
        {
          "indexed": true,
          "internalType": "address",
          "name": "to",
          "type": "address"
        },
        {
          "indexed": false,
          "internalType": "uint256",
          "name": "value",
          "type": "uint256"
        }
      ],
      "name": "Transfer",
      "type": "event"
    },
    {
      "inputs": [
        {
          "internalType": "address",
          "name": "owner",
          "type": "address"
        },
        {
          "internalType": "address",
          "name": "spender",
          "type": "address"
        }
      ],
      "name": "allowance",
      "outputs": [
        {
          "internalType": "uint256",
          "name": "",
          "type": "uint256"
        }
      ],
      "stateMutability": "view",
      "type": "function"
    },
    {
      "inputs": [
        {
          "internalType": "address",
          "name": "spender",
          "type": "address"
        },
        {
          "internalType": "uint256",
          "name": "amount",
          "type": "uint256"
        }
      ],
      "name": "approve",
      "outputs": [
        {
          "internalType": "bool",
          "name": "",
          "type": "bool"
        }
      ],
      "stateMutability": "nonpayable",
      "type": "function"
    },
    {
      "inputs": [
        {
          "internalType": "address",
          "name": "account",
          "type": "address"
        }
      ],
      "name": "balanceOf",
      "outputs": [
        {
          "internalType": "uint256",
          "name": "",
          "type": "uint256"
        }
      ],
      "stateMutability": "view",
      "type": "function"
    },
    {
      "inputs": [
        {
          "internalType": "uint256",
          "name": "shares",
          "type": "uint256"
        }
      ],
      "name": "convertToAssets",
      "outputs": [
        {
          "internalType": "uint256",
          "name": "",
          "type": "uint256"
        }
      ],
      "stateMutability": "view",
      "type": "function"
    },
    {
      "inputs": [],
      "name": "decimals",
      "outputs": [
        {
          "internalType": "uint8",
          "name": "",
          "type": "uint8"
        }
      ],
      "stateMutability": "view",
      "type": "function"
    },
    {
      "inputs": [
        {
          "internalType": "address",
          "name": "spender",
          "type": "address"
        },
        {
          "internalType": "uint256",
          "name": "subtractedValue",
          "type": "uint256"
        }
      ],
      "name": "decreaseAllowance",
      "outputs": [
        {
          "internalType": "bool",
          "name": "",
          "type": "bool"
        }
      ],
      "stateMutability": "nonpayable",
      "type": "function"
    },
    {
      "inputs": [],
      "name": "exchangeRate",
      "outputs": [
        {
          "internalType": "uint256",
          "name": "",
          "type": "uint256"
        }
      ],
      "stateMutability": "view",
      "type": "function"
    },
    {
      "inputs": [
        {
          "internalType": "uint256",
          "name": "amount",
          "type": "uint256"
        }
      ],
      "name": "faucet",
      "outputs": [],
      "stateMutability": "nonpayable",
      "type": "function"
    },
    {
      "inputs": [
        {
          "internalType": "address",
          "name": "spender",
          "type": "address"
        },
        {
          "internalType": "uint256",
          "name": "addedValue",
          "type": "uint256"
        }
      ],
      "name": "increaseAllowance",
      "outputs": [
        {
          "internalType": "bool",
          "name": "",
          "type": "bool"
        }
      ],
      "stateMutability": "nonpayable",
      "type": "function"
    },
    {
      "inputs": [],
      "name": "name",
      "outputs": [
        {
          "internalType": "string",
          "name": "",
          "type": "string"
        }
      ],
      "stateMutability": "view",
      "type": "function"
    },
    {
      "inputs": [],
      "name": "owner",
      "outputs": [
        {
          "internalType": "address",
          "name": "",
          "type": "address"
        }
      ],
      "stateMutability": "view",
      "type": "function"
    },
    {
      "inputs": [],
      "name": "renounceOwnership",
      "outputs": [],
      "stateMutability": "nonpayable",
      "type": "function"
    },
    {
      "inputs": [
        {
          "internalType": "uint256",
          "name": "rate",
          "type": "uint256"
        }
      ],
      "name": "setRate",
      "outputs": [],
      "stateMutability": "nonpayable",
      "type": "function"
    },
    {
      "inputs": [],
      "name": "symbol",
      "outputs": [
        {
          "internalType": "string",
          "name": "",
          "type": "string"
        }
      ],
      "stateMutability": "view",
      "type": "function"
    },
    {
      "inputs": [],
      "name": "totalSupply",
      "outputs": [
        {
          "internalType": "uint256",
          "name": "",
          "type": "uint256"
        }
      ],
      "stateMutability": "view",
      "type": "function"
    },
    {
      "inputs": [
        {
          "internalType": "address",
          "name": "to",
          "type": "address"
        },
        {
          "internalType": "uint256",
          "name": "amount",
          "type": "uint256"
        }
      ],
      "name": "transfer",
      "outputs": [
        {
          "internalType": "bool",
          "name": "",
          "type": "bool"
        }
      ],
      "stateMutability": "nonpayable",
      "type": "function"
    },
    {
      "inputs": [
        {
          "internalType": "address",
          "name": "from",
          "type": "address"
        },
        {
          "internalType": "address",
          "name": "to",
          "type": "address"
        },
        {
          "internalType": "uint256",
          "name": "amount",
          "type": "uint256"
        }
      ],
      "name": "transferFrom",
      "outputs": [
        {
          "internalType": "bool",
          "name": "",
          "type": "bool"
        }
      ],
      "stateMutability": "nonpayable",
      "type": "function"
    },
    {
      "inputs": [
        {
          "internalType": "address",
          "name": "newOwner",
          "type": "address"
        }
      ],
      "name": "transferOwnership",
      "outputs": [],
      "stateMutability": "nonpayable",
      "type": "function"
    }
  ],
  "transactionHash": "0x1bee09684a05fe26aae9b164e3e4cdf99c937f49f87ab534b1ad5cc944b3623c",
  "args": [
    "Staked FRAX",
    "sFRAX",
    18
  ],
  "numDeployments": 1,
  "solcInputHash": "cd34c80c0222fcfecdfcd96bccbdb60b",
  "bytecode": "0x60a060405234801561001057600080fd5b5060405161107238038061107283398101604081905261002f91610185565b8282600361003d838261028d565b50600461004a828261028d565b50505061006361005e61007160201b60201c565b610075565b60ff166080525061034c9050565b3390565b600580546001600160a01b038381166001600160a01b0319831681179093556040519116919082907f8be0079c531659141344cd1fd0a4f28419497f9722a3daafe3b4186f6b6457e090600090a35050565b634e487b7160e01b600052604160045260246000fd5b600082601f8301126100ee57600080fd5b81516001600160401b0380821115610108576101086100c7565b604051601f8301601f19908116603f01168101908282118183101715610130576101306100c7565b816040528381526020925086602085880101111561014d57600080fd5b600091505b8382101561016f5785820183015181830184015290820190610152565b6000602085830101528094505050505092915050565b60008060006060848603121561019a57600080fd5b83516001600160401b03808211156101b157600080fd5b6101bd878388016100dd565b945060208601519150808211156101d357600080fd5b506101e0868287016100dd565b925050604084015160ff811681146101f757600080fd5b809150509250925092565b600181811c9082168061021657607f821691505b60208210810361023657634e487b7160e01b600052602260045260246000fd5b50919050565b601f821115610288576000816000526020600020601f850160051c810160208610156102655750805b601f850160051c820191505b8181101561028457828155600101610271565b5050505b505050565b81516001600160401b038111156102a6576102a66100c7565b6102ba816102b48454610202565b8461023c565b602080601f8311600181146102ef57600084156102d75750858301515b600019600386901b1c1916600185901b178555610284565b600085815260208120601f198616915b8281101561031e578886015182559484019460019091019084016102ff565b508582101561033c5787850151600019600388901b60f8161c191681555b5050505050600190811b01905550565b608051610d0461036e6000396000818161019f01526103480152610d046000f3fe608060405234801561001057600080fd5b50600436106101165760003560e01c806357915897116100a257806395d89b411161007157806395d89b4114610259578063a457c2d714610261578063a9059cbb14610274578063dd62ed3e14610287578063f2fde38b1461029a57600080fd5b806357915897146101fa57806370a082311461020d578063715018a6146102365780638da5cb5b1461023e57600080fd5b806323b872dd116100e957806323b872dd14610185578063313ce5671461019857806334fcf437146101c957806339509351146101de5780633ba0b9a9146101f157600080fd5b806306fdde031461011b57806307a2d13a14610139578063095ea7b31461015a57806318160ddd1461017d575b600080fd5b6101236102ad565b6040516101309190610a03565b60405180910390f35b61014c610147366004610a52565b61033f565b604051908152602001610130565b61016d610168366004610a87565b61038c565b6040519015158152602001610130565b60025461014c565b61016d610193366004610ab1565b6103a4565b60405160ff7f0000000000000000000000000000000000000000000000000000000000000000168152602001610130565b6101dc6101d7366004610a52565b6103c8565b005b61016d6101ec366004610a87565b6103d5565b61014c60065481565b6101dc610208366004610a52565b6103f7565b61014c61021b366004610aed565b6001600160a01b031660009081526020819052604090205490565b6101dc610404565b6005546040516001600160a01b039091168152602001610130565b610123610418565b61016d61026f366004610a87565b610427565b61016d610282366004610a87565b6104a7565b61014c610295366004610b0f565b6104b5565b6101dc6102a8366004610aed565b6104e0565b6060600380546102bc90610b42565b80601f01602080910402602001604051908101604052809291908181526020018280546102e890610b42565b80156103355780601f1061030a57610100808354040283529160200191610335565b820191906000526020600020905b81548152906001019060200180831161031857829003601f168201915b5050505050905090565b600061036f60ff7f000000000000000000000000000000000000000000000000000000000000000016600a610c76565b60065461037c9084610c82565b6103869190610c99565b92915050565b60003361039a818585610556565b5060019392505050565b6000336103b285828561067a565b6103bd8585856106f4565b506001949350505050565b6103d0610898565b600655565b60003361039a8185856103e883836104b5565b6103f29190610cbb565b610556565b61040133826108f2565b50565b61040c610898565b61041660006109b1565b565b6060600480546102bc90610b42565b6000338161043582866104b5565b90508381101561049a5760405162461bcd60e51b815260206004820152602560248201527f45524332303a2064656372656173656420616c6c6f77616e63652062656c6f77604482015264207a65726f60d81b60648201526084015b60405180910390fd5b6103bd8286868403610556565b60003361039a8185856106f4565b6001600160a01b03918216600090815260016020908152604080832093909416825291909152205490565b6104e8610898565b6001600160a01b03811661054d5760405162461bcd60e51b815260206004820152602660248201527f4f776e61626c653a206e6577206f776e657220697320746865207a65726f206160448201526564647265737360d01b6064820152608401610491565b610401816109b1565b6001600160a01b0383166105b85760405162461bcd60e51b8152602060048201526024808201527f45524332303a20617070726f76652066726f6d20746865207a65726f206164646044820152637265737360e01b6064820152608401610491565b6001600160a01b0382166106195760405162461bcd60e51b815260206004820152602260248201527f45524332303a20617070726f766520746f20746865207a65726f206164647265604482015261737360f01b6064820152608401610491565b6001600160a01b0383811660008181526001602090815260408083209487168084529482529182902085905590518481527f8c5be1e5ebec7d5bd14f71427d1e84f3dd0314c0f7b2291e5b200ac8c7c3b925910160405180910390a3505050565b600061068684846104b5565b905060001981146106ee57818110156106e15760405162461bcd60e51b815260206004820152601d60248201527f45524332303a20696e73756666696369656e7420616c6c6f77616e63650000006044820152606401610491565b6106ee8484848403610556565b50505050565b6001600160a01b0383166107585760405162461bcd60e51b815260206004820152602560248201527f45524332303a207472616e736665722066726f6d20746865207a65726f206164604482015264647265737360d81b6064820152608401610491565b6001600160a01b0382166107ba5760405162461bcd60e51b815260206004820152602360248201527f45524332303a207472616e7366657220746f20746865207a65726f206164647260448201526265737360e81b6064820152608401610491565b6001600160a01b038316600090815260208190526040902054818110156108325760405162461bcd60e51b815260206004820152602660248201527f45524332303a207472616e7366657220616d6f756e7420657863656564732062604482015265616c616e636560d01b6064820152608401610491565b6001600160a01b03848116600081815260208181526040808320878703905593871680835291849020805487019055925185815290927fddf252ad1be2c89b69c2b068fc378daa952ba7f163c4a11628f55a4df523b3ef910160405180910390a36106ee565b6005546001600160a01b031633146104165760405162461bcd60e51b815260206004820181905260248201527f4f776e61626c653a2063616c6c6572206973206e6f7420746865206f776e65726044820152606401610491565b6001600160a01b0382166109485760405162461bcd60e51b815260206004820152601f60248201527f45524332303a206d696e7420746f20746865207a65726f2061646472657373006044820152606401610491565b806002600082825461095a9190610cbb565b90915550506001600160a01b038216600081815260208181526040808320805486019055518481527fddf252ad1be2c89b69c2b068fc378daa952ba7f163c4a11628f55a4df523b3ef910160405180910390a35050565b600580546001600160a01b038381166001600160a01b0319831681179093556040519116919082907f8be0079c531659141344cd1fd0a4f28419497f9722a3daafe3b4186f6b6457e090600090a35050565b60006020808352835180602085015260005b81811015610a3157858101830151858201604001528201610a15565b506000604082860101526040601f19601f8301168501019250505092915050565b600060208284031215610a6457600080fd5b5035919050565b80356001600160a01b0381168114610a8257600080fd5b919050565b60008060408385031215610a9a57600080fd5b610aa383610a6b565b946020939093013593505050565b600080600060608486031215610ac657600080fd5b610acf84610a6b565b9250610add60208501610a6b565b9150604084013590509250925092565b600060208284031215610aff57600080fd5b610b0882610a6b565b9392505050565b60008060408385031215610b2257600080fd5b610b2b83610a6b565b9150610b3960208401610a6b565b90509250929050565b600181811c90821680610b5657607f821691505b602082108103610b7657634e487b7160e01b600052602260045260246000fd5b50919050565b634e487b7160e01b600052601160045260246000fd5b600181815b80851115610bcd578160001904821115610bb357610bb3610b7c565b80851615610bc057918102915b93841c9390800290610b97565b509250929050565b600082610be457506001610386565b81610bf157506000610386565b8160018114610c075760028114610c1157610c2d565b6001915050610386565b60ff841115610c2257610c22610b7c565b50506001821b610386565b5060208310610133831016604e8410600b8410161715610c50575081810a610386565b610c5a8383610b92565b8060001904821115610c6e57610c6e610b7c565b029392505050565b6000610b088383610bd5565b808202811582820484141761038657610386610b7c565b600082610cb657634e487b7160e01b600052601260045260246000fd5b500490565b8082018082111561038657610386610b7c56fea2646970667358221220d57fdb7817452b2a8ed1a9cf8b22606011505261515ea0772061d67220ed68d464736f6c63430008190033",
  "devdoc": {
    "events": {
      "Approval(address,address,uint256)": {
        "details": "Emitted when the allowance of a `spender` for an `owner` is set by a call to {approve}. `value` is the new allowance."
      },
      "Transfer(address,address,uint256)": {
        "details": "Emitted when `value` tokens are moved from one account (`from`) to another (`to`). Note that `value` may be zero."
      }
    },
    "kind": "dev",
    "methods": {
      "allowance(address,address)": {
        "details": "See {IERC20-allowance}."
      },
      "approve(address,uint256)": {
        "details": "See {IERC20-approve}. NOTE: If `amount` is the maximum `uint256`, the allowance is not updated on `transferFrom`. This is semantically equivalent to an infinite approval. Requirements: - `spender` cannot be the zero address."
      },
      "balanceOf(address)": {
        "details": "See {IERC20-balanceOf}."
      },
      "decreaseAllowance(address,uint256)": {
        "details": "Atomically decreases the allowance granted to `spender` by the caller. This is an alternative to {approve} that can be used as a mitigation for problems described in {IERC20-approve}. Emits an {Approval} event indicating the updated allowance. Requirements: - `spender` cannot be the zero address. - `spender` must have allowance for the caller of at least `subtractedValue`."
      },
      "increaseAllowance(address,uint256)": {
        "details": "Atomically increases the allowance granted to `spender` by the caller. This is an alternative to {approve} that can be used as a mitigation for problems described in {IERC20-approve}. Emits an {Approval} event indicating the updated allowance. Requirements: - `spender` cannot be the zero address."
      },
      "name()": {
        "details": "Returns the name of the token."
      },
      "owner()": {
        "details": "Returns the address of the current owner."
      },
      "renounceOwnership()": {
        "details": "Leaves the contract without owner. It will not be possible to call `onlyOwner` functions. Can only be called by the current owner. NOTE: Renouncing ownership will leave the contract without an owner, thereby disabling any functionality that is only available to the owner."
      },
      "symbol()": {
        "details": "Returns the symbol of the token, usually a shorter version of the name."
      },
      "totalSupply()": {
        "details": "See {IERC20-totalSupply}."
      },
      "transfer(address,uint256)": {
        "details": "See {IERC20-transfer}. Requirements: - `to` cannot be the zero address. - the caller must have a balance of at least `amount`."
      },
      "transferFrom(address,address,uint256)": {
        "details": "See {IERC20-transferFrom}. Emits an {Approval} event indicating the updated allowance. This is not required by the EIP. See the note at the beginning of {ERC20}. NOTE: Does not update the allowance if the current allowance is the maximum `uint256`. Requirements: - `from` and `to` cannot be the zero address. - `from` must have a balance of at least `amount`. - the caller must have allowance for ``from``'s tokens of at least `amount`."
      },
      "transferOwnership(address)": {
        "details": "Transfers ownership of the contract to a new account (`newOwner`). Can only be called by the current owner."
      }
    },
    "version": 1
  },
  "userdoc": {
    "kind": "user",
    "methods": {},
    "version": 1
  },
  "storageLayout": {
    "storage": [
      {
        "astId": 128,
        "contract": "contracts/test/MockSFrax.sol:MockSFrax",
        "label": "_balances",
        "offset": 0,
        "slot": "0",
        "type": "t_mapping(t_address,t_uint256)"
      },
      {
        "astId": 134,
        "contract": "contracts/test/MockSFrax.sol:MockSFrax",
        "label": "_allowances",
        "offset": 0,
        "slot": "1",
        "type": "t_mapping(t_address,t_mapping(t_address,t_uint256))"
      },
      {
        "astId": 136,
        "contract": "contracts/test/MockSFrax.sol:MockSFrax",
        "label": "_totalSupply",
        "offset": 0,
        "slot": "2",
        "type": "t_uint256"
      },
      {
        "astId": 138,
        "contract": "contracts/test/MockSFrax.sol:MockSFrax",
        "label": "_name",
        "offset": 0,
        "slot": "3",
        "type": "t_string_storage"
      },
      {
        "astId": 140,
        "contract": "contracts/test/MockSFrax.sol:MockSFrax",
        "label": "_symbol",
        "offset": 0,
        "slot": "4",
        "type": "t_string_storage"
      },
      {
        "astId": 7,
        "contract": "contracts/test/MockSFrax.sol:MockSFrax",
        "label": "_owner",
        "offset": 0,
        "slot": "5",
        "type": "t_address"
      },
      {
        "astId": 856,
        "contract": "contracts/test/MockSFrax.sol:MockSFrax",
        "label": "exchangeRate",
        "offset": 0,
        "slot": "6",
        "type": "t_uint256"
      }
    ],
    "types": {
      "t_address": {
        "encoding": "inplace",
        "label": "address",
        "numberOfBytes": "20"
      },
      "t_mapping(t_address,t_mapping(t_address,t_uint256))": {
        "encoding": "mapping",
        "key": "t_address",
        "label": "mapping(address => mapping(address => uint256))",
        "numberOfBytes": "32",
        "value": "t_mapping(t_address,t_uint256)"
      },
      "t_mapping(t_address,t_uint256)": {
        "encoding": "mapping",
        "key": "t_address",
        "label": "mapping(address => uint256)",
        "numberOfBytes": "32",
        "value": "t_uint256"
      },
      "t_string_storage": {
        "encoding": "bytes",
        "label": "string",
        "numberOfBytes": "32"
      },
      "t_uint256": {
        "encoding": "inplace",
        "label": "uint256",
        "numberOfBytes": "32"
      }
    }
  }
}