{
  "address": "0xf9ab04679F9Bb545BE61a8b62239eBE0683b6Fe7",
  "abi": [
    {
      "inputs": [
        {
          "internalType": "address",
          "name": "market",
          "type": "address"
        },
        {
          "internalType": "address",
          "name": "ptOracle",
          "type": "address"
        },
        {
          "internalType": "address",
          "name": "ptToken",
          "type": "address"
        },
        {
          "internalType": "address",
          "name": "underlyingToken",
          "type": "address"
        },
        {
          "internalType": "address",
          "name": "resilientOracle",
          "type": "address"
        },
        {
          "internalType": "uint32",
          "name": "twapDuration",
          "type": "uint32"
        }
      ],
      "stateMutability": "nonpayable",
      "type": "constructor"
    },
    {
      "inputs": [],
      "name": "InvalidDuration",
      "type": "error"
    },
    {
      "inputs": [],
      "name": "InvalidTokenAddress",
      "type": "error"
    },
    {
      "inputs": [],
      "name": "ZeroAddressNotAllowed",
      "type": "error"
    },
    {
      "inputs": [],
      "name": "ZeroValueNotAllowed",
      "type": "error"
    },
    {
      "inputs": [],
      "name": "CORRELATED_TOKEN",
      "outputs": [
        {
          "internalType": "address",
          "name": "",
          "type": "address"
        }
      ],
      "stateMutability": "view",
      "type": "function"
    },
    {
      "inputs": [],
      "name": "MARKET",
      "outputs": [
        {
          "internalType": "address",
          "name": "",
          "type": "address"
        }
      ],
      "stateMutability": "view",
      "type": "function"
    },
    {
      "inputs": [],
      "name": "PT_ORACLE",
      "outputs": [
        {
          "internalType": "contract IPendlePtOracle",
          "name": "",
          "type": "address"
        }
      ],
      "stateMutability": "view",
      "type": "function"
    },
    {
      "inputs": [],
      "name": "RESILIENT_ORACLE",
      "outputs": [
        {
          "internalType": "contract OracleInterface",
          "name": "",
          "type": "address"
        }
      ],
      "stateMutability": "view",
      "type": "function"
    },
    {
      "inputs": [],
      "name": "TWAP_DURATION",
      "outputs": [
        {
          "internalType": "uint32",
          "name": "",
          "type": "uint32"
        }
      ],
      "stateMutability": "view",
      "type": "function"
    },
    {
      "inputs": [],
      "name": "UNDERLYING_TOKEN",
      "outputs": [
        {
          "internalType": "address",
          "name": "",
          "type": "address"
        }
      ],
      "stateMutability": "view",
      "type": "function"
    },
    {
      "inputs": [
        {
          "internalType": "address",
          "name": "asset",
          "type": "address"
        }
      ],
      "name": "getPrice",
      "outputs": [
        {
          "internalType": "uint256",
          "name": "",
          "type": "uint256"
        }
      ],
      "stateMutability": "view",
      "type": "function"
    }
  ],
  "transactionHash": "0x8cde261c633443360fa67e808e299f633ab36b06e121cc924cb86cedbfb7f482",
  "args": [
    "0x0000000000000000000000000000000000000001",
    "0x063a57223EE477d7CB959bc7328d3A06494931A9",
    "0x74671106a04496199994787B6BcB064d08afbCCf",
    "0x8bAe3E12870a002A0D4b6Eb0F0CBf91b29d9806F",
    "0x8000eca36201dddf5805Aa4BeFD73d1EB4D23264",
    1800
  ],
  "numDeployments": 1,
  "solcInputHash": "c9234768a0e90787a3e044ab631ca909",
  "bytecode": "0x61014060405234801561001157600080fd5b5060405161095b38038061095b833981016040819052610030916101b7565b83838361003c83610150565b61004582610150565b61004e81610150565b6001600160a01b0392831660805290821660a0521660c05261006f86610150565b61007885610150565b61008763ffffffff821661017a565b6001600160a01b0386811661010081905290861660e081905263ffffffff831661012081905260405162439f4b60e91b81526004810193909352602483015260009182919063873e960090604401606060405180830381865afa1580156100f2573d6000803e3d6000fd5b505050506040513d601f19601f820116820180604052508101906101169190610248565b92505091508180610125575080155b1561014357604051637616640160e01b815260040160405180910390fd5b5050505050505050610294565b6001600160a01b038116610177576040516342bcdf7f60e11b815260040160405180910390fd5b50565b806000036101775760405163273e150360e21b815260040160405180910390fd5b80516001600160a01b03811681146101b257600080fd5b919050565b60008060008060008060c087890312156101d057600080fd5b6101d98761019b565b95506101e76020880161019b565b94506101f56040880161019b565b93506102036060880161019b565b92506102116080880161019b565b915060a087015163ffffffff8116811461022a57600080fd5b809150509295509295509295565b805180151581146101b257600080fd5b60008060006060848603121561025d57600080fd5b61026684610238565b9250602084015161ffff8116811461027d57600080fd5b915061028b60408501610238565b90509250925092565b60805160a05160c05160e05161010051610120516106496103126000396000818161013a01526103c501526000818161019d015261039d01526000818161011301526103f401526000818161017601526102620152600081816087015261023401526000818160ec015281816101c301526102d301526106496000f3fe608060405234801561001057600080fd5b506004361061007d5760003560e01c8063809d7b311161005b578063809d7b311461010e578063879ac8f814610135578063a4edcd4c14610171578063f46f16c21461019857600080fd5b806329db1be61461008257806341976e09146100c657806369818a35146100e7575b600080fd5b6100a97f000000000000000000000000000000000000000000000000000000000000000081565b6040516001600160a01b0390911681526020015b60405180910390f35b6100d96100d4366004610466565b6101bf565b6040519081526020016100bd565b6100a97f000000000000000000000000000000000000000000000000000000000000000081565b6100a97f000000000000000000000000000000000000000000000000000000000000000081565b61015c7f000000000000000000000000000000000000000000000000000000000000000081565b60405163ffffffff90911681526020016100bd565b6100a97f000000000000000000000000000000000000000000000000000000000000000081565b6100a97f000000000000000000000000000000000000000000000000000000000000000081565b60007f00000000000000000000000000000000000000000000000000000000000000006001600160a01b0316826001600160a01b03161461021357604051630f58058360e11b815260040160405180910390fd5b600061021d610386565b6040516341976e0960e01b81526001600160a01b037f0000000000000000000000000000000000000000000000000000000000000000811660048301529192506000917f000000000000000000000000000000000000000000000000000000000000000016906341976e0990602401602060405180830381865afa1580156102a9573d6000803e3d6000fd5b505050506040513d601f19601f820116820180604052508101906102cd9190610496565b905060007f000000000000000000000000000000000000000000000000000000000000000090506000816001600160a01b031663313ce5676040518163ffffffff1660e01b8152600401602060405180830381865afa158015610334573d6000803e3d6000fd5b505050506040513d601f19601f8201168201806040525081019061035891906104af565b60ff16905061036881600a6105ce565b61037284866105da565b61037c91906105f1565b9695505050505050565b60405163abca0eab60e01b81526001600160a01b037f0000000000000000000000000000000000000000000000000000000000000000811660048301527f000000000000000000000000000000000000000000000000000000000000000063ffffffff1660248301526000917f00000000000000000000000000000000000000000000000000000000000000009091169063abca0eab90604401602060405180830381865afa15801561043d573d6000803e3d6000fd5b505050506040513d601f19601f820116820180604052508101906104619190610496565b905090565b60006020828403121561047857600080fd5b81356001600160a01b038116811461048f57600080fd5b9392505050565b6000602082840312156104a857600080fd5b5051919050565b6000602082840312156104c157600080fd5b815160ff8116811461048f57600080fd5b634e487b7160e01b600052601160045260246000fd5b600181815b80851115610523578160001904821115610509576105096104d2565b8085161561051657918102915b93841c93908002906104ed565b509250929050565b60008261053a575060016105c8565b81610547575060006105c8565b816001811461055d576002811461056757610583565b60019150506105c8565b60ff841115610578576105786104d2565b50506001821b6105c8565b5060208310610133831016604e8410600b84101617156105a6575081810a6105c8565b6105b083836104e8565b80600019048211156105c4576105c46104d2565b0290505b92915050565b600061048f838361052b565b80820281158282048414176105c8576105c86104d2565b60008261060e57634e487b7160e01b600052601260045260246000fd5b50049056fea2646970667358221220a111fc04f9cd6d5391f30cd9318e07a2d4548dba83b13dd575e2fc9275a5d39764736f6c63430008190033",
  "devdoc": {
    "author": "Venus",
    "kind": "dev",
    "methods": {
      "constructor": {
        "custom:oz-upgrades-unsafe-allow": "constructor"
      },
      "getPrice(address)": {
        "params": {
          "asset": "Address of the correlated token"
        },
        "returns": {
          "_0": "price The price of the correlated token in scaled decimal places"
        }
      }
    },
    "stateVariables": {
      "MARKET": {
        "custom:oz-upgrades-unsafe-allow": "state-variable-immutable"
      },
      "PT_ORACLE": {
        "custom:oz-upgrades-unsafe-allow": "state-variable-immutable"
      },
      "TWAP_DURATION": {
        "custom:oz-upgrades-unsafe-allow": "state-variable-immutable"
      }
    },
    "title": "PendleOracle",
    "version": 1
  },
  "userdoc": {
    "errors": {
      "InvalidDuration()": [
        {
          "notice": "Thrown if the duration is invalid"
        }
      ],
      "InvalidTokenAddress()": [
        {
          "notice": "Thrown if the token address is invalid"
        }
      ],
      "ZeroAddressNotAllowed()": [
        {
          "notice": "Thrown if the supplied address is a zero address where it is not allowed"
        }
      ],
      "ZeroValueNotAllowed()": [
        {
          "notice": "Thrown if the supplied value is 0 where it is not allowed"
        }
      ]
    },
    "kind": "user",
    "methods": {
      "CORRELATED_TOKEN()": {
        "notice": "Address of the correlated token"
      },
      "MARKET()": {
        "notice": "Address of the market"
      },
      "PT_ORACLE()": {
        "notice": "Address of the PT oracle"
      },
      "RESILIENT_ORACLE()": {
        "notice": "Address of Resilient Oracle"
      },
      "TWAP_DURATION()": {
        "notice": "Twap duration for the oracle"
      },
      "UNDERLYING_TOKEN()": {
        "notice": "Address of the underlying token"
      },
      "constructor": {
        "notice": "Constructor for the implementation contract."
      },
      "getPrice(address)": {
        "notice": "Fetches the price of the correlated token"
      }
    },
    "notice": "This oracle fetches the price of a pendle token",
    "version": 1
  },
  "storageLayout": {
    "storage": [],
    "types": null
  }
}