{
  "address": "0x2c8a7Fb09B4DB9A56e828cd8939019c9608AE5b2",
  "abi": [
    {
      "inputs": [],
      "stateMutability": "nonpayable",
      "type": "constructor"
    },
    {
      "inputs": [
        {
          "internalType": "address",
          "name": "sender",
          "type": "address"
        },
        {
          "internalType": "address",
          "name": "calledContract",
          "type": "address"
        },
        {
          "internalType": "string",
          "name": "methodSignature",
          "type": "string"
        }
      ],
      "name": "Unauthorized",
      "type": "error"
    },
    {
      "anonymous": false,
      "inputs": [
        {
          "indexed": false,
          "internalType": "uint8",
          "name": "version",
          "type": "uint8"
        }
      ],
      "name": "Initialized",
      "type": "event"
    },
    {
      "anonymous": false,
      "inputs": [
        {
          "indexed": false,
          "internalType": "address",
          "name": "oldAccessControlManager",
          "type": "address"
        },
        {
          "indexed": false,
          "internalType": "address",
          "name": "newAccessControlManager",
          "type": "address"
        }
      ],
      "name": "NewAccessControlManager",
      "type": "event"
    },
    {
      "anonymous": false,
      "inputs": [
        {
          "indexed": true,
          "internalType": "address",
          "name": "previousOwner",
          "type": "address"
        },
        {
          "indexed": true,
          "internalType": "address",
          "name": "newOwner",
          "type": "address"
        }
      ],
      "name": "OwnershipTransferStarted",
      "type": "event"
    },
    {
      "anonymous": false,
      "inputs": [
        {
          "indexed": true,
          "internalType": "address",
          "name": "previousOwner",
          "type": "address"
        },
        {
          "indexed": true,
          "internalType": "address",
          "name": "newOwner",
          "type": "address"
        }
      ],
      "name": "OwnershipTransferred",
      "type": "event"
    },
    {
      "anonymous": false,
      "inputs": [
        {
          "indexed": true,
          "internalType": "address",
          "name": "oldPythOracle",
          "type": "address"
        },
        {
          "indexed": true,
          "internalType": "address",
          "name": "newPythOracle",
          "type": "address"
        }
      ],
      "name": "PythOracleSet",
      "type": "event"
    },
    {
      "anonymous": false,
      "inputs": [
        {
          "indexed": true,
          "internalType": "address",
          "name": "asset",
          "type": "address"
        },
        {
          "indexed": true,
          "internalType": "bytes32",
          "name": "pythId",
          "type": "bytes32"
        },
        {
          "indexed": true,
          "internalType": "uint64",
          "name": "maxStalePeriod",
          "type": "uint64"
        }
      ],
      "name": "TokenConfigAdded",
      "type": "event"
    },
    {
      "inputs": [],
      "name": "BNB_ADDR",
      "outputs": [
        {
          "internalType": "address",
          "name": "",
          "type": "address"
        }
      ],
      "stateMutability": "view",
      "type": "function"
    },
    {
      "inputs": [],
      "name": "EXP_SCALE",
      "outputs": [
        {
          "internalType": "uint256",
          "name": "",
          "type": "uint256"
        }
      ],
      "stateMutability": "view",
      "type": "function"
    },
    {
      "inputs": [],
      "name": "acceptOwnership",
      "outputs": [],
      "stateMutability": "nonpayable",
      "type": "function"
    },
    {
      "inputs": [],
      "name": "accessControlManager",
      "outputs": [
        {
          "internalType": "contract IAccessControlManagerV8",
          "name": "",
          "type": "address"
        }
      ],
      "stateMutability": "view",
      "type": "function"
    },
    {
      "inputs": [
        {
          "internalType": "address",
          "name": "asset",
          "type": "address"
        }
      ],
      "name": "getPrice",
      "outputs": [
        {
          "internalType": "uint256",
          "name": "",
          "type": "uint256"
        }
      ],
      "stateMutability": "view",
      "type": "function"
    },
    {
      "inputs": [
        {
          "internalType": "address",
          "name": "underlyingPythOracle_",
          "type": "address"
        },
        {
          "internalType": "address",
          "name": "accessControlManager_",
          "type": "address"
        }
      ],
      "name": "initialize",
      "outputs": [],
      "stateMutability": "nonpayable",
      "type": "function"
    },
    {
      "inputs": [],
      "name": "owner",
      "outputs": [
        {
          "internalType": "address",
          "name": "",
          "type": "address"
        }
      ],
      "stateMutability": "view",
      "type": "function"
    },
    {
      "inputs": [],
      "name": "pendingOwner",
      "outputs": [
        {
          "internalType": "address",
          "name": "",
          "type": "address"
        }
      ],
      "stateMutability": "view",
      "type": "function"
    },
    {
      "inputs": [],
      "name": "renounceOwnership",
      "outputs": [],
      "stateMutability": "nonpayable",
      "type": "function"
    },
    {
      "inputs": [
        {
          "internalType": "address",
          "name": "accessControlManager_",
          "type": "address"
        }
      ],
      "name": "setAccessControlManager",
      "outputs": [],
      "stateMutability": "nonpayable",
      "type": "function"
    },
    {
      "inputs": [
        {
          "components": [
            {
              "internalType": "bytes32",
              "name": "pythId",
              "type": "bytes32"
            },
            {
              "internalType": "address",
              "name": "asset",
              "type": "address"
            },
            {
              "internalType": "uint64",
              "name": "maxStalePeriod",
              "type": "uint64"
            }
          ],
          "internalType": "struct PythOracle.TokenConfig",
          "name": "tokenConfig",
          "type": "tuple"
        }
      ],
      "name": "setTokenConfig",
      "outputs": [],
      "stateMutability": "nonpayable",
      "type": "function"
    },
    {
      "inputs": [
        {
          "components": [
            {
              "internalType": "bytes32",
              "name": "pythId",
              "type": "bytes32"
            },
            {
              "internalType": "address",
              "name": "asset",
              "type": "address"
            },
            {
              "internalType": "uint64",
              "name": "maxStalePeriod",
              "type": "uint64"
            }
          ],
          "internalType": "struct PythOracle.TokenConfig[]",
          "name": "tokenConfigs_",
          "type": "tuple[]"
        }
      ],
      "name": "setTokenConfigs",
      "outputs": [],
      "stateMutability": "nonpayable",
      "type": "function"
    },
    {
      "inputs": [
        {
          "internalType": "contract IPyth",
          "name": "underlyingPythOracle_",
          "type": "address"
        }
      ],
      "name": "setUnderlyingPythOracle",
      "outputs": [],
      "stateMutability": "nonpayable",
      "type": "function"
    },
    {
      "inputs": [
        {
          "internalType": "address",
          "name": "",
          "type": "address"
        }
      ],
      "name": "tokenConfigs",
      "outputs": [
        {
          "internalType": "bytes32",
          "name": "pythId",
          "type": "bytes32"
        },
        {
          "internalType": "address",
          "name": "asset",
          "type": "address"
        },
        {
          "internalType": "uint64",
          "name": "maxStalePeriod",
          "type": "uint64"
        }
      ],
      "stateMutability": "view",
      "type": "function"
    },
    {
      "inputs": [
        {
          "internalType": "address",
          "name": "newOwner",
          "type": "address"
        }
      ],
      "name": "transferOwnership",
      "outputs": [],
      "stateMutability": "nonpayable",
      "type": "function"
    },
    {
      "inputs": [],
      "name": "underlyingPythOracle",
      "outputs": [
        {
          "internalType": "contract IPyth",
          "name": "",
          "type": "address"
        }
      ],
      "stateMutability": "view",
      "type": "function"
    }
  ],
  "transactionHash": "0xef21b7c5f313daed9286578c21453529df3b2d1a34e19da7914f8bd44f46a3f7",
  "args": [],
  "numDeployments": 1,
  "solcInputHash": "b4962e27443e3bf2f87d1cfaf12c7854",
  "bytecode": "0x608060405234801561001057600080fd5b5061001961001e565b6100de565b600054610100900460ff161561008a5760405162461bcd60e51b815260206004820152602760248201527f496e697469616c697a61626c653a20636f6e747261637420697320696e697469604482015266616c697a696e6760c81b606482015260840160405180910390fd5b60005460ff90811610156100dc576000805460ff191660ff9081179091556040519081527f7f26b83ff96e1f2b6a682f133852f6798a09c465da95921460cefb38474024989060200160405180910390a15b565b611397806100ed6000396000f3fe608060405234801561001057600080fd5b50600436106101005760003560e01c8063715018a611610097578063bbba205d11610066578063bbba205d14610261578063e30c397814610270578063eb8bee7014610281578063f2fde38b1461029457600080fd5b8063715018a61461022f57806379ba5097146102375780638da5cb5b1461023f578063b4a0bdf31461025057600080fd5b8063485cc955116100d3578063485cc955146101e357806356fa5a56146101f65780636a8c7d3514610209578063703ae1b91461021c57600080fd5b80630e32cb86146101055780631b69dc5f1461011a5780633e83b6b81461018f57806341976e09146101c2575b600080fd5b610118610113366004610de5565b6102a7565b005b61015d610128366004610de5565b60ca60205260009081526040902080546001909101546001600160a01b03811690600160a01b900467ffffffffffffffff1683565b604080519384526001600160a01b03909216602084015267ffffffffffffffff16908201526060015b60405180910390f35b6101aa73bbbbbbbbbbbbbbbbbbbbbbbbbbbbbbbbbbbbbbbb81565b6040516001600160a01b039091168152602001610186565b6101d56101d0366004610de5565b6102bb565b604051908152602001610186565b6101186101f1366004610e02565b61036a565b60c9546101aa906001600160a01b031681565b610118610217366004610f05565b6104f3565b61011861022a366004610de5565b61056f565b610118610626565b61011861063a565b6033546001600160a01b03166101aa565b6097546001600160a01b03166101aa565b6101d5670de0b6b3a764000081565b6065546001600160a01b03166101aa565b61011861028f366004610fb5565b6106b1565b6101186102a2366004610de5565b6107ff565b6102af610870565b6102b8816108ca565b50565b60008073bbbbbbbbbbbbbbbbbbbbbbbbbbbbbbbbbbbbbbba196001600160a01b038416016102eb57506012610359565b6000839050806001600160a01b031663313ce5676040518163ffffffff1660e01b8152600401602060405180830381865afa15801561032e573d6000803e3d6000fd5b505050506040513d601f19601f820116820180604052508101906103529190610fd1565b60ff169150505b610363838261098f565b9392505050565b600054610100900460ff161580801561038a5750600054600160ff909116105b806103a45750303b1580156103a4575060005460ff166001145b61040c5760405162461bcd60e51b815260206004820152602e60248201527f496e697469616c697a61626c653a20636f6e747261637420697320616c72656160448201526d191e481a5b9a5d1a585b1a5e995960921b60648201526084015b60405180910390fd5b6000805460ff19166001179055801561042f576000805461ff0019166101001790555b826001600160a01b0381166104565760405162461bcd60e51b815260040161040390610ff4565b61045f83610bb3565b60c980546001600160a01b0319166001600160a01b0386169081179091556040516000907e4e195fa31ccc70d4b5113711cee69b9f2059118d18832686a27d19e62a953f908290a35080156104ee576000805461ff0019169055604051600181527f7f26b83ff96e1f2b6a682f133852f6798a09c465da95921460cefb38474024989060200160405180910390a15b505050565b80516000036105385760405162461bcd60e51b815260206004820152601160248201527006c656e6774682063616e2774206265203607c1b6044820152606401610403565b805160005b818110156104ee5761056783828151811061055a5761055a611023565b60200260200101516106b1565b60010161053d565b806001600160a01b0381166105965760405162461bcd60e51b815260040161040390610ff4565b6105d46040518060400160405280602081526020017f736574556e6465726c79696e67507974684f7261636c65286164647265737329815250610beb565b60c980546001600160a01b038481166001600160a01b0319831681179093556040519116919082907e4e195fa31ccc70d4b5113711cee69b9f2059118d18832686a27d19e62a953f90600090a3505050565b61062e610870565b6106386000610c89565b565b60655433906001600160a01b031681146106a85760405162461bcd60e51b815260206004820152602960248201527f4f776e61626c6532537465703a2063616c6c6572206973206e6f7420746865206044820152683732bb9037bbb732b960b91b6064820152608401610403565b6102b881610c89565b60208101516001600160a01b0381166106dc5760405162461bcd60e51b815260040161040390610ff4565b61071a6040518060400160405280601b81526020017f736574546f6b656e436f6e66696728546f6b656e436f6e666967290000000000815250610beb565b816040015167ffffffffffffffff166000036107785760405162461bcd60e51b815260206004820152601c60248201527f6d6178207374616c6520706572696f642063616e6e6f742062652030000000006044820152606401610403565b602082810180516001600160a01b03908116600090815260ca9093526040808420865180825593516001909101805483890151929094166001600160e01b03199094168417600160a01b67ffffffffffffffff909316928302179055905190937f559091caed5aa983e358fdf18e8cefbc8ea71f64ea252477cf32778ae4c398b291a45050565b610807610870565b606580546001600160a01b0383166001600160a01b031990911681179091556108386033546001600160a01b031690565b6001600160a01b03167f38d16b8cac22d99fc7c124b9cd0de2d3fa1faef420bfe791d8c362d765e2270060405160405180910390a350565b6033546001600160a01b031633146106385760405162461bcd60e51b815260206004820181905260248201527f4f776e61626c653a2063616c6c6572206973206e6f7420746865206f776e65726044820152606401610403565b6001600160a01b03811661092e5760405162461bcd60e51b815260206004820152602560248201527f696e76616c696420616365737320636f6e74726f6c206d616e61676572206164604482015264647265737360d81b6064820152608401610403565b609780546001600160a01b038381166001600160a01b031983168117909355604080519190921680825260208201939093527f66fd58e82f7b31a2a5c30e0888f3093efe4e111b00cd2b0c31fe014601293aa0910160405180910390a15050565b6001600160a01b03808316600090815260ca60205260408120600181015491929091166109f45760405162461bcd60e51b8152602060048201526013602482015272185cdcd95d08191bd95cdb89dd08195e1a5cdd606a1b6044820152606401610403565b60c9548154600183015460405163052571af60e51b81526004810192909252600160a01b900467ffffffffffffffff1660248201526000916001600160a01b03169063a4ae35e090604401608060405180830381865afa158015610a5c573d6000803e3d6000fd5b505050506040513d601f19601f82011682018060405250810190610a809190611039565b90506000610a94826000015160070b610ca2565b905080600003610ae65760405162461bcd60e51b815260206004820152601960248201527f696e76616c69642070797468206f7261636c65207072696365000000000000006044820152606401610403565b6000826040015160030b1315610b5757610b018560126110db565b610b0c90600a6111d6565b610b1c836040015160030b610ca2565b610b2790600a6111d6565b610b39670de0b6b3a7640000846111e2565b610b4391906111e2565b610b4d91906111e2565b9350505050610bad565b610b628560126110db565b610b6d90600a6111d6565b610b868360400151610b7e90611201565b60030b610ca2565b610b9190600a6111d6565b610ba3670de0b6b3a7640000846111e2565b610b439190611224565b92915050565b600054610100900460ff16610bda5760405162461bcd60e51b815260040161040390611246565b610be2610cf8565b6102b881610d27565b6097546040516318c5e8ab60e01b81526000916001600160a01b0316906318c5e8ab90610c1e90339086906004016112de565b602060405180830381865afa158015610c3b573d6000803e3d6000fd5b505050506040513d601f19601f82011682018060405250810190610c5f919061130a565b905080610c8557333083604051634a3fa29360e01b81526004016104039392919061132c565b5050565b606580546001600160a01b03191690556102b881610d4e565b600080821215610cf45760405162461bcd60e51b815260206004820181905260248201527f53616665436173743a2076616c7565206d75737420626520706f7369746976656044820152606401610403565b5090565b600054610100900460ff16610d1f5760405162461bcd60e51b815260040161040390611246565b610638610da0565b600054610100900460ff166102af5760405162461bcd60e51b815260040161040390611246565b603380546001600160a01b038381166001600160a01b0319831681179093556040519116919082907f8be0079c531659141344cd1fd0a4f28419497f9722a3daafe3b4186f6b6457e090600090a35050565b600054610100900460ff16610dc75760405162461bcd60e51b815260040161040390611246565b61063833610c89565b6001600160a01b03811681146102b857600080fd5b600060208284031215610df757600080fd5b813561036381610dd0565b60008060408385031215610e1557600080fd5b8235610e2081610dd0565b91506020830135610e3081610dd0565b809150509250929050565b634e487b7160e01b600052604160045260246000fd5b604051601f8201601f1916810167ffffffffffffffff81118282101715610e7a57610e7a610e3b565b604052919050565b67ffffffffffffffff811681146102b857600080fd5b600060608284031215610eaa57600080fd5b6040516060810181811067ffffffffffffffff82111715610ecd57610ecd610e3b565b604052823581529050806020830135610ee581610dd0565b60208201526040830135610ef881610e82565b6040919091015292915050565b60006020808385031215610f1857600080fd5b823567ffffffffffffffff80821115610f3057600080fd5b818501915085601f830112610f4457600080fd5b813581811115610f5657610f56610e3b565b610f64848260051b01610e51565b81815284810192506060918202840185019188831115610f8357600080fd5b938501935b82851015610fa957610f9a8986610e98565b84529384019392850192610f88565b50979650505050505050565b600060608284031215610fc757600080fd5b6103638383610e98565b600060208284031215610fe357600080fd5b815160ff8116811461036357600080fd5b60208082526015908201527463616e2774206265207a65726f206164647265737360581b604082015260600190565b634e487b7160e01b600052603260045260246000fd5b60006080828403121561104b57600080fd5b6040516080810181811067ffffffffffffffff8211171561106e5761106e610e3b565b6040528251600781900b811461108357600080fd5b8152602083015161109381610e82565b60208201526040830151600381900b81146110ad57600080fd5b60408201526060928301519281019290925250919050565b634e487b7160e01b600052601160045260246000fd5b6000828210156110ed576110ed6110c5565b500390565b600181815b8085111561112d578160001904821115611113576111136110c5565b8085161561112057918102915b93841c93908002906110f7565b509250929050565b60008261114457506001610bad565b8161115157506000610bad565b816001811461116757600281146111715761118d565b6001915050610bad565b60ff841115611182576111826110c5565b50506001821b610bad565b5060208310610133831016604e8410600b84101617156111b0575081810a610bad565b6111ba83836110f2565b80600019048211156111ce576111ce6110c5565b029392505050565b60006103638383611135565b60008160001904831182151516156111fc576111fc6110c5565b500290565b60008160030b637fffffff19810361121b5761121b6110c5565b60000392915050565b60008261124157634e487b7160e01b600052601260045260246000fd5b500490565b6020808252602b908201527f496e697469616c697a61626c653a20636f6e7472616374206973206e6f74206960408201526a6e697469616c697a696e6760a81b606082015260800190565b6000815180845260005b818110156112b75760208185018101518683018201520161129b565b818111156112c9576000602083870101525b50601f01601f19169290920160200192915050565b6001600160a01b038316815260406020820181905260009061130290830184611291565b949350505050565b60006020828403121561131c57600080fd5b8151801515811461036357600080fd5b6001600160a01b0384811682528316602082015260606040820181905260009061135890830184611291565b9594505050505056fea2646970667358221220f00bccb46b5349320cd69b393648e7d9aff1a959bec1db034e7f27bab2de340e64736f6c634300080d0033",
  "devdoc": {
    "author": "Venus",
    "kind": "dev",
    "methods": {
      "acceptOwnership()": {
        "details": "The new owner accepts the ownership transfer."
      },
      "constructor": {
        "custom:oz-upgrades-unsafe-allow": "constructor"
      },
      "getPrice(address)": {
        "params": {
          "asset": "Address of the asset"
        },
        "returns": {
          "_0": "Price in USD"
        }
      },
      "initialize(address,address)": {
        "params": {
          "accessControlManager_": "Address of the access control manager contract",
          "underlyingPythOracle_": "Address of the Pyth oracle"
        }
      },
      "owner()": {
        "details": "Returns the address of the current owner."
      },
      "pendingOwner()": {
        "details": "Returns the address of the pending owner."
      },
      "renounceOwnership()": {
        "details": "Leaves the contract without owner. It will not be possible to call `onlyOwner` functions anymore. Can only be called by the current owner. NOTE: Renouncing ownership will leave the contract without an owner, thereby removing any functionality that is only available to the owner."
      },
      "setAccessControlManager(address)": {
        "custom:access": "Only Governance",
        "custom:event": "Emits NewAccessControlManager event",
        "details": "Admin function to set address of AccessControlManager",
        "params": {
          "accessControlManager_": "The new address of the AccessControlManager"
        }
      },
      "setTokenConfig((bytes32,address,uint64))": {
        "custom:access": "Only Governance",
        "custom:error": "Range error is thrown if max stale period is zeroNotNullAddress error is thrown if asset address is null",
        "params": {
          "tokenConfig": "Token config struct"
        }
      },
      "setTokenConfigs((bytes32,address,uint64)[])": {
        "custom:access": "Only Governance",
        "custom:error": "Zero length error is thrown if length of the array in parameter is 0",
        "params": {
          "tokenConfigs_": "Token config array"
        }
      },
      "setUnderlyingPythOracle(address)": {
        "custom:access": "Only Governance",
        "custom:error": "NotNullAddress error thrown if underlyingPythOracle_ address is zero",
        "custom:event": "Emits PythOracleSet event with address of Pyth oracle.",
        "params": {
          "underlyingPythOracle_": "Pyth oracle contract address"
        }
      },
      "transferOwnership(address)": {
        "details": "Starts the ownership transfer of the contract to a new account. Replaces the pending transfer if there is one. Can only be called by the current owner."
      }
    },
    "title": "PythOracle",
    "version": 1
  },
  "userdoc": {
    "errors": {
      "Unauthorized(address,address,string)": [
        {
          "notice": "Thrown when the action is prohibited by AccessControlManager"
        }
      ]
    },
    "events": {
      "NewAccessControlManager(address,address)": {
        "notice": "Emitted when access control manager contract address is changed"
      },
      "PythOracleSet(address,address)": {
        "notice": "Emit when setting a new pyth oracle address"
      },
      "TokenConfigAdded(address,bytes32,uint64)": {
        "notice": "Emit when a token config is added"
      }
    },
    "kind": "user",
    "methods": {
      "BNB_ADDR()": {
        "notice": "Set this as asset address for BNB. This is the underlying for vBNB"
      },
      "EXP_SCALE()": {
        "notice": "Exponent scale (decimal precision) of prices"
      },
      "accessControlManager()": {
        "notice": "Returns the address of the access control manager contract"
      },
      "constructor": {
        "notice": "Constructor for the implementation contract."
      },
      "getPrice(address)": {
        "notice": "Gets the price of a asset from the pyth oracle"
      },
      "initialize(address,address)": {
        "notice": "Initializes the owner of the contract and sets required contracts"
      },
      "setAccessControlManager(address)": {
        "notice": "Sets the address of AccessControlManager"
      },
      "setTokenConfig((bytes32,address,uint64))": {
        "notice": "Set single token config. `maxStalePeriod` cannot be 0 and `asset` cannot be a null address"
      },
      "setTokenConfigs((bytes32,address,uint64)[])": {
        "notice": "Batch set token configs"
      },
      "setUnderlyingPythOracle(address)": {
        "notice": "Set the underlying Pyth oracle contract address"
      },
      "tokenConfigs(address)": {
        "notice": "Token configs by asset address"
      },
      "underlyingPythOracle()": {
        "notice": "The actual pyth oracle address fetch & store the prices"
      }
    },
    "notice": "PythOracle contract reads prices from actual Pyth oracle contract which accepts, verifies and stores the updated prices from external sources",
    "version": 1
  },
  "storageLayout": {
    "storage": [
      {
        "astId": 290,
        "contract": "contracts/oracles/PythOracle.sol:PythOracle",
        "label": "_initialized",
        "offset": 0,
        "slot": "0",
        "type": "t_uint8"
      },
      {
        "astId": 293,
        "contract": "contracts/oracles/PythOracle.sol:PythOracle",
        "label": "_initializing",
        "offset": 1,
        "slot": "0",
        "type": "t_bool"
      },
      {
        "astId": 904,
        "contract": "contracts/oracles/PythOracle.sol:PythOracle",
        "label": "__gap",
        "offset": 0,
        "slot": "1",
        "type": "t_array(t_uint256)50_storage"
      },
      {
        "astId": 162,
        "contract": "contracts/oracles/PythOracle.sol:PythOracle",
        "label": "_owner",
        "offset": 0,
        "slot": "51",
        "type": "t_address"
      },
      {
        "astId": 282,
        "contract": "contracts/oracles/PythOracle.sol:PythOracle",
        "label": "__gap",
        "offset": 0,
        "slot": "52",
        "type": "t_array(t_uint256)49_storage"
      },
      {
        "astId": 71,
        "contract": "contracts/oracles/PythOracle.sol:PythOracle",
        "label": "_pendingOwner",
        "offset": 0,
        "slot": "101",
        "type": "t_address"
      },
      {
        "astId": 150,
        "contract": "contracts/oracles/PythOracle.sol:PythOracle",
        "label": "__gap",
        "offset": 0,
        "slot": "102",
        "type": "t_array(t_uint256)49_storage"
      },
      {
        "astId": 2741,
        "contract": "contracts/oracles/PythOracle.sol:PythOracle",
        "label": "_accessControlManager",
        "offset": 0,
        "slot": "151",
        "type": "t_contract(IAccessControlManagerV8)2925"
      },
      {
        "astId": 2746,
        "contract": "contracts/oracles/PythOracle.sol:PythOracle",
        "label": "__gap",
        "offset": 0,
        "slot": "152",
        "type": "t_array(t_uint256)49_storage"
      },
      {
        "astId": 5619,
        "contract": "contracts/oracles/PythOracle.sol:PythOracle",
        "label": "underlyingPythOracle",
        "offset": 0,
        "slot": "201",
        "type": "t_contract(IPyth)4082"
      },
      {
        "astId": 5625,
        "contract": "contracts/oracles/PythOracle.sol:PythOracle",
        "label": "tokenConfigs",
        "offset": 0,
        "slot": "202",
        "type": "t_mapping(t_address,t_struct(TokenConfig)5607_storage)"
      }
    ],
    "types": {
      "t_address": {
        "encoding": "inplace",
        "label": "address",
        "numberOfBytes": "20"
      },
      "t_array(t_uint256)49_storage": {
        "base": "t_uint256",
        "encoding": "inplace",
        "label": "uint256[49]",
        "numberOfBytes": "1568"
      },
      "t_array(t_uint256)50_storage": {
        "base": "t_uint256",
        "encoding": "inplace",
        "label": "uint256[50]",
        "numberOfBytes": "1600"
      },
      "t_bool": {
        "encoding": "inplace",
        "label": "bool",
        "numberOfBytes": "1"
      },
      "t_bytes32": {
        "encoding": "inplace",
        "label": "bytes32",
        "numberOfBytes": "32"
      },
      "t_contract(IAccessControlManagerV8)2925": {
        "encoding": "inplace",
        "label": "contract IAccessControlManagerV8",
        "numberOfBytes": "20"
      },
      "t_contract(IPyth)4082": {
        "encoding": "inplace",
        "label": "contract IPyth",
        "numberOfBytes": "20"
      },
      "t_mapping(t_address,t_struct(TokenConfig)5607_storage)": {
        "encoding": "mapping",
        "key": "t_address",
        "label": "mapping(address => struct PythOracle.TokenConfig)",
        "numberOfBytes": "32",
        "value": "t_struct(TokenConfig)5607_storage"
      },
      "t_struct(TokenConfig)5607_storage": {
        "encoding": "inplace",
        "label": "struct PythOracle.TokenConfig",
        "members": [
          {
            "astId": 5602,
            "contract": "contracts/oracles/PythOracle.sol:PythOracle",
            "label": "pythId",
            "offset": 0,
            "slot": "0",
            "type": "t_bytes32"
          },
          {
            "astId": 5604,
            "contract": "contracts/oracles/PythOracle.sol:PythOracle",
            "label": "asset",
            "offset": 0,
            "slot": "1",
            "type": "t_address"
          },
          {
            "astId": 5606,
            "contract": "contracts/oracles/PythOracle.sol:PythOracle",
            "label": "maxStalePeriod",
            "offset": 20,
            "slot": "1",
            "type": "t_uint64"
          }
        ],
        "numberOfBytes": "64"
      },
      "t_uint256": {
        "encoding": "inplace",
        "label": "uint256",
        "numberOfBytes": "32"
      },
      "t_uint64": {
        "encoding": "inplace",
        "label": "uint64",
        "numberOfBytes": "8"
      },
      "t_uint8": {
        "encoding": "inplace",
        "label": "uint8",
        "numberOfBytes": "1"
      }
    }
  }
}