{
  "address": "0xeD4E76bAbA330287Ca2D8d5857da6703bc653621",
  "abi": [
    {
      "inputs": [
        {
          "internalType": "address",
          "name": "correlatedToken",
          "type": "address"
        },
        {
          "internalType": "address",
          "name": "underlyingToken",
          "type": "address"
        },
        {
          "internalType": "address",
          "name": "resilientOracle",
          "type": "address"
        }
      ],
      "stateMutability": "nonpayable",
      "type": "constructor"
    },
    {
      "inputs": [],
      "name": "InvalidTokenAddress",
      "type": "error"
    },
    {
      "inputs": [],
      "name": "ZeroAddressNotAllowed",
      "type": "error"
    },
    {
      "inputs": [],
      "name": "CORRELATED_TOKEN",
      "outputs": [
        {
          "internalType": "address",
          "name": "",
          "type": "address"
        }
      ],
      "stateMutability": "view",
      "type": "function"
    },
    {
      "inputs": [],
      "name": "RESILIENT_ORACLE",
      "outputs": [
        {
          "internalType": "contract OracleInterface",
          "name": "",
          "type": "address"
        }
      ],
      "stateMutability": "view",
      "type": "function"
    },
    {
      "inputs": [],
      "name": "UNDERLYING_TOKEN",
      "outputs": [
        {
          "internalType": "address",
          "name": "",
          "type": "address"
        }
      ],
      "stateMutability": "view",
      "type": "function"
    },
    {
      "inputs": [
        {
          "internalType": "address",
          "name": "asset",
          "type": "address"
        }
      ],
      "name": "getPrice",
      "outputs": [
        {
          "internalType": "uint256",
          "name": "",
          "type": "uint256"
        }
      ],
      "stateMutability": "view",
      "type": "function"
    }
  ],
  "transactionHash": "0x99306a699d109fb0f62b42f231941c9b039c3d7026a88cc7bd3fdaf67b403a99",
  "args": [
    "0xA3A3e5ecEA56940a4Ae32d0927bfd8821DdA848A",
    "0x8bAe3E12870a002A0D4b6Eb0F0CBf91b29d9806F",
    "0x8000eca36201dddf5805Aa4BeFD73d1EB4D23264"
  ],
  "numDeployments": 1,
  "solcInputHash": "10211ffe5f5d2e235e8b1b524375aa59",
  "bytecode": "0x60e060405234801561001057600080fd5b5060405161068c38038061068c83398101604081905261002f916100b4565b82828261003b8361006e565b6100448261006e565b61004d8161006e565b6001600160a01b0392831660805290821660a0521660c052506100f7915050565b6001600160a01b038116610095576040516342bcdf7f60e11b815260040160405180910390fd5b50565b80516001600160a01b03811681146100af57600080fd5b919050565b6000806000606084860312156100c957600080fd5b6100d284610098565b92506100e060208501610098565b91506100ee60408501610098565b90509250925092565b60805160a05160c0516105466101466000396000818160e201526101a70152600081816056015261017901526000818160bb015281816101080152818161021801526102eb01526105466000f3fe608060405234801561001057600080fd5b506004361061004c5760003560e01c806329db1be61461005157806341976e091461009557806369818a35146100b6578063a4edcd4c146100dd575b600080fd5b6100787f000000000000000000000000000000000000000000000000000000000000000081565b6040516001600160a01b0390911681526020015b60405180910390f35b6100a86100a3366004610363565b610104565b60405190815260200161008c565b6100787f000000000000000000000000000000000000000000000000000000000000000081565b6100787f000000000000000000000000000000000000000000000000000000000000000081565b60007f00000000000000000000000000000000000000000000000000000000000000006001600160a01b0316826001600160a01b03161461015857604051630f58058360e11b815260040160405180910390fd5b60006101626102cb565b6040516341976e0960e01b81526001600160a01b037f0000000000000000000000000000000000000000000000000000000000000000811660048301529192506000917f000000000000000000000000000000000000000000000000000000000000000016906341976e0990602401602060405180830381865afa1580156101ee573d6000803e3d6000fd5b505050506040513d601f19601f820116820180604052508101906102129190610393565b905060007f000000000000000000000000000000000000000000000000000000000000000090506000816001600160a01b031663313ce5676040518163ffffffff1660e01b8152600401602060405180830381865afa158015610279573d6000803e3d6000fd5b505050506040513d601f19601f8201168201806040525081019061029d91906103ac565b60ff1690506102ad81600a6104cb565b6102b784866104d7565b6102c191906104ee565b9695505050505050565b6040516303d1689d60e11b8152670de0b6b3a764000060048201526000907f00000000000000000000000000000000000000000000000000000000000000006001600160a01b0316906307a2d13a90602401602060405180830381865afa15801561033a573d6000803e3d6000fd5b505050506040513d601f19601f8201168201806040525081019061035e9190610393565b905090565b60006020828403121561037557600080fd5b81356001600160a01b038116811461038c57600080fd5b9392505050565b6000602082840312156103a557600080fd5b5051919050565b6000602082840312156103be57600080fd5b815160ff8116811461038c57600080fd5b634e487b7160e01b600052601160045260246000fd5b600181815b80851115610420578160001904821115610406576104066103cf565b8085161561041357918102915b93841c93908002906103ea565b509250929050565b600082610437575060016104c5565b81610444575060006104c5565b816001811461045a576002811461046457610480565b60019150506104c5565b60ff841115610475576104756103cf565b50506001821b6104c5565b5060208310610133831016604e8410600b84101617156104a3575081810a6104c5565b6104ad83836103e5565b80600019048211156104c1576104c16103cf565b0290505b92915050565b600061038c8383610428565b80820281158282048414176104c5576104c56103cf565b60008261050b57634e487b7160e01b600052601260045260246000fd5b50049056fea2646970667358221220b8aabdde7a5185df92a9b3bbc53b81c46bfddf0bb9a419b4da60c391f81d767064736f6c63430008190033",
  "devdoc": {
    "author": "Venus",
    "kind": "dev",
    "methods": {
      "constructor": {
        "custom:oz-upgrades-unsafe-allow": "constructor"
      },
      "getPrice(address)": {
        "params": {
          "asset": "Address of the correlated token"
        },
        "returns": {
          "_0": "price The price of the correlated token in scaled decimal places"
        }
      }
    },
    "title": "ERC4626Oracle",
    "version": 1
  },
  "userdoc": {
    "errors": {
      "InvalidTokenAddress()": [
        {
          "notice": "Thrown if the token address is invalid"
        }
      ],
      "ZeroAddressNotAllowed()": [
        {
          "notice": "Thrown if the supplied address is a zero address where it is not allowed"
        }
      ]
    },
    "kind": "user",
    "methods": {
      "CORRELATED_TOKEN()": {
        "notice": "Address of the correlated token"
      },
      "RESILIENT_ORACLE()": {
        "notice": "Address of Resilient Oracle"
      },
      "UNDERLYING_TOKEN()": {
        "notice": "Address of the underlying token"
      },
      "constructor": {
        "notice": "Constructor for the implementation contract."
      },
      "getPrice(address)": {
        "notice": "Fetches the price of the correlated token"
      }
    },
    "notice": "This oracle fetches the price of ERC4626 tokens",
    "version": 1
  },
  "storageLayout": {
    "storage": [],
    "types": null
  }
}