{
  "address": "0xF9ce72611a1BE9797FdD2c995dB6fB61FD20E4eB",
  "abi": [
    {
      "inputs": [
        {
          "internalType": "address",
          "name": "wBnbAddress",
          "type": "address"
        }
      ],
      "stateMutability": "nonpayable",
      "type": "constructor"
    },
    {
      "inputs": [
        {
          "internalType": "address",
          "name": "sender",
          "type": "address"
        },
        {
          "internalType": "address",
          "name": "calledContract",
          "type": "address"
        },
        {
          "internalType": "string",
          "name": "methodSignature",
          "type": "string"
        }
      ],
      "name": "Unauthorized",
      "type": "error"
    },
    {
      "anonymous": false,
      "inputs": [
        {
          "indexed": true,
          "internalType": "address",
          "name": "asset",
          "type": "address"
        },
        {
          "indexed": false,
          "internalType": "uint256",
          "name": "price",
          "type": "uint256"
        },
        {
          "indexed": false,
          "internalType": "uint256",
          "name": "oldTimestamp",
          "type": "uint256"
        },
        {
          "indexed": false,
          "internalType": "uint256",
          "name": "newTimestamp",
          "type": "uint256"
        }
      ],
      "name": "AnchorPriceUpdated",
      "type": "event"
    },
    {
      "anonymous": false,
      "inputs": [
        {
          "indexed": false,
          "internalType": "uint8",
          "name": "version",
          "type": "uint8"
        }
      ],
      "name": "Initialized",
      "type": "event"
    },
    {
      "anonymous": false,
      "inputs": [
        {
          "indexed": false,
          "internalType": "address",
          "name": "oldAccessControlManager",
          "type": "address"
        },
        {
          "indexed": false,
          "internalType": "address",
          "name": "newAccessControlManager",
          "type": "address"
        }
      ],
      "name": "NewAccessControlManager",
      "type": "event"
    },
    {
      "anonymous": false,
      "inputs": [
        {
          "indexed": true,
          "internalType": "address",
          "name": "previousOwner",
          "type": "address"
        },
        {
          "indexed": true,
          "internalType": "address",
          "name": "newOwner",
          "type": "address"
        }
      ],
      "name": "OwnershipTransferStarted",
      "type": "event"
    },
    {
      "anonymous": false,
      "inputs": [
        {
          "indexed": true,
          "internalType": "address",
          "name": "previousOwner",
          "type": "address"
        },
        {
          "indexed": true,
          "internalType": "address",
          "name": "newOwner",
          "type": "address"
        }
      ],
      "name": "OwnershipTransferred",
      "type": "event"
    },
    {
      "anonymous": false,
      "inputs": [
        {
          "indexed": true,
          "internalType": "address",
          "name": "asset",
          "type": "address"
        },
        {
          "indexed": true,
          "internalType": "address",
          "name": "pancakePool",
          "type": "address"
        },
        {
          "indexed": true,
          "internalType": "uint256",
          "name": "anchorPeriod",
          "type": "uint256"
        }
      ],
      "name": "TokenConfigAdded",
      "type": "event"
    },
    {
      "anonymous": false,
      "inputs": [
        {
          "indexed": true,
          "internalType": "address",
          "name": "asset",
          "type": "address"
        },
        {
          "indexed": false,
          "internalType": "uint256",
          "name": "oldTimestamp",
          "type": "uint256"
        },
        {
          "indexed": false,
          "internalType": "uint256",
          "name": "oldAcc",
          "type": "uint256"
        },
        {
          "indexed": false,
          "internalType": "uint256",
          "name": "newTimestamp",
          "type": "uint256"
        },
        {
          "indexed": false,
          "internalType": "uint256",
          "name": "newAcc",
          "type": "uint256"
        }
      ],
      "name": "TwapWindowUpdated",
      "type": "event"
    },
    {
      "inputs": [],
      "name": "BNB_ADDR",
      "outputs": [
        {
          "internalType": "address",
          "name": "",
          "type": "address"
        }
      ],
      "stateMutability": "view",
      "type": "function"
    },
    {
      "inputs": [],
      "name": "BNB_BASE_UNIT",
      "outputs": [
        {
          "internalType": "uint256",
          "name": "",
          "type": "uint256"
        }
      ],
      "stateMutability": "view",
      "type": "function"
    },
    {
      "inputs": [],
      "name": "BUSD_BASE_UNIT",
      "outputs": [
        {
          "internalType": "uint256",
          "name": "",
          "type": "uint256"
        }
      ],
      "stateMutability": "view",
      "type": "function"
    },
    {
      "inputs": [],
      "name": "WBNB",
      "outputs": [
        {
          "internalType": "address",
          "name": "",
          "type": "address"
        }
      ],
      "stateMutability": "view",
      "type": "function"
    },
    {
      "inputs": [],
      "name": "acceptOwnership",
      "outputs": [],
      "stateMutability": "nonpayable",
      "type": "function"
    },
    {
      "inputs": [],
      "name": "accessControlManager",
      "outputs": [
        {
          "internalType": "contract IAccessControlManagerV8",
          "name": "",
          "type": "address"
        }
      ],
      "stateMutability": "view",
      "type": "function"
    },
    {
      "inputs": [
        {
          "components": [
            {
              "internalType": "address",
              "name": "asset",
              "type": "address"
            },
            {
              "internalType": "uint256",
              "name": "baseUnit",
              "type": "uint256"
            },
            {
              "internalType": "address",
              "name": "pancakePool",
              "type": "address"
            },
            {
              "internalType": "bool",
              "name": "isBnbBased",
              "type": "bool"
            },
            {
              "internalType": "bool",
              "name": "isReversedPool",
              "type": "bool"
            },
            {
              "internalType": "uint256",
              "name": "anchorPeriod",
              "type": "uint256"
            }
          ],
          "internalType": "struct TwapOracle.TokenConfig",
          "name": "config",
          "type": "tuple"
        }
      ],
      "name": "currentCumulativePrice",
      "outputs": [
        {
          "internalType": "uint256",
          "name": "",
          "type": "uint256"
        }
      ],
      "stateMutability": "view",
      "type": "function"
    },
    {
      "inputs": [
        {
          "internalType": "address",
          "name": "asset",
          "type": "address"
        }
      ],
      "name": "getPrice",
      "outputs": [
        {
          "internalType": "uint256",
          "name": "",
          "type": "uint256"
        }
      ],
      "stateMutability": "view",
      "type": "function"
    },
    {
      "inputs": [
        {
          "internalType": "address",
          "name": "accessControlManager_",
          "type": "address"
        }
      ],
      "name": "initialize",
      "outputs": [],
      "stateMutability": "nonpayable",
      "type": "function"
    },
    {
      "inputs": [
        {
          "internalType": "address",
          "name": "",
          "type": "address"
        },
        {
          "internalType": "uint256",
          "name": "",
          "type": "uint256"
        }
      ],
      "name": "observations",
      "outputs": [
        {
          "internalType": "uint256",
          "name": "timestamp",
          "type": "uint256"
        },
        {
          "internalType": "uint256",
          "name": "acc",
          "type": "uint256"
        }
      ],
      "stateMutability": "view",
      "type": "function"
    },
    {
      "inputs": [],
      "name": "owner",
      "outputs": [
        {
          "internalType": "address",
          "name": "",
          "type": "address"
        }
      ],
      "stateMutability": "view",
      "type": "function"
    },
    {
      "inputs": [],
      "name": "pendingOwner",
      "outputs": [
        {
          "internalType": "address",
          "name": "",
          "type": "address"
        }
      ],
      "stateMutability": "view",
      "type": "function"
    },
    {
      "inputs": [
        {
          "internalType": "address",
          "name": "",
          "type": "address"
        }
      ],
      "name": "prices",
      "outputs": [
        {
          "internalType": "uint256",
          "name": "",
          "type": "uint256"
        }
      ],
      "stateMutability": "view",
      "type": "function"
    },
    {
      "inputs": [],
      "name": "renounceOwnership",
      "outputs": [],
      "stateMutability": "nonpayable",
      "type": "function"
    },
    {
      "inputs": [
        {
          "internalType": "address",
          "name": "accessControlManager_",
          "type": "address"
        }
      ],
      "name": "setAccessControlManager",
      "outputs": [],
      "stateMutability": "nonpayable",
      "type": "function"
    },
    {
      "inputs": [
        {
          "components": [
            {
              "internalType": "address",
              "name": "asset",
              "type": "address"
            },
            {
              "internalType": "uint256",
              "name": "baseUnit",
              "type": "uint256"
            },
            {
              "internalType": "address",
              "name": "pancakePool",
              "type": "address"
            },
            {
              "internalType": "bool",
              "name": "isBnbBased",
              "type": "bool"
            },
            {
              "internalType": "bool",
              "name": "isReversedPool",
              "type": "bool"
            },
            {
              "internalType": "uint256",
              "name": "anchorPeriod",
              "type": "uint256"
            }
          ],
          "internalType": "struct TwapOracle.TokenConfig",
          "name": "config",
          "type": "tuple"
        }
      ],
      "name": "setTokenConfig",
      "outputs": [],
      "stateMutability": "nonpayable",
      "type": "function"
    },
    {
      "inputs": [
        {
          "components": [
            {
              "internalType": "address",
              "name": "asset",
              "type": "address"
            },
            {
              "internalType": "uint256",
              "name": "baseUnit",
              "type": "uint256"
            },
            {
              "internalType": "address",
              "name": "pancakePool",
              "type": "address"
            },
            {
              "internalType": "bool",
              "name": "isBnbBased",
              "type": "bool"
            },
            {
              "internalType": "bool",
              "name": "isReversedPool",
              "type": "bool"
            },
            {
              "internalType": "uint256",
              "name": "anchorPeriod",
              "type": "uint256"
            }
          ],
          "internalType": "struct TwapOracle.TokenConfig[]",
          "name": "configs",
          "type": "tuple[]"
        }
      ],
      "name": "setTokenConfigs",
      "outputs": [],
      "stateMutability": "nonpayable",
      "type": "function"
    },
    {
      "inputs": [
        {
          "internalType": "address",
          "name": "",
          "type": "address"
        }
      ],
      "name": "tokenConfigs",
      "outputs": [
        {
          "internalType": "address",
          "name": "asset",
          "type": "address"
        },
        {
          "internalType": "uint256",
          "name": "baseUnit",
          "type": "uint256"
        },
        {
          "internalType": "address",
          "name": "pancakePool",
          "type": "address"
        },
        {
          "internalType": "bool",
          "name": "isBnbBased",
          "type": "bool"
        },
        {
          "internalType": "bool",
          "name": "isReversedPool",
          "type": "bool"
        },
        {
          "internalType": "uint256",
          "name": "anchorPeriod",
          "type": "uint256"
        }
      ],
      "stateMutability": "view",
      "type": "function"
    },
    {
      "inputs": [
        {
          "internalType": "address",
          "name": "newOwner",
          "type": "address"
        }
      ],
      "name": "transferOwnership",
      "outputs": [],
      "stateMutability": "nonpayable",
      "type": "function"
    },
    {
      "inputs": [
        {
          "internalType": "address",
          "name": "asset",
          "type": "address"
        }
      ],
      "name": "updateTwap",
      "outputs": [
        {
          "internalType": "uint256",
          "name": "",
          "type": "uint256"
        }
      ],
      "stateMutability": "nonpayable",
      "type": "function"
    },
    {
      "inputs": [
        {
          "internalType": "address",
          "name": "",
          "type": "address"
        }
      ],
      "name": "windowStart",
      "outputs": [
        {
          "internalType": "uint256",
          "name": "",
          "type": "uint256"
        }
      ],
      "stateMutability": "view",
      "type": "function"
    }
  ],
  "transactionHash": "0x14c70f1a9f4267ee04d24934382056ee2442d0e3491d7c26f8c82208f179c0ce",
  "args": [
    "0xae13d989daC2f0dEbFf460aC112a837C89BAa7cd"
  ],
  "numDeployments": 1,
  "solcInputHash": "b4962e27443e3bf2f87d1cfaf12c7854",
  "bytecode": "0x60a06040523480156200001157600080fd5b50604051620020273803806200202783398101604081905262000034916200016f565b806001600160a01b038116620000915760405162461bcd60e51b815260206004820152601560248201527f63616e2774206265207a65726f2061646472657373000000000000000000000060448201526064015b60405180910390fd5b6001600160a01b038216608052620000a8620000b0565b5050620001a1565b600054610100900460ff16156200011a5760405162461bcd60e51b815260206004820152602760248201527f496e697469616c697a61626c653a20636f6e747261637420697320696e697469604482015266616c697a696e6760c81b606482015260840162000088565b60005460ff90811610156200016d576000805460ff191660ff9081179091556040519081527f7f26b83ff96e1f2b6a682f133852f6798a09c465da95921460cefb38474024989060200160405180910390a15b565b6000602082840312156200018257600080fd5b81516001600160a01b03811681146200019a57600080fd5b9392505050565b608051611e40620001e7600039600081816102fa015281816104c7015281816106840152818161070101528181610772015281816107ea01526112260152611e406000f3fe608060405234801561001057600080fd5b50600436106101375760003560e01c8063725068a5116100b8578063c4d66de81161007c578063c4d66de81461032d578063cbf6791914610340578063cfed246b14610353578063e24343ff1461024c578063e30c397814610373578063f2fde38b1461038457600080fd5b8063725068a5146102c957806379ba5097146102dc5780638da5cb5b146102e45780638dd95002146102f5578063b4a0bdf31461031c57600080fd5b80633125d3c8116100ff5780633125d3c81461024c5780633334ecc51461025b5780633e83b6b81461027b57806341976e09146102ae578063715018a6146102c157600080fd5b8063024599661461013c5780630e32cb86146101695780631b69dc5f1461017e578063234a3446146102185780632b9d9dea1461022b575b600080fd5b61014f61014a36600461188f565b610397565b604080519283526020830191909152015b60405180910390f35b61017c6101773660046118b9565b6103d3565b005b6101d661018c3660046118b9565b60c96020526000908152604090208054600182015460028301546003909301546001600160a01b0392831693919282169160ff600160a01b8204811692600160a81b909204169086565b604080516001600160a01b03978816815260208101969096529390951692840192909252151560608301521515608082015260a081019190915260c001610160565b61017c6102263660046119c8565b6103e7565b61023e610239366004611a78565b61046d565b604051908152602001610160565b61023e670de0b6b3a764000081565b61023e6102693660046118b9565b60cc6020526000908152604090205481565b61029673bbbbbbbbbbbbbbbbbbbbbbbbbbbbbbbbbbbbbbbb81565b6040516001600160a01b039091168152602001610160565b61023e6102bc3660046118b9565b61049c565b61017c610647565b61023e6102d73660046118b9565b61065b565b61017c610900565b6033546001600160a01b0316610296565b6102967f000000000000000000000000000000000000000000000000000000000000000081565b6097546001600160a01b0316610296565b61017c61033b3660046118b9565b610977565b61017c61034e366004611a78565b610a8b565b61023e6103613660046118b9565b60ca6020526000908152604090205481565b6065546001600160a01b0316610296565b61017c6103923660046118b9565b610db1565b60cb60205281600052604060002081815481106103b357600080fd5b600091825260209091206002909102018054600190910154909250905082565b6103db610e22565b6103e481610e7c565b50565b80516000036104315760405162461bcd60e51b815260206004820152601160248201527006c656e6774682063616e2774206265203607c1b60448201526064015b60405180910390fd5b805160005b818110156104685761046083828151811061045357610453611a94565b6020026020010151610a8b565b600101610436565b505050565b600080600061047f8460400151610f3a565b5091509150836080015115610495579392505050565b5092915050565b60008073bbbbbbbbbbbbbbbbbbbbbbbbbbbbbbbbbbbbbbba196001600160a01b038416016104ef57507f00000000000000000000000000000000000000000000000000000000000000009150601261055d565b6000839050806001600160a01b031663313ce5676040518163ffffffff1660e01b8152600401602060405180830381865afa158015610532573d6000803e3d6000fd5b505050506040513d601f19601f820116820180604052508101906105569190611aaa565b60ff169150505b6001600160a01b03838116600090815260c96020526040902054166105b65760405162461bcd60e51b815260206004820152600f60248201526e185cdcd95d081b9bdd08195e1a5cdd608a1b6044820152606401610428565b6001600160a01b038316600090815260ca60205260408120549081900361061f5760405162461bcd60e51b815260206004820152601b60248201527f54574150207072696365206d75737420626520706f73697469766500000000006044820152606401610428565b61062a826012611ae3565b61063590600a611bde565b61063f9082611bea565b949350505050565b61064f610e22565b61065960006110e2565b565b600073bbbbbbbbbbbbbbbbbbbbbbbbbbbbbbbbbbbbbbba196001600160a01b038316016106a6577f000000000000000000000000000000000000000000000000000000000000000091505b6001600160a01b03828116600090815260c96020526040902054166106ff5760405162461bcd60e51b815260206004820152600f60248201526e185cdcd95d081b9bdd08195e1a5cdd608a1b6044820152606401610428565b7f00000000000000000000000000000000000000000000000000000000000000006001600160a01b0316826001600160a01b03161415801561076357506001600160a01b038216600090815260c96020526040902060020154600160a01b900460ff165b1561087e576001600160a01b037f00000000000000000000000000000000000000000000000000000000000000008116600090815260c96020526040902054166107e05760405162461bcd60e51b815260206004820152600e60248201526d15d09390881b9bdd08195e1a5cdd60921b6044820152606401610428565b6001600160a01b037f00000000000000000000000000000000000000000000000000000000000000008116600090815260c96020908152604091829020825160c08101845281548516815260018201549281019290925260028101549384169282019290925260ff600160a01b8404811615156060830152600160a81b909304909216151560808301526003015460a082015261087c906110fb565b505b6001600160a01b03808316600090815260c96020908152604091829020825160c08101845281548516815260018201549281019290925260028101549384169282019290925260ff600160a01b8404811615156060830152600160a81b909304909216151560808301526003015460a08201526108fa906110fb565b92915050565b60655433906001600160a01b0316811461096e5760405162461bcd60e51b815260206004820152602960248201527f4f776e61626c6532537465703a2063616c6c6572206973206e6f7420746865206044820152683732bb9037bbb732b960b91b6064820152608401610428565b6103e4816110e2565b600054610100900460ff16158080156109975750600054600160ff909116105b806109b15750303b1580156109b1575060005460ff166001145b610a145760405162461bcd60e51b815260206004820152602e60248201527f496e697469616c697a61626c653a20636f6e747261637420697320616c72656160448201526d191e481a5b9a5d1a585b1a5e995960921b6064820152608401610428565b6000805460ff191660011790558015610a37576000805461ff0019166101001790555b610a408261137c565b8015610a87576000805461ff0019169055604051600181527f7f26b83ff96e1f2b6a682f133852f6798a09c465da95921460cefb3847402498906020015b60405180910390a15b5050565b80516001600160a01b038116610adb5760405162461bcd60e51b815260206004820152601560248201527463616e2774206265207a65726f206164647265737360581b6044820152606401610428565b60408201516001600160a01b038116610b2e5760405162461bcd60e51b815260206004820152601560248201527463616e2774206265207a65726f206164647265737360581b6044820152606401610428565b610b6c6040518060400160405280601b81526020017f736574546f6b656e436f6e66696728546f6b656e436f6e6669672900000000008152506113b4565b8260a00151600003610bc05760405162461bcd60e51b815260206004820152601e60248201527f616e63686f7220706572696f64206d75737420626520706f73697469766500006044820152606401610428565b82600001516001600160a01b031663313ce5676040518163ffffffff1660e01b8152600401602060405180830381865afa158015610c02573d6000803e3d6000fd5b505050506040513d601f19601f82011682018060405250810190610c269190611aaa565b610c3190600a611c09565b836020015114610c9d5760405162461bcd60e51b815260206004820152603160248201527f6261736520756e697420646563696d616c73206d7573742062652073616d6520604482015270617320617373657420646563696d616c7360781b6064820152608401610428565b6000610ca88461046d565b84516001600160a01b03908116600090815260cb6020908152604080832081518083018352428152808401878152825460018181018555938752858720925160029182029093019283559051918301919091558a518616855260c984528285208b5181549088166001600160a01b031990911681178255948c015192810192909255828b0151908201805460608d015160808e01511515600160a81b0260ff60a81b19911515600160a01b026001600160a81b03199093169490991693841791909117169690961790955560a08a0151600390910181905590519495509390917f3cc8d9cb9370a23a8b9ffa75efa24cecb65c4693980e58260841adc474983c5f91a450505050565b610db9610e22565b606580546001600160a01b0383166001600160a01b03199091168117909155610dea6033546001600160a01b031690565b6001600160a01b03167f38d16b8cac22d99fc7c124b9cd0de2d3fa1faef420bfe791d8c362d765e2270060405160405180910390a350565b6033546001600160a01b031633146106595760405162461bcd60e51b815260206004820181905260248201527f4f776e61626c653a2063616c6c6572206973206e6f7420746865206f776e65726044820152606401610428565b6001600160a01b038116610ee05760405162461bcd60e51b815260206004820152602560248201527f696e76616c696420616365737320636f6e74726f6c206d616e61676572206164604482015264647265737360d81b6064820152608401610428565b609780546001600160a01b038381166001600160a01b031983168117909355604080519190921680825260208201939093527f66fd58e82f7b31a2a5c30e0888f3093efe4e111b00cd2b0c31fe014601293aa09101610a7e565b6000806000610f4761144e565b9050836001600160a01b0316635909c0d56040518163ffffffff1660e01b8152600401602060405180830381865afa158015610f87573d6000803e3d6000fd5b505050506040513d601f19601f82011682018060405250810190610fab9190611c18565b9250836001600160a01b0316635a3d54936040518163ffffffff1660e01b8152600401602060405180830381865afa158015610feb573d6000803e3d6000fd5b505050506040513d601f19601f8201168201806040525081019061100f9190611c18565b91506000806000866001600160a01b0316630902f1ac6040518163ffffffff1660e01b8152600401606060405180830381865afa158015611054573d6000803e3d6000fd5b505050506040513d601f19601f820116820180604052508101906110789190611c48565b9250925092508363ffffffff168163ffffffff16146110d85780840363ffffffff81166110a58486611464565b516001600160e01b031602969096019563ffffffff81166110c68585611464565b516001600160e01b0316029590950194505b5050509193909250565b606580546001600160a01b03191690556103e481611514565b60008060008061110a85611566565b92509250925080420361113957505091516001600160a01b0316600090815260ca602052604090205492915050565b804210156111895760405162461bcd60e51b815260206004820152601a60248201527f6e6f77206d75737420636f6d65206166746572206265666f72650000000000006044820152606401610428565b60008142039050600060405180602001604052808386886111aa9190611ae3565b6111b49190611cae565b6001600160e01b03169052905060006111cc826117cd565b9050600088606001516111e757670de0b6b3a76400006111f1565b670de0b6b3a76400005b90506000818a60200151846112069190611bea565b6112109190611cae565b90508960600151156112bd576001600160a01b037f000000000000000000000000000000000000000000000000000000000000000016600090815260ca60205260408120549081900361129c5760405162461bcd60e51b8152602060048201526014602482015273189b98881c1c9a58d9481a5cc81a5b9d985b1a5960621b6044820152606401610428565b670de0b6b3a76400006112af8284611bea565b6112b99190611cae565b9150505b806000036113065760405162461bcd60e51b81526020600482015260166024820152750747761702070726963652063616e6e6f7420626520360541b6044820152606401610428565b89516040805183815260208101899052428183015290516001600160a01b03909216917f7d881580fb2bb7844e8ecf8df26510247c4bbea2735d40bf0d9ac33c0d9acd819181900360600190a298516001600160a01b0316600090815260ca602052604090208990555096979650505050505050565b600054610100900460ff166113a35760405162461bcd60e51b815260040161042890611cc2565b6113ab6117ed565b6103e48161181c565b6097546040516318c5e8ab60e01b81526000916001600160a01b0316906318c5e8ab906113e79033908690600401611d5a565b602060405180830381865afa158015611404573d6000803e3d6000fd5b505050506040513d601f19601f820116820180604052508101906114289190611d7e565b905080610a8757333083604051634a3fa29360e01b815260040161042893929190611d9b565b600061145f64010000000042611dd0565b905090565b6040805160208101909152600081526000826001600160701b0316116114cc5760405162461bcd60e51b815260206004820152601760248201527f4669786564506f696e743a204449565f42595f5a45524f0000000000000000006044820152606401610428565b6040805160208101909152806115026001600160701b0385166dffffffffffffffffffffffffffff60701b607088901b16611de4565b6001600160e01b031690529392505050565b603380546001600160a01b038381166001600160a01b0319831681179093556040519116919082907f8be0079c531659141344cd1fd0a4f28419497f9722a3daafe3b4186f6b6457e090600090a35050565b6000806000806115758561046d565b60a0860151909150429060009061158c9083611ae3565b87516001600160a01b0316600090815260cb6020908152604080832080548251818502810185019093528083529495509293909291849084015b8282101561160c578382906000526020600020906002020160405180604001604052908160008201548152602001600182015481525050815260200190600101906115c6565b505082518b516001600160a01b0316600090815260cc6020526040902054939450929150505b81811015611720578383828151811061164d5761164d611a94565b60200260200101516000015110158061166f575061166c600183611ae3565b81145b156116d75782818151811061168657611686611a94565b60200260200101516020015197508281815181106116a6576116a6611a94565b602090810291909101810151518b516001600160a01b0316600090815260cc90925260409091208290559650611720565b89516001600160a01b0316600090815260cb6020526040902080548290811061170257611702611a94565b60009182526020822060029091020181815560010155600101611632565b5088516001600160a01b03908116600090815260cb60209081526040808320815180830183528981528084018b81528254600180820185559387529585902091516002909602909101948555519301929092558b5182518a81529182018b90524292820192909252606081018890529116907f87208a84ec7402c933c70c261e53b733a9f1c893d73e941a152435d58177a2649060800160405180910390a2509295505050509193909250565b80516000906108fa906612725dd1d243ab906001600160e01b0316611cae565b600054610100900460ff166118145760405162461bcd60e51b815260040161042890611cc2565b610659611843565b600054610100900460ff166103db5760405162461bcd60e51b815260040161042890611cc2565b600054610100900460ff1661186a5760405162461bcd60e51b815260040161042890611cc2565b610659336110e2565b80356001600160a01b038116811461188a57600080fd5b919050565b600080604083850312156118a257600080fd5b6118ab83611873565b946020939093013593505050565b6000602082840312156118cb57600080fd5b6118d482611873565b9392505050565b634e487b7160e01b600052604160045260246000fd5b604051601f8201601f1916810167ffffffffffffffff8111828210171561191a5761191a6118db565b604052919050565b80151581146103e457600080fd5b600060c0828403121561194257600080fd5b60405160c0810181811067ffffffffffffffff82111715611965576119656118db565b60405290508061197483611873565b81526020830135602082015261198c60408401611873565b6040820152606083013561199f81611922565b606082015260808301356119b281611922565b608082015260a092830135920191909152919050565b600060208083850312156119db57600080fd5b823567ffffffffffffffff808211156119f357600080fd5b818501915085601f830112611a0757600080fd5b813581811115611a1957611a196118db565b611a27848260051b016118f1565b818152848101925060c0918202840185019188831115611a4657600080fd5b938501935b82851015611a6c57611a5d8986611930565b84529384019392850192611a4b565b50979650505050505050565b600060c08284031215611a8a57600080fd5b6118d48383611930565b634e487b7160e01b600052603260045260246000fd5b600060208284031215611abc57600080fd5b815160ff811681146118d457600080fd5b634e487b7160e01b600052601160045260246000fd5b600082821015611af557611af5611acd565b500390565b600181815b80851115611b35578160001904821115611b1b57611b1b611acd565b80851615611b2857918102915b93841c9390800290611aff565b509250929050565b600082611b4c575060016108fa565b81611b59575060006108fa565b8160018114611b6f5760028114611b7957611b95565b60019150506108fa565b60ff841115611b8a57611b8a611acd565b50506001821b6108fa565b5060208310610133831016604e8410600b8410161715611bb8575081810a6108fa565b611bc28383611afa565b8060001904821115611bd657611bd6611acd565b029392505050565b60006118d48383611b3d565b6000816000190483118215151615611c0457611c04611acd565b500290565b60006118d460ff841683611b3d565b600060208284031215611c2a57600080fd5b5051919050565b80516001600160701b038116811461188a57600080fd5b600080600060608486031215611c5d57600080fd5b611c6684611c31565b9250611c7460208501611c31565b9150604084015163ffffffff81168114611c8d57600080fd5b809150509250925092565b634e487b7160e01b600052601260045260246000fd5b600082611cbd57611cbd611c98565b500490565b6020808252602b908201527f496e697469616c697a61626c653a20636f6e7472616374206973206e6f74206960408201526a6e697469616c697a696e6760a81b606082015260800190565b6000815180845260005b81811015611d3357602081850181015186830182015201611d17565b81811115611d45576000602083870101525b50601f01601f19169290920160200192915050565b6001600160a01b038316815260406020820181905260009061063f90830184611d0d565b600060208284031215611d9057600080fd5b81516118d481611922565b6001600160a01b03848116825283166020820152606060408201819052600090611dc790830184611d0d565b95945050505050565b600082611ddf57611ddf611c98565b500690565b60006001600160e01b0383811680611dfe57611dfe611c98565b9216919091049291505056fea264697066735822122055086d21bcda6045892f1fc4672dee898f368e6db04ff4833cb0324bd471f81d64736f6c634300080d0033",
  "devdoc": {
    "author": "Venus",
    "kind": "dev",
    "methods": {
      "acceptOwnership()": {
        "details": "The new owner accepts the ownership transfer."
      },
      "constructor": {
        "custom:oz-upgrades-unsafe-allow": "constructor",
        "params": {
          "wBnbAddress": "The address of the WBNB"
        }
      },
      "currentCumulativePrice((address,uint256,address,bool,bool,uint256))": {
        "returns": {
          "_0": "cumulative price of target token regardless of pair order"
        }
      },
      "getPrice(address)": {
        "custom:error": "Missing error is thrown if the token config does not existRange error is thrown if TWAP price is not greater than zero",
        "params": {
          "asset": "asset address"
        },
        "returns": {
          "_0": "price asset price in USD"
        }
      },
      "initialize(address)": {
        "params": {
          "accessControlManager_": "Address of the access control manager contract"
        }
      },
      "owner()": {
        "details": "Returns the address of the current owner."
      },
      "pendingOwner()": {
        "details": "Returns the address of the pending owner."
      },
      "renounceOwnership()": {
        "details": "Leaves the contract without owner. It will not be possible to call `onlyOwner` functions anymore. Can only be called by the current owner. NOTE: Renouncing ownership will leave the contract without an owner, thereby removing any functionality that is only available to the owner."
      },
      "setAccessControlManager(address)": {
        "custom:access": "Only Governance",
        "custom:event": "Emits NewAccessControlManager event",
        "details": "Admin function to set address of AccessControlManager",
        "params": {
          "accessControlManager_": "The new address of the AccessControlManager"
        }
      },
      "setTokenConfig((address,uint256,address,bool,bool,uint256))": {
        "custom:access": "Only Governance",
        "custom:error": "Range error is thrown if anchor period is not greater than zeroRange error is thrown if base unit is not greater than zeroValue error is thrown if base unit decimals is not the same as asset decimalsNotNullAddress error is thrown if address of asset is nullNotNullAddress error is thrown if PancakeSwap pool address is null",
        "custom:event": "Emits TokenConfigAdded event if new token config are added with asset address, PancakePool address, anchor period address",
        "params": {
          "config": "token config struct"
        }
      },
      "setTokenConfigs((address,uint256,address,bool,bool,uint256)[])": {
        "custom:error": "Zero length error thrown, if length of the config array is 0",
        "params": {
          "configs": "Config array"
        }
      },
      "transferOwnership(address)": {
        "details": "Starts the ownership transfer of the contract to a new account. Replaces the pending transfer if there is one. Can only be called by the current owner."
      },
      "updateTwap(address)": {
        "custom:error": "Missing error is thrown if token config does not exist",
        "returns": {
          "_0": "anchorPrice anchor price of the asset"
        }
      }
    },
    "stateVariables": {
      "WBNB": {
        "custom:oz-upgrades-unsafe-allow": "state-variable-immutable"
      }
    },
    "title": "TwapOracle",
    "version": 1
  },
  "userdoc": {
    "errors": {
      "Unauthorized(address,address,string)": [
        {
          "notice": "Thrown when the action is prohibited by AccessControlManager"
        }
      ]
    },
    "events": {
      "AnchorPriceUpdated(address,uint256,uint256,uint256)": {
        "notice": "Emit this event when TWAP price is updated"
      },
      "NewAccessControlManager(address,address)": {
        "notice": "Emitted when access control manager contract address is changed"
      },
      "TokenConfigAdded(address,address,uint256)": {
        "notice": "Emit this event when new token configs are added"
      },
      "TwapWindowUpdated(address,uint256,uint256,uint256,uint256)": {
        "notice": "Emit this event when TWAP window is updated"
      }
    },
    "kind": "user",
    "methods": {
      "BNB_ADDR()": {
        "notice": "Set this as asset address for BNB. This is the underlying for vBNB"
      },
      "BNB_BASE_UNIT()": {
        "notice": "the base unit of WBNB and BUSD, which are the paired tokens for all assets"
      },
      "WBNB()": {
        "notice": "WBNB address"
      },
      "accessControlManager()": {
        "notice": "Returns the address of the access control manager contract"
      },
      "constructor": {
        "notice": "Constructor for the implementation contract. Sets immutable variables."
      },
      "currentCumulativePrice((address,uint256,address,bool,bool,uint256))": {
        "notice": "Fetches the current token/WBNB and token/BUSD price accumulator from PancakeSwap."
      },
      "getPrice(address)": {
        "notice": "Get the TWAP price for the given asset"
      },
      "initialize(address)": {
        "notice": "Initializes the owner of the contract"
      },
      "observations(address,uint256)": {
        "notice": "Keeps a record of token observations mapped by address, updated on every updateTwap invocation."
      },
      "prices(address)": {
        "notice": "Stored price by token"
      },
      "setAccessControlManager(address)": {
        "notice": "Sets the address of AccessControlManager"
      },
      "setTokenConfig((address,uint256,address,bool,bool,uint256))": {
        "notice": "Adds a single token config"
      },
      "setTokenConfigs((address,uint256,address,bool,bool,uint256)[])": {
        "notice": "Adds multiple token configs at the same time"
      },
      "tokenConfigs(address)": {
        "notice": "Configs by token"
      },
      "updateTwap(address)": {
        "notice": "Updates the current token/BUSD price from PancakeSwap, with 18 decimals of precision."
      },
      "windowStart(address)": {
        "notice": "Observation array index which probably falls in current anchor period mapped by asset address"
      }
    },
    "notice": "This oracle fetches price of assets from PancakeSwap.",
    "version": 1
  },
  "storageLayout": {
    "storage": [
      {
        "astId": 290,
        "contract": "contracts/oracles/TwapOracle.sol:TwapOracle",
        "label": "_initialized",
        "offset": 0,
        "slot": "0",
        "type": "t_uint8"
      },
      {
        "astId": 293,
        "contract": "contracts/oracles/TwapOracle.sol:TwapOracle",
        "label": "_initializing",
        "offset": 1,
        "slot": "0",
        "type": "t_bool"
      },
      {
        "astId": 904,
        "contract": "contracts/oracles/TwapOracle.sol:TwapOracle",
        "label": "__gap",
        "offset": 0,
        "slot": "1",
        "type": "t_array(t_uint256)50_storage"
      },
      {
        "astId": 162,
        "contract": "contracts/oracles/TwapOracle.sol:TwapOracle",
        "label": "_owner",
        "offset": 0,
        "slot": "51",
        "type": "t_address"
      },
      {
        "astId": 282,
        "contract": "contracts/oracles/TwapOracle.sol:TwapOracle",
        "label": "__gap",
        "offset": 0,
        "slot": "52",
        "type": "t_array(t_uint256)49_storage"
      },
      {
        "astId": 71,
        "contract": "contracts/oracles/TwapOracle.sol:TwapOracle",
        "label": "_pendingOwner",
        "offset": 0,
        "slot": "101",
        "type": "t_address"
      },
      {
        "astId": 150,
        "contract": "contracts/oracles/TwapOracle.sol:TwapOracle",
        "label": "__gap",
        "offset": 0,
        "slot": "102",
        "type": "t_array(t_uint256)49_storage"
      },
      {
        "astId": 2741,
        "contract": "contracts/oracles/TwapOracle.sol:TwapOracle",
        "label": "_accessControlManager",
        "offset": 0,
        "slot": "151",
        "type": "t_contract(IAccessControlManagerV8)2925"
      },
      {
        "astId": 2746,
        "contract": "contracts/oracles/TwapOracle.sol:TwapOracle",
        "label": "__gap",
        "offset": 0,
        "slot": "152",
        "type": "t_array(t_uint256)49_storage"
      },
      {
        "astId": 6033,
        "contract": "contracts/oracles/TwapOracle.sol:TwapOracle",
        "label": "tokenConfigs",
        "offset": 0,
        "slot": "201",
        "type": "t_mapping(t_address,t_struct(TokenConfig)6013_storage)"
      },
      {
        "astId": 6038,
        "contract": "contracts/oracles/TwapOracle.sol:TwapOracle",
        "label": "prices",
        "offset": 0,
        "slot": "202",
        "type": "t_mapping(t_address,t_uint256)"
      },
      {
        "astId": 6045,
        "contract": "contracts/oracles/TwapOracle.sol:TwapOracle",
        "label": "observations",
        "offset": 0,
        "slot": "203",
        "type": "t_mapping(t_address,t_array(t_struct(Observation)5994_storage)dyn_storage)"
      },
      {
        "astId": 6050,
        "contract": "contracts/oracles/TwapOracle.sol:TwapOracle",
        "label": "windowStart",
        "offset": 0,
        "slot": "204",
        "type": "t_mapping(t_address,t_uint256)"
      }
    ],
    "types": {
      "t_address": {
        "encoding": "inplace",
        "label": "address",
        "numberOfBytes": "20"
      },
      "t_array(t_struct(Observation)5994_storage)dyn_storage": {
        "base": "t_struct(Observation)5994_storage",
        "encoding": "dynamic_array",
        "label": "struct TwapOracle.Observation[]",
        "numberOfBytes": "32"
      },
      "t_array(t_uint256)49_storage": {
        "base": "t_uint256",
        "encoding": "inplace",
        "label": "uint256[49]",
        "numberOfBytes": "1568"
      },
      "t_array(t_uint256)50_storage": {
        "base": "t_uint256",
        "encoding": "inplace",
        "label": "uint256[50]",
        "numberOfBytes": "1600"
      },
      "t_bool": {
        "encoding": "inplace",
        "label": "bool",
        "numberOfBytes": "1"
      },
      "t_contract(IAccessControlManagerV8)2925": {
        "encoding": "inplace",
        "label": "contract IAccessControlManagerV8",
        "numberOfBytes": "20"
      },
      "t_mapping(t_address,t_array(t_struct(Observation)5994_storage)dyn_storage)": {
        "encoding": "mapping",
        "key": "t_address",
        "label": "mapping(address => struct TwapOracle.Observation[])",
        "numberOfBytes": "32",
        "value": "t_array(t_struct(Observation)5994_storage)dyn_storage"
      },
      "t_mapping(t_address,t_struct(TokenConfig)6013_storage)": {
        "encoding": "mapping",
        "key": "t_address",
        "label": "mapping(address => struct TwapOracle.TokenConfig)",
        "numberOfBytes": "32",
        "value": "t_struct(TokenConfig)6013_storage"
      },
      "t_mapping(t_address,t_uint256)": {
        "encoding": "mapping",
        "key": "t_address",
        "label": "mapping(address => uint256)",
        "numberOfBytes": "32",
        "value": "t_uint256"
      },
      "t_struct(Observation)5994_storage": {
        "encoding": "inplace",
        "label": "struct TwapOracle.Observation",
        "members": [
          {
            "astId": 5991,
            "contract": "contracts/oracles/TwapOracle.sol:TwapOracle",
            "label": "timestamp",
            "offset": 0,
            "slot": "0",
            "type": "t_uint256"
          },
          {
            "astId": 5993,
            "contract": "contracts/oracles/TwapOracle.sol:TwapOracle",
            "label": "acc",
            "offset": 0,
            "slot": "1",
            "type": "t_uint256"
          }
        ],
        "numberOfBytes": "64"
      },
      "t_struct(TokenConfig)6013_storage": {
        "encoding": "inplace",
        "label": "struct TwapOracle.TokenConfig",
        "members": [
          {
            "astId": 5997,
            "contract": "contracts/oracles/TwapOracle.sol:TwapOracle",
            "label": "asset",
            "offset": 0,
            "slot": "0",
            "type": "t_address"
          },
          {
            "astId": 6000,
            "contract": "contracts/oracles/TwapOracle.sol:TwapOracle",
            "label": "baseUnit",
            "offset": 0,
            "slot": "1",
            "type": "t_uint256"
          },
          {
            "astId": 6003,
            "contract": "contracts/oracles/TwapOracle.sol:TwapOracle",
            "label": "pancakePool",
            "offset": 0,
            "slot": "2",
            "type": "t_address"
          },
          {
            "astId": 6006,
            "contract": "contracts/oracles/TwapOracle.sol:TwapOracle",
            "label": "isBnbBased",
            "offset": 20,
            "slot": "2",
            "type": "t_bool"
          },
          {
            "astId": 6009,
            "contract": "contracts/oracles/TwapOracle.sol:TwapOracle",
            "label": "isReversedPool",
            "offset": 21,
            "slot": "2",
            "type": "t_bool"
          },
          {
            "astId": 6012,
            "contract": "contracts/oracles/TwapOracle.sol:TwapOracle",
            "label": "anchorPeriod",
            "offset": 0,
            "slot": "3",
            "type": "t_uint256"
          }
        ],
        "numberOfBytes": "128"
      },
      "t_uint256": {
        "encoding": "inplace",
        "label": "uint256",
        "numberOfBytes": "32"
      },
      "t_uint8": {
        "encoding": "inplace",
        "label": "uint8",
        "numberOfBytes": "1"
      }
    }
  }
}