{
  "address": "0x62Eb1Bb2A7CF7eD8B6FcBDF373bc6F7E6F80213c",
  "abi": [
    {
      "inputs": [
        {
          "internalType": "address",
          "name": "accountant",
          "type": "address"
        },
        {
          "internalType": "address",
          "name": "weethLRT",
          "type": "address"
        },
        {
          "internalType": "address",
          "name": "weth",
          "type": "address"
        },
        {
          "internalType": "address",
          "name": "resilientOracle",
          "type": "address"
        }
      ],
      "stateMutability": "nonpayable",
      "type": "constructor"
    },
    {
      "inputs": [],
      "name": "InvalidTokenAddress",
      "type": "error"
    },
    {
      "inputs": [],
      "name": "ZeroAddressNotAllowed",
      "type": "error"
    },
    {
      "inputs": [],
      "name": "ACCOUNTANT",
      "outputs": [
        {
          "internalType": "contract IAccountant",
          "name": "",
          "type": "address"
        }
      ],
      "stateMutability": "view",
      "type": "function"
    },
    {
      "inputs": [],
      "name": "CORRELATED_TOKEN",
      "outputs": [
        {
          "internalType": "address",
          "name": "",
          "type": "address"
        }
      ],
      "stateMutability": "view",
      "type": "function"
    },
    {
      "inputs": [],
      "name": "RESILIENT_ORACLE",
      "outputs": [
        {
          "internalType": "contract OracleInterface",
          "name": "",
          "type": "address"
        }
      ],
      "stateMutability": "view",
      "type": "function"
    },
    {
      "inputs": [],
      "name": "UNDERLYING_TOKEN",
      "outputs": [
        {
          "internalType": "address",
          "name": "",
          "type": "address"
        }
      ],
      "stateMutability": "view",
      "type": "function"
    },
    {
      "inputs": [
        {
          "internalType": "address",
          "name": "asset",
          "type": "address"
        }
      ],
      "name": "getPrice",
      "outputs": [
        {
          "internalType": "uint256",
          "name": "",
          "type": "uint256"
        }
      ],
      "stateMutability": "view",
      "type": "function"
    }
  ],
  "transactionHash": "0x749a1ec4c8c31cca07a02ee80530c3624a20291a0183a2d0412a05b0298d4fac",
  "args": [
    "0x04d7B1244Ff052319D154E627004EaE5b7a05FCf",
    "0xE233527306c2fa1E159e251a2E5893334505A5E0",
    "0x7b79995e5f793A07Bc00c21412e50Ecae098E7f9",
    "0x8000eca36201dddf5805Aa4BeFD73d1EB4D23264"
  ],
  "numDeployments": 1,
  "solcInputHash": "9c723b598c150ce8056583ac97334383",
  "bytecode": "0x61010060405234801561001157600080fd5b506040516106df3803806106df833981016040819052610030916100c9565b82828261003c83610083565b61004582610083565b61004e81610083565b6001600160a01b0392831660805290821660a0521660c05261006f84610083565b5050506001600160a01b031660e05261011d565b6001600160a01b0381166100aa576040516342bcdf7f60e11b815260040160405180910390fd5b50565b80516001600160a01b03811681146100c457600080fd5b919050565b600080600080608085870312156100df57600080fd5b6100e8856100ad565b93506100f6602086016100ad565b9250610104604086016100ad565b9150610112606086016100ad565b905092959194509250565b60805160a05160c05160e0516105696101766000396000818160ed015261030101526000818161011401526101d9015260008181606101526101ab01526000818160c60152818161013a015261024a01526105696000f3fe608060405234801561001057600080fd5b50600436106100575760003560e01c806329db1be61461005c57806341976e09146100a057806369818a35146100c15780638b9d2940146100e8578063a4edcd4c1461010f575b600080fd5b6100837f000000000000000000000000000000000000000000000000000000000000000081565b6040516001600160a01b0390911681526020015b60405180910390f35b6100b36100ae366004610386565b610136565b604051908152602001610097565b6100837f000000000000000000000000000000000000000000000000000000000000000081565b6100837f000000000000000000000000000000000000000000000000000000000000000081565b6100837f000000000000000000000000000000000000000000000000000000000000000081565b60007f00000000000000000000000000000000000000000000000000000000000000006001600160a01b0316826001600160a01b03161461018a57604051630f58058360e11b815260040160405180910390fd5b60006101946102fd565b6040516341976e0960e01b81526001600160a01b037f0000000000000000000000000000000000000000000000000000000000000000811660048301529192506000917f000000000000000000000000000000000000000000000000000000000000000016906341976e0990602401602060405180830381865afa158015610220573d6000803e3d6000fd5b505050506040513d601f19601f8201168201806040525081019061024491906103b6565b905060007f000000000000000000000000000000000000000000000000000000000000000090506000816001600160a01b031663313ce5676040518163ffffffff1660e01b8152600401602060405180830381865afa1580156102ab573d6000803e3d6000fd5b505050506040513d601f19601f820116820180604052508101906102cf91906103cf565b60ff1690506102df81600a6104ee565b6102e984866104fa565b6102f39190610511565b9695505050505050565b60007f00000000000000000000000000000000000000000000000000000000000000006001600160a01b031663282a87006040518163ffffffff1660e01b8152600401602060405180830381865afa15801561035d573d6000803e3d6000fd5b505050506040513d601f19601f8201168201806040525081019061038191906103b6565b905090565b60006020828403121561039857600080fd5b81356001600160a01b03811681146103af57600080fd5b9392505050565b6000602082840312156103c857600080fd5b5051919050565b6000602082840312156103e157600080fd5b815160ff811681146103af57600080fd5b634e487b7160e01b600052601160045260246000fd5b600181815b80851115610443578160001904821115610429576104296103f2565b8085161561043657918102915b93841c939080029061040d565b509250929050565b60008261045a575060016104e8565b81610467575060006104e8565b816001811461047d5760028114610487576104a3565b60019150506104e8565b60ff841115610498576104986103f2565b50506001821b6104e8565b5060208310610133831016604e8410600b84101617156104c6575081810a6104e8565b6104d08383610408565b80600019048211156104e4576104e46103f2565b0290505b92915050565b60006103af838361044b565b80820281158282048414176104e8576104e86103f2565b60008261052e57634e487b7160e01b600052601260045260246000fd5b50049056fea26469706673582212209e2b13dd085cfa9d2e5300640633f8c6d371ad5d9b56a9d896ebef1bb956271964736f6c63430008190033",
  "devdoc": {
    "author": "Venus",
    "kind": "dev",
    "methods": {
      "constructor": {
        "custom:oz-upgrades-unsafe-allow": "constructor"
      },
      "getPrice(address)": {
        "params": {
          "asset": "Address of the correlated token"
        },
        "returns": {
          "_0": "price The price of the correlated token in scaled decimal places"
        }
      }
    },
    "stateVariables": {
      "ACCOUNTANT": {
        "custom:oz-upgrades-unsafe-allow": "state-variable-immutable"
      }
    },
    "title": "WeETHAccountantOracle",
    "version": 1
  },
  "userdoc": {
    "errors": {
      "InvalidTokenAddress()": [
        {
          "notice": "Thrown if the token address is invalid"
        }
      ],
      "ZeroAddressNotAllowed()": [
        {
          "notice": "Thrown if the supplied address is a zero address where it is not allowed"
        }
      ]
    },
    "kind": "user",
    "methods": {
      "ACCOUNTANT()": {
        "notice": "Address of Accountant"
      },
      "CORRELATED_TOKEN()": {
        "notice": "Address of the correlated token"
      },
      "RESILIENT_ORACLE()": {
        "notice": "Address of Resilient Oracle"
      },
      "UNDERLYING_TOKEN()": {
        "notice": "Address of the underlying token"
      },
      "constructor": {
        "notice": "Constructor for the implementation contract."
      },
      "getPrice(address)": {
        "notice": "Fetches the price of the correlated token"
      }
    },
    "notice": "This oracle fetches the price of Ether.fi tokens based on an `Accountant` contract (i.e. weETHs and weETHk)",
    "version": 1
  },
  "storageLayout": {
    "storage": [],
    "types": null
  }
}