{
  "address": "0xEf0F74FaBC69f32F9b73419726eeFa70F4E8d10F",
  "abi": [
    {
      "inputs": [
        {
          "internalType": "address",
          "name": "wstETHAddress",
          "type": "address"
        },
        {
          "internalType": "address",
          "name": "wETHAddress",
          "type": "address"
        },
        {
          "internalType": "address",
          "name": "stETHAddress",
          "type": "address"
        },
        {
          "internalType": "address",
          "name": "resilientOracleAddress",
          "type": "address"
        }
      ],
      "stateMutability": "nonpayable",
      "type": "constructor"
    },
    {
      "inputs": [],
      "name": "ZeroAddressNotAllowed",
      "type": "error"
    },
    {
      "inputs": [],
      "name": "RESILIENT_ORACLE",
      "outputs": [
        {
          "internalType": "contract OracleInterface",
          "name": "",
          "type": "address"
        }
      ],
      "stateMutability": "view",
      "type": "function"
    },
    {
      "inputs": [],
      "name": "STETH",
      "outputs": [
        {
          "internalType": "contract IStETH",
          "name": "",
          "type": "address"
        }
      ],
      "stateMutability": "view",
      "type": "function"
    },
    {
      "inputs": [],
      "name": "WETH_ADDRESS",
      "outputs": [
        {
          "internalType": "address",
          "name": "",
          "type": "address"
        }
      ],
      "stateMutability": "view",
      "type": "function"
    },
    {
      "inputs": [],
      "name": "WSTETH_ADDRESS",
      "outputs": [
        {
          "internalType": "address",
          "name": "",
          "type": "address"
        }
      ],
      "stateMutability": "view",
      "type": "function"
    },
    {
      "inputs": [
        {
          "internalType": "address",
          "name": "asset",
          "type": "address"
        }
      ],
      "name": "getPrice",
      "outputs": [
        {
          "internalType": "uint256",
          "name": "",
          "type": "uint256"
        }
      ],
      "stateMutability": "view",
      "type": "function"
    }
  ],
  "transactionHash": "0x4fdfa9dd995dc6824392f36e561df521d19c1d963bd021dd2287773b00dc7058",
  "args": [
    "0x9b87ea90fdb55e1a0f17fbeddcf7eb0ac4d50493",
    "0x700868CAbb60e90d77B6588ce072d9859ec8E281",
    "0xF5465B70Af90AEb26Aa13b1000a8CbEA53a5f4cf",
    "0x8000eca36201dddf5805Aa4BeFD73d1EB4D23264"
  ],
  "numDeployments": 1,
  "solcInputHash": "d7071d7f42106bbbe692dda5807a1305",
  "bytecode": "0x61010060405234801561001157600080fd5b5060405161054e38038061054e833981016040819052610030916100bc565b61003984610076565b61004283610076565b61004b82610076565b61005481610076565b6001600160a01b0393841660a05291831660c05282166080521660e052610110565b6001600160a01b03811661009d576040516342bcdf7f60e11b815260040160405180910390fd5b50565b80516001600160a01b03811681146100b757600080fd5b919050565b600080600080608085870312156100d257600080fd5b6100db856100a0565b93506100e9602086016100a0565b92506100f7604086016100a0565b9150610105606086016100a0565b905092959194509250565b60805160a05160c05160e0516103ec6101626000396000818160ed015261028c0152600081816061015261025e01526000818160a5015261013a01526000818161011401526101d401526103ec6000f3fe608060405234801561001057600080fd5b50600436106100575760003560e01c8063040141e51461005c57806336e6372f146100a057806341976e09146100c7578063a4edcd4c146100e8578063e00bfe501461010f575b600080fd5b6100837f000000000000000000000000000000000000000000000000000000000000000081565b6040516001600160a01b0390911681526020015b60405180910390f35b6100837f000000000000000000000000000000000000000000000000000000000000000081565b6100da6100d536600461031e565b610136565b604051908152602001610097565b6100837f000000000000000000000000000000000000000000000000000000000000000081565b6100837f000000000000000000000000000000000000000000000000000000000000000081565b60007f00000000000000000000000000000000000000000000000000000000000000006001600160a01b0316826001600160a01b0316146101b45760405162461bcd60e51b815260206004820152601460248201527377726f6e6720777374455448206164647265737360601b604482015260640160405180910390fd5b604051630f451f7160e31b8152670de0b6b3a764000060048201526000907f00000000000000000000000000000000000000000000000000000000000000006001600160a01b031690637a28fb8890602401602060405180830381865afa158015610223573d6000803e3d6000fd5b505050506040513d601f19601f82011682018060405250810190610247919061034e565b6040516341976e0960e01b81526001600160a01b037f0000000000000000000000000000000000000000000000000000000000000000811660048301529192506000917f000000000000000000000000000000000000000000000000000000000000000016906341976e0990602401602060405180830381865afa1580156102d3573d6000803e3d6000fd5b505050506040513d601f19601f820116820180604052508101906102f7919061034e565b9050670de0b6b3a764000061030c8284610367565b6103169190610394565b949350505050565b60006020828403121561033057600080fd5b81356001600160a01b038116811461034757600080fd5b9392505050565b60006020828403121561036057600080fd5b5051919050565b600081600019048311821515161561038f57634e487b7160e01b600052601160045260246000fd5b500290565b6000826103b157634e487b7160e01b600052601260045260246000fd5b50049056fea2646970667358221220a8f9a8f1a8608adeecb9b55d75b5323708d1dff1cb19eef13af1bd4ea11a34ab64736f6c634300080d0033",
  "devdoc": {
    "author": "Venus",
    "kind": "dev",
    "methods": {
      "constructor": {
        "custom:oz-upgrades-unsafe-allow": "constructor"
      },
      "getPrice(address)": {
        "params": {
          "asset": "Address of wstETH"
        },
        "returns": {
          "_0": "wstETH Price in USD scaled by 1e18"
        }
      }
    },
    "stateVariables": {
      "RESILIENT_ORACLE": {
        "custom:oz-upgrades-unsafe-allow": "state-variable-immutable"
      },
      "STETH": {
        "custom:oz-upgrades-unsafe-allow": "state-variable-immutable"
      },
      "WETH_ADDRESS": {
        "custom:oz-upgrades-unsafe-allow": "state-variable-immutable"
      },
      "WSTETH_ADDRESS": {
        "custom:oz-upgrades-unsafe-allow": "state-variable-immutable"
      }
    },
    "title": "WstETHOracle",
    "version": 1
  },
  "userdoc": {
    "errors": {
      "ZeroAddressNotAllowed()": [
        {
          "notice": "Thrown if the supplied address is a zero address where it is not allowed"
        }
      ]
    },
    "kind": "user",
    "methods": {
      "RESILIENT_ORACLE()": {
        "notice": "Address of Resilient Oracle"
      },
      "STETH()": {
        "notice": "Address of stETH"
      },
      "WETH_ADDRESS()": {
        "notice": "Address of WETH"
      },
      "WSTETH_ADDRESS()": {
        "notice": "Address of wstETH"
      },
      "constructor": {
        "notice": "Constructor for the implementation contract."
      },
      "getPrice(address)": {
        "notice": "Gets the price of wstETH asset"
      }
    },
    "notice": "This oracle fetches the price of wstETH asset",
    "version": 1
  },
  "storageLayout": {
    "storage": [],
    "types": null
  }
}