{
  "address": "0x312471e30AAD690852ca174427C8e9d83E53E61a",
  "abi": [
    {
      "inputs": [
        {
          "internalType": "address",
          "name": "correlatedToken",
          "type": "address"
        },
        {
          "internalType": "address",
          "name": "underlyingToken",
          "type": "address"
        },
        {
          "internalType": "address",
          "name": "resilientOracle",
          "type": "address"
        },
        {
          "internalType": "address",
          "name": "intermediateOracle",
          "type": "address"
        }
      ],
      "stateMutability": "nonpayable",
      "type": "constructor"
    },
    {
      "inputs": [],
      "name": "InvalidTokenAddress",
      "type": "error"
    },
    {
      "inputs": [],
      "name": "ZeroAddressNotAllowed",
      "type": "error"
    },
    {
      "inputs": [],
      "name": "CORRELATED_TOKEN",
      "outputs": [
        {
          "internalType": "address",
          "name": "",
          "type": "address"
        }
      ],
      "stateMutability": "view",
      "type": "function"
    },
    {
      "inputs": [],
      "name": "INTERMEDIATE_ORACLE",
      "outputs": [
        {
          "internalType": "contract OracleInterface",
          "name": "",
          "type": "address"
        }
      ],
      "stateMutability": "view",
      "type": "function"
    },
    {
      "inputs": [],
      "name": "RESILIENT_ORACLE",
      "outputs": [
        {
          "internalType": "contract OracleInterface",
          "name": "",
          "type": "address"
        }
      ],
      "stateMutability": "view",
      "type": "function"
    },
    {
      "inputs": [],
      "name": "UNDERLYING_TOKEN",
      "outputs": [
        {
          "internalType": "address",
          "name": "",
          "type": "address"
        }
      ],
      "stateMutability": "view",
      "type": "function"
    },
    {
      "inputs": [
        {
          "internalType": "address",
          "name": "asset",
          "type": "address"
        }
      ],
      "name": "getPrice",
      "outputs": [
        {
          "internalType": "uint256",
          "name": "",
          "type": "uint256"
        }
      ],
      "stateMutability": "view",
      "type": "function"
    }
  ],
  "transactionHash": "0x32811f2c0ea1c4864047da409972e9135c2800a76f6adff41cef584a8e1102a5",
  "args": [
    "0xc02fE7317D4eb8753a02c35fe019786854A92001",
    "0x4200000000000000000000000000000000000006",
    "0x86D04d6FE928D888076851122dc6739551818f7E",
    "0x4d41a36D04D97785bcEA57b057C412b278e6Edcc"
  ],
  "numDeployments": 1,
  "solcInputHash": "afa2bef210e6c7d68eda70cd674e3c3d",
  "bytecode": "0x610100604052348015610010575f80fd5b5060405161084f38038061084f83398101604081905261002f916100c8565b83838361003b83610083565b61004482610083565b61004d81610083565b6001600160a01b0392831660805290821660a0521660c05261006e81610083565b6001600160a01b031660e05250610119915050565b6001600160a01b0381166100aa576040516342bcdf7f60e11b815260040160405180910390fd5b50565b80516001600160a01b03811681146100c3575f80fd5b919050565b5f805f80608085870312156100db575f80fd5b6100e4856100ad565b93506100f2602086016100ad565b9250610100604086016100ad565b915061010e606086016100ad565b905092959194509250565b60805160a05160c05160e0516106ce6101815f395f8181610111015261044201525f818160ea01526101d301525f8181605e015281816101a601526102f501525f818160c301528181610136015281816102410152818161037b015261041001526106ce5ff3fe608060405234801561000f575f80fd5b5060043610610055575f3560e01c806329db1be61461005957806341976e091461009d57806369818a35146100be578063a4edcd4c146100e5578063ef4fa51b1461010c575b5f80fd5b6100807f000000000000000000000000000000000000000000000000000000000000000081565b6040516001600160a01b0390911681526020015b60405180910390f35b6100b06100ab3660046104ea565b610133565b604051908152602001610094565b6100807f000000000000000000000000000000000000000000000000000000000000000081565b6100807f000000000000000000000000000000000000000000000000000000000000000081565b6100807f000000000000000000000000000000000000000000000000000000000000000081565b5f7f00000000000000000000000000000000000000000000000000000000000000006001600160a01b0316826001600160a01b03161461018657604051630f58058360e11b815260040160405180910390fd5b5f61018f6102f1565b6040516341976e0960e01b81526001600160a01b037f0000000000000000000000000000000000000000000000000000000000000000811660048301529192505f917f000000000000000000000000000000000000000000000000000000000000000016906341976e0990602401602060405180830381865afa158015610218573d5f803e3d5ffd5b505050506040513d601f19601f8201168201806040525081019061023c9190610517565b90505f7f000000000000000000000000000000000000000000000000000000000000000090505f816001600160a01b031663313ce5676040518163ffffffff1660e01b8152600401602060405180830381865afa15801561029f573d5f803e3d5ffd5b505050506040513d601f19601f820116820180604052508101906102c3919061052e565b60ff1690506102d381600a610644565b6102dd848661064f565b6102e79190610666565b9695505050505050565b5f807f00000000000000000000000000000000000000000000000000000000000000006001600160a01b031663313ce5676040518163ffffffff1660e01b8152600401602060405180830381865afa15801561034f573d5f803e3d5ffd5b505050506040513d601f19601f82011682018060405250810190610373919061052e565b60ff1690505f7f00000000000000000000000000000000000000000000000000000000000000006001600160a01b031663313ce5676040518163ffffffff1660e01b8152600401602060405180830381865afa1580156103d5573d5f803e3d5ffd5b505050506040513d601f19601f820116820180604052508101906103f9919061052e565b6040516341976e0960e01b81526001600160a01b037f00000000000000000000000000000000000000000000000000000000000000008116600483015260ff9290921692505f917f000000000000000000000000000000000000000000000000000000000000000016906341976e0990602401602060405180830381865afa158015610487573d5f803e3d5ffd5b505050506040513d601f19601f820116820180604052508101906104ab9190610517565b90506104b8836024610685565b6104c390600a610644565b6104ce83600a610644565b6104d8908361064f565b6104e29190610666565b935050505090565b5f602082840312156104fa575f80fd5b81356001600160a01b0381168114610510575f80fd5b9392505050565b5f60208284031215610527575f80fd5b5051919050565b5f6020828403121561053e575f80fd5b815160ff81168114610510575f80fd5b634e487b7160e01b5f52601160045260245ffd5b600181815b8085111561059c57815f19048211156105825761058261054e565b8085161561058f57918102915b93841c9390800290610567565b509250929050565b5f826105b25750600161063e565b816105be57505f61063e565b81600181146105d457600281146105de576105fa565b600191505061063e565b60ff8411156105ef576105ef61054e565b50506001821b61063e565b5060208310610133831016604e8410600b841016171561061d575081810a61063e565b6106278383610562565b805f190482111561063a5761063a61054e565b0290505b92915050565b5f61051083836105a4565b808202811582820484141761063e5761063e61054e565b5f8261068057634e487b7160e01b5f52601260045260245ffd5b500490565b8181038181111561063e5761063e61054e56fea26469706673582212204ee0d55ee433fcc931ca4d6472bab7af799b1160cfac9e0c8d8b04153a0af36964736f6c63430008190033",
  "devdoc": {
    "author": "Venus",
    "kind": "dev",
    "methods": {
      "constructor": {
        "custom:oz-upgrades-unsafe-allow": "constructor"
      },
      "getPrice(address)": {
        "params": {
          "asset": "Address of the correlated token"
        },
        "returns": {
          "_0": "price The price of the correlated token in scaled decimal places"
        }
      }
    },
    "stateVariables": {
      "INTERMEDIATE_ORACLE": {
        "custom:oz-upgrades-unsafe-allow": "state-variable-immutable"
      }
    },
    "title": "OneJumpOracle",
    "version": 1
  },
  "userdoc": {
    "errors": {
      "InvalidTokenAddress()": [
        {
          "notice": "Thrown if the token address is invalid"
        }
      ],
      "ZeroAddressNotAllowed()": [
        {
          "notice": "Thrown if the supplied address is a zero address where it is not allowed"
        }
      ]
    },
    "kind": "user",
    "methods": {
      "CORRELATED_TOKEN()": {
        "notice": "Address of the correlated token"
      },
      "INTERMEDIATE_ORACLE()": {
        "notice": "Address of the intermediate oracle"
      },
      "RESILIENT_ORACLE()": {
        "notice": "Address of Resilient Oracle"
      },
      "UNDERLYING_TOKEN()": {
        "notice": "Address of the underlying token"
      },
      "constructor": {
        "notice": "Constructor for the implementation contract."
      },
      "getPrice(address)": {
        "notice": "Fetches the price of the correlated token"
      }
    },
    "notice": "This oracle fetches the price of an asset in through an intermediate asset",
    "version": 1
  },
  "storageLayout": {
    "storage": [],
    "types": null
  }
}