{
  "address": "0xa7a79bb64A9fE3865Fd6EFB43B953f928054d36f",
  "abi": [
    {
      "anonymous": false,
      "inputs": [
        {
          "indexed": false,
          "internalType": "uint8",
          "name": "version",
          "type": "uint8"
        }
      ],
      "name": "Initialized",
      "type": "event"
    },
    {
      "anonymous": false,
      "inputs": [
        {
          "indexed": true,
          "internalType": "address",
          "name": "previousOwner",
          "type": "address"
        },
        {
          "indexed": true,
          "internalType": "address",
          "name": "newOwner",
          "type": "address"
        }
      ],
      "name": "OwnershipTransferred",
      "type": "event"
    },
    {
      "anonymous": false,
      "inputs": [
        {
          "indexed": false,
          "internalType": "address",
          "name": "asset",
          "type": "address"
        },
        {
          "indexed": false,
          "internalType": "uint256",
          "name": "previousPriceMantissa",
          "type": "uint256"
        },
        {
          "indexed": false,
          "internalType": "uint256",
          "name": "requestedPriceMantissa",
          "type": "uint256"
        },
        {
          "indexed": false,
          "internalType": "uint256",
          "name": "newPriceMantissa",
          "type": "uint256"
        }
      ],
      "name": "PricePosted",
      "type": "event"
    },
    {
      "anonymous": false,
      "inputs": [
        {
          "indexed": false,
          "internalType": "address",
          "name": "vToken",
          "type": "address"
        },
        {
          "indexed": false,
          "internalType": "address",
          "name": "feed",
          "type": "address"
        },
        {
          "indexed": false,
          "internalType": "uint256",
          "name": "maxStalePeriod",
          "type": "uint256"
        }
      ],
      "name": "TokenConfigAdded",
      "type": "event"
    },
    {
      "inputs": [],
      "name": "VAI_VALUE",
      "outputs": [
        {
          "internalType": "uint256",
          "name": "",
          "type": "uint256"
        }
      ],
      "stateMutability": "view",
      "type": "function"
    },
    {
      "inputs": [
        {
          "internalType": "address",
          "name": "vToken",
          "type": "address"
        }
      ],
      "name": "getUnderlyingPrice",
      "outputs": [
        {
          "internalType": "uint256",
          "name": "",
          "type": "uint256"
        }
      ],
      "stateMutability": "view",
      "type": "function"
    },
    {
      "inputs": [],
      "name": "initialize",
      "outputs": [],
      "stateMutability": "nonpayable",
      "type": "function"
    },
    {
      "inputs": [],
      "name": "owner",
      "outputs": [
        {
          "internalType": "address",
          "name": "",
          "type": "address"
        }
      ],
      "stateMutability": "view",
      "type": "function"
    },
    {
      "inputs": [
        {
          "internalType": "address",
          "name": "",
          "type": "address"
        }
      ],
      "name": "prices",
      "outputs": [
        {
          "internalType": "uint256",
          "name": "",
          "type": "uint256"
        }
      ],
      "stateMutability": "view",
      "type": "function"
    },
    {
      "inputs": [],
      "name": "renounceOwnership",
      "outputs": [],
      "stateMutability": "nonpayable",
      "type": "function"
    },
    {
      "inputs": [
        {
          "internalType": "address",
          "name": "asset",
          "type": "address"
        },
        {
          "internalType": "uint256",
          "name": "price",
          "type": "uint256"
        }
      ],
      "name": "setDirectPrice",
      "outputs": [],
      "stateMutability": "nonpayable",
      "type": "function"
    },
    {
      "inputs": [
        {
          "components": [
            {
              "internalType": "address",
              "name": "vToken",
              "type": "address"
            },
            {
              "internalType": "address",
              "name": "feed",
              "type": "address"
            },
            {
              "internalType": "uint256",
              "name": "maxStalePeriod",
              "type": "uint256"
            }
          ],
          "internalType": "struct TokenConfig",
          "name": "tokenConfig",
          "type": "tuple"
        }
      ],
      "name": "setTokenConfig",
      "outputs": [],
      "stateMutability": "nonpayable",
      "type": "function"
    },
    {
      "inputs": [
        {
          "components": [
            {
              "internalType": "address",
              "name": "vToken",
              "type": "address"
            },
            {
              "internalType": "address",
              "name": "feed",
              "type": "address"
            },
            {
              "internalType": "uint256",
              "name": "maxStalePeriod",
              "type": "uint256"
            }
          ],
          "internalType": "struct TokenConfig[]",
          "name": "tokenConfigs_",
          "type": "tuple[]"
        }
      ],
      "name": "setTokenConfigs",
      "outputs": [],
      "stateMutability": "nonpayable",
      "type": "function"
    },
    {
      "inputs": [
        {
          "internalType": "contract VBep20Interface",
          "name": "vToken",
          "type": "address"
        },
        {
          "internalType": "uint256",
          "name": "underlyingPriceMantissa",
          "type": "uint256"
        }
      ],
      "name": "setUnderlyingPrice",
      "outputs": [],
      "stateMutability": "nonpayable",
      "type": "function"
    },
    {
      "inputs": [
        {
          "internalType": "address",
          "name": "",
          "type": "address"
        }
      ],
      "name": "tokenConfigs",
      "outputs": [
        {
          "internalType": "address",
          "name": "vToken",
          "type": "address"
        },
        {
          "internalType": "address",
          "name": "feed",
          "type": "address"
        },
        {
          "internalType": "uint256",
          "name": "maxStalePeriod",
          "type": "uint256"
        }
      ],
      "stateMutability": "view",
      "type": "function"
    },
    {
      "inputs": [
        {
          "internalType": "address",
          "name": "newOwner",
          "type": "address"
        }
      ],
      "name": "transferOwnership",
      "outputs": [],
      "stateMutability": "nonpayable",
      "type": "function"
    }
  ],
  "transactionHash": "0x370ebf83dc5bde427e74764e30461463a3b6d388f7f9a0dee706d06ecb1ea836",
  "args": [],
  "numDeployments": 1,
  "solcInputHash": "4214eb9539b4715ec04133db70da14b8",
  "bytecode": "0x608060405234801561001057600080fd5b506113b5806100206000396000f3fe608060405234801561001057600080fd5b50600436106100d45760003560e01c80638129fc1c11610081578063cfed246b1161005b578063cfed246b146101d6578063f2fde38b146101f6578063fc57d4df1461020957600080fd5b80638129fc1c146101965780638da5cb5b1461019e578063b9de61e2146101b957600080fd5b80631b69dc5f116100b25780631b69dc5f14610114578063392787d21461017b578063715018a61461018e57600080fd5b80630431710e146100d957806309a8acb0146100ee578063127ffda014610101575b600080fd5b6100ec6100e7366004610f66565b61021c565b005b6100ec6100fc366004611016565b6102be565b6100ec61010f366004611016565b610341565b610150610122366004611042565b6066602052600090815260409020805460018201546002909201546001600160a01b03918216929091169083565b604080516001600160a01b039485168152939092166020840152908201526060015b60405180910390f35b6100ec61018936600461105f565b61042a565b6100ec6105df565b6100ec6105f3565b6033546040516001600160a01b039091168152602001610172565b6101c8670de0b6b3a764000081565b604051908152602001610172565b6101c86101e4366004611042565b60656020526000908152604090205481565b6100ec610204366004611042565b610713565b6101c8610217366004611042565b6107a0565b6102246108d0565b600081511161027a5760405162461bcd60e51b815260206004820152601160248201527f6c656e6774682063616e2774206265203000000000000000000000000000000060448201526064015b60405180910390fd5b60005b81518110156102ba576102a882828151811061029b5761029b61107b565b602002602001015161042a565b806102b2816110a7565b91505061027d565b5050565b6102c66108d0565b6001600160a01b038216600081815260656020908152604091829020548251938452908301528101829052606081018290527fdd71a1d19fcba687442a1d5c58578f1e409af71a79d10fd95a4d66efd8fa9ae79060800160405180910390a16001600160a01b03909116600090815260656020526040902055565b6103496108d0565b6000826001600160a01b0316636f307dc36040518163ffffffff1660e01b8152600401602060405180830381865afa158015610389573d6000803e3d6000fd5b505050506040513d601f19601f820116820180604052508101906103ad91906110c0565b6001600160a01b038116600081815260656020908152604091829020548251938452908301528101849052606081018490529091507fdd71a1d19fcba687442a1d5c58578f1e409af71a79d10fd95a4d66efd8fa9ae79060800160405180910390a16001600160a01b031660009081526065602052604090205550565b6104326108d0565b80516001600160a01b03811661048a5760405162461bcd60e51b815260206004820152601560248201527f63616e2774206265207a65726f206164647265737300000000000000000000006044820152606401610271565b60208201516001600160a01b0381166104e55760405162461bcd60e51b815260206004820152601560248201527f63616e2774206265207a65726f206164647265737300000000000000000000006044820152606401610271565b60008360400151116105395760405162461bcd60e51b815260206004820152601a60248201527f7374616c6520706572696f642063616e2774206265207a65726f0000000000006044820152606401610271565b82516001600160a01b039081166000908152606660209081526040918290208651815490851673ffffffffffffffffffffffffffffffffffffffff1991821681178355838901516001840180549190971692168217909555838801516002909201829055835194855291840191909152908201527f3cc8d9cb9370a23a8b9ffa75efa24cecb65c4693980e58260841adc474983c5f9060600160405180910390a1505050565b6105e76108d0565b6105f1600061092a565b565b600054610100900460ff16158080156106135750600054600160ff909116105b8061062d5750303b15801561062d575060005460ff166001145b61069f5760405162461bcd60e51b815260206004820152602e60248201527f496e697469616c697a61626c653a20636f6e747261637420697320616c72656160448201527f647920696e697469616c697a65640000000000000000000000000000000000006064820152608401610271565b6000805460ff1916600117905580156106c2576000805461ff0019166101001790555b6106ca610989565b8015610710576000805461ff0019169055604051600181527f7f26b83ff96e1f2b6a682f133852f6798a09c465da95921460cefb38474024989060200160405180910390a15b50565b61071b6108d0565b6001600160a01b0381166107975760405162461bcd60e51b815260206004820152602660248201527f4f776e61626c653a206e6577206f776e657220697320746865207a65726f206160448201527f64647265737300000000000000000000000000000000000000000000000000006064820152608401610271565b6107108161092a565b600080826001600160a01b03166395d89b416040518163ffffffff1660e01b8152600401600060405180830381865afa1580156107e1573d6000803e3d6000fd5b505050506040513d6000823e601f3d908101601f19168201604052610809919081019061110d565b905061083181604051806040016040528060048152602001633b21272160e11b8152506109fc565b156108465761083f83610a56565b9392505050565b61086b816040518060400160405280600381526020016256414960e81b8152506109fc565b156108805750670de0b6b3a764000092915050565b6108a5816040518060400160405280600381526020016258565360e81b8152506109fc565b156108c75750506001600160a01b031660009081526065602052604090205490565b61083f83610cd9565b6033546001600160a01b031633146105f15760405162461bcd60e51b815260206004820181905260248201527f4f776e61626c653a2063616c6c6572206973206e6f7420746865206f776e65726044820152606401610271565b603380546001600160a01b0383811673ffffffffffffffffffffffffffffffffffffffff19831681179093556040519116919082907f8be0079c531659141344cd1fd0a4f28419497f9722a3daafe3b4186f6b6457e090600090a35050565b600054610100900460ff166109f45760405162461bcd60e51b815260206004820152602b60248201527f496e697469616c697a61626c653a20636f6e7472616374206973206e6f74206960448201526a6e697469616c697a696e6760a81b6064820152608401610271565b6105f1610de6565b600081604051602001610a0f91906111a1565b6040516020818303038152906040528051906020012083604051602001610a3691906111a1565b604051602081830303815290604052805190602001201490505b92915050565b6001600160a01b0380821660009081526066602052604081205490911680610ac05760405162461bcd60e51b815260206004820152601560248201527f63616e2774206265207a65726f206164647265737300000000000000000000006044820152606401610271565b6001600160a01b03808416600090815260666020908152604080832060018101546002820154835163313ce56760e01b815293519296919091169490939092610b5a92869263313ce56792600480820193918290030181865afa158015610b2b573d6000803e3d6000fd5b505050506040513d601f19601f82011682018060405250810190610b4f91906111bd565b60129060ff16610e5a565b9050600080846001600160a01b031663feaf968c6040518163ffffffff1660e01b815260040160a060405180830381865afa158015610b9d573d6000803e3d6000fd5b505050506040513d601f19601f82011682018060405250810190610bc191906111ff565b5093505092505060008213610c185760405162461bcd60e51b815260206004820181905260248201527f636861696e6c696e6b207072696365206d75737420626520706f7369746976656044820152606401610271565b6000610c64826040518060400160405280601c81526020017f757064617465644174206578636565647320626c6f636b2074696d650000000081525042610e669092919063ffffffff16565b905084811115610cb65760405162461bcd60e51b815260206004820152601760248201527f636861696e6c696e6b20707269636520657870697265640000000000000000006044820152606401610271565b610ccb610cc485600a611333565b8490610e92565b9a9950505050505050505050565b600080826001600160a01b0316636f307dc36040518163ffffffff1660e01b8152600401602060405180830381865afa158015610d1a573d6000803e3d6000fd5b505050506040513d601f19601f82011682018060405250810190610d3e91906110c0565b6001600160a01b03811660009081526065602052604090205490915015610d7f576001600160a01b0381166000908152606560205260409020549150610d8b565b610d8883610a56565b91505b6000610dce826001600160a01b031663313ce5676040518163ffffffff1660e01b8152600401602060405180830381865afa158015610b2b573d6000803e3d6000fd5b9050610dde610cc482600a611333565b949350505050565b600054610100900460ff16610e515760405162461bcd60e51b815260206004820152602b60248201527f496e697469616c697a61626c653a20636f6e7472616374206973206e6f74206960448201526a6e697469616c697a696e6760a81b6064820152608401610271565b6105f13361092a565b600061083f828461133f565b60008184841115610e8a5760405162461bcd60e51b81526004016102719190611356565b505050900390565b600061083f8284611389565b634e487b7160e01b600052604160045260246000fd5b604051601f8201601f1916810167ffffffffffffffff81118282101715610edd57610edd610e9e565b604052919050565b6001600160a01b038116811461071057600080fd5b600060608284031215610f0c57600080fd5b6040516060810181811067ffffffffffffffff82111715610f2f57610f2f610e9e565b6040529050808235610f4081610ee5565b81526020830135610f5081610ee5565b6020820152604092830135920191909152919050565b60006020808385031215610f7957600080fd5b823567ffffffffffffffff80821115610f9157600080fd5b818501915085601f830112610fa557600080fd5b813581811115610fb757610fb7610e9e565b610fc5848260051b01610eb4565b81815284810192506060918202840185019188831115610fe457600080fd5b938501935b8285101561100a57610ffb8986610efa565b84529384019392850192610fe9565b50979650505050505050565b6000806040838503121561102957600080fd5b823561103481610ee5565b946020939093013593505050565b60006020828403121561105457600080fd5b813561083f81610ee5565b60006060828403121561107157600080fd5b61083f8383610efa565b634e487b7160e01b600052603260045260246000fd5b634e487b7160e01b600052601160045260246000fd5b6000600182016110b9576110b9611091565b5060010190565b6000602082840312156110d257600080fd5b815161083f81610ee5565b60005b838110156110f85781810151838201526020016110e0565b83811115611107576000848401525b50505050565b60006020828403121561111f57600080fd5b815167ffffffffffffffff8082111561113757600080fd5b818401915084601f83011261114b57600080fd5b81518181111561115d5761115d610e9e565b611170601f8201601f1916602001610eb4565b915080825285602082850101111561118757600080fd5b6111988160208401602086016110dd565b50949350505050565b600082516111b38184602087016110dd565b9190910192915050565b6000602082840312156111cf57600080fd5b815160ff8116811461083f57600080fd5b805169ffffffffffffffffffff811681146111fa57600080fd5b919050565b600080600080600060a0868803121561121757600080fd5b611220866111e0565b9450602086015193506040860151925060608601519150611243608087016111e0565b90509295509295909350565b600181815b8085111561128a57816000190482111561127057611270611091565b8085161561127d57918102915b93841c9390800290611254565b509250929050565b6000826112a157506001610a50565b816112ae57506000610a50565b81600181146112c457600281146112ce576112ea565b6001915050610a50565b60ff8411156112df576112df611091565b50506001821b610a50565b5060208310610133831016604e8410600b841016171561130d575081810a610a50565b611317838361124f565b806000190482111561132b5761132b611091565b029392505050565b600061083f8383611292565b60008282101561135157611351611091565b500390565b60208152600082518060208401526113758160408501602087016110dd565b601f01601f19169190910160400192915050565b60008160001904831182151516156113a3576113a3611091565b50029056fea164736f6c634300080d000a",
  "devdoc": {
    "kind": "dev",
    "methods": {
      "getUnderlyingPrice(address)": {
        "params": {
          "vToken": "vToken address"
        },
        "returns": {
          "_0": "price in USD, with 18 decimals"
        }
      },
      "owner()": {
        "details": "Returns the address of the current owner."
      },
      "renounceOwnership()": {
        "details": "Leaves the contract without owner. It will not be possible to call `onlyOwner` functions anymore. Can only be called by the current owner. NOTE: Renouncing ownership will leave the contract without an owner, thereby removing any functionality that is only available to the owner."
      },
      "setDirectPrice(address,uint256)": {
        "params": {
          "asset": "asset address",
          "price": "price in 18 decimals"
        }
      },
      "setTokenConfig((address,address,uint256))": {
        "params": {
          "tokenConfig": "token config struct"
        }
      },
      "setTokenConfigs((address,address,uint256)[])": {
        "params": {
          "tokenConfigs_": "config array"
        }
      },
      "setUnderlyingPrice(address,uint256)": {
        "params": {
          "underlyingPriceMantissa": "price in 18 decimals",
          "vToken": "vToken address"
        }
      },
      "transferOwnership(address)": {
        "details": "Transfers ownership of the contract to a new account (`newOwner`). Can only be called by the current owner."
      }
    },
    "version": 1
  },
  "userdoc": {
    "events": {
      "PricePosted(address,uint256,uint256,uint256)": {
        "notice": "emit when forced price is set "
      },
      "TokenConfigAdded(address,address,uint256)": {
        "notice": "emit when token config is added"
      }
    },
    "kind": "user",
    "methods": {
      "VAI_VALUE()": {
        "notice": "VAI token is considered $1 constantly in oracle for now"
      },
      "getUnderlyingPrice(address)": {
        "notice": "Get the Chainlink price of underlying asset of input vToken, revert when vToken is zero address"
      },
      "prices(address)": {
        "notice": "TODO: might be removed some day, it's for enabling us to force set the prices to certain values in some urgent conditions"
      },
      "setDirectPrice(address,uint256)": {
        "notice": "Set the forced prices of the input token"
      },
      "setTokenConfig((address,address,uint256))": {
        "notice": "Add single token config, vToken & feed cannot be zero address, and maxStalePeriod must be positive"
      },
      "setTokenConfigs((address,address,uint256)[])": {
        "notice": "Add multiple token configs at the same time"
      },
      "setUnderlyingPrice(address,uint256)": {
        "notice": "Set the forced prices of the underlying token of input vToken"
      },
      "tokenConfigs(address)": {
        "notice": "token config by assets"
      }
    },
    "version": 1
  },
  "storageLayout": {
    "storage": [
      {
        "astId": 138,
        "contract": "contracts/oracles/ChainlinkOracle.sol:ChainlinkOracle",
        "label": "_initialized",
        "offset": 0,
        "slot": "0",
        "type": "t_uint8"
      },
      {
        "astId": 141,
        "contract": "contracts/oracles/ChainlinkOracle.sol:ChainlinkOracle",
        "label": "_initializing",
        "offset": 1,
        "slot": "0",
        "type": "t_bool"
      },
      {
        "astId": 693,
        "contract": "contracts/oracles/ChainlinkOracle.sol:ChainlinkOracle",
        "label": "__gap",
        "offset": 0,
        "slot": "1",
        "type": "t_array(t_uint256)50_storage"
      },
      {
        "astId": 10,
        "contract": "contracts/oracles/ChainlinkOracle.sol:ChainlinkOracle",
        "label": "_owner",
        "offset": 0,
        "slot": "51",
        "type": "t_address"
      },
      {
        "astId": 130,
        "contract": "contracts/oracles/ChainlinkOracle.sol:ChainlinkOracle",
        "label": "__gap",
        "offset": 0,
        "slot": "52",
        "type": "t_array(t_uint256)49_storage"
      },
      {
        "astId": 3350,
        "contract": "contracts/oracles/ChainlinkOracle.sol:ChainlinkOracle",
        "label": "prices",
        "offset": 0,
        "slot": "101",
        "type": "t_mapping(t_address,t_uint256)"
      },
      {
        "astId": 3356,
        "contract": "contracts/oracles/ChainlinkOracle.sol:ChainlinkOracle",
        "label": "tokenConfigs",
        "offset": 0,
        "slot": "102",
        "type": "t_mapping(t_address,t_struct(TokenConfig)3334_storage)"
      }
    ],
    "types": {
      "t_address": {
        "encoding": "inplace",
        "label": "address",
        "numberOfBytes": "20"
      },
      "t_array(t_uint256)49_storage": {
        "base": "t_uint256",
        "encoding": "inplace",
        "label": "uint256[49]",
        "numberOfBytes": "1568"
      },
      "t_array(t_uint256)50_storage": {
        "base": "t_uint256",
        "encoding": "inplace",
        "label": "uint256[50]",
        "numberOfBytes": "1600"
      },
      "t_bool": {
        "encoding": "inplace",
        "label": "bool",
        "numberOfBytes": "1"
      },
      "t_mapping(t_address,t_struct(TokenConfig)3334_storage)": {
        "encoding": "mapping",
        "key": "t_address",
        "label": "mapping(address => struct TokenConfig)",
        "numberOfBytes": "32",
        "value": "t_struct(TokenConfig)3334_storage"
      },
      "t_mapping(t_address,t_uint256)": {
        "encoding": "mapping",
        "key": "t_address",
        "label": "mapping(address => uint256)",
        "numberOfBytes": "32",
        "value": "t_uint256"
      },
      "t_struct(TokenConfig)3334_storage": {
        "encoding": "inplace",
        "label": "struct TokenConfig",
        "members": [
          {
            "astId": 3327,
            "contract": "contracts/oracles/ChainlinkOracle.sol:ChainlinkOracle",
            "label": "vToken",
            "offset": 0,
            "slot": "0",
            "type": "t_address"
          },
          {
            "astId": 3330,
            "contract": "contracts/oracles/ChainlinkOracle.sol:ChainlinkOracle",
            "label": "feed",
            "offset": 0,
            "slot": "1",
            "type": "t_address"
          },
          {
            "astId": 3333,
            "contract": "contracts/oracles/ChainlinkOracle.sol:ChainlinkOracle",
            "label": "maxStalePeriod",
            "offset": 0,
            "slot": "2",
            "type": "t_uint256"
          }
        ],
        "numberOfBytes": "96"
      },
      "t_uint256": {
        "encoding": "inplace",
        "label": "uint256",
        "numberOfBytes": "32"
      },
      "t_uint8": {
        "encoding": "inplace",
        "label": "uint8",
        "numberOfBytes": "1"
      }
    }
  }
}