{
  "address": "0x49D276A4c6c460f12FdF24aD98B0D0eE4D1cC2Ba",
  "abi": [
    {
      "anonymous": false,
      "inputs": [
        {
          "indexed": true,
          "internalType": "address",
          "name": "vToken",
          "type": "address"
        },
        {
          "indexed": false,
          "internalType": "uint256",
          "name": "price",
          "type": "uint256"
        },
        {
          "indexed": false,
          "internalType": "uint256",
          "name": "oldTimestamp",
          "type": "uint256"
        },
        {
          "indexed": false,
          "internalType": "uint256",
          "name": "newTimestamp",
          "type": "uint256"
        }
      ],
      "name": "AnchorPriceUpdated",
      "type": "event"
    },
    {
      "anonymous": false,
      "inputs": [
        {
          "indexed": false,
          "internalType": "uint8",
          "name": "version",
          "type": "uint8"
        }
      ],
      "name": "Initialized",
      "type": "event"
    },
    {
      "anonymous": false,
      "inputs": [
        {
          "indexed": true,
          "internalType": "address",
          "name": "previousOwner",
          "type": "address"
        },
        {
          "indexed": true,
          "internalType": "address",
          "name": "newOwner",
          "type": "address"
        }
      ],
      "name": "OwnershipTransferred",
      "type": "event"
    },
    {
      "anonymous": false,
      "inputs": [
        {
          "indexed": true,
          "internalType": "address",
          "name": "vToken",
          "type": "address"
        },
        {
          "indexed": true,
          "internalType": "address",
          "name": "pancakePool",
          "type": "address"
        },
        {
          "indexed": true,
          "internalType": "uint256",
          "name": "anchorPeriod",
          "type": "uint256"
        }
      ],
      "name": "TokenConfigAdded",
      "type": "event"
    },
    {
      "anonymous": false,
      "inputs": [
        {
          "indexed": true,
          "internalType": "address",
          "name": "vToken",
          "type": "address"
        },
        {
          "indexed": false,
          "internalType": "uint256",
          "name": "oldTimestamp",
          "type": "uint256"
        },
        {
          "indexed": false,
          "internalType": "uint256",
          "name": "oldAcc",
          "type": "uint256"
        },
        {
          "indexed": false,
          "internalType": "uint256",
          "name": "newTimestamp",
          "type": "uint256"
        },
        {
          "indexed": false,
          "internalType": "uint256",
          "name": "newAcc",
          "type": "uint256"
        }
      ],
      "name": "TwapWindowUpdated",
      "type": "event"
    },
    {
      "anonymous": false,
      "inputs": [
        {
          "indexed": true,
          "internalType": "address",
          "name": "vToken",
          "type": "address"
        },
        {
          "indexed": true,
          "internalType": "uint256",
          "name": "upperBound",
          "type": "uint256"
        },
        {
          "indexed": true,
          "internalType": "uint256",
          "name": "lowerBound",
          "type": "uint256"
        }
      ],
      "name": "ValidateConfigAdded",
      "type": "event"
    },
    {
      "inputs": [],
      "name": "bnbBaseUnit",
      "outputs": [
        {
          "internalType": "uint256",
          "name": "",
          "type": "uint256"
        }
      ],
      "stateMutability": "view",
      "type": "function"
    },
    {
      "inputs": [],
      "name": "busdBaseUnit",
      "outputs": [
        {
          "internalType": "uint256",
          "name": "",
          "type": "uint256"
        }
      ],
      "stateMutability": "view",
      "type": "function"
    },
    {
      "inputs": [
        {
          "components": [
            {
              "internalType": "address",
              "name": "vToken",
              "type": "address"
            },
            {
              "internalType": "uint256",
              "name": "baseUnit",
              "type": "uint256"
            },
            {
              "internalType": "address",
              "name": "pancakePool",
              "type": "address"
            },
            {
              "internalType": "bool",
              "name": "isBnbBased",
              "type": "bool"
            },
            {
              "internalType": "bool",
              "name": "isReversedPool",
              "type": "bool"
            },
            {
              "internalType": "uint256",
              "name": "anchorPeriod",
              "type": "uint256"
            }
          ],
          "internalType": "struct TokenConfig",
          "name": "config",
          "type": "tuple"
        }
      ],
      "name": "currentCumulativePrice",
      "outputs": [
        {
          "internalType": "uint256",
          "name": "",
          "type": "uint256"
        }
      ],
      "stateMutability": "view",
      "type": "function"
    },
    {
      "inputs": [],
      "name": "expScale",
      "outputs": [
        {
          "internalType": "uint256",
          "name": "",
          "type": "uint256"
        }
      ],
      "stateMutability": "view",
      "type": "function"
    },
    {
      "inputs": [
        {
          "internalType": "address",
          "name": "vToken",
          "type": "address"
        }
      ],
      "name": "getUnderlyingPrice",
      "outputs": [
        {
          "internalType": "uint256",
          "name": "",
          "type": "uint256"
        }
      ],
      "stateMutability": "view",
      "type": "function"
    },
    {
      "inputs": [
        {
          "internalType": "address",
          "name": "vBNB_",
          "type": "address"
        }
      ],
      "name": "initialize",
      "outputs": [],
      "stateMutability": "nonpayable",
      "type": "function"
    },
    {
      "inputs": [
        {
          "internalType": "address",
          "name": "",
          "type": "address"
        }
      ],
      "name": "newObservations",
      "outputs": [
        {
          "internalType": "uint256",
          "name": "timestamp",
          "type": "uint256"
        },
        {
          "internalType": "uint256",
          "name": "acc",
          "type": "uint256"
        }
      ],
      "stateMutability": "view",
      "type": "function"
    },
    {
      "inputs": [
        {
          "internalType": "address",
          "name": "",
          "type": "address"
        }
      ],
      "name": "oldObservations",
      "outputs": [
        {
          "internalType": "uint256",
          "name": "timestamp",
          "type": "uint256"
        },
        {
          "internalType": "uint256",
          "name": "acc",
          "type": "uint256"
        }
      ],
      "stateMutability": "view",
      "type": "function"
    },
    {
      "inputs": [],
      "name": "owner",
      "outputs": [
        {
          "internalType": "address",
          "name": "",
          "type": "address"
        }
      ],
      "stateMutability": "view",
      "type": "function"
    },
    {
      "inputs": [
        {
          "internalType": "address",
          "name": "",
          "type": "address"
        }
      ],
      "name": "prices",
      "outputs": [
        {
          "internalType": "uint256",
          "name": "",
          "type": "uint256"
        }
      ],
      "stateMutability": "view",
      "type": "function"
    },
    {
      "inputs": [],
      "name": "renounceOwnership",
      "outputs": [],
      "stateMutability": "nonpayable",
      "type": "function"
    },
    {
      "inputs": [
        {
          "components": [
            {
              "internalType": "address",
              "name": "vToken",
              "type": "address"
            },
            {
              "internalType": "uint256",
              "name": "baseUnit",
              "type": "uint256"
            },
            {
              "internalType": "address",
              "name": "pancakePool",
              "type": "address"
            },
            {
              "internalType": "bool",
              "name": "isBnbBased",
              "type": "bool"
            },
            {
              "internalType": "bool",
              "name": "isReversedPool",
              "type": "bool"
            },
            {
              "internalType": "uint256",
              "name": "anchorPeriod",
              "type": "uint256"
            }
          ],
          "internalType": "struct TokenConfig",
          "name": "config",
          "type": "tuple"
        }
      ],
      "name": "setTokenConfig",
      "outputs": [],
      "stateMutability": "nonpayable",
      "type": "function"
    },
    {
      "inputs": [
        {
          "components": [
            {
              "internalType": "address",
              "name": "vToken",
              "type": "address"
            },
            {
              "internalType": "uint256",
              "name": "baseUnit",
              "type": "uint256"
            },
            {
              "internalType": "address",
              "name": "pancakePool",
              "type": "address"
            },
            {
              "internalType": "bool",
              "name": "isBnbBased",
              "type": "bool"
            },
            {
              "internalType": "bool",
              "name": "isReversedPool",
              "type": "bool"
            },
            {
              "internalType": "uint256",
              "name": "anchorPeriod",
              "type": "uint256"
            }
          ],
          "internalType": "struct TokenConfig[]",
          "name": "configs",
          "type": "tuple[]"
        }
      ],
      "name": "setTokenConfigs",
      "outputs": [],
      "stateMutability": "nonpayable",
      "type": "function"
    },
    {
      "inputs": [
        {
          "components": [
            {
              "internalType": "address",
              "name": "vToken",
              "type": "address"
            },
            {
              "internalType": "uint256",
              "name": "upperBoundRatio",
              "type": "uint256"
            },
            {
              "internalType": "uint256",
              "name": "lowerBoundRatio",
              "type": "uint256"
            }
          ],
          "internalType": "struct ValidateConfig",
          "name": "config",
          "type": "tuple"
        }
      ],
      "name": "setValidateConfig",
      "outputs": [],
      "stateMutability": "nonpayable",
      "type": "function"
    },
    {
      "inputs": [
        {
          "components": [
            {
              "internalType": "address",
              "name": "vToken",
              "type": "address"
            },
            {
              "internalType": "uint256",
              "name": "upperBoundRatio",
              "type": "uint256"
            },
            {
              "internalType": "uint256",
              "name": "lowerBoundRatio",
              "type": "uint256"
            }
          ],
          "internalType": "struct ValidateConfig[]",
          "name": "configs",
          "type": "tuple[]"
        }
      ],
      "name": "setValidateConfigs",
      "outputs": [],
      "stateMutability": "nonpayable",
      "type": "function"
    },
    {
      "inputs": [
        {
          "internalType": "address",
          "name": "",
          "type": "address"
        }
      ],
      "name": "tokenConfigs",
      "outputs": [
        {
          "internalType": "address",
          "name": "vToken",
          "type": "address"
        },
        {
          "internalType": "uint256",
          "name": "baseUnit",
          "type": "uint256"
        },
        {
          "internalType": "address",
          "name": "pancakePool",
          "type": "address"
        },
        {
          "internalType": "bool",
          "name": "isBnbBased",
          "type": "bool"
        },
        {
          "internalType": "bool",
          "name": "isReversedPool",
          "type": "bool"
        },
        {
          "internalType": "uint256",
          "name": "anchorPeriod",
          "type": "uint256"
        }
      ],
      "stateMutability": "view",
      "type": "function"
    },
    {
      "inputs": [
        {
          "internalType": "address",
          "name": "newOwner",
          "type": "address"
        }
      ],
      "name": "transferOwnership",
      "outputs": [],
      "stateMutability": "nonpayable",
      "type": "function"
    },
    {
      "inputs": [
        {
          "internalType": "address",
          "name": "vToken",
          "type": "address"
        }
      ],
      "name": "updateTwap",
      "outputs": [
        {
          "internalType": "uint256",
          "name": "",
          "type": "uint256"
        }
      ],
      "stateMutability": "nonpayable",
      "type": "function"
    },
    {
      "inputs": [],
      "name": "vBNB",
      "outputs": [
        {
          "internalType": "address",
          "name": "",
          "type": "address"
        }
      ],
      "stateMutability": "view",
      "type": "function"
    },
    {
      "inputs": [
        {
          "internalType": "address",
          "name": "",
          "type": "address"
        }
      ],
      "name": "validateConfigs",
      "outputs": [
        {
          "internalType": "address",
          "name": "vToken",
          "type": "address"
        },
        {
          "internalType": "uint256",
          "name": "upperBoundRatio",
          "type": "uint256"
        },
        {
          "internalType": "uint256",
          "name": "lowerBoundRatio",
          "type": "uint256"
        }
      ],
      "stateMutability": "view",
      "type": "function"
    },
    {
      "inputs": [
        {
          "internalType": "address",
          "name": "vToken",
          "type": "address"
        },
        {
          "internalType": "uint256",
          "name": "reporterPrice",
          "type": "uint256"
        }
      ],
      "name": "validatePrice",
      "outputs": [
        {
          "internalType": "bool",
          "name": "",
          "type": "bool"
        }
      ],
      "stateMutability": "view",
      "type": "function"
    }
  ],
  "transactionHash": "0x00c14e9aa64bff95560a8bd0cf74ca49c498f803e0a66ae7b4145c74388aad66",
  "args": [],
  "numDeployments": 1,
  "solcInputHash": "db48de05a0138077f5da70327d0fc0a2",
  "bytecode": "0x608060405234801561001057600080fd5b50611cc5806100206000396000f3fe608060405234801561001057600080fd5b50600436106101775760003560e01c80639c357615116100d8578063cbf679191161008c578063fc57d4df11610066578063fc57d4df146103d0578063fd45a433146103e3578063fe16e80c1461040657600080fd5b8063cbf679191461038a578063cfed246b1461039d578063f2fde38b146103bd57600080fd5b8063b8a8a626116100bd578063b8a8a6261461027c578063bca9e11614610319578063c4d66de81461037757600080fd5b80639c357615146102f3578063af9e6c5b1461030657600080fd5b806369aa3ac61161012f578063725068a511610114578063725068a5146102935780638cea8c26146102a65780638da5cb5b146102e257600080fd5b806369aa3ac61461027c578063715018a61461028b57600080fd5b80632b9d9dea116101605780632b9d9dea1461023057806333e1567f14610251578063609f0f361461027c57600080fd5b80631b69dc5f1461017c578063234a34461461021b575b600080fd5b6101d461018a3660046117f5565b60666020526000908152604090208054600182015460028301546003909301546001600160a01b0392831693919282169160ff600160a01b8204811692600160a81b909204169086565b604080516001600160a01b03978816815260208101969096529390951692840192909252151560608301521515608082015260a081019190915260c0015b60405180910390f35b61022e61022936600461191f565b61042d565b005b61024361023e3660046119be565b6104d5565b604051908152602001610212565b606554610264906001600160a01b031681565b6040516001600160a01b039091168152602001610212565b610243670de0b6b3a764000081565b61022e610504565b6102436102a13660046117f5565b610518565b6102cd6102b43660046117f5565b6067602052600090815260409020805460019091015482565b60408051928352602083019190915201610212565b6033546001600160a01b0316610264565b61022e610301366004611a3b565b61065f565b61022e610314366004611ac9565b6106fe565b6103526103273660046117f5565b606a602052600090815260409020805460018201546002909201546001600160a01b03909116919083565b604080516001600160a01b039094168452602084019290925290820152606001610212565b61022e6103853660046117f5565b6108b9565b61022e6103983660046119be565b610a4a565b6102436103ab3660046117f5565b60696020526000908152604090205481565b61022e6103cb3660046117f5565b610cfc565b6102436103de3660046117f5565b610d8c565b6103f66103f1366004611ae5565b610e5b565b6040519015158152602001610212565b6102cd6104143660046117f5565b6068602052600090815260409020805460019091015482565b610435610f59565b600081511161048b5760405162461bcd60e51b815260206004820152601160248201527f6c656e6774682063616e2774206265203000000000000000000000000000000060448201526064015b60405180910390fd5b60005b81518160ff1610156104d1576104bf828260ff16815181106104b2576104b2611b0f565b6020026020010151610a4a565b806104c981611b3b565b91505061048e565b5050565b60008060006104e78460400151610fb3565b50915091508360800151156104fd579392505050565b5092915050565b61050c610f59565b6105166000611186565b565b6001600160a01b038181166000908152606660205260408120549091166105815760405162461bcd60e51b815260206004820152601060248201527f76546f6b6e65206e6f74206578697374000000000000000000000000000000006044820152606401610482565b6065546001600160a01b038381169116148015906105c157506001600160a01b038216600090815260666020526040902060020154600160a01b900460ff165b156105dd576065546105db906001600160a01b0316610518565b505b6001600160a01b03808316600090815260666020908152604091829020825160c08101845281548516815260018201549281019290925260028101549384169282019290925260ff600160a01b8404811615156060830152600160a81b909304909216151560808301526003015460a0820152610659906111d8565b92915050565b610667610f59565b60008151116106b85760405162461bcd60e51b815260206004820152601e60248201527f696e76616c69642076616c696461746520636f6e666967206c656e67746800006044820152606401610482565b60005b81518160ff1610156104d1576106ec828260ff16815181106106df576106df611b0f565b60200260200101516106fe565b806106f681611b3b565b9150506106bb565b610706610f59565b80516001600160a01b03811661075e5760405162461bcd60e51b815260206004820152601560248201527f63616e2774206265207a65726f206164647265737300000000000000000000006044820152606401610482565b60008260200151118015610776575060008260400151115b6107c25760405162461bcd60e51b815260206004820152601660248201527f626f756e64206d75737420626520706f736974697665000000000000000000006044820152606401610482565b816040015182602001511161083f5760405162461bcd60e51b815260206004820152602c60248201527f757070657220626f756e64206d75737420626520686967686572207468616e2060448201527f6c6f776e657220626f756e6400000000000000000000000000000000000000006064820152608401610482565b81516001600160a01b039081166000908152606a60209081526040808320865181546001600160a01b03191695169485178155918601516001830181905581870151600290930183905590519193909290917f28e2d96bdcf74fe6203e40d159d27ec2e15230239c0aee4a0a914196c550e6d19190a45050565b600054610100900460ff16158080156108d95750600054600160ff909116105b806108f35750303b1580156108f3575060005460ff166001145b6109655760405162461bcd60e51b815260206004820152602e60248201527f496e697469616c697a61626c653a20636f6e747261637420697320616c72656160448201527f647920696e697469616c697a65640000000000000000000000000000000000006064820152608401610482565b6000805460ff191660011790558015610988576000805461ff0019166101001790555b610990611427565b6001600160a01b0382166109e65760405162461bcd60e51b815260206004820152601a60248201527f76424e422063616e2774206265207a65726f20616464726573730000000000006044820152606401610482565b606580546001600160a01b0319166001600160a01b03841617905580156104d1576000805461ff0019169055604051600181527f7f26b83ff96e1f2b6a682f133852f6798a09c465da95921460cefb38474024989060200160405180910390a15050565b610a52610f59565b80516001600160a01b038116610aaa5760405162461bcd60e51b815260206004820152601560248201527f63616e2774206265207a65726f206164647265737300000000000000000000006044820152606401610482565b60408201516001600160a01b038116610b055760405162461bcd60e51b815260206004820152601560248201527f63616e2774206265207a65726f206164647265737300000000000000000000006044820152606401610482565b60008360a0015111610b595760405162461bcd60e51b815260206004820152601e60248201527f616e63686f7220706572696f64206d75737420626520706f73697469766500006044820152606401610482565b6000836020015111610bad5760405162461bcd60e51b815260206004820152601a60248201527f6261736520756e6974206d75737420626520706f7369746976650000000000006044820152606401610482565b6000610bb8846104d5565b84516001600160a01b03908116600090815260686020818152604080842042908190558a51861685526067808452828620919091558a518616855292825280842060019081018790558a51861685529282528084208301869055895185168452606682528084208a5181549087166001600160a01b031990911681178255928b015193810193909355808a015160028401805460608d015160808e01511515600160a81b027fffffffffffffffffffff00ffffffffffffffffffffffffffffffffffffffffff911515600160a01b027fffffffffffffffffffffff0000000000000000000000000000000000000000009093169490991693841791909117169690961790955560a08a0151600390930183905551949550909390917f3cc8d9cb9370a23a8b9ffa75efa24cecb65c4693980e58260841adc474983c5f91a450505050565b610d04610f59565b6001600160a01b038116610d805760405162461bcd60e51b815260206004820152602660248201527f4f776e61626c653a206e6577206f776e657220697320746865207a65726f206160448201527f64647265737300000000000000000000000000000000000000000000000000006064820152608401610482565b610d8981611186565b50565b6001600160a01b03818116600090815260666020526040812054909116610df55760405162461bcd60e51b815260206004820152601060248201527f76546f6b656e206e6f74206578697374000000000000000000000000000000006044820152606401610482565b6001600160a01b038216600090815260696020526040902054806106595760405162461bcd60e51b815260206004820152601b60248201527f54574150207072696365206d75737420626520706f73697469766500000000006044820152606401610482565b6001600160a01b0382166000908152606a60205260408120600101548103610ec55760405162461bcd60e51b815260206004820152601b60248201527f76616c69646174696f6e20636f6e666967206e6f7420657869737400000000006044820152606401610482565b6001600160a01b0383166000908152606960205260408120549003610f2c5760405162461bcd60e51b815260206004820152601960248201527f73746f726564207072696365206973206e6f742076616c6964000000000000006044820152606401610482565b6001600160a01b038316600090815260696020526040902054610f52908490849061149a565b9392505050565b6033546001600160a01b031633146105165760405162461bcd60e51b815260206004820181905260248201527f4f776e61626c653a2063616c6c6572206973206e6f7420746865206f776e65726044820152606401610482565b6000806000610fc0611505565b9050836001600160a01b0316635909c0d56040518163ffffffff1660e01b8152600401602060405180830381865afa158015611000573d6000803e3d6000fd5b505050506040513d601f19601f820116820180604052508101906110249190611b5a565b9250836001600160a01b0316635a3d54936040518163ffffffff1660e01b8152600401602060405180830381865afa158015611064573d6000803e3d6000fd5b505050506040513d601f19601f820116820180604052508101906110889190611b5a565b91506000806000866001600160a01b0316630902f1ac6040518163ffffffff1660e01b8152600401606060405180830381865afa1580156110cd573d6000803e3d6000fd5b505050506040513d601f19601f820116820180604052508101906110f19190611b91565b9250925092508363ffffffff168163ffffffff161461117c5760006111168286611be1565b90508063ffffffff16611129848661151b565b5161113d91906001600160e01b0316611c06565b6111479088611c25565b96508063ffffffff1661115a858561151b565b5161116e91906001600160e01b0316611c06565b6111789087611c25565b9550505b5050509193909250565b603380546001600160a01b038381166001600160a01b0319831681179093556040519116919082907f8be0079c531659141344cd1fd0a4f28419497f9722a3daafe3b4186f6b6457e090600090a35050565b6000806000806111e7856115e4565b92509250925080421161123c5760405162461bcd60e51b815260206004820152601a60248201527f6e6f77206d75737420636f6d65206166746572206265666f72650000000000006044820152606401610482565b60006112484283611721565b9050600060405180602001604052806112748461126e888a61172190919063ffffffff16565b9061172d565b6001600160e01b031690529050600061128c82611739565b9050600088606001516112a757670de0b6b3a76400006112b1565b670de0b6b3a76400005b905060006112d08261126e8c602001518661175990919063ffffffff16565b9050896060015115611361576065546001600160a01b0316600090815260696020526040812054908190036113475760405162461bcd60e51b815260206004820152601460248201527f626e6220707269636520697320696e76616c69640000000000000000000000006044820152606401610482565b61135d670de0b6b3a764000061126e8484611759565b9150505b806000036113b15760405162461bcd60e51b815260206004820152601660248201527f747761702070726963652063616e6e6f742062652030000000000000000000006044820152606401610482565b89516040805183815260208101899052428183015290516001600160a01b03909216917f7d881580fb2bb7844e8ecf8df26510247c4bbea2735d40bf0d9ac33c0d9acd819181900360600190a298516001600160a01b031660009081526069602052604090208990555096979650505050505050565b600054610100900460ff166114925760405162461bcd60e51b815260206004820152602b60248201527f496e697469616c697a61626c653a20636f6e7472616374206973206e6f74206960448201526a6e697469616c697a696e6760a81b6064820152608401610482565b610516611765565b600082156114fb5760006114ba8461126e85670de0b6b3a7640000611759565b6001600160a01b0386166000908152606a602052604090206001810154600290910154919250908183118015906114f15750808310155b9350505050610f52565b5060009392505050565b600061151664010000000042611c53565b905090565b6040805160208101909152600081526000826dffffffffffffffffffffffffffff161161158a5760405162461bcd60e51b815260206004820152601760248201527f4669786564506f696e743a204449565f42595f5a45524f0000000000000000006044820152606401610482565b6040805160208101909152806115d26dffffffffffffffffffffffffffff85167bffffffffffffffffffffffffffff0000000000000000000000000000607088901b16611c67565b6001600160e01b031690529392505050565b6000806000806115f3856104d5565b85516001600160a01b031660009081526067602090815260408083208151808301909252805480835260019091015492820192909252929350611637904290611721565b90508660a0015181106116ec57815187516001600160a01b0390811660009081526068602090815260408083209490945580860180518c51851684528584206001908101919091558c51851684526067835285842042908190558d518616855293869020018890558b5187519151865192835292820193909352938401526060830186905216907f87208a84ec7402c933c70c261e53b733a9f1c893d73e941a152435d58177a2649060800160405180910390a25b505084516001600160a01b03908116600090815260686020526040808220600101549751909216815220549095909350915050565b6000610f528284611c8d565b6000610f528284611ca4565b8051600090610659906612725dd1d243ab906001600160e01b0316611ca4565b6000610f528284611c06565b600054610100900460ff166117d05760405162461bcd60e51b815260206004820152602b60248201527f496e697469616c697a61626c653a20636f6e7472616374206973206e6f74206960448201526a6e697469616c697a696e6760a81b6064820152608401610482565b61051633611186565b80356001600160a01b03811681146117f057600080fd5b919050565b60006020828403121561180757600080fd5b610f52826117d9565b634e487b7160e01b600052604160045260246000fd5b604051601f8201601f1916810167ffffffffffffffff8111828210171561184f5761184f611810565b604052919050565b600067ffffffffffffffff82111561187157611871611810565b5060051b60200190565b803580151581146117f057600080fd5b600060c0828403121561189d57600080fd5b60405160c0810181811067ffffffffffffffff821117156118c0576118c0611810565b6040529050806118cf836117d9565b8152602083013560208201526118e7604084016117d9565b60408201526118f86060840161187b565b60608201526119096080840161187b565b608082015260a083013560a08201525092915050565b6000602080838503121561193257600080fd5b823567ffffffffffffffff81111561194957600080fd5b8301601f8101851361195a57600080fd5b803561196d61196882611857565b611826565b81815260c0918202830184019184820191908884111561198c57600080fd5b938501935b838510156119b2576119a3898661188b565b83529384019391850191611991565b50979650505050505050565b600060c082840312156119d057600080fd5b610f52838361188b565b6000606082840312156119ec57600080fd5b6040516060810181811067ffffffffffffffff82111715611a0f57611a0f611810565b604052905080611a1e836117d9565b815260208301356020820152604083013560408201525092915050565b60006020808385031215611a4e57600080fd5b823567ffffffffffffffff811115611a6557600080fd5b8301601f81018513611a7657600080fd5b8035611a8461196882611857565b81815260609182028301840191848201919088841115611aa357600080fd5b938501935b838510156119b257611aba89866119da565b83529384019391850191611aa8565b600060608284031215611adb57600080fd5b610f5283836119da565b60008060408385031215611af857600080fd5b611b01836117d9565b946020939093013593505050565b634e487b7160e01b600052603260045260246000fd5b634e487b7160e01b600052601160045260246000fd5b600060ff821660ff8103611b5157611b51611b25565b60010192915050565b600060208284031215611b6c57600080fd5b5051919050565b80516dffffffffffffffffffffffffffff811681146117f057600080fd5b600080600060608486031215611ba657600080fd5b611baf84611b73565b9250611bbd60208501611b73565b9150604084015163ffffffff81168114611bd657600080fd5b809150509250925092565b600063ffffffff83811690831681811015611bfe57611bfe611b25565b039392505050565b6000816000190483118215151615611c2057611c20611b25565b500290565b60008219821115611c3857611c38611b25565b500190565b634e487b7160e01b600052601260045260246000fd5b600082611c6257611c62611c3d565b500690565b60006001600160e01b0380841680611c8157611c81611c3d565b92169190910492915050565b600082821015611c9f57611c9f611b25565b500390565b600082611cb357611cb3611c3d565b50049056fea164736f6c634300080d000a",
  "devdoc": {
    "kind": "dev",
    "methods": {
      "currentCumulativePrice((address,uint256,address,bool,bool,uint256))": {
        "returns": {
          "_0": "cumulative price of target token regardless of pair order "
        }
      },
      "getUnderlyingPrice(address)": {
        "params": {
          "vToken": "vToken address"
        },
        "returns": {
          "_0": "price in USD, with 18 decimals"
        }
      },
      "owner()": {
        "details": "Returns the address of the current owner."
      },
      "renounceOwnership()": {
        "details": "Leaves the contract without owner. It will not be possible to call `onlyOwner` functions anymore. Can only be called by the current owner. NOTE: Renouncing ownership will leave the contract without an owner, thereby removing any functionality that is only available to the owner."
      },
      "setTokenConfig((address,uint256,address,bool,bool,uint256))": {
        "params": {
          "config": "token config struct"
        }
      },
      "setTokenConfigs((address,uint256,address,bool,bool,uint256)[])": {
        "params": {
          "configs": "config array"
        }
      },
      "setValidateConfig((address,uint256,uint256))": {
        "params": {
          "config": "config struct"
        }
      },
      "setValidateConfigs((address,uint256,uint256)[])": {
        "params": {
          "configs": "config array "
        }
      },
      "transferOwnership(address)": {
        "details": "Transfers ownership of the contract to a new account (`newOwner`). Can only be called by the current owner."
      },
      "validatePrice(address,uint256)": {
        "params": {
          "reporterPrice": "the price to be tested",
          "vToken": "vToken address"
        }
      }
    },
    "version": 1
  },
  "userdoc": {
    "events": {
      "AnchorPriceUpdated(address,uint256,uint256,uint256)": {
        "notice": "Emit this event when TWAP price is updated"
      },
      "TokenConfigAdded(address,address,uint256)": {
        "notice": "Emit this event when new token configs are added"
      },
      "TwapWindowUpdated(address,uint256,uint256,uint256,uint256)": {
        "notice": "Emit this event when TWAP window is updated"
      },
      "ValidateConfigAdded(address,uint256,uint256)": {
        "notice": "Emit this event when new validate configs are added"
      }
    },
    "kind": "user",
    "methods": {
      "bnbBaseUnit()": {
        "notice": "the base unit of WBNB and BUSD, which are the paired tokens for all assets"
      },
      "currentCumulativePrice((address,uint256,address,bool,bool,uint256))": {
        "notice": "Fetches the current token/WBNB and token/BUSD price accumulator from pancakeswap."
      },
      "getUnderlyingPrice(address)": {
        "notice": "Get the underlying TWAP price of input vToken"
      },
      "newObservations(address)": {
        "notice": "The current price observation of TWAP. With old and current observations we can calculate the TWAP between this range"
      },
      "oldObservations(address)": {
        "notice": "The old price observation of TWAP"
      },
      "prices(address)": {
        "notice": "Stored price by token "
      },
      "setTokenConfig((address,uint256,address,bool,bool,uint256))": {
        "notice": "Add single token configs"
      },
      "setTokenConfigs((address,uint256,address,bool,bool,uint256)[])": {
        "notice": "Add multiple token configs at the same time"
      },
      "setValidateConfig((address,uint256,uint256))": {
        "notice": "Add single validation config"
      },
      "setValidateConfigs((address,uint256,uint256)[])": {
        "notice": "Add multiple validation configs at the same time"
      },
      "tokenConfigs(address)": {
        "notice": "Configs by token"
      },
      "vBNB()": {
        "notice": "vBNB address"
      },
      "validateConfigs(address)": {
        "notice": "validation configs by token"
      },
      "validatePrice(address,uint256)": {
        "notice": "Test reported vToken underlying price against stored TWAP"
      }
    },
    "version": 1
  },
  "storageLayout": {
    "storage": [
      {
        "astId": 138,
        "contract": "contracts/oracles/PivotTwapOracle.sol:PivotTwapOracle",
        "label": "_initialized",
        "offset": 0,
        "slot": "0",
        "type": "t_uint8"
      },
      {
        "astId": 141,
        "contract": "contracts/oracles/PivotTwapOracle.sol:PivotTwapOracle",
        "label": "_initializing",
        "offset": 1,
        "slot": "0",
        "type": "t_bool"
      },
      {
        "astId": 693,
        "contract": "contracts/oracles/PivotTwapOracle.sol:PivotTwapOracle",
        "label": "__gap",
        "offset": 0,
        "slot": "1",
        "type": "t_array(t_uint256)50_storage"
      },
      {
        "astId": 10,
        "contract": "contracts/oracles/PivotTwapOracle.sol:PivotTwapOracle",
        "label": "_owner",
        "offset": 0,
        "slot": "51",
        "type": "t_address"
      },
      {
        "astId": 130,
        "contract": "contracts/oracles/PivotTwapOracle.sol:PivotTwapOracle",
        "label": "__gap",
        "offset": 0,
        "slot": "52",
        "type": "t_array(t_uint256)49_storage"
      },
      {
        "astId": 4378,
        "contract": "contracts/oracles/PivotTwapOracle.sol:PivotTwapOracle",
        "label": "vBNB",
        "offset": 0,
        "slot": "101",
        "type": "t_address"
      },
      {
        "astId": 4394,
        "contract": "contracts/oracles/PivotTwapOracle.sol:PivotTwapOracle",
        "label": "tokenConfigs",
        "offset": 0,
        "slot": "102",
        "type": "t_mapping(t_address,t_struct(TokenConfig)4366_storage)"
      },
      {
        "astId": 4400,
        "contract": "contracts/oracles/PivotTwapOracle.sol:PivotTwapOracle",
        "label": "newObservations",
        "offset": 0,
        "slot": "103",
        "type": "t_mapping(t_address,t_struct(Observation)4347_storage)"
      },
      {
        "astId": 4406,
        "contract": "contracts/oracles/PivotTwapOracle.sol:PivotTwapOracle",
        "label": "oldObservations",
        "offset": 0,
        "slot": "104",
        "type": "t_mapping(t_address,t_struct(Observation)4347_storage)"
      },
      {
        "astId": 4411,
        "contract": "contracts/oracles/PivotTwapOracle.sol:PivotTwapOracle",
        "label": "prices",
        "offset": 0,
        "slot": "105",
        "type": "t_mapping(t_address,t_uint256)"
      },
      {
        "astId": 3817,
        "contract": "contracts/oracles/PivotTwapOracle.sol:PivotTwapOracle",
        "label": "validateConfigs",
        "offset": 0,
        "slot": "106",
        "type": "t_mapping(t_address,t_struct(ValidateConfig)3804_storage)"
      }
    ],
    "types": {
      "t_address": {
        "encoding": "inplace",
        "label": "address",
        "numberOfBytes": "20"
      },
      "t_array(t_uint256)49_storage": {
        "base": "t_uint256",
        "encoding": "inplace",
        "label": "uint256[49]",
        "numberOfBytes": "1568"
      },
      "t_array(t_uint256)50_storage": {
        "base": "t_uint256",
        "encoding": "inplace",
        "label": "uint256[50]",
        "numberOfBytes": "1600"
      },
      "t_bool": {
        "encoding": "inplace",
        "label": "bool",
        "numberOfBytes": "1"
      },
      "t_mapping(t_address,t_struct(Observation)4347_storage)": {
        "encoding": "mapping",
        "key": "t_address",
        "label": "mapping(address => struct Observation)",
        "numberOfBytes": "32",
        "value": "t_struct(Observation)4347_storage"
      },
      "t_mapping(t_address,t_struct(TokenConfig)4366_storage)": {
        "encoding": "mapping",
        "key": "t_address",
        "label": "mapping(address => struct TokenConfig)",
        "numberOfBytes": "32",
        "value": "t_struct(TokenConfig)4366_storage"
      },
      "t_mapping(t_address,t_struct(ValidateConfig)3804_storage)": {
        "encoding": "mapping",
        "key": "t_address",
        "label": "mapping(address => struct ValidateConfig)",
        "numberOfBytes": "32",
        "value": "t_struct(ValidateConfig)3804_storage"
      },
      "t_mapping(t_address,t_uint256)": {
        "encoding": "mapping",
        "key": "t_address",
        "label": "mapping(address => uint256)",
        "numberOfBytes": "32",
        "value": "t_uint256"
      },
      "t_struct(Observation)4347_storage": {
        "encoding": "inplace",
        "label": "struct Observation",
        "members": [
          {
            "astId": 4344,
            "contract": "contracts/oracles/PivotTwapOracle.sol:PivotTwapOracle",
            "label": "timestamp",
            "offset": 0,
            "slot": "0",
            "type": "t_uint256"
          },
          {
            "astId": 4346,
            "contract": "contracts/oracles/PivotTwapOracle.sol:PivotTwapOracle",
            "label": "acc",
            "offset": 0,
            "slot": "1",
            "type": "t_uint256"
          }
        ],
        "numberOfBytes": "64"
      },
      "t_struct(TokenConfig)4366_storage": {
        "encoding": "inplace",
        "label": "struct TokenConfig",
        "members": [
          {
            "astId": 4350,
            "contract": "contracts/oracles/PivotTwapOracle.sol:PivotTwapOracle",
            "label": "vToken",
            "offset": 0,
            "slot": "0",
            "type": "t_address"
          },
          {
            "astId": 4353,
            "contract": "contracts/oracles/PivotTwapOracle.sol:PivotTwapOracle",
            "label": "baseUnit",
            "offset": 0,
            "slot": "1",
            "type": "t_uint256"
          },
          {
            "astId": 4356,
            "contract": "contracts/oracles/PivotTwapOracle.sol:PivotTwapOracle",
            "label": "pancakePool",
            "offset": 0,
            "slot": "2",
            "type": "t_address"
          },
          {
            "astId": 4359,
            "contract": "contracts/oracles/PivotTwapOracle.sol:PivotTwapOracle",
            "label": "isBnbBased",
            "offset": 20,
            "slot": "2",
            "type": "t_bool"
          },
          {
            "astId": 4362,
            "contract": "contracts/oracles/PivotTwapOracle.sol:PivotTwapOracle",
            "label": "isReversedPool",
            "offset": 21,
            "slot": "2",
            "type": "t_bool"
          },
          {
            "astId": 4365,
            "contract": "contracts/oracles/PivotTwapOracle.sol:PivotTwapOracle",
            "label": "anchorPeriod",
            "offset": 0,
            "slot": "3",
            "type": "t_uint256"
          }
        ],
        "numberOfBytes": "128"
      },
      "t_struct(ValidateConfig)3804_storage": {
        "encoding": "inplace",
        "label": "struct ValidateConfig",
        "members": [
          {
            "astId": 3797,
            "contract": "contracts/oracles/PivotTwapOracle.sol:PivotTwapOracle",
            "label": "vToken",
            "offset": 0,
            "slot": "0",
            "type": "t_address"
          },
          {
            "astId": 3800,
            "contract": "contracts/oracles/PivotTwapOracle.sol:PivotTwapOracle",
            "label": "upperBoundRatio",
            "offset": 0,
            "slot": "1",
            "type": "t_uint256"
          },
          {
            "astId": 3803,
            "contract": "contracts/oracles/PivotTwapOracle.sol:PivotTwapOracle",
            "label": "lowerBoundRatio",
            "offset": 0,
            "slot": "2",
            "type": "t_uint256"
          }
        ],
        "numberOfBytes": "96"
      },
      "t_uint256": {
        "encoding": "inplace",
        "label": "uint256",
        "numberOfBytes": "32"
      },
      "t_uint8": {
        "encoding": "inplace",
        "label": "uint8",
        "numberOfBytes": "1"
      }
    }
  }
}