{
  "address": "0x9ECb48e5ABF0DDbd57E63A92555AeA548Ecb44f6",
  "abi": [
    {
      "anonymous": false,
      "inputs": [
        {
          "indexed": false,
          "internalType": "uint8",
          "name": "version",
          "type": "uint8"
        }
      ],
      "name": "Initialized",
      "type": "event"
    },
    {
      "anonymous": false,
      "inputs": [
        {
          "indexed": true,
          "internalType": "address",
          "name": "previousOwner",
          "type": "address"
        },
        {
          "indexed": true,
          "internalType": "address",
          "name": "newOwner",
          "type": "address"
        }
      ],
      "name": "OwnershipTransferred",
      "type": "event"
    },
    {
      "anonymous": false,
      "inputs": [
        {
          "indexed": true,
          "internalType": "address",
          "name": "newPythOracle",
          "type": "address"
        }
      ],
      "name": "PythOracleSet",
      "type": "event"
    },
    {
      "anonymous": false,
      "inputs": [
        {
          "indexed": true,
          "internalType": "address",
          "name": "vToken",
          "type": "address"
        },
        {
          "indexed": true,
          "internalType": "bytes32",
          "name": "pythId",
          "type": "bytes32"
        },
        {
          "indexed": true,
          "internalType": "uint64",
          "name": "maxStalePeriod",
          "type": "uint64"
        }
      ],
      "name": "TokenConfigAdded",
      "type": "event"
    },
    {
      "inputs": [],
      "name": "EXP_SCALE",
      "outputs": [
        {
          "internalType": "uint256",
          "name": "",
          "type": "uint256"
        }
      ],
      "stateMutability": "view",
      "type": "function"
    },
    {
      "inputs": [
        {
          "internalType": "address",
          "name": "vToken",
          "type": "address"
        }
      ],
      "name": "getUnderlyingPrice",
      "outputs": [
        {
          "internalType": "uint256",
          "name": "",
          "type": "uint256"
        }
      ],
      "stateMutability": "view",
      "type": "function"
    },
    {
      "inputs": [
        {
          "internalType": "address",
          "name": "underlyingPythOracle_",
          "type": "address"
        }
      ],
      "name": "initialize",
      "outputs": [],
      "stateMutability": "nonpayable",
      "type": "function"
    },
    {
      "inputs": [],
      "name": "owner",
      "outputs": [
        {
          "internalType": "address",
          "name": "",
          "type": "address"
        }
      ],
      "stateMutability": "view",
      "type": "function"
    },
    {
      "inputs": [],
      "name": "renounceOwnership",
      "outputs": [],
      "stateMutability": "nonpayable",
      "type": "function"
    },
    {
      "inputs": [
        {
          "components": [
            {
              "internalType": "bytes32",
              "name": "pythId",
              "type": "bytes32"
            },
            {
              "internalType": "address",
              "name": "vToken",
              "type": "address"
            },
            {
              "internalType": "uint64",
              "name": "maxStalePeriod",
              "type": "uint64"
            }
          ],
          "internalType": "struct TokenConfig",
          "name": "tokenConfig",
          "type": "tuple"
        }
      ],
      "name": "setTokenConfig",
      "outputs": [],
      "stateMutability": "nonpayable",
      "type": "function"
    },
    {
      "inputs": [
        {
          "components": [
            {
              "internalType": "bytes32",
              "name": "pythId",
              "type": "bytes32"
            },
            {
              "internalType": "address",
              "name": "vToken",
              "type": "address"
            },
            {
              "internalType": "uint64",
              "name": "maxStalePeriod",
              "type": "uint64"
            }
          ],
          "internalType": "struct TokenConfig[]",
          "name": "tokenConfigs_",
          "type": "tuple[]"
        }
      ],
      "name": "setTokenConfigs",
      "outputs": [],
      "stateMutability": "nonpayable",
      "type": "function"
    },
    {
      "inputs": [
        {
          "internalType": "contract IPyth",
          "name": "underlyingPythOracle_",
          "type": "address"
        }
      ],
      "name": "setUnderlyingPythOracle",
      "outputs": [],
      "stateMutability": "nonpayable",
      "type": "function"
    },
    {
      "inputs": [
        {
          "internalType": "address",
          "name": "",
          "type": "address"
        }
      ],
      "name": "tokenConfigs",
      "outputs": [
        {
          "internalType": "bytes32",
          "name": "pythId",
          "type": "bytes32"
        },
        {
          "internalType": "address",
          "name": "vToken",
          "type": "address"
        },
        {
          "internalType": "uint64",
          "name": "maxStalePeriod",
          "type": "uint64"
        }
      ],
      "stateMutability": "view",
      "type": "function"
    },
    {
      "inputs": [
        {
          "internalType": "address",
          "name": "newOwner",
          "type": "address"
        }
      ],
      "name": "transferOwnership",
      "outputs": [],
      "stateMutability": "nonpayable",
      "type": "function"
    },
    {
      "inputs": [],
      "name": "underlyingPythOracle",
      "outputs": [
        {
          "internalType": "contract IPyth",
          "name": "",
          "type": "address"
        }
      ],
      "stateMutability": "view",
      "type": "function"
    }
  ],
  "transactionHash": "0x1645d6046723c205aae9043c136a92c5263698849e42e2e7d2571fca1a5ade56",
  "args": [],
  "numDeployments": 1,
  "solcInputHash": "e7b3bf7e34c3d2c3297234cc84733b56",
  "bytecode": "0x608060405234801561001057600080fd5b50610fa9806100206000396000f3fe608060405234801561001057600080fd5b50600436106100c95760003560e01c80638da5cb5b11610081578063eb8bee701161005b578063eb8bee70146101df578063f2fde38b146101f2578063fc57d4df1461020557600080fd5b80638da5cb5b1461019e578063bbba205d146101af578063c4d66de8146101cc57600080fd5b80636a8c7d35116100b25780636a8c7d351461016e578063703ae1b914610183578063715018a61461019657600080fd5b80631b69dc5f146100ce57806356fa5a5614610143575b600080fd5b6101116100dc366004610bc9565b606660205260009081526040902080546001909101546001600160a01b03811690600160a01b900467ffffffffffffffff1683565b604080519384526001600160a01b03909216602084015267ffffffffffffffff16908201526060015b60405180910390f35b606554610156906001600160a01b031681565b6040516001600160a01b03909116815260200161013a565b61018161017c366004610cb7565b610218565b005b610181610191366004610bc9565b6102ba565b610181610371565b6033546001600160a01b0316610156565b6101be670de0b6b3a764000081565b60405190815260200161013a565b6101816101da366004610bc9565b610385565b6101816101ed366004610d67565b61055a565b610181610200366004610bc9565b6106ba565b6101be610213366004610bc9565b61074a565b61022061099d565b80516000036102765760405162461bcd60e51b815260206004820152601160248201527f6c656e6774682063616e2774206265203000000000000000000000000000000060448201526064015b60405180910390fd5b60005b81518110156102b6576102a482828151811061029757610297610d83565b602002602001015161055a565b806102ae81610daf565b915050610279565b5050565b6102c261099d565b806001600160a01b0381166103195760405162461bcd60e51b815260206004820152601560248201527f63616e2774206265207a65726f20616464726573730000000000000000000000604482015260640161026d565b6065805473ffffffffffffffffffffffffffffffffffffffff19166001600160a01b0384169081179091556040517fad50c6353c28bb4c67268a71d1f313fc9630fd4a91a6f3185270ba60a28710c190600090a25050565b61037961099d565b61038360006109f7565b565b600054610100900460ff16158080156103a55750600054600160ff909116105b806103bf5750303b1580156103bf575060005460ff166001145b6104315760405162461bcd60e51b815260206004820152602e60248201527f496e697469616c697a61626c653a20636f6e747261637420697320616c72656160448201527f647920696e697469616c697a6564000000000000000000000000000000000000606482015260840161026d565b6000805460ff191660011790558015610454576000805461ff0019166101001790555b61045c610a56565b6001600160a01b0382166104bd5760405162461bcd60e51b815260206004820152602260248201527f70797468206f7261636c652063616e6e6f74206265207a65726f206164647265604482015261737360f01b606482015260840161026d565b6065805473ffffffffffffffffffffffffffffffffffffffff19166001600160a01b0384169081179091556040517fad50c6353c28bb4c67268a71d1f313fc9630fd4a91a6f3185270ba60a28710c190600090a280156102b6576000805461ff0019169055604051600181527f7f26b83ff96e1f2b6a682f133852f6798a09c465da95921460cefb38474024989060200160405180910390a15050565b61056261099d565b60208101516001600160a01b0381166105bd5760405162461bcd60e51b815260206004820152601560248201527f63616e2774206265207a65726f20616464726573730000000000000000000000604482015260640161026d565b816040015167ffffffffffffffff1660000361061b5760405162461bcd60e51b815260206004820152601c60248201527f6d6178207374616c6520706572696f642063616e6e6f74206265203000000000604482015260640161026d565b602082810180516001600160a01b03908116600090815260669093526040808420865180825593516001909101805483890151929094167fffffffff000000000000000000000000000000000000000000000000000000009094168417600160a01b67ffffffffffffffff909316928302179055905190937f559091caed5aa983e358fdf18e8cefbc8ea71f64ea252477cf32778ae4c398b291a45050565b6106c261099d565b6001600160a01b03811661073e5760405162461bcd60e51b815260206004820152602660248201527f4f776e61626c653a206e6577206f776e657220697320746865207a65726f206160448201527f6464726573730000000000000000000000000000000000000000000000000000606482015260840161026d565b610747816109f7565b50565b6065546000906001600160a01b03166107a55760405162461bcd60e51b815260206004820152601b60248201527f50797468206f7261636c65206973207a65726f20616464726573730000000000604482015260640161026d565b6001600160a01b03808316600090815260666020526040902060018101549091166108125760405162461bcd60e51b815260206004820152601460248201527f76546f6b656e20646f65736e2774206578697374000000000000000000000000604482015260640161026d565b6065548154600183015460405163314a4d7f60e21b81526004810192909252600160a01b900467ffffffffffffffff1660248201526000916001600160a01b03169063c52935fc90604401606060405180830381865afa15801561087a573d6000803e3d6000fd5b505050506040513d601f19601f8201168201806040525081019061089e9190610dc8565b905060006108b2826000015160070b610ac9565b90506000811161090f5760405162461bcd60e51b815260206004820152602260248201527f50797468206f7261636c65207072696365206d75737420626520706f73697469604482015261766560f01b606482015260840161026d565b6000826040015160030b131561095e57610955610932836040015160030b610ac9565b61093d90600a610f2c565b61094f83670de0b6b3a7640000610b1f565b90610b1f565b95945050505050565b61095561097a836040015161097290610f38565b60030b610ac9565b61098590600a610f2c565b61099783670de0b6b3a7640000610b1f565b90610b34565b6033546001600160a01b031633146103835760405162461bcd60e51b815260206004820181905260248201527f4f776e61626c653a2063616c6c6572206973206e6f7420746865206f776e6572604482015260640161026d565b603380546001600160a01b0383811673ffffffffffffffffffffffffffffffffffffffff19831681179093556040519116919082907f8be0079c531659141344cd1fd0a4f28419497f9722a3daafe3b4186f6b6457e090600090a35050565b600054610100900460ff16610ac15760405162461bcd60e51b815260206004820152602b60248201527f496e697469616c697a61626c653a20636f6e7472616374206973206e6f74206960448201526a6e697469616c697a696e6760a81b606482015260840161026d565b610383610b40565b600080821215610b1b5760405162461bcd60e51b815260206004820181905260248201527f53616665436173743a2076616c7565206d75737420626520706f736974697665604482015260640161026d565b5090565b6000610b2b8284610f5b565b90505b92915050565b6000610b2b8284610f7a565b600054610100900460ff16610bab5760405162461bcd60e51b815260206004820152602b60248201527f496e697469616c697a61626c653a20636f6e7472616374206973206e6f74206960448201526a6e697469616c697a696e6760a81b606482015260840161026d565b610383336109f7565b6001600160a01b038116811461074757600080fd5b600060208284031215610bdb57600080fd5b8135610be681610bb4565b9392505050565b634e487b7160e01b600052604160045260246000fd5b604051601f8201601f1916810167ffffffffffffffff81118282101715610c2c57610c2c610bed565b604052919050565b67ffffffffffffffff8116811461074757600080fd5b600060608284031215610c5c57600080fd5b6040516060810181811067ffffffffffffffff82111715610c7f57610c7f610bed565b604052823581529050806020830135610c9781610bb4565b60208201526040830135610caa81610c34565b6040919091015292915050565b60006020808385031215610cca57600080fd5b823567ffffffffffffffff80821115610ce257600080fd5b818501915085601f830112610cf657600080fd5b813581811115610d0857610d08610bed565b610d16848260051b01610c03565b81815284810192506060918202840185019188831115610d3557600080fd5b938501935b82851015610d5b57610d4c8986610c4a565b84529384019392850192610d3a565b50979650505050505050565b600060608284031215610d7957600080fd5b610b2b8383610c4a565b634e487b7160e01b600052603260045260246000fd5b634e487b7160e01b600052601160045260246000fd5b600060018201610dc157610dc1610d99565b5060010190565b600060608284031215610dda57600080fd5b6040516060810181811067ffffffffffffffff82111715610dfd57610dfd610bed565b6040528251600781900b8114610e1257600080fd5b81526020830151610e2281610c34565b60208201526040830151600381900b8114610e3c57600080fd5b60408201529392505050565b600181815b80851115610e83578160001904821115610e6957610e69610d99565b80851615610e7657918102915b93841c9390800290610e4d565b509250929050565b600082610e9a57506001610b2e565b81610ea757506000610b2e565b8160018114610ebd5760028114610ec757610ee3565b6001915050610b2e565b60ff841115610ed857610ed8610d99565b50506001821b610b2e565b5060208310610133831016604e8410600b8410161715610f06575081810a610b2e565b610f108383610e48565b8060001904821115610f2457610f24610d99565b029392505050565b6000610b2b8383610e8b565b60008160030b637fffffff198103610f5257610f52610d99565b60000392915050565b6000816000190483118215151615610f7557610f75610d99565b500290565b600082610f9757634e487b7160e01b600052601260045260246000fd5b50049056fea164736f6c634300080d000a",
  "devdoc": {
    "kind": "dev",
    "methods": {
      "getUnderlyingPrice(address)": {
        "params": {
          "vToken": "vToken address"
        },
        "returns": {
          "_0": "price in 10 decimals"
        }
      },
      "owner()": {
        "details": "Returns the address of the current owner."
      },
      "renounceOwnership()": {
        "details": "Leaves the contract without owner. It will not be possible to call `onlyOwner` functions anymore. Can only be called by the current owner. NOTE: Renouncing ownership will leave the contract without an owner, thereby removing any functionality that is only available to the owner."
      },
      "setTokenConfig((bytes32,address,uint64))": {
        "params": {
          "tokenConfig": "token config struct"
        }
      },
      "setTokenConfigs((bytes32,address,uint64)[])": {
        "params": {
          "tokenConfigs_": "token config array"
        }
      },
      "setUnderlyingPythOracle(address)": {
        "params": {
          "underlyingPythOracle_": "pyth oracle contract address"
        }
      },
      "transferOwnership(address)": {
        "details": "Transfers ownership of the contract to a new account (`newOwner`). Can only be called by the current owner."
      }
    },
    "version": 1
  },
  "userdoc": {
    "events": {
      "PythOracleSet(address)": {
        "notice": "emit when setting a new pyth oracle address "
      },
      "TokenConfigAdded(address,bytes32,uint64)": {
        "notice": "emit when token config added"
      }
    },
    "kind": "user",
    "methods": {
      "EXP_SCALE()": {
        "notice": "price decimals"
      },
      "getUnderlyingPrice(address)": {
        "notice": "Get price of underlying asset of the input vToken, under the hood this function get price from Pyth contract, the prices of which are updated externally"
      },
      "setTokenConfig((bytes32,address,uint64))": {
        "notice": "Set single token config, `maxStalePeriod` cannot be 0 and `vToken` can be zero address"
      },
      "setTokenConfigs((bytes32,address,uint64)[])": {
        "notice": "Batch set token configs"
      },
      "setUnderlyingPythOracle(address)": {
        "notice": "set the underlying pyth oracle contract address"
      },
      "tokenConfigs(address)": {
        "notice": "token configs by vToken address"
      },
      "underlyingPythOracle()": {
        "notice": "the actual pyth oracle address fetch & store the prices"
      }
    },
    "notice": "PythOracle contract reads prices from actual Pyth oracle contract which accepts/verifies and stores the updated prices from external sources",
    "version": 1
  },
  "storageLayout": {
    "storage": [
      {
        "astId": 138,
        "contract": "contracts/oracles/PythOracle.sol:PythOracle",
        "label": "_initialized",
        "offset": 0,
        "slot": "0",
        "type": "t_uint8"
      },
      {
        "astId": 141,
        "contract": "contracts/oracles/PythOracle.sol:PythOracle",
        "label": "_initializing",
        "offset": 1,
        "slot": "0",
        "type": "t_bool"
      },
      {
        "astId": 693,
        "contract": "contracts/oracles/PythOracle.sol:PythOracle",
        "label": "__gap",
        "offset": 0,
        "slot": "1",
        "type": "t_array(t_uint256)50_storage"
      },
      {
        "astId": 10,
        "contract": "contracts/oracles/PythOracle.sol:PythOracle",
        "label": "_owner",
        "offset": 0,
        "slot": "51",
        "type": "t_address"
      },
      {
        "astId": 130,
        "contract": "contracts/oracles/PythOracle.sol:PythOracle",
        "label": "__gap",
        "offset": 0,
        "slot": "52",
        "type": "t_array(t_uint256)49_storage"
      },
      {
        "astId": 4044,
        "contract": "contracts/oracles/PythOracle.sol:PythOracle",
        "label": "underlyingPythOracle",
        "offset": 0,
        "slot": "101",
        "type": "t_contract(IPyth)3128"
      },
      {
        "astId": 4064,
        "contract": "contracts/oracles/PythOracle.sol:PythOracle",
        "label": "tokenConfigs",
        "offset": 0,
        "slot": "102",
        "type": "t_mapping(t_address,t_struct(TokenConfig)4022_storage)"
      }
    ],
    "types": {
      "t_address": {
        "encoding": "inplace",
        "label": "address",
        "numberOfBytes": "20"
      },
      "t_array(t_uint256)49_storage": {
        "base": "t_uint256",
        "encoding": "inplace",
        "label": "uint256[49]",
        "numberOfBytes": "1568"
      },
      "t_array(t_uint256)50_storage": {
        "base": "t_uint256",
        "encoding": "inplace",
        "label": "uint256[50]",
        "numberOfBytes": "1600"
      },
      "t_bool": {
        "encoding": "inplace",
        "label": "bool",
        "numberOfBytes": "1"
      },
      "t_bytes32": {
        "encoding": "inplace",
        "label": "bytes32",
        "numberOfBytes": "32"
      },
      "t_contract(IPyth)3128": {
        "encoding": "inplace",
        "label": "contract IPyth",
        "numberOfBytes": "20"
      },
      "t_mapping(t_address,t_struct(TokenConfig)4022_storage)": {
        "encoding": "mapping",
        "key": "t_address",
        "label": "mapping(address => struct TokenConfig)",
        "numberOfBytes": "32",
        "value": "t_struct(TokenConfig)4022_storage"
      },
      "t_struct(TokenConfig)4022_storage": {
        "encoding": "inplace",
        "label": "struct TokenConfig",
        "members": [
          {
            "astId": 4017,
            "contract": "contracts/oracles/PythOracle.sol:PythOracle",
            "label": "pythId",
            "offset": 0,
            "slot": "0",
            "type": "t_bytes32"
          },
          {
            "astId": 4019,
            "contract": "contracts/oracles/PythOracle.sol:PythOracle",
            "label": "vToken",
            "offset": 0,
            "slot": "1",
            "type": "t_address"
          },
          {
            "astId": 4021,
            "contract": "contracts/oracles/PythOracle.sol:PythOracle",
            "label": "maxStalePeriod",
            "offset": 20,
            "slot": "1",
            "type": "t_uint64"
          }
        ],
        "numberOfBytes": "64"
      },
      "t_uint256": {
        "encoding": "inplace",
        "label": "uint256",
        "numberOfBytes": "32"
      },
      "t_uint64": {
        "encoding": "inplace",
        "label": "uint64",
        "numberOfBytes": "8"
      },
      "t_uint8": {
        "encoding": "inplace",
        "label": "uint8",
        "numberOfBytes": "1"
      }
    }
  }
}