{
  "address": "0x8d8c50bc569ad820dA9500d2F94b65ECF33dC8C0",
  "abi": [
    {
      "anonymous": false,
      "inputs": [
        {
          "indexed": true,
          "internalType": "bool",
          "name": "isEnable",
          "type": "bool"
        }
      ],
      "name": "GlobalEnable",
      "type": "event"
    },
    {
      "anonymous": false,
      "inputs": [
        {
          "indexed": false,
          "internalType": "uint8",
          "name": "version",
          "type": "uint8"
        }
      ],
      "name": "Initialized",
      "type": "event"
    },
    {
      "anonymous": false,
      "inputs": [
        {
          "indexed": true,
          "internalType": "address",
          "name": "vToken",
          "type": "address"
        },
        {
          "indexed": true,
          "internalType": "uint256",
          "name": "role",
          "type": "uint256"
        },
        {
          "indexed": true,
          "internalType": "bool",
          "name": "enable",
          "type": "bool"
        }
      ],
      "name": "OracleEnabled",
      "type": "event"
    },
    {
      "anonymous": false,
      "inputs": [
        {
          "indexed": true,
          "internalType": "address",
          "name": "vToken",
          "type": "address"
        },
        {
          "indexed": true,
          "internalType": "address",
          "name": "oracle",
          "type": "address"
        },
        {
          "indexed": true,
          "internalType": "uint256",
          "name": "role",
          "type": "uint256"
        }
      ],
      "name": "OracleSet",
      "type": "event"
    },
    {
      "anonymous": false,
      "inputs": [
        {
          "indexed": true,
          "internalType": "address",
          "name": "previousOwner",
          "type": "address"
        },
        {
          "indexed": true,
          "internalType": "address",
          "name": "newOwner",
          "type": "address"
        }
      ],
      "name": "OwnershipTransferred",
      "type": "event"
    },
    {
      "anonymous": false,
      "inputs": [
        {
          "indexed": false,
          "internalType": "address",
          "name": "account",
          "type": "address"
        }
      ],
      "name": "Paused",
      "type": "event"
    },
    {
      "anonymous": false,
      "inputs": [
        {
          "indexed": true,
          "internalType": "address",
          "name": "token",
          "type": "address"
        },
        {
          "indexed": true,
          "internalType": "address",
          "name": "mainOracle",
          "type": "address"
        },
        {
          "indexed": true,
          "internalType": "address",
          "name": "pivotOracle",
          "type": "address"
        },
        {
          "indexed": false,
          "internalType": "address",
          "name": "fallbackOracle",
          "type": "address"
        }
      ],
      "name": "TokenConfigAdded",
      "type": "event"
    },
    {
      "anonymous": false,
      "inputs": [
        {
          "indexed": false,
          "internalType": "address",
          "name": "account",
          "type": "address"
        }
      ],
      "name": "Unpaused",
      "type": "event"
    },
    {
      "inputs": [],
      "name": "INVALID_PRICE",
      "outputs": [
        {
          "internalType": "uint256",
          "name": "",
          "type": "uint256"
        }
      ],
      "stateMutability": "view",
      "type": "function"
    },
    {
      "inputs": [
        {
          "internalType": "address",
          "name": "vToken",
          "type": "address"
        },
        {
          "internalType": "enum ResilientOracle.OracleRole",
          "name": "role",
          "type": "uint8"
        },
        {
          "internalType": "bool",
          "name": "enable",
          "type": "bool"
        }
      ],
      "name": "enableOracle",
      "outputs": [],
      "stateMutability": "nonpayable",
      "type": "function"
    },
    {
      "inputs": [
        {
          "internalType": "address",
          "name": "vToken",
          "type": "address"
        },
        {
          "internalType": "enum ResilientOracle.OracleRole",
          "name": "role",
          "type": "uint8"
        }
      ],
      "name": "getOracle",
      "outputs": [
        {
          "internalType": "address",
          "name": "oracle",
          "type": "address"
        },
        {
          "internalType": "bool",
          "name": "enabled",
          "type": "bool"
        }
      ],
      "stateMutability": "view",
      "type": "function"
    },
    {
      "inputs": [
        {
          "internalType": "address",
          "name": "vToken",
          "type": "address"
        }
      ],
      "name": "getTokenConfig",
      "outputs": [
        {
          "components": [
            {
              "internalType": "address",
              "name": "vToken",
              "type": "address"
            },
            {
              "internalType": "address[3]",
              "name": "oracles",
              "type": "address[3]"
            },
            {
              "internalType": "bool[3]",
              "name": "enableFlagsForOracles",
              "type": "bool[3]"
            }
          ],
          "internalType": "struct ResilientOracle.TokenConfig",
          "name": "",
          "type": "tuple"
        }
      ],
      "stateMutability": "view",
      "type": "function"
    },
    {
      "inputs": [
        {
          "internalType": "address",
          "name": "vToken",
          "type": "address"
        }
      ],
      "name": "getUnderlyingPrice",
      "outputs": [
        {
          "internalType": "uint256",
          "name": "",
          "type": "uint256"
        }
      ],
      "stateMutability": "view",
      "type": "function"
    },
    {
      "inputs": [],
      "name": "initialize",
      "outputs": [],
      "stateMutability": "nonpayable",
      "type": "function"
    },
    {
      "inputs": [],
      "name": "owner",
      "outputs": [
        {
          "internalType": "address",
          "name": "",
          "type": "address"
        }
      ],
      "stateMutability": "view",
      "type": "function"
    },
    {
      "inputs": [],
      "name": "pause",
      "outputs": [],
      "stateMutability": "nonpayable",
      "type": "function"
    },
    {
      "inputs": [],
      "name": "paused",
      "outputs": [
        {
          "internalType": "bool",
          "name": "",
          "type": "bool"
        }
      ],
      "stateMutability": "view",
      "type": "function"
    },
    {
      "inputs": [],
      "name": "renounceOwnership",
      "outputs": [],
      "stateMutability": "nonpayable",
      "type": "function"
    },
    {
      "inputs": [
        {
          "internalType": "address",
          "name": "vToken",
          "type": "address"
        },
        {
          "internalType": "address",
          "name": "oracle",
          "type": "address"
        },
        {
          "internalType": "enum ResilientOracle.OracleRole",
          "name": "role",
          "type": "uint8"
        }
      ],
      "name": "setOracle",
      "outputs": [],
      "stateMutability": "nonpayable",
      "type": "function"
    },
    {
      "inputs": [
        {
          "components": [
            {
              "internalType": "address",
              "name": "vToken",
              "type": "address"
            },
            {
              "internalType": "address[3]",
              "name": "oracles",
              "type": "address[3]"
            },
            {
              "internalType": "bool[3]",
              "name": "enableFlagsForOracles",
              "type": "bool[3]"
            }
          ],
          "internalType": "struct ResilientOracle.TokenConfig",
          "name": "tokenConfig",
          "type": "tuple"
        }
      ],
      "name": "setTokenConfig",
      "outputs": [],
      "stateMutability": "nonpayable",
      "type": "function"
    },
    {
      "inputs": [
        {
          "components": [
            {
              "internalType": "address",
              "name": "vToken",
              "type": "address"
            },
            {
              "internalType": "address[3]",
              "name": "oracles",
              "type": "address[3]"
            },
            {
              "internalType": "bool[3]",
              "name": "enableFlagsForOracles",
              "type": "bool[3]"
            }
          ],
          "internalType": "struct ResilientOracle.TokenConfig[]",
          "name": "tokenConfigs_",
          "type": "tuple[]"
        }
      ],
      "name": "setTokenConfigs",
      "outputs": [],
      "stateMutability": "nonpayable",
      "type": "function"
    },
    {
      "inputs": [
        {
          "internalType": "address",
          "name": "newOwner",
          "type": "address"
        }
      ],
      "name": "transferOwnership",
      "outputs": [],
      "stateMutability": "nonpayable",
      "type": "function"
    },
    {
      "inputs": [],
      "name": "unpause",
      "outputs": [],
      "stateMutability": "nonpayable",
      "type": "function"
    }
  ],
  "transactionHash": "0x5b557d96b9b18dee207003f9f4e12a2595dcbfc7c8db5fba1bfa134f2277da6f",
  "args": [],
  "numDeployments": 1,
  "solcInputHash": "3d8eb2f44c063c47a98f9ac1a2a32f6e",
  "bytecode": "0x608060405234801561001057600080fd5b506117c6806100206000396000f3fe608060405234801561001057600080fd5b50600436106100f55760003560e01c80638129fc1c11610097578063a6b1344a11610066578063a6b1344a146101d3578063cb67e3b1146101e6578063f2fde38b14610206578063fc57d4df1461021957600080fd5b80638129fc1c146101765780638456cb591461017e5780638b855da4146101865780638da5cb5b146101b857600080fd5b80634b932b8f116100d35780634b932b8f1461012a5780634bf39cba1461013d5780635c975abb14610158578063715018a61461016e57600080fd5b80632cfa3871146100fa578063333a21b01461010f5780633f4ba83a14610122575b600080fd5b61010d6101083660046114fb565b61022c565b005b61010d61011d3660046115ab565b6102ce565b61010d61043a565b61010d6101383660046115dd565b61044c565b610145600081565b6040519081526020015b60405180910390f35b60655460ff16604051901515815260200161014f565b61010d6105ba565b61010d6105cc565b61010d6106f4565b610199610194366004611624565b610704565b604080516001600160a01b03909316835290151560208301520161014f565b6033546040516001600160a01b03909116815260200161014f565b61010d6101e1366004611657565b6107a6565b6101f96101f436600461169a565b6109b8565b60405161014f91906116b5565b61010d61021436600461169a565b610a8d565b61014561022736600461169a565b610b1a565b610234610ca2565b805160000361028a5760405162461bcd60e51b815260206004820152601160248201527f6c656e6774682063616e2774206265203000000000000000000000000000000060448201526064015b60405180910390fd5b60005b81518110156102ca576102b88282815181106102ab576102ab611730565b60200260200101516102ce565b806102c281611746565b91505061028d565b5050565b6102d6610ca2565b80516001600160a01b0381166103265760405162461bcd60e51b815260206004820152601560248201527463616e2774206265207a65726f206164647265737360581b6044820152606401610281565b6020820151516001600160a01b03811661037a5760405162461bcd60e51b815260206004820152601560248201527463616e2774206265207a65726f206164647265737360581b6044820152606401610281565b82516001600160a01b039081166000908152609760209081526040909120855181546001600160a01b03191693169290921782558401518491906103c49060018301906003611208565b5060408201516103da9060048301906003611260565b505050602083810151808201518151865160409384015193516001600160a01b039485168152928416949184169316917fa51ad01e2270c314a7b78f0c60fe66c723f2d06c121d63fcdce776e654878fc1910160405180910390a4505050565b610442610ca2565b61044a610cfc565b565b610454610ca2565b826001600160a01b0381166104a35760405162461bcd60e51b815260206004820152601560248201527463616e2774206265207a65726f206164647265737360581b6044820152606401610281565b6001600160a01b0380851660009081526097602052604090205485911661050c5760405162461bcd60e51b815260206004820152601760248201527f746f6b656e20636f6e666967206d7573742065786973740000000000000000006044820152606401610281565b6001600160a01b0385166000908152609760205260409020839060040185600281111561053b5761053b61176d565b6003811061054b5761054b611730565b602091828204019190066101000a81548160ff02191690831515021790555082151584600281111561057f5761057f61176d565b6040516001600160a01b038816907fcf3cad1ec87208efbde5d82a0557484a78d4182c3ad16926a5463bc1f7234b3d90600090a45050505050565b6105c2610ca2565b61044a6000610d4e565b600054610100900460ff16158080156105ec5750600054600160ff909116105b806106065750303b158015610606575060005460ff166001145b6106785760405162461bcd60e51b815260206004820152602e60248201527f496e697469616c697a61626c653a20636f6e747261637420697320616c72656160448201527f647920696e697469616c697a65640000000000000000000000000000000000006064820152608401610281565b6000805460ff19166001179055801561069b576000805461ff0019166101001790555b6106a3610da0565b6106ab610e13565b80156106f1576000805461ff0019169055604051600181527f7f26b83ff96e1f2b6a682f133852f6798a09c465da95921460cefb38474024989060200160405180910390a15b50565b6106fc610ca2565b61044a610e86565b6001600160a01b038216600090815260976020526040812081906001018360028111156107335761073361176d565b6003811061074357610743611730565b01546001600160a01b038581166000908152609760205260409020911692506004018360028111156107775761077761176d565b6003811061078757610787611730565b602091828204019190069054906101000a900460ff1690509250929050565b6107ae610ca2565b826001600160a01b0381166107fd5760405162461bcd60e51b815260206004820152601560248201527463616e2774206265207a65726f206164647265737360581b6044820152606401610281565b6001600160a01b038085166000908152609760205260409020548591166108665760405162461bcd60e51b815260206004820152601760248201527f746f6b656e20636f6e666967206d7573742065786973740000000000000000006044820152606401610281565b6001600160a01b03841615801561088e5750600083600281111561088c5761088c61176d565b145b156109015760405162461bcd60e51b815260206004820152602560248201527f63616e277420736574207a65726f206164647265737320746f206d61696e206f60448201527f7261636c650000000000000000000000000000000000000000000000000000006064820152608401610281565b6001600160a01b038516600090815260976020526040902084906001018460028111156109305761093061176d565b6003811061094057610940611730565b0180546001600160a01b0319166001600160a01b03929092169190911790558260028111156109715761097161176d565b846001600160a01b0316866001600160a01b03167fea681d3efb830ef032a9c29a7215b5ceeeb546250d2c463dbf87817aecda1bf160405160405180910390a45050505050565b6109c06112ed565b6001600160a01b038281166000908152609760209081526040918290208251606080820185528254909516815283519485019384905293909291840191600184019060039082845b81546001600160a01b03168152600190910190602001808311610a08575050509183525050604080516060810191829052602090920191906004840190600390826000855b825461010083900a900460ff161515815260206001928301818104948501949093039092029101808411610a4d5790505050505050815250509050919050565b610a95610ca2565b6001600160a01b038116610b115760405162461bcd60e51b815260206004820152602660248201527f4f776e61626c653a206e6577206f776e657220697320746865207a65726f206160448201527f64647265737300000000000000000000000000000000000000000000000000006064820152608401610281565b6106f181610d4e565b600080610b2683610ec3565b9050600080610b36856002610704565b91509150600083148015610b475750805b8015610b5b57506001600160a01b03821615155b15610c4c5760405163fc57d4df60e01b81526001600160a01b0386811660048301526000919084169063fc57d4df90602401602060405180830381865afa158015610baa573d6000803e3d6000fd5b505050506040513d601f19601f82011682018060405250810190610bce9190611783565b905080610c435760405162461bcd60e51b815260206004820152602660248201527f66616c6c6261636b206f7261636c65207072696365206d75737420626520706f60448201527f73697469766500000000000000000000000000000000000000000000000000006064820152608401610281565b95945050505050565b82610c995760405162461bcd60e51b815260206004820152601e60248201527f696e76616c696420726573696c69656e74206f7261636c6520707269636500006044820152606401610281565b50909392505050565b6033546001600160a01b0316331461044a5760405162461bcd60e51b815260206004820181905260248201527f4f776e61626c653a2063616c6c6572206973206e6f7420746865206f776e65726044820152606401610281565b610d04611078565b6065805460ff191690557f5db9ee0a495bf2e6ff9c91a7834c1ba4fdd244a5e8aa4e537bd38aeae4b073aa335b6040516001600160a01b03909116815260200160405180910390a1565b603380546001600160a01b038381166001600160a01b0319831681179093556040519116919082907f8be0079c531659141344cd1fd0a4f28419497f9722a3daafe3b4186f6b6457e090600090a35050565b600054610100900460ff16610e0b5760405162461bcd60e51b815260206004820152602b60248201527f496e697469616c697a61626c653a20636f6e7472616374206973206e6f74206960448201526a6e697469616c697a696e6760a81b6064820152608401610281565b61044a6110ca565b600054610100900460ff16610e7e5760405162461bcd60e51b815260206004820152602b60248201527f496e697469616c697a61626c653a20636f6e7472616374206973206e6f74206960448201526a6e697469616c697a696e6760a81b6064820152608401610281565b61044a61113e565b610e8e6111b5565b6065805460ff191660011790557f62e78cea01bee320cd4e420270b5ea74000d11b0c9f74754ebdbfc544b05a258610d313390565b6000610ed160655460ff1690565b15610f1e5760405162461bcd60e51b815260206004820152601a60248201527f726573696c69656e74206f7261636c65206973207061757365640000000000006044820152606401610281565b600080610f2c846000610704565b91509150600081610f3f57949350505050565b60405163fc57d4df60e01b81526001600160a01b03868116600483015284169063fc57d4df90602401602060405180830381865afa158015610f85573d6000803e3d6000fd5b505050506040513d601f19601f82011682018060405250810190610fa99190611783565b9050600080610fb9876001610704565b90925090506001600160a01b0382161580610fd2575080155b15610fe257509095945050505050565b60405163fd45a43360e01b81526001600160a01b038881166004830152602482018590526000919084169063fd45a43390604401602060405180830381865afa158015611033573d6000803e3d6000fd5b505050506040513d601f19601f82011682018060405250810190611057919061179c565b90508061106c57506000979650505050505050565b50919695505050505050565b60655460ff1661044a5760405162461bcd60e51b815260206004820152601460248201527f5061757361626c653a206e6f74207061757365640000000000000000000000006044820152606401610281565b600054610100900460ff166111355760405162461bcd60e51b815260206004820152602b60248201527f496e697469616c697a61626c653a20636f6e7472616374206973206e6f74206960448201526a6e697469616c697a696e6760a81b6064820152608401610281565b61044a33610d4e565b600054610100900460ff166111a95760405162461bcd60e51b815260206004820152602b60248201527f496e697469616c697a61626c653a20636f6e7472616374206973206e6f74206960448201526a6e697469616c697a696e6760a81b6064820152608401610281565b6065805460ff19169055565b60655460ff161561044a5760405162461bcd60e51b815260206004820152601060248201527f5061757361626c653a20706175736564000000000000000000000000000000006044820152606401610281565b8260038101928215611250579160200282015b8281111561125057825182546001600160a01b0319166001600160a01b0390911617825560209092019160019091019061121b565b5061125c929150611322565b5090565b6001830191839082156112505791602002820160005b838211156112b357835183826101000a81548160ff0219169083151502179055509260200192600101602081600001049283019260010302611276565b80156112e05782816101000a81549060ff02191690556001016020816000010492830192600103026112b3565b505061125c929150611322565b604051806060016040528060006001600160a01b03168152602001611310611337565b815260200161131d611337565b905290565b5b8082111561125c5760008155600101611323565b60405180606001604052806003906020820280368337509192915050565b634e487b7160e01b600052604160045260246000fd5b6040516060810167ffffffffffffffff8111828210171561138e5761138e611355565b60405290565b604051601f8201601f1916810167ffffffffffffffff811182821017156113bd576113bd611355565b604052919050565b80356001600160a01b03811681146113dc57600080fd5b919050565b80151581146106f157600080fd5b600082601f83011261140057600080fd5b61140861136b565b80606084018581111561141a57600080fd5b845b8181101561143d57803561142f816113e1565b84526020938401930161141c565b509095945050505050565b600060e0828403121561145a57600080fd5b6040516060810181811067ffffffffffffffff8211171561147d5761147d611355565b60405290508061148c836113c5565b8152602084603f85011261149f57600080fd5b6114a761136b565b8060808601878111156114b957600080fd5b8387015b818110156114db576114ce816113c5565b84529284019284016114bd565b5081848601526114eb88826113ef565b6040860152505050505092915050565b6000602080838503121561150e57600080fd5b823567ffffffffffffffff8082111561152657600080fd5b818501915085601f83011261153a57600080fd5b81358181111561154c5761154c611355565b61155a848260051b01611394565b818152848101925060e091820284018501918883111561157957600080fd5b938501935b8285101561159f576115908986611448565b8452938401939285019261157e565b50979650505050505050565b600060e082840312156115bd57600080fd5b6115c78383611448565b9392505050565b8035600381106113dc57600080fd5b6000806000606084860312156115f257600080fd5b6115fb846113c5565b9250611609602085016115ce565b91506040840135611619816113e1565b809150509250925092565b6000806040838503121561163757600080fd5b611640836113c5565b915061164e602084016115ce565b90509250929050565b60008060006060848603121561166c57600080fd5b611675846113c5565b9250611683602085016113c5565b9150611691604085016115ce565b90509250925092565b6000602082840312156116ac57600080fd5b6115c7826113c5565b600060e0820190506001600160a01b0380845116835260208085015181850160005b60038110156116f65782518516825291830191908301906001016116d7565b505050604085015191506080840160005b6003811015611726578351151582529282019290820190600101611707565b5050505092915050565b634e487b7160e01b600052603260045260246000fd5b60006001820161176657634e487b7160e01b600052601160045260246000fd5b5060010190565b634e487b7160e01b600052602160045260246000fd5b60006020828403121561179557600080fd5b5051919050565b6000602082840312156117ae57600080fd5b81516115c7816113e156fea164736f6c634300080d000a",
  "devdoc": {
    "kind": "dev",
    "methods": {
      "enableOracle(address,uint8,bool)": {
        "params": {
          "enable": "expected status",
          "role": "oracle role",
          "vToken": "vToken address"
        }
      },
      "getOracle(address,uint8)": {
        "params": {
          "role": "oracle role",
          "vToken": "vtoken address"
        }
      },
      "getTokenConfig(address)": {
        "details": "Get token config by vToken address ",
        "params": {
          "vToken": "vtoken address"
        }
      },
      "getUnderlyingPrice(address)": {
        "params": {
          "vToken": "vToken address"
        },
        "returns": {
          "_0": "price USD price in 18 decimals"
        }
      },
      "owner()": {
        "details": "Returns the address of the current owner."
      },
      "paused()": {
        "details": "Returns true if the contract is paused, and false otherwise."
      },
      "renounceOwnership()": {
        "details": "Leaves the contract without owner. It will not be possible to call `onlyOwner` functions anymore. Can only be called by the current owner. NOTE: Renouncing ownership will leave the contract without an owner, thereby removing any functionality that is only available to the owner."
      },
      "setOracle(address,address,uint8)": {
        "params": {
          "oracle": "oracle address",
          "role": "oracle role",
          "vToken": "vToken address"
        }
      },
      "setTokenConfig((address,address[3],bool[3]))": {
        "params": {
          "tokenConfig": "token config struct"
        }
      },
      "setTokenConfigs((address,address[3],bool[3])[])": {
        "params": {
          "tokenConfigs_": "token config array"
        }
      },
      "transferOwnership(address)": {
        "details": "Transfers ownership of the contract to a new account (`newOwner`). Can only be called by the current owner."
      }
    },
    "version": 1
  },
  "userdoc": {
    "kind": "user",
    "methods": {
      "enableOracle(address,uint8,bool)": {
        "notice": "Enable/disable oracle for the input vToken, input vToken MUST exist"
      },
      "getOracle(address,uint8)": {
        "notice": "Get oracle & enabling status by vToken address "
      },
      "getUnderlyingPrice(address)": {
        "notice": "Get price of underlying asset of the input vToken, check flow: - check the global pausing status - check price from main oracle - check price against pivot oracle, if any - if fallback flag is enabled and price is invalidated, fallback"
      },
      "pause()": {
        "notice": "Pause protocol"
      },
      "setOracle(address,address,uint8)": {
        "notice": "Set oracle of any type for the input vToken, input vToken MUST exist"
      },
      "setTokenConfig((address,address[3],bool[3]))": {
        "notice": "Set single token configs, vToken MUST HAVE NOT be added before, and main oracle MUST NOT be zero address"
      },
      "setTokenConfigs((address,address[3],bool[3])[])": {
        "notice": "Batch set token configs"
      },
      "unpause()": {
        "notice": "Unpause protocol"
      }
    },
    "version": 1
  },
  "storageLayout": {
    "storage": [
      {
        "astId": 138,
        "contract": "contracts/ResilientOracle.sol:ResilientOracle",
        "label": "_initialized",
        "offset": 0,
        "slot": "0",
        "type": "t_uint8"
      },
      {
        "astId": 141,
        "contract": "contracts/ResilientOracle.sol:ResilientOracle",
        "label": "_initializing",
        "offset": 1,
        "slot": "0",
        "type": "t_bool"
      },
      {
        "astId": 693,
        "contract": "contracts/ResilientOracle.sol:ResilientOracle",
        "label": "__gap",
        "offset": 0,
        "slot": "1",
        "type": "t_array(t_uint256)50_storage"
      },
      {
        "astId": 10,
        "contract": "contracts/ResilientOracle.sol:ResilientOracle",
        "label": "_owner",
        "offset": 0,
        "slot": "51",
        "type": "t_address"
      },
      {
        "astId": 130,
        "contract": "contracts/ResilientOracle.sol:ResilientOracle",
        "label": "__gap",
        "offset": 0,
        "slot": "52",
        "type": "t_array(t_uint256)49_storage"
      },
      {
        "astId": 303,
        "contract": "contracts/ResilientOracle.sol:ResilientOracle",
        "label": "_paused",
        "offset": 0,
        "slot": "101",
        "type": "t_bool"
      },
      {
        "astId": 408,
        "contract": "contracts/ResilientOracle.sol:ResilientOracle",
        "label": "__gap",
        "offset": 0,
        "slot": "102",
        "type": "t_array(t_uint256)49_storage"
      },
      {
        "astId": 2360,
        "contract": "contracts/ResilientOracle.sol:ResilientOracle",
        "label": "tokenConfigs",
        "offset": 0,
        "slot": "151",
        "type": "t_mapping(t_address,t_struct(TokenConfig)2355_storage)"
      }
    ],
    "types": {
      "t_address": {
        "encoding": "inplace",
        "label": "address",
        "numberOfBytes": "20"
      },
      "t_array(t_address)3_storage": {
        "base": "t_address",
        "encoding": "inplace",
        "label": "address[3]",
        "numberOfBytes": "96"
      },
      "t_array(t_bool)3_storage": {
        "base": "t_bool",
        "encoding": "inplace",
        "label": "bool[3]",
        "numberOfBytes": "32"
      },
      "t_array(t_uint256)49_storage": {
        "base": "t_uint256",
        "encoding": "inplace",
        "label": "uint256[49]",
        "numberOfBytes": "1568"
      },
      "t_array(t_uint256)50_storage": {
        "base": "t_uint256",
        "encoding": "inplace",
        "label": "uint256[50]",
        "numberOfBytes": "1600"
      },
      "t_bool": {
        "encoding": "inplace",
        "label": "bool",
        "numberOfBytes": "1"
      },
      "t_mapping(t_address,t_struct(TokenConfig)2355_storage)": {
        "encoding": "mapping",
        "key": "t_address",
        "label": "mapping(address => struct ResilientOracle.TokenConfig)",
        "numberOfBytes": "32",
        "value": "t_struct(TokenConfig)2355_storage"
      },
      "t_struct(TokenConfig)2355_storage": {
        "encoding": "inplace",
        "label": "struct ResilientOracle.TokenConfig",
        "members": [
          {
            "astId": 2344,
            "contract": "contracts/ResilientOracle.sol:ResilientOracle",
            "label": "vToken",
            "offset": 0,
            "slot": "0",
            "type": "t_address"
          },
          {
            "astId": 2349,
            "contract": "contracts/ResilientOracle.sol:ResilientOracle",
            "label": "oracles",
            "offset": 0,
            "slot": "1",
            "type": "t_array(t_address)3_storage"
          },
          {
            "astId": 2354,
            "contract": "contracts/ResilientOracle.sol:ResilientOracle",
            "label": "enableFlagsForOracles",
            "offset": 0,
            "slot": "4",
            "type": "t_array(t_bool)3_storage"
          }
        ],
        "numberOfBytes": "160"
      },
      "t_uint256": {
        "encoding": "inplace",
        "label": "uint256",
        "numberOfBytes": "32"
      },
      "t_uint8": {
        "encoding": "inplace",
        "label": "uint8",
        "numberOfBytes": "1"
      }
    }
  }
}